{
  "contracts/PumpFunGovernance.sol": {
    "PumpFunGovernance": {
      "abi": [
        {
          "inputs": [],
          "stateMutability": "nonpayable",
          "type": "constructor"
        },
        {
          "inputs": [
            {
              "internalType": "address",
              "name": "owner",
              "type": "address"
            }
          ],
          "name": "OwnableInvalidOwner",
          "type": "error"
        },
        {
          "inputs": [
            {
              "internalType": "address",
              "name": "account",
              "type": "address"
            }
          ],
          "name": "OwnableUnauthorizedAccount",
          "type": "error"
        },
        {
          "inputs": [],
          "name": "PumpFunGovernance__AlreadyVoted",
          "type": "error"
        },
        {
          "inputs": [],
          "name": "PumpFunGovernance__EmptyDescription",
          "type": "error"
        },
        {
          "inputs": [],
          "name": "PumpFunGovernance__ExecutionFailed",
          "type": "error"
        },
        {
          "inputs": [],
          "name": "PumpFunGovernance__InsufficientTokenBalance",
          "type": "error"
        },
        {
          "inputs": [],
          "name": "PumpFunGovernance__InvalidProposalType",
          "type": "error"
        },
        {
          "inputs": [],
          "name": "PumpFunGovernance__InvalidRecipients",
          "type": "error"
        },
        {
          "inputs": [],
          "name": "PumpFunGovernance__ProposalAlreadyExecuted",
          "type": "error"
        },
        {
          "inputs": [],
          "name": "PumpFunGovernance__ProposalNotActive",
          "type": "error"
        },
        {
          "inputs": [],
          "name": "PumpFunGovernance__ProposalNotFound",
          "type": "error"
        },
        {
          "inputs": [],
          "name": "PumpFunGovernance__ProposalNotPassed",
          "type": "error"
        },
        {
          "inputs": [],
          "name": "ReentrancyGuardReentrantCall",
          "type": "error"
        },
        {
          "anonymous": false,
          "inputs": [
            {
              "indexed": true,
              "internalType": "address",
              "name": "previousOwner",
              "type": "address"
            },
            {
              "indexed": true,
              "internalType": "address",
              "name": "newOwner",
              "type": "address"
            }
          ],
          "name": "OwnershipTransferred",
          "type": "event"
        },
        {
          "anonymous": false,
          "inputs": [
            {
              "indexed": true,
              "internalType": "uint256",
              "name": "proposalId",
              "type": "uint256"
            },
            {
              "indexed": true,
              "internalType": "address",
              "name": "creator",
              "type": "address"
            },
            {
              "indexed": true,
              "internalType": "address",
              "name": "token",
              "type": "address"
            },
            {
              "indexed": false,
              "internalType": "string",
              "name": "description",
              "type": "string"
            },
            {
              "indexed": false,
              "internalType": "uint256",
              "name": "proposalType",
              "type": "uint256"
            },
            {
              "indexed": false,
              "internalType": "uint256",
              "name": "endTime",
              "type": "uint256"
            }
          ],
          "name": "ProposalCreated",
          "type": "event"
        },
        {
          "anonymous": false,
          "inputs": [
            {
              "indexed": true,
              "internalType": "uint256",
              "name": "proposalId",
              "type": "uint256"
            },
            {
              "indexed": true,
              "internalType": "address",
              "name": "executor",
              "type": "address"
            }
          ],
          "name": "ProposalExecuted",
          "type": "event"
        },
        {
          "anonymous": false,
          "inputs": [
            {
              "indexed": true,
              "internalType": "uint256",
              "name": "proposalId",
              "type": "uint256"
            },
            {
              "indexed": true,
              "internalType": "address",
              "name": "voter",
              "type": "address"
            },
            {
              "indexed": false,
              "internalType": "bool",
              "name": "support",
              "type": "bool"
            },
            {
              "indexed": false,
              "internalType": "uint256",
              "name": "votingPower",
              "type": "uint256"
            }
          ],
          "name": "VoteCast",
          "type": "event"
        },
        {
          "inputs": [],
          "name": "MIN_VOTING_POWER",
          "outputs": [
            {
              "internalType": "uint256",
              "name": "",
              "type": "uint256"
            }
          ],
          "stateMutability": "view",
          "type": "function"
        },
        {
          "inputs": [],
          "name": "VOTING_PERIOD",
          "outputs": [
            {
              "internalType": "uint256",
              "name": "",
              "type": "uint256"
            }
          ],
          "stateMutability": "view",
          "type": "function"
        },
        {
          "inputs": [
            {
              "internalType": "uint256",
              "name": "proposalId",
              "type": "uint256"
            }
          ],
          "name": "canExecuteProposal",
          "outputs": [
            {
              "internalType": "bool",
              "name": "",
              "type": "bool"
            }
          ],
          "stateMutability": "view",
          "type": "function"
        },
        {
          "inputs": [
            {
              "internalType": "address",
              "name": "token",
              "type": "address"
            },
            {
              "internalType": "string",
              "name": "description",
              "type": "string"
            },
            {
              "internalType": "uint256",
              "name": "proposalType",
              "type": "uint256"
            },
            {
              "internalType": "uint256",
              "name": "proposedValue",
              "type": "uint256"
            },
            {
              "internalType": "address[]",
              "name": "recipients",
              "type": "address[]"
            },
            {
              "internalType": "uint256[]",
              "name": "amounts",
              "type": "uint256[]"
            }
          ],
          "name": "createProposal",
          "outputs": [],
          "stateMutability": "nonpayable",
          "type": "function"
        },
        {
          "inputs": [
            {
              "internalType": "uint256",
              "name": "proposalId",
              "type": "uint256"
            }
          ],
          "name": "deactivateProposal",
          "outputs": [],
          "stateMutability": "nonpayable",
          "type": "function"
        },
        {
          "inputs": [
            {
              "internalType": "uint256",
              "name": "proposalId",
              "type": "uint256"
            }
          ],
          "name": "executeProposal",
          "outputs": [],
          "stateMutability": "nonpayable",
          "type": "function"
        },
        {
          "inputs": [],
          "name": "getActiveProposalsCount",
          "outputs": [
            {
              "internalType": "uint256",
              "name": "",
              "type": "uint256"
            }
          ],
          "stateMutability": "view",
          "type": "function"
        },
        {
          "inputs": [
            {
              "internalType": "uint256",
              "name": "proposalId",
              "type": "uint256"
            }
          ],
          "name": "getProposal",
          "outputs": [
            {
              "internalType": "address",
              "name": "creator",
              "type": "address"
            },
            {
              "internalType": "address",
              "name": "token",
              "type": "address"
            },
            {
              "internalType": "string",
              "name": "description",
              "type": "string"
            },
            {
              "internalType": "uint256",
              "name": "votesFor",
              "type": "uint256"
            },
            {
              "internalType": "uint256",
              "name": "votesAgainst",
              "type": "uint256"
            },
            {
              "internalType": "uint256",
              "name": "endTime",
              "type": "uint256"
            },
            {
              "internalType": "bool",
              "name": "executed",
              "type": "bool"
            },
            {
              "internalType": "bool",
              "name": "active",
              "type": "bool"
            },
            {
              "internalType": "uint256",
              "name": "proposalType",
              "type": "uint256"
            },
            {
              "internalType": "uint256",
              "name": "proposedValue",
              "type": "uint256"
            },
            {
              "internalType": "address[]",
              "name": "recipients",
              "type": "address[]"
            },
            {
              "internalType": "uint256[]",
              "name": "amounts",
              "type": "uint256[]"
            }
          ],
          "stateMutability": "view",
          "type": "function"
        },
        {
          "inputs": [
            {
              "internalType": "uint256",
              "name": "proposalId",
              "type": "uint256"
            }
          ],
          "name": "getProposalStatus",
          "outputs": [
            {
              "internalType": "string",
              "name": "",
              "type": "string"
            }
          ],
          "stateMutability": "view",
          "type": "function"
        },
        {
          "inputs": [
            {
              "internalType": "address",
              "name": "voter",
              "type": "address"
            },
            {
              "internalType": "address",
              "name": "token",
              "type": "address"
            }
          ],
          "name": "getVotingPower",
          "outputs": [
            {
              "internalType": "uint256",
              "name": "",
              "type": "uint256"
            }
          ],
          "stateMutability": "view",
          "type": "function"
        },
        {
          "inputs": [
            {
              "internalType": "uint256",
              "name": "",
              "type": "uint256"
            },
            {
              "internalType": "address",
              "name": "",
              "type": "address"
            }
          ],
          "name": "hasVotedOnProposal",
          "outputs": [
            {
              "internalType": "bool",
              "name": "",
              "type": "bool"
            }
          ],
          "stateMutability": "view",
          "type": "function"
        },
        {
          "inputs": [],
          "name": "owner",
          "outputs": [
            {
              "internalType": "address",
              "name": "",
              "type": "address"
            }
          ],
          "stateMutability": "view",
          "type": "function"
        },
        {
          "inputs": [],
          "name": "proposalCount",
          "outputs": [
            {
              "internalType": "uint256",
              "name": "",
              "type": "uint256"
            }
          ],
          "stateMutability": "view",
          "type": "function"
        },
        {
          "inputs": [
            {
              "internalType": "uint256",
              "name": "",
              "type": "uint256"
            }
          ],
          "name": "proposals",
          "outputs": [
            {
              "internalType": "address",
              "name": "creator",
              "type": "address"
            },
            {
              "internalType": "address",
              "name": "token",
              "type": "address"
            },
            {
              "internalType": "string",
              "name": "description",
              "type": "string"
            },
            {
              "internalType": "uint256",
              "name": "votesFor",
              "type": "uint256"
            },
            {
              "internalType": "uint256",
              "name": "votesAgainst",
              "type": "uint256"
            },
            {
              "internalType": "uint256",
              "name": "endTime",
              "type": "uint256"
            },
            {
              "internalType": "bool",
              "name": "executed",
              "type": "bool"
            },
            {
              "internalType": "bool",
              "name": "active",
              "type": "bool"
            },
            {
              "internalType": "uint256",
              "name": "proposalType",
              "type": "uint256"
            },
            {
              "internalType": "uint256",
              "name": "proposedValue",
              "type": "uint256"
            }
          ],
          "stateMutability": "view",
          "type": "function"
        },
        {
          "inputs": [],
          "name": "renounceOwnership",
          "outputs": [],
          "stateMutability": "nonpayable",
          "type": "function"
        },
        {
          "inputs": [
            {
              "internalType": "address",
              "name": "newOwner",
              "type": "address"
            }
          ],
          "name": "transferOwnership",
          "outputs": [],
          "stateMutability": "nonpayable",
          "type": "function"
        },
        {
          "inputs": [
            {
              "internalType": "uint256",
              "name": "newMinPower",
              "type": "uint256"
            }
          ],
          "name": "updateMinVotingPower",
          "outputs": [],
          "stateMutability": "nonpayable",
          "type": "function"
        },
        {
          "inputs": [
            {
              "internalType": "uint256",
              "name": "proposalId",
              "type": "uint256"
            },
            {
              "internalType": "bool",
              "name": "support",
              "type": "bool"
            }
          ],
          "name": "vote",
          "outputs": [],
          "stateMutability": "nonpayable",
          "type": "function"
        },
        {
          "inputs": [
            {
              "internalType": "uint256",
              "name": "",
              "type": "uint256"
            },
            {
              "internalType": "address",
              "name": "",
              "type": "address"
            }
          ],
          "name": "voterPower",
          "outputs": [
            {
              "internalType": "uint256",
              "name": "",
              "type": "uint256"
            }
          ],
          "stateMutability": "view",
          "type": "function"
        }
      ],
      "evm": {
        "bytecode": {
          "linkReferences": {},
          "object": "6080806040523461007e5733156100685760008054336001600160a01b03198216811783556040519290916001600160a01b0316907f8be0079c531659141344cd1fd0a4f28419497f9722a3daafe3b4186f6b6457e09080a36001805561194990816100848239f35b631e4fbdf760e01b815260006004820152602490fd5b600080fdfe6080604052600436101561001257600080fd5b60003560e01c8063013cf08b146112825780630d61b51914610efc57806319f3dad114610e77578063401853b714610e40578063600303d814610df35780636bff47e614610da3578063715018a614610d4a5780637c63fc241461071f578063805a8142146106fb578063824ea8ed146106d35780638da5cb5b146106aa57806390bd89021461068f578063a241f0fd14610647578063a60b1145146105b1578063b1610d7e14610593578063c7f758a814610391578063c9d27afe1461019e578063da35c664146101805763f2fde38b146100ed57600080fd5b3461017b57602036600319011261017b576101066114d0565b61010e6118e7565b6001600160a01b0390811690811561016257600054826bffffffffffffffffffffffff60a01b821617600055167f8be0079c531659141344cd1fd0a4f28419497f9722a3daafe3b4186f6b6457e0600080a3005b604051631e4fbdf760e01b815260006004820152602490fd5b600080fd5b3461017b57600036600319011261017b576020600254604051908152f35b3461017b57604036600319011261017b57600435602435908115159182810361017b576101c961189a565b81158015610386575b6103745781600052602060038152604060002060ff600682015460081c16156103625760058101544211610362578360005260048252604060002033600052825260ff604060002054166103505760018101546040516370a0823160e01b815233600482015293908390859060249082906001600160a01b03165afa93841561034457600094610315575b50831561030357846000526004835260406000203360005283526040600020600160ff1982541617905584600052600583526040600020336000528352836040600020556000146102ee576003016102b68382546115b8565b90555b6040519384528301527fcbdf6214089cba887ecbf35a0b6a734589959c9763342c756bb2a80ca2bc9f6e60403393a360018055005b6004016102fc8382546115b8565b90556102b9565b604051630dfaae8160e11b8152600490fd5b9093508281813d831161033d575b61032d81836113b3565b8101031261017b5751928661025d565b503d610323565b6040513d6000823e3d90fd5b6040516366cda2df60e01b8152600490fd5b6040516309a2e90160e01b8152600490fd5b604051632231401f60e01b8152600490fd5b5060025482116101d2565b3461017b57602036600319011261017b5760043580158015610588575b61037457600052600360205260406000206040610464600a8251936103d28561137a565b80546001600160a01b03908116865260018201541660208601526103f8600282016113d5565b848601526003810154606086015260048101546080860152600581015460a086015260ff6006820154818116151560c088015260081c16151560e086015260078101546101008601526008810154610120860152610458600982016114fe565b61014086015201611558565b8061016084015260018060a01b038351169260018060a01b03602082015116908381015190606081015191608082015160a083015160c084015115159060e08501511515926104dd61010087015195610140610120890151980151998c519d8e9d8e6101809384938252602082015201528c019061147a565b9660608b015260808a015260a089015260c088015260e08701526101008601526101208501528381036101408501526020808351928381520192019060005b818110610566575050508281036101608401526020808351928381520192019060005b81811061054d575050500390f35b825184528594506020938401939092019160010161053f565b82516001600160a01b031684528695506020938401939092019160010161051c565b5060025481116103ae565b3461017b57600036600319011261017b57602060405162093a808152f35b3461017b57604036600319011261017b576105ca6114d0565b60206001600160a01b036024816105df6114ba565b169360405194859384926370a0823160e01b84521660048301525afa801561034457600090610614575b602090604051908152f35b506020813d60201161063f575b8161062e602093836113b3565b8101031261017b5760209051610609565b3d9150610621565b3461017b57604036600319011261017b576106606114ba565b600435600052600560205260406000209060018060a01b03166000526020526020604060002054604051908152f35b3461017b57602036600319011261017b576106a86118e7565b005b3461017b57600036600319011261017b576000546040516001600160a01b039091168152602090f35b3461017b57602036600319011261017b5760206106f160043561179d565b6040519015158152f35b3461017b57600036600319011261017b576020604051683635c9adc5dea000008152f35b3461017b5760c036600319011261017b576107386114d0565b6024359067ffffffffffffffff821161017b573660238301121561017b57816004013567ffffffffffffffff8111610b795760405192610782601f8301601f1916602001856113b3565b818452366024838301011161017b5781600092602460209301838701378401015260843567ffffffffffffffff811161017b573660238201121561017b5780600401356107ce816114e6565b916107dc60405193846113b3565b8183526024602084019260051b8201019036821161017b57602401915b818310610d2a5750505060a4359067ffffffffffffffff821161017b573660238301121561017b57816004013591610830836114e6565b9261083e60405194856113b3565b8084526024602085019160051b8301019136831161017b57602401905b828210610d1a5750505061086d61189a565b835115610d0857604435158015610cfc575b610cea576040516370a0823160e01b81523360048201526020816024816001600160a01b0388165afa801561034457600090610caf575b683635c9adc5dea0000091501061030357600460443514610c7f575b6108dd6002546115a9565b918260025562093a8042014211610c6957604051916108fb8361137a565b33835260018060a01b0385166020840152856040840152600060608401526000608084015262093a80420160a0840152600060c0840152600160e0840152604435610100840152606435610120840152610140830152610160820152816000526003602052604060002060018060a01b038251166bffffffffffffffffffffffff60a01b9081835416178255600182019060018060a01b0360208501511690825416179055604082015180519067ffffffffffffffff8211610b795781906109c66002850154611340565b601f8111610c29575b50602090601f8311600114610bb757600092610bac575b50508160011b916000199060031b1c19161760028201555b606082015160038201556080820151600482015560a082015160058201556006810160c08301511515815460ff61ff0060e0870151151560081b1692169061ffff1916171790556101008201516007820155610120820151600882015561014082015180519067ffffffffffffffff8211610b7957600160401b8211610b795760098301805483825560209291610a9691859161177a565b0160098301600052602060002060005b838110610b8f5750505050600a61016091019101519081519167ffffffffffffffff8311610b7957600160401b8311610b7957602090610aeb8484548186558561177a565b0190600052602060002060005b838110610b6557505050507f8a5ed66a83326884c08a1335fab35b7837b82dc7d3434dfc7e4236ed7a6920ce610b396040519460608652606086019061147a565b60443560208601524262093a800160408601526001600160a01b0390931693339381900390a460018055005b600190602084519401938184015501610af8565b634e487b7160e01b600052604160045260246000fd5b82516001600160a01b031681830155602090920191600101610aa6565b0151905087806109e6565b9250600284016000526020600020906000935b601f1984168510610c0e576001945083601f19811610610bf5575b505050811b0160028201556109fe565b015160001960f88460031b161c19169055878080610be5565b81810151835560209485019460019093019290910190610bca565b610c5990600286016000526020600020601f850160051c81019160208610610c5f575b601f0160051c0190611763565b886109cf565b9091508190610c4c565b634e487b7160e01b600052601160045260246000fd5b80518015908115610ca3575b50156108d2576040516313c2bd1b60e11b8152600490fd5b90508251141585610c8b565b506020813d602011610ce2575b81610cc9602093836113b3565b8101031261017b57683635c9adc5dea0000090516108b6565b3d9150610cbc565b60405163ee412df560e01b8152600490fd5b5060046044351161087f565b6040516356bc138f60e11b8152600490fd5b813581526020918201910161085b565b82356001600160a01b038116810361017b578152602092830192016107f9565b3461017b57600036600319011261017b57610d636118e7565b600080546001600160a01b0319811682556001600160a01b03167f8be0079c531659141344cd1fd0a4f28419497f9722a3daafe3b4186f6b6457e08280a3005b3461017b57602036600319011261017b57600435610dbf6118e7565b80158015610de8575b610374576000908152600360205260409020600601805461ff0019169055005b506002548111610dc8565b3461017b57604036600319011261017b57610e0c6114ba565b600435600052600460205260406000209060018060a01b0316600052602052602060ff604060002054166040519015158152f35b3461017b57602036600319011261017b57610e73610e5f6004356115c5565b60405191829160208352602083019061147a565b0390f35b3461017b57600036600319011261017b5760006001600254905b81811115610ea457602083604051908152f35b806000526003602052604060002060ff600682015460081c169081610eed575b50610ed8575b610ed3906115a9565b610e91565b91610ee5610ed3916115a9565b929050610eca565b60059150015442111584610ec4565b3461017b5760208060031936011261017b57600435610f1961189a565b80158015611277575b6103745780600052600382526040600020600681019283549160ff8316611265576005810154421115610362576003810154600482015410156112535760019485809461ffff191617905560078101548381146000146110305750908060049260018060a01b039485910154166d39b2ba26b0bc2a3930b739b332b960911b82604051610fae81611397565b600e81520152604051638da5cb5b60e01b815293849182905afa610ffc575b5050505b33907f9c85b616f29fca57a17eafe71cf9ff82ffef41766e2cf01ea7f8f7878dd3ec24600080a38055005b81813d8311611029575b61101081836113b3565b8101031261017b57519081160361017b57828080610fcd565b503d611006565b600281036110c45750908060049260018060a01b039485910154166c7365744d6178486f6c64696e6760981b8260405161106981611397565b600d81520152604051638da5cb5b60e01b815293849182905afa611090575b505050610fd1565b81813d83116110bd575b6110a481836113b3565b8101031261017b57519081160361017b57828080611088565b503d61109a565b6003810361112a5750908060049260018060a01b0394859101541673746f67676c655472616e736665724c696d69747360601b8260405161110481611397565b601481520152604051638da5cb5b60e01b815293849182905afa61109057505050610fd1565b60041461113957505050610fd1565b8281015481546001600160a01b039182169291908116611167600a611160600986016114fe565b9401611558565b916000875b61117b575b5050505050611088565b845181101561124e5780826111918a93886118bd565b511615158061123b575b6111a7575b018761116c565b9050816111b482876118bd565b51166111c082866118bd565b51604051916323b872dd60e01b835285600484015260248301526044820152878160648160008b5af19081611201575b50908891156000036111a0576111a0565b909198508781813d8311611234575b61121a81836113b3565b8101031261017b57518015150361017b579689978b6111f0565b503d611210565b5061124681866118bd565b51151561119b565b611171565b60405163144d3c8b60e01b8152600490fd5b60405163b96ef37b60e01b8152600490fd5b506002548111610f22565b3461017b57602036600319011261017b576004356000908152600360205260409020805460018201546001600160a01b03918216929116906112c6600282016113d5565b60038201549160ff6004820154600583015460068401549161130b60086007870154960154966040519a8b9a610140918c5260208c01528060408c01528a019061147a565b966060890152608088015260a0870152818116151560c087015260081c16151560e08501526101008401526101208301520390f35b90600182811c92168015611370575b602083101461135a57565b634e487b7160e01b600052602260045260246000fd5b91607f169161134f565b610180810190811067ffffffffffffffff821117610b7957604052565b6040810190811067ffffffffffffffff821117610b7957604052565b90601f8019910116810190811067ffffffffffffffff821117610b7957604052565b906040519182600082546113e881611340565b908184526020946001916001811690816000146114585750600114611419575b505050611417925003836113b3565b565b600090815285812095935091905b8183106114405750506114179350820101388080611408565b85548884018501529485019487945091830191611427565b9250505061141794925060ff191682840152151560051b820101388080611408565b919082519283825260005b8481106114a6575050826000602080949584010152601f8019910116010190565b602081830181015184830182015201611485565b602435906001600160a01b038216820361017b57565b600435906001600160a01b038216820361017b57565b67ffffffffffffffff8111610b795760051b60200190565b90604051918281549182825260209260208301916000526020600020936000905b82821061153557505050611417925003836113b3565b85546001600160a01b03168452600195860195889550938101939091019061151f565b90604051918281549182825260209260208301916000526020600020936000905b82821061158f57505050611417925003836113b3565b855484526001958601958895509381019390910190611579565b6000198114610c695760010190565b91908201809211610c6957565b80158015611758575b611732576000526020600381526040806000208151906115ed8261137a565b80546001600160a01b03908116835260018201541684830152611612600282016113d5565b83830152600381015491606081019283526004820154916080820192835260058101549160a08101928352610160611686600a60068501549460ff60c08601968181161515885260081c16151560e086015260078101546101008601526008810154610120860152610458600982016114fe565b9101525161170d57514211156116f5576116a382518251906115b8565b151591826116e8575b50506116d2576511985a5b195960d21b9051916116c883611397565b6006835282015290565b6514185cdcd95960d21b9051916116c883611397565b51905110905038806116ac565b50506541637469766560d01b9051916116c883611397565b50505067115e1958dd5d195960c21b90519161172883611397565b6008835282015290565b5060405161173f81611397565b6009815268139bdd08119bdd5b9960ba1b602082015290565b5060025481116115ce565b81811061176e575050565b60008155600101611763565b9181811061178757505050565b6114179260005260206000209182019101611763565b8015801561188f575b6118895760005260036020526040600020604051906117c48261137a565b80546001600160a01b03908116835260018201541660208301526117ea600282016113d5565b60408301526003810154606083019081526004820154916080840192835260058101549360a0810194855261016061185e600a60068501549460ff60c08601968181161515885260081c16151560e086015260078101546101008601526008810154610120860152610458600982016114fe565b9101525115928361187e575b508261187557505090565b51905110919050565b51421192503861186a565b50600090565b5060025481116117a6565b6002600154146118ab576002600155565b604051633ee5aeb560e01b8152600490fd5b80518210156118d15760209160051b010190565b634e487b7160e01b600052603260045260246000fd5b6000546001600160a01b031633036118fb57565b60405163118cdaa760e01b8152336004820152602490fdfea264697066735822122068b3097288001002c026ad04207d6aa7d504a5754cc70030cfa2f01bcd877fd564736f6c63430008180033",
          "opcodes": "PUSH1 0x80 DUP1 PUSH1 0x40 MSTORE CALLVALUE PUSH2 0x7E JUMPI CALLER ISZERO PUSH2 0x68 JUMPI PUSH1 0x0 DUP1 SLOAD CALLER PUSH1 0x1 PUSH1 0x1 PUSH1 0xA0 SHL SUB NOT DUP3 AND DUP2 OR DUP4 SSTORE PUSH1 0x40 MLOAD SWAP3 SWAP1 SWAP2 PUSH1 0x1 PUSH1 0x1 PUSH1 0xA0 SHL SUB AND SWAP1 PUSH32 0x8BE0079C531659141344CD1FD0A4F28419497F9722A3DAAFE3B4186F6B6457E0 SWAP1 DUP1 LOG3 PUSH1 0x1 DUP1 SSTORE PUSH2 0x1949 SWAP1 DUP2 PUSH2 0x84 DUP3 CODECOPY RETURN JUMPDEST PUSH4 0x1E4FBDF7 PUSH1 0xE0 SHL DUP2 MSTORE PUSH1 0x0 PUSH1 0x4 DUP3 ADD MSTORE PUSH1 0x24 SWAP1 REVERT JUMPDEST PUSH1 0x0 DUP1 REVERT INVALID PUSH1 0x80 PUSH1 0x40 MSTORE PUSH1 0x4 CALLDATASIZE LT ISZERO PUSH2 0x12 JUMPI PUSH1 0x0 DUP1 REVERT JUMPDEST PUSH1 0x0 CALLDATALOAD PUSH1 0xE0 SHR DUP1 PUSH4 0x13CF08B EQ PUSH2 0x1282 JUMPI DUP1 PUSH4 0xD61B519 EQ PUSH2 0xEFC JUMPI DUP1 PUSH4 0x19F3DAD1 EQ PUSH2 0xE77 JUMPI DUP1 PUSH4 0x401853B7 EQ PUSH2 0xE40 JUMPI DUP1 PUSH4 0x600303D8 EQ PUSH2 0xDF3 JUMPI DUP1 PUSH4 0x6BFF47E6 EQ PUSH2 0xDA3 JUMPI DUP1 PUSH4 0x715018A6 EQ PUSH2 0xD4A JUMPI DUP1 PUSH4 0x7C63FC24 EQ PUSH2 0x71F JUMPI DUP1 PUSH4 0x805A8142 EQ PUSH2 0x6FB JUMPI DUP1 PUSH4 0x824EA8ED EQ PUSH2 0x6D3 JUMPI DUP1 PUSH4 0x8DA5CB5B EQ PUSH2 0x6AA JUMPI DUP1 PUSH4 0x90BD8902 EQ PUSH2 0x68F JUMPI DUP1 PUSH4 0xA241F0FD EQ PUSH2 0x647 JUMPI DUP1 PUSH4 0xA60B1145 EQ PUSH2 0x5B1 JUMPI DUP1 PUSH4 0xB1610D7E EQ PUSH2 0x593 JUMPI DUP1 PUSH4 0xC7F758A8 EQ PUSH2 0x391 JUMPI DUP1 PUSH4 0xC9D27AFE EQ PUSH2 0x19E JUMPI DUP1 PUSH4 0xDA35C664 EQ PUSH2 0x180 JUMPI PUSH4 0xF2FDE38B EQ PUSH2 0xED JUMPI PUSH1 0x0 DUP1 REVERT JUMPDEST CALLVALUE PUSH2 0x17B JUMPI PUSH1 0x20 CALLDATASIZE PUSH1 0x3 NOT ADD SLT PUSH2 0x17B JUMPI PUSH2 0x106 PUSH2 0x14D0 JUMP JUMPDEST PUSH2 0x10E PUSH2 0x18E7 JUMP JUMPDEST PUSH1 0x1 PUSH1 0x1 PUSH1 0xA0 SHL SUB SWAP1 DUP2 AND SWAP1 DUP2 ISZERO PUSH2 0x162 JUMPI PUSH1 0x0 SLOAD DUP3 PUSH12 0xFFFFFFFFFFFFFFFFFFFFFFFF PUSH1 0xA0 SHL DUP3 AND OR PUSH1 0x0 SSTORE AND PUSH32 0x8BE0079C531659141344CD1FD0A4F28419497F9722A3DAAFE3B4186F6B6457E0 PUSH1 0x0 DUP1 LOG3 STOP JUMPDEST PUSH1 0x40 MLOAD PUSH4 0x1E4FBDF7 PUSH1 0xE0 SHL DUP2 MSTORE PUSH1 0x0 PUSH1 0x4 DUP3 ADD MSTORE PUSH1 0x24 SWAP1 REVERT JUMPDEST PUSH1 0x0 DUP1 REVERT JUMPDEST CALLVALUE PUSH2 0x17B JUMPI PUSH1 0x0 CALLDATASIZE PUSH1 0x3 NOT ADD SLT PUSH2 0x17B JUMPI PUSH1 0x20 PUSH1 0x2 SLOAD PUSH1 0x40 MLOAD SWAP1 DUP2 MSTORE RETURN JUMPDEST CALLVALUE PUSH2 0x17B JUMPI PUSH1 0x40 CALLDATASIZE PUSH1 0x3 NOT ADD SLT PUSH2 0x17B JUMPI PUSH1 0x4 CALLDATALOAD PUSH1 0x24 CALLDATALOAD SWAP1 DUP2 ISZERO ISZERO SWAP2 DUP3 DUP2 SUB PUSH2 0x17B JUMPI PUSH2 0x1C9 PUSH2 0x189A JUMP JUMPDEST DUP2 ISZERO DUP1 ISZERO PUSH2 0x386 JUMPI JUMPDEST PUSH2 0x374 JUMPI DUP2 PUSH1 0x0 MSTORE PUSH1 0x20 PUSH1 0x3 DUP2 MSTORE PUSH1 0x40 PUSH1 0x0 KECCAK256 PUSH1 0xFF PUSH1 0x6 DUP3 ADD SLOAD PUSH1 0x8 SHR AND ISZERO PUSH2 0x362 JUMPI PUSH1 0x5 DUP2 ADD SLOAD TIMESTAMP GT PUSH2 0x362 JUMPI DUP4 PUSH1 0x0 MSTORE PUSH1 0x4 DUP3 MSTORE PUSH1 0x40 PUSH1 0x0 KECCAK256 CALLER PUSH1 0x0 MSTORE DUP3 MSTORE PUSH1 0xFF PUSH1 0x40 PUSH1 0x0 KECCAK256 SLOAD AND PUSH2 0x350 JUMPI PUSH1 0x1 DUP2 ADD SLOAD PUSH1 0x40 MLOAD PUSH4 0x70A08231 PUSH1 0xE0 SHL DUP2 MSTORE CALLER PUSH1 0x4 DUP3 ADD MSTORE SWAP4 SWAP1 DUP4 SWAP1 DUP6 SWAP1 PUSH1 0x24 SWAP1 DUP3 SWAP1 PUSH1 0x1 PUSH1 0x1 PUSH1 0xA0 SHL SUB AND GAS STATICCALL SWAP4 DUP5 ISZERO PUSH2 0x344 JUMPI PUSH1 0x0 SWAP5 PUSH2 0x315 JUMPI JUMPDEST POP DUP4 ISZERO PUSH2 0x303 JUMPI DUP5 PUSH1 0x0 MSTORE PUSH1 0x4 DUP4 MSTORE PUSH1 0x40 PUSH1 0x0 KECCAK256 CALLER PUSH1 0x0 MSTORE DUP4 MSTORE PUSH1 0x40 PUSH1 0x0 KECCAK256 PUSH1 0x1 PUSH1 0xFF NOT DUP3 SLOAD AND OR SWAP1 SSTORE DUP5 PUSH1 0x0 MSTORE PUSH1 0x5 DUP4 MSTORE PUSH1 0x40 PUSH1 0x0 KECCAK256 CALLER PUSH1 0x0 MSTORE DUP4 MSTORE DUP4 PUSH1 0x40 PUSH1 0x0 KECCAK256 SSTORE PUSH1 0x0 EQ PUSH2 0x2EE JUMPI PUSH1 0x3 ADD PUSH2 0x2B6 DUP4 DUP3 SLOAD PUSH2 0x15B8 JUMP JUMPDEST SWAP1 SSTORE JUMPDEST PUSH1 0x40 MLOAD SWAP4 DUP5 MSTORE DUP4 ADD MSTORE PUSH32 0xCBDF6214089CBA887ECBF35A0B6A734589959C9763342C756BB2A80CA2BC9F6E PUSH1 0x40 CALLER SWAP4 LOG3 PUSH1 0x1 DUP1 SSTORE STOP JUMPDEST PUSH1 0x4 ADD PUSH2 0x2FC DUP4 DUP3 SLOAD PUSH2 0x15B8 JUMP JUMPDEST SWAP1 SSTORE PUSH2 0x2B9 JUMP JUMPDEST PUSH1 0x40 MLOAD PUSH4 0xDFAAE81 PUSH1 0xE1 SHL DUP2 MSTORE PUSH1 0x4 SWAP1 REVERT JUMPDEST SWAP1 SWAP4 POP DUP3 DUP2 DUP2 RETURNDATASIZE DUP4 GT PUSH2 0x33D JUMPI JUMPDEST PUSH2 0x32D DUP2 DUP4 PUSH2 0x13B3 JUMP JUMPDEST DUP2 ADD SUB SLT PUSH2 0x17B JUMPI MLOAD SWAP3 DUP7 PUSH2 0x25D JUMP JUMPDEST POP RETURNDATASIZE PUSH2 0x323 JUMP JUMPDEST PUSH1 0x40 MLOAD RETURNDATASIZE PUSH1 0x0 DUP3 RETURNDATACOPY RETURNDATASIZE SWAP1 REVERT JUMPDEST PUSH1 0x40 MLOAD PUSH4 0x66CDA2DF PUSH1 0xE0 SHL DUP2 MSTORE PUSH1 0x4 SWAP1 REVERT JUMPDEST PUSH1 0x40 MLOAD PUSH4 0x9A2E901 PUSH1 0xE0 SHL DUP2 MSTORE PUSH1 0x4 SWAP1 REVERT JUMPDEST PUSH1 0x40 MLOAD PUSH4 0x2231401F PUSH1 0xE0 SHL DUP2 MSTORE PUSH1 0x4 SWAP1 REVERT JUMPDEST POP PUSH1 0x2 SLOAD DUP3 GT PUSH2 0x1D2 JUMP JUMPDEST CALLVALUE PUSH2 0x17B JUMPI PUSH1 0x20 CALLDATASIZE PUSH1 0x3 NOT ADD SLT PUSH2 0x17B JUMPI PUSH1 0x4 CALLDATALOAD DUP1 ISZERO DUP1 ISZERO PUSH2 0x588 JUMPI JUMPDEST PUSH2 0x374 JUMPI PUSH1 0x0 MSTORE PUSH1 0x3 PUSH1 0x20 MSTORE PUSH1 0x40 PUSH1 0x0 KECCAK256 PUSH1 0x40 PUSH2 0x464 PUSH1 0xA DUP3 MLOAD SWAP4 PUSH2 0x3D2 DUP6 PUSH2 0x137A JUMP JUMPDEST DUP1 SLOAD PUSH1 0x1 PUSH1 0x1 PUSH1 0xA0 SHL SUB SWAP1 DUP2 AND DUP7 MSTORE PUSH1 0x1 DUP3 ADD SLOAD AND PUSH1 0x20 DUP7 ADD MSTORE PUSH2 0x3F8 PUSH1 0x2 DUP3 ADD PUSH2 0x13D5 JUMP JUMPDEST DUP5 DUP7 ADD MSTORE PUSH1 0x3 DUP2 ADD SLOAD PUSH1 0x60 DUP7 ADD MSTORE PUSH1 0x4 DUP2 ADD SLOAD PUSH1 0x80 DUP7 ADD MSTORE PUSH1 0x5 DUP2 ADD SLOAD PUSH1 0xA0 DUP7 ADD MSTORE PUSH1 0xFF PUSH1 0x6 DUP3 ADD SLOAD DUP2 DUP2 AND ISZERO ISZERO PUSH1 0xC0 DUP9 ADD MSTORE PUSH1 0x8 SHR AND ISZERO ISZERO PUSH1 0xE0 DUP7 ADD MSTORE PUSH1 0x7 DUP2 ADD SLOAD PUSH2 0x100 DUP7 ADD MSTORE PUSH1 0x8 DUP2 ADD SLOAD PUSH2 0x120 DUP7 ADD MSTORE PUSH2 0x458 PUSH1 0x9 DUP3 ADD PUSH2 0x14FE JUMP JUMPDEST PUSH2 0x140 DUP7 ADD MSTORE ADD PUSH2 0x1558 JUMP JUMPDEST DUP1 PUSH2 0x160 DUP5 ADD MSTORE PUSH1 0x1 DUP1 PUSH1 0xA0 SHL SUB DUP4 MLOAD AND SWAP3 PUSH1 0x1 DUP1 PUSH1 0xA0 SHL SUB PUSH1 0x20 DUP3 ADD MLOAD AND SWAP1 DUP4 DUP2 ADD MLOAD SWAP1 PUSH1 0x60 DUP2 ADD MLOAD SWAP2 PUSH1 0x80 DUP3 ADD MLOAD PUSH1 0xA0 DUP4 ADD MLOAD PUSH1 0xC0 DUP5 ADD MLOAD ISZERO ISZERO SWAP1 PUSH1 0xE0 DUP6 ADD MLOAD ISZERO ISZERO SWAP3 PUSH2 0x4DD PUSH2 0x100 DUP8 ADD MLOAD SWAP6 PUSH2 0x140 PUSH2 0x120 DUP10 ADD MLOAD SWAP9 ADD MLOAD SWAP10 DUP13 MLOAD SWAP14 DUP15 SWAP14 DUP15 PUSH2 0x180 SWAP4 DUP5 SWAP4 DUP3 MSTORE PUSH1 0x20 DUP3 ADD MSTORE ADD MSTORE DUP13 ADD SWAP1 PUSH2 0x147A JUMP JUMPDEST SWAP7 PUSH1 0x60 DUP12 ADD MSTORE PUSH1 0x80 DUP11 ADD MSTORE PUSH1 0xA0 DUP10 ADD MSTORE PUSH1 0xC0 DUP9 ADD MSTORE PUSH1 0xE0 DUP8 ADD MSTORE PUSH2 0x100 DUP7 ADD MSTORE PUSH2 0x120 DUP6 ADD MSTORE DUP4 DUP2 SUB PUSH2 0x140 DUP6 ADD MSTORE PUSH1 0x20 DUP1 DUP4 MLOAD SWAP3 DUP4 DUP2 MSTORE ADD SWAP3 ADD SWAP1 PUSH1 0x0 JUMPDEST DUP2 DUP2 LT PUSH2 0x566 JUMPI POP POP POP DUP3 DUP2 SUB PUSH2 0x160 DUP5 ADD MSTORE PUSH1 0x20 DUP1 DUP4 MLOAD SWAP3 DUP4 DUP2 MSTORE ADD SWAP3 ADD SWAP1 PUSH1 0x0 JUMPDEST DUP2 DUP2 LT PUSH2 0x54D JUMPI POP POP POP SUB SWAP1 RETURN JUMPDEST DUP3 MLOAD DUP5 MSTORE DUP6 SWAP5 POP PUSH1 0x20 SWAP4 DUP5 ADD SWAP4 SWAP1 SWAP3 ADD SWAP2 PUSH1 0x1 ADD PUSH2 0x53F JUMP JUMPDEST DUP3 MLOAD PUSH1 0x1 PUSH1 0x1 PUSH1 0xA0 SHL SUB AND DUP5 MSTORE DUP7 SWAP6 POP PUSH1 0x20 SWAP4 DUP5 ADD SWAP4 SWAP1 SWAP3 ADD SWAP2 PUSH1 0x1 ADD PUSH2 0x51C JUMP JUMPDEST POP PUSH1 0x2 SLOAD DUP2 GT PUSH2 0x3AE JUMP JUMPDEST CALLVALUE PUSH2 0x17B JUMPI PUSH1 0x0 CALLDATASIZE PUSH1 0x3 NOT ADD SLT PUSH2 0x17B JUMPI PUSH1 0x20 PUSH1 0x40 MLOAD PUSH3 0x93A80 DUP2 MSTORE RETURN JUMPDEST CALLVALUE PUSH2 0x17B JUMPI PUSH1 0x40 CALLDATASIZE PUSH1 0x3 NOT ADD SLT PUSH2 0x17B JUMPI PUSH2 0x5CA PUSH2 0x14D0 JUMP JUMPDEST PUSH1 0x20 PUSH1 0x1 PUSH1 0x1 PUSH1 0xA0 SHL SUB PUSH1 0x24 DUP2 PUSH2 0x5DF PUSH2 0x14BA JUMP JUMPDEST AND SWAP4 PUSH1 0x40 MLOAD SWAP5 DUP6 SWAP4 DUP5 SWAP3 PUSH4 0x70A08231 PUSH1 0xE0 SHL DUP5 MSTORE AND PUSH1 0x4 DUP4 ADD MSTORE GAS STATICCALL DUP1 ISZERO PUSH2 0x344 JUMPI PUSH1 0x0 SWAP1 PUSH2 0x614 JUMPI JUMPDEST PUSH1 0x20 SWAP1 PUSH1 0x40 MLOAD SWAP1 DUP2 MSTORE RETURN JUMPDEST POP PUSH1 0x20 DUP2 RETURNDATASIZE PUSH1 0x20 GT PUSH2 0x63F JUMPI JUMPDEST DUP2 PUSH2 0x62E PUSH1 0x20 SWAP4 DUP4 PUSH2 0x13B3 JUMP JUMPDEST DUP2 ADD SUB SLT PUSH2 0x17B JUMPI PUSH1 0x20 SWAP1 MLOAD PUSH2 0x609 JUMP JUMPDEST RETURNDATASIZE SWAP2 POP PUSH2 0x621 JUMP JUMPDEST CALLVALUE PUSH2 0x17B JUMPI PUSH1 0x40 CALLDATASIZE PUSH1 0x3 NOT ADD SLT PUSH2 0x17B JUMPI PUSH2 0x660 PUSH2 0x14BA JUMP JUMPDEST PUSH1 0x4 CALLDATALOAD PUSH1 0x0 MSTORE PUSH1 0x5 PUSH1 0x20 MSTORE PUSH1 0x40 PUSH1 0x0 KECCAK256 SWAP1 PUSH1 0x1 DUP1 PUSH1 0xA0 SHL SUB AND PUSH1 0x0 MSTORE PUSH1 0x20 MSTORE PUSH1 0x20 PUSH1 0x40 PUSH1 0x0 KECCAK256 SLOAD PUSH1 0x40 MLOAD SWAP1 DUP2 MSTORE RETURN JUMPDEST CALLVALUE PUSH2 0x17B JUMPI PUSH1 0x20 CALLDATASIZE PUSH1 0x3 NOT ADD SLT PUSH2 0x17B JUMPI PUSH2 0x6A8 PUSH2 0x18E7 JUMP JUMPDEST STOP JUMPDEST CALLVALUE PUSH2 0x17B JUMPI PUSH1 0x0 CALLDATASIZE PUSH1 0x3 NOT ADD SLT PUSH2 0x17B JUMPI PUSH1 0x0 SLOAD PUSH1 0x40 MLOAD PUSH1 0x1 PUSH1 0x1 PUSH1 0xA0 SHL SUB SWAP1 SWAP2 AND DUP2 MSTORE PUSH1 0x20 SWAP1 RETURN JUMPDEST CALLVALUE PUSH2 0x17B JUMPI PUSH1 0x20 CALLDATASIZE PUSH1 0x3 NOT ADD SLT PUSH2 0x17B JUMPI PUSH1 0x20 PUSH2 0x6F1 PUSH1 0x4 CALLDATALOAD PUSH2 0x179D JUMP JUMPDEST PUSH1 0x40 MLOAD SWAP1 ISZERO ISZERO DUP2 MSTORE RETURN JUMPDEST CALLVALUE PUSH2 0x17B JUMPI PUSH1 0x0 CALLDATASIZE PUSH1 0x3 NOT ADD SLT PUSH2 0x17B JUMPI PUSH1 0x20 PUSH1 0x40 MLOAD PUSH9 0x3635C9ADC5DEA00000 DUP2 MSTORE RETURN JUMPDEST CALLVALUE PUSH2 0x17B JUMPI PUSH1 0xC0 CALLDATASIZE PUSH1 0x3 NOT ADD SLT PUSH2 0x17B JUMPI PUSH2 0x738 PUSH2 0x14D0 JUMP JUMPDEST PUSH1 0x24 CALLDATALOAD SWAP1 PUSH8 0xFFFFFFFFFFFFFFFF DUP3 GT PUSH2 0x17B JUMPI CALLDATASIZE PUSH1 0x23 DUP4 ADD SLT ISZERO PUSH2 0x17B JUMPI DUP2 PUSH1 0x4 ADD CALLDATALOAD PUSH8 0xFFFFFFFFFFFFFFFF DUP2 GT PUSH2 0xB79 JUMPI PUSH1 0x40 MLOAD SWAP3 PUSH2 0x782 PUSH1 0x1F DUP4 ADD PUSH1 0x1F NOT AND PUSH1 0x20 ADD DUP6 PUSH2 0x13B3 JUMP JUMPDEST DUP2 DUP5 MSTORE CALLDATASIZE PUSH1 0x24 DUP4 DUP4 ADD ADD GT PUSH2 0x17B JUMPI DUP2 PUSH1 0x0 SWAP3 PUSH1 0x24 PUSH1 0x20 SWAP4 ADD DUP4 DUP8 ADD CALLDATACOPY DUP5 ADD ADD MSTORE PUSH1 0x84 CALLDATALOAD PUSH8 0xFFFFFFFFFFFFFFFF DUP2 GT PUSH2 0x17B JUMPI CALLDATASIZE PUSH1 0x23 DUP3 ADD SLT ISZERO PUSH2 0x17B JUMPI DUP1 PUSH1 0x4 ADD CALLDATALOAD PUSH2 0x7CE DUP2 PUSH2 0x14E6 JUMP JUMPDEST SWAP2 PUSH2 0x7DC PUSH1 0x40 MLOAD SWAP4 DUP5 PUSH2 0x13B3 JUMP JUMPDEST DUP2 DUP4 MSTORE PUSH1 0x24 PUSH1 0x20 DUP5 ADD SWAP3 PUSH1 0x5 SHL DUP3 ADD ADD SWAP1 CALLDATASIZE DUP3 GT PUSH2 0x17B JUMPI PUSH1 0x24 ADD SWAP2 JUMPDEST DUP2 DUP4 LT PUSH2 0xD2A JUMPI POP POP POP PUSH1 0xA4 CALLDATALOAD SWAP1 PUSH8 0xFFFFFFFFFFFFFFFF DUP3 GT PUSH2 0x17B JUMPI CALLDATASIZE PUSH1 0x23 DUP4 ADD SLT ISZERO PUSH2 0x17B JUMPI DUP2 PUSH1 0x4 ADD CALLDATALOAD SWAP2 PUSH2 0x830 DUP4 PUSH2 0x14E6 JUMP JUMPDEST SWAP3 PUSH2 0x83E PUSH1 0x40 MLOAD SWAP5 DUP6 PUSH2 0x13B3 JUMP JUMPDEST DUP1 DUP5 MSTORE PUSH1 0x24 PUSH1 0x20 DUP6 ADD SWAP2 PUSH1 0x5 SHL DUP4 ADD ADD SWAP2 CALLDATASIZE DUP4 GT PUSH2 0x17B JUMPI PUSH1 0x24 ADD SWAP1 JUMPDEST DUP3 DUP3 LT PUSH2 0xD1A JUMPI POP POP POP PUSH2 0x86D PUSH2 0x189A JUMP JUMPDEST DUP4 MLOAD ISZERO PUSH2 0xD08 JUMPI PUSH1 0x44 CALLDATALOAD ISZERO DUP1 ISZERO PUSH2 0xCFC JUMPI JUMPDEST PUSH2 0xCEA JUMPI PUSH1 0x40 MLOAD PUSH4 0x70A08231 PUSH1 0xE0 SHL DUP2 MSTORE CALLER PUSH1 0x4 DUP3 ADD MSTORE PUSH1 0x20 DUP2 PUSH1 0x24 DUP2 PUSH1 0x1 PUSH1 0x1 PUSH1 0xA0 SHL SUB DUP9 AND GAS STATICCALL DUP1 ISZERO PUSH2 0x344 JUMPI PUSH1 0x0 SWAP1 PUSH2 0xCAF JUMPI JUMPDEST PUSH9 0x3635C9ADC5DEA00000 SWAP2 POP LT PUSH2 0x303 JUMPI PUSH1 0x4 PUSH1 0x44 CALLDATALOAD EQ PUSH2 0xC7F JUMPI JUMPDEST PUSH2 0x8DD PUSH1 0x2 SLOAD PUSH2 0x15A9 JUMP JUMPDEST SWAP2 DUP3 PUSH1 0x2 SSTORE PUSH3 0x93A80 TIMESTAMP ADD TIMESTAMP GT PUSH2 0xC69 JUMPI PUSH1 0x40 MLOAD SWAP2 PUSH2 0x8FB DUP4 PUSH2 0x137A JUMP JUMPDEST CALLER DUP4 MSTORE PUSH1 0x1 DUP1 PUSH1 0xA0 SHL SUB DUP6 AND PUSH1 0x20 DUP5 ADD MSTORE DUP6 PUSH1 0x40 DUP5 ADD MSTORE PUSH1 0x0 PUSH1 0x60 DUP5 ADD MSTORE PUSH1 0x0 PUSH1 0x80 DUP5 ADD MSTORE PUSH3 0x93A80 TIMESTAMP ADD PUSH1 0xA0 DUP5 ADD MSTORE PUSH1 0x0 PUSH1 0xC0 DUP5 ADD MSTORE PUSH1 0x1 PUSH1 0xE0 DUP5 ADD MSTORE PUSH1 0x44 CALLDATALOAD PUSH2 0x100 DUP5 ADD MSTORE PUSH1 0x64 CALLDATALOAD PUSH2 0x120 DUP5 ADD MSTORE PUSH2 0x140 DUP4 ADD MSTORE PUSH2 0x160 DUP3 ADD MSTORE DUP2 PUSH1 0x0 MSTORE PUSH1 0x3 PUSH1 0x20 MSTORE PUSH1 0x40 PUSH1 0x0 KECCAK256 PUSH1 0x1 DUP1 PUSH1 0xA0 SHL SUB DUP3 MLOAD AND PUSH12 0xFFFFFFFFFFFFFFFFFFFFFFFF PUSH1 0xA0 SHL SWAP1 DUP2 DUP4 SLOAD AND OR DUP3 SSTORE PUSH1 0x1 DUP3 ADD SWAP1 PUSH1 0x1 DUP1 PUSH1 0xA0 SHL SUB PUSH1 0x20 DUP6 ADD MLOAD AND SWAP1 DUP3 SLOAD AND OR SWAP1 SSTORE PUSH1 0x40 DUP3 ADD MLOAD DUP1 MLOAD SWAP1 PUSH8 0xFFFFFFFFFFFFFFFF DUP3 GT PUSH2 0xB79 JUMPI DUP2 SWAP1 PUSH2 0x9C6 PUSH1 0x2 DUP6 ADD SLOAD PUSH2 0x1340 JUMP JUMPDEST PUSH1 0x1F DUP2 GT PUSH2 0xC29 JUMPI JUMPDEST POP PUSH1 0x20 SWAP1 PUSH1 0x1F DUP4 GT PUSH1 0x1 EQ PUSH2 0xBB7 JUMPI PUSH1 0x0 SWAP3 PUSH2 0xBAC JUMPI JUMPDEST POP POP DUP2 PUSH1 0x1 SHL SWAP2 PUSH1 0x0 NOT SWAP1 PUSH1 0x3 SHL SHR NOT AND OR PUSH1 0x2 DUP3 ADD SSTORE JUMPDEST PUSH1 0x60 DUP3 ADD MLOAD PUSH1 0x3 DUP3 ADD SSTORE PUSH1 0x80 DUP3 ADD MLOAD PUSH1 0x4 DUP3 ADD SSTORE PUSH1 0xA0 DUP3 ADD MLOAD PUSH1 0x5 DUP3 ADD SSTORE PUSH1 0x6 DUP2 ADD PUSH1 0xC0 DUP4 ADD MLOAD ISZERO ISZERO DUP2 SLOAD PUSH1 0xFF PUSH2 0xFF00 PUSH1 0xE0 DUP8 ADD MLOAD ISZERO ISZERO PUSH1 0x8 SHL AND SWAP3 AND SWAP1 PUSH2 0xFFFF NOT AND OR OR SWAP1 SSTORE PUSH2 0x100 DUP3 ADD MLOAD PUSH1 0x7 DUP3 ADD SSTORE PUSH2 0x120 DUP3 ADD MLOAD PUSH1 0x8 DUP3 ADD SSTORE PUSH2 0x140 DUP3 ADD MLOAD DUP1 MLOAD SWAP1 PUSH8 0xFFFFFFFFFFFFFFFF DUP3 GT PUSH2 0xB79 JUMPI PUSH1 0x1 PUSH1 0x40 SHL DUP3 GT PUSH2 0xB79 JUMPI PUSH1 0x9 DUP4 ADD DUP1 SLOAD DUP4 DUP3 SSTORE PUSH1 0x20 SWAP3 SWAP2 PUSH2 0xA96 SWAP2 DUP6 SWAP2 PUSH2 0x177A JUMP JUMPDEST ADD PUSH1 0x9 DUP4 ADD PUSH1 0x0 MSTORE PUSH1 0x20 PUSH1 0x0 KECCAK256 PUSH1 0x0 JUMPDEST DUP4 DUP2 LT PUSH2 0xB8F JUMPI POP POP POP POP PUSH1 0xA PUSH2 0x160 SWAP2 ADD SWAP2 ADD MLOAD SWAP1 DUP2 MLOAD SWAP2 PUSH8 0xFFFFFFFFFFFFFFFF DUP4 GT PUSH2 0xB79 JUMPI PUSH1 0x1 PUSH1 0x40 SHL DUP4 GT PUSH2 0xB79 JUMPI PUSH1 0x20 SWAP1 PUSH2 0xAEB DUP5 DUP5 SLOAD DUP2 DUP7 SSTORE DUP6 PUSH2 0x177A JUMP JUMPDEST ADD SWAP1 PUSH1 0x0 MSTORE PUSH1 0x20 PUSH1 0x0 KECCAK256 PUSH1 0x0 JUMPDEST DUP4 DUP2 LT PUSH2 0xB65 JUMPI POP POP POP POP PUSH32 0x8A5ED66A83326884C08A1335FAB35B7837B82DC7D3434DFC7E4236ED7A6920CE PUSH2 0xB39 PUSH1 0x40 MLOAD SWAP5 PUSH1 0x60 DUP7 MSTORE PUSH1 0x60 DUP7 ADD SWAP1 PUSH2 0x147A JUMP JUMPDEST PUSH1 0x44 CALLDATALOAD PUSH1 0x20 DUP7 ADD MSTORE TIMESTAMP PUSH3 0x93A80 ADD PUSH1 0x40 DUP7 ADD MSTORE PUSH1 0x1 PUSH1 0x1 PUSH1 0xA0 SHL SUB SWAP1 SWAP4 AND SWAP4 CALLER SWAP4 DUP2 SWAP1 SUB SWAP1 LOG4 PUSH1 0x1 DUP1 SSTORE STOP JUMPDEST PUSH1 0x1 SWAP1 PUSH1 0x20 DUP5 MLOAD SWAP5 ADD SWAP4 DUP2 DUP5 ADD SSTORE ADD PUSH2 0xAF8 JUMP JUMPDEST PUSH4 0x4E487B71 PUSH1 0xE0 SHL PUSH1 0x0 MSTORE PUSH1 0x41 PUSH1 0x4 MSTORE PUSH1 0x24 PUSH1 0x0 REVERT JUMPDEST DUP3 MLOAD PUSH1 0x1 PUSH1 0x1 PUSH1 0xA0 SHL SUB AND DUP2 DUP4 ADD SSTORE PUSH1 0x20 SWAP1 SWAP3 ADD SWAP2 PUSH1 0x1 ADD PUSH2 0xAA6 JUMP JUMPDEST ADD MLOAD SWAP1 POP DUP8 DUP1 PUSH2 0x9E6 JUMP JUMPDEST SWAP3 POP PUSH1 0x2 DUP5 ADD PUSH1 0x0 MSTORE PUSH1 0x20 PUSH1 0x0 KECCAK256 SWAP1 PUSH1 0x0 SWAP4 JUMPDEST PUSH1 0x1F NOT DUP5 AND DUP6 LT PUSH2 0xC0E JUMPI PUSH1 0x1 SWAP5 POP DUP4 PUSH1 0x1F NOT DUP2 AND LT PUSH2 0xBF5 JUMPI JUMPDEST POP POP POP DUP2 SHL ADD PUSH1 0x2 DUP3 ADD SSTORE PUSH2 0x9FE JUMP JUMPDEST ADD MLOAD PUSH1 0x0 NOT PUSH1 0xF8 DUP5 PUSH1 0x3 SHL AND SHR NOT AND SWAP1 SSTORE DUP8 DUP1 DUP1 PUSH2 0xBE5 JUMP JUMPDEST DUP2 DUP2 ADD MLOAD DUP4 SSTORE PUSH1 0x20 SWAP5 DUP6 ADD SWAP5 PUSH1 0x1 SWAP1 SWAP4 ADD SWAP3 SWAP1 SWAP2 ADD SWAP1 PUSH2 0xBCA JUMP JUMPDEST PUSH2 0xC59 SWAP1 PUSH1 0x2 DUP7 ADD PUSH1 0x0 MSTORE PUSH1 0x20 PUSH1 0x0 KECCAK256 PUSH1 0x1F DUP6 ADD PUSH1 0x5 SHR DUP2 ADD SWAP2 PUSH1 0x20 DUP7 LT PUSH2 0xC5F JUMPI JUMPDEST PUSH1 0x1F ADD PUSH1 0x5 SHR ADD SWAP1 PUSH2 0x1763 JUMP JUMPDEST DUP9 PUSH2 0x9CF JUMP JUMPDEST SWAP1 SWAP2 POP DUP2 SWAP1 PUSH2 0xC4C JUMP JUMPDEST PUSH4 0x4E487B71 PUSH1 0xE0 SHL PUSH1 0x0 MSTORE PUSH1 0x11 PUSH1 0x4 MSTORE PUSH1 0x24 PUSH1 0x0 REVERT JUMPDEST DUP1 MLOAD DUP1 ISZERO SWAP1 DUP2 ISZERO PUSH2 0xCA3 JUMPI JUMPDEST POP ISZERO PUSH2 0x8D2 JUMPI PUSH1 0x40 MLOAD PUSH4 0x13C2BD1B PUSH1 0xE1 SHL DUP2 MSTORE PUSH1 0x4 SWAP1 REVERT JUMPDEST SWAP1 POP DUP3 MLOAD EQ ISZERO DUP6 PUSH2 0xC8B JUMP JUMPDEST POP PUSH1 0x20 DUP2 RETURNDATASIZE PUSH1 0x20 GT PUSH2 0xCE2 JUMPI JUMPDEST DUP2 PUSH2 0xCC9 PUSH1 0x20 SWAP4 DUP4 PUSH2 0x13B3 JUMP JUMPDEST DUP2 ADD SUB SLT PUSH2 0x17B JUMPI PUSH9 0x3635C9ADC5DEA00000 SWAP1 MLOAD PUSH2 0x8B6 JUMP JUMPDEST RETURNDATASIZE SWAP2 POP PUSH2 0xCBC JUMP JUMPDEST PUSH1 0x40 MLOAD PUSH4 0xEE412DF5 PUSH1 0xE0 SHL DUP2 MSTORE PUSH1 0x4 SWAP1 REVERT JUMPDEST POP PUSH1 0x4 PUSH1 0x44 CALLDATALOAD GT PUSH2 0x87F JUMP JUMPDEST PUSH1 0x40 MLOAD PUSH4 0x56BC138F PUSH1 0xE1 SHL DUP2 MSTORE PUSH1 0x4 SWAP1 REVERT JUMPDEST DUP2 CALLDATALOAD DUP2 MSTORE PUSH1 0x20 SWAP2 DUP3 ADD SWAP2 ADD PUSH2 0x85B JUMP JUMPDEST DUP3 CALLDATALOAD PUSH1 0x1 PUSH1 0x1 PUSH1 0xA0 SHL SUB DUP2 AND DUP2 SUB PUSH2 0x17B JUMPI DUP2 MSTORE PUSH1 0x20 SWAP3 DUP4 ADD SWAP3 ADD PUSH2 0x7F9 JUMP JUMPDEST CALLVALUE PUSH2 0x17B JUMPI PUSH1 0x0 CALLDATASIZE PUSH1 0x3 NOT ADD SLT PUSH2 0x17B JUMPI PUSH2 0xD63 PUSH2 0x18E7 JUMP JUMPDEST PUSH1 0x0 DUP1 SLOAD PUSH1 0x1 PUSH1 0x1 PUSH1 0xA0 SHL SUB NOT DUP2 AND DUP3 SSTORE PUSH1 0x1 PUSH1 0x1 PUSH1 0xA0 SHL SUB AND PUSH32 0x8BE0079C531659141344CD1FD0A4F28419497F9722A3DAAFE3B4186F6B6457E0 DUP3 DUP1 LOG3 STOP JUMPDEST CALLVALUE PUSH2 0x17B JUMPI PUSH1 0x20 CALLDATASIZE PUSH1 0x3 NOT ADD SLT PUSH2 0x17B JUMPI PUSH1 0x4 CALLDATALOAD PUSH2 0xDBF PUSH2 0x18E7 JUMP JUMPDEST DUP1 ISZERO DUP1 ISZERO PUSH2 0xDE8 JUMPI JUMPDEST PUSH2 0x374 JUMPI PUSH1 0x0 SWAP1 DUP2 MSTORE PUSH1 0x3 PUSH1 0x20 MSTORE PUSH1 0x40 SWAP1 KECCAK256 PUSH1 0x6 ADD DUP1 SLOAD PUSH2 0xFF00 NOT AND SWAP1 SSTORE STOP JUMPDEST POP PUSH1 0x2 SLOAD DUP2 GT PUSH2 0xDC8 JUMP JUMPDEST CALLVALUE PUSH2 0x17B JUMPI PUSH1 0x40 CALLDATASIZE PUSH1 0x3 NOT ADD SLT PUSH2 0x17B JUMPI PUSH2 0xE0C PUSH2 0x14BA JUMP JUMPDEST PUSH1 0x4 CALLDATALOAD PUSH1 0x0 MSTORE PUSH1 0x4 PUSH1 0x20 MSTORE PUSH1 0x40 PUSH1 0x0 KECCAK256 SWAP1 PUSH1 0x1 DUP1 PUSH1 0xA0 SHL SUB AND PUSH1 0x0 MSTORE PUSH1 0x20 MSTORE PUSH1 0x20 PUSH1 0xFF PUSH1 0x40 PUSH1 0x0 KECCAK256 SLOAD AND PUSH1 0x40 MLOAD SWAP1 ISZERO ISZERO DUP2 MSTORE RETURN JUMPDEST CALLVALUE PUSH2 0x17B JUMPI PUSH1 0x20 CALLDATASIZE PUSH1 0x3 NOT ADD SLT PUSH2 0x17B JUMPI PUSH2 0xE73 PUSH2 0xE5F PUSH1 0x4 CALLDATALOAD PUSH2 0x15C5 JUMP JUMPDEST PUSH1 0x40 MLOAD SWAP2 DUP3 SWAP2 PUSH1 0x20 DUP4 MSTORE PUSH1 0x20 DUP4 ADD SWAP1 PUSH2 0x147A JUMP JUMPDEST SUB SWAP1 RETURN JUMPDEST CALLVALUE PUSH2 0x17B JUMPI PUSH1 0x0 CALLDATASIZE PUSH1 0x3 NOT ADD SLT PUSH2 0x17B JUMPI PUSH1 0x0 PUSH1 0x1 PUSH1 0x2 SLOAD SWAP1 JUMPDEST DUP2 DUP2 GT ISZERO PUSH2 0xEA4 JUMPI PUSH1 0x20 DUP4 PUSH1 0x40 MLOAD SWAP1 DUP2 MSTORE RETURN JUMPDEST DUP1 PUSH1 0x0 MSTORE PUSH1 0x3 PUSH1 0x20 MSTORE PUSH1 0x40 PUSH1 0x0 KECCAK256 PUSH1 0xFF PUSH1 0x6 DUP3 ADD SLOAD PUSH1 0x8 SHR AND SWAP1 DUP2 PUSH2 0xEED JUMPI JUMPDEST POP PUSH2 0xED8 JUMPI JUMPDEST PUSH2 0xED3 SWAP1 PUSH2 0x15A9 JUMP JUMPDEST PUSH2 0xE91 JUMP JUMPDEST SWAP2 PUSH2 0xEE5 PUSH2 0xED3 SWAP2 PUSH2 0x15A9 JUMP JUMPDEST SWAP3 SWAP1 POP PUSH2 0xECA JUMP JUMPDEST PUSH1 0x5 SWAP2 POP ADD SLOAD TIMESTAMP GT ISZERO DUP5 PUSH2 0xEC4 JUMP JUMPDEST CALLVALUE PUSH2 0x17B JUMPI PUSH1 0x20 DUP1 PUSH1 0x3 NOT CALLDATASIZE ADD SLT PUSH2 0x17B JUMPI PUSH1 0x4 CALLDATALOAD PUSH2 0xF19 PUSH2 0x189A JUMP JUMPDEST DUP1 ISZERO DUP1 ISZERO PUSH2 0x1277 JUMPI JUMPDEST PUSH2 0x374 JUMPI DUP1 PUSH1 0x0 MSTORE PUSH1 0x3 DUP3 MSTORE PUSH1 0x40 PUSH1 0x0 KECCAK256 PUSH1 0x6 DUP2 ADD SWAP3 DUP4 SLOAD SWAP2 PUSH1 0xFF DUP4 AND PUSH2 0x1265 JUMPI PUSH1 0x5 DUP2 ADD SLOAD TIMESTAMP GT ISZERO PUSH2 0x362 JUMPI PUSH1 0x3 DUP2 ADD SLOAD PUSH1 0x4 DUP3 ADD SLOAD LT ISZERO PUSH2 0x1253 JUMPI PUSH1 0x1 SWAP5 DUP6 DUP1 SWAP5 PUSH2 0xFFFF NOT AND OR SWAP1 SSTORE PUSH1 0x7 DUP2 ADD SLOAD DUP4 DUP2 EQ PUSH1 0x0 EQ PUSH2 0x1030 JUMPI POP SWAP1 DUP1 PUSH1 0x4 SWAP3 PUSH1 0x1 DUP1 PUSH1 0xA0 SHL SUB SWAP5 DUP6 SWAP2 ADD SLOAD AND PUSH14 0x39B2BA26B0BC2A3930B739B332B9 PUSH1 0x91 SHL DUP3 PUSH1 0x40 MLOAD PUSH2 0xFAE DUP2 PUSH2 0x1397 JUMP JUMPDEST PUSH1 0xE DUP2 MSTORE ADD MSTORE PUSH1 0x40 MLOAD PUSH4 0x8DA5CB5B PUSH1 0xE0 SHL DUP2 MSTORE SWAP4 DUP5 SWAP2 DUP3 SWAP1 GAS STATICCALL PUSH2 0xFFC JUMPI JUMPDEST POP POP POP JUMPDEST CALLER SWAP1 PUSH32 0x9C85B616F29FCA57A17EAFE71CF9FF82FFEF41766E2CF01EA7F8F7878DD3EC24 PUSH1 0x0 DUP1 LOG3 DUP1 SSTORE STOP JUMPDEST DUP2 DUP2 RETURNDATASIZE DUP4 GT PUSH2 0x1029 JUMPI JUMPDEST PUSH2 0x1010 DUP2 DUP4 PUSH2 0x13B3 JUMP JUMPDEST DUP2 ADD SUB SLT PUSH2 0x17B JUMPI MLOAD SWAP1 DUP2 AND SUB PUSH2 0x17B JUMPI DUP3 DUP1 DUP1 PUSH2 0xFCD JUMP JUMPDEST POP RETURNDATASIZE PUSH2 0x1006 JUMP JUMPDEST PUSH1 0x2 DUP2 SUB PUSH2 0x10C4 JUMPI POP SWAP1 DUP1 PUSH1 0x4 SWAP3 PUSH1 0x1 DUP1 PUSH1 0xA0 SHL SUB SWAP5 DUP6 SWAP2 ADD SLOAD AND PUSH13 0x7365744D6178486F6C64696E67 PUSH1 0x98 SHL DUP3 PUSH1 0x40 MLOAD PUSH2 0x1069 DUP2 PUSH2 0x1397 JUMP JUMPDEST PUSH1 0xD DUP2 MSTORE ADD MSTORE PUSH1 0x40 MLOAD PUSH4 0x8DA5CB5B PUSH1 0xE0 SHL DUP2 MSTORE SWAP4 DUP5 SWAP2 DUP3 SWAP1 GAS STATICCALL PUSH2 0x1090 JUMPI JUMPDEST POP POP POP PUSH2 0xFD1 JUMP JUMPDEST DUP2 DUP2 RETURNDATASIZE DUP4 GT PUSH2 0x10BD JUMPI JUMPDEST PUSH2 0x10A4 DUP2 DUP4 PUSH2 0x13B3 JUMP JUMPDEST DUP2 ADD SUB SLT PUSH2 0x17B JUMPI MLOAD SWAP1 DUP2 AND SUB PUSH2 0x17B JUMPI DUP3 DUP1 DUP1 PUSH2 0x1088 JUMP JUMPDEST POP RETURNDATASIZE PUSH2 0x109A JUMP JUMPDEST PUSH1 0x3 DUP2 SUB PUSH2 0x112A JUMPI POP SWAP1 DUP1 PUSH1 0x4 SWAP3 PUSH1 0x1 DUP1 PUSH1 0xA0 SHL SUB SWAP5 DUP6 SWAP2 ADD SLOAD AND PUSH20 0x746F67676C655472616E736665724C696D697473 PUSH1 0x60 SHL DUP3 PUSH1 0x40 MLOAD PUSH2 0x1104 DUP2 PUSH2 0x1397 JUMP JUMPDEST PUSH1 0x14 DUP2 MSTORE ADD MSTORE PUSH1 0x40 MLOAD PUSH4 0x8DA5CB5B PUSH1 0xE0 SHL DUP2 MSTORE SWAP4 DUP5 SWAP2 DUP3 SWAP1 GAS STATICCALL PUSH2 0x1090 JUMPI POP POP POP PUSH2 0xFD1 JUMP JUMPDEST PUSH1 0x4 EQ PUSH2 0x1139 JUMPI POP POP POP PUSH2 0xFD1 JUMP JUMPDEST DUP3 DUP2 ADD SLOAD DUP2 SLOAD PUSH1 0x1 PUSH1 0x1 PUSH1 0xA0 SHL SUB SWAP2 DUP3 AND SWAP3 SWAP2 SWAP1 DUP2 AND PUSH2 0x1167 PUSH1 0xA PUSH2 0x1160 PUSH1 0x9 DUP7 ADD PUSH2 0x14FE JUMP JUMPDEST SWAP5 ADD PUSH2 0x1558 JUMP JUMPDEST SWAP2 PUSH1 0x0 DUP8 JUMPDEST PUSH2 0x117B JUMPI JUMPDEST POP POP POP POP POP PUSH2 0x1088 JUMP JUMPDEST DUP5 MLOAD DUP2 LT ISZERO PUSH2 0x124E JUMPI DUP1 DUP3 PUSH2 0x1191 DUP11 SWAP4 DUP9 PUSH2 0x18BD JUMP JUMPDEST MLOAD AND ISZERO ISZERO DUP1 PUSH2 0x123B JUMPI JUMPDEST PUSH2 0x11A7 JUMPI JUMPDEST ADD DUP8 PUSH2 0x116C JUMP JUMPDEST SWAP1 POP DUP2 PUSH2 0x11B4 DUP3 DUP8 PUSH2 0x18BD JUMP JUMPDEST MLOAD AND PUSH2 0x11C0 DUP3 DUP7 PUSH2 0x18BD JUMP JUMPDEST MLOAD PUSH1 0x40 MLOAD SWAP2 PUSH4 0x23B872DD PUSH1 0xE0 SHL DUP4 MSTORE DUP6 PUSH1 0x4 DUP5 ADD MSTORE PUSH1 0x24 DUP4 ADD MSTORE PUSH1 0x44 DUP3 ADD MSTORE DUP8 DUP2 PUSH1 0x64 DUP2 PUSH1 0x0 DUP12 GAS CALL SWAP1 DUP2 PUSH2 0x1201 JUMPI JUMPDEST POP SWAP1 DUP9 SWAP2 ISZERO PUSH1 0x0 SUB PUSH2 0x11A0 JUMPI PUSH2 0x11A0 JUMP JUMPDEST SWAP1 SWAP2 SWAP9 POP DUP8 DUP2 DUP2 RETURNDATASIZE DUP4 GT PUSH2 0x1234 JUMPI JUMPDEST PUSH2 0x121A DUP2 DUP4 PUSH2 0x13B3 JUMP JUMPDEST DUP2 ADD SUB SLT PUSH2 0x17B JUMPI MLOAD DUP1 ISZERO ISZERO SUB PUSH2 0x17B JUMPI SWAP7 DUP10 SWAP8 DUP12 PUSH2 0x11F0 JUMP JUMPDEST POP RETURNDATASIZE PUSH2 0x1210 JUMP JUMPDEST POP PUSH2 0x1246 DUP2 DUP7 PUSH2 0x18BD JUMP JUMPDEST MLOAD ISZERO ISZERO PUSH2 0x119B JUMP JUMPDEST PUSH2 0x1171 JUMP JUMPDEST PUSH1 0x40 MLOAD PUSH4 0x144D3C8B PUSH1 0xE0 SHL DUP2 MSTORE PUSH1 0x4 SWAP1 REVERT JUMPDEST PUSH1 0x40 MLOAD PUSH4 0xB96EF37B PUSH1 0xE0 SHL DUP2 MSTORE PUSH1 0x4 SWAP1 REVERT JUMPDEST POP PUSH1 0x2 SLOAD DUP2 GT PUSH2 0xF22 JUMP JUMPDEST CALLVALUE PUSH2 0x17B JUMPI PUSH1 0x20 CALLDATASIZE PUSH1 0x3 NOT ADD SLT PUSH2 0x17B JUMPI PUSH1 0x4 CALLDATALOAD PUSH1 0x0 SWAP1 DUP2 MSTORE PUSH1 0x3 PUSH1 0x20 MSTORE PUSH1 0x40 SWAP1 KECCAK256 DUP1 SLOAD PUSH1 0x1 DUP3 ADD SLOAD PUSH1 0x1 PUSH1 0x1 PUSH1 0xA0 SHL SUB SWAP2 DUP3 AND SWAP3 SWAP2 AND SWAP1 PUSH2 0x12C6 PUSH1 0x2 DUP3 ADD PUSH2 0x13D5 JUMP JUMPDEST PUSH1 0x3 DUP3 ADD SLOAD SWAP2 PUSH1 0xFF PUSH1 0x4 DUP3 ADD SLOAD PUSH1 0x5 DUP4 ADD SLOAD PUSH1 0x6 DUP5 ADD SLOAD SWAP2 PUSH2 0x130B PUSH1 0x8 PUSH1 0x7 DUP8 ADD SLOAD SWAP7 ADD SLOAD SWAP7 PUSH1 0x40 MLOAD SWAP11 DUP12 SWAP11 PUSH2 0x140 SWAP2 DUP13 MSTORE PUSH1 0x20 DUP13 ADD MSTORE DUP1 PUSH1 0x40 DUP13 ADD MSTORE DUP11 ADD SWAP1 PUSH2 0x147A JUMP JUMPDEST SWAP7 PUSH1 0x60 DUP10 ADD MSTORE PUSH1 0x80 DUP9 ADD MSTORE PUSH1 0xA0 DUP8 ADD MSTORE DUP2 DUP2 AND ISZERO ISZERO PUSH1 0xC0 DUP8 ADD MSTORE PUSH1 0x8 SHR AND ISZERO ISZERO PUSH1 0xE0 DUP6 ADD MSTORE PUSH2 0x100 DUP5 ADD MSTORE PUSH2 0x120 DUP4 ADD MSTORE SUB SWAP1 RETURN JUMPDEST SWAP1 PUSH1 0x1 DUP3 DUP2 SHR SWAP3 AND DUP1 ISZERO PUSH2 0x1370 JUMPI JUMPDEST PUSH1 0x20 DUP4 LT EQ PUSH2 0x135A JUMPI JUMP JUMPDEST PUSH4 0x4E487B71 PUSH1 0xE0 SHL PUSH1 0x0 MSTORE PUSH1 0x22 PUSH1 0x4 MSTORE PUSH1 0x24 PUSH1 0x0 REVERT JUMPDEST SWAP2 PUSH1 0x7F AND SWAP2 PUSH2 0x134F JUMP JUMPDEST PUSH2 0x180 DUP2 ADD SWAP1 DUP2 LT PUSH8 0xFFFFFFFFFFFFFFFF DUP3 GT OR PUSH2 0xB79 JUMPI PUSH1 0x40 MSTORE JUMP JUMPDEST PUSH1 0x40 DUP2 ADD SWAP1 DUP2 LT PUSH8 0xFFFFFFFFFFFFFFFF DUP3 GT OR PUSH2 0xB79 JUMPI PUSH1 0x40 MSTORE JUMP JUMPDEST SWAP1 PUSH1 0x1F DUP1 NOT SWAP2 ADD AND DUP2 ADD SWAP1 DUP2 LT PUSH8 0xFFFFFFFFFFFFFFFF DUP3 GT OR PUSH2 0xB79 JUMPI PUSH1 0x40 MSTORE JUMP JUMPDEST SWAP1 PUSH1 0x40 MLOAD SWAP2 DUP3 PUSH1 0x0 DUP3 SLOAD PUSH2 0x13E8 DUP2 PUSH2 0x1340 JUMP JUMPDEST SWAP1 DUP2 DUP5 MSTORE PUSH1 0x20 SWAP5 PUSH1 0x1 SWAP2 PUSH1 0x1 DUP2 AND SWAP1 DUP2 PUSH1 0x0 EQ PUSH2 0x1458 JUMPI POP PUSH1 0x1 EQ PUSH2 0x1419 JUMPI JUMPDEST POP POP POP PUSH2 0x1417 SWAP3 POP SUB DUP4 PUSH2 0x13B3 JUMP JUMPDEST JUMP JUMPDEST PUSH1 0x0 SWAP1 DUP2 MSTORE DUP6 DUP2 KECCAK256 SWAP6 SWAP4 POP SWAP2 SWAP1 JUMPDEST DUP2 DUP4 LT PUSH2 0x1440 JUMPI POP POP PUSH2 0x1417 SWAP4 POP DUP3 ADD ADD CODESIZE DUP1 DUP1 PUSH2 0x1408 JUMP JUMPDEST DUP6 SLOAD DUP9 DUP5 ADD DUP6 ADD MSTORE SWAP5 DUP6 ADD SWAP5 DUP8 SWAP5 POP SWAP2 DUP4 ADD SWAP2 PUSH2 0x1427 JUMP JUMPDEST SWAP3 POP POP POP PUSH2 0x1417 SWAP5 SWAP3 POP PUSH1 0xFF NOT AND DUP3 DUP5 ADD MSTORE ISZERO ISZERO PUSH1 0x5 SHL DUP3 ADD ADD CODESIZE DUP1 DUP1 PUSH2 0x1408 JUMP JUMPDEST SWAP2 SWAP1 DUP3 MLOAD SWAP3 DUP4 DUP3 MSTORE PUSH1 0x0 JUMPDEST DUP5 DUP2 LT PUSH2 0x14A6 JUMPI POP POP DUP3 PUSH1 0x0 PUSH1 0x20 DUP1 SWAP5 SWAP6 DUP5 ADD ADD MSTORE PUSH1 0x1F DUP1 NOT SWAP2 ADD AND ADD ADD SWAP1 JUMP JUMPDEST PUSH1 0x20 DUP2 DUP4 ADD DUP2 ADD MLOAD DUP5 DUP4 ADD DUP3 ADD MSTORE ADD PUSH2 0x1485 JUMP JUMPDEST PUSH1 0x24 CALLDATALOAD SWAP1 PUSH1 0x1 PUSH1 0x1 PUSH1 0xA0 SHL SUB DUP3 AND DUP3 SUB PUSH2 0x17B JUMPI JUMP JUMPDEST PUSH1 0x4 CALLDATALOAD SWAP1 PUSH1 0x1 PUSH1 0x1 PUSH1 0xA0 SHL SUB DUP3 AND DUP3 SUB PUSH2 0x17B JUMPI JUMP JUMPDEST PUSH8 0xFFFFFFFFFFFFFFFF DUP2 GT PUSH2 0xB79 JUMPI PUSH1 0x5 SHL PUSH1 0x20 ADD SWAP1 JUMP JUMPDEST SWAP1 PUSH1 0x40 MLOAD SWAP2 DUP3 DUP2 SLOAD SWAP2 DUP3 DUP3 MSTORE PUSH1 0x20 SWAP3 PUSH1 0x20 DUP4 ADD SWAP2 PUSH1 0x0 MSTORE PUSH1 0x20 PUSH1 0x0 KECCAK256 SWAP4 PUSH1 0x0 SWAP1 JUMPDEST DUP3 DUP3 LT PUSH2 0x1535 JUMPI POP POP POP PUSH2 0x1417 SWAP3 POP SUB DUP4 PUSH2 0x13B3 JUMP JUMPDEST DUP6 SLOAD PUSH1 0x1 PUSH1 0x1 PUSH1 0xA0 SHL SUB AND DUP5 MSTORE PUSH1 0x1 SWAP6 DUP7 ADD SWAP6 DUP9 SWAP6 POP SWAP4 DUP2 ADD SWAP4 SWAP1 SWAP2 ADD SWAP1 PUSH2 0x151F JUMP JUMPDEST SWAP1 PUSH1 0x40 MLOAD SWAP2 DUP3 DUP2 SLOAD SWAP2 DUP3 DUP3 MSTORE PUSH1 0x20 SWAP3 PUSH1 0x20 DUP4 ADD SWAP2 PUSH1 0x0 MSTORE PUSH1 0x20 PUSH1 0x0 KECCAK256 SWAP4 PUSH1 0x0 SWAP1 JUMPDEST DUP3 DUP3 LT PUSH2 0x158F JUMPI POP POP POP PUSH2 0x1417 SWAP3 POP SUB DUP4 PUSH2 0x13B3 JUMP JUMPDEST DUP6 SLOAD DUP5 MSTORE PUSH1 0x1 SWAP6 DUP7 ADD SWAP6 DUP9 SWAP6 POP SWAP4 DUP2 ADD SWAP4 SWAP1 SWAP2 ADD SWAP1 PUSH2 0x1579 JUMP JUMPDEST PUSH1 0x0 NOT DUP2 EQ PUSH2 0xC69 JUMPI PUSH1 0x1 ADD SWAP1 JUMP JUMPDEST SWAP2 SWAP1 DUP3 ADD DUP1 SWAP3 GT PUSH2 0xC69 JUMPI JUMP JUMPDEST DUP1 ISZERO DUP1 ISZERO PUSH2 0x1758 JUMPI JUMPDEST PUSH2 0x1732 JUMPI PUSH1 0x0 MSTORE PUSH1 0x20 PUSH1 0x3 DUP2 MSTORE PUSH1 0x40 DUP1 PUSH1 0x0 KECCAK256 DUP2 MLOAD SWAP1 PUSH2 0x15ED DUP3 PUSH2 0x137A JUMP JUMPDEST DUP1 SLOAD PUSH1 0x1 PUSH1 0x1 PUSH1 0xA0 SHL SUB SWAP1 DUP2 AND DUP4 MSTORE PUSH1 0x1 DUP3 ADD SLOAD AND DUP5 DUP4 ADD MSTORE PUSH2 0x1612 PUSH1 0x2 DUP3 ADD PUSH2 0x13D5 JUMP JUMPDEST DUP4 DUP4 ADD MSTORE PUSH1 0x3 DUP2 ADD SLOAD SWAP2 PUSH1 0x60 DUP2 ADD SWAP3 DUP4 MSTORE PUSH1 0x4 DUP3 ADD SLOAD SWAP2 PUSH1 0x80 DUP3 ADD SWAP3 DUP4 MSTORE PUSH1 0x5 DUP2 ADD SLOAD SWAP2 PUSH1 0xA0 DUP2 ADD SWAP3 DUP4 MSTORE PUSH2 0x160 PUSH2 0x1686 PUSH1 0xA PUSH1 0x6 DUP6 ADD SLOAD SWAP5 PUSH1 0xFF PUSH1 0xC0 DUP7 ADD SWAP7 DUP2 DUP2 AND ISZERO ISZERO DUP9 MSTORE PUSH1 0x8 SHR AND ISZERO ISZERO PUSH1 0xE0 DUP7 ADD MSTORE PUSH1 0x7 DUP2 ADD SLOAD PUSH2 0x100 DUP7 ADD MSTORE PUSH1 0x8 DUP2 ADD SLOAD PUSH2 0x120 DUP7 ADD MSTORE PUSH2 0x458 PUSH1 0x9 DUP3 ADD PUSH2 0x14FE JUMP JUMPDEST SWAP2 ADD MSTORE MLOAD PUSH2 0x170D JUMPI MLOAD TIMESTAMP GT ISZERO PUSH2 0x16F5 JUMPI PUSH2 0x16A3 DUP3 MLOAD DUP3 MLOAD SWAP1 PUSH2 0x15B8 JUMP JUMPDEST ISZERO ISZERO SWAP2 DUP3 PUSH2 0x16E8 JUMPI JUMPDEST POP POP PUSH2 0x16D2 JUMPI PUSH6 0x11985A5B1959 PUSH1 0xD2 SHL SWAP1 MLOAD SWAP2 PUSH2 0x16C8 DUP4 PUSH2 0x1397 JUMP JUMPDEST PUSH1 0x6 DUP4 MSTORE DUP3 ADD MSTORE SWAP1 JUMP JUMPDEST PUSH6 0x14185CDCD959 PUSH1 0xD2 SHL SWAP1 MLOAD SWAP2 PUSH2 0x16C8 DUP4 PUSH2 0x1397 JUMP JUMPDEST MLOAD SWAP1 MLOAD LT SWAP1 POP CODESIZE DUP1 PUSH2 0x16AC JUMP JUMPDEST POP POP PUSH6 0x416374697665 PUSH1 0xD0 SHL SWAP1 MLOAD SWAP2 PUSH2 0x16C8 DUP4 PUSH2 0x1397 JUMP JUMPDEST POP POP POP PUSH8 0x115E1958DD5D1959 PUSH1 0xC2 SHL SWAP1 MLOAD SWAP2 PUSH2 0x1728 DUP4 PUSH2 0x1397 JUMP JUMPDEST PUSH1 0x8 DUP4 MSTORE DUP3 ADD MSTORE SWAP1 JUMP JUMPDEST POP PUSH1 0x40 MLOAD PUSH2 0x173F DUP2 PUSH2 0x1397 JUMP JUMPDEST PUSH1 0x9 DUP2 MSTORE PUSH9 0x139BDD08119BDD5B99 PUSH1 0xBA SHL PUSH1 0x20 DUP3 ADD MSTORE SWAP1 JUMP JUMPDEST POP PUSH1 0x2 SLOAD DUP2 GT PUSH2 0x15CE JUMP JUMPDEST DUP2 DUP2 LT PUSH2 0x176E JUMPI POP POP JUMP JUMPDEST PUSH1 0x0 DUP2 SSTORE PUSH1 0x1 ADD PUSH2 0x1763 JUMP JUMPDEST SWAP2 DUP2 DUP2 LT PUSH2 0x1787 JUMPI POP POP POP JUMP JUMPDEST PUSH2 0x1417 SWAP3 PUSH1 0x0 MSTORE PUSH1 0x20 PUSH1 0x0 KECCAK256 SWAP2 DUP3 ADD SWAP2 ADD PUSH2 0x1763 JUMP JUMPDEST DUP1 ISZERO DUP1 ISZERO PUSH2 0x188F JUMPI JUMPDEST PUSH2 0x1889 JUMPI PUSH1 0x0 MSTORE PUSH1 0x3 PUSH1 0x20 MSTORE PUSH1 0x40 PUSH1 0x0 KECCAK256 PUSH1 0x40 MLOAD SWAP1 PUSH2 0x17C4 DUP3 PUSH2 0x137A JUMP JUMPDEST DUP1 SLOAD PUSH1 0x1 PUSH1 0x1 PUSH1 0xA0 SHL SUB SWAP1 DUP2 AND DUP4 MSTORE PUSH1 0x1 DUP3 ADD SLOAD AND PUSH1 0x20 DUP4 ADD MSTORE PUSH2 0x17EA PUSH1 0x2 DUP3 ADD PUSH2 0x13D5 JUMP JUMPDEST PUSH1 0x40 DUP4 ADD MSTORE PUSH1 0x3 DUP2 ADD SLOAD PUSH1 0x60 DUP4 ADD SWAP1 DUP2 MSTORE PUSH1 0x4 DUP3 ADD SLOAD SWAP2 PUSH1 0x80 DUP5 ADD SWAP3 DUP4 MSTORE PUSH1 0x5 DUP2 ADD SLOAD SWAP4 PUSH1 0xA0 DUP2 ADD SWAP5 DUP6 MSTORE PUSH2 0x160 PUSH2 0x185E PUSH1 0xA PUSH1 0x6 DUP6 ADD SLOAD SWAP5 PUSH1 0xFF PUSH1 0xC0 DUP7 ADD SWAP7 DUP2 DUP2 AND ISZERO ISZERO DUP9 MSTORE PUSH1 0x8 SHR AND ISZERO ISZERO PUSH1 0xE0 DUP7 ADD MSTORE PUSH1 0x7 DUP2 ADD SLOAD PUSH2 0x100 DUP7 ADD MSTORE PUSH1 0x8 DUP2 ADD SLOAD PUSH2 0x120 DUP7 ADD MSTORE PUSH2 0x458 PUSH1 0x9 DUP3 ADD PUSH2 0x14FE JUMP JUMPDEST SWAP2 ADD MSTORE MLOAD ISZERO SWAP3 DUP4 PUSH2 0x187E JUMPI JUMPDEST POP DUP3 PUSH2 0x1875 JUMPI POP POP SWAP1 JUMP JUMPDEST MLOAD SWAP1 MLOAD LT SWAP2 SWAP1 POP JUMP JUMPDEST MLOAD TIMESTAMP GT SWAP3 POP CODESIZE PUSH2 0x186A JUMP JUMPDEST POP PUSH1 0x0 SWAP1 JUMP JUMPDEST POP PUSH1 0x2 SLOAD DUP2 GT PUSH2 0x17A6 JUMP JUMPDEST PUSH1 0x2 PUSH1 0x1 SLOAD EQ PUSH2 0x18AB JUMPI PUSH1 0x2 PUSH1 0x1 SSTORE JUMP JUMPDEST PUSH1 0x40 MLOAD PUSH4 0x3EE5AEB5 PUSH1 0xE0 SHL DUP2 MSTORE PUSH1 0x4 SWAP1 REVERT JUMPDEST DUP1 MLOAD DUP3 LT ISZERO PUSH2 0x18D1 JUMPI PUSH1 0x20 SWAP2 PUSH1 0x5 SHL ADD ADD SWAP1 JUMP JUMPDEST PUSH4 0x4E487B71 PUSH1 0xE0 SHL PUSH1 0x0 MSTORE PUSH1 0x32 PUSH1 0x4 MSTORE PUSH1 0x24 PUSH1 0x0 REVERT JUMPDEST PUSH1 0x0 SLOAD PUSH1 0x1 PUSH1 0x1 PUSH1 0xA0 SHL SUB AND CALLER SUB PUSH2 0x18FB JUMPI JUMP JUMPDEST PUSH1 0x40 MLOAD PUSH4 0x118CDAA7 PUSH1 0xE0 SHL DUP2 MSTORE CALLER PUSH1 0x4 DUP3 ADD MSTORE PUSH1 0x24 SWAP1 REVERT INVALID LOG2 PUSH5 0x6970667358 0x22 SLT KECCAK256 PUSH9 0xB3097288001002C026 0xAD DIV KECCAK256 PUSH30 0x6AA7D504A5754CC70030CFA2F01BCD877FD564736F6C6343000818003300 "
        },
        "methodIdentifiers": {
          "MIN_VOTING_POWER()": "805a8142",
          "VOTING_PERIOD()": "b1610d7e",
          "canExecuteProposal(uint256)": "824ea8ed",
          "createProposal(address,string,uint256,uint256,address[],uint256[])": "7c63fc24",
          "deactivateProposal(uint256)": "6bff47e6",
          "executeProposal(uint256)": "0d61b519",
          "getActiveProposalsCount()": "19f3dad1",
          "getProposal(uint256)": "c7f758a8",
          "getProposalStatus(uint256)": "401853b7",
          "getVotingPower(address,address)": "a60b1145",
          "hasVotedOnProposal(uint256,address)": "600303d8",
          "owner()": "8da5cb5b",
          "proposalCount()": "da35c664",
          "proposals(uint256)": "013cf08b",
          "renounceOwnership()": "715018a6",
          "transferOwnership(address)": "f2fde38b",
          "updateMinVotingPower(uint256)": "90bd8902",
          "vote(uint256,bool)": "c9d27afe",
          "voterPower(uint256,address)": "a241f0fd"
        }
      }
    }
  }
}