{
  "contracts/PumpFunGovernanceAirdrop.sol": {
    "PumpFunGovernanceAirdrop": {
      "abi": [
        {
          "inputs": [
            {
              "internalType": "address",
              "name": "_governanceContract",
              "type": "address"
            }
          ],
          "stateMutability": "nonpayable",
          "type": "constructor"
        },
        {
          "inputs": [
            {
              "internalType": "address",
              "name": "owner",
              "type": "address"
            }
          ],
          "name": "OwnableInvalidOwner",
          "type": "error"
        },
        {
          "inputs": [
            {
              "internalType": "address",
              "name": "account",
              "type": "address"
            }
          ],
          "name": "OwnableUnauthorizedAccount",
          "type": "error"
        },
        {
          "inputs": [],
          "name": "PumpFunGovernanceAirdrop__AirdropNotActive",
          "type": "error"
        },
        {
          "inputs": [],
          "name": "PumpFunGovernanceAirdrop__AlreadyClaimed",
          "type": "error"
        },
        {
          "inputs": [],
          "name": "PumpFunGovernanceAirdrop__InsufficientBalance",
          "type": "error"
        },
        {
          "inputs": [],
          "name": "PumpFunGovernanceAirdrop__InvalidAmount",
          "type": "error"
        },
        {
          "inputs": [],
          "name": "PumpFunGovernanceAirdrop__InvalidMerkleRoot",
          "type": "error"
        },
        {
          "inputs": [],
          "name": "PumpFunGovernanceAirdrop__InvalidProof",
          "type": "error"
        },
        {
          "inputs": [],
          "name": "PumpFunGovernanceAirdrop__TransferFailed",
          "type": "error"
        },
        {
          "inputs": [],
          "name": "ReentrancyGuardReentrantCall",
          "type": "error"
        },
        {
          "anonymous": false,
          "inputs": [
            {
              "indexed": true,
              "internalType": "address",
              "name": "recipient",
              "type": "address"
            },
            {
              "indexed": true,
              "internalType": "address",
              "name": "token",
              "type": "address"
            },
            {
              "indexed": false,
              "internalType": "uint256",
              "name": "amount",
              "type": "uint256"
            },
            {
              "indexed": false,
              "internalType": "uint256",
              "name": "timestamp",
              "type": "uint256"
            }
          ],
          "name": "AirdropClaimed",
          "type": "event"
        },
        {
          "anonymous": false,
          "inputs": [
            {
              "indexed": true,
              "internalType": "address",
              "name": "token",
              "type": "address"
            },
            {
              "indexed": false,
              "internalType": "bytes32",
              "name": "merkleRoot",
              "type": "bytes32"
            },
            {
              "indexed": false,
              "internalType": "uint256",
              "name": "totalAmount",
              "type": "uint256"
            },
            {
              "indexed": false,
              "internalType": "uint256",
              "name": "startTime",
              "type": "uint256"
            },
            {
              "indexed": false,
              "internalType": "uint256",
              "name": "endTime",
              "type": "uint256"
            }
          ],
          "name": "AirdropConfigured",
          "type": "event"
        },
        {
          "anonymous": false,
          "inputs": [
            {
              "indexed": true,
              "internalType": "address",
              "name": "token",
              "type": "address"
            },
            {
              "indexed": true,
              "internalType": "address",
              "name": "to",
              "type": "address"
            },
            {
              "indexed": false,
              "internalType": "uint256",
              "name": "amount",
              "type": "uint256"
            }
          ],
          "name": "EmergencyWithdraw",
          "type": "event"
        },
        {
          "anonymous": false,
          "inputs": [
            {
              "indexed": true,
              "internalType": "bytes32",
              "name": "oldRoot",
              "type": "bytes32"
            },
            {
              "indexed": true,
              "internalType": "bytes32",
              "name": "newRoot",
              "type": "bytes32"
            },
            {
              "indexed": true,
              "internalType": "address",
              "name": "token",
              "type": "address"
            }
          ],
          "name": "MerkleRootUpdated",
          "type": "event"
        },
        {
          "anonymous": false,
          "inputs": [
            {
              "indexed": true,
              "internalType": "address",
              "name": "previousOwner",
              "type": "address"
            },
            {
              "indexed": true,
              "internalType": "address",
              "name": "newOwner",
              "type": "address"
            }
          ],
          "name": "OwnershipTransferred",
          "type": "event"
        },
        {
          "stateMutability": "payable",
          "type": "fallback"
        },
        {
          "inputs": [
            {
              "internalType": "address",
              "name": "",
              "type": "address"
            }
          ],
          "name": "airdrops",
          "outputs": [
            {
              "internalType": "bytes32",
              "name": "merkleRoot",
              "type": "bytes32"
            },
            {
              "internalType": "uint256",
              "name": "totalAmount",
              "type": "uint256"
            },
            {
              "internalType": "uint256",
              "name": "claimedAmount",
              "type": "uint256"
            },
            {
              "internalType": "uint256",
              "name": "startTime",
              "type": "uint256"
            },
            {
              "internalType": "uint256",
              "name": "endTime",
              "type": "uint256"
            },
            {
              "internalType": "bool",
              "name": "active",
              "type": "bool"
            }
          ],
          "stateMutability": "view",
          "type": "function"
        },
        {
          "inputs": [
            {
              "internalType": "address",
              "name": "token",
              "type": "address"
            },
            {
              "internalType": "address[]",
              "name": "recipients",
              "type": "address[]"
            },
            {
              "internalType": "uint256[]",
              "name": "amounts",
              "type": "uint256[]"
            },
            {
              "internalType": "bytes32[][]",
              "name": "merkleProofs",
              "type": "bytes32[][]"
            }
          ],
          "name": "batchClaimAirdrop",
          "outputs": [],
          "stateMutability": "nonpayable",
          "type": "function"
        },
        {
          "inputs": [
            {
              "internalType": "address",
              "name": "token",
              "type": "address"
            },
            {
              "internalType": "address",
              "name": "user",
              "type": "address"
            }
          ],
          "name": "canClaim",
          "outputs": [
            {
              "internalType": "bool",
              "name": "",
              "type": "bool"
            }
          ],
          "stateMutability": "view",
          "type": "function"
        },
        {
          "inputs": [
            {
              "internalType": "address",
              "name": "token",
              "type": "address"
            },
            {
              "internalType": "uint256",
              "name": "amount",
              "type": "uint256"
            },
            {
              "internalType": "bytes32[]",
              "name": "merkleProof",
              "type": "bytes32[]"
            }
          ],
          "name": "claimAirdrop",
          "outputs": [],
          "stateMutability": "nonpayable",
          "type": "function"
        },
        {
          "inputs": [
            {
              "internalType": "address",
              "name": "",
              "type": "address"
            },
            {
              "internalType": "address",
              "name": "",
              "type": "address"
            }
          ],
          "name": "claimedAmounts",
          "outputs": [
            {
              "internalType": "uint256",
              "name": "",
              "type": "uint256"
            }
          ],
          "stateMutability": "view",
          "type": "function"
        },
        {
          "inputs": [
            {
              "internalType": "address",
              "name": "token",
              "type": "address"
            },
            {
              "internalType": "bytes32",
              "name": "merkleRoot",
              "type": "bytes32"
            },
            {
              "internalType": "uint256",
              "name": "totalAmount",
              "type": "uint256"
            },
            {
              "internalType": "uint256",
              "name": "duration",
              "type": "uint256"
            }
          ],
          "name": "configureAirdrop",
          "outputs": [],
          "stateMutability": "nonpayable",
          "type": "function"
        },
        {
          "inputs": [
            {
              "internalType": "address",
              "name": "token",
              "type": "address"
            }
          ],
          "name": "deactivateAirdrop",
          "outputs": [],
          "stateMutability": "nonpayable",
          "type": "function"
        },
        {
          "inputs": [
            {
              "internalType": "address",
              "name": "token",
              "type": "address"
            },
            {
              "internalType": "address",
              "name": "to",
              "type": "address"
            },
            {
              "internalType": "uint256",
              "name": "amount",
              "type": "uint256"
            }
          ],
          "name": "emergencyWithdraw",
          "outputs": [],
          "stateMutability": "nonpayable",
          "type": "function"
        },
        {
          "inputs": [
            {
              "internalType": "address",
              "name": "token",
              "type": "address"
            },
            {
              "internalType": "uint256",
              "name": "additionalTime",
              "type": "uint256"
            }
          ],
          "name": "extendAirdrop",
          "outputs": [],
          "stateMutability": "nonpayable",
          "type": "function"
        },
        {
          "inputs": [
            {
              "internalType": "address",
              "name": "token",
              "type": "address"
            }
          ],
          "name": "getAirdropInfo",
          "outputs": [
            {
              "internalType": "bytes32",
              "name": "merkleRoot",
              "type": "bytes32"
            },
            {
              "internalType": "uint256",
              "name": "totalAmount",
              "type": "uint256"
            },
            {
              "internalType": "uint256",
              "name": "claimedAmount",
              "type": "uint256"
            },
            {
              "internalType": "uint256",
              "name": "startTime",
              "type": "uint256"
            },
            {
              "internalType": "uint256",
              "name": "endTime",
              "type": "uint256"
            },
            {
              "internalType": "bool",
              "name": "active",
              "type": "bool"
            },
            {
              "internalType": "uint256",
              "name": "remainingAmount",
              "type": "uint256"
            }
          ],
          "stateMutability": "view",
          "type": "function"
        },
        {
          "inputs": [
            {
              "internalType": "address",
              "name": "token",
              "type": "address"
            },
            {
              "internalType": "address",
              "name": "user",
              "type": "address"
            }
          ],
          "name": "getClaimedAmount",
          "outputs": [
            {
              "internalType": "uint256",
              "name": "",
              "type": "uint256"
            }
          ],
          "stateMutability": "view",
          "type": "function"
        },
        {
          "inputs": [],
          "name": "getContractStats",
          "outputs": [
            {
              "internalType": "uint256",
              "name": "_totalAirdropsConfigured",
              "type": "uint256"
            },
            {
              "internalType": "uint256",
              "name": "_totalTokensDistributed",
              "type": "uint256"
            }
          ],
          "stateMutability": "view",
          "type": "function"
        },
        {
          "inputs": [
            {
              "internalType": "address",
              "name": "token",
              "type": "address"
            }
          ],
          "name": "getTotalRemainingTokens",
          "outputs": [
            {
              "internalType": "uint256",
              "name": "",
              "type": "uint256"
            }
          ],
          "stateMutability": "view",
          "type": "function"
        },
        {
          "inputs": [],
          "name": "governanceContract",
          "outputs": [
            {
              "internalType": "address",
              "name": "",
              "type": "address"
            }
          ],
          "stateMutability": "view",
          "type": "function"
        },
        {
          "inputs": [
            {
              "internalType": "address",
              "name": "",
              "type": "address"
            },
            {
              "internalType": "address",
              "name": "",
              "type": "address"
            }
          ],
          "name": "hasClaimed",
          "outputs": [
            {
              "internalType": "bool",
              "name": "",
              "type": "bool"
            }
          ],
          "stateMutability": "view",
          "type": "function"
        },
        {
          "inputs": [
            {
              "internalType": "address",
              "name": "token",
              "type": "address"
            }
          ],
          "name": "isAirdropActive",
          "outputs": [
            {
              "internalType": "bool",
              "name": "",
              "type": "bool"
            }
          ],
          "stateMutability": "view",
          "type": "function"
        },
        {
          "inputs": [],
          "name": "owner",
          "outputs": [
            {
              "internalType": "address",
              "name": "",
              "type": "address"
            }
          ],
          "stateMutability": "view",
          "type": "function"
        },
        {
          "inputs": [
            {
              "internalType": "address",
              "name": "token",
              "type": "address"
            }
          ],
          "name": "reactivateAirdrop",
          "outputs": [],
          "stateMutability": "nonpayable",
          "type": "function"
        },
        {
          "inputs": [],
          "name": "renounceOwnership",
          "outputs": [],
          "stateMutability": "nonpayable",
          "type": "function"
        },
        {
          "inputs": [],
          "name": "totalAirdropsConfigured",
          "outputs": [
            {
              "internalType": "uint256",
              "name": "",
              "type": "uint256"
            }
          ],
          "stateMutability": "view",
          "type": "function"
        },
        {
          "inputs": [],
          "name": "totalTokensDistributed",
          "outputs": [
            {
              "internalType": "uint256",
              "name": "",
              "type": "uint256"
            }
          ],
          "stateMutability": "view",
          "type": "function"
        },
        {
          "inputs": [
            {
              "internalType": "address",
              "name": "newOwner",
              "type": "address"
            }
          ],
          "name": "transferOwnership",
          "outputs": [],
          "stateMutability": "nonpayable",
          "type": "function"
        },
        {
          "inputs": [
            {
              "internalType": "address",
              "name": "newGovernanceContract",
              "type": "address"
            }
          ],
          "name": "updateGovernanceContract",
          "outputs": [],
          "stateMutability": "nonpayable",
          "type": "function"
        },
        {
          "inputs": [
            {
              "internalType": "address",
              "name": "token",
              "type": "address"
            },
            {
              "internalType": "bytes32",
              "name": "newMerkleRoot",
              "type": "bytes32"
            }
          ],
          "name": "updateMerkleRoot",
          "outputs": [],
          "stateMutability": "nonpayable",
          "type": "function"
        },
        {
          "inputs": [
            {
              "internalType": "address",
              "name": "token",
              "type": "address"
            },
            {
              "internalType": "address",
              "name": "user",
              "type": "address"
            },
            {
              "internalType": "uint256",
              "name": "amount",
              "type": "uint256"
            },
            {
              "internalType": "bytes32[]",
              "name": "proof",
              "type": "bytes32[]"
            }
          ],
          "name": "verifyProof",
          "outputs": [
            {
              "internalType": "bool",
              "name": "",
              "type": "bool"
            }
          ],
          "stateMutability": "view",
          "type": "function"
        },
        {
          "stateMutability": "payable",
          "type": "receive"
        }
      ],
      "evm": {
        "bytecode": {
          "linkReferences": {},
          "object": "6080346100ca57601f6114ba38819003918201601f19168301916001600160401b038311848410176100cf578084926020946040528339810103126100ca57516001600160a01b0390818116908190036100ca5733156100b15760005460018060a01b0319903382821617600055604051933391167f8be0079c531659141344cd1fd0a4f28419497f9722a3daafe3b4186f6b6457e0600080a36001805560025416176002556113d490816100e68239f35b604051631e4fbdf760e01b815260006004820152602490fd5b600080fd5b634e487b7160e01b600052604160045260246000fdfe60806040526004361015610018575b361561001657005b005b60003560e01c806305443a9e14610e465780633ba0c9f114610dc25780636b58222e14610d0d5780636faf60a014610cca578063715018a614610c715780637f2bfaaf14610bc757806389266f6014610b715780638c86f0a714610afb5780638da5cb5b14610ad25780638ed044e814610ab4578063a0e848c71461087b578063a30066f314610715578063a617e6531461078f578063b172b22214610766578063c253b5da14610715578063c2b9b139146106d0578063d8f163ab146106b2578063dc43b08b14610608578063dfe6b5d6146105e3578063e63ea40814610490578063e786818e14610422578063ea499b1d14610255578063ef37e7ca1461020b578063f2fde38b1461017d5763fa8fc6790361000e5734610178576020366003190112610178576101496111be565b610151611372565b6001600160a01b03166000908152600360205260409020600501805460ff19166001179055005b600080fd5b34610178576020366003190112610178576101966111be565b61019e611372565b6001600160a01b039081169081156101f257600054826bffffffffffffffffffffffff60a01b821617600055167f8be0079c531659141344cd1fd0a4f28419497f9722a3daafe3b4186f6b6457e0600080a3005b604051631e4fbdf760e01b815260006004820152602490fd5b34610178576040366003190112610178576102246111be565b61022c611372565b60018060a01b03166000526003602052600460406000200161025160243582546112d6565b9055005b346101785760803660031901126101785761026e6111be565b6024356044359161027d611372565b81156104105782156103fe576040516370a0823160e01b81523060048201526001600160a01b03919091169260209290918381602481885afa80156103f25783916000916103c1575b50106103af576102d8606435426112d6565b6040516102e48161122b565b828152600585820191858352604081016000815260608201428152608083019186835260a0840195600187528b60005260038b52604060002094518555516001850155516002840155516003830155516004820155019051151560ff80198354169116179055600654926000198414610399577f218c1985adbc80285f13e0714b5b9858ae78df0c64bf66412c79c136c22e6993946001608095016006556040519384528301524260408301526060820152a2005b634e487b7160e01b600052601160045260246000fd5b604051637904eeff60e01b8152600490fd5b809250858092503d83116103eb575b6103da818361125d565b8101031261017857829051866102c6565b503d6103d0565b6040513d6000823e3d90fd5b604051635943dd8160e11b8152600490fd5b60405163995a36f360e01b8152600490fd5b346101785760403660031901126101785761043b6111be565b60243590610447611372565b81156104105760018060a01b031690816000526003602052604060002081815491557fecb0922badb6f82ac577b65408cb2bed9735bbb58509f1aa9fb775bac567259a600080a4005b34610178576060366003190112610178576104a96111be565b6104b16111d4565b90604435916104be611372565b82156103fe576040516370a0823160e01b81523060048201526001600160a01b03928316926020918281602481885afa80156103f25786916000916105b2575b50106103af5760405163a9059cbb60e01b81526001600160a01b03841660048201526024810186905282816044816000895af19081156103f257600091610585575b5015610573577ff24ef89f38eadc1bde50701ad6e4d6d11a2dc24f7cf834a486991f3883328504926040519586521693a3005b6040516318639cb760e11b8152600490fd5b6105a59150833d85116105ab575b61059d818361125d565b8101906112e3565b86610540565b503d610593565b809250848092503d83116105dc575b6105cb818361125d565b8101031261017857859051876104fe565b503d6105c1565b3461017857600036600319011261017857604060065460075482519182526020820152f35b34610178576020366003190112610178576001600160a01b036106296111be565b166000526003602052602060a060406000206040516106478161122b565b815481526001820154848201526002820154604082015260038201549081606082015260ff600560048501549485608085015201541615159384910152826106a7575b508161069c575b506040519015158152f35b905042111582610691565b42101591508361068a565b34610178576000366003190112610178576020600754604051908152f35b34610178576020366003190112610178576106e96111be565b6106f1611372565b6001600160a01b03166000908152600360205260409020600501805460ff19169055005b346101785760403660031901126101785761072e6111be565b6107366111d4565b9060018060a01b038091166000526005602052604060002091166000526020526020604060002054604051908152f35b34610178576000366003190112610178576002546040516001600160a01b039091168152602090f35b3461017857604036600319011261017857602060a06107ac6111be565b6107b46111d4565b600180841b03809216908160005260038552604060002092604051926107d98461122b565b84548452600185015487850152600285015460408501526003850154936060810194855260ff6005600488015497608084019889520154161515968791015285610850575b50505082610844575b508161083857506040519015158152f35b90505142111582610691565b51421015915083610827565b90919294506000526004855260406000209116600052835260ff60406000205416159184808061081e565b34610178576060366003190112610178576108946111be565b60243560443567ffffffffffffffff8111610178576108b79036906004016111ea565b90926108c16112fb565b60018060a01b031692836000526020916003835260406000209160ff60058401541615610a9557600383015442108015610aa7575b610a95578560005260048452604060002033600052845260ff60406000205416610a83576040513360601b6001600160601b0319168582019081526014810187905261096c9391610967919061095981603484015b03601f19810183528261125d565b51902092855492369161127f565b61131e565b15610a7157600281019060016109838584546112d6565b910154106103af57836000526004825260406000203360005282526040600020600160ff1982541617905583600052600582526040600020336000528252826040600020556109d38382546112d6565b90556109e1826007546112d6565b60075560405163a9059cbb60e01b81523360048201526024810183905281816044816000885af19081156103f257600091610a54575b50156105735760405191825242908201527fd399c6e7fad358fc300beda3f056717c94a04c7233ce92683de6500ba509022e60403392a360018055005b610a6b9150823d84116105ab5761059d818361125d565b84610a17565b6040516340324b7b60e11b8152600490fd5b6040516389e930cd60e01b8152600490fd5b60405163084361ef60e41b8152600490fd5b50600483015442116108f6565b34610178576000366003190112610178576020600654604051908152f35b34610178576000366003190112610178576000546040516001600160a01b039091168152602090f35b34610178576020366003190112610178576001600160a01b03610b1c6111be565b16600052600360205260c06040600020805490600181015490600281015460038201549060ff6005600485015494015416936040519586526020860152604085015260608401526080830152151560a0820152f35b3461017857604036600319011261017857610b8a6111be565b610b926111d4565b9060018060a01b03809116600052600460205260406000209116600052602052602060ff604060002054166040519015158152f35b3461017857608036600319011261017857610be06111be565b610be86111d4565b906064359067ffffffffffffffff821161017857602092610967610c13610c679436906004016111ea565b60405160609490941b6001600160601b03191687850190815260443560148201529093610c43816034840161094b565b5190206001600160a01b03909416600090815260038752604090205492369161127f565b6040519015158152f35b3461017857600036600319011261017857610c8a611372565b600080546001600160a01b0319811682556001600160a01b03167f8be0079c531659141344cd1fd0a4f28419497f9722a3daafe3b4186f6b6457e08280a3005b3461017857602036600319011261017857610ce36111be565b610ceb611372565b600280546001600160a01b0319166001600160a01b0392909216919091179055005b34610178576020366003190112610178576001600160a01b03610d2e6111be565b1660005260036020526040600020604051610d488161122b565b81549081815260a060018401549384602084015260028101549283604082015260038201549081606082015260ff600560048501549485608085015201541615159384910152838603938685116103995760e096604051968752602087015260408601526060850152608084015260a083015260c0820152f35b3461017857602080600319360112610178576024816001600160a01b03610de76111be565b16604051928380926370a0823160e01b82523060048301525afa9081156103f257600091610e19575b50604051908152f35b90508181813d8311610e3f575b610e30818361125d565b81010312610178575182610e10565b503d610e26565b3461017857608036600319011261017857610e5f6111be565b60243567ffffffffffffffff811161017857610e7f9036906004016111ea565b909160443567ffffffffffffffff811161017857610ea19036906004016111ea565b939060643567ffffffffffffffff811161017857610ec39036906004016111ea565b90610ecc6112fb565b8686148015906111b4575b6103fe5760018060a01b038516600052600360205260406000209660ff60058901541615610a95576003880154421080156111a7575b610a95579594939291906000966000965b808810610f4b57610f428960028c01610f388282546112d6565b90556007546112d6565b60075560018055005b9091929394959697610f5e89838961121b565b35986001600160a01b038a168a0361017857610f7b81858961121b565b359186821015611191578160051b860135601e198736030181121561017857860167ffffffffffffffff81351161017857803560051b36036020820113610178578c9060018060a01b038c16600052600460205260406000208d60018060a01b031660005260205260ff604060002054166111845760405160608e901b6001600160601b031916602082019081526034820187905261103b9392916109679190611028816054810161094b565b519020925491369060208135910161127f565b1561117957826110ab9160018060a01b038c16600052600460205260406000208d60018060a01b03166000526020526040600020600160ff1982541617905560018060a01b038c16600052600560205260406000208d60018060a01b0316600052602052816040600020556112d6565b60405163a9059cbb60e01b81526001600160a01b038c16600482015260248101849052909a90926020848c816000816044810103926001600160a01b03165af180156103f25760019460009161115a575b50611112575b50505b0196959493929190610f1e565b6040519081524260208201527fd399c6e7fad358fc300beda3f056717c94a04c7233ce92683de6500ba509022e6040858060a01b038d1693868060a01b031692a38b80611102565b611173915060203d6020116105ab5761059d818361125d565b8e6110fc565b995060019150611105565b5050995060019150611105565b634e487b7160e01b600052603260045260246000fd5b5060048801544211610f0d565b5081861415610ed7565b600435906001600160a01b038216820361017857565b602435906001600160a01b038216820361017857565b9181601f840112156101785782359167ffffffffffffffff8311610178576020808501948460051b01011161017857565b91908110156111915760051b0190565b60c0810190811067ffffffffffffffff82111761124757604052565b634e487b7160e01b600052604160045260246000fd5b90601f8019910116810190811067ffffffffffffffff82111761124757604052565b90929167ffffffffffffffff8411611247578360051b60209260206040516112a98285018261125d565b809781520191810192831161017857905b8282106112c75750505050565b813581529083019083016112ba565b9190820180921161039957565b90816020910312610178575180151581036101785790565b60026001541461130c576002600155565b604051633ee5aeb560e01b8152600490fd5b9091906000915b815183101561136b576020808460051b8401015191600083821060001461135b575060005252600160406000205b920191611325565b9060409260019483525220611353565b9150501490565b6000546001600160a01b0316330361138657565b60405163118cdaa760e01b8152336004820152602490fdfea26469706673582212208450e464f7ee1d4586320e7b11c97db3758565392d0108ff25ee502b4e5381ce64736f6c63430008180033",
          "opcodes": "PUSH1 0x80 CALLVALUE PUSH2 0xCA JUMPI PUSH1 0x1F PUSH2 0x14BA CODESIZE DUP2 SWAP1 SUB SWAP2 DUP3 ADD PUSH1 0x1F NOT AND DUP4 ADD SWAP2 PUSH1 0x1 PUSH1 0x1 PUSH1 0x40 SHL SUB DUP4 GT DUP5 DUP5 LT OR PUSH2 0xCF JUMPI DUP1 DUP5 SWAP3 PUSH1 0x20 SWAP5 PUSH1 0x40 MSTORE DUP4 CODECOPY DUP2 ADD SUB SLT PUSH2 0xCA JUMPI MLOAD PUSH1 0x1 PUSH1 0x1 PUSH1 0xA0 SHL SUB SWAP1 DUP2 DUP2 AND SWAP1 DUP2 SWAP1 SUB PUSH2 0xCA JUMPI CALLER ISZERO PUSH2 0xB1 JUMPI PUSH1 0x0 SLOAD PUSH1 0x1 DUP1 PUSH1 0xA0 SHL SUB NOT SWAP1 CALLER DUP3 DUP3 AND OR PUSH1 0x0 SSTORE PUSH1 0x40 MLOAD SWAP4 CALLER SWAP2 AND PUSH32 0x8BE0079C531659141344CD1FD0A4F28419497F9722A3DAAFE3B4186F6B6457E0 PUSH1 0x0 DUP1 LOG3 PUSH1 0x1 DUP1 SSTORE PUSH1 0x2 SLOAD AND OR PUSH1 0x2 SSTORE PUSH2 0x13D4 SWAP1 DUP2 PUSH2 0xE6 DUP3 CODECOPY RETURN JUMPDEST PUSH1 0x40 MLOAD PUSH4 0x1E4FBDF7 PUSH1 0xE0 SHL DUP2 MSTORE PUSH1 0x0 PUSH1 0x4 DUP3 ADD MSTORE PUSH1 0x24 SWAP1 REVERT JUMPDEST PUSH1 0x0 DUP1 REVERT JUMPDEST PUSH4 0x4E487B71 PUSH1 0xE0 SHL PUSH1 0x0 MSTORE PUSH1 0x41 PUSH1 0x4 MSTORE PUSH1 0x24 PUSH1 0x0 REVERT INVALID PUSH1 0x80 PUSH1 0x40 MSTORE PUSH1 0x4 CALLDATASIZE LT ISZERO PUSH2 0x18 JUMPI JUMPDEST CALLDATASIZE ISZERO PUSH2 0x16 JUMPI STOP JUMPDEST STOP JUMPDEST PUSH1 0x0 CALLDATALOAD PUSH1 0xE0 SHR DUP1 PUSH4 0x5443A9E EQ PUSH2 0xE46 JUMPI DUP1 PUSH4 0x3BA0C9F1 EQ PUSH2 0xDC2 JUMPI DUP1 PUSH4 0x6B58222E EQ PUSH2 0xD0D JUMPI DUP1 PUSH4 0x6FAF60A0 EQ PUSH2 0xCCA JUMPI DUP1 PUSH4 0x715018A6 EQ PUSH2 0xC71 JUMPI DUP1 PUSH4 0x7F2BFAAF EQ PUSH2 0xBC7 JUMPI DUP1 PUSH4 0x89266F60 EQ PUSH2 0xB71 JUMPI DUP1 PUSH4 0x8C86F0A7 EQ PUSH2 0xAFB JUMPI DUP1 PUSH4 0x8DA5CB5B EQ PUSH2 0xAD2 JUMPI DUP1 PUSH4 0x8ED044E8 EQ PUSH2 0xAB4 JUMPI DUP1 PUSH4 0xA0E848C7 EQ PUSH2 0x87B JUMPI DUP1 PUSH4 0xA30066F3 EQ PUSH2 0x715 JUMPI DUP1 PUSH4 0xA617E653 EQ PUSH2 0x78F JUMPI DUP1 PUSH4 0xB172B222 EQ PUSH2 0x766 JUMPI DUP1 PUSH4 0xC253B5DA EQ PUSH2 0x715 JUMPI DUP1 PUSH4 0xC2B9B139 EQ PUSH2 0x6D0 JUMPI DUP1 PUSH4 0xD8F163AB EQ PUSH2 0x6B2 JUMPI DUP1 PUSH4 0xDC43B08B EQ PUSH2 0x608 JUMPI DUP1 PUSH4 0xDFE6B5D6 EQ PUSH2 0x5E3 JUMPI DUP1 PUSH4 0xE63EA408 EQ PUSH2 0x490 JUMPI DUP1 PUSH4 0xE786818E EQ PUSH2 0x422 JUMPI DUP1 PUSH4 0xEA499B1D EQ PUSH2 0x255 JUMPI DUP1 PUSH4 0xEF37E7CA EQ PUSH2 0x20B JUMPI DUP1 PUSH4 0xF2FDE38B EQ PUSH2 0x17D JUMPI PUSH4 0xFA8FC679 SUB PUSH2 0xE JUMPI CALLVALUE PUSH2 0x178 JUMPI PUSH1 0x20 CALLDATASIZE PUSH1 0x3 NOT ADD SLT PUSH2 0x178 JUMPI PUSH2 0x149 PUSH2 0x11BE JUMP JUMPDEST PUSH2 0x151 PUSH2 0x1372 JUMP JUMPDEST PUSH1 0x1 PUSH1 0x1 PUSH1 0xA0 SHL SUB AND PUSH1 0x0 SWAP1 DUP2 MSTORE PUSH1 0x3 PUSH1 0x20 MSTORE PUSH1 0x40 SWAP1 KECCAK256 PUSH1 0x5 ADD DUP1 SLOAD PUSH1 0xFF NOT AND PUSH1 0x1 OR SWAP1 SSTORE STOP JUMPDEST PUSH1 0x0 DUP1 REVERT JUMPDEST CALLVALUE PUSH2 0x178 JUMPI PUSH1 0x20 CALLDATASIZE PUSH1 0x3 NOT ADD SLT PUSH2 0x178 JUMPI PUSH2 0x196 PUSH2 0x11BE JUMP JUMPDEST PUSH2 0x19E PUSH2 0x1372 JUMP JUMPDEST PUSH1 0x1 PUSH1 0x1 PUSH1 0xA0 SHL SUB SWAP1 DUP2 AND SWAP1 DUP2 ISZERO PUSH2 0x1F2 JUMPI PUSH1 0x0 SLOAD DUP3 PUSH12 0xFFFFFFFFFFFFFFFFFFFFFFFF PUSH1 0xA0 SHL DUP3 AND OR PUSH1 0x0 SSTORE AND PUSH32 0x8BE0079C531659141344CD1FD0A4F28419497F9722A3DAAFE3B4186F6B6457E0 PUSH1 0x0 DUP1 LOG3 STOP JUMPDEST PUSH1 0x40 MLOAD PUSH4 0x1E4FBDF7 PUSH1 0xE0 SHL DUP2 MSTORE PUSH1 0x0 PUSH1 0x4 DUP3 ADD MSTORE PUSH1 0x24 SWAP1 REVERT JUMPDEST CALLVALUE PUSH2 0x178 JUMPI PUSH1 0x40 CALLDATASIZE PUSH1 0x3 NOT ADD SLT PUSH2 0x178 JUMPI PUSH2 0x224 PUSH2 0x11BE JUMP JUMPDEST PUSH2 0x22C PUSH2 0x1372 JUMP JUMPDEST PUSH1 0x1 DUP1 PUSH1 0xA0 SHL SUB AND PUSH1 0x0 MSTORE PUSH1 0x3 PUSH1 0x20 MSTORE PUSH1 0x4 PUSH1 0x40 PUSH1 0x0 KECCAK256 ADD PUSH2 0x251 PUSH1 0x24 CALLDATALOAD DUP3 SLOAD PUSH2 0x12D6 JUMP JUMPDEST SWAP1 SSTORE STOP JUMPDEST CALLVALUE PUSH2 0x178 JUMPI PUSH1 0x80 CALLDATASIZE PUSH1 0x3 NOT ADD SLT PUSH2 0x178 JUMPI PUSH2 0x26E PUSH2 0x11BE JUMP JUMPDEST PUSH1 0x24 CALLDATALOAD PUSH1 0x44 CALLDATALOAD SWAP2 PUSH2 0x27D PUSH2 0x1372 JUMP JUMPDEST DUP2 ISZERO PUSH2 0x410 JUMPI DUP3 ISZERO PUSH2 0x3FE JUMPI PUSH1 0x40 MLOAD PUSH4 0x70A08231 PUSH1 0xE0 SHL DUP2 MSTORE ADDRESS PUSH1 0x4 DUP3 ADD MSTORE PUSH1 0x1 PUSH1 0x1 PUSH1 0xA0 SHL SUB SWAP2 SWAP1 SWAP2 AND SWAP3 PUSH1 0x20 SWAP3 SWAP1 SWAP2 DUP4 DUP2 PUSH1 0x24 DUP2 DUP9 GAS STATICCALL DUP1 ISZERO PUSH2 0x3F2 JUMPI DUP4 SWAP2 PUSH1 0x0 SWAP2 PUSH2 0x3C1 JUMPI JUMPDEST POP LT PUSH2 0x3AF JUMPI PUSH2 0x2D8 PUSH1 0x64 CALLDATALOAD TIMESTAMP PUSH2 0x12D6 JUMP JUMPDEST PUSH1 0x40 MLOAD PUSH2 0x2E4 DUP2 PUSH2 0x122B JUMP JUMPDEST DUP3 DUP2 MSTORE PUSH1 0x5 DUP6 DUP3 ADD SWAP2 DUP6 DUP4 MSTORE PUSH1 0x40 DUP2 ADD PUSH1 0x0 DUP2 MSTORE PUSH1 0x60 DUP3 ADD TIMESTAMP DUP2 MSTORE PUSH1 0x80 DUP4 ADD SWAP2 DUP7 DUP4 MSTORE PUSH1 0xA0 DUP5 ADD SWAP6 PUSH1 0x1 DUP8 MSTORE DUP12 PUSH1 0x0 MSTORE PUSH1 0x3 DUP12 MSTORE PUSH1 0x40 PUSH1 0x0 KECCAK256 SWAP5 MLOAD DUP6 SSTORE MLOAD PUSH1 0x1 DUP6 ADD SSTORE MLOAD PUSH1 0x2 DUP5 ADD SSTORE MLOAD PUSH1 0x3 DUP4 ADD SSTORE MLOAD PUSH1 0x4 DUP3 ADD SSTORE ADD SWAP1 MLOAD ISZERO ISZERO PUSH1 0xFF DUP1 NOT DUP4 SLOAD AND SWAP2 AND OR SWAP1 SSTORE PUSH1 0x6 SLOAD SWAP3 PUSH1 0x0 NOT DUP5 EQ PUSH2 0x399 JUMPI PUSH32 0x218C1985ADBC80285F13E0714B5B9858AE78DF0C64BF66412C79C136C22E6993 SWAP5 PUSH1 0x1 PUSH1 0x80 SWAP6 ADD PUSH1 0x6 SSTORE PUSH1 0x40 MLOAD SWAP4 DUP5 MSTORE DUP4 ADD MSTORE TIMESTAMP PUSH1 0x40 DUP4 ADD MSTORE PUSH1 0x60 DUP3 ADD MSTORE LOG2 STOP JUMPDEST PUSH4 0x4E487B71 PUSH1 0xE0 SHL PUSH1 0x0 MSTORE PUSH1 0x11 PUSH1 0x4 MSTORE PUSH1 0x24 PUSH1 0x0 REVERT JUMPDEST PUSH1 0x40 MLOAD PUSH4 0x7904EEFF PUSH1 0xE0 SHL DUP2 MSTORE PUSH1 0x4 SWAP1 REVERT JUMPDEST DUP1 SWAP3 POP DUP6 DUP1 SWAP3 POP RETURNDATASIZE DUP4 GT PUSH2 0x3EB JUMPI JUMPDEST PUSH2 0x3DA DUP2 DUP4 PUSH2 0x125D JUMP JUMPDEST DUP2 ADD SUB SLT PUSH2 0x178 JUMPI DUP3 SWAP1 MLOAD DUP7 PUSH2 0x2C6 JUMP JUMPDEST POP RETURNDATASIZE PUSH2 0x3D0 JUMP JUMPDEST PUSH1 0x40 MLOAD RETURNDATASIZE PUSH1 0x0 DUP3 RETURNDATACOPY RETURNDATASIZE SWAP1 REVERT JUMPDEST PUSH1 0x40 MLOAD PUSH4 0x5943DD81 PUSH1 0xE1 SHL DUP2 MSTORE PUSH1 0x4 SWAP1 REVERT JUMPDEST PUSH1 0x40 MLOAD PUSH4 0x995A36F3 PUSH1 0xE0 SHL DUP2 MSTORE PUSH1 0x4 SWAP1 REVERT JUMPDEST CALLVALUE PUSH2 0x178 JUMPI PUSH1 0x40 CALLDATASIZE PUSH1 0x3 NOT ADD SLT PUSH2 0x178 JUMPI PUSH2 0x43B PUSH2 0x11BE JUMP JUMPDEST PUSH1 0x24 CALLDATALOAD SWAP1 PUSH2 0x447 PUSH2 0x1372 JUMP JUMPDEST DUP2 ISZERO PUSH2 0x410 JUMPI PUSH1 0x1 DUP1 PUSH1 0xA0 SHL SUB AND SWAP1 DUP2 PUSH1 0x0 MSTORE PUSH1 0x3 PUSH1 0x20 MSTORE PUSH1 0x40 PUSH1 0x0 KECCAK256 DUP2 DUP2 SLOAD SWAP2 SSTORE PUSH32 0xECB0922BADB6F82AC577B65408CB2BED9735BBB58509F1AA9FB775BAC567259A PUSH1 0x0 DUP1 LOG4 STOP JUMPDEST CALLVALUE PUSH2 0x178 JUMPI PUSH1 0x60 CALLDATASIZE PUSH1 0x3 NOT ADD SLT PUSH2 0x178 JUMPI PUSH2 0x4A9 PUSH2 0x11BE JUMP JUMPDEST PUSH2 0x4B1 PUSH2 0x11D4 JUMP JUMPDEST SWAP1 PUSH1 0x44 CALLDATALOAD SWAP2 PUSH2 0x4BE PUSH2 0x1372 JUMP JUMPDEST DUP3 ISZERO PUSH2 0x3FE JUMPI PUSH1 0x40 MLOAD PUSH4 0x70A08231 PUSH1 0xE0 SHL DUP2 MSTORE ADDRESS PUSH1 0x4 DUP3 ADD MSTORE PUSH1 0x1 PUSH1 0x1 PUSH1 0xA0 SHL SUB SWAP3 DUP4 AND SWAP3 PUSH1 0x20 SWAP2 DUP3 DUP2 PUSH1 0x24 DUP2 DUP9 GAS STATICCALL DUP1 ISZERO PUSH2 0x3F2 JUMPI DUP7 SWAP2 PUSH1 0x0 SWAP2 PUSH2 0x5B2 JUMPI JUMPDEST POP LT PUSH2 0x3AF JUMPI PUSH1 0x40 MLOAD PUSH4 0xA9059CBB PUSH1 0xE0 SHL DUP2 MSTORE PUSH1 0x1 PUSH1 0x1 PUSH1 0xA0 SHL SUB DUP5 AND PUSH1 0x4 DUP3 ADD MSTORE PUSH1 0x24 DUP2 ADD DUP7 SWAP1 MSTORE DUP3 DUP2 PUSH1 0x44 DUP2 PUSH1 0x0 DUP10 GAS CALL SWAP1 DUP2 ISZERO PUSH2 0x3F2 JUMPI PUSH1 0x0 SWAP2 PUSH2 0x585 JUMPI JUMPDEST POP ISZERO PUSH2 0x573 JUMPI PUSH32 0xF24EF89F38EADC1BDE50701AD6E4D6D11A2DC24F7CF834A486991F3883328504 SWAP3 PUSH1 0x40 MLOAD SWAP6 DUP7 MSTORE AND SWAP4 LOG3 STOP JUMPDEST PUSH1 0x40 MLOAD PUSH4 0x18639CB7 PUSH1 0xE1 SHL DUP2 MSTORE PUSH1 0x4 SWAP1 REVERT JUMPDEST PUSH2 0x5A5 SWAP2 POP DUP4 RETURNDATASIZE DUP6 GT PUSH2 0x5AB JUMPI JUMPDEST PUSH2 0x59D DUP2 DUP4 PUSH2 0x125D JUMP JUMPDEST DUP2 ADD SWAP1 PUSH2 0x12E3 JUMP JUMPDEST DUP7 PUSH2 0x540 JUMP JUMPDEST POP RETURNDATASIZE PUSH2 0x593 JUMP JUMPDEST DUP1 SWAP3 POP DUP5 DUP1 SWAP3 POP RETURNDATASIZE DUP4 GT PUSH2 0x5DC JUMPI JUMPDEST PUSH2 0x5CB DUP2 DUP4 PUSH2 0x125D JUMP JUMPDEST DUP2 ADD SUB SLT PUSH2 0x178 JUMPI DUP6 SWAP1 MLOAD DUP8 PUSH2 0x4FE JUMP JUMPDEST POP RETURNDATASIZE PUSH2 0x5C1 JUMP JUMPDEST CALLVALUE PUSH2 0x178 JUMPI PUSH1 0x0 CALLDATASIZE PUSH1 0x3 NOT ADD SLT PUSH2 0x178 JUMPI PUSH1 0x40 PUSH1 0x6 SLOAD PUSH1 0x7 SLOAD DUP3 MLOAD SWAP2 DUP3 MSTORE PUSH1 0x20 DUP3 ADD MSTORE RETURN JUMPDEST CALLVALUE PUSH2 0x178 JUMPI PUSH1 0x20 CALLDATASIZE PUSH1 0x3 NOT ADD SLT PUSH2 0x178 JUMPI PUSH1 0x1 PUSH1 0x1 PUSH1 0xA0 SHL SUB PUSH2 0x629 PUSH2 0x11BE JUMP JUMPDEST AND PUSH1 0x0 MSTORE PUSH1 0x3 PUSH1 0x20 MSTORE PUSH1 0x20 PUSH1 0xA0 PUSH1 0x40 PUSH1 0x0 KECCAK256 PUSH1 0x40 MLOAD PUSH2 0x647 DUP2 PUSH2 0x122B JUMP JUMPDEST DUP2 SLOAD DUP2 MSTORE PUSH1 0x1 DUP3 ADD SLOAD DUP5 DUP3 ADD MSTORE PUSH1 0x2 DUP3 ADD SLOAD PUSH1 0x40 DUP3 ADD MSTORE PUSH1 0x3 DUP3 ADD SLOAD SWAP1 DUP2 PUSH1 0x60 DUP3 ADD MSTORE PUSH1 0xFF PUSH1 0x5 PUSH1 0x4 DUP6 ADD SLOAD SWAP5 DUP6 PUSH1 0x80 DUP6 ADD MSTORE ADD SLOAD AND ISZERO ISZERO SWAP4 DUP5 SWAP2 ADD MSTORE DUP3 PUSH2 0x6A7 JUMPI JUMPDEST POP DUP2 PUSH2 0x69C JUMPI JUMPDEST POP PUSH1 0x40 MLOAD SWAP1 ISZERO ISZERO DUP2 MSTORE RETURN JUMPDEST SWAP1 POP TIMESTAMP GT ISZERO DUP3 PUSH2 0x691 JUMP JUMPDEST TIMESTAMP LT ISZERO SWAP2 POP DUP4 PUSH2 0x68A JUMP JUMPDEST CALLVALUE PUSH2 0x178 JUMPI PUSH1 0x0 CALLDATASIZE PUSH1 0x3 NOT ADD SLT PUSH2 0x178 JUMPI PUSH1 0x20 PUSH1 0x7 SLOAD PUSH1 0x40 MLOAD SWAP1 DUP2 MSTORE RETURN JUMPDEST CALLVALUE PUSH2 0x178 JUMPI PUSH1 0x20 CALLDATASIZE PUSH1 0x3 NOT ADD SLT PUSH2 0x178 JUMPI PUSH2 0x6E9 PUSH2 0x11BE JUMP JUMPDEST PUSH2 0x6F1 PUSH2 0x1372 JUMP JUMPDEST PUSH1 0x1 PUSH1 0x1 PUSH1 0xA0 SHL SUB AND PUSH1 0x0 SWAP1 DUP2 MSTORE PUSH1 0x3 PUSH1 0x20 MSTORE PUSH1 0x40 SWAP1 KECCAK256 PUSH1 0x5 ADD DUP1 SLOAD PUSH1 0xFF NOT AND SWAP1 SSTORE STOP JUMPDEST CALLVALUE PUSH2 0x178 JUMPI PUSH1 0x40 CALLDATASIZE PUSH1 0x3 NOT ADD SLT PUSH2 0x178 JUMPI PUSH2 0x72E PUSH2 0x11BE JUMP JUMPDEST PUSH2 0x736 PUSH2 0x11D4 JUMP JUMPDEST SWAP1 PUSH1 0x1 DUP1 PUSH1 0xA0 SHL SUB DUP1 SWAP2 AND PUSH1 0x0 MSTORE PUSH1 0x5 PUSH1 0x20 MSTORE PUSH1 0x40 PUSH1 0x0 KECCAK256 SWAP2 AND PUSH1 0x0 MSTORE PUSH1 0x20 MSTORE PUSH1 0x20 PUSH1 0x40 PUSH1 0x0 KECCAK256 SLOAD PUSH1 0x40 MLOAD SWAP1 DUP2 MSTORE RETURN JUMPDEST CALLVALUE PUSH2 0x178 JUMPI PUSH1 0x0 CALLDATASIZE PUSH1 0x3 NOT ADD SLT PUSH2 0x178 JUMPI PUSH1 0x2 SLOAD PUSH1 0x40 MLOAD PUSH1 0x1 PUSH1 0x1 PUSH1 0xA0 SHL SUB SWAP1 SWAP2 AND DUP2 MSTORE PUSH1 0x20 SWAP1 RETURN JUMPDEST CALLVALUE PUSH2 0x178 JUMPI PUSH1 0x40 CALLDATASIZE PUSH1 0x3 NOT ADD SLT PUSH2 0x178 JUMPI PUSH1 0x20 PUSH1 0xA0 PUSH2 0x7AC PUSH2 0x11BE JUMP JUMPDEST PUSH2 0x7B4 PUSH2 0x11D4 JUMP JUMPDEST PUSH1 0x1 DUP1 DUP5 SHL SUB DUP1 SWAP3 AND SWAP1 DUP2 PUSH1 0x0 MSTORE PUSH1 0x3 DUP6 MSTORE PUSH1 0x40 PUSH1 0x0 KECCAK256 SWAP3 PUSH1 0x40 MLOAD SWAP3 PUSH2 0x7D9 DUP5 PUSH2 0x122B JUMP JUMPDEST DUP5 SLOAD DUP5 MSTORE PUSH1 0x1 DUP6 ADD SLOAD DUP8 DUP6 ADD MSTORE PUSH1 0x2 DUP6 ADD SLOAD PUSH1 0x40 DUP6 ADD MSTORE PUSH1 0x3 DUP6 ADD SLOAD SWAP4 PUSH1 0x60 DUP2 ADD SWAP5 DUP6 MSTORE PUSH1 0xFF PUSH1 0x5 PUSH1 0x4 DUP9 ADD SLOAD SWAP8 PUSH1 0x80 DUP5 ADD SWAP9 DUP10 MSTORE ADD SLOAD AND ISZERO ISZERO SWAP7 DUP8 SWAP2 ADD MSTORE DUP6 PUSH2 0x850 JUMPI JUMPDEST POP POP POP DUP3 PUSH2 0x844 JUMPI JUMPDEST POP DUP2 PUSH2 0x838 JUMPI POP PUSH1 0x40 MLOAD SWAP1 ISZERO ISZERO DUP2 MSTORE RETURN JUMPDEST SWAP1 POP MLOAD TIMESTAMP GT ISZERO DUP3 PUSH2 0x691 JUMP JUMPDEST MLOAD TIMESTAMP LT ISZERO SWAP2 POP DUP4 PUSH2 0x827 JUMP JUMPDEST SWAP1 SWAP2 SWAP3 SWAP5 POP PUSH1 0x0 MSTORE PUSH1 0x4 DUP6 MSTORE PUSH1 0x40 PUSH1 0x0 KECCAK256 SWAP2 AND PUSH1 0x0 MSTORE DUP4 MSTORE PUSH1 0xFF PUSH1 0x40 PUSH1 0x0 KECCAK256 SLOAD AND ISZERO SWAP2 DUP5 DUP1 DUP1 PUSH2 0x81E JUMP JUMPDEST CALLVALUE PUSH2 0x178 JUMPI PUSH1 0x60 CALLDATASIZE PUSH1 0x3 NOT ADD SLT PUSH2 0x178 JUMPI PUSH2 0x894 PUSH2 0x11BE JUMP JUMPDEST PUSH1 0x24 CALLDATALOAD PUSH1 0x44 CALLDATALOAD PUSH8 0xFFFFFFFFFFFFFFFF DUP2 GT PUSH2 0x178 JUMPI PUSH2 0x8B7 SWAP1 CALLDATASIZE SWAP1 PUSH1 0x4 ADD PUSH2 0x11EA JUMP JUMPDEST SWAP1 SWAP3 PUSH2 0x8C1 PUSH2 0x12FB JUMP JUMPDEST PUSH1 0x1 DUP1 PUSH1 0xA0 SHL SUB AND SWAP3 DUP4 PUSH1 0x0 MSTORE PUSH1 0x20 SWAP2 PUSH1 0x3 DUP4 MSTORE PUSH1 0x40 PUSH1 0x0 KECCAK256 SWAP2 PUSH1 0xFF PUSH1 0x5 DUP5 ADD SLOAD AND ISZERO PUSH2 0xA95 JUMPI PUSH1 0x3 DUP4 ADD SLOAD TIMESTAMP LT DUP1 ISZERO PUSH2 0xAA7 JUMPI JUMPDEST PUSH2 0xA95 JUMPI DUP6 PUSH1 0x0 MSTORE PUSH1 0x4 DUP5 MSTORE PUSH1 0x40 PUSH1 0x0 KECCAK256 CALLER PUSH1 0x0 MSTORE DUP5 MSTORE PUSH1 0xFF PUSH1 0x40 PUSH1 0x0 KECCAK256 SLOAD AND PUSH2 0xA83 JUMPI PUSH1 0x40 MLOAD CALLER PUSH1 0x60 SHL PUSH1 0x1 PUSH1 0x1 PUSH1 0x60 SHL SUB NOT AND DUP6 DUP3 ADD SWAP1 DUP2 MSTORE PUSH1 0x14 DUP2 ADD DUP8 SWAP1 MSTORE PUSH2 0x96C SWAP4 SWAP2 PUSH2 0x967 SWAP2 SWAP1 PUSH2 0x959 DUP2 PUSH1 0x34 DUP5 ADD JUMPDEST SUB PUSH1 0x1F NOT DUP2 ADD DUP4 MSTORE DUP3 PUSH2 0x125D JUMP JUMPDEST MLOAD SWAP1 KECCAK256 SWAP3 DUP6 SLOAD SWAP3 CALLDATASIZE SWAP2 PUSH2 0x127F JUMP JUMPDEST PUSH2 0x131E JUMP JUMPDEST ISZERO PUSH2 0xA71 JUMPI PUSH1 0x2 DUP2 ADD SWAP1 PUSH1 0x1 PUSH2 0x983 DUP6 DUP5 SLOAD PUSH2 0x12D6 JUMP JUMPDEST SWAP2 ADD SLOAD LT PUSH2 0x3AF JUMPI DUP4 PUSH1 0x0 MSTORE PUSH1 0x4 DUP3 MSTORE PUSH1 0x40 PUSH1 0x0 KECCAK256 CALLER PUSH1 0x0 MSTORE DUP3 MSTORE PUSH1 0x40 PUSH1 0x0 KECCAK256 PUSH1 0x1 PUSH1 0xFF NOT DUP3 SLOAD AND OR SWAP1 SSTORE DUP4 PUSH1 0x0 MSTORE PUSH1 0x5 DUP3 MSTORE PUSH1 0x40 PUSH1 0x0 KECCAK256 CALLER PUSH1 0x0 MSTORE DUP3 MSTORE DUP3 PUSH1 0x40 PUSH1 0x0 KECCAK256 SSTORE PUSH2 0x9D3 DUP4 DUP3 SLOAD PUSH2 0x12D6 JUMP JUMPDEST SWAP1 SSTORE PUSH2 0x9E1 DUP3 PUSH1 0x7 SLOAD PUSH2 0x12D6 JUMP JUMPDEST PUSH1 0x7 SSTORE PUSH1 0x40 MLOAD PUSH4 0xA9059CBB PUSH1 0xE0 SHL DUP2 MSTORE CALLER PUSH1 0x4 DUP3 ADD MSTORE PUSH1 0x24 DUP2 ADD DUP4 SWAP1 MSTORE DUP2 DUP2 PUSH1 0x44 DUP2 PUSH1 0x0 DUP9 GAS CALL SWAP1 DUP2 ISZERO PUSH2 0x3F2 JUMPI PUSH1 0x0 SWAP2 PUSH2 0xA54 JUMPI JUMPDEST POP ISZERO PUSH2 0x573 JUMPI PUSH1 0x40 MLOAD SWAP2 DUP3 MSTORE TIMESTAMP SWAP1 DUP3 ADD MSTORE PUSH32 0xD399C6E7FAD358FC300BEDA3F056717C94A04C7233CE92683DE6500BA509022E PUSH1 0x40 CALLER SWAP3 LOG3 PUSH1 0x1 DUP1 SSTORE STOP JUMPDEST PUSH2 0xA6B SWAP2 POP DUP3 RETURNDATASIZE DUP5 GT PUSH2 0x5AB JUMPI PUSH2 0x59D DUP2 DUP4 PUSH2 0x125D JUMP JUMPDEST DUP5 PUSH2 0xA17 JUMP JUMPDEST PUSH1 0x40 MLOAD PUSH4 0x40324B7B PUSH1 0xE1 SHL DUP2 MSTORE PUSH1 0x4 SWAP1 REVERT JUMPDEST PUSH1 0x40 MLOAD PUSH4 0x89E930CD PUSH1 0xE0 SHL DUP2 MSTORE PUSH1 0x4 SWAP1 REVERT JUMPDEST PUSH1 0x40 MLOAD PUSH4 0x84361EF PUSH1 0xE4 SHL DUP2 MSTORE PUSH1 0x4 SWAP1 REVERT JUMPDEST POP PUSH1 0x4 DUP4 ADD SLOAD TIMESTAMP GT PUSH2 0x8F6 JUMP JUMPDEST CALLVALUE PUSH2 0x178 JUMPI PUSH1 0x0 CALLDATASIZE PUSH1 0x3 NOT ADD SLT PUSH2 0x178 JUMPI PUSH1 0x20 PUSH1 0x6 SLOAD PUSH1 0x40 MLOAD SWAP1 DUP2 MSTORE RETURN JUMPDEST CALLVALUE PUSH2 0x178 JUMPI PUSH1 0x0 CALLDATASIZE PUSH1 0x3 NOT ADD SLT PUSH2 0x178 JUMPI PUSH1 0x0 SLOAD PUSH1 0x40 MLOAD PUSH1 0x1 PUSH1 0x1 PUSH1 0xA0 SHL SUB SWAP1 SWAP2 AND DUP2 MSTORE PUSH1 0x20 SWAP1 RETURN JUMPDEST CALLVALUE PUSH2 0x178 JUMPI PUSH1 0x20 CALLDATASIZE PUSH1 0x3 NOT ADD SLT PUSH2 0x178 JUMPI PUSH1 0x1 PUSH1 0x1 PUSH1 0xA0 SHL SUB PUSH2 0xB1C PUSH2 0x11BE JUMP JUMPDEST AND PUSH1 0x0 MSTORE PUSH1 0x3 PUSH1 0x20 MSTORE PUSH1 0xC0 PUSH1 0x40 PUSH1 0x0 KECCAK256 DUP1 SLOAD SWAP1 PUSH1 0x1 DUP2 ADD SLOAD SWAP1 PUSH1 0x2 DUP2 ADD SLOAD PUSH1 0x3 DUP3 ADD SLOAD SWAP1 PUSH1 0xFF PUSH1 0x5 PUSH1 0x4 DUP6 ADD SLOAD SWAP5 ADD SLOAD AND SWAP4 PUSH1 0x40 MLOAD SWAP6 DUP7 MSTORE PUSH1 0x20 DUP7 ADD MSTORE PUSH1 0x40 DUP6 ADD MSTORE PUSH1 0x60 DUP5 ADD MSTORE PUSH1 0x80 DUP4 ADD MSTORE ISZERO ISZERO PUSH1 0xA0 DUP3 ADD MSTORE RETURN JUMPDEST CALLVALUE PUSH2 0x178 JUMPI PUSH1 0x40 CALLDATASIZE PUSH1 0x3 NOT ADD SLT PUSH2 0x178 JUMPI PUSH2 0xB8A PUSH2 0x11BE JUMP JUMPDEST PUSH2 0xB92 PUSH2 0x11D4 JUMP JUMPDEST SWAP1 PUSH1 0x1 DUP1 PUSH1 0xA0 SHL SUB DUP1 SWAP2 AND PUSH1 0x0 MSTORE PUSH1 0x4 PUSH1 0x20 MSTORE PUSH1 0x40 PUSH1 0x0 KECCAK256 SWAP2 AND PUSH1 0x0 MSTORE PUSH1 0x20 MSTORE PUSH1 0x20 PUSH1 0xFF PUSH1 0x40 PUSH1 0x0 KECCAK256 SLOAD AND PUSH1 0x40 MLOAD SWAP1 ISZERO ISZERO DUP2 MSTORE RETURN JUMPDEST CALLVALUE PUSH2 0x178 JUMPI PUSH1 0x80 CALLDATASIZE PUSH1 0x3 NOT ADD SLT PUSH2 0x178 JUMPI PUSH2 0xBE0 PUSH2 0x11BE JUMP JUMPDEST PUSH2 0xBE8 PUSH2 0x11D4 JUMP JUMPDEST SWAP1 PUSH1 0x64 CALLDATALOAD SWAP1 PUSH8 0xFFFFFFFFFFFFFFFF DUP3 GT PUSH2 0x178 JUMPI PUSH1 0x20 SWAP3 PUSH2 0x967 PUSH2 0xC13 PUSH2 0xC67 SWAP5 CALLDATASIZE SWAP1 PUSH1 0x4 ADD PUSH2 0x11EA JUMP JUMPDEST PUSH1 0x40 MLOAD PUSH1 0x60 SWAP5 SWAP1 SWAP5 SHL PUSH1 0x1 PUSH1 0x1 PUSH1 0x60 SHL SUB NOT AND DUP8 DUP6 ADD SWAP1 DUP2 MSTORE PUSH1 0x44 CALLDATALOAD PUSH1 0x14 DUP3 ADD MSTORE SWAP1 SWAP4 PUSH2 0xC43 DUP2 PUSH1 0x34 DUP5 ADD PUSH2 0x94B JUMP JUMPDEST MLOAD SWAP1 KECCAK256 PUSH1 0x1 PUSH1 0x1 PUSH1 0xA0 SHL SUB SWAP1 SWAP5 AND PUSH1 0x0 SWAP1 DUP2 MSTORE PUSH1 0x3 DUP8 MSTORE PUSH1 0x40 SWAP1 KECCAK256 SLOAD SWAP3 CALLDATASIZE SWAP2 PUSH2 0x127F JUMP JUMPDEST PUSH1 0x40 MLOAD SWAP1 ISZERO ISZERO DUP2 MSTORE RETURN JUMPDEST CALLVALUE PUSH2 0x178 JUMPI PUSH1 0x0 CALLDATASIZE PUSH1 0x3 NOT ADD SLT PUSH2 0x178 JUMPI PUSH2 0xC8A PUSH2 0x1372 JUMP JUMPDEST PUSH1 0x0 DUP1 SLOAD PUSH1 0x1 PUSH1 0x1 PUSH1 0xA0 SHL SUB NOT DUP2 AND DUP3 SSTORE PUSH1 0x1 PUSH1 0x1 PUSH1 0xA0 SHL SUB AND PUSH32 0x8BE0079C531659141344CD1FD0A4F28419497F9722A3DAAFE3B4186F6B6457E0 DUP3 DUP1 LOG3 STOP JUMPDEST CALLVALUE PUSH2 0x178 JUMPI PUSH1 0x20 CALLDATASIZE PUSH1 0x3 NOT ADD SLT PUSH2 0x178 JUMPI PUSH2 0xCE3 PUSH2 0x11BE JUMP JUMPDEST PUSH2 0xCEB PUSH2 0x1372 JUMP JUMPDEST PUSH1 0x2 DUP1 SLOAD PUSH1 0x1 PUSH1 0x1 PUSH1 0xA0 SHL SUB NOT AND PUSH1 0x1 PUSH1 0x1 PUSH1 0xA0 SHL SUB SWAP3 SWAP1 SWAP3 AND SWAP2 SWAP1 SWAP2 OR SWAP1 SSTORE STOP JUMPDEST CALLVALUE PUSH2 0x178 JUMPI PUSH1 0x20 CALLDATASIZE PUSH1 0x3 NOT ADD SLT PUSH2 0x178 JUMPI PUSH1 0x1 PUSH1 0x1 PUSH1 0xA0 SHL SUB PUSH2 0xD2E PUSH2 0x11BE JUMP JUMPDEST AND PUSH1 0x0 MSTORE PUSH1 0x3 PUSH1 0x20 MSTORE PUSH1 0x40 PUSH1 0x0 KECCAK256 PUSH1 0x40 MLOAD PUSH2 0xD48 DUP2 PUSH2 0x122B JUMP JUMPDEST DUP2 SLOAD SWAP1 DUP2 DUP2 MSTORE PUSH1 0xA0 PUSH1 0x1 DUP5 ADD SLOAD SWAP4 DUP5 PUSH1 0x20 DUP5 ADD MSTORE PUSH1 0x2 DUP2 ADD SLOAD SWAP3 DUP4 PUSH1 0x40 DUP3 ADD MSTORE PUSH1 0x3 DUP3 ADD SLOAD SWAP1 DUP2 PUSH1 0x60 DUP3 ADD MSTORE PUSH1 0xFF PUSH1 0x5 PUSH1 0x4 DUP6 ADD SLOAD SWAP5 DUP6 PUSH1 0x80 DUP6 ADD MSTORE ADD SLOAD AND ISZERO ISZERO SWAP4 DUP5 SWAP2 ADD MSTORE DUP4 DUP7 SUB SWAP4 DUP7 DUP6 GT PUSH2 0x399 JUMPI PUSH1 0xE0 SWAP7 PUSH1 0x40 MLOAD SWAP7 DUP8 MSTORE PUSH1 0x20 DUP8 ADD MSTORE PUSH1 0x40 DUP7 ADD MSTORE PUSH1 0x60 DUP6 ADD MSTORE PUSH1 0x80 DUP5 ADD MSTORE PUSH1 0xA0 DUP4 ADD MSTORE PUSH1 0xC0 DUP3 ADD MSTORE RETURN JUMPDEST CALLVALUE PUSH2 0x178 JUMPI PUSH1 0x20 DUP1 PUSH1 0x3 NOT CALLDATASIZE ADD SLT PUSH2 0x178 JUMPI PUSH1 0x24 DUP2 PUSH1 0x1 PUSH1 0x1 PUSH1 0xA0 SHL SUB PUSH2 0xDE7 PUSH2 0x11BE JUMP JUMPDEST AND PUSH1 0x40 MLOAD SWAP3 DUP4 DUP1 SWAP3 PUSH4 0x70A08231 PUSH1 0xE0 SHL DUP3 MSTORE ADDRESS PUSH1 0x4 DUP4 ADD MSTORE GAS STATICCALL SWAP1 DUP2 ISZERO PUSH2 0x3F2 JUMPI PUSH1 0x0 SWAP2 PUSH2 0xE19 JUMPI JUMPDEST POP PUSH1 0x40 MLOAD SWAP1 DUP2 MSTORE RETURN JUMPDEST SWAP1 POP DUP2 DUP2 DUP2 RETURNDATASIZE DUP4 GT PUSH2 0xE3F JUMPI JUMPDEST PUSH2 0xE30 DUP2 DUP4 PUSH2 0x125D JUMP JUMPDEST DUP2 ADD SUB SLT PUSH2 0x178 JUMPI MLOAD DUP3 PUSH2 0xE10 JUMP JUMPDEST POP RETURNDATASIZE PUSH2 0xE26 JUMP JUMPDEST CALLVALUE PUSH2 0x178 JUMPI PUSH1 0x80 CALLDATASIZE PUSH1 0x3 NOT ADD SLT PUSH2 0x178 JUMPI PUSH2 0xE5F PUSH2 0x11BE JUMP JUMPDEST PUSH1 0x24 CALLDATALOAD PUSH8 0xFFFFFFFFFFFFFFFF DUP2 GT PUSH2 0x178 JUMPI PUSH2 0xE7F SWAP1 CALLDATASIZE SWAP1 PUSH1 0x4 ADD PUSH2 0x11EA JUMP JUMPDEST SWAP1 SWAP2 PUSH1 0x44 CALLDATALOAD PUSH8 0xFFFFFFFFFFFFFFFF DUP2 GT PUSH2 0x178 JUMPI PUSH2 0xEA1 SWAP1 CALLDATASIZE SWAP1 PUSH1 0x4 ADD PUSH2 0x11EA JUMP JUMPDEST SWAP4 SWAP1 PUSH1 0x64 CALLDATALOAD PUSH8 0xFFFFFFFFFFFFFFFF DUP2 GT PUSH2 0x178 JUMPI PUSH2 0xEC3 SWAP1 CALLDATASIZE SWAP1 PUSH1 0x4 ADD PUSH2 0x11EA JUMP JUMPDEST SWAP1 PUSH2 0xECC PUSH2 0x12FB JUMP JUMPDEST DUP7 DUP7 EQ DUP1 ISZERO SWAP1 PUSH2 0x11B4 JUMPI JUMPDEST PUSH2 0x3FE JUMPI PUSH1 0x1 DUP1 PUSH1 0xA0 SHL SUB DUP6 AND PUSH1 0x0 MSTORE PUSH1 0x3 PUSH1 0x20 MSTORE PUSH1 0x40 PUSH1 0x0 KECCAK256 SWAP7 PUSH1 0xFF PUSH1 0x5 DUP10 ADD SLOAD AND ISZERO PUSH2 0xA95 JUMPI PUSH1 0x3 DUP9 ADD SLOAD TIMESTAMP LT DUP1 ISZERO PUSH2 0x11A7 JUMPI JUMPDEST PUSH2 0xA95 JUMPI SWAP6 SWAP5 SWAP4 SWAP3 SWAP2 SWAP1 PUSH1 0x0 SWAP7 PUSH1 0x0 SWAP7 JUMPDEST DUP1 DUP9 LT PUSH2 0xF4B JUMPI PUSH2 0xF42 DUP10 PUSH1 0x2 DUP13 ADD PUSH2 0xF38 DUP3 DUP3 SLOAD PUSH2 0x12D6 JUMP JUMPDEST SWAP1 SSTORE PUSH1 0x7 SLOAD PUSH2 0x12D6 JUMP JUMPDEST PUSH1 0x7 SSTORE PUSH1 0x1 DUP1 SSTORE STOP JUMPDEST SWAP1 SWAP2 SWAP3 SWAP4 SWAP5 SWAP6 SWAP7 SWAP8 PUSH2 0xF5E DUP10 DUP4 DUP10 PUSH2 0x121B JUMP JUMPDEST CALLDATALOAD SWAP9 PUSH1 0x1 PUSH1 0x1 PUSH1 0xA0 SHL SUB DUP11 AND DUP11 SUB PUSH2 0x178 JUMPI PUSH2 0xF7B DUP2 DUP6 DUP10 PUSH2 0x121B JUMP JUMPDEST CALLDATALOAD SWAP2 DUP7 DUP3 LT ISZERO PUSH2 0x1191 JUMPI DUP2 PUSH1 0x5 SHL DUP7 ADD CALLDATALOAD PUSH1 0x1E NOT DUP8 CALLDATASIZE SUB ADD DUP2 SLT ISZERO PUSH2 0x178 JUMPI DUP7 ADD PUSH8 0xFFFFFFFFFFFFFFFF DUP2 CALLDATALOAD GT PUSH2 0x178 JUMPI DUP1 CALLDATALOAD PUSH1 0x5 SHL CALLDATASIZE SUB PUSH1 0x20 DUP3 ADD SGT PUSH2 0x178 JUMPI DUP13 SWAP1 PUSH1 0x1 DUP1 PUSH1 0xA0 SHL SUB DUP13 AND PUSH1 0x0 MSTORE PUSH1 0x4 PUSH1 0x20 MSTORE PUSH1 0x40 PUSH1 0x0 KECCAK256 DUP14 PUSH1 0x1 DUP1 PUSH1 0xA0 SHL SUB AND PUSH1 0x0 MSTORE PUSH1 0x20 MSTORE PUSH1 0xFF PUSH1 0x40 PUSH1 0x0 KECCAK256 SLOAD AND PUSH2 0x1184 JUMPI PUSH1 0x40 MLOAD PUSH1 0x60 DUP15 SWAP1 SHL PUSH1 0x1 PUSH1 0x1 PUSH1 0x60 SHL SUB NOT AND PUSH1 0x20 DUP3 ADD SWAP1 DUP2 MSTORE PUSH1 0x34 DUP3 ADD DUP8 SWAP1 MSTORE PUSH2 0x103B SWAP4 SWAP3 SWAP2 PUSH2 0x967 SWAP2 SWAP1 PUSH2 0x1028 DUP2 PUSH1 0x54 DUP2 ADD PUSH2 0x94B JUMP JUMPDEST MLOAD SWAP1 KECCAK256 SWAP3 SLOAD SWAP2 CALLDATASIZE SWAP1 PUSH1 0x20 DUP2 CALLDATALOAD SWAP2 ADD PUSH2 0x127F JUMP JUMPDEST ISZERO PUSH2 0x1179 JUMPI DUP3 PUSH2 0x10AB SWAP2 PUSH1 0x1 DUP1 PUSH1 0xA0 SHL SUB DUP13 AND PUSH1 0x0 MSTORE PUSH1 0x4 PUSH1 0x20 MSTORE PUSH1 0x40 PUSH1 0x0 KECCAK256 DUP14 PUSH1 0x1 DUP1 PUSH1 0xA0 SHL SUB AND PUSH1 0x0 MSTORE PUSH1 0x20 MSTORE PUSH1 0x40 PUSH1 0x0 KECCAK256 PUSH1 0x1 PUSH1 0xFF NOT DUP3 SLOAD AND OR SWAP1 SSTORE PUSH1 0x1 DUP1 PUSH1 0xA0 SHL SUB DUP13 AND PUSH1 0x0 MSTORE PUSH1 0x5 PUSH1 0x20 MSTORE PUSH1 0x40 PUSH1 0x0 KECCAK256 DUP14 PUSH1 0x1 DUP1 PUSH1 0xA0 SHL SUB AND PUSH1 0x0 MSTORE PUSH1 0x20 MSTORE DUP2 PUSH1 0x40 PUSH1 0x0 KECCAK256 SSTORE PUSH2 0x12D6 JUMP JUMPDEST PUSH1 0x40 MLOAD PUSH4 0xA9059CBB PUSH1 0xE0 SHL DUP2 MSTORE PUSH1 0x1 PUSH1 0x1 PUSH1 0xA0 SHL SUB DUP13 AND PUSH1 0x4 DUP3 ADD MSTORE PUSH1 0x24 DUP2 ADD DUP5 SWAP1 MSTORE SWAP1 SWAP11 SWAP1 SWAP3 PUSH1 0x20 DUP5 DUP13 DUP2 PUSH1 0x0 DUP2 PUSH1 0x44 DUP2 ADD SUB SWAP3 PUSH1 0x1 PUSH1 0x1 PUSH1 0xA0 SHL SUB AND GAS CALL DUP1 ISZERO PUSH2 0x3F2 JUMPI PUSH1 0x1 SWAP5 PUSH1 0x0 SWAP2 PUSH2 0x115A JUMPI JUMPDEST POP PUSH2 0x1112 JUMPI JUMPDEST POP POP JUMPDEST ADD SWAP7 SWAP6 SWAP5 SWAP4 SWAP3 SWAP2 SWAP1 PUSH2 0xF1E JUMP JUMPDEST PUSH1 0x40 MLOAD SWAP1 DUP2 MSTORE TIMESTAMP PUSH1 0x20 DUP3 ADD MSTORE PUSH32 0xD399C6E7FAD358FC300BEDA3F056717C94A04C7233CE92683DE6500BA509022E PUSH1 0x40 DUP6 DUP1 PUSH1 0xA0 SHL SUB DUP14 AND SWAP4 DUP7 DUP1 PUSH1 0xA0 SHL SUB AND SWAP3 LOG3 DUP12 DUP1 PUSH2 0x1102 JUMP JUMPDEST PUSH2 0x1173 SWAP2 POP PUSH1 0x20 RETURNDATASIZE PUSH1 0x20 GT PUSH2 0x5AB JUMPI PUSH2 0x59D DUP2 DUP4 PUSH2 0x125D JUMP JUMPDEST DUP15 PUSH2 0x10FC JUMP JUMPDEST SWAP10 POP PUSH1 0x1 SWAP2 POP PUSH2 0x1105 JUMP JUMPDEST POP POP SWAP10 POP PUSH1 0x1 SWAP2 POP PUSH2 0x1105 JUMP JUMPDEST PUSH4 0x4E487B71 PUSH1 0xE0 SHL PUSH1 0x0 MSTORE PUSH1 0x32 PUSH1 0x4 MSTORE PUSH1 0x24 PUSH1 0x0 REVERT JUMPDEST POP PUSH1 0x4 DUP9 ADD SLOAD TIMESTAMP GT PUSH2 0xF0D JUMP JUMPDEST POP DUP2 DUP7 EQ ISZERO PUSH2 0xED7 JUMP JUMPDEST PUSH1 0x4 CALLDATALOAD SWAP1 PUSH1 0x1 PUSH1 0x1 PUSH1 0xA0 SHL SUB DUP3 AND DUP3 SUB PUSH2 0x178 JUMPI JUMP JUMPDEST PUSH1 0x24 CALLDATALOAD SWAP1 PUSH1 0x1 PUSH1 0x1 PUSH1 0xA0 SHL SUB DUP3 AND DUP3 SUB PUSH2 0x178 JUMPI JUMP JUMPDEST SWAP2 DUP2 PUSH1 0x1F DUP5 ADD SLT ISZERO PUSH2 0x178 JUMPI DUP3 CALLDATALOAD SWAP2 PUSH8 0xFFFFFFFFFFFFFFFF DUP4 GT PUSH2 0x178 JUMPI PUSH1 0x20 DUP1 DUP6 ADD SWAP5 DUP5 PUSH1 0x5 SHL ADD ADD GT PUSH2 0x178 JUMPI JUMP JUMPDEST SWAP2 SWAP1 DUP2 LT ISZERO PUSH2 0x1191 JUMPI PUSH1 0x5 SHL ADD SWAP1 JUMP JUMPDEST PUSH1 0xC0 DUP2 ADD SWAP1 DUP2 LT PUSH8 0xFFFFFFFFFFFFFFFF DUP3 GT OR PUSH2 0x1247 JUMPI PUSH1 0x40 MSTORE JUMP JUMPDEST PUSH4 0x4E487B71 PUSH1 0xE0 SHL PUSH1 0x0 MSTORE PUSH1 0x41 PUSH1 0x4 MSTORE PUSH1 0x24 PUSH1 0x0 REVERT JUMPDEST SWAP1 PUSH1 0x1F DUP1 NOT SWAP2 ADD AND DUP2 ADD SWAP1 DUP2 LT PUSH8 0xFFFFFFFFFFFFFFFF DUP3 GT OR PUSH2 0x1247 JUMPI PUSH1 0x40 MSTORE JUMP JUMPDEST SWAP1 SWAP3 SWAP2 PUSH8 0xFFFFFFFFFFFFFFFF DUP5 GT PUSH2 0x1247 JUMPI DUP4 PUSH1 0x5 SHL PUSH1 0x20 SWAP3 PUSH1 0x20 PUSH1 0x40 MLOAD PUSH2 0x12A9 DUP3 DUP6 ADD DUP3 PUSH2 0x125D JUMP JUMPDEST DUP1 SWAP8 DUP2 MSTORE ADD SWAP2 DUP2 ADD SWAP3 DUP4 GT PUSH2 0x178 JUMPI SWAP1 JUMPDEST DUP3 DUP3 LT PUSH2 0x12C7 JUMPI POP POP POP POP JUMP JUMPDEST DUP2 CALLDATALOAD DUP2 MSTORE SWAP1 DUP4 ADD SWAP1 DUP4 ADD PUSH2 0x12BA JUMP JUMPDEST SWAP2 SWAP1 DUP3 ADD DUP1 SWAP3 GT PUSH2 0x399 JUMPI JUMP JUMPDEST SWAP1 DUP2 PUSH1 0x20 SWAP2 SUB SLT PUSH2 0x178 JUMPI MLOAD DUP1 ISZERO ISZERO DUP2 SUB PUSH2 0x178 JUMPI SWAP1 JUMP JUMPDEST PUSH1 0x2 PUSH1 0x1 SLOAD EQ PUSH2 0x130C JUMPI PUSH1 0x2 PUSH1 0x1 SSTORE JUMP JUMPDEST PUSH1 0x40 MLOAD PUSH4 0x3EE5AEB5 PUSH1 0xE0 SHL DUP2 MSTORE PUSH1 0x4 SWAP1 REVERT JUMPDEST SWAP1 SWAP2 SWAP1 PUSH1 0x0 SWAP2 JUMPDEST DUP2 MLOAD DUP4 LT ISZERO PUSH2 0x136B JUMPI PUSH1 0x20 DUP1 DUP5 PUSH1 0x5 SHL DUP5 ADD ADD MLOAD SWAP2 PUSH1 0x0 DUP4 DUP3 LT PUSH1 0x0 EQ PUSH2 0x135B JUMPI POP PUSH1 0x0 MSTORE MSTORE PUSH1 0x1 PUSH1 0x40 PUSH1 0x0 KECCAK256 JUMPDEST SWAP3 ADD SWAP2 PUSH2 0x1325 JUMP JUMPDEST SWAP1 PUSH1 0x40 SWAP3 PUSH1 0x1 SWAP5 DUP4 MSTORE MSTORE KECCAK256 PUSH2 0x1353 JUMP JUMPDEST SWAP2 POP POP EQ SWAP1 JUMP JUMPDEST PUSH1 0x0 SLOAD PUSH1 0x1 PUSH1 0x1 PUSH1 0xA0 SHL SUB AND CALLER SUB PUSH2 0x1386 JUMPI JUMP JUMPDEST PUSH1 0x40 MLOAD PUSH4 0x118CDAA7 PUSH1 0xE0 SHL DUP2 MSTORE CALLER PUSH1 0x4 DUP3 ADD MSTORE PUSH1 0x24 SWAP1 REVERT INVALID LOG2 PUSH5 0x6970667358 0x22 SLT KECCAK256 DUP5 POP 0xE4 PUSH5 0xF7EE1D4586 ORIGIN 0xE PUSH28 0x11C97DB3758565392D0108FF25EE502B4E5381CE64736F6C63430008 XOR STOP CALLER "
        },
        "methodIdentifiers": {
          "airdrops(address)": "8c86f0a7",
          "batchClaimAirdrop(address,address[],uint256[],bytes32[][])": "05443a9e",
          "canClaim(address,address)": "a617e653",
          "claimAirdrop(address,uint256,bytes32[])": "a0e848c7",
          "claimedAmounts(address,address)": "c253b5da",
          "configureAirdrop(address,bytes32,uint256,uint256)": "ea499b1d",
          "deactivateAirdrop(address)": "c2b9b139",
          "emergencyWithdraw(address,address,uint256)": "e63ea408",
          "extendAirdrop(address,uint256)": "ef37e7ca",
          "getAirdropInfo(address)": "6b58222e",
          "getClaimedAmount(address,address)": "a30066f3",
          "getContractStats()": "dfe6b5d6",
          "getTotalRemainingTokens(address)": "3ba0c9f1",
          "governanceContract()": "b172b222",
          "hasClaimed(address,address)": "89266f60",
          "isAirdropActive(address)": "dc43b08b",
          "owner()": "8da5cb5b",
          "reactivateAirdrop(address)": "fa8fc679",
          "renounceOwnership()": "715018a6",
          "totalAirdropsConfigured()": "8ed044e8",
          "totalTokensDistributed()": "d8f163ab",
          "transferOwnership(address)": "f2fde38b",
          "updateGovernanceContract(address)": "6faf60a0",
          "updateMerkleRoot(address,bytes32)": "e786818e",
          "verifyProof(address,address,uint256,bytes32[])": "7f2bfaaf"
        }
      }
    }
  }
}