{
  "contracts/PumpFunFactoryLite.sol": {
    "PumpFunFactoryLite": {
      "abi": [
        {
          "inputs": [],
          "stateMutability": "nonpayable",
          "type": "constructor"
        },
        {
          "inputs": [],
          "name": "EmptyStringParameter",
          "type": "error"
        },
        {
          "inputs": [
            {
              "internalType": "uint256",
              "name": "sent",
              "type": "uint256"
            },
            {
              "internalType": "uint256",
              "name": "required",
              "type": "uint256"
            }
          ],
          "name": "InsufficientEtherFee",
          "type": "error"
        },
        {
          "inputs": [
            {
              "internalType": "uint256",
              "name": "provided",
              "type": "uint256"
            },
            {
              "internalType": "uint256",
              "name": "required",
              "type": "uint256"
            }
          ],
          "name": "InsufficientLiquidityLockPeriod",
          "type": "error"
        },
        {
          "inputs": [
            {
              "internalType": "uint256",
              "name": "fee",
              "type": "uint256"
            }
          ],
          "name": "InvalidFeeAmount",
          "type": "error"
        },
        {
          "inputs": [],
          "name": "InvalidLiquidityAmount",
          "type": "error"
        },
        {
          "inputs": [],
          "name": "InvalidParameters",
          "type": "error"
        },
        {
          "inputs": [],
          "name": "InvalidTokenAddress",
          "type": "error"
        },
        {
          "inputs": [],
          "name": "NoEtherToWithdraw",
          "type": "error"
        },
        {
          "inputs": [
            {
              "internalType": "address",
              "name": "owner",
              "type": "address"
            }
          ],
          "name": "OwnableInvalidOwner",
          "type": "error"
        },
        {
          "inputs": [
            {
              "internalType": "address",
              "name": "account",
              "type": "address"
            }
          ],
          "name": "OwnableUnauthorizedAccount",
          "type": "error"
        },
        {
          "inputs": [],
          "name": "ReentrancyGuardReentrantCall",
          "type": "error"
        },
        {
          "inputs": [
            {
              "internalType": "uint256",
              "name": "supply",
              "type": "uint256"
            },
            {
              "internalType": "uint256",
              "name": "maxSupply",
              "type": "uint256"
            }
          ],
          "name": "TotalSupplyTooHigh",
          "type": "error"
        },
        {
          "inputs": [],
          "name": "TotalSupplyTooLow",
          "type": "error"
        },
        {
          "inputs": [],
          "name": "TransferFailed",
          "type": "error"
        },
        {
          "anonymous": false,
          "inputs": [
            {
              "indexed": true,
              "internalType": "address",
              "name": "token",
              "type": "address"
            },
            {
              "indexed": true,
              "internalType": "address",
              "name": "violator",
              "type": "address"
            },
            {
              "indexed": false,
              "internalType": "string",
              "name": "reason",
              "type": "string"
            }
          ],
          "name": "AntiRugPullTriggered",
          "type": "event"
        },
        {
          "anonymous": false,
          "inputs": [
            {
              "indexed": false,
              "internalType": "uint256",
              "name": "oldFee",
              "type": "uint256"
            },
            {
              "indexed": false,
              "internalType": "uint256",
              "name": "newFee",
              "type": "uint256"
            }
          ],
          "name": "EtherFeeUpdated",
          "type": "event"
        },
        {
          "anonymous": false,
          "inputs": [
            {
              "indexed": true,
              "internalType": "address",
              "name": "owner",
              "type": "address"
            },
            {
              "indexed": false,
              "internalType": "uint256",
              "name": "amount",
              "type": "uint256"
            }
          ],
          "name": "EtherWithdrawn",
          "type": "event"
        },
        {
          "anonymous": false,
          "inputs": [
            {
              "indexed": true,
              "internalType": "address",
              "name": "token",
              "type": "address"
            },
            {
              "indexed": true,
              "internalType": "address",
              "name": "creator",
              "type": "address"
            },
            {
              "indexed": false,
              "internalType": "uint256",
              "name": "ethAmount",
              "type": "uint256"
            },
            {
              "indexed": false,
              "internalType": "uint256",
              "name": "tokenAmount",
              "type": "uint256"
            }
          ],
          "name": "LiquidityAdded",
          "type": "event"
        },
        {
          "anonymous": false,
          "inputs": [
            {
              "indexed": true,
              "internalType": "address",
              "name": "previousOwner",
              "type": "address"
            },
            {
              "indexed": true,
              "internalType": "address",
              "name": "newOwner",
              "type": "address"
            }
          ],
          "name": "OwnershipTransferred",
          "type": "event"
        },
        {
          "anonymous": false,
          "inputs": [
            {
              "indexed": true,
              "internalType": "string",
              "name": "name",
              "type": "string"
            },
            {
              "indexed": true,
              "internalType": "string",
              "name": "symbol",
              "type": "string"
            },
            {
              "indexed": true,
              "internalType": "address",
              "name": "tokenAddress",
              "type": "address"
            },
            {
              "indexed": false,
              "internalType": "uint256",
              "name": "totalSupply",
              "type": "uint256"
            },
            {
              "indexed": false,
              "internalType": "address",
              "name": "creator",
              "type": "address"
            },
            {
              "indexed": false,
              "internalType": "uint256",
              "name": "liquidityLockPeriod",
              "type": "uint256"
            },
            {
              "indexed": false,
              "internalType": "bool",
              "name": "sustainabilityFeaturesEnabled",
              "type": "bool"
            }
          ],
          "name": "TokenDeployed",
          "type": "event"
        },
        {
          "stateMutability": "payable",
          "type": "fallback"
        },
        {
          "inputs": [],
          "name": "MAX_FEE",
          "outputs": [
            {
              "internalType": "uint256",
              "name": "",
              "type": "uint256"
            }
          ],
          "stateMutability": "view",
          "type": "function"
        },
        {
          "inputs": [],
          "name": "MAX_TOTAL_SUPPLY",
          "outputs": [
            {
              "internalType": "uint256",
              "name": "",
              "type": "uint256"
            }
          ],
          "stateMutability": "view",
          "type": "function"
        },
        {
          "inputs": [],
          "name": "MIN_LIQUIDITY_LOCK_PERIOD",
          "outputs": [
            {
              "internalType": "uint256",
              "name": "",
              "type": "uint256"
            }
          ],
          "stateMutability": "view",
          "type": "function"
        },
        {
          "inputs": [],
          "name": "MIN_TOTAL_SUPPLY",
          "outputs": [
            {
              "internalType": "uint256",
              "name": "",
              "type": "uint256"
            }
          ],
          "stateMutability": "view",
          "type": "function"
        },
        {
          "inputs": [
            {
              "internalType": "address",
              "name": "tokenAddress",
              "type": "address"
            },
            {
              "internalType": "uint256",
              "name": "tokenAmount",
              "type": "uint256"
            }
          ],
          "name": "addAndLockLiquidity",
          "outputs": [],
          "stateMutability": "payable",
          "type": "function"
        },
        {
          "inputs": [
            {
              "internalType": "uint256",
              "name": "",
              "type": "uint256"
            }
          ],
          "name": "allDeployedTokens",
          "outputs": [
            {
              "internalType": "address",
              "name": "",
              "type": "address"
            }
          ],
          "stateMutability": "view",
          "type": "function"
        },
        {
          "inputs": [
            {
              "internalType": "address",
              "name": "",
              "type": "address"
            },
            {
              "internalType": "uint256",
              "name": "",
              "type": "uint256"
            }
          ],
          "name": "creatorTokens",
          "outputs": [
            {
              "internalType": "address",
              "name": "",
              "type": "address"
            }
          ],
          "stateMutability": "view",
          "type": "function"
        },
        {
          "inputs": [
            {
              "internalType": "string",
              "name": "name",
              "type": "string"
            },
            {
              "internalType": "string",
              "name": "symbol",
              "type": "string"
            },
            {
              "internalType": "uint256",
              "name": "totalSupply",
              "type": "uint256"
            },
            {
              "internalType": "uint256",
              "name": "liquidityLockPeriod",
              "type": "uint256"
            },
            {
              "internalType": "bool",
              "name": "enableSustainabilityFeatures",
              "type": "bool"
            }
          ],
          "name": "deployToken",
          "outputs": [],
          "stateMutability": "payable",
          "type": "function"
        },
        {
          "inputs": [],
          "name": "etherFee",
          "outputs": [
            {
              "internalType": "uint256",
              "name": "",
              "type": "uint256"
            }
          ],
          "stateMutability": "view",
          "type": "function"
        },
        {
          "inputs": [],
          "name": "getAllDeployedTokens",
          "outputs": [
            {
              "internalType": "address[]",
              "name": "",
              "type": "address[]"
            }
          ],
          "stateMutability": "view",
          "type": "function"
        },
        {
          "inputs": [],
          "name": "getFactoryStats",
          "outputs": [
            {
              "internalType": "uint256",
              "name": "_totalTokensDeployed",
              "type": "uint256"
            },
            {
              "internalType": "uint256",
              "name": "_totalFeesCollected",
              "type": "uint256"
            },
            {
              "internalType": "uint256",
              "name": "_currentBalance",
              "type": "uint256"
            }
          ],
          "stateMutability": "view",
          "type": "function"
        },
        {
          "inputs": [
            {
              "internalType": "address",
              "name": "tokenAddress",
              "type": "address"
            }
          ],
          "name": "getTokenInfo",
          "outputs": [
            {
              "internalType": "address",
              "name": "creator",
              "type": "address"
            },
            {
              "internalType": "uint256",
              "name": "deploymentTime",
              "type": "uint256"
            },
            {
              "internalType": "uint256",
              "name": "liquidityLockPeriod",
              "type": "uint256"
            },
            {
              "internalType": "bool",
              "name": "sustainabilityFeaturesEnabled",
              "type": "bool"
            }
          ],
          "stateMutability": "view",
          "type": "function"
        },
        {
          "inputs": [
            {
              "internalType": "address",
              "name": "creator",
              "type": "address"
            }
          ],
          "name": "getTokensByCreator",
          "outputs": [
            {
              "internalType": "address[]",
              "name": "",
              "type": "address[]"
            }
          ],
          "stateMutability": "view",
          "type": "function"
        },
        {
          "inputs": [
            {
              "internalType": "address",
              "name": "",
              "type": "address"
            }
          ],
          "name": "isDeployedToken",
          "outputs": [
            {
              "internalType": "bool",
              "name": "",
              "type": "bool"
            }
          ],
          "stateMutability": "view",
          "type": "function"
        },
        {
          "inputs": [
            {
              "internalType": "address",
              "name": "",
              "type": "address"
            }
          ],
          "name": "liquidityInfo",
          "outputs": [
            {
              "internalType": "uint256",
              "name": "ethAmount",
              "type": "uint256"
            },
            {
              "internalType": "uint256",
              "name": "tokenAmount",
              "type": "uint256"
            },
            {
              "internalType": "uint256",
              "name": "lockPeriod",
              "type": "uint256"
            },
            {
              "internalType": "bool",
              "name": "isLocked",
              "type": "bool"
            }
          ],
          "stateMutability": "view",
          "type": "function"
        },
        {
          "inputs": [],
          "name": "owner",
          "outputs": [
            {
              "internalType": "address",
              "name": "",
              "type": "address"
            }
          ],
          "stateMutability": "view",
          "type": "function"
        },
        {
          "inputs": [],
          "name": "renounceOwnership",
          "outputs": [],
          "stateMutability": "nonpayable",
          "type": "function"
        },
        {
          "inputs": [
            {
              "internalType": "uint256",
              "name": "newFee",
              "type": "uint256"
            }
          ],
          "name": "setEtherFee",
          "outputs": [],
          "stateMutability": "nonpayable",
          "type": "function"
        },
        {
          "inputs": [
            {
              "internalType": "address",
              "name": "",
              "type": "address"
            }
          ],
          "name": "tokenInfo",
          "outputs": [
            {
              "internalType": "address",
              "name": "tokenAddress",
              "type": "address"
            },
            {
              "internalType": "address",
              "name": "creator",
              "type": "address"
            },
            {
              "internalType": "uint256",
              "name": "deploymentTime",
              "type": "uint256"
            },
            {
              "internalType": "uint256",
              "name": "liquidityLockPeriod",
              "type": "uint256"
            },
            {
              "internalType": "bool",
              "name": "sustainabilityFeaturesEnabled",
              "type": "bool"
            }
          ],
          "stateMutability": "view",
          "type": "function"
        },
        {
          "inputs": [],
          "name": "totalFeesCollected",
          "outputs": [
            {
              "internalType": "uint256",
              "name": "",
              "type": "uint256"
            }
          ],
          "stateMutability": "view",
          "type": "function"
        },
        {
          "inputs": [],
          "name": "totalTokensDeployed",
          "outputs": [
            {
              "internalType": "uint256",
              "name": "",
              "type": "uint256"
            }
          ],
          "stateMutability": "view",
          "type": "function"
        },
        {
          "inputs": [
            {
              "internalType": "address",
              "name": "newOwner",
              "type": "address"
            }
          ],
          "name": "transferOwnership",
          "outputs": [],
          "stateMutability": "nonpayable",
          "type": "function"
        },
        {
          "inputs": [
            {
              "internalType": "address",
              "name": "tokenAddress",
              "type": "address"
            },
            {
              "internalType": "string",
              "name": "reason",
              "type": "string"
            }
          ],
          "name": "triggerAntiRugPull",
          "outputs": [],
          "stateMutability": "nonpayable",
          "type": "function"
        },
        {
          "inputs": [],
          "name": "withdrawFees",
          "outputs": [],
          "stateMutability": "nonpayable",
          "type": "function"
        },
        {
          "stateMutability": "payable",
          "type": "receive"
        }
      ],
      "evm": {
        "bytecode": {
          "linkReferences": {},
          "object": "608060405266b1a2bc2ec5000060025534801561001b57600080fd5b50338061004257604051631e4fbdf760e01b81526000600482015260240160405180910390fd5b61004b81610055565b50600180556100a5565b600080546001600160a01b038381166001600160a01b0319831681178455604051919092169283917f8be0079c531659141344cd1fd0a4f28419497f9722a3daafe3b4186f6b6457e09190a35050565b6145ad806100b46000396000f3fe6080604052600436106200015f5760003560e01c80637d9e5d8811620000bf578063d3b65a701162000075578063d3b65a7014620004c4578063d5c7127514620004db578063db3fa4cc1462000500578063ed94c7f41462000525578063f2fde38b146200053d578063f5dab711146200056257005b80637d9e5d88146200039d578063822f694b14620003c25780638da5cb5b14620003e9578063bc063e1a1462000409578063c92264451462000427578063cb7f43fe146200045857005b80634c1c7ddf11620001155780634c1c7ddf14620002b95780635122c40914620002fe57806360c6d8ae14620003165780636dde8668146200032e578063706c77291462000347578063715018a6146200038557005b806307fe2adf14620001695780631f69565f146200019457806333039d3d146200024b578063451a960b1462000265578063476343ee146200027c5780634aed8750146200029457005b366200016757005b005b3480156200017657600080fd5b506200018160085481565b6040519081526020015b60405180910390f35b348015620001a157600080fd5b506200021e620001b33660046200107c565b6001600160a01b03908116600090815260056020908152604091829020825160a0810184528154851681526001820154909416918401829052600281015492840183905260038101546060850181905260049091015460ff1615156080909401849052909391929091565b604080516001600160a01b039095168552602085019390935291830152151560608201526080016200018b565b3480156200025857600080fd5b5062000181633b9aca0081565b6200016762000276366004620010a1565b620005f5565b3480156200028957600080fd5b506200016762000857565b348015620002a157600080fd5b5062000167620002b3366004620010ce565b62000963565b348015620002c657600080fd5b50620002ed620002d83660046200107c565b60046020526000908152604090205460ff1681565b60405190151581526020016200018b565b3480156200030b57600080fd5b50620001816103e881565b3480156200032357600080fd5b506200018160095481565b3480156200033b57600080fd5b506200018162278d0081565b3480156200035457600080fd5b506200036c62000366366004620010ce565b620009e4565b6040516001600160a01b0390911681526020016200018b565b3480156200039257600080fd5b506200016762000a0f565b348015620003aa57600080fd5b5062000167620003bc36600462001193565b62000a25565b348015620003cf57600080fd5b50620003da62000b23565b6040516200018b9190620011e7565b348015620003f657600080fd5b506000546001600160a01b03166200036c565b3480156200041657600080fd5b5062000181670de0b6b3a764000081565b3480156200043457600080fd5b5060085460095447604080519384526020840192909252908201526060016200018b565b3480156200046557600080fd5b50620004a1620004773660046200107c565b60066020526000908152604090208054600182015460028301546003909301549192909160ff1684565b60408051948552602085019390935291830152151560608201526080016200018b565b62000167620004d536600462001245565b62000b87565b348015620004e857600080fd5b50620003da620004fa3660046200107c565b62000ddc565b3480156200050d57600080fd5b506200036c6200051f366004620010a1565b62000e54565b3480156200053257600080fd5b506200018160025481565b3480156200054a57600080fd5b50620001676200055c3660046200107c565b62000e8d565b3480156200056f57600080fd5b50620005bf620005813660046200107c565b600560205260009081526040902080546001820154600283015460038401546004909401546001600160a01b03938416949390921692909160ff1685565b604080516001600160a01b0396871681529590941660208601529284019190915260608301521515608082015260a0016200018b565b620005ff62000ed1565b6001600160a01b03821660009081526004602052604090205460ff166200063957604051630f58058360e11b815260040160405180910390fd5b346000036200065b57604051631f2c4df760e11b815260040160405180910390fd5b806000036200067d57604051631f2c4df760e11b815260040160405180910390fd5b6001600160a01b03808316600090815260056020526040902060018101549091163314620006be57604051630e52390960e41b815260040160405180910390fd5b6040516323b872dd60e01b8152336004820152306024820152604481018390526001600160a01b038416906323b872dd906064016020604051808303816000875af115801562000712573d6000803e3d6000fd5b505050506040513d601f19601f82011682018060405250810190620007389190620012da565b50604080516080810182523481526020808201858152600385810180548587019081526001606087018181526001600160a01b038c1660008181526006909852968990209751885594519087015551600286015591519301805460ff1916931515939093179092559054915163670a270560e11b8152600481018290526024810185905260448101929092529063ce144e0a90606401600060405180830381600087803b158015620007e957600080fd5b505af1158015620007fe573d6000803e3d6000fd5b505060408051348152602081018690523393506001600160a01b03871692507f36f3b2e1a21c19137dd82ec243b0708a1d26b3d1fa1dc49c44c4c366a5878138910160405180910390a3506200085360018055565b5050565b6200086162000efc565b6200086b62000ed1565b4760008190036200088f57604051632450b79d60e11b815260040160405180910390fd5b600080546040516001600160a01b039091169083908381818185875af1925050503d8060008114620008de576040519150601f19603f3d011682016040523d82523d6000602084013e620008e3565b606091505b505090508062000906576040516312171d8360e31b815260040160405180910390fd5b6000546001600160a01b03166001600160a01b03167f06097061aeda806b5e9cb4133d9899f332ff0913956567fc0f7ea15e3d19947c836040516200094d91815260200190565b60405180910390a250506200096160018055565b565b6200096d62000efc565b670de0b6b3a76400008111156200099f57604051633d83b26760e01b8152600481018290526024015b60405180910390fd5b600280549082905560408051828152602081018490527fd4cf6f6bee0026c64c38fb4e7e9cc15819be59dccb8f0a82fd31a4cc1dcc1e18910160405180910390a15050565b60078181548110620009f557600080fd5b6000918252602090912001546001600160a01b0316905081565b62000a1962000efc565b62000961600062000f2b565b62000a2f62000efc565b6001600160a01b03821660009081526004602052604090205460ff1662000a6957604051630f58058360e11b815260040160405180910390fd5b6000829050806001600160a01b03166351858e276040518163ffffffff1660e01b8152600401600060405180830381600087803b15801562000aaa57600080fd5b505af115801562000abf573d6000803e3d6000fd5b505050506001600160a01b03838116600081815260056020526040908190206001015490519216917f9628e6830a85317923223344f226c6bef45f85a4d1e39ca830554365e7c7d1ee9062000b169086906200134e565b60405180910390a3505050565b6060600780548060200260200160405190810160405280929190818152602001828054801562000b7d57602002820191906000526020600020905b81546001600160a01b0316815260019091019060200180831162000b5e575b5050505050905090565b62000b9162000ed1565b62000b9f8585858562000f7b565b60025434101562000bd15760025460405163cbc18e8b60e01b8152346004820152602481019190915260440162000996565b60008585853360405162000be59062001051565b62000bf4949392919062001363565b604051809103906000f08015801562000c11573d6000803e3d6000fd5b506040805160a0810182526001600160a01b0380841680835233602080850182815242868801908152606087018c81528b1515608089019081526000878152600586528a812099518a54908a166001600160a01b0319918216178b5594516001808c01805492909b1691871691909117909955925160028a015590516003808a019190915590516004988901805491151560ff199283161790559482528352878120805480880182559082528382200180548316861790558481529590915294842080549091168317905560078054928301815583527fa66cc928b5edb82af9bd49922954155ab7b0942694bea4ce44661d9a8736c6889091018054909316179091556008805492935083929162000d2983620013c4565b9190505550346009600082825462000d429190620013e0565b90915550506040516001600160a01b0382169062000d62908890620013fc565b60405180910390208860405162000d7a9190620013fc565b604080519182900382208983523360208401529082018890528615156060830152907f6c004c44227756ef66b389e77af04beae54400964b14ac0a1114af205b93a5c19060800160405180910390a4505062000dd560018055565b5050505050565b6001600160a01b03811660009081526003602090815260409182902080548351818402810184019094528084526060939283018282801562000e4857602002820191906000526020600020905b81546001600160a01b0316815260019091019060200180831162000e29575b50505050509050919050565b6003602052816000526040600020818154811062000e7157600080fd5b6000918252602090912001546001600160a01b03169150829050565b62000e9762000efc565b6001600160a01b03811662000ec357604051631e4fbdf760e01b81526000600482015260240162000996565b62000ece8162000f2b565b50565b60026001540362000ef557604051633ee5aeb560e01b815260040160405180910390fd5b6002600155565b6000546001600160a01b03163314620009615760405163118cdaa760e01b815233600482015260240162000996565b600080546001600160a01b038381166001600160a01b0319831681178455604051919092169283917f8be0079c531659141344cd1fd0a4f28419497f9722a3daafe3b4186f6b6457e09190a35050565b835160000362000f9e5760405163ebf810d160e01b815260040160405180910390fd5b825160000362000fc15760405163ebf810d160e01b815260040160405180910390fd5b6103e882101562000fe557604051630475df4360e01b815260040160405180910390fd5b633b9aca0082111562001019576040516399aaa60b60e01b815260048101839052633b9aca00602482015260440162000996565b62278d008110156200104b5760405163a3f94c4760e01b81526004810182905262278d00602482015260440162000996565b50505050565b61315d806200141b83390190565b80356001600160a01b03811681146200107757600080fd5b919050565b6000602082840312156200108f57600080fd5b6200109a826200105f565b9392505050565b60008060408385031215620010b557600080fd5b620010c0836200105f565b946020939093013593505050565b600060208284031215620010e157600080fd5b5035919050565b634e487b7160e01b600052604160045260246000fd5b600082601f8301126200111057600080fd5b813567ffffffffffffffff808211156200112e576200112e620010e8565b604051601f8301601f19908116603f01168101908282118183101715620011595762001159620010e8565b816040528381528660208588010111156200117357600080fd5b836020870160208301376000602085830101528094505050505092915050565b60008060408385031215620011a757600080fd5b620011b2836200105f565b9150602083013567ffffffffffffffff811115620011cf57600080fd5b620011dd85828601620010fe565b9150509250929050565b6020808252825182820181905260009190848201906040850190845b818110156200122a5783516001600160a01b03168352928401929184019160010162001203565b50909695505050505050565b801515811462000ece57600080fd5b600080600080600060a086880312156200125e57600080fd5b853567ffffffffffffffff808211156200127757600080fd5b6200128589838a01620010fe565b965060208801359150808211156200129c57600080fd5b50620012ab88828901620010fe565b94505060408601359250606086013591506080860135620012cc8162001236565b809150509295509295909350565b600060208284031215620012ed57600080fd5b81516200109a8162001236565b60005b8381101562001317578181015183820152602001620012fd565b50506000910152565b600081518084526200133a816020860160208601620012fa565b601f01601f19169290920160200192915050565b6020815260006200109a602083018462001320565b60808152600062001378608083018762001320565b82810360208401526200138c818762001320565b604084019590955250506001600160a01b039190911660609091015292915050565b634e487b7160e01b600052601160045260246000fd5b600060018201620013d957620013d9620013ae565b5060010190565b80820180821115620013f657620013f6620013ae565b92915050565b6000825162001410818460208701620012fa565b919091019291505056fe60a060405269d3c21bcecceda1000000600e55670de0b6b3a7640000600f556010805463ffffffff191663010101011790553480156200003e57600080fd5b506040516200315d3803806200315d8339810160408190526200006191620007f8565b80848460036200007283826200091d565b5060046200008182826200091d565b5050506001600160a01b038116620000b457604051631e4fbdf760e01b8152600060048201526024015b60405180910390fd5b620000bf8162000268565b5060016006558351600003620000e85760405163430f13b360e01b815260040160405180910390fd5b82516000036200010b5760405163010466f160e21b815260040160405180910390fd5b816000036200012d57604051631f2a200560e01b815260040160405180910390fd5b6200013b6012600a62000afe565b62000147908362000b16565b60805260006200015a6012600a62000afe565b62000166908462000b16565b9050600060646200017983600a62000b16565b62000185919062000b30565b9050600060646200019884601462000b16565b620001a4919062000b30565b9050600081620001b5848662000b53565b620001c1919062000b53565b9050620001cf8584620002c2565b620001e630620001e0838562000b69565b620002c2565b6064620001f585600162000b16565b62000201919062000b30565b600b5560646200021385600562000b16565b6200021f919062000b30565b600c555050306000908152600960205260408082208054600160ff1991821681179092556001600160a01b0396909616835291208054909416179092555062000b7f9350505050565b600580546001600160a01b03838116610100818102610100600160a81b031985161790945560405193909204169182907f8be0079c531659141344cd1fd0a4f28419497f9722a3daafe3b4186f6b6457e090600090a35050565b6001600160a01b038216620002ee5760405163ec442f0560e01b815260006004820152602401620000ab565b620002fc6000838362000300565b5050565b6001600160a01b038316158015906200032157506001600160a01b03821615155b1562000334576200033483838362000346565b62000341838383620005bf565b505050565b6001600160a01b03831660009081526007602052604090206002015460ff1680156200038a57506001600160a01b0383166000908152600760205260409020548111155b8015620003b157506001600160a01b03831660009081526007602052604090206001015442105b15620003fe576001600160a01b03831660008181526007602052604090819020600101549051630bb36add60e01b81526004810192909252602482018390526044820152606401620000ab565b6001600160a01b03831660009081526009602052604090205460ff16806200043e57506001600160a01b03821660009081526009602052604090205460ff165b156200044957505050565b60105460ff1615620005a157600b548111156200048857600b5460405163cc32805360e01b8152620000ab918391600401918252602082015260400190565b600c5481620004ac846001600160a01b031660009081526020819052604090205490565b620004b8919062000b69565b1115620005125780620004e0836001600160a01b031660009081526020819052604090205490565b620004ec919062000b69565b600c54604051637d22283760e01b815260048101929092526024820152604401620000ab565b6001600160a01b0383166000908152600860205260409020546200053a90610e109062000b69565b421015620005a1576001600160a01b038316600090815260086020526040902054839082906200056e90610e109062000b69565b604051630bb36add60e01b81526001600160a01b03909316600484015260248301919091526044820152606401620000ab565b50506001600160a01b03166000908152600860205260409020429055565b620005c9620005d6565b62000341838383620005fd565b60055460ff1615620005fb5760405163d93c066560e01b815260040160405180910390fd5b565b6001600160a01b0383166200062c57806002600082825462000620919062000b69565b90915550620006a09050565b6001600160a01b03831660009081526020819052604090205481811015620006815760405163391434e360e21b81526001600160a01b03851660048201526024810182905260448101839052606401620000ab565b6001600160a01b03841660009081526020819052604090209082900390555b6001600160a01b038216620006be57600280548290039055620006dd565b6001600160a01b03821660009081526020819052604090208054820190555b816001600160a01b0316836001600160a01b03167fddf252ad1be2c89b69c2b068fc378daa952ba7f163c4a11628f55a4df523b3ef836040516200072391815260200190565b60405180910390a3505050565b634e487b7160e01b600052604160045260246000fd5b600082601f8301126200075857600080fd5b81516001600160401b038082111562000775576200077562000730565b604051601f8301601f19908116603f01168101908282118183101715620007a057620007a062000730565b8160405283815260209250866020858801011115620007be57600080fd5b600091505b83821015620007e25785820183015181830184015290820190620007c3565b6000602085830101528094505050505092915050565b600080600080608085870312156200080f57600080fd5b84516001600160401b03808211156200082757600080fd5b620008358883890162000746565b955060208701519150808211156200084c57600080fd5b506200085b8782880162000746565b60408701516060880151919550935090506001600160a01b03811681146200088257600080fd5b939692955090935050565b600181811c90821680620008a257607f821691505b602082108103620008c357634e487b7160e01b600052602260045260246000fd5b50919050565b601f82111562000341576000816000526020600020601f850160051c81016020861015620008f45750805b601f850160051c820191505b81811015620009155782815560010162000900565b505050505050565b81516001600160401b0381111562000939576200093962000730565b62000951816200094a84546200088d565b84620008c9565b602080601f831160018114620009895760008415620009705750858301515b600019600386901b1c1916600185901b17855562000915565b600085815260208120601f198616915b82811015620009ba5788860151825594840194600190910190840162000999565b5085821015620009d95787850151600019600388901b60f8161c191681555b5050505050600190811b01905550565b634e487b7160e01b600052601160045260246000fd5b600181815b8085111562000a4057816000190482111562000a245762000a24620009e9565b8085161562000a3257918102915b93841c939080029062000a04565b509250929050565b60008262000a595750600162000af8565b8162000a685750600062000af8565b816001811462000a81576002811462000a8c5762000aac565b600191505062000af8565b60ff84111562000aa05762000aa0620009e9565b50506001821b62000af8565b5060208310610133831016604e8410600b841016171562000ad1575081810a62000af8565b62000add8383620009ff565b806000190482111562000af45762000af4620009e9565b0290505b92915050565b600062000b0f60ff84168362000a48565b9392505050565b808202811582820484141762000af85762000af8620009e9565b60008262000b4e57634e487b7160e01b600052601260045260246000fd5b500490565b8181038181111562000af85762000af8620009e9565b8082018082111562000af85762000af8620009e9565b6080516125bb62000ba260003960008181610481015261166401526125bb6000f3fe608060405234801561001057600080fd5b506004361061038e5760003560e01c806379cc6790116101de578063acec8ca91161010f578063da35c664116100ad578063ee5967f51161007c578063ee5967f51461087e578063ee8a7c1514610891578063f2fde38b14610899578063f968f493146108ac57600080fd5b8063da35c66414610820578063dc38679c14610829578063dd62ed3e14610832578063deefce681461086b57600080fd5b8063c7f758a8116100e9578063c7f758a8146107c1578063c9d27afe146107e7578063ce144e0a146107fa578063ce2661f11461080d57600080fd5b8063acec8ca9146107a1578063ad32be6a146107aa578063b1610d7e146107b757600080fd5b806395d89b411161017c5780639fd6db12116101565780639fd6db1214610760578063a9059cbb14610772578063a9e7572314610785578063acaefb201461078e57600080fd5b806395d89b411461073257806396ae946f1461073a5780639bc7c8c01461074d57600080fd5b806389158d8e116101b857806389158d8e146106d05780638bf55409146106e35780638da5cb5b146106f65780639281aa0b1461071f57600080fd5b806379cc6790146106a15780637a4a3412146106b457806381eaae48146106bd57600080fd5b806349c2a1a6116102c35780635eb7413a116102615780636cf5bb63116102305780636cf5bb631461064a57806370a082311461067c578063715018a61461068f57806378b4330f1461069757600080fd5b80635eb7413a1461057e5780636a64eff8146105cd5780636b2d95d4146105e05780636c24a76f1461063757600080fd5b80634ea3871a1161029d5780634ea3871a1461054d5780634f1bfc9e1461056057806351858e271461056b5780635c975abb1461057357600080fd5b806349c2a1a61461051f5780634a4e3bd5146105325780634d7547151461053a57600080fd5b806323b872dd11610330578063333e6f061161030a578063333e6f06146104a35780633af32abf146104ac57806342966c68146104cf57806343859632146104e257600080fd5b806323b872dd1461045a578063313ce5671461046d57806332cb6b0c1461047c57600080fd5b80630b3978fc1161036c5780630b3978fc146103fb5780630d2d8a311461040f5780630d61b5191461043d57806318160ddd1461045257600080fd5b8063013cf08b1461039357806306fdde03146103c3578063095ea7b3146103d8575b600080fd5b6103a66103a1366004611fb3565b6108b4565b6040516103ba989796959493929190612012565b60405180910390f35b6103cb61098e565b6040516103ba919061206d565b6103eb6103e63660046120a3565b610a20565b60405190151581526020016103ba565b6010546103eb906301000000900460ff1681565b61042f61041d3660046120cd565b60086020526000908152604090205481565b6040519081526020016103ba565b61045061044b366004611fb3565b610a3a565b005b60025461042f565b6103eb6104683660046120e8565b610b5c565b604051601281526020016103ba565b61042f7f000000000000000000000000000000000000000000000000000000000000000081565b61042f600c5481565b6103eb6104ba3660046120cd565b60096020526000908152604090205460ff1681565b6104506104dd366004611fb3565b610b80565b6103eb6104f0366004612124565b6000828152600a602090815260408083206001600160a01b038516845260070190915290205460ff1692915050565b61042f61052d366004612166565b610b8d565b610450610cb4565b6010546103eb9062010000900460ff1681565b61045061055b366004612225565b610cc6565b61042f6301e1338081565b610450610ce8565b60055460ff166103eb565b6105b061058c3660046120cd565b60076020526000908152604090208054600182015460029092015490919060ff1683565b6040805193845260208401929092521515908201526060016103ba565b6104506105db366004611fb3565b610cf8565b6105b06105ee3660046120cd565b6001600160a01b031660009081526007602090815260409182902082516060810184528154808252600183015493820184905260029092015460ff161515930183905292909190565b61042f6106453660046120cd565b610d05565b6105b06106583660046120cd565b60116020526000908152604090208054600182015460029092015490919060ff1683565b61042f61068a3660046120cd565b610d95565b610450610db0565b61042f6201518081565b6104506106af3660046120a3565b610dc2565b61042f610e1081565b6104506106cb366004612225565b610ddb565b6104506106de366004612242565b610dff565b6104506106f1366004611fb3565b610f65565b60055461010090046001600160a01b03166040516001600160a01b0390911681526020016103ba565b61045061072d366004612264565b610fb3565b6103cb610fe6565b6104506107483660046120cd565b610ff5565b61045061075b366004611fb3565b611188565b6010546103eb90610100900460ff1681565b6103eb6107803660046120a3565b6111ce565b61042f600b5481565b61045061079c366004612225565b6111dc565b61042f600e5481565b6010546103eb9060ff1681565b61042f62093a8081565b6107d46107cf366004611fb3565b6111f7565b6040516103ba979695949392919061229b565b6104506107f53660046122ed565b6112f9565b610450610808366004612312565b611457565b61045061081b366004612225565b6115e8565b61042f600d5481565b61042f600f5481565b61042f610840366004612345565b6001600160a01b03918216600090815260016020908152604080832093909416825291909152205490565b610450610879366004612242565b61160e565b61045061088c366004612242565b611712565b61042f600a81565b6104506108a73660046120cd565b6117c7565b610450611802565b600a6020526000908152604090208054600182015460028301805492936001600160a01b03909216926108e69061236f565b80601f01602080910402602001604051908101604052809291908181526020018280546109129061236f565b801561095f5780601f106109345761010080835404028352916020019161095f565b820191906000526020600020905b81548152906001019060200180831161094257829003601f168201915b505050506003830154600484015460058501546006909501549394919390925060ff8082169161010090041688565b60606003805461099d9061236f565b80601f01602080910402602001604051908101604052809291908181526020018280546109c99061236f565b8015610a165780601f106109eb57610100808354040283529160200191610a16565b820191906000526020600020905b8154815290600101906020018083116109f957829003601f168201915b5050505050905090565b600033610a2e8185856118cb565b60019150505b92915050565b6000818152600a602052604090206006810154610100900460ff16610a7257604051631dc0650160e31b815260040160405180910390fd5b8060050154421015610a9757604051637becc13f60e01b815260040160405180910390fd5b600681015460ff1615610abd57604051631dc0650160e31b815260040160405180910390fd5b600081600401548260030154610ad391906123bf565b905060006064600a610ae460025490565b610aee91906123d2565b610af891906123e9565b905080821015610b1b5760405163aa26a69360e01b815260040160405180910390fd5b60068301805461ffff1916600117905560405184907f712ae1383f79ac853f8d882153778e0260ef8f03b504e2866e0593e04d2b291f90600090a250505050565b600033610b6a8582856118dd565b610b75858585611949565b506001949350505050565b610b8a33826119a8565b50565b6010546000906301000000900460ff16610bba57604051631ee7b5bd60e21b815260040160405180910390fd5b6064610bc560025490565b610bd09060016123d2565b610bda91906123e9565b610be333610d95565b1015610c0257604051631ee7b5bd60e21b815260040160405180910390fd5b600d805460009182610c138361240b565b909155506000818152600a602052604090208181556001810180546001600160a01b0319163317905590915060028101610c4d8582612474565b50610c5b62093a80426123bf565b600582015560068101805461ff001916610100179055604051339083907f7585f467599d0f008985f231af99293be388626ac16ca59505c2f8f88969cd6390610ca590889061206d565b60405180910390a35092915050565b610cbc6119de565b610cc4611a11565b565b610cce6119de565b601080549115156101000261ff0019909216919091179055565b610cf06119de565b610cc4611a63565b610d006119de565b600f55565b600080610d1183610d95565b6001600160a01b0384166000908152600760209081526040918290208251606081018452815481526001820154928101929092526002015460ff1615801592820183905292935091610d665750806020015142105b15610d8e5780518211610d7a576000610d86565b8051610d869083612534565b949350505050565b5092915050565b6001600160a01b031660009081526020819052604090205490565b610db86119de565b610cc46000611aa0565b610dcd8233836118dd565b610dd782826119a8565b5050565b610de36119de565b60108054911515620100000262ff000019909216919091179055565b81600003610e2057604051631f2a200560e01b815260040160405180910390fd5b62015180811080610e3457506301e1338081115b15610e5a576040516346b60f8b60e01b8152600481018290526024015b60405180910390fd5b3360009081526007602052604090206002015460ff1615610e9057604051630c943e6360e31b8152336004820152602401610e51565b81610e9a33610d95565b1015610ecd57610ea933610d95565b60405163cf47918160e01b8152600481019190915260248101839052604401610e51565b6000610ed982426123bf565b60408051606081018252858152602080820184815260018385018181523360008181526007865287902095518655925191850191909155516002909301805460ff1916931515939093179092558251878152908101849052929350917fd741e738a23fd18a03a26522320d9fc6cac1fed483e215ea9150fbc2fc43385d910160405180910390a2505050565b610f6d6119de565b600b80549082905560408051828152602081018490527f1e7d225cb161c2f834852cd521d7ee05358af80025a0e937483c51e42bfc13de91015b60405180910390a15050565b610fbb6119de565b6001600160a01b03919091166000908152600960205260409020805460ff1916911515919091179055565b60606004805461099d9061236f565b610ffd6119de565b6001600160a01b0381166000908152601160205260409020600281015460ff1661105f5760405162461bcd60e51b8152602060048201526013602482015272139bc81b1a5c5d5a591a5d1e481b1bd8dad959606a1b6044820152606401610e51565b60018101546110719062278d006123bf565b42116110bf5760405162461bcd60e51b815260206004820152601a60248201527f456d657267656e637920756e6c6f636b20746f6f206561726c790000000000006044820152606401610e51565b816001600160a01b031663a9059cbb6110e66005546001600160a01b036101009091041690565b835460405160e084901b6001600160e01b03191681526001600160a01b03909216600483015260248201526044016020604051808303816000875af1158015611133573d6000803e3d6000fd5b505050506040513d601f19601f820116820180604052508101906111579190612547565b50506001600160a01b031660009081526011602052604081208181556001810191909155600201805460ff19169055565b6111906119de565b600c80549082905560408051828152602081018490527f8a042c1cf423d7de2c3c2d014ebb0ec2bb4922c21ec17aae380eb45e4730eb209101610fa7565b600033610a2e818585611949565b6111e46119de565b6010805460ff1916911515919091179055565b6000818152600a60205260408120600181015460038201546004830154600584015460068501546002860180546060978997889788978897889794966001600160a01b0390941695939492939192909160ff8083169261010090041690869061125f9061236f565b80601f016020809104026020016040519081016040528092919081815260200182805461128b9061236f565b80156112d85780601f106112ad576101008083540402835291602001916112d8565b820191906000526020600020905b8154815290600101906020018083116112bb57829003601f168201915b50505050509550975097509750975097509750975050919395979092949650565b6000828152600a602052604090206006810154610100900460ff1661133157604051637becc13f60e01b815260040160405180910390fd5b8060050154421061135557604051637becc13f60e01b815260040160405180910390fd5b33600090815260078201602052604090205460ff161561138857604051637c9a1cf960e01b815260040160405180910390fd5b600061139333610d95565b9050806000036113b657604051631ee7b5bd60e21b815260040160405180910390fd5b3360009081526007830160205260409020805460ff1916600117905582156113f757808260030160008282546113ec91906123bf565b909155506114119050565b8082600401600082825461140b91906123bf565b90915550505b60408051841515815260208101839052339186917fcbdf6214089cba887ecbf35a0b6a734589959c9763342c756bb2a80ca2bc9f6e91015b60405180910390a350505050565b61145f6119de565b6001600160a01b0383166114865760405163d92e233d60e01b815260040160405180910390fd5b816000036114a757604051631f2a200560e01b815260040160405180910390fd5b620151808110156114ce576040516346b60f8b60e01b815260048101829052602401610e51565b6040516323b872dd60e01b8152336004820152306024820152604481018390526001600160a01b038416906323b872dd906064016020604051808303816000875af1158015611521573d6000803e3d6000fd5b505050506040513d601f19601f820116820180604052508101906115459190612547565b50600061155282426123bf565b60408051606081018252858152602080820184815260018385018181526001600160a01b038b1660008181526011865287902095518655925191850191909155516002909301805460ff1916931515939093179092558251878152908101849052929350917fe3afae9ec63e6f2e914c17bab8493b603680a72d9e6dfacf25ac6a4806555d41910160405180910390a250505050565b6115f06119de565b6010805491151563010000000263ff00000019909216919091179055565b6116166119de565b601054610100900460ff1661163e576040516375ab03ab60e11b815260040160405180910390fd5b816000036116625760405163383ecc7560e21b815260048101839052602401610e51565b7f00000000000000000000000000000000000000000000000000000000000000008261168d60025490565b61169791906123bf565b11156116b95760405163383ecc7560e21b815260048101839052602401610e51565b600f54811180156116cd5750600e54600254105b15610dd7576116dc3083611afa565b60408051838152602081018390527f2bf03ee653234e47dfb7f1bfefeac974247a204c1a68d5a2179e120ad1200a039101610fa7565b61171a6119de565b60105462010000900460ff166117435760405163b063598560e01b815260040160405180910390fd5b8160000361176457604051631f2a200560e01b815260040160405180910390fd5b8161176e30610d95565b101561177d57610ea930610d95565b600f54811015610dd75761179130836119a8565b60408051838152602081018390527f5f22dc3acaec5eff838f7bd63e00f420f4441b015ab564298c79b9f1cda38b2f9101610fa7565b6117cf6119de565b6001600160a01b0381166117f957604051631e4fbdf760e01b815260006004820152602401610e51565b610b8a81611aa0565b336000908152600760205260409020600281015460ff16611838576040516316b5a5ef60e01b8152336004820152602401610e51565b806001015442101561186557806001015460405163d36971e360e01b8152600401610e5191815260200190565b80543360008181526007602052604080822082815560018101929092556002909101805460ff19169055517fe7b379c6c1fa169e9079c25e9143b127637eef8ec8c9d5c06ddb4ab3e1195888906118bf9084815260200190565b60405180910390a25050565b6118d88383836001611b30565b505050565b6001600160a01b03838116600090815260016020908152604080832093861683529290522054600019811015611943578181101561193457828183604051637dc7a0d960e11b8152600401610e5193929190612564565b61194384848484036000611b30565b50505050565b6001600160a01b03831661197357604051634b637e8f60e11b815260006004820152602401610e51565b6001600160a01b03821661199d5760405163ec442f0560e01b815260006004820152602401610e51565b6118d8838383611bf7565b6001600160a01b0382166119d257604051634b637e8f60e11b815260006004820152602401610e51565b610dd782600083611bf7565b6005546001600160a01b03610100909104163314610cc45760405163118cdaa760e01b8152336004820152602401610e51565b611a19611c32565b6005805460ff191690557f5db9ee0a495bf2e6ff9c91a7834c1ba4fdd244a5e8aa4e537bd38aeae4b073aa335b6040516001600160a01b03909116815260200160405180910390a1565b611a6b611c55565b6005805460ff191660011790557f62e78cea01bee320cd4e420270b5ea74000d11b0c9f74754ebdbfc544b05a258611a463390565b600580546001600160a01b03838116610100818102610100600160a81b031985161790945560405193909204169182907f8be0079c531659141344cd1fd0a4f28419497f9722a3daafe3b4186f6b6457e090600090a35050565b6001600160a01b038216611b245760405163ec442f0560e01b815260006004820152602401610e51565b610dd760008383611bf7565b6001600160a01b038416611b5a5760405163e602df0560e01b815260006004820152602401610e51565b6001600160a01b038316611b8457604051634a1406b160e11b815260006004820152602401610e51565b6001600160a01b038085166000908152600160209081526040808320938716835292905220829055801561194357826001600160a01b0316846001600160a01b03167f8c5be1e5ebec7d5bd14f71427d1e84f3dd0314c0f7b2291e5b200ac8c7c3b9258460405161144991815260200190565b6001600160a01b03831615801590611c1757506001600160a01b03821615155b15611c2757611c27838383611c79565b6118d8838383611e8e565b60055460ff16610cc457604051638dfc202b60e01b815260040160405180910390fd5b60055460ff1615610cc45760405163d93c066560e01b815260040160405180910390fd5b6001600160a01b03831660009081526007602052604090206002015460ff168015611cbc57506001600160a01b0383166000908152600760205260409020548111155b8015611ce257506001600160a01b03831660009081526007602052604090206001015442105b15611d22576001600160a01b03831660009081526007602052604090819020600101549051630bb36add60e01b8152610e51918591849190600401612564565b6001600160a01b03831660009081526009602052604090205460ff1680611d6157506001600160a01b03821660009081526009602052604090205460ff165b15611d6b57505050565b60105460ff1615611e7057600b54811115611da757600b5460405163cc32805360e01b8152610e51918391600401918252602082015260400190565b600c5481611db484610d95565b611dbe91906123bf565b1115611dfd5780611dce83610d95565b611dd891906123bf565b600c54604051637d22283760e01b815260048101929092526024820152604401610e51565b6001600160a01b038316600090815260086020526040902054611e2390610e10906123bf565b421015611e70576001600160a01b03831660009081526008602052604090205483908290611e5490610e10906123bf565b604051630bb36add60e01b8152600401610e5193929190612564565b50506001600160a01b03166000908152600860205260409020429055565b611e96611c55565b6118d88383836001600160a01b038316611ec7578060026000828254611ebc91906123bf565b90915550611f269050565b6001600160a01b03831660009081526020819052604090205481811015611f075783818360405163391434e360e21b8152600401610e5193929190612564565b6001600160a01b03841660009081526020819052604090209082900390555b6001600160a01b038216611f4257600280548290039055611f61565b6001600160a01b03821660009081526020819052604090208054820190555b816001600160a01b0316836001600160a01b03167fddf252ad1be2c89b69c2b068fc378daa952ba7f163c4a11628f55a4df523b3ef83604051611fa691815260200190565b60405180910390a3505050565b600060208284031215611fc557600080fd5b5035919050565b6000815180845260005b81811015611ff257602081850181015186830182015201611fd6565b506000602082860101526020601f19601f83011685010191505092915050565b8881526001600160a01b03881660208201526101006040820181905260009061203d8382018a611fcc565b60608401989098525050608081019490945260a0840192909252151560c0830152151560e0909101529392505050565b6020815260006120806020830184611fcc565b9392505050565b80356001600160a01b038116811461209e57600080fd5b919050565b600080604083850312156120b657600080fd5b6120bf83612087565b946020939093013593505050565b6000602082840312156120df57600080fd5b61208082612087565b6000806000606084860312156120fd57600080fd5b61210684612087565b925061211460208501612087565b9150604084013590509250925092565b6000806040838503121561213757600080fd5b8235915061214760208401612087565b90509250929050565b634e487b7160e01b600052604160045260246000fd5b60006020828403121561217857600080fd5b813567ffffffffffffffff8082111561219057600080fd5b818401915084601f8301126121a457600080fd5b8135818111156121b6576121b6612150565b604051601f8201601f19908116603f011681019083821181831017156121de576121de612150565b816040528281528760208487010111156121f757600080fd5b826020860160208301376000928101602001929092525095945050505050565b8015158114610b8a57600080fd5b60006020828403121561223757600080fd5b813561208081612217565b6000806040838503121561225557600080fd5b50508035926020909101359150565b6000806040838503121561227757600080fd5b61228083612087565b9150602083013561229081612217565b809150509250929050565b6001600160a01b038816815260e0602082018190526000906122bf90830189611fcc565b60408301979097525060608101949094526080840192909252151560a0830152151560c09091015292915050565b6000806040838503121561230057600080fd5b82359150602083013561229081612217565b60008060006060848603121561232757600080fd5b61233084612087565b95602085013595506040909401359392505050565b6000806040838503121561235857600080fd5b61236183612087565b915061214760208401612087565b600181811c9082168061238357607f821691505b6020821081036123a357634e487b7160e01b600052602260045260246000fd5b50919050565b634e487b7160e01b600052601160045260246000fd5b80820180821115610a3457610a346123a9565b8082028115828204841417610a3457610a346123a9565b60008261240657634e487b7160e01b600052601260045260246000fd5b500490565b60006001820161241d5761241d6123a9565b5060010190565b601f8211156118d8576000816000526020600020601f850160051c8101602086101561244d5750805b601f850160051c820191505b8181101561246c57828155600101612459565b505050505050565b815167ffffffffffffffff81111561248e5761248e612150565b6124a28161249c845461236f565b84612424565b602080601f8311600181146124d757600084156124bf5750858301515b600019600386901b1c1916600185901b17855561246c565b600085815260208120601f198616915b82811015612506578886015182559484019460019091019084016124e7565b50858210156125245787850151600019600388901b60f8161c191681555b5050505050600190811b01905550565b81810381811115610a3457610a346123a9565b60006020828403121561255957600080fd5b815161208081612217565b6001600160a01b03939093168352602083019190915260408201526060019056fea26469706673582212204b3e182e658fb74c3d6fd5807f12dc0215a4290ef428e3efd44a61f58e19598164736f6c63430008180033a2646970667358221220958fa2788cf822b446cec9771eed242cd0e1445c4ca4387e13ec7ab5b01a7de364736f6c63430008180033",
          "opcodes": "PUSH1 0x80 PUSH1 0x40 MSTORE PUSH7 0xB1A2BC2EC50000 PUSH1 0x2 SSTORE CALLVALUE DUP1 ISZERO PUSH2 0x1B JUMPI PUSH1 0x0 DUP1 REVERT JUMPDEST POP CALLER DUP1 PUSH2 0x42 JUMPI PUSH1 0x40 MLOAD PUSH4 0x1E4FBDF7 PUSH1 0xE0 SHL DUP2 MSTORE PUSH1 0x0 PUSH1 0x4 DUP3 ADD MSTORE PUSH1 0x24 ADD PUSH1 0x40 MLOAD DUP1 SWAP2 SUB SWAP1 REVERT JUMPDEST PUSH2 0x4B DUP2 PUSH2 0x55 JUMP JUMPDEST POP PUSH1 0x1 DUP1 SSTORE PUSH2 0xA5 JUMP JUMPDEST PUSH1 0x0 DUP1 SLOAD PUSH1 0x1 PUSH1 0x1 PUSH1 0xA0 SHL SUB DUP4 DUP2 AND PUSH1 0x1 PUSH1 0x1 PUSH1 0xA0 SHL SUB NOT DUP4 AND DUP2 OR DUP5 SSTORE PUSH1 0x40 MLOAD SWAP2 SWAP1 SWAP3 AND SWAP3 DUP4 SWAP2 PUSH32 0x8BE0079C531659141344CD1FD0A4F28419497F9722A3DAAFE3B4186F6B6457E0 SWAP2 SWAP1 LOG3 POP POP JUMP JUMPDEST PUSH2 0x45AD DUP1 PUSH2 0xB4 PUSH1 0x0 CODECOPY PUSH1 0x0 RETURN INVALID PUSH1 0x80 PUSH1 0x40 MSTORE PUSH1 0x4 CALLDATASIZE LT PUSH3 0x15F JUMPI PUSH1 0x0 CALLDATALOAD PUSH1 0xE0 SHR DUP1 PUSH4 0x7D9E5D88 GT PUSH3 0xBF JUMPI DUP1 PUSH4 0xD3B65A70 GT PUSH3 0x75 JUMPI DUP1 PUSH4 0xD3B65A70 EQ PUSH3 0x4C4 JUMPI DUP1 PUSH4 0xD5C71275 EQ PUSH3 0x4DB JUMPI DUP1 PUSH4 0xDB3FA4CC EQ PUSH3 0x500 JUMPI DUP1 PUSH4 0xED94C7F4 EQ PUSH3 0x525 JUMPI DUP1 PUSH4 0xF2FDE38B EQ PUSH3 0x53D JUMPI DUP1 PUSH4 0xF5DAB711 EQ PUSH3 0x562 JUMPI STOP JUMPDEST DUP1 PUSH4 0x7D9E5D88 EQ PUSH3 0x39D JUMPI DUP1 PUSH4 0x822F694B EQ PUSH3 0x3C2 JUMPI DUP1 PUSH4 0x8DA5CB5B EQ PUSH3 0x3E9 JUMPI DUP1 PUSH4 0xBC063E1A EQ PUSH3 0x409 JUMPI DUP1 PUSH4 0xC9226445 EQ PUSH3 0x427 JUMPI DUP1 PUSH4 0xCB7F43FE EQ PUSH3 0x458 JUMPI STOP JUMPDEST DUP1 PUSH4 0x4C1C7DDF GT PUSH3 0x115 JUMPI DUP1 PUSH4 0x4C1C7DDF EQ PUSH3 0x2B9 JUMPI DUP1 PUSH4 0x5122C409 EQ PUSH3 0x2FE JUMPI DUP1 PUSH4 0x60C6D8AE EQ PUSH3 0x316 JUMPI DUP1 PUSH4 0x6DDE8668 EQ PUSH3 0x32E JUMPI DUP1 PUSH4 0x706C7729 EQ PUSH3 0x347 JUMPI DUP1 PUSH4 0x715018A6 EQ PUSH3 0x385 JUMPI STOP JUMPDEST DUP1 PUSH4 0x7FE2ADF EQ PUSH3 0x169 JUMPI DUP1 PUSH4 0x1F69565F EQ PUSH3 0x194 JUMPI DUP1 PUSH4 0x33039D3D EQ PUSH3 0x24B JUMPI DUP1 PUSH4 0x451A960B EQ PUSH3 0x265 JUMPI DUP1 PUSH4 0x476343EE EQ PUSH3 0x27C JUMPI DUP1 PUSH4 0x4AED8750 EQ PUSH3 0x294 JUMPI STOP JUMPDEST CALLDATASIZE PUSH3 0x167 JUMPI STOP JUMPDEST STOP JUMPDEST CALLVALUE DUP1 ISZERO PUSH3 0x176 JUMPI PUSH1 0x0 DUP1 REVERT JUMPDEST POP PUSH3 0x181 PUSH1 0x8 SLOAD DUP2 JUMP JUMPDEST PUSH1 0x40 MLOAD SWAP1 DUP2 MSTORE PUSH1 0x20 ADD JUMPDEST PUSH1 0x40 MLOAD DUP1 SWAP2 SUB SWAP1 RETURN JUMPDEST CALLVALUE DUP1 ISZERO PUSH3 0x1A1 JUMPI PUSH1 0x0 DUP1 REVERT JUMPDEST POP PUSH3 0x21E PUSH3 0x1B3 CALLDATASIZE PUSH1 0x4 PUSH3 0x107C JUMP JUMPDEST PUSH1 0x1 PUSH1 0x1 PUSH1 0xA0 SHL SUB SWAP1 DUP2 AND PUSH1 0x0 SWAP1 DUP2 MSTORE PUSH1 0x5 PUSH1 0x20 SWAP1 DUP2 MSTORE PUSH1 0x40 SWAP2 DUP3 SWAP1 KECCAK256 DUP3 MLOAD PUSH1 0xA0 DUP2 ADD DUP5 MSTORE DUP2 SLOAD DUP6 AND DUP2 MSTORE PUSH1 0x1 DUP3 ADD SLOAD SWAP1 SWAP5 AND SWAP2 DUP5 ADD DUP3 SWAP1 MSTORE PUSH1 0x2 DUP2 ADD SLOAD SWAP3 DUP5 ADD DUP4 SWAP1 MSTORE PUSH1 0x3 DUP2 ADD SLOAD PUSH1 0x60 DUP6 ADD DUP2 SWAP1 MSTORE PUSH1 0x4 SWAP1 SWAP2 ADD SLOAD PUSH1 0xFF AND ISZERO ISZERO PUSH1 0x80 SWAP1 SWAP5 ADD DUP5 SWAP1 MSTORE SWAP1 SWAP4 SWAP2 SWAP3 SWAP1 SWAP2 JUMP JUMPDEST PUSH1 0x40 DUP1 MLOAD PUSH1 0x1 PUSH1 0x1 PUSH1 0xA0 SHL SUB SWAP1 SWAP6 AND DUP6 MSTORE PUSH1 0x20 DUP6 ADD SWAP4 SWAP1 SWAP4 MSTORE SWAP2 DUP4 ADD MSTORE ISZERO ISZERO PUSH1 0x60 DUP3 ADD MSTORE PUSH1 0x80 ADD PUSH3 0x18B JUMP JUMPDEST CALLVALUE DUP1 ISZERO PUSH3 0x258 JUMPI PUSH1 0x0 DUP1 REVERT JUMPDEST POP PUSH3 0x181 PUSH4 0x3B9ACA00 DUP2 JUMP JUMPDEST PUSH3 0x167 PUSH3 0x276 CALLDATASIZE PUSH1 0x4 PUSH3 0x10A1 JUMP JUMPDEST PUSH3 0x5F5 JUMP JUMPDEST CALLVALUE DUP1 ISZERO PUSH3 0x289 JUMPI PUSH1 0x0 DUP1 REVERT JUMPDEST POP PUSH3 0x167 PUSH3 0x857 JUMP JUMPDEST CALLVALUE DUP1 ISZERO PUSH3 0x2A1 JUMPI PUSH1 0x0 DUP1 REVERT JUMPDEST POP PUSH3 0x167 PUSH3 0x2B3 CALLDATASIZE PUSH1 0x4 PUSH3 0x10CE JUMP JUMPDEST PUSH3 0x963 JUMP JUMPDEST CALLVALUE DUP1 ISZERO PUSH3 0x2C6 JUMPI PUSH1 0x0 DUP1 REVERT JUMPDEST POP PUSH3 0x2ED PUSH3 0x2D8 CALLDATASIZE PUSH1 0x4 PUSH3 0x107C JUMP JUMPDEST PUSH1 0x4 PUSH1 0x20 MSTORE PUSH1 0x0 SWAP1 DUP2 MSTORE PUSH1 0x40 SWAP1 KECCAK256 SLOAD PUSH1 0xFF AND DUP2 JUMP JUMPDEST PUSH1 0x40 MLOAD SWAP1 ISZERO ISZERO DUP2 MSTORE PUSH1 0x20 ADD PUSH3 0x18B JUMP JUMPDEST CALLVALUE DUP1 ISZERO PUSH3 0x30B JUMPI PUSH1 0x0 DUP1 REVERT JUMPDEST POP PUSH3 0x181 PUSH2 0x3E8 DUP2 JUMP JUMPDEST CALLVALUE DUP1 ISZERO PUSH3 0x323 JUMPI PUSH1 0x0 DUP1 REVERT JUMPDEST POP PUSH3 0x181 PUSH1 0x9 SLOAD DUP2 JUMP JUMPDEST CALLVALUE DUP1 ISZERO PUSH3 0x33B JUMPI PUSH1 0x0 DUP1 REVERT JUMPDEST POP PUSH3 0x181 PUSH3 0x278D00 DUP2 JUMP JUMPDEST CALLVALUE DUP1 ISZERO PUSH3 0x354 JUMPI PUSH1 0x0 DUP1 REVERT JUMPDEST POP PUSH3 0x36C PUSH3 0x366 CALLDATASIZE PUSH1 0x4 PUSH3 0x10CE JUMP JUMPDEST PUSH3 0x9E4 JUMP JUMPDEST PUSH1 0x40 MLOAD PUSH1 0x1 PUSH1 0x1 PUSH1 0xA0 SHL SUB SWAP1 SWAP2 AND DUP2 MSTORE PUSH1 0x20 ADD PUSH3 0x18B JUMP JUMPDEST CALLVALUE DUP1 ISZERO PUSH3 0x392 JUMPI PUSH1 0x0 DUP1 REVERT JUMPDEST POP PUSH3 0x167 PUSH3 0xA0F JUMP JUMPDEST CALLVALUE DUP1 ISZERO PUSH3 0x3AA JUMPI PUSH1 0x0 DUP1 REVERT JUMPDEST POP PUSH3 0x167 PUSH3 0x3BC CALLDATASIZE PUSH1 0x4 PUSH3 0x1193 JUMP JUMPDEST PUSH3 0xA25 JUMP JUMPDEST CALLVALUE DUP1 ISZERO PUSH3 0x3CF JUMPI PUSH1 0x0 DUP1 REVERT JUMPDEST POP PUSH3 0x3DA PUSH3 0xB23 JUMP JUMPDEST PUSH1 0x40 MLOAD PUSH3 0x18B SWAP2 SWAP1 PUSH3 0x11E7 JUMP JUMPDEST CALLVALUE DUP1 ISZERO PUSH3 0x3F6 JUMPI PUSH1 0x0 DUP1 REVERT JUMPDEST POP PUSH1 0x0 SLOAD PUSH1 0x1 PUSH1 0x1 PUSH1 0xA0 SHL SUB AND PUSH3 0x36C JUMP JUMPDEST CALLVALUE DUP1 ISZERO PUSH3 0x416 JUMPI PUSH1 0x0 DUP1 REVERT JUMPDEST POP PUSH3 0x181 PUSH8 0xDE0B6B3A7640000 DUP2 JUMP JUMPDEST CALLVALUE DUP1 ISZERO PUSH3 0x434 JUMPI PUSH1 0x0 DUP1 REVERT JUMPDEST POP PUSH1 0x8 SLOAD PUSH1 0x9 SLOAD SELFBALANCE PUSH1 0x40 DUP1 MLOAD SWAP4 DUP5 MSTORE PUSH1 0x20 DUP5 ADD SWAP3 SWAP1 SWAP3 MSTORE SWAP1 DUP3 ADD MSTORE PUSH1 0x60 ADD PUSH3 0x18B JUMP JUMPDEST CALLVALUE DUP1 ISZERO PUSH3 0x465 JUMPI PUSH1 0x0 DUP1 REVERT JUMPDEST POP PUSH3 0x4A1 PUSH3 0x477 CALLDATASIZE PUSH1 0x4 PUSH3 0x107C JUMP JUMPDEST PUSH1 0x6 PUSH1 0x20 MSTORE PUSH1 0x0 SWAP1 DUP2 MSTORE PUSH1 0x40 SWAP1 KECCAK256 DUP1 SLOAD PUSH1 0x1 DUP3 ADD SLOAD PUSH1 0x2 DUP4 ADD SLOAD PUSH1 0x3 SWAP1 SWAP4 ADD SLOAD SWAP2 SWAP3 SWAP1 SWAP2 PUSH1 0xFF AND DUP5 JUMP JUMPDEST PUSH1 0x40 DUP1 MLOAD SWAP5 DUP6 MSTORE PUSH1 0x20 DUP6 ADD SWAP4 SWAP1 SWAP4 MSTORE SWAP2 DUP4 ADD MSTORE ISZERO ISZERO PUSH1 0x60 DUP3 ADD MSTORE PUSH1 0x80 ADD PUSH3 0x18B JUMP JUMPDEST PUSH3 0x167 PUSH3 0x4D5 CALLDATASIZE PUSH1 0x4 PUSH3 0x1245 JUMP JUMPDEST PUSH3 0xB87 JUMP JUMPDEST CALLVALUE DUP1 ISZERO PUSH3 0x4E8 JUMPI PUSH1 0x0 DUP1 REVERT JUMPDEST POP PUSH3 0x3DA PUSH3 0x4FA CALLDATASIZE PUSH1 0x4 PUSH3 0x107C JUMP JUMPDEST PUSH3 0xDDC JUMP JUMPDEST CALLVALUE DUP1 ISZERO PUSH3 0x50D JUMPI PUSH1 0x0 DUP1 REVERT JUMPDEST POP PUSH3 0x36C PUSH3 0x51F CALLDATASIZE PUSH1 0x4 PUSH3 0x10A1 JUMP JUMPDEST PUSH3 0xE54 JUMP JUMPDEST CALLVALUE DUP1 ISZERO PUSH3 0x532 JUMPI PUSH1 0x0 DUP1 REVERT JUMPDEST POP PUSH3 0x181 PUSH1 0x2 SLOAD DUP2 JUMP JUMPDEST CALLVALUE DUP1 ISZERO PUSH3 0x54A JUMPI PUSH1 0x0 DUP1 REVERT JUMPDEST POP PUSH3 0x167 PUSH3 0x55C CALLDATASIZE PUSH1 0x4 PUSH3 0x107C JUMP JUMPDEST PUSH3 0xE8D JUMP JUMPDEST CALLVALUE DUP1 ISZERO PUSH3 0x56F JUMPI PUSH1 0x0 DUP1 REVERT JUMPDEST POP PUSH3 0x5BF PUSH3 0x581 CALLDATASIZE PUSH1 0x4 PUSH3 0x107C JUMP JUMPDEST PUSH1 0x5 PUSH1 0x20 MSTORE PUSH1 0x0 SWAP1 DUP2 MSTORE PUSH1 0x40 SWAP1 KECCAK256 DUP1 SLOAD PUSH1 0x1 DUP3 ADD SLOAD PUSH1 0x2 DUP4 ADD SLOAD PUSH1 0x3 DUP5 ADD SLOAD PUSH1 0x4 SWAP1 SWAP5 ADD SLOAD PUSH1 0x1 PUSH1 0x1 PUSH1 0xA0 SHL SUB SWAP4 DUP5 AND SWAP5 SWAP4 SWAP1 SWAP3 AND SWAP3 SWAP1 SWAP2 PUSH1 0xFF AND DUP6 JUMP JUMPDEST PUSH1 0x40 DUP1 MLOAD PUSH1 0x1 PUSH1 0x1 PUSH1 0xA0 SHL SUB SWAP7 DUP8 AND DUP2 MSTORE SWAP6 SWAP1 SWAP5 AND PUSH1 0x20 DUP7 ADD MSTORE SWAP3 DUP5 ADD SWAP2 SWAP1 SWAP2 MSTORE PUSH1 0x60 DUP4 ADD MSTORE ISZERO ISZERO PUSH1 0x80 DUP3 ADD MSTORE PUSH1 0xA0 ADD PUSH3 0x18B JUMP JUMPDEST PUSH3 0x5FF PUSH3 0xED1 JUMP JUMPDEST PUSH1 0x1 PUSH1 0x1 PUSH1 0xA0 SHL SUB DUP3 AND PUSH1 0x0 SWAP1 DUP2 MSTORE PUSH1 0x4 PUSH1 0x20 MSTORE PUSH1 0x40 SWAP1 KECCAK256 SLOAD PUSH1 0xFF AND PUSH3 0x639 JUMPI PUSH1 0x40 MLOAD PUSH4 0xF580583 PUSH1 0xE1 SHL DUP2 MSTORE PUSH1 0x4 ADD PUSH1 0x40 MLOAD DUP1 SWAP2 SUB SWAP1 REVERT JUMPDEST CALLVALUE PUSH1 0x0 SUB PUSH3 0x65B JUMPI PUSH1 0x40 MLOAD PUSH4 0x1F2C4DF7 PUSH1 0xE1 SHL DUP2 MSTORE PUSH1 0x4 ADD PUSH1 0x40 MLOAD DUP1 SWAP2 SUB SWAP1 REVERT JUMPDEST DUP1 PUSH1 0x0 SUB PUSH3 0x67D JUMPI PUSH1 0x40 MLOAD PUSH4 0x1F2C4DF7 PUSH1 0xE1 SHL DUP2 MSTORE PUSH1 0x4 ADD PUSH1 0x40 MLOAD DUP1 SWAP2 SUB SWAP1 REVERT JUMPDEST PUSH1 0x1 PUSH1 0x1 PUSH1 0xA0 SHL SUB DUP1 DUP4 AND PUSH1 0x0 SWAP1 DUP2 MSTORE PUSH1 0x5 PUSH1 0x20 MSTORE PUSH1 0x40 SWAP1 KECCAK256 PUSH1 0x1 DUP2 ADD SLOAD SWAP1 SWAP2 AND CALLER EQ PUSH3 0x6BE JUMPI PUSH1 0x40 MLOAD PUSH4 0xE523909 PUSH1 0xE4 SHL DUP2 MSTORE PUSH1 0x4 ADD PUSH1 0x40 MLOAD DUP1 SWAP2 SUB SWAP1 REVERT JUMPDEST PUSH1 0x40 MLOAD PUSH4 0x23B872DD PUSH1 0xE0 SHL DUP2 MSTORE CALLER PUSH1 0x4 DUP3 ADD MSTORE ADDRESS PUSH1 0x24 DUP3 ADD MSTORE PUSH1 0x44 DUP2 ADD DUP4 SWAP1 MSTORE PUSH1 0x1 PUSH1 0x1 PUSH1 0xA0 SHL SUB DUP5 AND SWAP1 PUSH4 0x23B872DD SWAP1 PUSH1 0x64 ADD PUSH1 0x20 PUSH1 0x40 MLOAD DUP1 DUP4 SUB DUP2 PUSH1 0x0 DUP8 GAS CALL ISZERO DUP1 ISZERO PUSH3 0x712 JUMPI RETURNDATASIZE PUSH1 0x0 DUP1 RETURNDATACOPY RETURNDATASIZE PUSH1 0x0 REVERT JUMPDEST POP POP POP POP PUSH1 0x40 MLOAD RETURNDATASIZE PUSH1 0x1F NOT PUSH1 0x1F DUP3 ADD AND DUP3 ADD DUP1 PUSH1 0x40 MSTORE POP DUP2 ADD SWAP1 PUSH3 0x738 SWAP2 SWAP1 PUSH3 0x12DA JUMP JUMPDEST POP PUSH1 0x40 DUP1 MLOAD PUSH1 0x80 DUP2 ADD DUP3 MSTORE CALLVALUE DUP2 MSTORE PUSH1 0x20 DUP1 DUP3 ADD DUP6 DUP2 MSTORE PUSH1 0x3 DUP6 DUP2 ADD DUP1 SLOAD DUP6 DUP8 ADD SWAP1 DUP2 MSTORE PUSH1 0x1 PUSH1 0x60 DUP8 ADD DUP2 DUP2 MSTORE PUSH1 0x1 PUSH1 0x1 PUSH1 0xA0 SHL SUB DUP13 AND PUSH1 0x0 DUP2 DUP2 MSTORE PUSH1 0x6 SWAP1 SWAP9 MSTORE SWAP7 DUP10 SWAP1 KECCAK256 SWAP8 MLOAD DUP9 SSTORE SWAP5 MLOAD SWAP1 DUP8 ADD SSTORE MLOAD PUSH1 0x2 DUP7 ADD SSTORE SWAP2 MLOAD SWAP4 ADD DUP1 SLOAD PUSH1 0xFF NOT AND SWAP4 ISZERO ISZERO SWAP4 SWAP1 SWAP4 OR SWAP1 SWAP3 SSTORE SWAP1 SLOAD SWAP2 MLOAD PUSH4 0x670A2705 PUSH1 0xE1 SHL DUP2 MSTORE PUSH1 0x4 DUP2 ADD DUP3 SWAP1 MSTORE PUSH1 0x24 DUP2 ADD DUP6 SWAP1 MSTORE PUSH1 0x44 DUP2 ADD SWAP3 SWAP1 SWAP3 MSTORE SWAP1 PUSH4 0xCE144E0A SWAP1 PUSH1 0x64 ADD PUSH1 0x0 PUSH1 0x40 MLOAD DUP1 DUP4 SUB DUP2 PUSH1 0x0 DUP8 DUP1 EXTCODESIZE ISZERO DUP1 ISZERO PUSH3 0x7E9 JUMPI PUSH1 0x0 DUP1 REVERT JUMPDEST POP GAS CALL ISZERO DUP1 ISZERO PUSH3 0x7FE JUMPI RETURNDATASIZE PUSH1 0x0 DUP1 RETURNDATACOPY RETURNDATASIZE PUSH1 0x0 REVERT JUMPDEST POP POP PUSH1 0x40 DUP1 MLOAD CALLVALUE DUP2 MSTORE PUSH1 0x20 DUP2 ADD DUP7 SWAP1 MSTORE CALLER SWAP4 POP PUSH1 0x1 PUSH1 0x1 PUSH1 0xA0 SHL SUB DUP8 AND SWAP3 POP PUSH32 0x36F3B2E1A21C19137DD82EC243B0708A1D26B3D1FA1DC49C44C4C366A5878138 SWAP2 ADD PUSH1 0x40 MLOAD DUP1 SWAP2 SUB SWAP1 LOG3 POP PUSH3 0x853 PUSH1 0x1 DUP1 SSTORE JUMP JUMPDEST POP POP JUMP JUMPDEST PUSH3 0x861 PUSH3 0xEFC JUMP JUMPDEST PUSH3 0x86B PUSH3 0xED1 JUMP JUMPDEST SELFBALANCE PUSH1 0x0 DUP2 SWAP1 SUB PUSH3 0x88F JUMPI PUSH1 0x40 MLOAD PUSH4 0x2450B79D PUSH1 0xE1 SHL DUP2 MSTORE PUSH1 0x4 ADD PUSH1 0x40 MLOAD DUP1 SWAP2 SUB SWAP1 REVERT JUMPDEST PUSH1 0x0 DUP1 SLOAD PUSH1 0x40 MLOAD PUSH1 0x1 PUSH1 0x1 PUSH1 0xA0 SHL SUB SWAP1 SWAP2 AND SWAP1 DUP4 SWAP1 DUP4 DUP2 DUP2 DUP2 DUP6 DUP8 GAS CALL SWAP3 POP POP POP RETURNDATASIZE DUP1 PUSH1 0x0 DUP2 EQ PUSH3 0x8DE JUMPI PUSH1 0x40 MLOAD SWAP2 POP PUSH1 0x1F NOT PUSH1 0x3F RETURNDATASIZE ADD AND DUP3 ADD PUSH1 0x40 MSTORE RETURNDATASIZE DUP3 MSTORE RETURNDATASIZE PUSH1 0x0 PUSH1 0x20 DUP5 ADD RETURNDATACOPY PUSH3 0x8E3 JUMP JUMPDEST PUSH1 0x60 SWAP2 POP JUMPDEST POP POP SWAP1 POP DUP1 PUSH3 0x906 JUMPI PUSH1 0x40 MLOAD PUSH4 0x12171D83 PUSH1 0xE3 SHL DUP2 MSTORE PUSH1 0x4 ADD PUSH1 0x40 MLOAD DUP1 SWAP2 SUB SWAP1 REVERT JUMPDEST PUSH1 0x0 SLOAD PUSH1 0x1 PUSH1 0x1 PUSH1 0xA0 SHL SUB AND PUSH1 0x1 PUSH1 0x1 PUSH1 0xA0 SHL SUB AND PUSH32 0x6097061AEDA806B5E9CB4133D9899F332FF0913956567FC0F7EA15E3D19947C DUP4 PUSH1 0x40 MLOAD PUSH3 0x94D SWAP2 DUP2 MSTORE PUSH1 0x20 ADD SWAP1 JUMP JUMPDEST PUSH1 0x40 MLOAD DUP1 SWAP2 SUB SWAP1 LOG2 POP POP PUSH3 0x961 PUSH1 0x1 DUP1 SSTORE JUMP JUMPDEST JUMP JUMPDEST PUSH3 0x96D PUSH3 0xEFC JUMP JUMPDEST PUSH8 0xDE0B6B3A7640000 DUP2 GT ISZERO PUSH3 0x99F JUMPI PUSH1 0x40 MLOAD PUSH4 0x3D83B267 PUSH1 0xE0 SHL DUP2 MSTORE PUSH1 0x4 DUP2 ADD DUP3 SWAP1 MSTORE PUSH1 0x24 ADD JUMPDEST PUSH1 0x40 MLOAD DUP1 SWAP2 SUB SWAP1 REVERT JUMPDEST PUSH1 0x2 DUP1 SLOAD SWAP1 DUP3 SWAP1 SSTORE PUSH1 0x40 DUP1 MLOAD DUP3 DUP2 MSTORE PUSH1 0x20 DUP2 ADD DUP5 SWAP1 MSTORE PUSH32 0xD4CF6F6BEE0026C64C38FB4E7E9CC15819BE59DCCB8F0A82FD31A4CC1DCC1E18 SWAP2 ADD PUSH1 0x40 MLOAD DUP1 SWAP2 SUB SWAP1 LOG1 POP POP JUMP JUMPDEST PUSH1 0x7 DUP2 DUP2 SLOAD DUP2 LT PUSH3 0x9F5 JUMPI PUSH1 0x0 DUP1 REVERT JUMPDEST PUSH1 0x0 SWAP2 DUP3 MSTORE PUSH1 0x20 SWAP1 SWAP2 KECCAK256 ADD SLOAD PUSH1 0x1 PUSH1 0x1 PUSH1 0xA0 SHL SUB AND SWAP1 POP DUP2 JUMP JUMPDEST PUSH3 0xA19 PUSH3 0xEFC JUMP JUMPDEST PUSH3 0x961 PUSH1 0x0 PUSH3 0xF2B JUMP JUMPDEST PUSH3 0xA2F PUSH3 0xEFC JUMP JUMPDEST PUSH1 0x1 PUSH1 0x1 PUSH1 0xA0 SHL SUB DUP3 AND PUSH1 0x0 SWAP1 DUP2 MSTORE PUSH1 0x4 PUSH1 0x20 MSTORE PUSH1 0x40 SWAP1 KECCAK256 SLOAD PUSH1 0xFF AND PUSH3 0xA69 JUMPI PUSH1 0x40 MLOAD PUSH4 0xF580583 PUSH1 0xE1 SHL DUP2 MSTORE PUSH1 0x4 ADD PUSH1 0x40 MLOAD DUP1 SWAP2 SUB SWAP1 REVERT JUMPDEST PUSH1 0x0 DUP3 SWAP1 POP DUP1 PUSH1 0x1 PUSH1 0x1 PUSH1 0xA0 SHL SUB AND PUSH4 0x51858E27 PUSH1 0x40 MLOAD DUP2 PUSH4 0xFFFFFFFF AND PUSH1 0xE0 SHL DUP2 MSTORE PUSH1 0x4 ADD PUSH1 0x0 PUSH1 0x40 MLOAD DUP1 DUP4 SUB DUP2 PUSH1 0x0 DUP8 DUP1 EXTCODESIZE ISZERO DUP1 ISZERO PUSH3 0xAAA JUMPI PUSH1 0x0 DUP1 REVERT JUMPDEST POP GAS CALL ISZERO DUP1 ISZERO PUSH3 0xABF JUMPI RETURNDATASIZE PUSH1 0x0 DUP1 RETURNDATACOPY RETURNDATASIZE PUSH1 0x0 REVERT JUMPDEST POP POP POP POP PUSH1 0x1 PUSH1 0x1 PUSH1 0xA0 SHL SUB DUP4 DUP2 AND PUSH1 0x0 DUP2 DUP2 MSTORE PUSH1 0x5 PUSH1 0x20 MSTORE PUSH1 0x40 SWAP1 DUP2 SWAP1 KECCAK256 PUSH1 0x1 ADD SLOAD SWAP1 MLOAD SWAP3 AND SWAP2 PUSH32 0x9628E6830A85317923223344F226C6BEF45F85A4D1E39CA830554365E7C7D1EE SWAP1 PUSH3 0xB16 SWAP1 DUP7 SWAP1 PUSH3 0x134E JUMP JUMPDEST PUSH1 0x40 MLOAD DUP1 SWAP2 SUB SWAP1 LOG3 POP POP POP JUMP JUMPDEST PUSH1 0x60 PUSH1 0x7 DUP1 SLOAD DUP1 PUSH1 0x20 MUL PUSH1 0x20 ADD PUSH1 0x40 MLOAD SWAP1 DUP2 ADD PUSH1 0x40 MSTORE DUP1 SWAP3 SWAP2 SWAP1 DUP2 DUP2 MSTORE PUSH1 0x20 ADD DUP3 DUP1 SLOAD DUP1 ISZERO PUSH3 0xB7D JUMPI PUSH1 0x20 MUL DUP3 ADD SWAP2 SWAP1 PUSH1 0x0 MSTORE PUSH1 0x20 PUSH1 0x0 KECCAK256 SWAP1 JUMPDEST DUP2 SLOAD PUSH1 0x1 PUSH1 0x1 PUSH1 0xA0 SHL SUB AND DUP2 MSTORE PUSH1 0x1 SWAP1 SWAP2 ADD SWAP1 PUSH1 0x20 ADD DUP1 DUP4 GT PUSH3 0xB5E JUMPI JUMPDEST POP POP POP POP POP SWAP1 POP SWAP1 JUMP JUMPDEST PUSH3 0xB91 PUSH3 0xED1 JUMP JUMPDEST PUSH3 0xB9F DUP6 DUP6 DUP6 DUP6 PUSH3 0xF7B JUMP JUMPDEST PUSH1 0x2 SLOAD CALLVALUE LT ISZERO PUSH3 0xBD1 JUMPI PUSH1 0x2 SLOAD PUSH1 0x40 MLOAD PUSH4 0xCBC18E8B PUSH1 0xE0 SHL DUP2 MSTORE CALLVALUE PUSH1 0x4 DUP3 ADD MSTORE PUSH1 0x24 DUP2 ADD SWAP2 SWAP1 SWAP2 MSTORE PUSH1 0x44 ADD PUSH3 0x996 JUMP JUMPDEST PUSH1 0x0 DUP6 DUP6 DUP6 CALLER PUSH1 0x40 MLOAD PUSH3 0xBE5 SWAP1 PUSH3 0x1051 JUMP JUMPDEST PUSH3 0xBF4 SWAP5 SWAP4 SWAP3 SWAP2 SWAP1 PUSH3 0x1363 JUMP JUMPDEST PUSH1 0x40 MLOAD DUP1 SWAP2 SUB SWAP1 PUSH1 0x0 CREATE DUP1 ISZERO DUP1 ISZERO PUSH3 0xC11 JUMPI RETURNDATASIZE PUSH1 0x0 DUP1 RETURNDATACOPY RETURNDATASIZE PUSH1 0x0 REVERT JUMPDEST POP PUSH1 0x40 DUP1 MLOAD PUSH1 0xA0 DUP2 ADD DUP3 MSTORE PUSH1 0x1 PUSH1 0x1 PUSH1 0xA0 SHL SUB DUP1 DUP5 AND DUP1 DUP4 MSTORE CALLER PUSH1 0x20 DUP1 DUP6 ADD DUP3 DUP2 MSTORE TIMESTAMP DUP7 DUP9 ADD SWAP1 DUP2 MSTORE PUSH1 0x60 DUP8 ADD DUP13 DUP2 MSTORE DUP12 ISZERO ISZERO PUSH1 0x80 DUP10 ADD SWAP1 DUP2 MSTORE PUSH1 0x0 DUP8 DUP2 MSTORE PUSH1 0x5 DUP7 MSTORE DUP11 DUP2 KECCAK256 SWAP10 MLOAD DUP11 SLOAD SWAP1 DUP11 AND PUSH1 0x1 PUSH1 0x1 PUSH1 0xA0 SHL SUB NOT SWAP2 DUP3 AND OR DUP12 SSTORE SWAP5 MLOAD PUSH1 0x1 DUP1 DUP13 ADD DUP1 SLOAD SWAP3 SWAP1 SWAP12 AND SWAP2 DUP8 AND SWAP2 SWAP1 SWAP2 OR SWAP1 SWAP10 SSTORE SWAP3 MLOAD PUSH1 0x2 DUP11 ADD SSTORE SWAP1 MLOAD PUSH1 0x3 DUP1 DUP11 ADD SWAP2 SWAP1 SWAP2 SSTORE SWAP1 MLOAD PUSH1 0x4 SWAP9 DUP10 ADD DUP1 SLOAD SWAP2 ISZERO ISZERO PUSH1 0xFF NOT SWAP3 DUP4 AND OR SWAP1 SSTORE SWAP5 DUP3 MSTORE DUP4 MSTORE DUP8 DUP2 KECCAK256 DUP1 SLOAD DUP1 DUP9 ADD DUP3 SSTORE SWAP1 DUP3 MSTORE DUP4 DUP3 KECCAK256 ADD DUP1 SLOAD DUP4 AND DUP7 OR SWAP1 SSTORE DUP5 DUP2 MSTORE SWAP6 SWAP1 SWAP2 MSTORE SWAP5 DUP5 KECCAK256 DUP1 SLOAD SWAP1 SWAP2 AND DUP4 OR SWAP1 SSTORE PUSH1 0x7 DUP1 SLOAD SWAP3 DUP4 ADD DUP2 SSTORE DUP4 MSTORE PUSH32 0xA66CC928B5EDB82AF9BD49922954155AB7B0942694BEA4CE44661D9A8736C688 SWAP1 SWAP2 ADD DUP1 SLOAD SWAP1 SWAP4 AND OR SWAP1 SWAP2 SSTORE PUSH1 0x8 DUP1 SLOAD SWAP3 SWAP4 POP DUP4 SWAP3 SWAP2 PUSH3 0xD29 DUP4 PUSH3 0x13C4 JUMP JUMPDEST SWAP2 SWAP1 POP SSTORE POP CALLVALUE PUSH1 0x9 PUSH1 0x0 DUP3 DUP3 SLOAD PUSH3 0xD42 SWAP2 SWAP1 PUSH3 0x13E0 JUMP JUMPDEST SWAP1 SWAP2 SSTORE POP POP PUSH1 0x40 MLOAD PUSH1 0x1 PUSH1 0x1 PUSH1 0xA0 SHL SUB DUP3 AND SWAP1 PUSH3 0xD62 SWAP1 DUP9 SWAP1 PUSH3 0x13FC JUMP JUMPDEST PUSH1 0x40 MLOAD DUP1 SWAP2 SUB SWAP1 KECCAK256 DUP9 PUSH1 0x40 MLOAD PUSH3 0xD7A SWAP2 SWAP1 PUSH3 0x13FC JUMP JUMPDEST PUSH1 0x40 DUP1 MLOAD SWAP2 DUP3 SWAP1 SUB DUP3 KECCAK256 DUP10 DUP4 MSTORE CALLER PUSH1 0x20 DUP5 ADD MSTORE SWAP1 DUP3 ADD DUP9 SWAP1 MSTORE DUP7 ISZERO ISZERO PUSH1 0x60 DUP4 ADD MSTORE SWAP1 PUSH32 0x6C004C44227756EF66B389E77AF04BEAE54400964B14AC0A1114AF205B93A5C1 SWAP1 PUSH1 0x80 ADD PUSH1 0x40 MLOAD DUP1 SWAP2 SUB SWAP1 LOG4 POP POP PUSH3 0xDD5 PUSH1 0x1 DUP1 SSTORE JUMP JUMPDEST POP POP POP POP POP JUMP JUMPDEST PUSH1 0x1 PUSH1 0x1 PUSH1 0xA0 SHL SUB DUP2 AND PUSH1 0x0 SWAP1 DUP2 MSTORE PUSH1 0x3 PUSH1 0x20 SWAP1 DUP2 MSTORE PUSH1 0x40 SWAP2 DUP3 SWAP1 KECCAK256 DUP1 SLOAD DUP4 MLOAD DUP2 DUP5 MUL DUP2 ADD DUP5 ADD SWAP1 SWAP5 MSTORE DUP1 DUP5 MSTORE PUSH1 0x60 SWAP4 SWAP3 DUP4 ADD DUP3 DUP3 DUP1 ISZERO PUSH3 0xE48 JUMPI PUSH1 0x20 MUL DUP3 ADD SWAP2 SWAP1 PUSH1 0x0 MSTORE PUSH1 0x20 PUSH1 0x0 KECCAK256 SWAP1 JUMPDEST DUP2 SLOAD PUSH1 0x1 PUSH1 0x1 PUSH1 0xA0 SHL SUB AND DUP2 MSTORE PUSH1 0x1 SWAP1 SWAP2 ADD SWAP1 PUSH1 0x20 ADD DUP1 DUP4 GT PUSH3 0xE29 JUMPI JUMPDEST POP POP POP POP POP SWAP1 POP SWAP2 SWAP1 POP JUMP JUMPDEST PUSH1 0x3 PUSH1 0x20 MSTORE DUP2 PUSH1 0x0 MSTORE PUSH1 0x40 PUSH1 0x0 KECCAK256 DUP2 DUP2 SLOAD DUP2 LT PUSH3 0xE71 JUMPI PUSH1 0x0 DUP1 REVERT JUMPDEST PUSH1 0x0 SWAP2 DUP3 MSTORE PUSH1 0x20 SWAP1 SWAP2 KECCAK256 ADD SLOAD PUSH1 0x1 PUSH1 0x1 PUSH1 0xA0 SHL SUB AND SWAP2 POP DUP3 SWAP1 POP JUMP JUMPDEST PUSH3 0xE97 PUSH3 0xEFC JUMP JUMPDEST PUSH1 0x1 PUSH1 0x1 PUSH1 0xA0 SHL SUB DUP2 AND PUSH3 0xEC3 JUMPI PUSH1 0x40 MLOAD PUSH4 0x1E4FBDF7 PUSH1 0xE0 SHL DUP2 MSTORE PUSH1 0x0 PUSH1 0x4 DUP3 ADD MSTORE PUSH1 0x24 ADD PUSH3 0x996 JUMP JUMPDEST PUSH3 0xECE DUP2 PUSH3 0xF2B JUMP JUMPDEST POP JUMP JUMPDEST PUSH1 0x2 PUSH1 0x1 SLOAD SUB PUSH3 0xEF5 JUMPI PUSH1 0x40 MLOAD PUSH4 0x3EE5AEB5 PUSH1 0xE0 SHL DUP2 MSTORE PUSH1 0x4 ADD PUSH1 0x40 MLOAD DUP1 SWAP2 SUB SWAP1 REVERT JUMPDEST PUSH1 0x2 PUSH1 0x1 SSTORE JUMP JUMPDEST PUSH1 0x0 SLOAD PUSH1 0x1 PUSH1 0x1 PUSH1 0xA0 SHL SUB AND CALLER EQ PUSH3 0x961 JUMPI PUSH1 0x40 MLOAD PUSH4 0x118CDAA7 PUSH1 0xE0 SHL DUP2 MSTORE CALLER PUSH1 0x4 DUP3 ADD MSTORE PUSH1 0x24 ADD PUSH3 0x996 JUMP JUMPDEST PUSH1 0x0 DUP1 SLOAD PUSH1 0x1 PUSH1 0x1 PUSH1 0xA0 SHL SUB DUP4 DUP2 AND PUSH1 0x1 PUSH1 0x1 PUSH1 0xA0 SHL SUB NOT DUP4 AND DUP2 OR DUP5 SSTORE PUSH1 0x40 MLOAD SWAP2 SWAP1 SWAP3 AND SWAP3 DUP4 SWAP2 PUSH32 0x8BE0079C531659141344CD1FD0A4F28419497F9722A3DAAFE3B4186F6B6457E0 SWAP2 SWAP1 LOG3 POP POP JUMP JUMPDEST DUP4 MLOAD PUSH1 0x0 SUB PUSH3 0xF9E JUMPI PUSH1 0x40 MLOAD PUSH4 0xEBF810D1 PUSH1 0xE0 SHL DUP2 MSTORE PUSH1 0x4 ADD PUSH1 0x40 MLOAD DUP1 SWAP2 SUB SWAP1 REVERT JUMPDEST DUP3 MLOAD PUSH1 0x0 SUB PUSH3 0xFC1 JUMPI PUSH1 0x40 MLOAD PUSH4 0xEBF810D1 PUSH1 0xE0 SHL DUP2 MSTORE PUSH1 0x4 ADD PUSH1 0x40 MLOAD DUP1 SWAP2 SUB SWAP1 REVERT JUMPDEST PUSH2 0x3E8 DUP3 LT ISZERO PUSH3 0xFE5 JUMPI PUSH1 0x40 MLOAD PUSH4 0x475DF43 PUSH1 0xE0 SHL DUP2 MSTORE PUSH1 0x4 ADD PUSH1 0x40 MLOAD DUP1 SWAP2 SUB SWAP1 REVERT JUMPDEST PUSH4 0x3B9ACA00 DUP3 GT ISZERO PUSH3 0x1019 JUMPI PUSH1 0x40 MLOAD PUSH4 0x99AAA60B PUSH1 0xE0 SHL DUP2 MSTORE PUSH1 0x4 DUP2 ADD DUP4 SWAP1 MSTORE PUSH4 0x3B9ACA00 PUSH1 0x24 DUP3 ADD MSTORE PUSH1 0x44 ADD PUSH3 0x996 JUMP JUMPDEST PUSH3 0x278D00 DUP2 LT ISZERO PUSH3 0x104B JUMPI PUSH1 0x40 MLOAD PUSH4 0xA3F94C47 PUSH1 0xE0 SHL DUP2 MSTORE PUSH1 0x4 DUP2 ADD DUP3 SWAP1 MSTORE PUSH3 0x278D00 PUSH1 0x24 DUP3 ADD MSTORE PUSH1 0x44 ADD PUSH3 0x996 JUMP JUMPDEST POP POP POP POP JUMP JUMPDEST PUSH2 0x315D DUP1 PUSH3 0x141B DUP4 CODECOPY ADD SWAP1 JUMP JUMPDEST DUP1 CALLDATALOAD PUSH1 0x1 PUSH1 0x1 PUSH1 0xA0 SHL SUB DUP2 AND DUP2 EQ PUSH3 0x1077 JUMPI PUSH1 0x0 DUP1 REVERT JUMPDEST SWAP2 SWAP1 POP JUMP JUMPDEST PUSH1 0x0 PUSH1 0x20 DUP3 DUP5 SUB SLT ISZERO PUSH3 0x108F JUMPI PUSH1 0x0 DUP1 REVERT JUMPDEST PUSH3 0x109A DUP3 PUSH3 0x105F JUMP JUMPDEST SWAP4 SWAP3 POP POP POP JUMP JUMPDEST PUSH1 0x0 DUP1 PUSH1 0x40 DUP4 DUP6 SUB SLT ISZERO PUSH3 0x10B5 JUMPI PUSH1 0x0 DUP1 REVERT JUMPDEST PUSH3 0x10C0 DUP4 PUSH3 0x105F JUMP JUMPDEST SWAP5 PUSH1 0x20 SWAP4 SWAP1 SWAP4 ADD CALLDATALOAD SWAP4 POP POP POP JUMP JUMPDEST PUSH1 0x0 PUSH1 0x20 DUP3 DUP5 SUB SLT ISZERO PUSH3 0x10E1 JUMPI PUSH1 0x0 DUP1 REVERT JUMPDEST POP CALLDATALOAD SWAP2 SWAP1 POP JUMP JUMPDEST PUSH4 0x4E487B71 PUSH1 0xE0 SHL PUSH1 0x0 MSTORE PUSH1 0x41 PUSH1 0x4 MSTORE PUSH1 0x24 PUSH1 0x0 REVERT JUMPDEST PUSH1 0x0 DUP3 PUSH1 0x1F DUP4 ADD SLT PUSH3 0x1110 JUMPI PUSH1 0x0 DUP1 REVERT JUMPDEST DUP2 CALLDATALOAD PUSH8 0xFFFFFFFFFFFFFFFF DUP1 DUP3 GT ISZERO PUSH3 0x112E JUMPI PUSH3 0x112E PUSH3 0x10E8 JUMP JUMPDEST PUSH1 0x40 MLOAD PUSH1 0x1F DUP4 ADD PUSH1 0x1F NOT SWAP1 DUP2 AND PUSH1 0x3F ADD AND DUP2 ADD SWAP1 DUP3 DUP3 GT DUP2 DUP4 LT OR ISZERO PUSH3 0x1159 JUMPI PUSH3 0x1159 PUSH3 0x10E8 JUMP JUMPDEST DUP2 PUSH1 0x40 MSTORE DUP4 DUP2 MSTORE DUP7 PUSH1 0x20 DUP6 DUP9 ADD ADD GT ISZERO PUSH3 0x1173 JUMPI PUSH1 0x0 DUP1 REVERT JUMPDEST DUP4 PUSH1 0x20 DUP8 ADD PUSH1 0x20 DUP4 ADD CALLDATACOPY PUSH1 0x0 PUSH1 0x20 DUP6 DUP4 ADD ADD MSTORE DUP1 SWAP5 POP POP POP POP POP SWAP3 SWAP2 POP POP JUMP JUMPDEST PUSH1 0x0 DUP1 PUSH1 0x40 DUP4 DUP6 SUB SLT ISZERO PUSH3 0x11A7 JUMPI PUSH1 0x0 DUP1 REVERT JUMPDEST PUSH3 0x11B2 DUP4 PUSH3 0x105F JUMP JUMPDEST SWAP2 POP PUSH1 0x20 DUP4 ADD CALLDATALOAD PUSH8 0xFFFFFFFFFFFFFFFF DUP2 GT ISZERO PUSH3 0x11CF JUMPI PUSH1 0x0 DUP1 REVERT JUMPDEST PUSH3 0x11DD DUP6 DUP3 DUP7 ADD PUSH3 0x10FE JUMP JUMPDEST SWAP2 POP POP SWAP3 POP SWAP3 SWAP1 POP JUMP JUMPDEST PUSH1 0x20 DUP1 DUP3 MSTORE DUP3 MLOAD DUP3 DUP3 ADD DUP2 SWAP1 MSTORE PUSH1 0x0 SWAP2 SWAP1 DUP5 DUP3 ADD SWAP1 PUSH1 0x40 DUP6 ADD SWAP1 DUP5 JUMPDEST DUP2 DUP2 LT ISZERO PUSH3 0x122A JUMPI DUP4 MLOAD PUSH1 0x1 PUSH1 0x1 PUSH1 0xA0 SHL SUB AND DUP4 MSTORE SWAP3 DUP5 ADD SWAP3 SWAP2 DUP5 ADD SWAP2 PUSH1 0x1 ADD PUSH3 0x1203 JUMP JUMPDEST POP SWAP1 SWAP7 SWAP6 POP POP POP POP POP POP JUMP JUMPDEST DUP1 ISZERO ISZERO DUP2 EQ PUSH3 0xECE JUMPI PUSH1 0x0 DUP1 REVERT JUMPDEST PUSH1 0x0 DUP1 PUSH1 0x0 DUP1 PUSH1 0x0 PUSH1 0xA0 DUP7 DUP9 SUB SLT ISZERO PUSH3 0x125E JUMPI PUSH1 0x0 DUP1 REVERT JUMPDEST DUP6 CALLDATALOAD PUSH8 0xFFFFFFFFFFFFFFFF DUP1 DUP3 GT ISZERO PUSH3 0x1277 JUMPI PUSH1 0x0 DUP1 REVERT JUMPDEST PUSH3 0x1285 DUP10 DUP4 DUP11 ADD PUSH3 0x10FE JUMP JUMPDEST SWAP7 POP PUSH1 0x20 DUP9 ADD CALLDATALOAD SWAP2 POP DUP1 DUP3 GT ISZERO PUSH3 0x129C JUMPI PUSH1 0x0 DUP1 REVERT JUMPDEST POP PUSH3 0x12AB DUP9 DUP3 DUP10 ADD PUSH3 0x10FE JUMP JUMPDEST SWAP5 POP POP PUSH1 0x40 DUP7 ADD CALLDATALOAD SWAP3 POP PUSH1 0x60 DUP7 ADD CALLDATALOAD SWAP2 POP PUSH1 0x80 DUP7 ADD CALLDATALOAD PUSH3 0x12CC DUP2 PUSH3 0x1236 JUMP JUMPDEST DUP1 SWAP2 POP POP SWAP3 SWAP6 POP SWAP3 SWAP6 SWAP1 SWAP4 POP JUMP JUMPDEST PUSH1 0x0 PUSH1 0x20 DUP3 DUP5 SUB SLT ISZERO PUSH3 0x12ED JUMPI PUSH1 0x0 DUP1 REVERT JUMPDEST DUP2 MLOAD PUSH3 0x109A DUP2 PUSH3 0x1236 JUMP JUMPDEST PUSH1 0x0 JUMPDEST DUP4 DUP2 LT ISZERO PUSH3 0x1317 JUMPI DUP2 DUP2 ADD MLOAD DUP4 DUP3 ADD MSTORE PUSH1 0x20 ADD PUSH3 0x12FD JUMP JUMPDEST POP POP PUSH1 0x0 SWAP2 ADD MSTORE JUMP JUMPDEST PUSH1 0x0 DUP2 MLOAD DUP1 DUP5 MSTORE PUSH3 0x133A DUP2 PUSH1 0x20 DUP7 ADD PUSH1 0x20 DUP7 ADD PUSH3 0x12FA JUMP JUMPDEST PUSH1 0x1F ADD PUSH1 0x1F NOT AND SWAP3 SWAP1 SWAP3 ADD PUSH1 0x20 ADD SWAP3 SWAP2 POP POP JUMP JUMPDEST PUSH1 0x20 DUP2 MSTORE PUSH1 0x0 PUSH3 0x109A PUSH1 0x20 DUP4 ADD DUP5 PUSH3 0x1320 JUMP JUMPDEST PUSH1 0x80 DUP2 MSTORE PUSH1 0x0 PUSH3 0x1378 PUSH1 0x80 DUP4 ADD DUP8 PUSH3 0x1320 JUMP JUMPDEST DUP3 DUP2 SUB PUSH1 0x20 DUP5 ADD MSTORE PUSH3 0x138C DUP2 DUP8 PUSH3 0x1320 JUMP JUMPDEST PUSH1 0x40 DUP5 ADD SWAP6 SWAP1 SWAP6 MSTORE POP POP PUSH1 0x1 PUSH1 0x1 PUSH1 0xA0 SHL SUB SWAP2 SWAP1 SWAP2 AND PUSH1 0x60 SWAP1 SWAP2 ADD MSTORE SWAP3 SWAP2 POP POP JUMP JUMPDEST PUSH4 0x4E487B71 PUSH1 0xE0 SHL PUSH1 0x0 MSTORE PUSH1 0x11 PUSH1 0x4 MSTORE PUSH1 0x24 PUSH1 0x0 REVERT JUMPDEST PUSH1 0x0 PUSH1 0x1 DUP3 ADD PUSH3 0x13D9 JUMPI PUSH3 0x13D9 PUSH3 0x13AE JUMP JUMPDEST POP PUSH1 0x1 ADD SWAP1 JUMP JUMPDEST DUP1 DUP3 ADD DUP1 DUP3 GT ISZERO PUSH3 0x13F6 JUMPI PUSH3 0x13F6 PUSH3 0x13AE JUMP JUMPDEST SWAP3 SWAP2 POP POP JUMP JUMPDEST PUSH1 0x0 DUP3 MLOAD PUSH3 0x1410 DUP2 DUP5 PUSH1 0x20 DUP8 ADD PUSH3 0x12FA JUMP JUMPDEST SWAP2 SWAP1 SWAP2 ADD SWAP3 SWAP2 POP POP JUMP INVALID PUSH1 0xA0 PUSH1 0x40 MSTORE PUSH10 0xD3C21BCECCEDA1000000 PUSH1 0xE SSTORE PUSH8 0xDE0B6B3A7640000 PUSH1 0xF SSTORE PUSH1 0x10 DUP1 SLOAD PUSH4 0xFFFFFFFF NOT AND PUSH4 0x1010101 OR SWAP1 SSTORE CALLVALUE DUP1 ISZERO PUSH3 0x3E JUMPI PUSH1 0x0 DUP1 REVERT JUMPDEST POP PUSH1 0x40 MLOAD PUSH3 0x315D CODESIZE SUB DUP1 PUSH3 0x315D DUP4 CODECOPY DUP2 ADD PUSH1 0x40 DUP2 SWAP1 MSTORE PUSH3 0x61 SWAP2 PUSH3 0x7F8 JUMP JUMPDEST DUP1 DUP5 DUP5 PUSH1 0x3 PUSH3 0x72 DUP4 DUP3 PUSH3 0x91D JUMP JUMPDEST POP PUSH1 0x4 PUSH3 0x81 DUP3 DUP3 PUSH3 0x91D JUMP JUMPDEST POP POP POP PUSH1 0x1 PUSH1 0x1 PUSH1 0xA0 SHL SUB DUP2 AND PUSH3 0xB4 JUMPI PUSH1 0x40 MLOAD PUSH4 0x1E4FBDF7 PUSH1 0xE0 SHL DUP2 MSTORE PUSH1 0x0 PUSH1 0x4 DUP3 ADD MSTORE PUSH1 0x24 ADD JUMPDEST PUSH1 0x40 MLOAD DUP1 SWAP2 SUB SWAP1 REVERT JUMPDEST PUSH3 0xBF DUP2 PUSH3 0x268 JUMP JUMPDEST POP PUSH1 0x1 PUSH1 0x6 SSTORE DUP4 MLOAD PUSH1 0x0 SUB PUSH3 0xE8 JUMPI PUSH1 0x40 MLOAD PUSH4 0x430F13B3 PUSH1 0xE0 SHL DUP2 MSTORE PUSH1 0x4 ADD PUSH1 0x40 MLOAD DUP1 SWAP2 SUB SWAP1 REVERT JUMPDEST DUP3 MLOAD PUSH1 0x0 SUB PUSH3 0x10B JUMPI PUSH1 0x40 MLOAD PUSH4 0x10466F1 PUSH1 0xE2 SHL DUP2 MSTORE PUSH1 0x4 ADD PUSH1 0x40 MLOAD DUP1 SWAP2 SUB SWAP1 REVERT JUMPDEST DUP2 PUSH1 0x0 SUB PUSH3 0x12D JUMPI PUSH1 0x40 MLOAD PUSH4 0x1F2A2005 PUSH1 0xE0 SHL DUP2 MSTORE PUSH1 0x4 ADD PUSH1 0x40 MLOAD DUP1 SWAP2 SUB SWAP1 REVERT JUMPDEST PUSH3 0x13B PUSH1 0x12 PUSH1 0xA PUSH3 0xAFE JUMP JUMPDEST PUSH3 0x147 SWAP1 DUP4 PUSH3 0xB16 JUMP JUMPDEST PUSH1 0x80 MSTORE PUSH1 0x0 PUSH3 0x15A PUSH1 0x12 PUSH1 0xA PUSH3 0xAFE JUMP JUMPDEST PUSH3 0x166 SWAP1 DUP5 PUSH3 0xB16 JUMP JUMPDEST SWAP1 POP PUSH1 0x0 PUSH1 0x64 PUSH3 0x179 DUP4 PUSH1 0xA PUSH3 0xB16 JUMP JUMPDEST PUSH3 0x185 SWAP2 SWAP1 PUSH3 0xB30 JUMP JUMPDEST SWAP1 POP PUSH1 0x0 PUSH1 0x64 PUSH3 0x198 DUP5 PUSH1 0x14 PUSH3 0xB16 JUMP JUMPDEST PUSH3 0x1A4 SWAP2 SWAP1 PUSH3 0xB30 JUMP JUMPDEST SWAP1 POP PUSH1 0x0 DUP2 PUSH3 0x1B5 DUP5 DUP7 PUSH3 0xB53 JUMP JUMPDEST PUSH3 0x1C1 SWAP2 SWAP1 PUSH3 0xB53 JUMP JUMPDEST SWAP1 POP PUSH3 0x1CF DUP6 DUP5 PUSH3 0x2C2 JUMP JUMPDEST PUSH3 0x1E6 ADDRESS PUSH3 0x1E0 DUP4 DUP6 PUSH3 0xB69 JUMP JUMPDEST PUSH3 0x2C2 JUMP JUMPDEST PUSH1 0x64 PUSH3 0x1F5 DUP6 PUSH1 0x1 PUSH3 0xB16 JUMP JUMPDEST PUSH3 0x201 SWAP2 SWAP1 PUSH3 0xB30 JUMP JUMPDEST PUSH1 0xB SSTORE PUSH1 0x64 PUSH3 0x213 DUP6 PUSH1 0x5 PUSH3 0xB16 JUMP JUMPDEST PUSH3 0x21F SWAP2 SWAP1 PUSH3 0xB30 JUMP JUMPDEST PUSH1 0xC SSTORE POP POP ADDRESS PUSH1 0x0 SWAP1 DUP2 MSTORE PUSH1 0x9 PUSH1 0x20 MSTORE PUSH1 0x40 DUP1 DUP3 KECCAK256 DUP1 SLOAD PUSH1 0x1 PUSH1 0xFF NOT SWAP2 DUP3 AND DUP2 OR SWAP1 SWAP3 SSTORE PUSH1 0x1 PUSH1 0x1 PUSH1 0xA0 SHL SUB SWAP7 SWAP1 SWAP7 AND DUP4 MSTORE SWAP2 KECCAK256 DUP1 SLOAD SWAP1 SWAP5 AND OR SWAP1 SWAP3 SSTORE POP PUSH3 0xB7F SWAP4 POP POP POP POP JUMP JUMPDEST PUSH1 0x5 DUP1 SLOAD PUSH1 0x1 PUSH1 0x1 PUSH1 0xA0 SHL SUB DUP4 DUP2 AND PUSH2 0x100 DUP2 DUP2 MUL PUSH2 0x100 PUSH1 0x1 PUSH1 0xA8 SHL SUB NOT DUP6 AND OR SWAP1 SWAP5 SSTORE PUSH1 0x40 MLOAD SWAP4 SWAP1 SWAP3 DIV AND SWAP2 DUP3 SWAP1 PUSH32 0x8BE0079C531659141344CD1FD0A4F28419497F9722A3DAAFE3B4186F6B6457E0 SWAP1 PUSH1 0x0 SWAP1 LOG3 POP POP JUMP JUMPDEST PUSH1 0x1 PUSH1 0x1 PUSH1 0xA0 SHL SUB DUP3 AND PUSH3 0x2EE JUMPI PUSH1 0x40 MLOAD PUSH4 0xEC442F05 PUSH1 0xE0 SHL DUP2 MSTORE PUSH1 0x0 PUSH1 0x4 DUP3 ADD MSTORE PUSH1 0x24 ADD PUSH3 0xAB JUMP JUMPDEST PUSH3 0x2FC PUSH1 0x0 DUP4 DUP4 PUSH3 0x300 JUMP JUMPDEST POP POP JUMP JUMPDEST PUSH1 0x1 PUSH1 0x1 PUSH1 0xA0 SHL SUB DUP4 AND ISZERO DUP1 ISZERO SWAP1 PUSH3 0x321 JUMPI POP PUSH1 0x1 PUSH1 0x1 PUSH1 0xA0 SHL SUB DUP3 AND ISZERO ISZERO JUMPDEST ISZERO PUSH3 0x334 JUMPI PUSH3 0x334 DUP4 DUP4 DUP4 PUSH3 0x346 JUMP JUMPDEST PUSH3 0x341 DUP4 DUP4 DUP4 PUSH3 0x5BF JUMP JUMPDEST POP POP POP JUMP JUMPDEST PUSH1 0x1 PUSH1 0x1 PUSH1 0xA0 SHL SUB DUP4 AND PUSH1 0x0 SWAP1 DUP2 MSTORE PUSH1 0x7 PUSH1 0x20 MSTORE PUSH1 0x40 SWAP1 KECCAK256 PUSH1 0x2 ADD SLOAD PUSH1 0xFF AND DUP1 ISZERO PUSH3 0x38A JUMPI POP PUSH1 0x1 PUSH1 0x1 PUSH1 0xA0 SHL SUB DUP4 AND PUSH1 0x0 SWAP1 DUP2 MSTORE PUSH1 0x7 PUSH1 0x20 MSTORE PUSH1 0x40 SWAP1 KECCAK256 SLOAD DUP2 GT ISZERO JUMPDEST DUP1 ISZERO PUSH3 0x3B1 JUMPI POP PUSH1 0x1 PUSH1 0x1 PUSH1 0xA0 SHL SUB DUP4 AND PUSH1 0x0 SWAP1 DUP2 MSTORE PUSH1 0x7 PUSH1 0x20 MSTORE PUSH1 0x40 SWAP1 KECCAK256 PUSH1 0x1 ADD SLOAD TIMESTAMP LT JUMPDEST ISZERO PUSH3 0x3FE JUMPI PUSH1 0x1 PUSH1 0x1 PUSH1 0xA0 SHL SUB DUP4 AND PUSH1 0x0 DUP2 DUP2 MSTORE PUSH1 0x7 PUSH1 0x20 MSTORE PUSH1 0x40 SWAP1 DUP2 SWAP1 KECCAK256 PUSH1 0x1 ADD SLOAD SWAP1 MLOAD PUSH4 0xBB36ADD PUSH1 0xE0 SHL DUP2 MSTORE PUSH1 0x4 DUP2 ADD SWAP3 SWAP1 SWAP3 MSTORE PUSH1 0x24 DUP3 ADD DUP4 SWAP1 MSTORE PUSH1 0x44 DUP3 ADD MSTORE PUSH1 0x64 ADD PUSH3 0xAB JUMP JUMPDEST PUSH1 0x1 PUSH1 0x1 PUSH1 0xA0 SHL SUB DUP4 AND PUSH1 0x0 SWAP1 DUP2 MSTORE PUSH1 0x9 PUSH1 0x20 MSTORE PUSH1 0x40 SWAP1 KECCAK256 SLOAD PUSH1 0xFF AND DUP1 PUSH3 0x43E JUMPI POP PUSH1 0x1 PUSH1 0x1 PUSH1 0xA0 SHL SUB DUP3 AND PUSH1 0x0 SWAP1 DUP2 MSTORE PUSH1 0x9 PUSH1 0x20 MSTORE PUSH1 0x40 SWAP1 KECCAK256 SLOAD PUSH1 0xFF AND JUMPDEST ISZERO PUSH3 0x449 JUMPI POP POP POP JUMP JUMPDEST PUSH1 0x10 SLOAD PUSH1 0xFF AND ISZERO PUSH3 0x5A1 JUMPI PUSH1 0xB SLOAD DUP2 GT ISZERO PUSH3 0x488 JUMPI PUSH1 0xB SLOAD PUSH1 0x40 MLOAD PUSH4 0xCC328053 PUSH1 0xE0 SHL DUP2 MSTORE PUSH3 0xAB SWAP2 DUP4 SWAP2 PUSH1 0x4 ADD SWAP2 DUP3 MSTORE PUSH1 0x20 DUP3 ADD MSTORE PUSH1 0x40 ADD SWAP1 JUMP JUMPDEST PUSH1 0xC SLOAD DUP2 PUSH3 0x4AC DUP5 PUSH1 0x1 PUSH1 0x1 PUSH1 0xA0 SHL SUB AND PUSH1 0x0 SWAP1 DUP2 MSTORE PUSH1 0x20 DUP2 SWAP1 MSTORE PUSH1 0x40 SWAP1 KECCAK256 SLOAD SWAP1 JUMP JUMPDEST PUSH3 0x4B8 SWAP2 SWAP1 PUSH3 0xB69 JUMP JUMPDEST GT ISZERO PUSH3 0x512 JUMPI DUP1 PUSH3 0x4E0 DUP4 PUSH1 0x1 PUSH1 0x1 PUSH1 0xA0 SHL SUB AND PUSH1 0x0 SWAP1 DUP2 MSTORE PUSH1 0x20 DUP2 SWAP1 MSTORE PUSH1 0x40 SWAP1 KECCAK256 SLOAD SWAP1 JUMP JUMPDEST PUSH3 0x4EC SWAP2 SWAP1 PUSH3 0xB69 JUMP JUMPDEST PUSH1 0xC SLOAD PUSH1 0x40 MLOAD PUSH4 0x7D222837 PUSH1 0xE0 SHL DUP2 MSTORE PUSH1 0x4 DUP2 ADD SWAP3 SWAP1 SWAP3 MSTORE PUSH1 0x24 DUP3 ADD MSTORE PUSH1 0x44 ADD PUSH3 0xAB JUMP JUMPDEST PUSH1 0x1 PUSH1 0x1 PUSH1 0xA0 SHL SUB DUP4 AND PUSH1 0x0 SWAP1 DUP2 MSTORE PUSH1 0x8 PUSH1 0x20 MSTORE PUSH1 0x40 SWAP1 KECCAK256 SLOAD PUSH3 0x53A SWAP1 PUSH2 0xE10 SWAP1 PUSH3 0xB69 JUMP JUMPDEST TIMESTAMP LT ISZERO PUSH3 0x5A1 JUMPI PUSH1 0x1 PUSH1 0x1 PUSH1 0xA0 SHL SUB DUP4 AND PUSH1 0x0 SWAP1 DUP2 MSTORE PUSH1 0x8 PUSH1 0x20 MSTORE PUSH1 0x40 SWAP1 KECCAK256 SLOAD DUP4 SWAP1 DUP3 SWAP1 PUSH3 0x56E SWAP1 PUSH2 0xE10 SWAP1 PUSH3 0xB69 JUMP JUMPDEST PUSH1 0x40 MLOAD PUSH4 0xBB36ADD PUSH1 0xE0 SHL DUP2 MSTORE PUSH1 0x1 PUSH1 0x1 PUSH1 0xA0 SHL SUB SWAP1 SWAP4 AND PUSH1 0x4 DUP5 ADD MSTORE PUSH1 0x24 DUP4 ADD SWAP2 SWAP1 SWAP2 MSTORE PUSH1 0x44 DUP3 ADD MSTORE PUSH1 0x64 ADD PUSH3 0xAB JUMP JUMPDEST POP POP PUSH1 0x1 PUSH1 0x1 PUSH1 0xA0 SHL SUB AND PUSH1 0x0 SWAP1 DUP2 MSTORE PUSH1 0x8 PUSH1 0x20 MSTORE PUSH1 0x40 SWAP1 KECCAK256 TIMESTAMP SWAP1 SSTORE JUMP JUMPDEST PUSH3 0x5C9 PUSH3 0x5D6 JUMP JUMPDEST PUSH3 0x341 DUP4 DUP4 DUP4 PUSH3 0x5FD JUMP JUMPDEST PUSH1 0x5 SLOAD PUSH1 0xFF AND ISZERO PUSH3 0x5FB JUMPI PUSH1 0x40 MLOAD PUSH4 0xD93C0665 PUSH1 0xE0 SHL DUP2 MSTORE PUSH1 0x4 ADD PUSH1 0x40 MLOAD DUP1 SWAP2 SUB SWAP1 REVERT JUMPDEST JUMP JUMPDEST PUSH1 0x1 PUSH1 0x1 PUSH1 0xA0 SHL SUB DUP4 AND PUSH3 0x62C JUMPI DUP1 PUSH1 0x2 PUSH1 0x0 DUP3 DUP3 SLOAD PUSH3 0x620 SWAP2 SWAP1 PUSH3 0xB69 JUMP JUMPDEST SWAP1 SWAP2 SSTORE POP PUSH3 0x6A0 SWAP1 POP JUMP JUMPDEST PUSH1 0x1 PUSH1 0x1 PUSH1 0xA0 SHL SUB DUP4 AND PUSH1 0x0 SWAP1 DUP2 MSTORE PUSH1 0x20 DUP2 SWAP1 MSTORE PUSH1 0x40 SWAP1 KECCAK256 SLOAD DUP2 DUP2 LT ISZERO PUSH3 0x681 JUMPI PUSH1 0x40 MLOAD PUSH4 0x391434E3 PUSH1 0xE2 SHL DUP2 MSTORE PUSH1 0x1 PUSH1 0x1 PUSH1 0xA0 SHL SUB DUP6 AND PUSH1 0x4 DUP3 ADD MSTORE PUSH1 0x24 DUP2 ADD DUP3 SWAP1 MSTORE PUSH1 0x44 DUP2 ADD DUP4 SWAP1 MSTORE PUSH1 0x64 ADD PUSH3 0xAB JUMP JUMPDEST PUSH1 0x1 PUSH1 0x1 PUSH1 0xA0 SHL SUB DUP5 AND PUSH1 0x0 SWAP1 DUP2 MSTORE PUSH1 0x20 DUP2 SWAP1 MSTORE PUSH1 0x40 SWAP1 KECCAK256 SWAP1 DUP3 SWAP1 SUB SWAP1 SSTORE JUMPDEST PUSH1 0x1 PUSH1 0x1 PUSH1 0xA0 SHL SUB DUP3 AND PUSH3 0x6BE JUMPI PUSH1 0x2 DUP1 SLOAD DUP3 SWAP1 SUB SWAP1 SSTORE PUSH3 0x6DD JUMP JUMPDEST PUSH1 0x1 PUSH1 0x1 PUSH1 0xA0 SHL SUB DUP3 AND PUSH1 0x0 SWAP1 DUP2 MSTORE PUSH1 0x20 DUP2 SWAP1 MSTORE PUSH1 0x40 SWAP1 KECCAK256 DUP1 SLOAD DUP3 ADD SWAP1 SSTORE JUMPDEST DUP2 PUSH1 0x1 PUSH1 0x1 PUSH1 0xA0 SHL SUB AND DUP4 PUSH1 0x1 PUSH1 0x1 PUSH1 0xA0 SHL SUB AND PUSH32 0xDDF252AD1BE2C89B69C2B068FC378DAA952BA7F163C4A11628F55A4DF523B3EF DUP4 PUSH1 0x40 MLOAD PUSH3 0x723 SWAP2 DUP2 MSTORE PUSH1 0x20 ADD SWAP1 JUMP JUMPDEST PUSH1 0x40 MLOAD DUP1 SWAP2 SUB SWAP1 LOG3 POP POP POP JUMP JUMPDEST PUSH4 0x4E487B71 PUSH1 0xE0 SHL PUSH1 0x0 MSTORE PUSH1 0x41 PUSH1 0x4 MSTORE PUSH1 0x24 PUSH1 0x0 REVERT JUMPDEST PUSH1 0x0 DUP3 PUSH1 0x1F DUP4 ADD SLT PUSH3 0x758 JUMPI PUSH1 0x0 DUP1 REVERT JUMPDEST DUP2 MLOAD PUSH1 0x1 PUSH1 0x1 PUSH1 0x40 SHL SUB DUP1 DUP3 GT ISZERO PUSH3 0x775 JUMPI PUSH3 0x775 PUSH3 0x730 JUMP JUMPDEST PUSH1 0x40 MLOAD PUSH1 0x1F DUP4 ADD PUSH1 0x1F NOT SWAP1 DUP2 AND PUSH1 0x3F ADD AND DUP2 ADD SWAP1 DUP3 DUP3 GT DUP2 DUP4 LT OR ISZERO PUSH3 0x7A0 JUMPI PUSH3 0x7A0 PUSH3 0x730 JUMP JUMPDEST DUP2 PUSH1 0x40 MSTORE DUP4 DUP2 MSTORE PUSH1 0x20 SWAP3 POP DUP7 PUSH1 0x20 DUP6 DUP9 ADD ADD GT ISZERO PUSH3 0x7BE JUMPI PUSH1 0x0 DUP1 REVERT JUMPDEST PUSH1 0x0 SWAP2 POP JUMPDEST DUP4 DUP3 LT ISZERO PUSH3 0x7E2 JUMPI DUP6 DUP3 ADD DUP4 ADD MLOAD DUP2 DUP4 ADD DUP5 ADD MSTORE SWAP1 DUP3 ADD SWAP1 PUSH3 0x7C3 JUMP JUMPDEST PUSH1 0x0 PUSH1 0x20 DUP6 DUP4 ADD ADD MSTORE DUP1 SWAP5 POP POP POP POP POP SWAP3 SWAP2 POP POP JUMP JUMPDEST PUSH1 0x0 DUP1 PUSH1 0x0 DUP1 PUSH1 0x80 DUP6 DUP8 SUB SLT ISZERO PUSH3 0x80F JUMPI PUSH1 0x0 DUP1 REVERT JUMPDEST DUP5 MLOAD PUSH1 0x1 PUSH1 0x1 PUSH1 0x40 SHL SUB DUP1 DUP3 GT ISZERO PUSH3 0x827 JUMPI PUSH1 0x0 DUP1 REVERT JUMPDEST PUSH3 0x835 DUP9 DUP4 DUP10 ADD PUSH3 0x746 JUMP JUMPDEST SWAP6 POP PUSH1 0x20 DUP8 ADD MLOAD SWAP2 POP DUP1 DUP3 GT ISZERO PUSH3 0x84C JUMPI PUSH1 0x0 DUP1 REVERT JUMPDEST POP PUSH3 0x85B DUP8 DUP3 DUP9 ADD PUSH3 0x746 JUMP JUMPDEST PUSH1 0x40 DUP8 ADD MLOAD PUSH1 0x60 DUP9 ADD MLOAD SWAP2 SWAP6 POP SWAP4 POP SWAP1 POP PUSH1 0x1 PUSH1 0x1 PUSH1 0xA0 SHL SUB DUP2 AND DUP2 EQ PUSH3 0x882 JUMPI PUSH1 0x0 DUP1 REVERT JUMPDEST SWAP4 SWAP7 SWAP3 SWAP6 POP SWAP1 SWAP4 POP POP JUMP JUMPDEST PUSH1 0x1 DUP2 DUP2 SHR SWAP1 DUP3 AND DUP1 PUSH3 0x8A2 JUMPI PUSH1 0x7F DUP3 AND SWAP2 POP JUMPDEST PUSH1 0x20 DUP3 LT DUP2 SUB PUSH3 0x8C3 JUMPI PUSH4 0x4E487B71 PUSH1 0xE0 SHL PUSH1 0x0 MSTORE PUSH1 0x22 PUSH1 0x4 MSTORE PUSH1 0x24 PUSH1 0x0 REVERT JUMPDEST POP SWAP2 SWAP1 POP JUMP JUMPDEST PUSH1 0x1F DUP3 GT ISZERO PUSH3 0x341 JUMPI PUSH1 0x0 DUP2 PUSH1 0x0 MSTORE PUSH1 0x20 PUSH1 0x0 KECCAK256 PUSH1 0x1F DUP6 ADD PUSH1 0x5 SHR DUP2 ADD PUSH1 0x20 DUP7 LT ISZERO PUSH3 0x8F4 JUMPI POP DUP1 JUMPDEST PUSH1 0x1F DUP6 ADD PUSH1 0x5 SHR DUP3 ADD SWAP2 POP JUMPDEST DUP2 DUP2 LT ISZERO PUSH3 0x915 JUMPI DUP3 DUP2 SSTORE PUSH1 0x1 ADD PUSH3 0x900 JUMP JUMPDEST POP POP POP POP POP POP JUMP JUMPDEST DUP2 MLOAD PUSH1 0x1 PUSH1 0x1 PUSH1 0x40 SHL SUB DUP2 GT ISZERO PUSH3 0x939 JUMPI PUSH3 0x939 PUSH3 0x730 JUMP JUMPDEST PUSH3 0x951 DUP2 PUSH3 0x94A DUP5 SLOAD PUSH3 0x88D JUMP JUMPDEST DUP5 PUSH3 0x8C9 JUMP JUMPDEST PUSH1 0x20 DUP1 PUSH1 0x1F DUP4 GT PUSH1 0x1 DUP2 EQ PUSH3 0x989 JUMPI PUSH1 0x0 DUP5 ISZERO PUSH3 0x970 JUMPI POP DUP6 DUP4 ADD MLOAD JUMPDEST PUSH1 0x0 NOT PUSH1 0x3 DUP7 SWAP1 SHL SHR NOT AND PUSH1 0x1 DUP6 SWAP1 SHL OR DUP6 SSTORE PUSH3 0x915 JUMP JUMPDEST PUSH1 0x0 DUP6 DUP2 MSTORE PUSH1 0x20 DUP2 KECCAK256 PUSH1 0x1F NOT DUP7 AND SWAP2 JUMPDEST DUP3 DUP2 LT ISZERO PUSH3 0x9BA JUMPI DUP9 DUP7 ADD MLOAD DUP3 SSTORE SWAP5 DUP5 ADD SWAP5 PUSH1 0x1 SWAP1 SWAP2 ADD SWAP1 DUP5 ADD PUSH3 0x999 JUMP JUMPDEST POP DUP6 DUP3 LT ISZERO PUSH3 0x9D9 JUMPI DUP8 DUP6 ADD MLOAD PUSH1 0x0 NOT PUSH1 0x3 DUP9 SWAP1 SHL PUSH1 0xF8 AND SHR NOT AND DUP2 SSTORE JUMPDEST POP POP POP POP POP PUSH1 0x1 SWAP1 DUP2 SHL ADD SWAP1 SSTORE POP JUMP JUMPDEST PUSH4 0x4E487B71 PUSH1 0xE0 SHL PUSH1 0x0 MSTORE PUSH1 0x11 PUSH1 0x4 MSTORE PUSH1 0x24 PUSH1 0x0 REVERT JUMPDEST PUSH1 0x1 DUP2 DUP2 JUMPDEST DUP1 DUP6 GT ISZERO PUSH3 0xA40 JUMPI DUP2 PUSH1 0x0 NOT DIV DUP3 GT ISZERO PUSH3 0xA24 JUMPI PUSH3 0xA24 PUSH3 0x9E9 JUMP JUMPDEST DUP1 DUP6 AND ISZERO PUSH3 0xA32 JUMPI SWAP2 DUP2 MUL SWAP2 JUMPDEST SWAP4 DUP5 SHR SWAP4 SWAP1 DUP1 MUL SWAP1 PUSH3 0xA04 JUMP JUMPDEST POP SWAP3 POP SWAP3 SWAP1 POP JUMP JUMPDEST PUSH1 0x0 DUP3 PUSH3 0xA59 JUMPI POP PUSH1 0x1 PUSH3 0xAF8 JUMP JUMPDEST DUP2 PUSH3 0xA68 JUMPI POP PUSH1 0x0 PUSH3 0xAF8 JUMP JUMPDEST DUP2 PUSH1 0x1 DUP2 EQ PUSH3 0xA81 JUMPI PUSH1 0x2 DUP2 EQ PUSH3 0xA8C JUMPI PUSH3 0xAAC JUMP JUMPDEST PUSH1 0x1 SWAP2 POP POP PUSH3 0xAF8 JUMP JUMPDEST PUSH1 0xFF DUP5 GT ISZERO PUSH3 0xAA0 JUMPI PUSH3 0xAA0 PUSH3 0x9E9 JUMP JUMPDEST POP POP PUSH1 0x1 DUP3 SHL PUSH3 0xAF8 JUMP JUMPDEST POP PUSH1 0x20 DUP4 LT PUSH2 0x133 DUP4 LT AND PUSH1 0x4E DUP5 LT PUSH1 0xB DUP5 LT AND OR ISZERO PUSH3 0xAD1 JUMPI POP DUP2 DUP2 EXP PUSH3 0xAF8 JUMP JUMPDEST PUSH3 0xADD DUP4 DUP4 PUSH3 0x9FF JUMP JUMPDEST DUP1 PUSH1 0x0 NOT DIV DUP3 GT ISZERO PUSH3 0xAF4 JUMPI PUSH3 0xAF4 PUSH3 0x9E9 JUMP JUMPDEST MUL SWAP1 POP JUMPDEST SWAP3 SWAP2 POP POP JUMP JUMPDEST PUSH1 0x0 PUSH3 0xB0F PUSH1 0xFF DUP5 AND DUP4 PUSH3 0xA48 JUMP JUMPDEST SWAP4 SWAP3 POP POP POP JUMP JUMPDEST DUP1 DUP3 MUL DUP2 ISZERO DUP3 DUP3 DIV DUP5 EQ OR PUSH3 0xAF8 JUMPI PUSH3 0xAF8 PUSH3 0x9E9 JUMP JUMPDEST PUSH1 0x0 DUP3 PUSH3 0xB4E JUMPI PUSH4 0x4E487B71 PUSH1 0xE0 SHL PUSH1 0x0 MSTORE PUSH1 0x12 PUSH1 0x4 MSTORE PUSH1 0x24 PUSH1 0x0 REVERT JUMPDEST POP DIV SWAP1 JUMP JUMPDEST DUP2 DUP2 SUB DUP2 DUP2 GT ISZERO PUSH3 0xAF8 JUMPI PUSH3 0xAF8 PUSH3 0x9E9 JUMP JUMPDEST DUP1 DUP3 ADD DUP1 DUP3 GT ISZERO PUSH3 0xAF8 JUMPI PUSH3 0xAF8 PUSH3 0x9E9 JUMP JUMPDEST PUSH1 0x80 MLOAD PUSH2 0x25BB PUSH3 0xBA2 PUSH1 0x0 CODECOPY PUSH1 0x0 DUP2 DUP2 PUSH2 0x481 ADD MSTORE PUSH2 0x1664 ADD MSTORE PUSH2 0x25BB PUSH1 0x0 RETURN INVALID PUSH1 0x80 PUSH1 0x40 MSTORE CALLVALUE DUP1 ISZERO PUSH2 0x10 JUMPI PUSH1 0x0 DUP1 REVERT JUMPDEST POP PUSH1 0x4 CALLDATASIZE LT PUSH2 0x38E JUMPI PUSH1 0x0 CALLDATALOAD PUSH1 0xE0 SHR DUP1 PUSH4 0x79CC6790 GT PUSH2 0x1DE JUMPI DUP1 PUSH4 0xACEC8CA9 GT PUSH2 0x10F JUMPI DUP1 PUSH4 0xDA35C664 GT PUSH2 0xAD JUMPI DUP1 PUSH4 0xEE5967F5 GT PUSH2 0x7C JUMPI DUP1 PUSH4 0xEE5967F5 EQ PUSH2 0x87E JUMPI DUP1 PUSH4 0xEE8A7C15 EQ PUSH2 0x891 JUMPI DUP1 PUSH4 0xF2FDE38B EQ PUSH2 0x899 JUMPI DUP1 PUSH4 0xF968F493 EQ PUSH2 0x8AC JUMPI PUSH1 0x0 DUP1 REVERT JUMPDEST DUP1 PUSH4 0xDA35C664 EQ PUSH2 0x820 JUMPI DUP1 PUSH4 0xDC38679C EQ PUSH2 0x829 JUMPI DUP1 PUSH4 0xDD62ED3E EQ PUSH2 0x832 JUMPI DUP1 PUSH4 0xDEEFCE68 EQ PUSH2 0x86B JUMPI PUSH1 0x0 DUP1 REVERT JUMPDEST DUP1 PUSH4 0xC7F758A8 GT PUSH2 0xE9 JUMPI DUP1 PUSH4 0xC7F758A8 EQ PUSH2 0x7C1 JUMPI DUP1 PUSH4 0xC9D27AFE EQ PUSH2 0x7E7 JUMPI DUP1 PUSH4 0xCE144E0A EQ PUSH2 0x7FA JUMPI DUP1 PUSH4 0xCE2661F1 EQ PUSH2 0x80D JUMPI PUSH1 0x0 DUP1 REVERT JUMPDEST DUP1 PUSH4 0xACEC8CA9 EQ PUSH2 0x7A1 JUMPI DUP1 PUSH4 0xAD32BE6A EQ PUSH2 0x7AA JUMPI DUP1 PUSH4 0xB1610D7E EQ PUSH2 0x7B7 JUMPI PUSH1 0x0 DUP1 REVERT JUMPDEST DUP1 PUSH4 0x95D89B41 GT PUSH2 0x17C JUMPI DUP1 PUSH4 0x9FD6DB12 GT PUSH2 0x156 JUMPI DUP1 PUSH4 0x9FD6DB12 EQ PUSH2 0x760 JUMPI DUP1 PUSH4 0xA9059CBB EQ PUSH2 0x772 JUMPI DUP1 PUSH4 0xA9E75723 EQ PUSH2 0x785 JUMPI DUP1 PUSH4 0xACAEFB20 EQ PUSH2 0x78E JUMPI PUSH1 0x0 DUP1 REVERT JUMPDEST DUP1 PUSH4 0x95D89B41 EQ PUSH2 0x732 JUMPI DUP1 PUSH4 0x96AE946F EQ PUSH2 0x73A JUMPI DUP1 PUSH4 0x9BC7C8C0 EQ PUSH2 0x74D JUMPI PUSH1 0x0 DUP1 REVERT JUMPDEST DUP1 PUSH4 0x89158D8E GT PUSH2 0x1B8 JUMPI DUP1 PUSH4 0x89158D8E EQ PUSH2 0x6D0 JUMPI DUP1 PUSH4 0x8BF55409 EQ PUSH2 0x6E3 JUMPI DUP1 PUSH4 0x8DA5CB5B EQ PUSH2 0x6F6 JUMPI DUP1 PUSH4 0x9281AA0B EQ PUSH2 0x71F JUMPI PUSH1 0x0 DUP1 REVERT JUMPDEST DUP1 PUSH4 0x79CC6790 EQ PUSH2 0x6A1 JUMPI DUP1 PUSH4 0x7A4A3412 EQ PUSH2 0x6B4 JUMPI DUP1 PUSH4 0x81EAAE48 EQ PUSH2 0x6BD JUMPI PUSH1 0x0 DUP1 REVERT JUMPDEST DUP1 PUSH4 0x49C2A1A6 GT PUSH2 0x2C3 JUMPI DUP1 PUSH4 0x5EB7413A GT PUSH2 0x261 JUMPI DUP1 PUSH4 0x6CF5BB63 GT PUSH2 0x230 JUMPI DUP1 PUSH4 0x6CF5BB63 EQ PUSH2 0x64A JUMPI DUP1 PUSH4 0x70A08231 EQ PUSH2 0x67C JUMPI DUP1 PUSH4 0x715018A6 EQ PUSH2 0x68F JUMPI DUP1 PUSH4 0x78B4330F EQ PUSH2 0x697 JUMPI PUSH1 0x0 DUP1 REVERT JUMPDEST DUP1 PUSH4 0x5EB7413A EQ PUSH2 0x57E JUMPI DUP1 PUSH4 0x6A64EFF8 EQ PUSH2 0x5CD JUMPI DUP1 PUSH4 0x6B2D95D4 EQ PUSH2 0x5E0 JUMPI DUP1 PUSH4 0x6C24A76F EQ PUSH2 0x637 JUMPI PUSH1 0x0 DUP1 REVERT JUMPDEST DUP1 PUSH4 0x4EA3871A GT PUSH2 0x29D JUMPI DUP1 PUSH4 0x4EA3871A EQ PUSH2 0x54D JUMPI DUP1 PUSH4 0x4F1BFC9E EQ PUSH2 0x560 JUMPI DUP1 PUSH4 0x51858E27 EQ PUSH2 0x56B JUMPI DUP1 PUSH4 0x5C975ABB EQ PUSH2 0x573 JUMPI PUSH1 0x0 DUP1 REVERT JUMPDEST DUP1 PUSH4 0x49C2A1A6 EQ PUSH2 0x51F JUMPI DUP1 PUSH4 0x4A4E3BD5 EQ PUSH2 0x532 JUMPI DUP1 PUSH4 0x4D754715 EQ PUSH2 0x53A JUMPI PUSH1 0x0 DUP1 REVERT JUMPDEST DUP1 PUSH4 0x23B872DD GT PUSH2 0x330 JUMPI DUP1 PUSH4 0x333E6F06 GT PUSH2 0x30A JUMPI DUP1 PUSH4 0x333E6F06 EQ PUSH2 0x4A3 JUMPI DUP1 PUSH4 0x3AF32ABF EQ PUSH2 0x4AC JUMPI DUP1 PUSH4 0x42966C68 EQ PUSH2 0x4CF JUMPI DUP1 PUSH4 0x43859632 EQ PUSH2 0x4E2 JUMPI PUSH1 0x0 DUP1 REVERT JUMPDEST DUP1 PUSH4 0x23B872DD EQ PUSH2 0x45A JUMPI DUP1 PUSH4 0x313CE567 EQ PUSH2 0x46D JUMPI DUP1 PUSH4 0x32CB6B0C EQ PUSH2 0x47C JUMPI PUSH1 0x0 DUP1 REVERT JUMPDEST DUP1 PUSH4 0xB3978FC GT PUSH2 0x36C JUMPI DUP1 PUSH4 0xB3978FC EQ PUSH2 0x3FB JUMPI DUP1 PUSH4 0xD2D8A31 EQ PUSH2 0x40F JUMPI DUP1 PUSH4 0xD61B519 EQ PUSH2 0x43D JUMPI DUP1 PUSH4 0x18160DDD EQ PUSH2 0x452 JUMPI PUSH1 0x0 DUP1 REVERT JUMPDEST DUP1 PUSH4 0x13CF08B EQ PUSH2 0x393 JUMPI DUP1 PUSH4 0x6FDDE03 EQ PUSH2 0x3C3 JUMPI DUP1 PUSH4 0x95EA7B3 EQ PUSH2 0x3D8 JUMPI JUMPDEST PUSH1 0x0 DUP1 REVERT JUMPDEST PUSH2 0x3A6 PUSH2 0x3A1 CALLDATASIZE PUSH1 0x4 PUSH2 0x1FB3 JUMP JUMPDEST PUSH2 0x8B4 JUMP JUMPDEST PUSH1 0x40 MLOAD PUSH2 0x3BA SWAP9 SWAP8 SWAP7 SWAP6 SWAP5 SWAP4 SWAP3 SWAP2 SWAP1 PUSH2 0x2012 JUMP JUMPDEST PUSH1 0x40 MLOAD DUP1 SWAP2 SUB SWAP1 RETURN JUMPDEST PUSH2 0x3CB PUSH2 0x98E JUMP JUMPDEST PUSH1 0x40 MLOAD PUSH2 0x3BA SWAP2 SWAP1 PUSH2 0x206D JUMP JUMPDEST PUSH2 0x3EB PUSH2 0x3E6 CALLDATASIZE PUSH1 0x4 PUSH2 0x20A3 JUMP JUMPDEST PUSH2 0xA20 JUMP JUMPDEST PUSH1 0x40 MLOAD SWAP1 ISZERO ISZERO DUP2 MSTORE PUSH1 0x20 ADD PUSH2 0x3BA JUMP JUMPDEST PUSH1 0x10 SLOAD PUSH2 0x3EB SWAP1 PUSH4 0x1000000 SWAP1 DIV PUSH1 0xFF AND DUP2 JUMP JUMPDEST PUSH2 0x42F PUSH2 0x41D CALLDATASIZE PUSH1 0x4 PUSH2 0x20CD JUMP JUMPDEST PUSH1 0x8 PUSH1 0x20 MSTORE PUSH1 0x0 SWAP1 DUP2 MSTORE PUSH1 0x40 SWAP1 KECCAK256 SLOAD DUP2 JUMP JUMPDEST PUSH1 0x40 MLOAD SWAP1 DUP2 MSTORE PUSH1 0x20 ADD PUSH2 0x3BA JUMP JUMPDEST PUSH2 0x450 PUSH2 0x44B CALLDATASIZE PUSH1 0x4 PUSH2 0x1FB3 JUMP JUMPDEST PUSH2 0xA3A JUMP JUMPDEST STOP JUMPDEST PUSH1 0x2 SLOAD PUSH2 0x42F JUMP JUMPDEST PUSH2 0x3EB PUSH2 0x468 CALLDATASIZE PUSH1 0x4 PUSH2 0x20E8 JUMP JUMPDEST PUSH2 0xB5C JUMP JUMPDEST PUSH1 0x40 MLOAD PUSH1 0x12 DUP2 MSTORE PUSH1 0x20 ADD PUSH2 0x3BA JUMP JUMPDEST PUSH2 0x42F PUSH32 0x0 DUP2 JUMP JUMPDEST PUSH2 0x42F PUSH1 0xC SLOAD DUP2 JUMP JUMPDEST PUSH2 0x3EB PUSH2 0x4BA CALLDATASIZE PUSH1 0x4 PUSH2 0x20CD JUMP JUMPDEST PUSH1 0x9 PUSH1 0x20 MSTORE PUSH1 0x0 SWAP1 DUP2 MSTORE PUSH1 0x40 SWAP1 KECCAK256 SLOAD PUSH1 0xFF AND DUP2 JUMP JUMPDEST PUSH2 0x450 PUSH2 0x4DD CALLDATASIZE PUSH1 0x4 PUSH2 0x1FB3 JUMP JUMPDEST PUSH2 0xB80 JUMP JUMPDEST PUSH2 0x3EB PUSH2 0x4F0 CALLDATASIZE PUSH1 0x4 PUSH2 0x2124 JUMP JUMPDEST PUSH1 0x0 DUP3 DUP2 MSTORE PUSH1 0xA PUSH1 0x20 SWAP1 DUP2 MSTORE PUSH1 0x40 DUP1 DUP4 KECCAK256 PUSH1 0x1 PUSH1 0x1 PUSH1 0xA0 SHL SUB DUP6 AND DUP5 MSTORE PUSH1 0x7 ADD SWAP1 SWAP2 MSTORE SWAP1 KECCAK256 SLOAD PUSH1 0xFF AND SWAP3 SWAP2 POP POP JUMP JUMPDEST PUSH2 0x42F PUSH2 0x52D CALLDATASIZE PUSH1 0x4 PUSH2 0x2166 JUMP JUMPDEST PUSH2 0xB8D JUMP JUMPDEST PUSH2 0x450 PUSH2 0xCB4 JUMP JUMPDEST PUSH1 0x10 SLOAD PUSH2 0x3EB SWAP1 PUSH3 0x10000 SWAP1 DIV PUSH1 0xFF AND DUP2 JUMP JUMPDEST PUSH2 0x450 PUSH2 0x55B CALLDATASIZE PUSH1 0x4 PUSH2 0x2225 JUMP JUMPDEST PUSH2 0xCC6 JUMP JUMPDEST PUSH2 0x42F PUSH4 0x1E13380 DUP2 JUMP JUMPDEST PUSH2 0x450 PUSH2 0xCE8 JUMP JUMPDEST PUSH1 0x5 SLOAD PUSH1 0xFF AND PUSH2 0x3EB JUMP JUMPDEST PUSH2 0x5B0 PUSH2 0x58C CALLDATASIZE PUSH1 0x4 PUSH2 0x20CD JUMP JUMPDEST PUSH1 0x7 PUSH1 0x20 MSTORE PUSH1 0x0 SWAP1 DUP2 MSTORE PUSH1 0x40 SWAP1 KECCAK256 DUP1 SLOAD PUSH1 0x1 DUP3 ADD SLOAD PUSH1 0x2 SWAP1 SWAP3 ADD SLOAD SWAP1 SWAP2 SWAP1 PUSH1 0xFF AND DUP4 JUMP JUMPDEST PUSH1 0x40 DUP1 MLOAD SWAP4 DUP5 MSTORE PUSH1 0x20 DUP5 ADD SWAP3 SWAP1 SWAP3 MSTORE ISZERO ISZERO SWAP1 DUP3 ADD MSTORE PUSH1 0x60 ADD PUSH2 0x3BA JUMP JUMPDEST PUSH2 0x450 PUSH2 0x5DB CALLDATASIZE PUSH1 0x4 PUSH2 0x1FB3 JUMP JUMPDEST PUSH2 0xCF8 JUMP JUMPDEST PUSH2 0x5B0 PUSH2 0x5EE CALLDATASIZE PUSH1 0x4 PUSH2 0x20CD JUMP JUMPDEST PUSH1 0x1 PUSH1 0x1 PUSH1 0xA0 SHL SUB AND PUSH1 0x0 SWAP1 DUP2 MSTORE PUSH1 0x7 PUSH1 0x20 SWAP1 DUP2 MSTORE PUSH1 0x40 SWAP2 DUP3 SWAP1 KECCAK256 DUP3 MLOAD PUSH1 0x60 DUP2 ADD DUP5 MSTORE DUP2 SLOAD DUP1 DUP3 MSTORE PUSH1 0x1 DUP4 ADD SLOAD SWAP4 DUP3 ADD DUP5 SWAP1 MSTORE PUSH1 0x2 SWAP1 SWAP3 ADD SLOAD PUSH1 0xFF AND ISZERO ISZERO SWAP4 ADD DUP4 SWAP1 MSTORE SWAP3 SWAP1 SWAP2 SWAP1 JUMP JUMPDEST PUSH2 0x42F PUSH2 0x645 CALLDATASIZE PUSH1 0x4 PUSH2 0x20CD JUMP JUMPDEST PUSH2 0xD05 JUMP JUMPDEST PUSH2 0x5B0 PUSH2 0x658 CALLDATASIZE PUSH1 0x4 PUSH2 0x20CD JUMP JUMPDEST PUSH1 0x11 PUSH1 0x20 MSTORE PUSH1 0x0 SWAP1 DUP2 MSTORE PUSH1 0x40 SWAP1 KECCAK256 DUP1 SLOAD PUSH1 0x1 DUP3 ADD SLOAD PUSH1 0x2 SWAP1 SWAP3 ADD SLOAD SWAP1 SWAP2 SWAP1 PUSH1 0xFF AND DUP4 JUMP JUMPDEST PUSH2 0x42F PUSH2 0x68A CALLDATASIZE PUSH1 0x4 PUSH2 0x20CD JUMP JUMPDEST PUSH2 0xD95 JUMP JUMPDEST PUSH2 0x450 PUSH2 0xDB0 JUMP JUMPDEST PUSH2 0x42F PUSH3 0x15180 DUP2 JUMP JUMPDEST PUSH2 0x450 PUSH2 0x6AF CALLDATASIZE PUSH1 0x4 PUSH2 0x20A3 JUMP JUMPDEST PUSH2 0xDC2 JUMP JUMPDEST PUSH2 0x42F PUSH2 0xE10 DUP2 JUMP JUMPDEST PUSH2 0x450 PUSH2 0x6CB CALLDATASIZE PUSH1 0x4 PUSH2 0x2225 JUMP JUMPDEST PUSH2 0xDDB JUMP JUMPDEST PUSH2 0x450 PUSH2 0x6DE CALLDATASIZE PUSH1 0x4 PUSH2 0x2242 JUMP JUMPDEST PUSH2 0xDFF JUMP JUMPDEST PUSH2 0x450 PUSH2 0x6F1 CALLDATASIZE PUSH1 0x4 PUSH2 0x1FB3 JUMP JUMPDEST PUSH2 0xF65 JUMP JUMPDEST PUSH1 0x5 SLOAD PUSH2 0x100 SWAP1 DIV PUSH1 0x1 PUSH1 0x1 PUSH1 0xA0 SHL SUB AND PUSH1 0x40 MLOAD PUSH1 0x1 PUSH1 0x1 PUSH1 0xA0 SHL SUB SWAP1 SWAP2 AND DUP2 MSTORE PUSH1 0x20 ADD PUSH2 0x3BA JUMP JUMPDEST PUSH2 0x450 PUSH2 0x72D CALLDATASIZE PUSH1 0x4 PUSH2 0x2264 JUMP JUMPDEST PUSH2 0xFB3 JUMP JUMPDEST PUSH2 0x3CB PUSH2 0xFE6 JUMP JUMPDEST PUSH2 0x450 PUSH2 0x748 CALLDATASIZE PUSH1 0x4 PUSH2 0x20CD JUMP JUMPDEST PUSH2 0xFF5 JUMP JUMPDEST PUSH2 0x450 PUSH2 0x75B CALLDATASIZE PUSH1 0x4 PUSH2 0x1FB3 JUMP JUMPDEST PUSH2 0x1188 JUMP JUMPDEST PUSH1 0x10 SLOAD PUSH2 0x3EB SWAP1 PUSH2 0x100 SWAP1 DIV PUSH1 0xFF AND DUP2 JUMP JUMPDEST PUSH2 0x3EB PUSH2 0x780 CALLDATASIZE PUSH1 0x4 PUSH2 0x20A3 JUMP JUMPDEST PUSH2 0x11CE JUMP JUMPDEST PUSH2 0x42F PUSH1 0xB SLOAD DUP2 JUMP JUMPDEST PUSH2 0x450 PUSH2 0x79C CALLDATASIZE PUSH1 0x4 PUSH2 0x2225 JUMP JUMPDEST PUSH2 0x11DC JUMP JUMPDEST PUSH2 0x42F PUSH1 0xE SLOAD DUP2 JUMP JUMPDEST PUSH1 0x10 SLOAD PUSH2 0x3EB SWAP1 PUSH1 0xFF AND DUP2 JUMP JUMPDEST PUSH2 0x42F PUSH3 0x93A80 DUP2 JUMP JUMPDEST PUSH2 0x7D4 PUSH2 0x7CF CALLDATASIZE PUSH1 0x4 PUSH2 0x1FB3 JUMP JUMPDEST PUSH2 0x11F7 JUMP JUMPDEST PUSH1 0x40 MLOAD PUSH2 0x3BA SWAP8 SWAP7 SWAP6 SWAP5 SWAP4 SWAP3 SWAP2 SWAP1 PUSH2 0x229B JUMP JUMPDEST PUSH2 0x450 PUSH2 0x7F5 CALLDATASIZE PUSH1 0x4 PUSH2 0x22ED JUMP JUMPDEST PUSH2 0x12F9 JUMP JUMPDEST PUSH2 0x450 PUSH2 0x808 CALLDATASIZE PUSH1 0x4 PUSH2 0x2312 JUMP JUMPDEST PUSH2 0x1457 JUMP JUMPDEST PUSH2 0x450 PUSH2 0x81B CALLDATASIZE PUSH1 0x4 PUSH2 0x2225 JUMP JUMPDEST PUSH2 0x15E8 JUMP JUMPDEST PUSH2 0x42F PUSH1 0xD SLOAD DUP2 JUMP JUMPDEST PUSH2 0x42F PUSH1 0xF SLOAD DUP2 JUMP JUMPDEST PUSH2 0x42F PUSH2 0x840 CALLDATASIZE PUSH1 0x4 PUSH2 0x2345 JUMP JUMPDEST PUSH1 0x1 PUSH1 0x1 PUSH1 0xA0 SHL SUB SWAP2 DUP3 AND PUSH1 0x0 SWAP1 DUP2 MSTORE PUSH1 0x1 PUSH1 0x20 SWAP1 DUP2 MSTORE PUSH1 0x40 DUP1 DUP4 KECCAK256 SWAP4 SWAP1 SWAP5 AND DUP3 MSTORE SWAP2 SWAP1 SWAP2 MSTORE KECCAK256 SLOAD SWAP1 JUMP JUMPDEST PUSH2 0x450 PUSH2 0x879 CALLDATASIZE PUSH1 0x4 PUSH2 0x2242 JUMP JUMPDEST PUSH2 0x160E JUMP JUMPDEST PUSH2 0x450 PUSH2 0x88C CALLDATASIZE PUSH1 0x4 PUSH2 0x2242 JUMP JUMPDEST PUSH2 0x1712 JUMP JUMPDEST PUSH2 0x42F PUSH1 0xA DUP2 JUMP JUMPDEST PUSH2 0x450 PUSH2 0x8A7 CALLDATASIZE PUSH1 0x4 PUSH2 0x20CD JUMP JUMPDEST PUSH2 0x17C7 JUMP JUMPDEST PUSH2 0x450 PUSH2 0x1802 JUMP JUMPDEST PUSH1 0xA PUSH1 0x20 MSTORE PUSH1 0x0 SWAP1 DUP2 MSTORE PUSH1 0x40 SWAP1 KECCAK256 DUP1 SLOAD PUSH1 0x1 DUP3 ADD SLOAD PUSH1 0x2 DUP4 ADD DUP1 SLOAD SWAP3 SWAP4 PUSH1 0x1 PUSH1 0x1 PUSH1 0xA0 SHL SUB SWAP1 SWAP3 AND SWAP3 PUSH2 0x8E6 SWAP1 PUSH2 0x236F JUMP JUMPDEST DUP1 PUSH1 0x1F ADD PUSH1 0x20 DUP1 SWAP2 DIV MUL PUSH1 0x20 ADD PUSH1 0x40 MLOAD SWAP1 DUP2 ADD PUSH1 0x40 MSTORE DUP1 SWAP3 SWAP2 SWAP1 DUP2 DUP2 MSTORE PUSH1 0x20 ADD DUP3 DUP1 SLOAD PUSH2 0x912 SWAP1 PUSH2 0x236F JUMP JUMPDEST DUP1 ISZERO PUSH2 0x95F JUMPI DUP1 PUSH1 0x1F LT PUSH2 0x934 JUMPI PUSH2 0x100 DUP1 DUP4 SLOAD DIV MUL DUP4 MSTORE SWAP2 PUSH1 0x20 ADD SWAP2 PUSH2 0x95F JUMP JUMPDEST DUP3 ADD SWAP2 SWAP1 PUSH1 0x0 MSTORE PUSH1 0x20 PUSH1 0x0 KECCAK256 SWAP1 JUMPDEST DUP2 SLOAD DUP2 MSTORE SWAP1 PUSH1 0x1 ADD SWAP1 PUSH1 0x20 ADD DUP1 DUP4 GT PUSH2 0x942 JUMPI DUP3 SWAP1 SUB PUSH1 0x1F AND DUP3 ADD SWAP2 JUMPDEST POP POP POP POP PUSH1 0x3 DUP4 ADD SLOAD PUSH1 0x4 DUP5 ADD SLOAD PUSH1 0x5 DUP6 ADD SLOAD PUSH1 0x6 SWAP1 SWAP6 ADD SLOAD SWAP4 SWAP5 SWAP2 SWAP4 SWAP1 SWAP3 POP PUSH1 0xFF DUP1 DUP3 AND SWAP2 PUSH2 0x100 SWAP1 DIV AND DUP9 JUMP JUMPDEST PUSH1 0x60 PUSH1 0x3 DUP1 SLOAD PUSH2 0x99D SWAP1 PUSH2 0x236F JUMP JUMPDEST DUP1 PUSH1 0x1F ADD PUSH1 0x20 DUP1 SWAP2 DIV MUL PUSH1 0x20 ADD PUSH1 0x40 MLOAD SWAP1 DUP2 ADD PUSH1 0x40 MSTORE DUP1 SWAP3 SWAP2 SWAP1 DUP2 DUP2 MSTORE PUSH1 0x20 ADD DUP3 DUP1 SLOAD PUSH2 0x9C9 SWAP1 PUSH2 0x236F JUMP JUMPDEST DUP1 ISZERO PUSH2 0xA16 JUMPI DUP1 PUSH1 0x1F LT PUSH2 0x9EB JUMPI PUSH2 0x100 DUP1 DUP4 SLOAD DIV MUL DUP4 MSTORE SWAP2 PUSH1 0x20 ADD SWAP2 PUSH2 0xA16 JUMP JUMPDEST DUP3 ADD SWAP2 SWAP1 PUSH1 0x0 MSTORE PUSH1 0x20 PUSH1 0x0 KECCAK256 SWAP1 JUMPDEST DUP2 SLOAD DUP2 MSTORE SWAP1 PUSH1 0x1 ADD SWAP1 PUSH1 0x20 ADD DUP1 DUP4 GT PUSH2 0x9F9 JUMPI DUP3 SWAP1 SUB PUSH1 0x1F AND DUP3 ADD SWAP2 JUMPDEST POP POP POP POP POP SWAP1 POP SWAP1 JUMP JUMPDEST PUSH1 0x0 CALLER PUSH2 0xA2E DUP2 DUP6 DUP6 PUSH2 0x18CB JUMP JUMPDEST PUSH1 0x1 SWAP2 POP POP JUMPDEST SWAP3 SWAP2 POP POP JUMP JUMPDEST PUSH1 0x0 DUP2 DUP2 MSTORE PUSH1 0xA PUSH1 0x20 MSTORE PUSH1 0x40 SWAP1 KECCAK256 PUSH1 0x6 DUP2 ADD SLOAD PUSH2 0x100 SWAP1 DIV PUSH1 0xFF AND PUSH2 0xA72 JUMPI PUSH1 0x40 MLOAD PUSH4 0x1DC06501 PUSH1 0xE3 SHL DUP2 MSTORE PUSH1 0x4 ADD PUSH1 0x40 MLOAD DUP1 SWAP2 SUB SWAP1 REVERT JUMPDEST DUP1 PUSH1 0x5 ADD SLOAD TIMESTAMP LT ISZERO PUSH2 0xA97 JUMPI PUSH1 0x40 MLOAD PUSH4 0x7BECC13F PUSH1 0xE0 SHL DUP2 MSTORE PUSH1 0x4 ADD PUSH1 0x40 MLOAD DUP1 SWAP2 SUB SWAP1 REVERT JUMPDEST PUSH1 0x6 DUP2 ADD SLOAD PUSH1 0xFF AND ISZERO PUSH2 0xABD JUMPI PUSH1 0x40 MLOAD PUSH4 0x1DC06501 PUSH1 0xE3 SHL DUP2 MSTORE PUSH1 0x4 ADD PUSH1 0x40 MLOAD DUP1 SWAP2 SUB SWAP1 REVERT JUMPDEST PUSH1 0x0 DUP2 PUSH1 0x4 ADD SLOAD DUP3 PUSH1 0x3 ADD SLOAD PUSH2 0xAD3 SWAP2 SWAP1 PUSH2 0x23BF JUMP JUMPDEST SWAP1 POP PUSH1 0x0 PUSH1 0x64 PUSH1 0xA PUSH2 0xAE4 PUSH1 0x2 SLOAD SWAP1 JUMP JUMPDEST PUSH2 0xAEE SWAP2 SWAP1 PUSH2 0x23D2 JUMP JUMPDEST PUSH2 0xAF8 SWAP2 SWAP1 PUSH2 0x23E9 JUMP JUMPDEST SWAP1 POP DUP1 DUP3 LT ISZERO PUSH2 0xB1B JUMPI PUSH1 0x40 MLOAD PUSH4 0xAA26A693 PUSH1 0xE0 SHL DUP2 MSTORE PUSH1 0x4 ADD PUSH1 0x40 MLOAD DUP1 SWAP2 SUB SWAP1 REVERT JUMPDEST PUSH1 0x6 DUP4 ADD DUP1 SLOAD PUSH2 0xFFFF NOT AND PUSH1 0x1 OR SWAP1 SSTORE PUSH1 0x40 MLOAD DUP5 SWAP1 PUSH32 0x712AE1383F79AC853F8D882153778E0260EF8F03B504E2866E0593E04D2B291F SWAP1 PUSH1 0x0 SWAP1 LOG2 POP POP POP POP JUMP JUMPDEST PUSH1 0x0 CALLER PUSH2 0xB6A DUP6 DUP3 DUP6 PUSH2 0x18DD JUMP JUMPDEST PUSH2 0xB75 DUP6 DUP6 DUP6 PUSH2 0x1949 JUMP JUMPDEST POP PUSH1 0x1 SWAP5 SWAP4 POP POP POP POP JUMP JUMPDEST PUSH2 0xB8A CALLER DUP3 PUSH2 0x19A8 JUMP JUMPDEST POP JUMP JUMPDEST PUSH1 0x10 SLOAD PUSH1 0x0 SWAP1 PUSH4 0x1000000 SWAP1 DIV PUSH1 0xFF AND PUSH2 0xBBA JUMPI PUSH1 0x40 MLOAD PUSH4 0x1EE7B5BD PUSH1 0xE2 SHL DUP2 MSTORE PUSH1 0x4 ADD PUSH1 0x40 MLOAD DUP1 SWAP2 SUB SWAP1 REVERT JUMPDEST PUSH1 0x64 PUSH2 0xBC5 PUSH1 0x2 SLOAD SWAP1 JUMP JUMPDEST PUSH2 0xBD0 SWAP1 PUSH1 0x1 PUSH2 0x23D2 JUMP JUMPDEST PUSH2 0xBDA SWAP2 SWAP1 PUSH2 0x23E9 JUMP JUMPDEST PUSH2 0xBE3 CALLER PUSH2 0xD95 JUMP JUMPDEST LT ISZERO PUSH2 0xC02 JUMPI PUSH1 0x40 MLOAD PUSH4 0x1EE7B5BD PUSH1 0xE2 SHL DUP2 MSTORE PUSH1 0x4 ADD PUSH1 0x40 MLOAD DUP1 SWAP2 SUB SWAP1 REVERT JUMPDEST PUSH1 0xD DUP1 SLOAD PUSH1 0x0 SWAP2 DUP3 PUSH2 0xC13 DUP4 PUSH2 0x240B JUMP JUMPDEST SWAP1 SWAP2 SSTORE POP PUSH1 0x0 DUP2 DUP2 MSTORE PUSH1 0xA PUSH1 0x20 MSTORE PUSH1 0x40 SWAP1 KECCAK256 DUP2 DUP2 SSTORE PUSH1 0x1 DUP2 ADD DUP1 SLOAD PUSH1 0x1 PUSH1 0x1 PUSH1 0xA0 SHL SUB NOT AND CALLER OR SWAP1 SSTORE SWAP1 SWAP2 POP PUSH1 0x2 DUP2 ADD PUSH2 0xC4D DUP6 DUP3 PUSH2 0x2474 JUMP JUMPDEST POP PUSH2 0xC5B PUSH3 0x93A80 TIMESTAMP PUSH2 0x23BF JUMP JUMPDEST PUSH1 0x5 DUP3 ADD SSTORE PUSH1 0x6 DUP2 ADD DUP1 SLOAD PUSH2 0xFF00 NOT AND PUSH2 0x100 OR SWAP1 SSTORE PUSH1 0x40 MLOAD CALLER SWAP1 DUP4 SWAP1 PUSH32 0x7585F467599D0F008985F231AF99293BE388626AC16CA59505C2F8F88969CD63 SWAP1 PUSH2 0xCA5 SWAP1 DUP9 SWAP1 PUSH2 0x206D JUMP JUMPDEST PUSH1 0x40 MLOAD DUP1 SWAP2 SUB SWAP1 LOG3 POP SWAP3 SWAP2 POP POP JUMP JUMPDEST PUSH2 0xCBC PUSH2 0x19DE JUMP JUMPDEST PUSH2 0xCC4 PUSH2 0x1A11 JUMP JUMPDEST JUMP JUMPDEST PUSH2 0xCCE PUSH2 0x19DE JUMP JUMPDEST PUSH1 0x10 DUP1 SLOAD SWAP2 ISZERO ISZERO PUSH2 0x100 MUL PUSH2 0xFF00 NOT SWAP1 SWAP3 AND SWAP2 SWAP1 SWAP2 OR SWAP1 SSTORE JUMP JUMPDEST PUSH2 0xCF0 PUSH2 0x19DE JUMP JUMPDEST PUSH2 0xCC4 PUSH2 0x1A63 JUMP JUMPDEST PUSH2 0xD00 PUSH2 0x19DE JUMP JUMPDEST PUSH1 0xF SSTORE JUMP JUMPDEST PUSH1 0x0 DUP1 PUSH2 0xD11 DUP4 PUSH2 0xD95 JUMP JUMPDEST PUSH1 0x1 PUSH1 0x1 PUSH1 0xA0 SHL SUB DUP5 AND PUSH1 0x0 SWAP1 DUP2 MSTORE PUSH1 0x7 PUSH1 0x20 SWAP1 DUP2 MSTORE PUSH1 0x40 SWAP2 DUP3 SWAP1 KECCAK256 DUP3 MLOAD PUSH1 0x60 DUP2 ADD DUP5 MSTORE DUP2 SLOAD DUP2 MSTORE PUSH1 0x1 DUP3 ADD SLOAD SWAP3 DUP2 ADD SWAP3 SWAP1 SWAP3 MSTORE PUSH1 0x2 ADD SLOAD PUSH1 0xFF AND ISZERO DUP1 ISZERO SWAP3 DUP3 ADD DUP4 SWAP1 MSTORE SWAP3 SWAP4 POP SWAP2 PUSH2 0xD66 JUMPI POP DUP1 PUSH1 0x20 ADD MLOAD TIMESTAMP LT JUMPDEST ISZERO PUSH2 0xD8E JUMPI DUP1 MLOAD DUP3 GT PUSH2 0xD7A JUMPI PUSH1 0x0 PUSH2 0xD86 JUMP JUMPDEST DUP1 MLOAD PUSH2 0xD86 SWAP1 DUP4 PUSH2 0x2534 JUMP JUMPDEST SWAP5 SWAP4 POP POP POP POP JUMP JUMPDEST POP SWAP3 SWAP2 POP POP JUMP JUMPDEST PUSH1 0x1 PUSH1 0x1 PUSH1 0xA0 SHL SUB AND PUSH1 0x0 SWAP1 DUP2 MSTORE PUSH1 0x20 DUP2 SWAP1 MSTORE PUSH1 0x40 SWAP1 KECCAK256 SLOAD SWAP1 JUMP JUMPDEST PUSH2 0xDB8 PUSH2 0x19DE JUMP JUMPDEST PUSH2 0xCC4 PUSH1 0x0 PUSH2 0x1AA0 JUMP JUMPDEST PUSH2 0xDCD DUP3 CALLER DUP4 PUSH2 0x18DD JUMP JUMPDEST PUSH2 0xDD7 DUP3 DUP3 PUSH2 0x19A8 JUMP JUMPDEST POP POP JUMP JUMPDEST PUSH2 0xDE3 PUSH2 0x19DE JUMP JUMPDEST PUSH1 0x10 DUP1 SLOAD SWAP2 ISZERO ISZERO PUSH3 0x10000 MUL PUSH3 0xFF0000 NOT SWAP1 SWAP3 AND SWAP2 SWAP1 SWAP2 OR SWAP1 SSTORE JUMP JUMPDEST DUP2 PUSH1 0x0 SUB PUSH2 0xE20 JUMPI PUSH1 0x40 MLOAD PUSH4 0x1F2A2005 PUSH1 0xE0 SHL DUP2 MSTORE PUSH1 0x4 ADD PUSH1 0x40 MLOAD DUP1 SWAP2 SUB SWAP1 REVERT JUMPDEST PUSH3 0x15180 DUP2 LT DUP1 PUSH2 0xE34 JUMPI POP PUSH4 0x1E13380 DUP2 GT JUMPDEST ISZERO PUSH2 0xE5A JUMPI PUSH1 0x40 MLOAD PUSH4 0x46B60F8B PUSH1 0xE0 SHL DUP2 MSTORE PUSH1 0x4 DUP2 ADD DUP3 SWAP1 MSTORE PUSH1 0x24 ADD JUMPDEST PUSH1 0x40 MLOAD DUP1 SWAP2 SUB SWAP1 REVERT JUMPDEST CALLER PUSH1 0x0 SWAP1 DUP2 MSTORE PUSH1 0x7 PUSH1 0x20 MSTORE PUSH1 0x40 SWAP1 KECCAK256 PUSH1 0x2 ADD SLOAD PUSH1 0xFF AND ISZERO PUSH2 0xE90 JUMPI PUSH1 0x40 MLOAD PUSH4 0xC943E63 PUSH1 0xE3 SHL DUP2 MSTORE CALLER PUSH1 0x4 DUP3 ADD MSTORE PUSH1 0x24 ADD PUSH2 0xE51 JUMP JUMPDEST DUP2 PUSH2 0xE9A CALLER PUSH2 0xD95 JUMP JUMPDEST LT ISZERO PUSH2 0xECD JUMPI PUSH2 0xEA9 CALLER PUSH2 0xD95 JUMP JUMPDEST PUSH1 0x40 MLOAD PUSH4 0xCF479181 PUSH1 0xE0 SHL DUP2 MSTORE PUSH1 0x4 DUP2 ADD SWAP2 SWAP1 SWAP2 MSTORE PUSH1 0x24 DUP2 ADD DUP4 SWAP1 MSTORE PUSH1 0x44 ADD PUSH2 0xE51 JUMP JUMPDEST PUSH1 0x0 PUSH2 0xED9 DUP3 TIMESTAMP PUSH2 0x23BF JUMP JUMPDEST PUSH1 0x40 DUP1 MLOAD PUSH1 0x60 DUP2 ADD DUP3 MSTORE DUP6 DUP2 MSTORE PUSH1 0x20 DUP1 DUP3 ADD DUP5 DUP2 MSTORE PUSH1 0x1 DUP4 DUP6 ADD DUP2 DUP2 MSTORE CALLER PUSH1 0x0 DUP2 DUP2 MSTORE PUSH1 0x7 DUP7 MSTORE DUP8 SWAP1 KECCAK256 SWAP6 MLOAD DUP7 SSTORE SWAP3 MLOAD SWAP2 DUP6 ADD SWAP2 SWAP1 SWAP2 SSTORE MLOAD PUSH1 0x2 SWAP1 SWAP4 ADD DUP1 SLOAD PUSH1 0xFF NOT AND SWAP4 ISZERO ISZERO SWAP4 SWAP1 SWAP4 OR SWAP1 SWAP3 SSTORE DUP3 MLOAD DUP8 DUP2 MSTORE SWAP1 DUP2 ADD DUP5 SWAP1 MSTORE SWAP3 SWAP4 POP SWAP2 PUSH32 0xD741E738A23FD18A03A26522320D9FC6CAC1FED483E215EA9150FBC2FC43385D SWAP2 ADD PUSH1 0x40 MLOAD DUP1 SWAP2 SUB SWAP1 LOG2 POP POP POP JUMP JUMPDEST PUSH2 0xF6D PUSH2 0x19DE JUMP JUMPDEST PUSH1 0xB DUP1 SLOAD SWAP1 DUP3 SWAP1 SSTORE PUSH1 0x40 DUP1 MLOAD DUP3 DUP2 MSTORE PUSH1 0x20 DUP2 ADD DUP5 SWAP1 MSTORE PUSH32 0x1E7D225CB161C2F834852CD521D7EE05358AF80025A0E937483C51E42BFC13DE SWAP2 ADD JUMPDEST PUSH1 0x40 MLOAD DUP1 SWAP2 SUB SWAP1 LOG1 POP POP JUMP JUMPDEST PUSH2 0xFBB PUSH2 0x19DE JUMP JUMPDEST PUSH1 0x1 PUSH1 0x1 PUSH1 0xA0 SHL SUB SWAP2 SWAP1 SWAP2 AND PUSH1 0x0 SWAP1 DUP2 MSTORE PUSH1 0x9 PUSH1 0x20 MSTORE PUSH1 0x40 SWAP1 KECCAK256 DUP1 SLOAD PUSH1 0xFF NOT AND SWAP2 ISZERO ISZERO SWAP2 SWAP1 SWAP2 OR SWAP1 SSTORE JUMP JUMPDEST PUSH1 0x60 PUSH1 0x4 DUP1 SLOAD PUSH2 0x99D SWAP1 PUSH2 0x236F JUMP JUMPDEST PUSH2 0xFFD PUSH2 0x19DE JUMP JUMPDEST PUSH1 0x1 PUSH1 0x1 PUSH1 0xA0 SHL SUB DUP2 AND PUSH1 0x0 SWAP1 DUP2 MSTORE PUSH1 0x11 PUSH1 0x20 MSTORE PUSH1 0x40 SWAP1 KECCAK256 PUSH1 0x2 DUP2 ADD SLOAD PUSH1 0xFF AND PUSH2 0x105F JUMPI PUSH1 0x40 MLOAD PUSH3 0x461BCD PUSH1 0xE5 SHL DUP2 MSTORE PUSH1 0x20 PUSH1 0x4 DUP3 ADD MSTORE PUSH1 0x13 PUSH1 0x24 DUP3 ADD MSTORE PUSH19 0x139BC81B1A5C5D5A591A5D1E481B1BD8DAD959 PUSH1 0x6A SHL PUSH1 0x44 DUP3 ADD MSTORE PUSH1 0x64 ADD PUSH2 0xE51 JUMP JUMPDEST PUSH1 0x1 DUP2 ADD SLOAD PUSH2 0x1071 SWAP1 PUSH3 0x278D00 PUSH2 0x23BF JUMP JUMPDEST TIMESTAMP GT PUSH2 0x10BF JUMPI PUSH1 0x40 MLOAD PUSH3 0x461BCD PUSH1 0xE5 SHL DUP2 MSTORE PUSH1 0x20 PUSH1 0x4 DUP3 ADD MSTORE PUSH1 0x1A PUSH1 0x24 DUP3 ADD MSTORE PUSH32 0x456D657267656E637920756E6C6F636B20746F6F206561726C79000000000000 PUSH1 0x44 DUP3 ADD MSTORE PUSH1 0x64 ADD PUSH2 0xE51 JUMP JUMPDEST DUP2 PUSH1 0x1 PUSH1 0x1 PUSH1 0xA0 SHL SUB AND PUSH4 0xA9059CBB PUSH2 0x10E6 PUSH1 0x5 SLOAD PUSH1 0x1 PUSH1 0x1 PUSH1 0xA0 SHL SUB PUSH2 0x100 SWAP1 SWAP2 DIV AND SWAP1 JUMP JUMPDEST DUP4 SLOAD PUSH1 0x40 MLOAD PUSH1 0xE0 DUP5 SWAP1 SHL PUSH1 0x1 PUSH1 0x1 PUSH1 0xE0 SHL SUB NOT AND DUP2 MSTORE PUSH1 0x1 PUSH1 0x1 PUSH1 0xA0 SHL SUB SWAP1 SWAP3 AND PUSH1 0x4 DUP4 ADD MSTORE PUSH1 0x24 DUP3 ADD MSTORE PUSH1 0x44 ADD PUSH1 0x20 PUSH1 0x40 MLOAD DUP1 DUP4 SUB DUP2 PUSH1 0x0 DUP8 GAS CALL ISZERO DUP1 ISZERO PUSH2 0x1133 JUMPI RETURNDATASIZE PUSH1 0x0 DUP1 RETURNDATACOPY RETURNDATASIZE PUSH1 0x0 REVERT JUMPDEST POP POP POP POP PUSH1 0x40 MLOAD RETURNDATASIZE PUSH1 0x1F NOT PUSH1 0x1F DUP3 ADD AND DUP3 ADD DUP1 PUSH1 0x40 MSTORE POP DUP2 ADD SWAP1 PUSH2 0x1157 SWAP2 SWAP1 PUSH2 0x2547 JUMP JUMPDEST POP POP PUSH1 0x1 PUSH1 0x1 PUSH1 0xA0 SHL SUB AND PUSH1 0x0 SWAP1 DUP2 MSTORE PUSH1 0x11 PUSH1 0x20 MSTORE PUSH1 0x40 DUP2 KECCAK256 DUP2 DUP2 SSTORE PUSH1 0x1 DUP2 ADD SWAP2 SWAP1 SWAP2 SSTORE PUSH1 0x2 ADD DUP1 SLOAD PUSH1 0xFF NOT AND SWAP1 SSTORE JUMP JUMPDEST PUSH2 0x1190 PUSH2 0x19DE JUMP JUMPDEST PUSH1 0xC DUP1 SLOAD SWAP1 DUP3 SWAP1 SSTORE PUSH1 0x40 DUP1 MLOAD DUP3 DUP2 MSTORE PUSH1 0x20 DUP2 ADD DUP5 SWAP1 MSTORE PUSH32 0x8A042C1CF423D7DE2C3C2D014EBB0EC2BB4922C21EC17AAE380EB45E4730EB20 SWAP2 ADD PUSH2 0xFA7 JUMP JUMPDEST PUSH1 0x0 CALLER PUSH2 0xA2E DUP2 DUP6 DUP6 PUSH2 0x1949 JUMP JUMPDEST PUSH2 0x11E4 PUSH2 0x19DE JUMP JUMPDEST PUSH1 0x10 DUP1 SLOAD PUSH1 0xFF NOT AND SWAP2 ISZERO ISZERO SWAP2 SWAP1 SWAP2 OR SWAP1 SSTORE JUMP JUMPDEST PUSH1 0x0 DUP2 DUP2 MSTORE PUSH1 0xA PUSH1 0x20 MSTORE PUSH1 0x40 DUP2 KECCAK256 PUSH1 0x1 DUP2 ADD SLOAD PUSH1 0x3 DUP3 ADD SLOAD PUSH1 0x4 DUP4 ADD SLOAD PUSH1 0x5 DUP5 ADD SLOAD PUSH1 0x6 DUP6 ADD SLOAD PUSH1 0x2 DUP7 ADD DUP1 SLOAD PUSH1 0x60 SWAP8 DUP10 SWAP8 DUP9 SWAP8 DUP9 SWAP8 DUP9 SWAP8 DUP9 SWAP8 SWAP5 SWAP7 PUSH1 0x1 PUSH1 0x1 PUSH1 0xA0 SHL SUB SWAP1 SWAP5 AND SWAP6 SWAP4 SWAP5 SWAP3 SWAP4 SWAP2 SWAP3 SWAP1 SWAP2 PUSH1 0xFF DUP1 DUP4 AND SWAP3 PUSH2 0x100 SWAP1 DIV AND SWAP1 DUP7 SWAP1 PUSH2 0x125F SWAP1 PUSH2 0x236F JUMP JUMPDEST DUP1 PUSH1 0x1F ADD PUSH1 0x20 DUP1 SWAP2 DIV MUL PUSH1 0x20 ADD PUSH1 0x40 MLOAD SWAP1 DUP2 ADD PUSH1 0x40 MSTORE DUP1 SWAP3 SWAP2 SWAP1 DUP2 DUP2 MSTORE PUSH1 0x20 ADD DUP3 DUP1 SLOAD PUSH2 0x128B SWAP1 PUSH2 0x236F JUMP JUMPDEST DUP1 ISZERO PUSH2 0x12D8 JUMPI DUP1 PUSH1 0x1F LT PUSH2 0x12AD JUMPI PUSH2 0x100 DUP1 DUP4 SLOAD DIV MUL DUP4 MSTORE SWAP2 PUSH1 0x20 ADD SWAP2 PUSH2 0x12D8 JUMP JUMPDEST DUP3 ADD SWAP2 SWAP1 PUSH1 0x0 MSTORE PUSH1 0x20 PUSH1 0x0 KECCAK256 SWAP1 JUMPDEST DUP2 SLOAD DUP2 MSTORE SWAP1 PUSH1 0x1 ADD SWAP1 PUSH1 0x20 ADD DUP1 DUP4 GT PUSH2 0x12BB JUMPI DUP3 SWAP1 SUB PUSH1 0x1F AND DUP3 ADD SWAP2 JUMPDEST POP POP POP POP POP SWAP6 POP SWAP8 POP SWAP8 POP SWAP8 POP SWAP8 POP SWAP8 POP SWAP8 POP SWAP8 POP POP SWAP2 SWAP4 SWAP6 SWAP8 SWAP1 SWAP3 SWAP5 SWAP7 POP JUMP JUMPDEST PUSH1 0x0 DUP3 DUP2 MSTORE PUSH1 0xA PUSH1 0x20 MSTORE PUSH1 0x40 SWAP1 KECCAK256 PUSH1 0x6 DUP2 ADD SLOAD PUSH2 0x100 SWAP1 DIV PUSH1 0xFF AND PUSH2 0x1331 JUMPI PUSH1 0x40 MLOAD PUSH4 0x7BECC13F PUSH1 0xE0 SHL DUP2 MSTORE PUSH1 0x4 ADD PUSH1 0x40 MLOAD DUP1 SWAP2 SUB SWAP1 REVERT JUMPDEST DUP1 PUSH1 0x5 ADD SLOAD TIMESTAMP LT PUSH2 0x1355 JUMPI PUSH1 0x40 MLOAD PUSH4 0x7BECC13F PUSH1 0xE0 SHL DUP2 MSTORE PUSH1 0x4 ADD PUSH1 0x40 MLOAD DUP1 SWAP2 SUB SWAP1 REVERT JUMPDEST CALLER PUSH1 0x0 SWAP1 DUP2 MSTORE PUSH1 0x7 DUP3 ADD PUSH1 0x20 MSTORE PUSH1 0x40 SWAP1 KECCAK256 SLOAD PUSH1 0xFF AND ISZERO PUSH2 0x1388 JUMPI PUSH1 0x40 MLOAD PUSH4 0x7C9A1CF9 PUSH1 0xE0 SHL DUP2 MSTORE PUSH1 0x4 ADD PUSH1 0x40 MLOAD DUP1 SWAP2 SUB SWAP1 REVERT JUMPDEST PUSH1 0x0 PUSH2 0x1393 CALLER PUSH2 0xD95 JUMP JUMPDEST SWAP1 POP DUP1 PUSH1 0x0 SUB PUSH2 0x13B6 JUMPI PUSH1 0x40 MLOAD PUSH4 0x1EE7B5BD PUSH1 0xE2 SHL DUP2 MSTORE PUSH1 0x4 ADD PUSH1 0x40 MLOAD DUP1 SWAP2 SUB SWAP1 REVERT JUMPDEST CALLER PUSH1 0x0 SWAP1 DUP2 MSTORE PUSH1 0x7 DUP4 ADD PUSH1 0x20 MSTORE PUSH1 0x40 SWAP1 KECCAK256 DUP1 SLOAD PUSH1 0xFF NOT AND PUSH1 0x1 OR SWAP1 SSTORE DUP3 ISZERO PUSH2 0x13F7 JUMPI DUP1 DUP3 PUSH1 0x3 ADD PUSH1 0x0 DUP3 DUP3 SLOAD PUSH2 0x13EC SWAP2 SWAP1 PUSH2 0x23BF JUMP JUMPDEST SWAP1 SWAP2 SSTORE POP PUSH2 0x1411 SWAP1 POP JUMP JUMPDEST DUP1 DUP3 PUSH1 0x4 ADD PUSH1 0x0 DUP3 DUP3 SLOAD PUSH2 0x140B SWAP2 SWAP1 PUSH2 0x23BF JUMP JUMPDEST SWAP1 SWAP2 SSTORE POP POP JUMPDEST PUSH1 0x40 DUP1 MLOAD DUP5 ISZERO ISZERO DUP2 MSTORE PUSH1 0x20 DUP2 ADD DUP4 SWAP1 MSTORE CALLER SWAP2 DUP7 SWAP2 PUSH32 0xCBDF6214089CBA887ECBF35A0B6A734589959C9763342C756BB2A80CA2BC9F6E SWAP2 ADD JUMPDEST PUSH1 0x40 MLOAD DUP1 SWAP2 SUB SWAP1 LOG3 POP POP POP POP JUMP JUMPDEST PUSH2 0x145F PUSH2 0x19DE JUMP JUMPDEST PUSH1 0x1 PUSH1 0x1 PUSH1 0xA0 SHL SUB DUP4 AND PUSH2 0x1486 JUMPI PUSH1 0x40 MLOAD PUSH4 0xD92E233D PUSH1 0xE0 SHL DUP2 MSTORE PUSH1 0x4 ADD PUSH1 0x40 MLOAD DUP1 SWAP2 SUB SWAP1 REVERT JUMPDEST DUP2 PUSH1 0x0 SUB PUSH2 0x14A7 JUMPI PUSH1 0x40 MLOAD PUSH4 0x1F2A2005 PUSH1 0xE0 SHL DUP2 MSTORE PUSH1 0x4 ADD PUSH1 0x40 MLOAD DUP1 SWAP2 SUB SWAP1 REVERT JUMPDEST PUSH3 0x15180 DUP2 LT ISZERO PUSH2 0x14CE JUMPI PUSH1 0x40 MLOAD PUSH4 0x46B60F8B PUSH1 0xE0 SHL DUP2 MSTORE PUSH1 0x4 DUP2 ADD DUP3 SWAP1 MSTORE PUSH1 0x24 ADD PUSH2 0xE51 JUMP JUMPDEST PUSH1 0x40 MLOAD PUSH4 0x23B872DD PUSH1 0xE0 SHL DUP2 MSTORE CALLER PUSH1 0x4 DUP3 ADD MSTORE ADDRESS PUSH1 0x24 DUP3 ADD MSTORE PUSH1 0x44 DUP2 ADD DUP4 SWAP1 MSTORE PUSH1 0x1 PUSH1 0x1 PUSH1 0xA0 SHL SUB DUP5 AND SWAP1 PUSH4 0x23B872DD SWAP1 PUSH1 0x64 ADD PUSH1 0x20 PUSH1 0x40 MLOAD DUP1 DUP4 SUB DUP2 PUSH1 0x0 DUP8 GAS CALL ISZERO DUP1 ISZERO PUSH2 0x1521 JUMPI RETURNDATASIZE PUSH1 0x0 DUP1 RETURNDATACOPY RETURNDATASIZE PUSH1 0x0 REVERT JUMPDEST POP POP POP POP PUSH1 0x40 MLOAD RETURNDATASIZE PUSH1 0x1F NOT PUSH1 0x1F DUP3 ADD AND DUP3 ADD DUP1 PUSH1 0x40 MSTORE POP DUP2 ADD SWAP1 PUSH2 0x1545 SWAP2 SWAP1 PUSH2 0x2547 JUMP JUMPDEST POP PUSH1 0x0 PUSH2 0x1552 DUP3 TIMESTAMP PUSH2 0x23BF JUMP JUMPDEST PUSH1 0x40 DUP1 MLOAD PUSH1 0x60 DUP2 ADD DUP3 MSTORE DUP6 DUP2 MSTORE PUSH1 0x20 DUP1 DUP3 ADD DUP5 DUP2 MSTORE PUSH1 0x1 DUP4 DUP6 ADD DUP2 DUP2 MSTORE PUSH1 0x1 PUSH1 0x1 PUSH1 0xA0 SHL SUB DUP12 AND PUSH1 0x0 DUP2 DUP2 MSTORE PUSH1 0x11 DUP7 MSTORE DUP8 SWAP1 KECCAK256 SWAP6 MLOAD DUP7 SSTORE SWAP3 MLOAD SWAP2 DUP6 ADD SWAP2 SWAP1 SWAP2 SSTORE MLOAD PUSH1 0x2 SWAP1 SWAP4 ADD DUP1 SLOAD PUSH1 0xFF NOT AND SWAP4 ISZERO ISZERO SWAP4 SWAP1 SWAP4 OR SWAP1 SWAP3 SSTORE DUP3 MLOAD DUP8 DUP2 MSTORE SWAP1 DUP2 ADD DUP5 SWAP1 MSTORE SWAP3 SWAP4 POP SWAP2 PUSH32 0xE3AFAE9EC63E6F2E914C17BAB8493B603680A72D9E6DFACF25AC6A4806555D41 SWAP2 ADD PUSH1 0x40 MLOAD DUP1 SWAP2 SUB SWAP1 LOG2 POP POP POP POP JUMP JUMPDEST PUSH2 0x15F0 PUSH2 0x19DE JUMP JUMPDEST PUSH1 0x10 DUP1 SLOAD SWAP2 ISZERO ISZERO PUSH4 0x1000000 MUL PUSH4 0xFF000000 NOT SWAP1 SWAP3 AND SWAP2 SWAP1 SWAP2 OR SWAP1 SSTORE JUMP JUMPDEST PUSH2 0x1616 PUSH2 0x19DE JUMP JUMPDEST PUSH1 0x10 SLOAD PUSH2 0x100 SWAP1 DIV PUSH1 0xFF AND PUSH2 0x163E JUMPI PUSH1 0x40 MLOAD PUSH4 0x75AB03AB PUSH1 0xE1 SHL DUP2 MSTORE PUSH1 0x4 ADD PUSH1 0x40 MLOAD DUP1 SWAP2 SUB SWAP1 REVERT JUMPDEST DUP2 PUSH1 0x0 SUB PUSH2 0x1662 JUMPI PUSH1 0x40 MLOAD PUSH4 0x383ECC75 PUSH1 0xE2 SHL DUP2 MSTORE PUSH1 0x4 DUP2 ADD DUP4 SWAP1 MSTORE PUSH1 0x24 ADD PUSH2 0xE51 JUMP JUMPDEST PUSH32 0x0 DUP3 PUSH2 0x168D PUSH1 0x2 SLOAD SWAP1 JUMP JUMPDEST PUSH2 0x1697 SWAP2 SWAP1 PUSH2 0x23BF JUMP JUMPDEST GT ISZERO PUSH2 0x16B9 JUMPI PUSH1 0x40 MLOAD PUSH4 0x383ECC75 PUSH1 0xE2 SHL DUP2 MSTORE PUSH1 0x4 DUP2 ADD DUP4 SWAP1 MSTORE PUSH1 0x24 ADD PUSH2 0xE51 JUMP JUMPDEST PUSH1 0xF SLOAD DUP2 GT DUP1 ISZERO PUSH2 0x16CD JUMPI POP PUSH1 0xE SLOAD PUSH1 0x2 SLOAD LT JUMPDEST ISZERO PUSH2 0xDD7 JUMPI PUSH2 0x16DC ADDRESS DUP4 PUSH2 0x1AFA JUMP JUMPDEST PUSH1 0x40 DUP1 MLOAD DUP4 DUP2 MSTORE PUSH1 0x20 DUP2 ADD DUP4 SWAP1 MSTORE PUSH32 0x2BF03EE653234E47DFB7F1BFEFEAC974247A204C1A68D5A2179E120AD1200A03 SWAP2 ADD PUSH2 0xFA7 JUMP JUMPDEST PUSH2 0x171A PUSH2 0x19DE JUMP JUMPDEST PUSH1 0x10 SLOAD PUSH3 0x10000 SWAP1 DIV PUSH1 0xFF AND PUSH2 0x1743 JUMPI PUSH1 0x40 MLOAD PUSH4 0xB0635985 PUSH1 0xE0 SHL DUP2 MSTORE PUSH1 0x4 ADD PUSH1 0x40 MLOAD DUP1 SWAP2 SUB SWAP1 REVERT JUMPDEST DUP2 PUSH1 0x0 SUB PUSH2 0x1764 JUMPI PUSH1 0x40 MLOAD PUSH4 0x1F2A2005 PUSH1 0xE0 SHL DUP2 MSTORE PUSH1 0x4 ADD PUSH1 0x40 MLOAD DUP1 SWAP2 SUB SWAP1 REVERT JUMPDEST DUP2 PUSH2 0x176E ADDRESS PUSH2 0xD95 JUMP JUMPDEST LT ISZERO PUSH2 0x177D JUMPI PUSH2 0xEA9 ADDRESS PUSH2 0xD95 JUMP JUMPDEST PUSH1 0xF SLOAD DUP2 LT ISZERO PUSH2 0xDD7 JUMPI PUSH2 0x1791 ADDRESS DUP4 PUSH2 0x19A8 JUMP JUMPDEST PUSH1 0x40 DUP1 MLOAD DUP4 DUP2 MSTORE PUSH1 0x20 DUP2 ADD DUP4 SWAP1 MSTORE PUSH32 0x5F22DC3ACAEC5EFF838F7BD63E00F420F4441B015AB564298C79B9F1CDA38B2F SWAP2 ADD PUSH2 0xFA7 JUMP JUMPDEST PUSH2 0x17CF PUSH2 0x19DE JUMP JUMPDEST PUSH1 0x1 PUSH1 0x1 PUSH1 0xA0 SHL SUB DUP2 AND PUSH2 0x17F9 JUMPI PUSH1 0x40 MLOAD PUSH4 0x1E4FBDF7 PUSH1 0xE0 SHL DUP2 MSTORE PUSH1 0x0 PUSH1 0x4 DUP3 ADD MSTORE PUSH1 0x24 ADD PUSH2 0xE51 JUMP JUMPDEST PUSH2 0xB8A DUP2 PUSH2 0x1AA0 JUMP JUMPDEST CALLER PUSH1 0x0 SWAP1 DUP2 MSTORE PUSH1 0x7 PUSH1 0x20 MSTORE PUSH1 0x40 SWAP1 KECCAK256 PUSH1 0x2 DUP2 ADD SLOAD PUSH1 0xFF AND PUSH2 0x1838 JUMPI PUSH1 0x40 MLOAD PUSH4 0x16B5A5EF PUSH1 0xE0 SHL DUP2 MSTORE CALLER PUSH1 0x4 DUP3 ADD MSTORE PUSH1 0x24 ADD PUSH2 0xE51 JUMP JUMPDEST DUP1 PUSH1 0x1 ADD SLOAD TIMESTAMP LT ISZERO PUSH2 0x1865 JUMPI DUP1 PUSH1 0x1 ADD SLOAD PUSH1 0x40 MLOAD PUSH4 0xD36971E3 PUSH1 0xE0 SHL DUP2 MSTORE PUSH1 0x4 ADD PUSH2 0xE51 SWAP2 DUP2 MSTORE PUSH1 0x20 ADD SWAP1 JUMP JUMPDEST DUP1 SLOAD CALLER PUSH1 0x0 DUP2 DUP2 MSTORE PUSH1 0x7 PUSH1 0x20 MSTORE PUSH1 0x40 DUP1 DUP3 KECCAK256 DUP3 DUP2 SSTORE PUSH1 0x1 DUP2 ADD SWAP3 SWAP1 SWAP3 SSTORE PUSH1 0x2 SWAP1 SWAP2 ADD DUP1 SLOAD PUSH1 0xFF NOT AND SWAP1 SSTORE MLOAD PUSH32 0xE7B379C6C1FA169E9079C25E9143B127637EEF8EC8C9D5C06DDB4AB3E1195888 SWAP1 PUSH2 0x18BF SWAP1 DUP5 DUP2 MSTORE PUSH1 0x20 ADD SWAP1 JUMP JUMPDEST PUSH1 0x40 MLOAD DUP1 SWAP2 SUB SWAP1 LOG2 POP POP JUMP JUMPDEST PUSH2 0x18D8 DUP4 DUP4 DUP4 PUSH1 0x1 PUSH2 0x1B30 JUMP JUMPDEST POP POP POP JUMP JUMPDEST PUSH1 0x1 PUSH1 0x1 PUSH1 0xA0 SHL SUB DUP4 DUP2 AND PUSH1 0x0 SWAP1 DUP2 MSTORE PUSH1 0x1 PUSH1 0x20 SWAP1 DUP2 MSTORE PUSH1 0x40 DUP1 DUP4 KECCAK256 SWAP4 DUP7 AND DUP4 MSTORE SWAP3 SWAP1 MSTORE KECCAK256 SLOAD PUSH1 0x0 NOT DUP2 LT ISZERO PUSH2 0x1943 JUMPI DUP2 DUP2 LT ISZERO PUSH2 0x1934 JUMPI DUP3 DUP2 DUP4 PUSH1 0x40 MLOAD PUSH4 0x7DC7A0D9 PUSH1 0xE1 SHL DUP2 MSTORE PUSH1 0x4 ADD PUSH2 0xE51 SWAP4 SWAP3 SWAP2 SWAP1 PUSH2 0x2564 JUMP JUMPDEST PUSH2 0x1943 DUP5 DUP5 DUP5 DUP5 SUB PUSH1 0x0 PUSH2 0x1B30 JUMP JUMPDEST POP POP POP POP JUMP JUMPDEST PUSH1 0x1 PUSH1 0x1 PUSH1 0xA0 SHL SUB DUP4 AND PUSH2 0x1973 JUMPI PUSH1 0x40 MLOAD PUSH4 0x4B637E8F PUSH1 0xE1 SHL DUP2 MSTORE PUSH1 0x0 PUSH1 0x4 DUP3 ADD MSTORE PUSH1 0x24 ADD PUSH2 0xE51 JUMP JUMPDEST PUSH1 0x1 PUSH1 0x1 PUSH1 0xA0 SHL SUB DUP3 AND PUSH2 0x199D JUMPI PUSH1 0x40 MLOAD PUSH4 0xEC442F05 PUSH1 0xE0 SHL DUP2 MSTORE PUSH1 0x0 PUSH1 0x4 DUP3 ADD MSTORE PUSH1 0x24 ADD PUSH2 0xE51 JUMP JUMPDEST PUSH2 0x18D8 DUP4 DUP4 DUP4 PUSH2 0x1BF7 JUMP JUMPDEST PUSH1 0x1 PUSH1 0x1 PUSH1 0xA0 SHL SUB DUP3 AND PUSH2 0x19D2 JUMPI PUSH1 0x40 MLOAD PUSH4 0x4B637E8F PUSH1 0xE1 SHL DUP2 MSTORE PUSH1 0x0 PUSH1 0x4 DUP3 ADD MSTORE PUSH1 0x24 ADD PUSH2 0xE51 JUMP JUMPDEST PUSH2 0xDD7 DUP3 PUSH1 0x0 DUP4 PUSH2 0x1BF7 JUMP JUMPDEST PUSH1 0x5 SLOAD PUSH1 0x1 PUSH1 0x1 PUSH1 0xA0 SHL SUB PUSH2 0x100 SWAP1 SWAP2 DIV AND CALLER EQ PUSH2 0xCC4 JUMPI PUSH1 0x40 MLOAD PUSH4 0x118CDAA7 PUSH1 0xE0 SHL DUP2 MSTORE CALLER PUSH1 0x4 DUP3 ADD MSTORE PUSH1 0x24 ADD PUSH2 0xE51 JUMP JUMPDEST PUSH2 0x1A19 PUSH2 0x1C32 JUMP JUMPDEST PUSH1 0x5 DUP1 SLOAD PUSH1 0xFF NOT AND SWAP1 SSTORE PUSH32 0x5DB9EE0A495BF2E6FF9C91A7834C1BA4FDD244A5E8AA4E537BD38AEAE4B073AA CALLER JUMPDEST PUSH1 0x40 MLOAD PUSH1 0x1 PUSH1 0x1 PUSH1 0xA0 SHL SUB SWAP1 SWAP2 AND DUP2 MSTORE PUSH1 0x20 ADD PUSH1 0x40 MLOAD DUP1 SWAP2 SUB SWAP1 LOG1 JUMP JUMPDEST PUSH2 0x1A6B PUSH2 0x1C55 JUMP JUMPDEST PUSH1 0x5 DUP1 SLOAD PUSH1 0xFF NOT AND PUSH1 0x1 OR SWAP1 SSTORE PUSH32 0x62E78CEA01BEE320CD4E420270B5EA74000D11B0C9F74754EBDBFC544B05A258 PUSH2 0x1A46 CALLER SWAP1 JUMP JUMPDEST PUSH1 0x5 DUP1 SLOAD PUSH1 0x1 PUSH1 0x1 PUSH1 0xA0 SHL SUB DUP4 DUP2 AND PUSH2 0x100 DUP2 DUP2 MUL PUSH2 0x100 PUSH1 0x1 PUSH1 0xA8 SHL SUB NOT DUP6 AND OR SWAP1 SWAP5 SSTORE PUSH1 0x40 MLOAD SWAP4 SWAP1 SWAP3 DIV AND SWAP2 DUP3 SWAP1 PUSH32 0x8BE0079C531659141344CD1FD0A4F28419497F9722A3DAAFE3B4186F6B6457E0 SWAP1 PUSH1 0x0 SWAP1 LOG3 POP POP JUMP JUMPDEST PUSH1 0x1 PUSH1 0x1 PUSH1 0xA0 SHL SUB DUP3 AND PUSH2 0x1B24 JUMPI PUSH1 0x40 MLOAD PUSH4 0xEC442F05 PUSH1 0xE0 SHL DUP2 MSTORE PUSH1 0x0 PUSH1 0x4 DUP3 ADD MSTORE PUSH1 0x24 ADD PUSH2 0xE51 JUMP JUMPDEST PUSH2 0xDD7 PUSH1 0x0 DUP4 DUP4 PUSH2 0x1BF7 JUMP JUMPDEST PUSH1 0x1 PUSH1 0x1 PUSH1 0xA0 SHL SUB DUP5 AND PUSH2 0x1B5A JUMPI PUSH1 0x40 MLOAD PUSH4 0xE602DF05 PUSH1 0xE0 SHL DUP2 MSTORE PUSH1 0x0 PUSH1 0x4 DUP3 ADD MSTORE PUSH1 0x24 ADD PUSH2 0xE51 JUMP JUMPDEST PUSH1 0x1 PUSH1 0x1 PUSH1 0xA0 SHL SUB DUP4 AND PUSH2 0x1B84 JUMPI PUSH1 0x40 MLOAD PUSH4 0x4A1406B1 PUSH1 0xE1 SHL DUP2 MSTORE PUSH1 0x0 PUSH1 0x4 DUP3 ADD MSTORE PUSH1 0x24 ADD PUSH2 0xE51 JUMP JUMPDEST PUSH1 0x1 PUSH1 0x1 PUSH1 0xA0 SHL SUB DUP1 DUP6 AND PUSH1 0x0 SWAP1 DUP2 MSTORE PUSH1 0x1 PUSH1 0x20 SWAP1 DUP2 MSTORE PUSH1 0x40 DUP1 DUP4 KECCAK256 SWAP4 DUP8 AND DUP4 MSTORE SWAP3 SWAP1 MSTORE KECCAK256 DUP3 SWAP1 SSTORE DUP1 ISZERO PUSH2 0x1943 JUMPI DUP3 PUSH1 0x1 PUSH1 0x1 PUSH1 0xA0 SHL SUB AND DUP5 PUSH1 0x1 PUSH1 0x1 PUSH1 0xA0 SHL SUB AND PUSH32 0x8C5BE1E5EBEC7D5BD14F71427D1E84F3DD0314C0F7B2291E5B200AC8C7C3B925 DUP5 PUSH1 0x40 MLOAD PUSH2 0x1449 SWAP2 DUP2 MSTORE PUSH1 0x20 ADD SWAP1 JUMP JUMPDEST PUSH1 0x1 PUSH1 0x1 PUSH1 0xA0 SHL SUB DUP4 AND ISZERO DUP1 ISZERO SWAP1 PUSH2 0x1C17 JUMPI POP PUSH1 0x1 PUSH1 0x1 PUSH1 0xA0 SHL SUB DUP3 AND ISZERO ISZERO JUMPDEST ISZERO PUSH2 0x1C27 JUMPI PUSH2 0x1C27 DUP4 DUP4 DUP4 PUSH2 0x1C79 JUMP JUMPDEST PUSH2 0x18D8 DUP4 DUP4 DUP4 PUSH2 0x1E8E JUMP JUMPDEST PUSH1 0x5 SLOAD PUSH1 0xFF AND PUSH2 0xCC4 JUMPI PUSH1 0x40 MLOAD PUSH4 0x8DFC202B PUSH1 0xE0 SHL DUP2 MSTORE PUSH1 0x4 ADD PUSH1 0x40 MLOAD DUP1 SWAP2 SUB SWAP1 REVERT JUMPDEST PUSH1 0x5 SLOAD PUSH1 0xFF AND ISZERO PUSH2 0xCC4 JUMPI PUSH1 0x40 MLOAD PUSH4 0xD93C0665 PUSH1 0xE0 SHL DUP2 MSTORE PUSH1 0x4 ADD PUSH1 0x40 MLOAD DUP1 SWAP2 SUB SWAP1 REVERT JUMPDEST PUSH1 0x1 PUSH1 0x1 PUSH1 0xA0 SHL SUB DUP4 AND PUSH1 0x0 SWAP1 DUP2 MSTORE PUSH1 0x7 PUSH1 0x20 MSTORE PUSH1 0x40 SWAP1 KECCAK256 PUSH1 0x2 ADD SLOAD PUSH1 0xFF AND DUP1 ISZERO PUSH2 0x1CBC JUMPI POP PUSH1 0x1 PUSH1 0x1 PUSH1 0xA0 SHL SUB DUP4 AND PUSH1 0x0 SWAP1 DUP2 MSTORE PUSH1 0x7 PUSH1 0x20 MSTORE PUSH1 0x40 SWAP1 KECCAK256 SLOAD DUP2 GT ISZERO JUMPDEST DUP1 ISZERO PUSH2 0x1CE2 JUMPI POP PUSH1 0x1 PUSH1 0x1 PUSH1 0xA0 SHL SUB DUP4 AND PUSH1 0x0 SWAP1 DUP2 MSTORE PUSH1 0x7 PUSH1 0x20 MSTORE PUSH1 0x40 SWAP1 KECCAK256 PUSH1 0x1 ADD SLOAD TIMESTAMP LT JUMPDEST ISZERO PUSH2 0x1D22 JUMPI PUSH1 0x1 PUSH1 0x1 PUSH1 0xA0 SHL SUB DUP4 AND PUSH1 0x0 SWAP1 DUP2 MSTORE PUSH1 0x7 PUSH1 0x20 MSTORE PUSH1 0x40 SWAP1 DUP2 SWAP1 KECCAK256 PUSH1 0x1 ADD SLOAD SWAP1 MLOAD PUSH4 0xBB36ADD PUSH1 0xE0 SHL DUP2 MSTORE PUSH2 0xE51 SWAP2 DUP6 SWAP2 DUP5 SWAP2 SWAP1 PUSH1 0x4 ADD PUSH2 0x2564 JUMP JUMPDEST PUSH1 0x1 PUSH1 0x1 PUSH1 0xA0 SHL SUB DUP4 AND PUSH1 0x0 SWAP1 DUP2 MSTORE PUSH1 0x9 PUSH1 0x20 MSTORE PUSH1 0x40 SWAP1 KECCAK256 SLOAD PUSH1 0xFF AND DUP1 PUSH2 0x1D61 JUMPI POP PUSH1 0x1 PUSH1 0x1 PUSH1 0xA0 SHL SUB DUP3 AND PUSH1 0x0 SWAP1 DUP2 MSTORE PUSH1 0x9 PUSH1 0x20 MSTORE PUSH1 0x40 SWAP1 KECCAK256 SLOAD PUSH1 0xFF AND JUMPDEST ISZERO PUSH2 0x1D6B JUMPI POP POP POP JUMP JUMPDEST PUSH1 0x10 SLOAD PUSH1 0xFF AND ISZERO PUSH2 0x1E70 JUMPI PUSH1 0xB SLOAD DUP2 GT ISZERO PUSH2 0x1DA7 JUMPI PUSH1 0xB SLOAD PUSH1 0x40 MLOAD PUSH4 0xCC328053 PUSH1 0xE0 SHL DUP2 MSTORE PUSH2 0xE51 SWAP2 DUP4 SWAP2 PUSH1 0x4 ADD SWAP2 DUP3 MSTORE PUSH1 0x20 DUP3 ADD MSTORE PUSH1 0x40 ADD SWAP1 JUMP JUMPDEST PUSH1 0xC SLOAD DUP2 PUSH2 0x1DB4 DUP5 PUSH2 0xD95 JUMP JUMPDEST PUSH2 0x1DBE SWAP2 SWAP1 PUSH2 0x23BF JUMP JUMPDEST GT ISZERO PUSH2 0x1DFD JUMPI DUP1 PUSH2 0x1DCE DUP4 PUSH2 0xD95 JUMP JUMPDEST PUSH2 0x1DD8 SWAP2 SWAP1 PUSH2 0x23BF JUMP JUMPDEST PUSH1 0xC SLOAD PUSH1 0x40 MLOAD PUSH4 0x7D222837 PUSH1 0xE0 SHL DUP2 MSTORE PUSH1 0x4 DUP2 ADD SWAP3 SWAP1 SWAP3 MSTORE PUSH1 0x24 DUP3 ADD MSTORE PUSH1 0x44 ADD PUSH2 0xE51 JUMP JUMPDEST PUSH1 0x1 PUSH1 0x1 PUSH1 0xA0 SHL SUB DUP4 AND PUSH1 0x0 SWAP1 DUP2 MSTORE PUSH1 0x8 PUSH1 0x20 MSTORE PUSH1 0x40 SWAP1 KECCAK256 SLOAD PUSH2 0x1E23 SWAP1 PUSH2 0xE10 SWAP1 PUSH2 0x23BF JUMP JUMPDEST TIMESTAMP LT ISZERO PUSH2 0x1E70 JUMPI PUSH1 0x1 PUSH1 0x1 PUSH1 0xA0 SHL SUB DUP4 AND PUSH1 0x0 SWAP1 DUP2 MSTORE PUSH1 0x8 PUSH1 0x20 MSTORE PUSH1 0x40 SWAP1 KECCAK256 SLOAD DUP4 SWAP1 DUP3 SWAP1 PUSH2 0x1E54 SWAP1 PUSH2 0xE10 SWAP1 PUSH2 0x23BF JUMP JUMPDEST PUSH1 0x40 MLOAD PUSH4 0xBB36ADD PUSH1 0xE0 SHL DUP2 MSTORE PUSH1 0x4 ADD PUSH2 0xE51 SWAP4 SWAP3 SWAP2 SWAP1 PUSH2 0x2564 JUMP JUMPDEST POP POP PUSH1 0x1 PUSH1 0x1 PUSH1 0xA0 SHL SUB AND PUSH1 0x0 SWAP1 DUP2 MSTORE PUSH1 0x8 PUSH1 0x20 MSTORE PUSH1 0x40 SWAP1 KECCAK256 TIMESTAMP SWAP1 SSTORE JUMP JUMPDEST PUSH2 0x1E96 PUSH2 0x1C55 JUMP JUMPDEST PUSH2 0x18D8 DUP4 DUP4 DUP4 PUSH1 0x1 PUSH1 0x1 PUSH1 0xA0 SHL SUB DUP4 AND PUSH2 0x1EC7 JUMPI DUP1 PUSH1 0x2 PUSH1 0x0 DUP3 DUP3 SLOAD PUSH2 0x1EBC SWAP2 SWAP1 PUSH2 0x23BF JUMP JUMPDEST SWAP1 SWAP2 SSTORE POP PUSH2 0x1F26 SWAP1 POP JUMP JUMPDEST PUSH1 0x1 PUSH1 0x1 PUSH1 0xA0 SHL SUB DUP4 AND PUSH1 0x0 SWAP1 DUP2 MSTORE PUSH1 0x20 DUP2 SWAP1 MSTORE PUSH1 0x40 SWAP1 KECCAK256 SLOAD DUP2 DUP2 LT ISZERO PUSH2 0x1F07 JUMPI DUP4 DUP2 DUP4 PUSH1 0x40 MLOAD PUSH4 0x391434E3 PUSH1 0xE2 SHL DUP2 MSTORE PUSH1 0x4 ADD PUSH2 0xE51 SWAP4 SWAP3 SWAP2 SWAP1 PUSH2 0x2564 JUMP JUMPDEST PUSH1 0x1 PUSH1 0x1 PUSH1 0xA0 SHL SUB DUP5 AND PUSH1 0x0 SWAP1 DUP2 MSTORE PUSH1 0x20 DUP2 SWAP1 MSTORE PUSH1 0x40 SWAP1 KECCAK256 SWAP1 DUP3 SWAP1 SUB SWAP1 SSTORE JUMPDEST PUSH1 0x1 PUSH1 0x1 PUSH1 0xA0 SHL SUB DUP3 AND PUSH2 0x1F42 JUMPI PUSH1 0x2 DUP1 SLOAD DUP3 SWAP1 SUB SWAP1 SSTORE PUSH2 0x1F61 JUMP JUMPDEST PUSH1 0x1 PUSH1 0x1 PUSH1 0xA0 SHL SUB DUP3 AND PUSH1 0x0 SWAP1 DUP2 MSTORE PUSH1 0x20 DUP2 SWAP1 MSTORE PUSH1 0x40 SWAP1 KECCAK256 DUP1 SLOAD DUP3 ADD SWAP1 SSTORE JUMPDEST DUP2 PUSH1 0x1 PUSH1 0x1 PUSH1 0xA0 SHL SUB AND DUP4 PUSH1 0x1 PUSH1 0x1 PUSH1 0xA0 SHL SUB AND PUSH32 0xDDF252AD1BE2C89B69C2B068FC378DAA952BA7F163C4A11628F55A4DF523B3EF DUP4 PUSH1 0x40 MLOAD PUSH2 0x1FA6 SWAP2 DUP2 MSTORE PUSH1 0x20 ADD SWAP1 JUMP JUMPDEST PUSH1 0x40 MLOAD DUP1 SWAP2 SUB SWAP1 LOG3 POP POP POP JUMP JUMPDEST PUSH1 0x0 PUSH1 0x20 DUP3 DUP5 SUB SLT ISZERO PUSH2 0x1FC5 JUMPI PUSH1 0x0 DUP1 REVERT JUMPDEST POP CALLDATALOAD SWAP2 SWAP1 POP JUMP JUMPDEST PUSH1 0x0 DUP2 MLOAD DUP1 DUP5 MSTORE PUSH1 0x0 JUMPDEST DUP2 DUP2 LT ISZERO PUSH2 0x1FF2 JUMPI PUSH1 0x20 DUP2 DUP6 ADD DUP2 ADD MLOAD DUP7 DUP4 ADD DUP3 ADD MSTORE ADD PUSH2 0x1FD6 JUMP JUMPDEST POP PUSH1 0x0 PUSH1 0x20 DUP3 DUP7 ADD ADD MSTORE PUSH1 0x20 PUSH1 0x1F NOT PUSH1 0x1F DUP4 ADD AND DUP6 ADD ADD SWAP2 POP POP SWAP3 SWAP2 POP POP JUMP JUMPDEST DUP9 DUP2 MSTORE PUSH1 0x1 PUSH1 0x1 PUSH1 0xA0 SHL SUB DUP9 AND PUSH1 0x20 DUP3 ADD MSTORE PUSH2 0x100 PUSH1 0x40 DUP3 ADD DUP2 SWAP1 MSTORE PUSH1 0x0 SWAP1 PUSH2 0x203D DUP4 DUP3 ADD DUP11 PUSH2 0x1FCC JUMP JUMPDEST PUSH1 0x60 DUP5 ADD SWAP9 SWAP1 SWAP9 MSTORE POP POP PUSH1 0x80 DUP2 ADD SWAP5 SWAP1 SWAP5 MSTORE PUSH1 0xA0 DUP5 ADD SWAP3 SWAP1 SWAP3 MSTORE ISZERO ISZERO PUSH1 0xC0 DUP4 ADD MSTORE ISZERO ISZERO PUSH1 0xE0 SWAP1 SWAP2 ADD MSTORE SWAP4 SWAP3 POP POP POP JUMP JUMPDEST PUSH1 0x20 DUP2 MSTORE PUSH1 0x0 PUSH2 0x2080 PUSH1 0x20 DUP4 ADD DUP5 PUSH2 0x1FCC JUMP JUMPDEST SWAP4 SWAP3 POP POP POP JUMP JUMPDEST DUP1 CALLDATALOAD PUSH1 0x1 PUSH1 0x1 PUSH1 0xA0 SHL SUB DUP2 AND DUP2 EQ PUSH2 0x209E JUMPI PUSH1 0x0 DUP1 REVERT JUMPDEST SWAP2 SWAP1 POP JUMP JUMPDEST PUSH1 0x0 DUP1 PUSH1 0x40 DUP4 DUP6 SUB SLT ISZERO PUSH2 0x20B6 JUMPI PUSH1 0x0 DUP1 REVERT JUMPDEST PUSH2 0x20BF DUP4 PUSH2 0x2087 JUMP JUMPDEST SWAP5 PUSH1 0x20 SWAP4 SWAP1 SWAP4 ADD CALLDATALOAD SWAP4 POP POP POP JUMP JUMPDEST PUSH1 0x0 PUSH1 0x20 DUP3 DUP5 SUB SLT ISZERO PUSH2 0x20DF JUMPI PUSH1 0x0 DUP1 REVERT JUMPDEST PUSH2 0x2080 DUP3 PUSH2 0x2087 JUMP JUMPDEST PUSH1 0x0 DUP1 PUSH1 0x0 PUSH1 0x60 DUP5 DUP7 SUB SLT ISZERO PUSH2 0x20FD JUMPI PUSH1 0x0 DUP1 REVERT JUMPDEST PUSH2 0x2106 DUP5 PUSH2 0x2087 JUMP JUMPDEST SWAP3 POP PUSH2 0x2114 PUSH1 0x20 DUP6 ADD PUSH2 0x2087 JUMP JUMPDEST SWAP2 POP PUSH1 0x40 DUP5 ADD CALLDATALOAD SWAP1 POP SWAP3 POP SWAP3 POP SWAP3 JUMP JUMPDEST PUSH1 0x0 DUP1 PUSH1 0x40 DUP4 DUP6 SUB SLT ISZERO PUSH2 0x2137 JUMPI PUSH1 0x0 DUP1 REVERT JUMPDEST DUP3 CALLDATALOAD SWAP2 POP PUSH2 0x2147 PUSH1 0x20 DUP5 ADD PUSH2 0x2087 JUMP JUMPDEST SWAP1 POP SWAP3 POP SWAP3 SWAP1 POP JUMP JUMPDEST PUSH4 0x4E487B71 PUSH1 0xE0 SHL PUSH1 0x0 MSTORE PUSH1 0x41 PUSH1 0x4 MSTORE PUSH1 0x24 PUSH1 0x0 REVERT JUMPDEST PUSH1 0x0 PUSH1 0x20 DUP3 DUP5 SUB SLT ISZERO PUSH2 0x2178 JUMPI PUSH1 0x0 DUP1 REVERT JUMPDEST DUP2 CALLDATALOAD PUSH8 0xFFFFFFFFFFFFFFFF DUP1 DUP3 GT ISZERO PUSH2 0x2190 JUMPI PUSH1 0x0 DUP1 REVERT JUMPDEST DUP2 DUP5 ADD SWAP2 POP DUP5 PUSH1 0x1F DUP4 ADD SLT PUSH2 0x21A4 JUMPI PUSH1 0x0 DUP1 REVERT JUMPDEST DUP2 CALLDATALOAD DUP2 DUP2 GT ISZERO PUSH2 0x21B6 JUMPI PUSH2 0x21B6 PUSH2 0x2150 JUMP JUMPDEST PUSH1 0x40 MLOAD PUSH1 0x1F DUP3 ADD PUSH1 0x1F NOT SWAP1 DUP2 AND PUSH1 0x3F ADD AND DUP2 ADD SWAP1 DUP4 DUP3 GT DUP2 DUP4 LT OR ISZERO PUSH2 0x21DE JUMPI PUSH2 0x21DE PUSH2 0x2150 JUMP JUMPDEST DUP2 PUSH1 0x40 MSTORE DUP3 DUP2 MSTORE DUP8 PUSH1 0x20 DUP5 DUP8 ADD ADD GT ISZERO PUSH2 0x21F7 JUMPI PUSH1 0x0 DUP1 REVERT JUMPDEST DUP3 PUSH1 0x20 DUP7 ADD PUSH1 0x20 DUP4 ADD CALLDATACOPY PUSH1 0x0 SWAP3 DUP2 ADD PUSH1 0x20 ADD SWAP3 SWAP1 SWAP3 MSTORE POP SWAP6 SWAP5 POP POP POP POP POP JUMP JUMPDEST DUP1 ISZERO ISZERO DUP2 EQ PUSH2 0xB8A JUMPI PUSH1 0x0 DUP1 REVERT JUMPDEST PUSH1 0x0 PUSH1 0x20 DUP3 DUP5 SUB SLT ISZERO PUSH2 0x2237 JUMPI PUSH1 0x0 DUP1 REVERT JUMPDEST DUP2 CALLDATALOAD PUSH2 0x2080 DUP2 PUSH2 0x2217 JUMP JUMPDEST PUSH1 0x0 DUP1 PUSH1 0x40 DUP4 DUP6 SUB SLT ISZERO PUSH2 0x2255 JUMPI PUSH1 0x0 DUP1 REVERT JUMPDEST POP POP DUP1 CALLDATALOAD SWAP3 PUSH1 0x20 SWAP1 SWAP2 ADD CALLDATALOAD SWAP2 POP JUMP JUMPDEST PUSH1 0x0 DUP1 PUSH1 0x40 DUP4 DUP6 SUB SLT ISZERO PUSH2 0x2277 JUMPI PUSH1 0x0 DUP1 REVERT JUMPDEST PUSH2 0x2280 DUP4 PUSH2 0x2087 JUMP JUMPDEST SWAP2 POP PUSH1 0x20 DUP4 ADD CALLDATALOAD PUSH2 0x2290 DUP2 PUSH2 0x2217 JUMP JUMPDEST DUP1 SWAP2 POP POP SWAP3 POP SWAP3 SWAP1 POP JUMP JUMPDEST PUSH1 0x1 PUSH1 0x1 PUSH1 0xA0 SHL SUB DUP9 AND DUP2 MSTORE PUSH1 0xE0 PUSH1 0x20 DUP3 ADD DUP2 SWAP1 MSTORE PUSH1 0x0 SWAP1 PUSH2 0x22BF SWAP1 DUP4 ADD DUP10 PUSH2 0x1FCC JUMP JUMPDEST PUSH1 0x40 DUP4 ADD SWAP8 SWAP1 SWAP8 MSTORE POP PUSH1 0x60 DUP2 ADD SWAP5 SWAP1 SWAP5 MSTORE PUSH1 0x80 DUP5 ADD SWAP3 SWAP1 SWAP3 MSTORE ISZERO ISZERO PUSH1 0xA0 DUP4 ADD MSTORE ISZERO ISZERO PUSH1 0xC0 SWAP1 SWAP2 ADD MSTORE SWAP3 SWAP2 POP POP JUMP JUMPDEST PUSH1 0x0 DUP1 PUSH1 0x40 DUP4 DUP6 SUB SLT ISZERO PUSH2 0x2300 JUMPI PUSH1 0x0 DUP1 REVERT JUMPDEST DUP3 CALLDATALOAD SWAP2 POP PUSH1 0x20 DUP4 ADD CALLDATALOAD PUSH2 0x2290 DUP2 PUSH2 0x2217 JUMP JUMPDEST PUSH1 0x0 DUP1 PUSH1 0x0 PUSH1 0x60 DUP5 DUP7 SUB SLT ISZERO PUSH2 0x2327 JUMPI PUSH1 0x0 DUP1 REVERT JUMPDEST PUSH2 0x2330 DUP5 PUSH2 0x2087 JUMP JUMPDEST SWAP6 PUSH1 0x20 DUP6 ADD CALLDATALOAD SWAP6 POP PUSH1 0x40 SWAP1 SWAP5 ADD CALLDATALOAD SWAP4 SWAP3 POP POP POP JUMP JUMPDEST PUSH1 0x0 DUP1 PUSH1 0x40 DUP4 DUP6 SUB SLT ISZERO PUSH2 0x2358 JUMPI PUSH1 0x0 DUP1 REVERT JUMPDEST PUSH2 0x2361 DUP4 PUSH2 0x2087 JUMP JUMPDEST SWAP2 POP PUSH2 0x2147 PUSH1 0x20 DUP5 ADD PUSH2 0x2087 JUMP JUMPDEST PUSH1 0x1 DUP2 DUP2 SHR SWAP1 DUP3 AND DUP1 PUSH2 0x2383 JUMPI PUSH1 0x7F DUP3 AND SWAP2 POP JUMPDEST PUSH1 0x20 DUP3 LT DUP2 SUB PUSH2 0x23A3 JUMPI PUSH4 0x4E487B71 PUSH1 0xE0 SHL PUSH1 0x0 MSTORE PUSH1 0x22 PUSH1 0x4 MSTORE PUSH1 0x24 PUSH1 0x0 REVERT JUMPDEST POP SWAP2 SWAP1 POP JUMP JUMPDEST PUSH4 0x4E487B71 PUSH1 0xE0 SHL PUSH1 0x0 MSTORE PUSH1 0x11 PUSH1 0x4 MSTORE PUSH1 0x24 PUSH1 0x0 REVERT JUMPDEST DUP1 DUP3 ADD DUP1 DUP3 GT ISZERO PUSH2 0xA34 JUMPI PUSH2 0xA34 PUSH2 0x23A9 JUMP JUMPDEST DUP1 DUP3 MUL DUP2 ISZERO DUP3 DUP3 DIV DUP5 EQ OR PUSH2 0xA34 JUMPI PUSH2 0xA34 PUSH2 0x23A9 JUMP JUMPDEST PUSH1 0x0 DUP3 PUSH2 0x2406 JUMPI PUSH4 0x4E487B71 PUSH1 0xE0 SHL PUSH1 0x0 MSTORE PUSH1 0x12 PUSH1 0x4 MSTORE PUSH1 0x24 PUSH1 0x0 REVERT JUMPDEST POP DIV SWAP1 JUMP JUMPDEST PUSH1 0x0 PUSH1 0x1 DUP3 ADD PUSH2 0x241D JUMPI PUSH2 0x241D PUSH2 0x23A9 JUMP JUMPDEST POP PUSH1 0x1 ADD SWAP1 JUMP JUMPDEST PUSH1 0x1F DUP3 GT ISZERO PUSH2 0x18D8 JUMPI PUSH1 0x0 DUP2 PUSH1 0x0 MSTORE PUSH1 0x20 PUSH1 0x0 KECCAK256 PUSH1 0x1F DUP6 ADD PUSH1 0x5 SHR DUP2 ADD PUSH1 0x20 DUP7 LT ISZERO PUSH2 0x244D JUMPI POP DUP1 JUMPDEST PUSH1 0x1F DUP6 ADD PUSH1 0x5 SHR DUP3 ADD SWAP2 POP JUMPDEST DUP2 DUP2 LT ISZERO PUSH2 0x246C JUMPI DUP3 DUP2 SSTORE PUSH1 0x1 ADD PUSH2 0x2459 JUMP JUMPDEST POP POP POP POP POP POP JUMP JUMPDEST DUP2 MLOAD PUSH8 0xFFFFFFFFFFFFFFFF DUP2 GT ISZERO PUSH2 0x248E JUMPI PUSH2 0x248E PUSH2 0x2150 JUMP JUMPDEST PUSH2 0x24A2 DUP2 PUSH2 0x249C DUP5 SLOAD PUSH2 0x236F JUMP JUMPDEST DUP5 PUSH2 0x2424 JUMP JUMPDEST PUSH1 0x20 DUP1 PUSH1 0x1F DUP4 GT PUSH1 0x1 DUP2 EQ PUSH2 0x24D7 JUMPI PUSH1 0x0 DUP5 ISZERO PUSH2 0x24BF JUMPI POP DUP6 DUP4 ADD MLOAD JUMPDEST PUSH1 0x0 NOT PUSH1 0x3 DUP7 SWAP1 SHL SHR NOT AND PUSH1 0x1 DUP6 SWAP1 SHL OR DUP6 SSTORE PUSH2 0x246C JUMP JUMPDEST PUSH1 0x0 DUP6 DUP2 MSTORE PUSH1 0x20 DUP2 KECCAK256 PUSH1 0x1F NOT DUP7 AND SWAP2 JUMPDEST DUP3 DUP2 LT ISZERO PUSH2 0x2506 JUMPI DUP9 DUP7 ADD MLOAD DUP3 SSTORE SWAP5 DUP5 ADD SWAP5 PUSH1 0x1 SWAP1 SWAP2 ADD SWAP1 DUP5 ADD PUSH2 0x24E7 JUMP JUMPDEST POP DUP6 DUP3 LT ISZERO PUSH2 0x2524 JUMPI DUP8 DUP6 ADD MLOAD PUSH1 0x0 NOT PUSH1 0x3 DUP9 SWAP1 SHL PUSH1 0xF8 AND SHR NOT AND DUP2 SSTORE JUMPDEST POP POP POP POP POP PUSH1 0x1 SWAP1 DUP2 SHL ADD SWAP1 SSTORE POP JUMP JUMPDEST DUP2 DUP2 SUB DUP2 DUP2 GT ISZERO PUSH2 0xA34 JUMPI PUSH2 0xA34 PUSH2 0x23A9 JUMP JUMPDEST PUSH1 0x0 PUSH1 0x20 DUP3 DUP5 SUB SLT ISZERO PUSH2 0x2559 JUMPI PUSH1 0x0 DUP1 REVERT JUMPDEST DUP2 MLOAD PUSH2 0x2080 DUP2 PUSH2 0x2217 JUMP JUMPDEST PUSH1 0x1 PUSH1 0x1 PUSH1 0xA0 SHL SUB SWAP4 SWAP1 SWAP4 AND DUP4 MSTORE PUSH1 0x20 DUP4 ADD SWAP2 SWAP1 SWAP2 MSTORE PUSH1 0x40 DUP3 ADD MSTORE PUSH1 0x60 ADD SWAP1 JUMP INVALID LOG2 PUSH5 0x6970667358 0x22 SLT KECCAK256 0x4B RETURNDATACOPY XOR 0x2E PUSH6 0x8FB74C3D6FD5 DUP1 PUSH32 0x12DC0215A4290EF428E3EFD44A61F58E19598164736F6C63430008180033A264 PUSH10 0x70667358221220958FA2 PUSH25 0x8CF822B446CEC9771EED242CD0E1445C4CA4387E13EC7AB5B0 BYTE PUSH30 0xE364736F6C63430008180033000000000000000000000000000000000000 "
        },
        "methodIdentifiers": {
          "MAX_FEE()": "bc063e1a",
          "MAX_TOTAL_SUPPLY()": "33039d3d",
          "MIN_LIQUIDITY_LOCK_PERIOD()": "6dde8668",
          "MIN_TOTAL_SUPPLY()": "5122c409",
          "addAndLockLiquidity(address,uint256)": "451a960b",
          "allDeployedTokens(uint256)": "706c7729",
          "creatorTokens(address,uint256)": "db3fa4cc",
          "deployToken(string,string,uint256,uint256,bool)": "d3b65a70",
          "etherFee()": "ed94c7f4",
          "getAllDeployedTokens()": "822f694b",
          "getFactoryStats()": "c9226445",
          "getTokenInfo(address)": "1f69565f",
          "getTokensByCreator(address)": "d5c71275",
          "isDeployedToken(address)": "4c1c7ddf",
          "liquidityInfo(address)": "cb7f43fe",
          "owner()": "8da5cb5b",
          "renounceOwnership()": "715018a6",
          "setEtherFee(uint256)": "4aed8750",
          "tokenInfo(address)": "f5dab711",
          "totalFeesCollected()": "60c6d8ae",
          "totalTokensDeployed()": "07fe2adf",
          "transferOwnership(address)": "f2fde38b",
          "triggerAntiRugPull(address,string)": "7d9e5d88",
          "withdrawFees()": "476343ee"
        }
      }
    }
  }
}