{
  "_format": "hh-sol-artifact-1",
  "contractName": "PumpFunFactoryLite",
  "sourceName": "contracts/PumpFunFactoryLite.sol",
  "abi": [
    {
      "inputs": [],
      "stateMutability": "nonpayable",
      "type": "constructor"
    },
    {
      "inputs": [
        {
          "internalType": "address",
          "name": "owner",
          "type": "address"
        }
      ],
      "name": "OwnableInvalidOwner",
      "type": "error"
    },
    {
      "inputs": [
        {
          "internalType": "address",
          "name": "account",
          "type": "address"
        }
      ],
      "name": "OwnableUnauthorizedAccount",
      "type": "error"
    },
    {
      "inputs": [],
      "name": "PumpFunFactoryLite__EmptyStringParameter",
      "type": "error"
    },
    {
      "inputs": [
        {
          "internalType": "uint256",
          "name": "sent",
          "type": "uint256"
        },
        {
          "internalType": "uint256",
          "name": "required",
          "type": "uint256"
        }
      ],
      "name": "PumpFunFactoryLite__InsufficientEtherFee",
      "type": "error"
    },
    {
      "inputs": [
        {
          "internalType": "uint256",
          "name": "fee",
          "type": "uint256"
        }
      ],
      "name": "PumpFunFactoryLite__InvalidFeeAmount",
      "type": "error"
    },
    {
      "inputs": [],
      "name": "PumpFunFactoryLite__InvalidParameters",
      "type": "error"
    },
    {
      "inputs": [],
      "name": "PumpFunFactoryLite__InvalidTokenAmount",
      "type": "error"
    },
    {
      "inputs": [],
      "name": "PumpFunFactoryLite__NoEtherToWithdraw",
      "type": "error"
    },
    {
      "inputs": [],
      "name": "PumpFunFactoryLite__TokenNotDeployedByFactory",
      "type": "error"
    },
    {
      "inputs": [
        {
          "internalType": "uint256",
          "name": "supply",
          "type": "uint256"
        },
        {
          "internalType": "uint256",
          "name": "maxSupply",
          "type": "uint256"
        }
      ],
      "name": "PumpFunFactoryLite__TotalSupplyTooHigh",
      "type": "error"
    },
    {
      "inputs": [],
      "name": "PumpFunFactoryLite__TotalSupplyTooLow",
      "type": "error"
    },
    {
      "inputs": [],
      "name": "PumpFunFactoryLite__TransferFailed",
      "type": "error"
    },
    {
      "inputs": [],
      "name": "ReentrancyGuardReentrantCall",
      "type": "error"
    },
    {
      "anonymous": false,
      "inputs": [
        {
          "indexed": true,
          "internalType": "address",
          "name": "oldManager",
          "type": "address"
        },
        {
          "indexed": true,
          "internalType": "address",
          "name": "newManager",
          "type": "address"
        }
      ],
      "name": "DEXManagerUpdated",
      "type": "event"
    },
    {
      "anonymous": false,
      "inputs": [
        {
          "indexed": true,
          "internalType": "address",
          "name": "token",
          "type": "address"
        },
        {
          "indexed": true,
          "internalType": "address",
          "name": "pair",
          "type": "address"
        },
        {
          "indexed": false,
          "internalType": "uint256",
          "name": "tokenAmount",
          "type": "uint256"
        },
        {
          "indexed": false,
          "internalType": "uint256",
          "name": "ethAmount",
          "type": "uint256"
        }
      ],
      "name": "DEXPoolCreated",
      "type": "event"
    },
    {
      "anonymous": false,
      "inputs": [
        {
          "indexed": false,
          "internalType": "uint256",
          "name": "oldFee",
          "type": "uint256"
        },
        {
          "indexed": false,
          "internalType": "uint256",
          "name": "newFee",
          "type": "uint256"
        }
      ],
      "name": "EtherFeeUpdated",
      "type": "event"
    },
    {
      "anonymous": false,
      "inputs": [
        {
          "indexed": true,
          "internalType": "address",
          "name": "owner",
          "type": "address"
        },
        {
          "indexed": false,
          "internalType": "uint256",
          "name": "amount",
          "type": "uint256"
        }
      ],
      "name": "EtherWithdrawn",
      "type": "event"
    },
    {
      "anonymous": false,
      "inputs": [
        {
          "indexed": true,
          "internalType": "address",
          "name": "previousOwner",
          "type": "address"
        },
        {
          "indexed": true,
          "internalType": "address",
          "name": "newOwner",
          "type": "address"
        }
      ],
      "name": "OwnershipTransferred",
      "type": "event"
    },
    {
      "anonymous": false,
      "inputs": [
        {
          "indexed": true,
          "internalType": "string",
          "name": "name",
          "type": "string"
        },
        {
          "indexed": true,
          "internalType": "string",
          "name": "symbol",
          "type": "string"
        },
        {
          "indexed": true,
          "internalType": "address",
          "name": "tokenAddress",
          "type": "address"
        },
        {
          "indexed": false,
          "internalType": "uint256",
          "name": "totalSupply",
          "type": "uint256"
        },
        {
          "indexed": false,
          "internalType": "address",
          "name": "creator",
          "type": "address"
        }
      ],
      "name": "TokenDeployed",
      "type": "event"
    },
    {
      "stateMutability": "payable",
      "type": "fallback"
    },
    {
      "inputs": [],
      "name": "MAX_FEE",
      "outputs": [
        {
          "internalType": "uint256",
          "name": "",
          "type": "uint256"
        }
      ],
      "stateMutability": "view",
      "type": "function"
    },
    {
      "inputs": [],
      "name": "MIN_TOTAL_SUPPLY",
      "outputs": [
        {
          "internalType": "uint256",
          "name": "",
          "type": "uint256"
        }
      ],
      "stateMutability": "view",
      "type": "function"
    },
    {
      "inputs": [],
      "name": "PREMIUM_FEE_MULTIPLIER",
      "outputs": [
        {
          "internalType": "uint256",
          "name": "",
          "type": "uint256"
        }
      ],
      "stateMutability": "view",
      "type": "function"
    },
    {
      "inputs": [],
      "name": "PREMIUM_MAX_SUPPLY",
      "outputs": [
        {
          "internalType": "uint256",
          "name": "",
          "type": "uint256"
        }
      ],
      "stateMutability": "view",
      "type": "function"
    },
    {
      "inputs": [],
      "name": "STANDARD_FEE_MULTIPLIER",
      "outputs": [
        {
          "internalType": "uint256",
          "name": "",
          "type": "uint256"
        }
      ],
      "stateMutability": "view",
      "type": "function"
    },
    {
      "inputs": [],
      "name": "STANDARD_MAX_SUPPLY",
      "outputs": [
        {
          "internalType": "uint256",
          "name": "",
          "type": "uint256"
        }
      ],
      "stateMutability": "view",
      "type": "function"
    },
    {
      "inputs": [],
      "name": "ULTIMATE_FEE_MULTIPLIER",
      "outputs": [
        {
          "internalType": "uint256",
          "name": "",
          "type": "uint256"
        }
      ],
      "stateMutability": "view",
      "type": "function"
    },
    {
      "inputs": [],
      "name": "ULTIMATE_MAX_SUPPLY",
      "outputs": [
        {
          "internalType": "uint256",
          "name": "",
          "type": "uint256"
        }
      ],
      "stateMutability": "view",
      "type": "function"
    },
    {
      "inputs": [
        {
          "internalType": "uint256",
          "name": "",
          "type": "uint256"
        }
      ],
      "name": "allDeployedTokens",
      "outputs": [
        {
          "internalType": "address",
          "name": "",
          "type": "address"
        }
      ],
      "stateMutability": "view",
      "type": "function"
    },
    {
      "inputs": [
        {
          "internalType": "address",
          "name": "tokenAddress",
          "type": "address"
        },
        {
          "internalType": "uint256",
          "name": "tokenAmount",
          "type": "uint256"
        },
        {
          "internalType": "uint24",
          "name": "fee",
          "type": "uint24"
        }
      ],
      "name": "createDEXPool",
      "outputs": [],
      "stateMutability": "payable",
      "type": "function"
    },
    {
      "inputs": [
        {
          "internalType": "address",
          "name": "",
          "type": "address"
        },
        {
          "internalType": "uint256",
          "name": "",
          "type": "uint256"
        }
      ],
      "name": "creatorTokens",
      "outputs": [
        {
          "internalType": "address",
          "name": "",
          "type": "address"
        }
      ],
      "stateMutability": "view",
      "type": "function"
    },
    {
      "inputs": [
        {
          "internalType": "string",
          "name": "name",
          "type": "string"
        },
        {
          "internalType": "string",
          "name": "symbol",
          "type": "string"
        },
        {
          "internalType": "uint256",
          "name": "totalSupply",
          "type": "uint256"
        }
      ],
      "name": "deployToken",
      "outputs": [
        {
          "internalType": "address",
          "name": "tokenAddress",
          "type": "address"
        }
      ],
      "stateMutability": "payable",
      "type": "function"
    },
    {
      "inputs": [],
      "name": "dexManager",
      "outputs": [
        {
          "internalType": "contract PumpFunDEXManager",
          "name": "",
          "type": "address"
        }
      ],
      "stateMutability": "view",
      "type": "function"
    },
    {
      "inputs": [],
      "name": "etherFee",
      "outputs": [
        {
          "internalType": "uint256",
          "name": "",
          "type": "uint256"
        }
      ],
      "stateMutability": "view",
      "type": "function"
    },
    {
      "inputs": [],
      "name": "getAirdropContract",
      "outputs": [
        {
          "internalType": "address",
          "name": "",
          "type": "address"
        }
      ],
      "stateMutability": "pure",
      "type": "function"
    },
    {
      "inputs": [],
      "name": "getAllDeployedTokens",
      "outputs": [
        {
          "internalType": "address[]",
          "name": "",
          "type": "address[]"
        }
      ],
      "stateMutability": "view",
      "type": "function"
    },
    {
      "inputs": [],
      "name": "getFactoryStats",
      "outputs": [
        {
          "internalType": "uint256",
          "name": "_totalTokensDeployed",
          "type": "uint256"
        },
        {
          "internalType": "uint256",
          "name": "_totalFeesCollected",
          "type": "uint256"
        },
        {
          "internalType": "uint256",
          "name": "_currentBalance",
          "type": "uint256"
        }
      ],
      "stateMutability": "view",
      "type": "function"
    },
    {
      "inputs": [
        {
          "internalType": "uint256",
          "name": "totalSupply",
          "type": "uint256"
        }
      ],
      "name": "getRequiredFee",
      "outputs": [
        {
          "internalType": "uint256",
          "name": "",
          "type": "uint256"
        }
      ],
      "stateMutability": "view",
      "type": "function"
    },
    {
      "inputs": [
        {
          "internalType": "uint256",
          "name": "totalSupply",
          "type": "uint256"
        }
      ],
      "name": "getSupplyTier",
      "outputs": [
        {
          "internalType": "string",
          "name": "tier",
          "type": "string"
        },
        {
          "internalType": "uint256",
          "name": "maxSupply",
          "type": "uint256"
        },
        {
          "internalType": "uint256",
          "name": "feeMultiplier",
          "type": "uint256"
        }
      ],
      "stateMutability": "pure",
      "type": "function"
    },
    {
      "inputs": [
        {
          "internalType": "address",
          "name": "tokenAddress",
          "type": "address"
        }
      ],
      "name": "getTokenInfo",
      "outputs": [
        {
          "internalType": "address",
          "name": "creator",
          "type": "address"
        },
        {
          "internalType": "uint256",
          "name": "deploymentTime",
          "type": "uint256"
        }
      ],
      "stateMutability": "view",
      "type": "function"
    },
    {
      "inputs": [
        {
          "internalType": "address",
          "name": "creator",
          "type": "address"
        }
      ],
      "name": "getTokensByCreator",
      "outputs": [
        {
          "internalType": "address[]",
          "name": "",
          "type": "address[]"
        }
      ],
      "stateMutability": "view",
      "type": "function"
    },
    {
      "inputs": [
        {
          "internalType": "address",
          "name": "",
          "type": "address"
        }
      ],
      "name": "isDeployedToken",
      "outputs": [
        {
          "internalType": "bool",
          "name": "",
          "type": "bool"
        }
      ],
      "stateMutability": "view",
      "type": "function"
    },
    {
      "inputs": [
        {
          "internalType": "address",
          "name": "operator",
          "type": "address"
        },
        {
          "internalType": "address",
          "name": "from",
          "type": "address"
        },
        {
          "internalType": "uint256",
          "name": "tokenId",
          "type": "uint256"
        },
        {
          "internalType": "bytes",
          "name": "data",
          "type": "bytes"
        }
      ],
      "name": "onERC721Received",
      "outputs": [
        {
          "internalType": "bytes4",
          "name": "",
          "type": "bytes4"
        }
      ],
      "stateMutability": "pure",
      "type": "function"
    },
    {
      "inputs": [],
      "name": "owner",
      "outputs": [
        {
          "internalType": "address",
          "name": "",
          "type": "address"
        }
      ],
      "stateMutability": "view",
      "type": "function"
    },
    {
      "inputs": [],
      "name": "renounceOwnership",
      "outputs": [],
      "stateMutability": "nonpayable",
      "type": "function"
    },
    {
      "inputs": [
        {
          "internalType": "address payable",
          "name": "_dexManager",
          "type": "address"
        }
      ],
      "name": "setDEXManager",
      "outputs": [],
      "stateMutability": "nonpayable",
      "type": "function"
    },
    {
      "inputs": [
        {
          "internalType": "uint256",
          "name": "newFee",
          "type": "uint256"
        }
      ],
      "name": "setEtherFee",
      "outputs": [],
      "stateMutability": "nonpayable",
      "type": "function"
    },
    {
      "inputs": [
        {
          "internalType": "address",
          "name": "",
          "type": "address"
        }
      ],
      "name": "tokenInfo",
      "outputs": [
        {
          "internalType": "address",
          "name": "tokenAddress",
          "type": "address"
        },
        {
          "internalType": "address",
          "name": "creator",
          "type": "address"
        },
        {
          "internalType": "uint256",
          "name": "deploymentTime",
          "type": "uint256"
        }
      ],
      "stateMutability": "view",
      "type": "function"
    },
    {
      "inputs": [],
      "name": "totalFeesCollected",
      "outputs": [
        {
          "internalType": "uint256",
          "name": "",
          "type": "uint256"
        }
      ],
      "stateMutability": "view",
      "type": "function"
    },
    {
      "inputs": [],
      "name": "totalTokensDeployed",
      "outputs": [
        {
          "internalType": "uint256",
          "name": "",
          "type": "uint256"
        }
      ],
      "stateMutability": "view",
      "type": "function"
    },
    {
      "inputs": [
        {
          "internalType": "address",
          "name": "newOwner",
          "type": "address"
        }
      ],
      "name": "transferOwnership",
      "outputs": [],
      "stateMutability": "nonpayable",
      "type": "function"
    },
    {
      "inputs": [],
      "name": "withdrawFees",
      "outputs": [],
      "stateMutability": "nonpayable",
      "type": "function"
    },
    {
      "stateMutability": "payable",
      "type": "receive"
    }
  ],
  "bytecode": "0x608080604052346100895733156100735760008054336001600160a01b03198216811783556040519290916001600160a01b0316907f8be0079c531659141344cd1fd0a4f28419497f9722a3daafe3b4186f6b6457e09080a360018055662386f26fc10000600255612345908161008f8239f35b631e4fbdf760e01b815260006004820152602490fd5b600080fdfe60806040908082526004908136101562000022575b50505036156200002057005b005b600091823560e01c91826302bd69af146200111b5750816307fe2adf14620010fa5781630e8f14bb14620010b057816310be1f99146200108557816314f0388a1462001067578163150b7a021462000fe65781631903b6361462000fc85781631f69565f1462000f43578163211782011462000f225781633a93babb1462000b835781633d2994651462000b58578163476343ee1462000a865781634aed87501462000a055781634c1c7ddf14620009c35781635122c40914620009a457816357b9ca3614620009875781635f80d1fb146200096657816360c6d8ae1462000945578163706c772914620008ea578163715018a6146200088c578163822f694b14620008025781638bc9effb14620004ee5781638da5cb5b14620004c457816396f918901462000453578163ae6095551462000432578163bc063e1a146200040d578163c922644514620003dd578163d5c712751462000349578163db3fa4cc14620002e7578163ed94c7f414620002c2578163f2fde38b146200022a575063f5dab71114620001b3578062000014565b346200022757602036600319011262000227576001600160a01b03906200022390839083620001e162001184565b168152600660205220926002838554169360018601541694015490519384938460409194939294606082019560018060a01b0380921683521660208201520152565b0390f35b80fd5b83915034620002be576020366003190112620002be576200024a62001184565b906200025562001481565b6001600160a01b03918216928315620002a8575050600054826001600160601b0360a01b821617600055167f8be0079c531659141344cd1fd0a4f28419497f9722a3daafe3b4186f6b6457e0600080a380f35b51631e4fbdf760e01b8152908101849052602490fd5b8280fd5b828434620002e35781600319360112620002e3576020906002549051908152f35b5080fd5b83833462000227578160031936011262000227576200030562001184565b6001600160a01b03908116825260209390935281812080546024359492908510156200022757506020936200033a9162001292565b92905490519260031b1c168152f35b90508234620002be57602080600319360112620003d9576001600160a01b03939092846200037662001184565b1682526020528181209382519081946020875493848152019684526020842093915b838310620003bf57620002238787620003b4828c038362001205565b5191829182620012c1565b845481168852968101966001948501949092019162000398565b8380fd5b828434620002e35781600319360112620002e3576060906008549060095490479181519384526020840152820152f35b828434620002e35781600319360112620002e35760209051670de0b6b3a76400008152f35b828434620002e35781600319360112620002e357602090516305f5e1008152f35b905034620002e3576020366003190112620002e357356001600160a01b0381811691829003620002be576200048762001481565b600354826001600160601b0360a01b821617600355167f7d12c920881b653d3010cf9b04dd3c92a550be73b3572d28a5c91ad8ee1440ce8380a380f35b828434620002e35781600319360112620002e357905490516001600160a01b039091168152602090f35b8391506060366003190112620002be576200050862001184565b602435926044359162ffffff8316809303620007fe5762000528620013e6565b60018060a01b03809116938487526020936005855260ff848920541615620007ef57826003541615620007e05734158015620007d7575b620007c85783516323b872dd60e01b8152338382019081523060208201526040810189905286908290819060600103818c8b5af180156200076857620007a6575b50600354845163095ea7b360e01b81529084166001600160a01b03168382019081526020810189905286908290819060400103818c8b5af18015620007685762000772575b50878360035416803b15620002e35781906024875180948193639b5eb51160e01b83528c898401525af18015620007685762000752575b508790836003541690813b15620002be578290606487518094819363f7f2918560e01b83528c8984015260248301528c604483015234905af18015620007485762000730575b50508382600354168451928380926315ab88c960e31b82525afa90811562000726578791620006c3575b507f8b85c1b966f7d9f50db8ab7ab93fa90d53e3c4478ff4b4bf5fd6560f87b27e9c93835196875234908701521693a36001805580f35b90508381813d83116200071e575b620006dd818362001205565b810103126200071a57519281841684036200071a57927f8b85c1b966f7d9f50db8ab7ab93fa90d53e3c4478ff4b4bf5fd6560f87b27e9c6200068c565b8680fd5b503d620006d1565b83513d89823e3d90fd5b6200073b90620011d3565b6200071a57868862000662565b85513d84823e3d90fd5b6200076090989198620011d3565b96886200061c565b85513d8b823e3d90fd5b6200079690863d88116200079e575b6200078d818362001205565b810190620013cc565b5088620005e5565b503d62000781565b620007c090863d88116200079e576200078d818362001205565b5088620005a0565b50825163be9b090b60e01b8152fd5b5086156200055f565b508251632fae6d5d60e21b8152fd5b50825163629fb17b60e01b8152fd5b8580fd5b50503462000227578060031936011262000227578151918291600754808552602080950194600783527fa66cc928b5edb82af9bd49922954155ab7b0942694bea4ce44661d9a8736c68892905b8282106200086b57620002238686620003b4828b038362001205565b83546001600160a01b0316875295860195600193840193909101906200084f565b82346200022757806003193601126200022757620008a962001481565b80546001600160a01b03198116825581906001600160a01b03167f8be0079c531659141344cd1fd0a4f28419497f9722a3daafe3b4186f6b6457e08280a380f35b83915034620002be576020366003190112620002be5735600754811015620002be5760076020935260018060a01b03907fa66cc928b5edb82af9bd49922954155ab7b0942694bea4ce44661d9a8736c6880154169051908152f35b828434620002e35781600319360112620002e3576020906009549051908152f35b828434620002e35781600319360112620002e35760209051633b9aca008152f35b828434620002e35781600319360112620002e35751908152602090f35b828434620002e35781600319360112620002e357602090516103e88152f35b828434620002e3576020366003190112620002e35760209160ff9082906001600160a01b03620009f262001184565b1681526005855220541690519015158152f35b83915034620002be576020366003190112620002be5780359062000a2862001481565b670de0b6b3a7640000821162000a725750907fd4cf6f6bee0026c64c38fb4e7e9cc15819be59dccb8f0a82fd31a4cc1dcc1e1891600254908060025582519182526020820152a180f35b915162d47c9760e21b815291820152602490fd5b83915034620002be5782600319360112620002be5762000aa562001481565b62000aaf620013e6565b4790811562000b475760018060a01b03908480808086868254165af13d1562000b41573d62000ade8162001228565b9062000aed8751928362001205565b81528660203d92013e5b1562000b3357507f06097061aeda806b5e9cb4133d9899f332ff0913956567fc0f7ea15e3d19947c916020918554169351908152a26001805580f35b8351634a8e495d60e01b8152fd5b62000af7565b82516001623f75c760e11b03198152fd5b8383346200022757602036600319011262000227575062000b7c602092356200140a565b9051908152f35b82846060366003190112620002e35767ffffffffffffffff928035848111620003d95762000bb5903690830162001245565b906024918235868111620007fe5762000bd2903690840162001245565b906044359262000be1620013e6565b815115801562000f18575b62000f0a576103e8841062000efc57633b9aca0080851162000ee0575062000c14846200140a565b80341062000ec45780341162000e72575b508551610e61808201998a11828b101762000e6057620014af8239608089528062000c5460808b01856200115d565b9962000c6a60209b8281038d840152876200115d565b90878a820152606033910152039088f094851562000e565786516001600160a01b03968716989062000c9c81620011a0565b8981528a810197338952898201914283528b845260068d526002828c8620925116936001600160601b0360a01b948584541617835560019b848d85019151168682541617905551910155338352848c5289832090815468010000000000000000928382101562000e44578162000d18918f938e01815562001292565b909283549160031b92831b921b19161790558a835260058c528983208960ff198254161790556007549081101562000e32578881018060075581101562000e2057600783527fa66cc928b5edb82af9bd49922954155ab7b0942694bea4ce44661d9a8736c6880180549091168a179055600854600019811462000e0f5787016008556009549234840180941162000dff575050508562000deb62000de4899695947f43f69d01cacd58dfa60f7f1722dbd621e9f26cb5a97b5c0d7883b85aa1ca3b6c94600955620013aa565b93620013aa565b938151908152338a820152a4805551908152f35b634e487b7160e01b825260119052fd5b50634e487b7160e01b815260118352fd5b5050634e487b7160e01b815260328352fd5b5050634e487b7160e01b815260418352fd5b634e487b7160e01b8652604188528686fd5b86513d89823e3d90fd5b634e487b7160e01b8952604183528689fd5b8034039034821162000eb2578880809381938290341462000ea8575b3390f11562000e9e578862000c25565b85513d88823e3d90fd5b506108fc62000e8e565b634e487b7160e01b8952601183528689fd5b60449250858751926304b5051b60e11b84523490840152820152fd5b865163195ea1eb60e01b81529182018590528186015260449150fd5b8551636440dead60e01b8152fd5b855163288c426360e01b8152fd5b5082511562000bec565b828434620002e35781600319360112620002e35760209051631dcd65008152f35b5050346200022757602036600319011262000227576001600160a01b03906200022390839081908462000f7562001184565b16815260066020522092600282519162000f8f83620011a0565b8086541683526001860154169485602084015201549485910152519283928360209093929193604081019460018060a01b031681520152565b828434620002e35781600319360112620002e3576020905160038152f35b83915034620002be576080366003190112620002be576200100662001184565b506024356001600160a01b03811603620002be576064359067ffffffffffffffff908183116200106357366023840112156200106357820135908111620003d95736910160240111620002e35751630a85bd0160e11b8152602090f35b8480fd5b828434620002e35781600319360112620002e35760209051600a8152f35b828434620002e35781600319360112620002e35760035490516001600160a01b039091168152602090f35b83833462000227576020366003190112620002275750620010d6620010ed923562001308565b90919280519485946060865260608601906200115d565b9260208501528301520390f35b828434620002e35781600319360112620002e3576020906008549051908152f35b839034620002e35781600319360112620002e35780600160209252f35b60005b8381106200114c5750506000910152565b81810151838201526020016200113b565b90602091620011788151809281855285808601910162001138565b601f01601f1916010190565b600435906001600160a01b03821682036200119b57565b600080fd5b6060810190811067ffffffffffffffff821117620011bd57604052565b634e487b7160e01b600052604160045260246000fd5b67ffffffffffffffff8111620011bd57604052565b6040810190811067ffffffffffffffff821117620011bd57604052565b90601f8019910116810190811067ffffffffffffffff821117620011bd57604052565b67ffffffffffffffff8111620011bd57601f01601f191660200190565b81601f820112156200119b578035906200125f8262001228565b926200126f604051948562001205565b828452602083830101116200119b57816000926020809301838601378301015290565b8054821015620012ab5760005260206000200190600090565b634e487b7160e01b600052603260045260246000fd5b602090602060408183019282815285518094520193019160005b828110620012ea575050505090565b83516001600160a01b031685529381019392810192600101620012db565b6305f5e10091908281116200134257506040516200132681620011e8565b600881526714dd185b99185c9960c21b60208201529190600190565b631dcd65009250821062001379576040516200135e81620011e8565b60078152665072656d69756d60c81b60208201529190600390565b90506040516200138981620011e8565b6008815267556c74696d61746560c01b602082015290633b9aca0090600a90565b620013c49060206040519282848094519384920162001138565b810103902090565b908160209103126200119b575180151581036200119b5790565b600260015414620013f8576002600155565b604051633ee5aeb560e01b8152600490fd5b6305f5e1008111620014425750600254808004600114811517156200142c5790565b634e487b7160e01b600052601160045260246000fd5b631dcd65001062001467576002546003810290808204600314901517156200142c5790565b600254600a810290808204600a14901517156200142c5790565b6000546001600160a01b031633036200149657565b60405163118cdaa760e01b8152336004820152602490fdfe604060808152346200047f5762000e6190813803806200001f8162000484565b9384398201916080818403126200047f5780516001600160401b0393908481116200047f578162000052918401620004aa565b9160209182820151908682116200047f5762000070918301620004aa565b848201516060909201516001600160a01b038082169590918690036200047f5780518881116200038c57600398895499600192838c811c9c16801562000474575b898d10146200045e57601f9b8c811162000413575b5080898d8211600114620003ae57600091620003a2575b5060001982841b1c191690841b1781555b85519182116200038c5760049a8b548481811c9116801562000381575b8a8210146200036c5781811162000321575b5088908311600114620002b85782938391600094620002ac575b501b92600019911b1c19161788555b85156200029557600580546001600160a01b0319811688179091558751928791167f8be0079c531659141344cd1fd0a4f28419497f9722a3daafe3b4186f6b6457e0600080a351156200028757505115620002775780156200026757670de0b6b3a76400008082029182040362000252576002548181018091116200023d57907f1cef2b4ec7f129e441c961eb4fae22fd3131868db6be990c6f065f35b6b53cf392916002558360005260008252846000208181540190558360007fddf252ad1be2c89b69c2b068fc378daa952ba7f163c4a11628f55a4df523b3ef848851858152a38451908152a25161094490816200051d8239f35b601186634e487b7160e01b6000525260246000fd5b601185634e487b7160e01b6000525260246000fd5b50505051635cda02af60e11b8152fd5b50505051630d1db87b60e21b8152fd5b63b15d1fe560e01b81528690fd5b8651631e4fbdf760e01b81526000818a0152602490fd5b88015193503862000137565b90601f198316918c600052838a6000209360005b8c88838310620003095750505010620002ee575b505050811b01885562000146565b8701519060f884600019921b161c19169055388080620002e0565b858d01518855909601959384019387935001620002cc565b8c600052896000208280860160051c8201928c871062000362575b0160051c019085905b828110620003555750506200011d565b6000815501859062000345565b925081926200033c565b60228d634e487b7160e01b6000525260246000fd5b90607f16906200010b565b634e487b7160e01b600052604160045260246000fd5b905085015138620000dd565b859250601f19821690846000528b6000209160005b8d828210620003fc5750508311620003e3575b5050811b018155620000ee565b87015160001983861b60f8161c191690553880620003d6565b838b015185558996909401939283019201620003c3565b82600052896000208d80840160051c8201928c851062000454575b0160051c019085905b82811062000447575050620000c6565b6000815501859062000437565b925081926200042e565b634e487b7160e01b600052602260045260246000fd5b9b607f169b620000b1565b600080fd5b6040519190601f01601f191682016001600160401b038111838210176200038c57604052565b919080601f840112156200047f5782516001600160401b0381116200038c57602090620004e0601f8201601f1916830162000484565b928184528282870101116200047f5760005b8181106200050857508260009394955001015290565b8581018301518482018401528201620004f256fe6080604081815260048036101561001557600080fd5b600092833560e01c90816306fdde031461052157508063095ea7b31461047857806318160ddd1461045957806323b872dd1461041c578063313ce5671461040057806342966c68146103e257806370a08231146103ab578063715018a61461034e57806379cc6790146103185780638da5cb5b146102ef57806395d89b41146101cd578063a9059cbb1461019c578063dd62ed3e1461014f5763f2fde38b146100bd57600080fd5b3461014b57602036600319011261014b576100d6610661565b906100df6108e2565b6001600160a01b03918216928315610135575050600554826bffffffffffffffffffffffff60a01b821617600555167f8be0079c531659141344cd1fd0a4f28419497f9722a3daafe3b4186f6b6457e08380a380f35b51631e4fbdf760e01b8152908101849052602490fd5b8280fd5b5050346101985780600319360112610198578060209261016d610661565b61017561067c565b6001600160a01b0391821683526001865283832091168252845220549051908152f35b5080fd5b5050346101985780600319360112610198576020906101c66101bc610661565b6024359033610765565b5160018152f35b5091903461019857816003193601126101985780519082845460018160011c90600183169283156102e5575b60209384841081146102d2578388529081156102b65750600114610261575b505050829003601f01601f191682019267ffffffffffffffff84118385101761024e575082918261024a925282610618565b0390f35b634e487b7160e01b815260418552602490fd5b8787529192508591837f8a35acfbc15ff81a39ae7d344fd709f28e8600b4aa8c65c6b64bfe7fe36bd19b5b8385106102a25750505050830101388080610218565b80548886018301529301928490820161028c565b60ff1916878501525050151560051b8401019050388080610218565b634e487b7160e01b895260228a52602489fd5b91607f16916101f9565b50503461019857816003193601126101985760055490516001600160a01b039091168152602090f35b5050346101985736600319011261034b57610348610334610661565b60243590610343823383610692565b610843565b80f35b80fd5b833461034b578060031936011261034b576103676108e2565b600580546001600160a01b0319811690915581906001600160a01b03167f8be0079c531659141344cd1fd0a4f28419497f9722a3daafe3b4186f6b6457e08280a380f35b5050346101985760203660031901126101985760209181906001600160a01b036103d3610661565b16815280845220549051908152f35b83823461019857602036600319011261019857610348903533610843565b5050346101985781600319360112610198576020905160128152f35b505034610198576060366003190112610198576020906101c661043d610661565b61044561067c565b60443591610454833383610692565b610765565b5050346101985781600319360112610198576020906002549051908152f35b503461014b578160031936011261014b57610491610661565b60243590331561050a576001600160a01b03169182156104f357508083602095338152600187528181208582528752205582519081527f8c5be1e5ebec7d5bd14f71427d1e84f3dd0314c0f7b2291e5b200ac8c7c3b925843392a35160018152f35b8351634a1406b160e11b8152908101859052602490fd5b835163e602df0560e01b8152808401869052602490fd5b849150833461014b578260031936011261014b578260035460018160011c906001831692831561060e575b60209384841081146102d2578388529081156105f2575060011461059c57505050829003601f01601f191682019267ffffffffffffffff84118385101761024e575082918261024a925282610618565b600387529192508591837fc2575a0e9e593c00f959f8c92f12db2869c3395a3b0502d05e2516446f71f85b5b8385106105de5750505050830101858080610218565b8054888601830152930192849082016105c8565b60ff1916878501525050151560051b8401019050858080610218565b91607f169161054c565b6020808252825181830181905290939260005b82811061064d57505060409293506000838284010152601f8019910116010190565b81810186015184820160400152850161062b565b600435906001600160a01b038216820361067757565b600080fd5b602435906001600160a01b038216820361067757565b9160018060a01b0380931691600093838552600160205260409384862091831691828752602052848620549260001984106106d1575b50505050505050565b8484106107355750801561071d578115610705578552600160205283852090855260205203912055388080808080806106c8565b8451634a1406b160e11b815260048101879052602490fd5b845163e602df0560e01b815260048101879052602490fd5b8551637dc7a0d960e11b81526001600160a01b039190911660048201526024810184905260448101859052606490fd5b916001600160a01b0380841692831561082a571692831561081157600090838252816020526040822054908382106107df575091604082827fddf252ad1be2c89b69c2b068fc378daa952ba7f163c4a11628f55a4df523b3ef958760209652828652038282205586815220818154019055604051908152a3565b60405163391434e360e21b81526001600160a01b03919091166004820152602481019190915260448101839052606490fd5b60405163ec442f0560e01b815260006004820152602490fd5b604051634b637e8f60e11b815260006004820152602490fd5b906001600160a01b03821690811561082a57600092828452836020526040842054908282106108b05750817fddf252ad1be2c89b69c2b068fc378daa952ba7f163c4a11628f55a4df523b3ef926020928587528684520360408620558060025403600255604051908152a3565b60405163391434e360e21b81526001600160a01b03919091166004820152602481019190915260448101829052606490fd5b6005546001600160a01b031633036108f657565b60405163118cdaa760e01b8152336004820152602490fdfea264697066735822122045858794c79c61295eccfc3d98e4813ff285d80575779fb5e1745b67af292a1a64736f6c63430008180033a2646970667358221220a4e874a76376a7da00d4df2513aec69c12ddc195175476210a7d45c496d94df064736f6c63430008180033",
  "linkReferences": {},
  "deployedLinkReferences": {}
}