{
  "_format": "hh-sol-artifact-1",
  "contractName": "PumpFunDEXManager",
  "sourceName": "contracts/PumpFunDEXManager.sol",
  "abi": [
    {
      "inputs": [
        {
          "internalType": "address",
          "name": "_swapRouter",
          "type": "address"
        },
        {
          "internalType": "address",
          "name": "_positionManager",
          "type": "address"
        },
        {
          "internalType": "address",
          "name": "_uniswapV3Factory",
          "type": "address"
        },
        {
          "internalType": "address",
          "name": "_quoterV2",
          "type": "address"
        },
        {
          "internalType": "address",
          "name": "_weth",
          "type": "address"
        }
      ],
      "stateMutability": "nonpayable",
      "type": "constructor"
    },
    {
      "inputs": [
        {
          "internalType": "address",
          "name": "owner",
          "type": "address"
        }
      ],
      "name": "OwnableInvalidOwner",
      "type": "error"
    },
    {
      "inputs": [
        {
          "internalType": "address",
          "name": "account",
          "type": "address"
        }
      ],
      "name": "OwnableUnauthorizedAccount",
      "type": "error"
    },
    {
      "inputs": [],
      "name": "PumpFunDEXManager__DeadlineExpired",
      "type": "error"
    },
    {
      "inputs": [
        {
          "internalType": "uint256",
          "name": "available",
          "type": "uint256"
        },
        {
          "internalType": "uint256",
          "name": "requested",
          "type": "uint256"
        }
      ],
      "name": "PumpFunDEXManager__InsufficientBalance",
      "type": "error"
    },
    {
      "inputs": [],
      "name": "PumpFunDEXManager__InsufficientLiquidity",
      "type": "error"
    },
    {
      "inputs": [],
      "name": "PumpFunDEXManager__InvalidAmount",
      "type": "error"
    },
    {
      "inputs": [],
      "name": "PumpFunDEXManager__InvalidFactoryAddress",
      "type": "error"
    },
    {
      "inputs": [],
      "name": "PumpFunDEXManager__InvalidFeeTier",
      "type": "error"
    },
    {
      "inputs": [],
      "name": "PumpFunDEXManager__InvalidPathLength",
      "type": "error"
    },
    {
      "inputs": [],
      "name": "PumpFunDEXManager__InvalidTokenAddress",
      "type": "error"
    },
    {
      "inputs": [],
      "name": "PumpFunDEXManager__LiquidityLocked",
      "type": "error"
    },
    {
      "inputs": [],
      "name": "PumpFunDEXManager__PairAlreadyExists",
      "type": "error"
    },
    {
      "inputs": [],
      "name": "PumpFunDEXManager__PathFeesLengthMismatch",
      "type": "error"
    },
    {
      "inputs": [],
      "name": "PumpFunDEXManager__PoolDoesNotExist",
      "type": "error"
    },
    {
      "inputs": [
        {
          "internalType": "string",
          "name": "reason",
          "type": "string"
        }
      ],
      "name": "PumpFunDEXManager__QuoterFailed",
      "type": "error"
    },
    {
      "inputs": [],
      "name": "PumpFunDEXManager__SlippageExceeded",
      "type": "error"
    },
    {
      "inputs": [],
      "name": "PumpFunDEXManager__TransferFailed",
      "type": "error"
    },
    {
      "inputs": [],
      "name": "PumpFunDEXManager__UnauthorizedToken",
      "type": "error"
    },
    {
      "inputs": [],
      "name": "ReentrancyGuardReentrantCall",
      "type": "error"
    },
    {
      "anonymous": false,
      "inputs": [
        {
          "indexed": true,
          "internalType": "address",
          "name": "token0",
          "type": "address"
        },
        {
          "indexed": true,
          "internalType": "address",
          "name": "token1",
          "type": "address"
        },
        {
          "indexed": true,
          "internalType": "uint24",
          "name": "fee",
          "type": "uint24"
        },
        {
          "indexed": false,
          "internalType": "uint256",
          "name": "amount0",
          "type": "uint256"
        },
        {
          "indexed": false,
          "internalType": "uint256",
          "name": "amount1",
          "type": "uint256"
        },
        {
          "indexed": false,
          "internalType": "uint256",
          "name": "liquidity",
          "type": "uint256"
        }
      ],
      "name": "LiquidityAdded",
      "type": "event"
    },
    {
      "anonymous": false,
      "inputs": [
        {
          "indexed": true,
          "internalType": "address",
          "name": "token0",
          "type": "address"
        },
        {
          "indexed": true,
          "internalType": "address",
          "name": "token1",
          "type": "address"
        },
        {
          "indexed": true,
          "internalType": "uint24",
          "name": "fee",
          "type": "uint24"
        },
        {
          "indexed": false,
          "internalType": "uint256",
          "name": "amount0",
          "type": "uint256"
        },
        {
          "indexed": false,
          "internalType": "uint256",
          "name": "amount1",
          "type": "uint256"
        },
        {
          "indexed": false,
          "internalType": "uint256",
          "name": "liquidity",
          "type": "uint256"
        }
      ],
      "name": "LiquidityPoolCreated",
      "type": "event"
    },
    {
      "anonymous": false,
      "inputs": [
        {
          "indexed": true,
          "internalType": "address",
          "name": "token0",
          "type": "address"
        },
        {
          "indexed": true,
          "internalType": "address",
          "name": "token1",
          "type": "address"
        },
        {
          "indexed": true,
          "internalType": "uint24",
          "name": "fee",
          "type": "uint24"
        },
        {
          "indexed": false,
          "internalType": "uint256",
          "name": "amount0",
          "type": "uint256"
        },
        {
          "indexed": false,
          "internalType": "uint256",
          "name": "amount1",
          "type": "uint256"
        }
      ],
      "name": "LiquidityRemoved",
      "type": "event"
    },
    {
      "anonymous": false,
      "inputs": [
        {
          "indexed": true,
          "internalType": "address",
          "name": "previousOwner",
          "type": "address"
        },
        {
          "indexed": true,
          "internalType": "address",
          "name": "newOwner",
          "type": "address"
        }
      ],
      "name": "OwnershipTransferred",
      "type": "event"
    },
    {
      "anonymous": false,
      "inputs": [
        {
          "indexed": true,
          "internalType": "address",
          "name": "token",
          "type": "address"
        },
        {
          "indexed": false,
          "internalType": "uint256",
          "name": "price",
          "type": "uint256"
        },
        {
          "indexed": false,
          "internalType": "uint256",
          "name": "timestamp",
          "type": "uint256"
        }
      ],
      "name": "PriceUpdated",
      "type": "event"
    },
    {
      "anonymous": false,
      "inputs": [
        {
          "indexed": true,
          "internalType": "address",
          "name": "user",
          "type": "address"
        },
        {
          "indexed": true,
          "internalType": "address",
          "name": "tokenIn",
          "type": "address"
        },
        {
          "indexed": true,
          "internalType": "address",
          "name": "tokenOut",
          "type": "address"
        },
        {
          "indexed": false,
          "internalType": "uint256",
          "name": "amountIn",
          "type": "uint256"
        },
        {
          "indexed": false,
          "internalType": "uint256",
          "name": "amountOut",
          "type": "uint256"
        }
      ],
      "name": "TokenSwapped",
      "type": "event"
    },
    {
      "stateMutability": "payable",
      "type": "fallback"
    },
    {
      "inputs": [],
      "name": "PRICE_UPDATE_INTERVAL",
      "outputs": [
        {
          "internalType": "uint256",
          "name": "",
          "type": "uint256"
        }
      ],
      "stateMutability": "view",
      "type": "function"
    },
    {
      "inputs": [],
      "name": "SLIPPAGE_TOLERANCE",
      "outputs": [
        {
          "internalType": "uint256",
          "name": "",
          "type": "uint256"
        }
      ],
      "stateMutability": "view",
      "type": "function"
    },
    {
      "inputs": [],
      "name": "WETH",
      "outputs": [
        {
          "internalType": "address",
          "name": "",
          "type": "address"
        }
      ],
      "stateMutability": "view",
      "type": "function"
    },
    {
      "inputs": [
        {
          "internalType": "address",
          "name": "token0",
          "type": "address"
        },
        {
          "internalType": "address",
          "name": "token1",
          "type": "address"
        },
        {
          "internalType": "uint24",
          "name": "fee",
          "type": "uint24"
        },
        {
          "internalType": "uint256",
          "name": "tokenAmount0",
          "type": "uint256"
        },
        {
          "internalType": "uint256",
          "name": "tokenAmount1",
          "type": "uint256"
        }
      ],
      "name": "addLiquidity",
      "outputs": [],
      "stateMutability": "payable",
      "type": "function"
    },
    {
      "inputs": [
        {
          "internalType": "address",
          "name": "token",
          "type": "address"
        }
      ],
      "name": "authorizeToken",
      "outputs": [],
      "stateMutability": "nonpayable",
      "type": "function"
    },
    {
      "inputs": [
        {
          "internalType": "address",
          "name": "token",
          "type": "address"
        }
      ],
      "name": "authorizeTokenFromFactory",
      "outputs": [],
      "stateMutability": "nonpayable",
      "type": "function"
    },
    {
      "inputs": [
        {
          "internalType": "address",
          "name": "",
          "type": "address"
        }
      ],
      "name": "authorizedTokens",
      "outputs": [
        {
          "internalType": "bool",
          "name": "",
          "type": "bool"
        }
      ],
      "stateMutability": "view",
      "type": "function"
    },
    {
      "inputs": [
        {
          "internalType": "address",
          "name": "tokenA",
          "type": "address"
        },
        {
          "internalType": "address",
          "name": "tokenB",
          "type": "address"
        },
        {
          "internalType": "uint24",
          "name": "fee",
          "type": "uint24"
        },
        {
          "internalType": "uint256",
          "name": "amountA",
          "type": "uint256"
        },
        {
          "internalType": "uint256",
          "name": "amountB",
          "type": "uint256"
        }
      ],
      "name": "createLiquidityPool",
      "outputs": [],
      "stateMutability": "nonpayable",
      "type": "function"
    },
    {
      "inputs": [
        {
          "internalType": "address",
          "name": "token",
          "type": "address"
        },
        {
          "internalType": "uint24",
          "name": "fee",
          "type": "uint24"
        },
        {
          "internalType": "uint256",
          "name": "tokenAmount",
          "type": "uint256"
        }
      ],
      "name": "createLiquidityPoolWithETH",
      "outputs": [],
      "stateMutability": "payable",
      "type": "function"
    },
    {
      "inputs": [],
      "name": "factory",
      "outputs": [
        {
          "internalType": "address",
          "name": "",
          "type": "address"
        }
      ],
      "stateMutability": "view",
      "type": "function"
    },
    {
      "inputs": [
        {
          "internalType": "uint256",
          "name": "amountIn",
          "type": "uint256"
        },
        {
          "internalType": "address[]",
          "name": "path",
          "type": "address[]"
        },
        {
          "internalType": "uint24[]",
          "name": "fees",
          "type": "uint24[]"
        }
      ],
      "name": "getAmountsOutMultiHop",
      "outputs": [
        {
          "internalType": "uint256[]",
          "name": "amounts",
          "type": "uint256[]"
        }
      ],
      "stateMutability": "nonpayable",
      "type": "function"
    },
    {
      "inputs": [
        {
          "internalType": "address",
          "name": "tokenIn",
          "type": "address"
        },
        {
          "internalType": "address",
          "name": "tokenOut",
          "type": "address"
        },
        {
          "internalType": "uint24",
          "name": "fee",
          "type": "uint24"
        },
        {
          "internalType": "uint256",
          "name": "amountIn",
          "type": "uint256"
        }
      ],
      "name": "getAmountsOutSingleHop",
      "outputs": [
        {
          "internalType": "uint256",
          "name": "amountOut",
          "type": "uint256"
        }
      ],
      "stateMutability": "nonpayable",
      "type": "function"
    },
    {
      "inputs": [
        {
          "internalType": "address",
          "name": "token0",
          "type": "address"
        },
        {
          "internalType": "address",
          "name": "token1",
          "type": "address"
        },
        {
          "internalType": "uint24",
          "name": "fee",
          "type": "uint24"
        }
      ],
      "name": "getDetailedPoolInfo",
      "outputs": [
        {
          "internalType": "uint256",
          "name": "tokenId",
          "type": "uint256"
        },
        {
          "internalType": "uint256",
          "name": "liquidity",
          "type": "uint256"
        },
        {
          "internalType": "uint256",
          "name": "amount0",
          "type": "uint256"
        },
        {
          "internalType": "uint256",
          "name": "amount1",
          "type": "uint256"
        },
        {
          "internalType": "uint256",
          "name": "lockExpiry",
          "type": "uint256"
        },
        {
          "internalType": "bool",
          "name": "isActive",
          "type": "bool"
        },
        {
          "internalType": "uint256",
          "name": "createdAt",
          "type": "uint256"
        }
      ],
      "stateMutability": "view",
      "type": "function"
    },
    {
      "inputs": [
        {
          "internalType": "address",
          "name": "token0",
          "type": "address"
        },
        {
          "internalType": "address",
          "name": "token1",
          "type": "address"
        },
        {
          "internalType": "uint24",
          "name": "fee",
          "type": "uint24"
        }
      ],
      "name": "getPoolAddress",
      "outputs": [
        {
          "internalType": "address",
          "name": "",
          "type": "address"
        }
      ],
      "stateMutability": "view",
      "type": "function"
    },
    {
      "inputs": [
        {
          "internalType": "address",
          "name": "token0",
          "type": "address"
        },
        {
          "internalType": "address",
          "name": "token1",
          "type": "address"
        },
        {
          "internalType": "uint24",
          "name": "fee",
          "type": "uint24"
        }
      ],
      "name": "getPoolInfo",
      "outputs": [
        {
          "internalType": "uint256",
          "name": "tokenId",
          "type": "uint256"
        },
        {
          "internalType": "uint256",
          "name": "liquidity",
          "type": "uint256"
        },
        {
          "internalType": "uint256",
          "name": "lockExpiry",
          "type": "uint256"
        },
        {
          "internalType": "bool",
          "name": "isActive",
          "type": "bool"
        },
        {
          "internalType": "uint256",
          "name": "createdAt",
          "type": "uint256"
        }
      ],
      "stateMutability": "view",
      "type": "function"
    },
    {
      "inputs": [
        {
          "internalType": "address",
          "name": "token",
          "type": "address"
        }
      ],
      "name": "getTokenPrice",
      "outputs": [
        {
          "internalType": "uint256",
          "name": "price",
          "type": "uint256"
        },
        {
          "internalType": "uint256",
          "name": "lastUpdated",
          "type": "uint256"
        }
      ],
      "stateMutability": "view",
      "type": "function"
    },
    {
      "inputs": [
        {
          "internalType": "address",
          "name": "token",
          "type": "address"
        }
      ],
      "name": "getTokenStats",
      "outputs": [
        {
          "internalType": "uint256",
          "name": "price",
          "type": "uint256"
        },
        {
          "internalType": "uint256",
          "name": "marketCap",
          "type": "uint256"
        },
        {
          "internalType": "uint256",
          "name": "volume24h",
          "type": "uint256"
        },
        {
          "internalType": "uint256",
          "name": "liquidity",
          "type": "uint256"
        },
        {
          "internalType": "bool",
          "name": "isActive",
          "type": "bool"
        }
      ],
      "stateMutability": "view",
      "type": "function"
    },
    {
      "inputs": [],
      "name": "owner",
      "outputs": [
        {
          "internalType": "address",
          "name": "",
          "type": "address"
        }
      ],
      "stateMutability": "view",
      "type": "function"
    },
    {
      "inputs": [],
      "name": "positionManager",
      "outputs": [
        {
          "internalType": "contract INonfungiblePositionManager",
          "name": "",
          "type": "address"
        }
      ],
      "stateMutability": "view",
      "type": "function"
    },
    {
      "inputs": [],
      "name": "quoterV2",
      "outputs": [
        {
          "internalType": "contract IQuoterV2",
          "name": "",
          "type": "address"
        }
      ],
      "stateMutability": "view",
      "type": "function"
    },
    {
      "inputs": [],
      "name": "renounceOwnership",
      "outputs": [],
      "stateMutability": "nonpayable",
      "type": "function"
    },
    {
      "inputs": [
        {
          "internalType": "address",
          "name": "_factory",
          "type": "address"
        }
      ],
      "name": "setFactory",
      "outputs": [],
      "stateMutability": "nonpayable",
      "type": "function"
    },
    {
      "inputs": [
        {
          "internalType": "address",
          "name": "tokenOut",
          "type": "address"
        },
        {
          "internalType": "uint24",
          "name": "fee",
          "type": "uint24"
        }
      ],
      "name": "swapExactETHForTokens",
      "outputs": [],
      "stateMutability": "payable",
      "type": "function"
    },
    {
      "inputs": [
        {
          "internalType": "address",
          "name": "tokenOut",
          "type": "address"
        },
        {
          "internalType": "uint24",
          "name": "fee",
          "type": "uint24"
        },
        {
          "internalType": "uint256",
          "name": "slippageTolerance",
          "type": "uint256"
        }
      ],
      "name": "swapExactETHForTokensWithSlippage",
      "outputs": [],
      "stateMutability": "payable",
      "type": "function"
    },
    {
      "inputs": [
        {
          "internalType": "address",
          "name": "tokenIn",
          "type": "address"
        },
        {
          "internalType": "uint24",
          "name": "fee",
          "type": "uint24"
        },
        {
          "internalType": "uint256",
          "name": "amountIn",
          "type": "uint256"
        }
      ],
      "name": "swapExactTokensForETH",
      "outputs": [],
      "stateMutability": "nonpayable",
      "type": "function"
    },
    {
      "inputs": [
        {
          "internalType": "address",
          "name": "tokenIn",
          "type": "address"
        },
        {
          "internalType": "uint24",
          "name": "fee",
          "type": "uint24"
        },
        {
          "internalType": "uint256",
          "name": "amountIn",
          "type": "uint256"
        },
        {
          "internalType": "uint256",
          "name": "slippageTolerance",
          "type": "uint256"
        }
      ],
      "name": "swapExactTokensForETHWithSlippage",
      "outputs": [],
      "stateMutability": "nonpayable",
      "type": "function"
    },
    {
      "inputs": [],
      "name": "swapRouter",
      "outputs": [
        {
          "internalType": "contract ISwapRouter",
          "name": "",
          "type": "address"
        }
      ],
      "stateMutability": "view",
      "type": "function"
    },
    {
      "inputs": [
        {
          "internalType": "address",
          "name": "tokenIn",
          "type": "address"
        },
        {
          "internalType": "address",
          "name": "tokenOut",
          "type": "address"
        },
        {
          "internalType": "uint24",
          "name": "fee",
          "type": "uint24"
        },
        {
          "internalType": "uint256",
          "name": "amountIn",
          "type": "uint256"
        },
        {
          "internalType": "uint160",
          "name": "sqrtPriceLimitX96",
          "type": "uint160"
        }
      ],
      "name": "testQuoteExactInputSingle",
      "outputs": [
        {
          "internalType": "uint256",
          "name": "amountOut",
          "type": "uint256"
        }
      ],
      "stateMutability": "nonpayable",
      "type": "function"
    },
    {
      "inputs": [
        {
          "internalType": "address",
          "name": "",
          "type": "address"
        },
        {
          "internalType": "address",
          "name": "",
          "type": "address"
        },
        {
          "internalType": "uint24",
          "name": "",
          "type": "uint24"
        }
      ],
      "name": "tokenPools",
      "outputs": [
        {
          "internalType": "uint256",
          "name": "tokenId",
          "type": "uint256"
        },
        {
          "internalType": "uint256",
          "name": "liquidity",
          "type": "uint256"
        },
        {
          "internalType": "uint256",
          "name": "lockExpiry",
          "type": "uint256"
        },
        {
          "internalType": "bool",
          "name": "isActive",
          "type": "bool"
        },
        {
          "internalType": "uint256",
          "name": "createdAt",
          "type": "uint256"
        }
      ],
      "stateMutability": "view",
      "type": "function"
    },
    {
      "inputs": [
        {
          "internalType": "address",
          "name": "",
          "type": "address"
        }
      ],
      "name": "tokenPrices",
      "outputs": [
        {
          "internalType": "uint256",
          "name": "price",
          "type": "uint256"
        },
        {
          "internalType": "uint256",
          "name": "lastUpdated",
          "type": "uint256"
        },
        {
          "internalType": "uint256",
          "name": "volume24h",
          "type": "uint256"
        },
        {
          "internalType": "uint256",
          "name": "marketCap",
          "type": "uint256"
        }
      ],
      "stateMutability": "view",
      "type": "function"
    },
    {
      "inputs": [
        {
          "internalType": "address",
          "name": "newOwner",
          "type": "address"
        }
      ],
      "name": "transferOwnership",
      "outputs": [],
      "stateMutability": "nonpayable",
      "type": "function"
    },
    {
      "inputs": [],
      "name": "uniswapV3Factory",
      "outputs": [
        {
          "internalType": "contract IUniswapV3Factory",
          "name": "",
          "type": "address"
        }
      ],
      "stateMutability": "view",
      "type": "function"
    },
    {
      "inputs": [],
      "name": "withdrawETH",
      "outputs": [],
      "stateMutability": "nonpayable",
      "type": "function"
    },
    {
      "inputs": [
        {
          "internalType": "address",
          "name": "token",
          "type": "address"
        },
        {
          "internalType": "uint256",
          "name": "amount",
          "type": "uint256"
        }
      ],
      "name": "withdrawToken",
      "outputs": [],
      "stateMutability": "nonpayable",
      "type": "function"
    },
    {
      "stateMutability": "payable",
      "type": "receive"
    }
  ],
  "bytecode": "0x61012034620002d057601f6200472438819003918201601f19168301916001600160401b03831184841017620002d55780849260a094604052833981010312620002d0576200004e81620002eb565b6200005c60208301620002eb565b916200006b60408201620002eb565b6200008760806200007f60608501620002eb565b9301620002eb565b933315620002b75760008054336001600160a01b03198216811783556040516001600160a01b0397909388939192918416907f8be0079c531659141344cd1fd0a4f28419497f9722a3daafe3b4186f6b6457e09080a360018055169081158015620002ac575b8015620002a1575b801562000296575b80156200028b575b6200027c5750608052831660a052821660c0521660e05261010090815260405161442391826200030183396080518281816105e70152818161123c01528181611af80152818161251301526128e5015260a0518281816109fa01528181611ecc015281816136a201528181613cd301528181613d390152613f70015260c051828181610c0801528181610cfc0152818161103b0152818161191301528181612cfe0152818161307a015281816133c4015281816139470152613c63015260e0518281816104320152818161118b01528181611997015281816124510152818161286201528181612d890152818161313f015261344b0152518181816101d80152818161062c01528181610fc301528181610ff80152818161112a015281816112d9015281816113530152818161139e0152818161140401528181611775015281816118b301528181611e1f015281816123df015281816127f0015281816132c4015281816135570152818161358501526138de0152f35b6389be0fdb60e01b8152600490fd5b508587161562000105565b5085851615620000fd565b5085841615620000f5565b5085831615620000ed565b604051631e4fbdf760e01b815260006004820152602490fd5b600080fd5b634e487b7160e01b600052604160045260246000fd5b51906001600160a01b0382168203620002d05756fe60806040526004361015610018575b361561001657005b005b6000803560e01c80630277694a146127a557806309842ab4146123995780630ad2338214611d985780630b99512b14611d5f57806317085dfb1461184d578063204120bc146117f15780632a21b75e14610f3a57806330a52c3714610e9257806344a9892d14610e385780634a277c6214610d485780634c20378614610d2b5780635b54918214610ce65780635bb4780814610c9f578063696d628314610b9557806371140a0214610b31578063715018a614610ad75780637754167814610a29578063791b98bc146109e45780638da5cb5b146109bd578063917f3e5f146107ab57806398e9cb12146107815780639b5eb511146107375780639bc7c586146106f85780639e281a981461065b578063ad5c464814610616578063c31c9c07146105d1578063c45a0155146105a8578063ca88d5c514610525578063d02641a0146104b9578063e086e5ec14610461578063e20dccb21461041c578063ee937e82146103ff578063f2fde38b146103715763f7f291851461019a575061000e565b6101a3366129b2565b6101ae929192613838565b60018060a01b03908183169384865260206005815260ff6040882054161561035f57821561034e577f000000000000000000000000000000000000000000000000000000000000000093808516908188109081156103475787915b1561033f578087925b168a526003845260408a2091166000528252604060002062ffffff8416600052825260ff6003604060002001541661032d578088913b15610329578160049160405192838092630d0e30db60e41b825234905af1801561031e57610306575b50506040516323b872dd60e01b815233600482015230602482015260448101849052958190879060649082908b905af180156102fb576102c1575b506102ba9450349284613c24565b6001805580f35b85813d83116102f4575b6102d58183612acb565b810103126102f0576102e96102ba95612bde565b50386102ac565b8580fd5b503d6102cb565b6040513d89823e3d90fd5b61030f90612a7e565b61031a578638610271565b8680fd5b6040513d84823e3d90fd5b5080fd5b60405163329e1cc760e01b8152600490fd5b808892610212565b8691610209565b60405162716da360e31b8152600490fd5b604051631934ad6160e01b8152600490fd5b50346103fc5760203660031901126103fc5761038b612962565b610393613baa565b6001600160a01b039081169081156103e357600054826001600160601b0360a01b821617600055167f8be0079c531659141344cd1fd0a4f28419497f9722a3daafe3b4186f6b6457e0600080a380f35b604051631e4fbdf760e01b815260048101849052602490fd5b80fd5b50346103fc57806003193601126103fc57602060405161012c8152f35b50346103fc57806003193601126103fc576040517f00000000000000000000000000000000000000000000000000000000000000006001600160a01b03168152602090f35b50346103fc57806003193601126103fc5761047a613baa565b47801561034e57815482918291829182916001600160a01b03165af161049e612ec0565b50156104a75780f35b6040516301946bed60e31b8152600490fd5b50346103fc5760203660031901126103fc5760409081906001600160a01b036104e0612962565b1681526004602052208151906104f582612aaf565b80549182815260606003600184015493846020850152600281015487850152015491015282519182526020820152f35b50346103fc5760203660031901126103fc5760a0906001600160a01b0361054a612962565b168152600460205260408120906040519161056483612aaf565b606081549384815260018301546020820152600360028401549384604084015201549182910152604051938452602084015260408301528060608301526080820152f35b50346103fc57806003193601126103fc576002546040516001600160a01b039091168152602090f35b50346103fc57806003193601126103fc576040517f00000000000000000000000000000000000000000000000000000000000000006001600160a01b03168152602090f35b50346103fc57806003193601126103fc576040517f00000000000000000000000000000000000000000000000000000000000000006001600160a01b03168152602090f35b50346103fc5760403660031901126103fc57610675612962565b61067d613baa565b815460405163a9059cbb60e01b81526001600160a01b039182166004820152602480359082015291602091839160449183918791165af1801561031e576106c2575080f35b6020813d6020116106f0575b816106db60209383612acb565b81010312610329576106ec90612bde565b5080f35b3d91506106ce565b50346103fc5760203660031901126103fc5760209060ff906040906001600160a01b03610723612962565b168152600584522054166040519015158152f35b50346103fc5760203660031901126103fc57610751612962565b6002546001600160a01b0316330361076f5761076c9061380f565b80f35b6040516301c9d96560e31b8152600490fd5b50346103fc5760203660031901126103fc5761076c61079e612962565b6107a6613baa565b61380f565b50346103fc576107ba366129e8565b916107c6949394613838565b6001600160a01b038481169590861580156109b3575b6109a1578688526020906005825260ff60408a205416158061098d575b61035f5784158015610985575b61034e578281169081891090811561097e5788915b15610976578085925b168b526003845260408b2091166000528252604060002062ffffff8516600052825260ff6003604060002001541661032d576040516323b872dd60e01b8082523360048301523060248301526044820187905283826064818e8e5af191821561096b578492610932575b506040519081523360048201523060248201526044810188905291829060649082908d905af18015610927576108e6575b506005906102ba9789525260ff6040882054166000146108df5784613c24565b8094613c24565b908082813d8311610920575b6108fc8183612acb565b8101031261091c576102ba97610913600593612bde565b509750906108bf565b8880fd5b503d6108f2565b6040513d8b823e3d90fd5b9182813d8311610964575b6109478183612acb565b81010312610960576109598492612bde565b503861088e565b8a80fd5b503d61093d565b6040513d8d823e3d90fd5b808992610824565b849161081b565b508515610806565b50808316895260ff60408a205416156107f9565b6040516389be0fdb60e01b8152600490fd5b50808216156107dc565b50346103fc57806003193601126103fc57546040516001600160a01b039091168152602090f35b50346103fc57806003193601126103fc576040517f00000000000000000000000000000000000000000000000000000000000000006001600160a01b03168152602090f35b50346103fc5760603660031901126103fc57610a43612962565b610a4b612978565b906040610a566129a0565b9360018060a01b038093168152600360205220911660005260205262ffffff6040600020911660005260205260406000208054610ad3600183015492600281015490600460ff60038301541691015491604051958695869192608093969594919660a0840197845260208401526040830152151560608201520152565b0390f35b50346103fc57806003193601126103fc57610af0613baa565b600080546001600160a01b0319811682556001600160a01b03167f8be0079c531659141344cd1fd0a4f28419497f9722a3daafe3b4186f6b6457e08280a380f35b50346103fc5760603660031901126103fc5760e0610b66610b50612962565b610b58612978565b610b606129a0565b916135d8565b946040949194939293519687526020870152604086015260608501526080840152151560a083015260c0820152f35b50346103fc5760603660031901126103fc57610baf612962565b90610bb8612978565b6020610bc26129a0565b936001600160a01b039280841684831610918215610c985780925b15610c905750905b610c036040519687938493630b4c774160e11b855260048501612c73565b0381847f0000000000000000000000000000000000000000000000000000000000000000165afa918215610c84578092610c45575b6020838360405191168152f35b9091506020833d602011610c7c575b81610c6160209383612acb565b810103126103fc5750610c75602092612aed565b9038610c38565b3d9150610c54565b604051903d90823e3d90fd5b905090610be5565b8192610bdd565b50346103fc5760203660031901126103fc57610cb9612962565b610cc1613baa565b6001600160a01b0316801561076f576001600160601b0360a01b600254161760025580f35b50346103fc57806003193601126103fc576040517f00000000000000000000000000000000000000000000000000000000000000006001600160a01b03168152602090f35b50346103fc57806003193601126103fc5760206040516101f48152f35b50346103fc5760603660031901126103fc57610d62612962565b610d6a612978565b6040610d746129a0565b936001600160a01b038381168582161094909384918615610e315780965b15610e295750945b168152600360205220911660005260205262ffffff60406000209116600052602052604060002060405190610dce82612a62565b80548083526001820154602080850182905260028401546040808701829052600386015460ff16151560608089018290526004909701546080988901819052825196875293860194909452840152928201529182015260a090f35b905094610d9a565b8196610d92565b50346103fc5760a03660031901126103fc57610e52612962565b610e5a612978565b610e626129a0565b608435939091906001600160a01b03851685036103fc576020610e8a86606435868689613312565b604051908152f35b50346103fc5760603660031901126103fc5767ffffffffffffffff602435818111610f3657610ec5903690600401612a31565b90604435928311610f3257610ee1610eec933690600401612a31565b929091600435612f76565b906040519182916020808401906020855283518092526020604086019401925b828110610f1b57505050500390f35b835185528695509381019392810192600101610f0c565b8380fd5b8280fd5b50346103fc5760803660031901126103fc57610f54612962565b610f5c61298e565b606435610f67613838565b6001600160a01b03831684526005602052604084205460ff161561035f576044351561034e5761138881116117df57606462ffffff83161415806117ce575b806117bd575b806117ac575b61179a578160206001600160a01b037f000000000000000000000000000000000000000000000000000000000000000081169086161080156117735785905b1561176c577f0000000000000000000000000000000000000000000000000000000000000000905b6110376040519485938493630b4c774160e11b855260048501612c73565b03817f00000000000000000000000000000000000000000000000000000000000000006001600160a01b03165afa908115611761578591611723575b506001600160a01b031615611711576040516370a0823160e01b81523360048201526024929060208185816001600160a01b0389165afa9081156115345786916116df575b5060443581106116bf5750604051636eb1769f60e11b80825233600483015230602483015292906020816044816001600160a01b038a165afa9081156102fb57879161168d575b50604435811061166d5750611186608060405161111b81612a62565b6001600160a01b0388811682527f000000000000000000000000000000000000000000000000000000000000000016602082015260443560408083019190915262ffffff861660608301528282018a905251636352813560e11b815292839182919060048301612b38565b03818a7f00000000000000000000000000000000000000000000000000000000000000006001600160a01b03165af1879181611639575b50611634575060443560011b6044358104600203611621575b61271091820391821161162157906111ed91612bab565b506040516323b872dd60e01b81523360048201523060248201526044803590820152602081606481896001600160a01b038a165af18015611534576115e8575b506040519182523060048301527f00000000000000000000000000000000000000000000000000000000000000006001600160a01b03166024830181905291602081806044810103816001600160a01b0389165afa9081156115345786916115b6575b5060443581106114b7575b5061038442018042116114a45761133e86949293859460209362ffffff604051926112c584612a92565b60018060a01b038b16845260018060a01b037f00000000000000000000000000000000000000000000000000000000000000001687850152166040830152306060830152608082015260443560a08201528560c08201528560e082015260405196878094819363414bf38960e01b835260048301612bf8565b03925af192831561031e578293611468575b507f00000000000000000000000000000000000000000000000000000000000000006001600160a01b03163b1561032957604051632e1a7d4d60e01b815260048101849052908290829081837f00000000000000000000000000000000000000000000000000000000000000006001600160a01b03165af1801561031e57611454575b5080808084335af16113e3612ec0565b50156104a75760408051604435815260208101929092526001600160a01b037f0000000000000000000000000000000000000000000000000000000000000000811693169133917fd36cc53ba71bc76a3db3364981f5296dd4ca5eba0e8c89874f2170515bd20d2491a46001805580f35b61145d90612a7e565b610f365782386113d3565b915091506020813d60201161149c575b8161148560209383612acb565b81010312611497578390519138611350565b600080fd5b3d9150611478565b634e487b7160e01b865260116004528386fd5b61153f575b60405163095ea7b360e01b81526001600160a01b03838116600483015260448035602484015260209183919082908a908a165af18015611534571561129b576020813d60201161152c575b8161151460209383612acb565b810103126102f05761152590612bde565b503861129b565b3d9150611507565b6040513d88823e3d90fd5b60405163095ea7b360e01b815260048101839052838101869052602081604481896001600160a01b038a165af180156115345761157d575b506114bc565b6020813d6020116115ae575b8161159660209383612acb565b810103126102f0576115a790612bde565b5038611577565b3d9150611589565b90506020813d6020116115e0575b816115d160209383612acb565b81010312611497575138611290565b3d91506115c4565b6020813d602011611619575b8161160160209383612acb565b810103126102f05761161290612bde565b503861122d565b3d91506115f4565b634e487b7160e01b875260116004528487fd5b6111d6565b61165c91925060803d608011611666575b6116548183612acb565b810190612b01565b50505090386111bd565b503d61164a565b604051631555006160e11b81526004810191909152604480358287015290fd5b90506020813d6020116116b7575b816116a860209383612acb565b810103126114975751386110ff565b3d915061169b565b604051631555006160e11b81526004810191909152604480358286015290fd5b90506020813d602011611709575b816116fa60209383612acb565b810103126114975751386110b8565b3d91506116ed565b60405163899c886160e01b8152600490fd5b90506020813d602011611759575b8161173e60209383612acb565b810103126117555761174f90612aed565b38611073565b8480fd5b3d9150611731565b6040513d87823e3d90fd5b8590611019565b7f000000000000000000000000000000000000000000000000000000000000000090610ff1565b6040516342a83cdd60e01b8152600490fd5b5061271062ffffff83161415610fb2565b50610bb862ffffff83161415610fac565b506101f462ffffff83161415610fa6565b6040516312000fe360e11b8152600490fd5b50346103fc5760203660031901126103fc576080906040906001600160a01b03611819612962565b1681526004602052208054906001810154906003600282015491015491604051938452602084015260408301526060820152f35b50611857366129b2565b90611863939293613838565b60018060a01b0393848116928385526020956005875260ff6040872054161561035f5761138882116117df5762ffffff841691606483141580611d53575b80611d47575b80611d3b575b61179a577f00000000000000000000000000000000000000000000000000000000000000009488838716968888109081600014611d345780915b15611d2e575086905b61190e6040519485938493630b4c774160e11b855260048501612c73565b0381867f0000000000000000000000000000000000000000000000000000000000000000165afa908115611c9f579083918991611cf6575b50161561171157611991608060405161195e81612a62565b878152888b820152346040820152856060820152898282015260405180938192636352813560e11b835260048301612b38565b03818b877f0000000000000000000000000000000000000000000000000000000000000000165af1889181611cd2575b50611aa05788888060033d11611a90575b6308c379a014611a23575b604051639f9516d160e01b815260048101839052601960248201527f556e6b6e6f776e206572726f7220696e2051756f7465725632000000000000006044820152606490fd5b611a2b612e51565b9081611a3757506119dd565b604051928391639f9516d160e01b8352816004840152835191826024850152815b838110611a7957505060448094508284010152601f80199101168101030190fd5b808601820151878201604401528694508101611a58565b50600481803e805160e01c6119d2565b9794959697612710918203918211611cbe5790611abc91612bab565b50843b1561031a57604051630d0e30db60e41b815287908181600481348b5af1801561031e57611caa575b505060405163095ea7b360e01b81527f0000000000000000000000000000000000000000000000000000000000000000919091166001600160a01b03811660048301523460248301529190848180604481015b03818b8a5af18015611c9f57611c67575b5061012c4201804211611c53578793928592611bb49260405191611b6e83612a92565b8983528a86840152604083015233606083015260808201523460a08201528560c08201528560e082015260405195868094819363414bf38960e01b835260048301612bf8565b03925af1918215611534578692611c22575b50611bd0906138cf565b8385526004825260026040862001611be9348254612beb565b9055604051913483528201527fd36cc53ba71bc76a3db3364981f5296dd4ca5eba0e8c89874f2170515bd20d2460403392a46001805580f35b9091508281813d8311611c4c575b611c3a8183612acb565b81010312611497575190611bd0611bc6565b503d611c30565b634e487b7160e01b88526011600452602488fd5b8481813d8311611c98575b611c7c8183612acb565b81010312611c9457611c8d90612bde565b5038611b4b565b8780fd5b503d611c72565b6040513d8a823e3d90fd5b611cb390612a7e565b61031a578638611ae7565b634e487b7160e01b89526011600452602489fd5b611cec91925060803d608011611666576116548183612acb565b50505090386119c1565b8092508a8092503d8311611d27575b611d0f8183612acb565b81010312611c9457611d218391612aed565b38611946565b503d611d05565b906118f0565b87916118e7565b506127108314156118ad565b50610bb88314156118a7565b506101f48314156118a1565b50346103fc5760803660031901126103fc576020610e8a611d7e612962565b611d86612978565b611d8e6129a0565b9060643592612c99565b50611da2366129e8565b9193611dac613838565b6001600160a01b038481169482821694868610948515612392578385935b871561238a57935b1692838b52602094600386528060408d2092169182600052865262ffffff60406000209b169a8b600052865260ff60036040600020015416156117115782158015612382575b61034e57807f000000000000000000000000000000000000000000000000000000000000000016808a1480612379575b156122005783340361034e57808d913b15610329578160049160405192838092630d0e30db60e41b825234905af1801561031e576121e8575b506040516323b872dd60e01b815233600482015230602482015260448101869052908790829060649082908f5af18015612169576121b4575b505b60405163095ea7b360e01b8082527f0000000000000000000000000000000000000000000000000000000000000000929092166001600160a01b03811660048301526024820185905295918d919088828d8186816044810103925af19182156121a9578992612174575b506040519081526001600160a01b03881660048201526024810187905291829060449082908f5af1801561216957612131575b508b526003855260408b20906000528452604060002089600052845260406000209560001461212b5790945b5461012c420192834211612117576040519060c082019082821067ffffffffffffffff8311176121015760609560c4948e93604052845287840195865260408401998a52868401838152608085019084825260a086019283526040519b8c98899763219f5d1760e01b89525160048901525160248801525160448701525160648601525160848501525160a48401525af19182156102fb5787938892899461208a575b50507f66f68636a37c16d9b851b4467d85bfdc07b98135fc5f50b62510198bd458946893612058612080926138cf565b604051938493849160409194936001600160801b039160608501968552602085015216910152565b0390a46001805580f35b9250935091506060833d6060116120f9575b816120a960609383612acb565b8101031261031a576120808361205860406120e47f66f68636a37c16d9b851b4467d85bfdc07b98135fc5f50b62510198bd458946897612c5f565b94830151920151939193949250819550612028565b3d915061209c565b634e487b7160e01b600052604160045260246000fd5b634e487b7160e01b8b52601160045260248bfd5b94611f85565b8681813d8311612162575b6121468183612acb565b8101031261215e5761215790612bde565b5038611f59565b8c80fd5b503d61213c565b6040513d8f823e3d90fd5b9182813d83116121a2575b6121898183612acb565b81010312610f365761219b8992612bde565b5038611f26565b503d61217f565b6040513d85823e3d90fd5b8681813d83116121e1575b6121c98183612acb565b8101031261215e576121da90612bde565b5038611eba565b503d6121bf565b6121f190612a7e565b6121fc578b38611e81565b8b80fd5b808b1480612370575b156122cf5784340361034e57808d913b15610329578160049160405192838092630d0e30db60e41b825234905af1801561031e576122bb575b506040516323b872dd60e01b81523360048201523060248201526044810185905290879082908c90829081606481015b03925af1801561216957612287575b50611ebc565b8681813d83116122b4575b61229c8183612acb565b8101031261215e576122ad90612bde565b5038612281565b503d612292565b6122c490612a7e565b6121fc578b38612242565b506040516323b872dd60e01b808252336004830152306024830152604482018590528d919088828d8186816064810103925af19182156121a957899261233b575b50604051908152336004820152306024820152604481018790529182908d9082908160648101612272565b9182813d8311612369575b6123508183612acb565b81010312610f36576123628992612bde565b5038612310565b503d612346565b50341515612209565b50341515611e48565b508315611e18565b508593611dd2565b8383611dca565b50346103fc576123a8366129b2565b6123b3929192613838565b60018060a01b0392838316928386526020916005835260ff6040882054161561035f57831561034e57857f0000000000000000000000000000000000000000000000000000000000000000169561244b608062ffffff6040519461241686612a62565b8986528a8887015288604087015216938460608201528a8282015260405180938192636352813560e11b835260048301612b38565b03818c867f0000000000000000000000000000000000000000000000000000000000000000165af1899181612781575b506124925760405163507864b360e11b8152600490fd5b61249b90612b7e565b506040516370a0823160e01b8082523360048301529085816024818b5afa80156127765787918b91612745575b50106126d257506040516323b872dd60e01b81523360048201523060248201526044810186905284816064818c8b5af180156109275761269e575b5060405163095ea7b360e01b81527f0000000000000000000000000000000000000000000000000000000000000000919091166001600160a01b038116600483015260248201869052919084816044818c8b5af180156109275761266a575b5061012c4201804211611cbe578493928995926125cc926040519161258683612a92565b8a83528b86840152604083015233606083015260808201528760a08201528660c08201528660e082015260405196878094819363414bf38960e01b835260048301612bf8565b03925af19283156102fb578793612639575b506125e8906138cf565b8386526004815260026040872001612601838254612beb565b90556040519283528201527fd36cc53ba71bc76a3db3364981f5296dd4ca5eba0e8c89874f2170515bd20d2460403392a46001805580f35b9092508181813d8311612663575b6126518183612acb565b810103126114975751916125e86125de565b503d612647565b8481813d8311612697575b61267f8183612acb565b8101031261091c5761269090612bde565b5038612562565b503d612675565b8481813d83116126cb575b6126b38183612acb565b8101031261091c576126c490612bde565b5038612503565b503d6126a9565b60405190815233600482015288868680846024818d5afa928315610c845792612714575b6044838360405191631555006160e11b835260048301526024820152fd5b90915082813d831161273e575b61272b8183612acb565b81010312611497576044915190836126f6565b503d612721565b809250878092503d831161276f575b61275e8183612acb565b8101031261149757869051386124c8565b503d612754565b6040513d8c823e3d90fd5b61279b91925060803d608011611666576116548183612acb565b505050903861247b565b5060403660031901126103fc576127ba612962565b6127c261298e565b6127ca613838565b60018060a01b0390818316928385526020916005835260ff6040872054161561035f57837f0000000000000000000000000000000000000000000000000000000000000000169361285c608062ffffff6040519461282786612a62565b88865289888701523460408701521693846060820152898282015260405180938192636352813560e11b835260048301612b38565b03818b867f0000000000000000000000000000000000000000000000000000000000000000165af188918161293e575b506128a35760405163507864b360e11b8152600490fd5b6128ac90612b7e565b50843b1561031a57604051630d0e30db60e41b81528781600481348a5af18015611c9f5761292b575b5060405163095ea7b360e01b81527f0000000000000000000000000000000000000000000000000000000000000000919091166001600160a01b0381166004830152346024830152919084818060448101611b3a565b61293790979197612a7e565b95386128d5565b61295891925060803d608011611666576116548183612acb565b505050903861288c565b600435906001600160a01b038216820361149757565b602435906001600160a01b038216820361149757565b6024359062ffffff8216820361149757565b6044359062ffffff8216820361149757565b6060906003190112611497576004356001600160a01b0381168103611497579060243562ffffff81168103611497579060443590565b60a0906003190112611497576001600160a01b0390600435828116810361149757916024359081168103611497579060443562ffffff8116810361149757906064359060843590565b9181601f840112156114975782359167ffffffffffffffff8311611497576020808501948460051b01011161149757565b60a0810190811067ffffffffffffffff82111761210157604052565b67ffffffffffffffff811161210157604052565b610100810190811067ffffffffffffffff82111761210157604052565b6080810190811067ffffffffffffffff82111761210157604052565b90601f8019910116810190811067ffffffffffffffff82111761210157604052565b51906001600160a01b038216820361149757565b919082608091031261149757815191612b1c60208201612aed565b91604082015163ffffffff811681036114975760609092015190565b919091608060a08201938160018060a01b03918281511685528260208201511660208601526040810151604086015262ffffff6060820151166060860152015116910152565b9061251c91828102928184041490151715612b9557565b634e487b7160e01b600052601160045260246000fd5b81810292918115918404141715612b9557565b8115612bc8570490565b634e487b7160e01b600052601260045260246000fd5b5190811515820361149757565b91908201809211612b9557565b91909160e06101008201938160018060a01b039182815116855282602082015116602086015262ffffff60408201511660408601528260608201511660608601526080810151608086015260a081015160a086015260c081015160c0860152015116910152565b51906001600160801b038216820361149757565b6001600160a01b0391821681529116602082015262ffffff909116604082015260600190565b9092906001600160a01b03908181169081158015612e47575b6109a157831561034e5760208591848816978885109182600014612e405780925b15612e385750905b612cf96040519485938493630b4c774160e11b855260048501612c73565b0381867f0000000000000000000000000000000000000000000000000000000000000000165afa8015612e2c578391600091612df0575b501615612de65762ffffff608094612d859460009760405194612d5286612a62565b8552602085015260408401521660608201528484820152604051948580948193636352813560e11b835260048301612b38565b03927f0000000000000000000000000000000000000000000000000000000000000000165af160009181612dc2575b50612dbf5750600090565b90565b612ddc91925060803d608011611666576116548183612acb565b5050509038612db4565b5050505050600090565b9150506020813d602011612e24575b81612e0c60209383612acb565b8101031261149757612e1e8391612aed565b38612d30565b3d9150612dff565b6040513d6000823e3d90fd5b905090612cdb565b8192612cd3565b5082861615612cb2565b600060443d10612dbf57604051600319913d83016004833e815167ffffffffffffffff918282113d602484011117612eaf57818401948551938411612eb7573d85010160208487010111612eaf5750612dbf92910160200190612acb565b949350505050565b50949350505050565b3d15612efb573d9067ffffffffffffffff82116121015760405191612eef601f8201601f191660200184612acb565b82523d6000602084013e565b606090565b9190811015612f105760051b0190565b634e487b7160e01b600052603260045260246000fd5b356001600160a01b03811681036114975790565b67ffffffffffffffff81116121015760051b60200190565b8051821015612f105760209160051b010190565b3562ffffff811681036114975790565b939192600284106133005783600019810111612b9557828403600019016132ee5760005b84811061325f5750612fab84612f3a565b94612fb96040519687612acb565b848652612fc585612f3a565b6020870190601f1901368237865115612f105752600091905b84600019810111612b9557600019850183101561325757613008613003848785612f00565b612f26565b600184018411612b9557613023613003600186018886612f00565b6001600160a01b038181169083161080156132505782905b15613248576020825b613057613052898b89612f00565b612f66565b926130766040519485938493630b4c774160e11b855260048501612c73565b03817f00000000000000000000000000000000000000000000000000000000000000006001600160a01b03165afa908115612e2c5760009161320e575b506001600160a01b0316156131e2579062ffffff613139926130d9613052888a88612f00565b906130e4888c612f52565b5190604051946130f386612a62565b60018060a01b0316855260018060a01b0316602085015260408401521660608201526080816000828094015260405180948192636352813560e11b835260048301612b38565b038160007f00000000000000000000000000000000000000000000000000000000000000006001600160a01b03165af19182916000936131c0575b50506131a55750505060019150015b81811061318f57505090565b80600061319e60019386612f52565b5201613183565b9260019192936131b783830189612f52565b52019190612fde565b6131d7929350803d10611666576116548183612acb565b505050903880613174565b5050505060019150015b8181106131f857505090565b80600061320760019386612f52565b52016131ec565b906020823d602011613240575b8161322860209383612acb565b810103126103fc575061323a90612aed565b386130b3565b3d915061321b565b602083613044565b819061303b565b505050505090565b6001600160a01b0380613276613003848988612f00565b16600052600560205260409060ff8260002054161590816132b0575b506132a05750600101612f9a565b51631934ad6160e01b8152600490fd5b90506132c0613003848988612f00565b90807f0000000000000000000000000000000000000000000000000000000000000000169116141538613292565b6040516397cc7f9560e01b8152600490fd5b604051631225bcdd60e01b8152600490fd5b936001600160a01b0393848616939290841580156135c0575b6109a157801561034e5760009685885260206005815260409560ff878b20541615806135ad575b80613581575b80613553575b6135425762ffffff811694606486141580613536575b8061352a575b8061351e575b61350d578a818b85931695868c10806000146135065781935b50156134fe5750905b6133bf8a519485938493630b4c774160e11b855260048501612c73565b03818c7f0000000000000000000000000000000000000000000000000000000000000000165afa9081156134f4579089918b916134b8575b5016156134a757936080969386938996938b9a9461344799519761341a89612a62565b8852870152848601526060850152168583015251948580948193636352813560e11b835260048301612b38565b03927f0000000000000000000000000000000000000000000000000000000000000000165af1829181613483575b5061347e575090565b905090565b61349d91925060803d608011611666576116548183612acb565b5050509038613475565b855163899c886160e01b8152600490fd5b809250838092503d83116134ed575b6134d18183612acb565b810103126134e9576134e38991612aed565b386133f7565b8980fd5b503d6134c7565b87513d8c823e3d90fd5b9050906133a2565b8293613399565b87516342a83cdd60e01b8152600490fd5b50612710861415613380565b50610bb886141561337a565b506101f4861415613374565b8651631934ad6160e01b8152600490fd5b50887f000000000000000000000000000000000000000000000000000000000000000016898616141561335e565b50887f000000000000000000000000000000000000000000000000000000000000000016881415613358565b508885168a5260ff878b20541615613352565b508582161561332b565b51908160020b820361149757565b6001600160a01b03808316818316109492909182919086156138085780965b156138005750945b166000526003602052604093818560002091166000526020528360002062ffffff80941660005260205283600020845161363881612a62565b8154928382526001830154956020830196875260028401549780840198895260ff60038601541695606085019615956004871591828a5201549660808701978852906137f8575b6137d757815193849163133f757160e31b835260048301528160246101809687937f0000000000000000000000000000000000000000000000000000000000000000165afa928392600095869561371d575b50505050156000146136f85750505193519451915115159051939493600093600093929190565b949095916001600160801b038091519351985195511515945193989716951693929190565b9091928096949550813d83116137d0575b6137388183612acb565b81010312610f365784516001600160601b03811603610f36576137699061376160208701612aed565b508501612aed565b5061377660608501612aed565b506080840151908116036103fc575061379160a083016135ca565b5061379e60c083016135ca565b506137ab60e08301612c5f565b506137c66101606137bf6101408501612c5f565b9301612c5f565b90388080806136d1565b503d61372e565b50505050505050915050600090600090600090600090600090600090600090565b50801561367f565b9050946135ff565b81966135f7565b6001600160a01b031680156109a15760005260056020526040600020600160ff19825416179055565b600260015414613849576002600155565b604051633ee5aeb560e01b8152600490fd5b519061ffff8216820361149757565b908160e09103126114975761387e81612aed565b9161388b602083016135ca565b916138986040820161385b565b916138a56060830161385b565b916138b26080820161385b565b9160a082015160ff811681036114975760c0612dbf919301612bde565b6001600160a01b0381811691907f00000000000000000000000000000000000000000000000000000000000000008082168410908115613ba357835b8215613b9b5750905b60409280845193630b4c774160e11b8552816004971687860152166024840152610bb860448401526020928381606481857f0000000000000000000000000000000000000000000000000000000000000000165afa908115613b4f57908291600091613b63575b50168015613b5a5760e08691865192838092633850c7bd851b82525afa908115613b4f57600091613b1a575b5060009215613ae3576139bc92501680612bab565b670de0b6b3a764000090818102918183041490151715613ace5760c01c905b82516318160ddd60e01b81529381858281895afa948515613ac357600095613a93575b506003670de0b6b3a7640000613a357fb556fac599c3c70efb9ab1fa725ecace6c81cc48d1455f886607def065f3e0c09786612bab565b04876000528284526002866000200154865193613a5185612aaf565b86855285850190428252888601928352606086019384528a600052865287600020945185555160018501555160028401555191015582519182524290820152a2565b94508185813d8311613abc575b613aaa8183612acb565b810103126114975793519360036139fe565b503d613aa0565b84513d6000823e3d90fd5b601184634e487b7160e01b6000525260246000fd5b613aee911680612bab565b908115613b0757506503782dace9d960d21b04906139db565b634e487b7160e01b815260128552602490fd5b613b3c915060e03d60e011613b48575b613b348183612acb565b81019061386a565b505050505050386139a7565b503d613b2a565b85513d6000823e3d90fd5b50505050505050565b809250858092503d8311613b94575b613b7c8183612acb565b8101031261149757613b8e8291612aed565b3861397b565b503d613b72565b905090613914565b809361390b565b6000546001600160a01b03163303613bbe57565b60405163118cdaa760e01b8152336004820152602490fd5b60020b60011b908160020b918203612b9557565b9060020b9060020b02908160020b918203612b9557565b60020b9060020b908115612bc857627fffff198114600019831416612b95570590565b9395946001600160a01b03828116908616109493600092861561435857855b87156143505750955b1561434b57965b604051630b4c774160e11b8152977f00000000000000000000000000000000000000000000000000000000000000006001600160a01b031660208a80613c9e898c8c60048501612c73565b0381845afa998a15612e2c5760009a61430f575b506001600160a01b038a1615614200575b5060405163095ea7b360e01b81527f00000000000000000000000000000000000000000000000000000000000000006001600160a01b031660048201526024810182905260208180604481010381886001600160a01b038c165af18015611761576141c7575b5060405163095ea7b360e01b81527f00000000000000000000000000000000000000000000000000000000000000006001600160a01b031660048201526024810183905260208180604481010381886001600160a01b038d165af1801561176157614182575b50604051633850c7bd60e01b815297989697959660e090879060049082906001600160a01b03165afa95861561417757849661414f575b50613dd08561435f565b613dd981613bd6565b9660020b9660020b8703627fffff80199181811383821217611c535783613e0381613e0893613c01565b613bea565b98613e1284613bd6565b60020b019182129082131761413b5790613e0381613e2f93613c01565b61012c4201421161412757604051968761016081011067ffffffffffffffff6101608a01111761210157610160880160405260018060a01b038916885260018060a01b038a16602089015262ffffff8716604089015260020b606088015260020b608087015260a086015260c08501528160e0850152816101008501523061012085015261012c420161014085015261014060405194634418b22b60e11b865260018060a01b03815116600487015260018060a01b03602082015116602487015262ffffff6040820151166044870152606081015160020b6064870152608081015160020b608487015260a081015160a487015260c081015160c487015260e081015160e487015261010081015161010487015260018060a01b03610120820151166101248701520151610144850152608084610164818560018060a01b037f0000000000000000000000000000000000000000000000000000000000000000165af190811561031e578283809681946140d3575b5062278d0042018042116140bf576140ba9362ffffff969360048b7fa12f7d42aa572c92b5e0ba50a30cacd389bb68257862ca2b55065b7030a860649a9895614081958f60405195613ff587612a62565b865260208601906001600160801b038b168252604087019283526040606088019460018652608089019642885260018060a01b031681526003602052209060018060a01b031660005260205260406000208d8d16600052602052604060002095518655516001860155516002850155600384019051151560ff80198354169116179055519101556138cf565b6040805197885260208801919091526001600160801b03909116908601529116946001600160a01b039081169416929081906060820190565b0390a4565b634e487b7160e01b82526011600452602482fd5b945092505093506080823d60801161411f575b816140f360809383612acb565b810103126103fc5781519361410a60208401612c5f565b60606040850151940151959093959238613fa4565b3d91506140e6565b634e487b7160e01b85526011600452602485fd5b634e487b7160e01b86526011600452602486fd5b61416991965060e03d60e011613b4857613b348183612acb565b505050505090509438613dc6565b6040513d86823e3d90fd5b6020813d6020116141bf575b8161419b60209383612acb565b81010312611755576004969798996141b460e092612bde565b509998979650613d8f565b3d915061418e565b6020813d6020116141f8575b816141e060209383612acb565b81010312611755576141f190612bde565b5038613d29565b3d91506141d3565b60405163a167129560e01b815299506020908a90816000816142278b8e8e60048501612c73565b03925af1988915612e2c576000996142d3575b5088600160601b606084901b841585820483141715612b95578361425d91612bbe565b8060601b918183041490151715612b95576001600160a01b0390614280906143a2565b6001600160a01b039092169116813b156114975760009160248392604051948593849263f637731d60e01b845260048401525af18015612e2c5715613cc3576142ca919450612a7e565b60009238613cc3565b9098506020813d602011614307575b816142ef60209383612acb565b810103126114975761430090612aed565b973861423a565b3d91506142e2565b9099506020813d602011614343575b8161432b60209383612acb565b810103126114975761433c90612aed565b9838613cb2565b3d915061431e565b613c53565b905095613c4c565b8095613c43565b62ffffff166064811461439c576101f4811461439657610bb88114614390576127101461438b57603c90565b60c890565b50603c90565b50600a90565b50600190565b80156143e7576001808201808311612b955760011c90825b8383106143c75750505090565b909192506143de836143d98184612bbe565b612beb565b821c91906143ba565b5060009056fea26469706673582212207e37f21ab0b5e24398ab00d311bc724261c0fbfb1b78832f68c2cdba1058810364736f6c63430008180033",
  "linkReferences": {},
  "deployedLinkReferences": {}
}