{
  "_format": "hh-sol-artifact-1",
  "contractName": "PumpFunDEXManager",
  "sourceName": "contracts/PumpFunDEXManager.sol",
  "abi": [
    {
      "inputs": [
        {
          "internalType": "address",
          "name": "_swapRouter",
          "type": "address"
        },
        {
          "internalType": "address",
          "name": "_positionManager",
          "type": "address"
        },
        {
          "internalType": "address",
          "name": "_uniswapV3Factory",
          "type": "address"
        },
        {
          "internalType": "address",
          "name": "_quoter",
          "type": "address"
        },
        {
          "internalType": "address",
          "name": "_weth",
          "type": "address"
        }
      ],
      "stateMutability": "nonpayable",
      "type": "constructor"
    },
    {
      "inputs": [
        {
          "internalType": "address",
          "name": "owner",
          "type": "address"
        }
      ],
      "name": "OwnableInvalidOwner",
      "type": "error"
    },
    {
      "inputs": [
        {
          "internalType": "address",
          "name": "account",
          "type": "address"
        }
      ],
      "name": "OwnableUnauthorizedAccount",
      "type": "error"
    },
    {
      "inputs": [],
      "name": "PumpFunDEXManager__DeadlineExpired",
      "type": "error"
    },
    {
      "inputs": [
        {
          "internalType": "uint256",
          "name": "available",
          "type": "uint256"
        },
        {
          "internalType": "uint256",
          "name": "requested",
          "type": "uint256"
        }
      ],
      "name": "PumpFunDEXManager__InsufficientBalance",
      "type": "error"
    },
    {
      "inputs": [],
      "name": "PumpFunDEXManager__InsufficientLiquidity",
      "type": "error"
    },
    {
      "inputs": [],
      "name": "PumpFunDEXManager__InvalidAmount",
      "type": "error"
    },
    {
      "inputs": [],
      "name": "PumpFunDEXManager__InvalidFactoryAddress",
      "type": "error"
    },
    {
      "inputs": [],
      "name": "PumpFunDEXManager__InvalidPathLength",
      "type": "error"
    },
    {
      "inputs": [],
      "name": "PumpFunDEXManager__InvalidTokenAddress",
      "type": "error"
    },
    {
      "inputs": [],
      "name": "PumpFunDEXManager__LiquidityLocked",
      "type": "error"
    },
    {
      "inputs": [],
      "name": "PumpFunDEXManager__PairAlreadyExists",
      "type": "error"
    },
    {
      "inputs": [],
      "name": "PumpFunDEXManager__PathFeesLengthMismatch",
      "type": "error"
    },
    {
      "inputs": [],
      "name": "PumpFunDEXManager__SlippageExceeded",
      "type": "error"
    },
    {
      "inputs": [],
      "name": "PumpFunDEXManager__TransferFailed",
      "type": "error"
    },
    {
      "inputs": [],
      "name": "PumpFunDEXManager__UnauthorizedToken",
      "type": "error"
    },
    {
      "inputs": [],
      "name": "ReentrancyGuardReentrantCall",
      "type": "error"
    },
    {
      "anonymous": false,
      "inputs": [
        {
          "indexed": true,
          "internalType": "address",
          "name": "token0",
          "type": "address"
        },
        {
          "indexed": true,
          "internalType": "address",
          "name": "token1",
          "type": "address"
        },
        {
          "indexed": true,
          "internalType": "uint24",
          "name": "fee",
          "type": "uint24"
        },
        {
          "indexed": false,
          "internalType": "uint256",
          "name": "amount0",
          "type": "uint256"
        },
        {
          "indexed": false,
          "internalType": "uint256",
          "name": "amount1",
          "type": "uint256"
        },
        {
          "indexed": false,
          "internalType": "uint256",
          "name": "liquidity",
          "type": "uint256"
        }
      ],
      "name": "LiquidityAdded",
      "type": "event"
    },
    {
      "anonymous": false,
      "inputs": [
        {
          "indexed": true,
          "internalType": "address",
          "name": "token0",
          "type": "address"
        },
        {
          "indexed": true,
          "internalType": "address",
          "name": "token1",
          "type": "address"
        },
        {
          "indexed": true,
          "internalType": "uint24",
          "name": "fee",
          "type": "uint24"
        },
        {
          "indexed": false,
          "internalType": "uint256",
          "name": "amount0",
          "type": "uint256"
        },
        {
          "indexed": false,
          "internalType": "uint256",
          "name": "amount1",
          "type": "uint256"
        },
        {
          "indexed": false,
          "internalType": "uint256",
          "name": "liquidity",
          "type": "uint256"
        }
      ],
      "name": "LiquidityPoolCreated",
      "type": "event"
    },
    {
      "anonymous": false,
      "inputs": [
        {
          "indexed": true,
          "internalType": "address",
          "name": "token0",
          "type": "address"
        },
        {
          "indexed": true,
          "internalType": "address",
          "name": "token1",
          "type": "address"
        },
        {
          "indexed": true,
          "internalType": "uint24",
          "name": "fee",
          "type": "uint24"
        },
        {
          "indexed": false,
          "internalType": "uint256",
          "name": "amount0",
          "type": "uint256"
        },
        {
          "indexed": false,
          "internalType": "uint256",
          "name": "amount1",
          "type": "uint256"
        }
      ],
      "name": "LiquidityRemoved",
      "type": "event"
    },
    {
      "anonymous": false,
      "inputs": [
        {
          "indexed": true,
          "internalType": "address",
          "name": "previousOwner",
          "type": "address"
        },
        {
          "indexed": true,
          "internalType": "address",
          "name": "newOwner",
          "type": "address"
        }
      ],
      "name": "OwnershipTransferred",
      "type": "event"
    },
    {
      "anonymous": false,
      "inputs": [
        {
          "indexed": true,
          "internalType": "address",
          "name": "token",
          "type": "address"
        },
        {
          "indexed": false,
          "internalType": "uint256",
          "name": "price",
          "type": "uint256"
        },
        {
          "indexed": false,
          "internalType": "uint256",
          "name": "timestamp",
          "type": "uint256"
        }
      ],
      "name": "PriceUpdated",
      "type": "event"
    },
    {
      "anonymous": false,
      "inputs": [
        {
          "indexed": true,
          "internalType": "address",
          "name": "user",
          "type": "address"
        },
        {
          "indexed": true,
          "internalType": "address",
          "name": "tokenIn",
          "type": "address"
        },
        {
          "indexed": true,
          "internalType": "address",
          "name": "tokenOut",
          "type": "address"
        },
        {
          "indexed": false,
          "internalType": "uint256",
          "name": "amountIn",
          "type": "uint256"
        },
        {
          "indexed": false,
          "internalType": "uint256",
          "name": "amountOut",
          "type": "uint256"
        }
      ],
      "name": "TokenSwapped",
      "type": "event"
    },
    {
      "stateMutability": "payable",
      "type": "fallback"
    },
    {
      "inputs": [],
      "name": "MIN_LIQUIDITY_ETH",
      "outputs": [
        {
          "internalType": "uint256",
          "name": "",
          "type": "uint256"
        }
      ],
      "stateMutability": "view",
      "type": "function"
    },
    {
      "inputs": [],
      "name": "PRICE_UPDATE_INTERVAL",
      "outputs": [
        {
          "internalType": "uint256",
          "name": "",
          "type": "uint256"
        }
      ],
      "stateMutability": "view",
      "type": "function"
    },
    {
      "inputs": [],
      "name": "SLIPPAGE_TOLERANCE",
      "outputs": [
        {
          "internalType": "uint256",
          "name": "",
          "type": "uint256"
        }
      ],
      "stateMutability": "view",
      "type": "function"
    },
    {
      "inputs": [],
      "name": "WETH",
      "outputs": [
        {
          "internalType": "address",
          "name": "",
          "type": "address"
        }
      ],
      "stateMutability": "view",
      "type": "function"
    },
    {
      "inputs": [
        {
          "internalType": "address",
          "name": "token0",
          "type": "address"
        },
        {
          "internalType": "address",
          "name": "token1",
          "type": "address"
        },
        {
          "internalType": "uint24",
          "name": "fee",
          "type": "uint24"
        },
        {
          "internalType": "uint256",
          "name": "tokenAmount0",
          "type": "uint256"
        },
        {
          "internalType": "uint256",
          "name": "tokenAmount1",
          "type": "uint256"
        }
      ],
      "name": "addLiquidity",
      "outputs": [],
      "stateMutability": "payable",
      "type": "function"
    },
    {
      "inputs": [
        {
          "internalType": "address",
          "name": "token",
          "type": "address"
        }
      ],
      "name": "authorizeToken",
      "outputs": [],
      "stateMutability": "nonpayable",
      "type": "function"
    },
    {
      "inputs": [
        {
          "internalType": "address",
          "name": "token",
          "type": "address"
        }
      ],
      "name": "authorizeTokenFromFactory",
      "outputs": [],
      "stateMutability": "nonpayable",
      "type": "function"
    },
    {
      "inputs": [
        {
          "internalType": "address",
          "name": "",
          "type": "address"
        }
      ],
      "name": "authorizedTokens",
      "outputs": [
        {
          "internalType": "bool",
          "name": "",
          "type": "bool"
        }
      ],
      "stateMutability": "view",
      "type": "function"
    },
    {
      "inputs": [
        {
          "internalType": "address",
          "name": "tokenA",
          "type": "address"
        },
        {
          "internalType": "address",
          "name": "tokenB",
          "type": "address"
        },
        {
          "internalType": "uint24",
          "name": "fee",
          "type": "uint24"
        },
        {
          "internalType": "uint256",
          "name": "amountA",
          "type": "uint256"
        },
        {
          "internalType": "uint256",
          "name": "amountB",
          "type": "uint256"
        }
      ],
      "name": "createLiquidityPool",
      "outputs": [],
      "stateMutability": "nonpayable",
      "type": "function"
    },
    {
      "inputs": [
        {
          "internalType": "address",
          "name": "token",
          "type": "address"
        },
        {
          "internalType": "uint24",
          "name": "fee",
          "type": "uint24"
        },
        {
          "internalType": "uint256",
          "name": "tokenAmount",
          "type": "uint256"
        }
      ],
      "name": "createLiquidityPoolWithETH",
      "outputs": [],
      "stateMutability": "payable",
      "type": "function"
    },
    {
      "inputs": [],
      "name": "factory",
      "outputs": [
        {
          "internalType": "address",
          "name": "",
          "type": "address"
        }
      ],
      "stateMutability": "view",
      "type": "function"
    },
    {
      "inputs": [
        {
          "internalType": "uint256",
          "name": "amountIn",
          "type": "uint256"
        },
        {
          "internalType": "address[]",
          "name": "path",
          "type": "address[]"
        },
        {
          "internalType": "uint24[]",
          "name": "fees",
          "type": "uint24[]"
        }
      ],
      "name": "getAmountsOutMultiHop",
      "outputs": [
        {
          "internalType": "uint256[]",
          "name": "amounts",
          "type": "uint256[]"
        }
      ],
      "stateMutability": "view",
      "type": "function"
    },
    {
      "inputs": [
        {
          "internalType": "address",
          "name": "tokenIn",
          "type": "address"
        },
        {
          "internalType": "address",
          "name": "tokenOut",
          "type": "address"
        },
        {
          "internalType": "uint24",
          "name": "fee",
          "type": "uint24"
        },
        {
          "internalType": "uint256",
          "name": "amountIn",
          "type": "uint256"
        }
      ],
      "name": "getAmountsOutSingleHop",
      "outputs": [
        {
          "internalType": "uint256",
          "name": "amountOut",
          "type": "uint256"
        }
      ],
      "stateMutability": "view",
      "type": "function"
    },
    {
      "inputs": [
        {
          "internalType": "address",
          "name": "token0",
          "type": "address"
        },
        {
          "internalType": "address",
          "name": "token1",
          "type": "address"
        },
        {
          "internalType": "uint24",
          "name": "fee",
          "type": "uint24"
        }
      ],
      "name": "getPoolAddress",
      "outputs": [
        {
          "internalType": "address",
          "name": "",
          "type": "address"
        }
      ],
      "stateMutability": "view",
      "type": "function"
    },
    {
      "inputs": [
        {
          "internalType": "address",
          "name": "token0",
          "type": "address"
        },
        {
          "internalType": "address",
          "name": "token1",
          "type": "address"
        },
        {
          "internalType": "uint24",
          "name": "fee",
          "type": "uint24"
        }
      ],
      "name": "getPoolInfo",
      "outputs": [
        {
          "internalType": "uint256",
          "name": "tokenId",
          "type": "uint256"
        },
        {
          "internalType": "uint256",
          "name": "liquidity",
          "type": "uint256"
        },
        {
          "internalType": "uint256",
          "name": "lockExpiry",
          "type": "uint256"
        },
        {
          "internalType": "bool",
          "name": "isActive",
          "type": "bool"
        },
        {
          "internalType": "uint256",
          "name": "createdAt",
          "type": "uint256"
        }
      ],
      "stateMutability": "view",
      "type": "function"
    },
    {
      "inputs": [
        {
          "internalType": "address",
          "name": "token",
          "type": "address"
        }
      ],
      "name": "getTokenPrice",
      "outputs": [
        {
          "internalType": "uint256",
          "name": "price",
          "type": "uint256"
        },
        {
          "internalType": "uint256",
          "name": "lastUpdated",
          "type": "uint256"
        }
      ],
      "stateMutability": "view",
      "type": "function"
    },
    {
      "inputs": [
        {
          "internalType": "address",
          "name": "token",
          "type": "address"
        }
      ],
      "name": "getTokenStats",
      "outputs": [
        {
          "internalType": "uint256",
          "name": "price",
          "type": "uint256"
        },
        {
          "internalType": "uint256",
          "name": "marketCap",
          "type": "uint256"
        },
        {
          "internalType": "uint256",
          "name": "volume24h",
          "type": "uint256"
        },
        {
          "internalType": "uint256",
          "name": "liquidity",
          "type": "uint256"
        },
        {
          "internalType": "bool",
          "name": "isActive",
          "type": "bool"
        }
      ],
      "stateMutability": "view",
      "type": "function"
    },
    {
      "inputs": [],
      "name": "owner",
      "outputs": [
        {
          "internalType": "address",
          "name": "",
          "type": "address"
        }
      ],
      "stateMutability": "view",
      "type": "function"
    },
    {
      "inputs": [],
      "name": "positionManager",
      "outputs": [
        {
          "internalType": "contract INonfungiblePositionManager",
          "name": "",
          "type": "address"
        }
      ],
      "stateMutability": "view",
      "type": "function"
    },
    {
      "inputs": [],
      "name": "quoter",
      "outputs": [
        {
          "internalType": "contract IQuoter",
          "name": "",
          "type": "address"
        }
      ],
      "stateMutability": "view",
      "type": "function"
    },
    {
      "inputs": [],
      "name": "renounceOwnership",
      "outputs": [],
      "stateMutability": "nonpayable",
      "type": "function"
    },
    {
      "inputs": [
        {
          "internalType": "address",
          "name": "_factory",
          "type": "address"
        }
      ],
      "name": "setFactory",
      "outputs": [],
      "stateMutability": "nonpayable",
      "type": "function"
    },
    {
      "inputs": [
        {
          "internalType": "address",
          "name": "tokenOut",
          "type": "address"
        },
        {
          "internalType": "uint24",
          "name": "fee",
          "type": "uint24"
        }
      ],
      "name": "swapExactETHForTokens",
      "outputs": [],
      "stateMutability": "payable",
      "type": "function"
    },
    {
      "inputs": [
        {
          "internalType": "address",
          "name": "tokenOut",
          "type": "address"
        },
        {
          "internalType": "uint24",
          "name": "fee",
          "type": "uint24"
        },
        {
          "internalType": "uint256",
          "name": "slippageTolerance",
          "type": "uint256"
        }
      ],
      "name": "swapExactETHForTokensWithSlippage",
      "outputs": [],
      "stateMutability": "payable",
      "type": "function"
    },
    {
      "inputs": [
        {
          "internalType": "address",
          "name": "tokenIn",
          "type": "address"
        },
        {
          "internalType": "uint24",
          "name": "fee",
          "type": "uint24"
        },
        {
          "internalType": "uint256",
          "name": "amountIn",
          "type": "uint256"
        }
      ],
      "name": "swapExactTokensForETH",
      "outputs": [],
      "stateMutability": "nonpayable",
      "type": "function"
    },
    {
      "inputs": [
        {
          "internalType": "address",
          "name": "tokenIn",
          "type": "address"
        },
        {
          "internalType": "uint24",
          "name": "fee",
          "type": "uint24"
        },
        {
          "internalType": "uint256",
          "name": "amountIn",
          "type": "uint256"
        },
        {
          "internalType": "uint256",
          "name": "slippageTolerance",
          "type": "uint256"
        }
      ],
      "name": "swapExactTokensForETHWithSlippage",
      "outputs": [],
      "stateMutability": "nonpayable",
      "type": "function"
    },
    {
      "inputs": [],
      "name": "swapRouter",
      "outputs": [
        {
          "internalType": "contract ISwapRouter",
          "name": "",
          "type": "address"
        }
      ],
      "stateMutability": "view",
      "type": "function"
    },
    {
      "inputs": [
        {
          "internalType": "address",
          "name": "",
          "type": "address"
        },
        {
          "internalType": "address",
          "name": "",
          "type": "address"
        },
        {
          "internalType": "uint24",
          "name": "",
          "type": "uint24"
        }
      ],
      "name": "tokenPools",
      "outputs": [
        {
          "internalType": "uint256",
          "name": "tokenId",
          "type": "uint256"
        },
        {
          "internalType": "uint256",
          "name": "liquidity",
          "type": "uint256"
        },
        {
          "internalType": "uint256",
          "name": "lockExpiry",
          "type": "uint256"
        },
        {
          "internalType": "bool",
          "name": "isActive",
          "type": "bool"
        },
        {
          "internalType": "uint256",
          "name": "createdAt",
          "type": "uint256"
        }
      ],
      "stateMutability": "view",
      "type": "function"
    },
    {
      "inputs": [
        {
          "internalType": "address",
          "name": "",
          "type": "address"
        }
      ],
      "name": "tokenPrices",
      "outputs": [
        {
          "internalType": "uint256",
          "name": "price",
          "type": "uint256"
        },
        {
          "internalType": "uint256",
          "name": "lastUpdated",
          "type": "uint256"
        },
        {
          "internalType": "uint256",
          "name": "volume24h",
          "type": "uint256"
        },
        {
          "internalType": "uint256",
          "name": "marketCap",
          "type": "uint256"
        }
      ],
      "stateMutability": "view",
      "type": "function"
    },
    {
      "inputs": [
        {
          "internalType": "address",
          "name": "newOwner",
          "type": "address"
        }
      ],
      "name": "transferOwnership",
      "outputs": [],
      "stateMutability": "nonpayable",
      "type": "function"
    },
    {
      "inputs": [],
      "name": "uniswapV3Factory",
      "outputs": [
        {
          "internalType": "contract IUniswapV3Factory",
          "name": "",
          "type": "address"
        }
      ],
      "stateMutability": "view",
      "type": "function"
    },
    {
      "inputs": [],
      "name": "withdrawETH",
      "outputs": [],
      "stateMutability": "nonpayable",
      "type": "function"
    },
    {
      "inputs": [
        {
          "internalType": "address",
          "name": "token",
          "type": "address"
        },
        {
          "internalType": "uint256",
          "name": "amount",
          "type": "uint256"
        }
      ],
      "name": "withdrawToken",
      "outputs": [],
      "stateMutability": "nonpayable",
      "type": "function"
    },
    {
      "stateMutability": "payable",
      "type": "receive"
    }
  ],
  "bytecode": "0x610120346200026057601f6200373a38819003918201601f19168301916001600160401b03831184841017620002655780849260a09460405283398101031262000260576200004e816200027b565b6200005c602083016200027b565b916200006b604082016200027b565b6200008760806200007f606085016200027b565b93016200027b565b933315620002475760008054336001600160a01b03198216811783556040516001600160a01b0397909388939192918416907f8be0079c531659141344cd1fd0a4f28419497f9722a3daafe3b4186f6b6457e09080a3600180551690811580156200023c575b801562000231575b801562000226575b80156200021b575b6200020c5750608052831660a052821660c0521660e0526101009081526040516134a99182620002918339608051828181610632015281816110e90152818161159c0152611f6d015260a051828181610aa30152818161195301528181612d5001528181612db60152612fed015260c051828181610c6d01528181610d770152818161237c01528181612647015281816129d10152612cf7015260e0518281816105c5015281816110040152818161151101528181611db301528181611ef3015281816123dc01526126c60152518181816101e20152818161067601528181610fc3015281816114d101528181611d7201528181611ea90152818161283f01526129680152f35b6389be0fdb60e01b8152600490fd5b508587161562000105565b5085851615620000fd565b5085841615620000f5565b5085831615620000ed565b604051631e4fbdf760e01b815260006004820152602490fd5b600080fd5b634e487b7160e01b600052604160045260246000fd5b51906001600160a01b0382168203620002605756fe60406080815260048036101561001c575b5050361561001a57005b005b600091823560e01c80630277694a14611e5157806309842ab414611d255780630ad23382146118335780630b99512b146117f157806317085dfb14611471578063204120bc146114195780632a21b75e14610f5457806330a52c3714610eba5780634a277c6214610dc35780634c20378614610da65780635b54918214610d625780635bb4780814610d125780635d23011014610cef578063696d628314610bd6578063715018a614610b7c5780637754167814610ad2578063791b98bc14610a8e5780638da5cb5b14610a66578063917f3e5f1461080f57806398e9cb12146107e25780639b5eb511146107985780639bc7c5861461075a5780639e281a98146106a5578063ad5c464814610661578063c31c9c071461061d578063c45a0155146105f4578063c6bbd5a7146105b0578063ca88d5c514610534578063d02641a0146104ca578063e086e5ec14610423578063ee937e8214610406578063f2fde38b146103715763f7f29185146101945750610010565b61019d36612072565b906101a99392936128b6565b60018060a01b0392838516908188526020916005835260ff828a205416156103615767016345785d8a00003410610352578415610352577f0000000000000000000000000000000000000000000000000000000000000000958087169081831090811561034b5789915b15610343578089925b168c5260038652848c20911660005284528260002062ffffff8616600052845260ff60038460002001541661033357808a913b1561032f57818a91855192838092630d0e30db60e41b825234905af180156103255761030d575b5082516323b872dd60e01b815233998101998a523060208b015260408a018790529884928a92918390036060019183915af190811561030457506102ca575b506102c39450349284612c93565b6001805580f35b85813d83116102fd575b6102de81836121a1565b810103126102f9576102f26102c395612259565b50386102b5565b8580fd5b503d6102d4565b513d89823e3d90fd5b61031690612122565b610321578838610276565b8880fd5b84513d84823e3d90fd5b5080fd5b825163329e1cc760e01b81528990fd5b808a9261021c565b8891610213565b815162716da360e31b81528890fd5b8151631934ad6160e01b81528890fd5b5090346104025760203660031901126104025761038c612022565b90610395612c19565b6001600160a01b039182169283156103ec575050600054826bffffffffffffffffffffffff60a01b821617600055167f8be0079c531659141344cd1fd0a4f28419497f9722a3daafe3b4186f6b6457e0600080a380f35b51631e4fbdf760e01b8152908101849052602490fd5b8280fd5b83823461032f578160031936011261032f576020905161012c8152f35b503461040257826003193601126104025761043c612c19565b4780156104bd57835484918291829182916001600160a01b03165af13d156104b8573d67ffffffffffffffff81116104a557825190610485601f8201601f1916602001836121a1565b81528460203d92013e5b15610498578280f35b516301946bed60e31b8152fd5b634e487b7160e01b855260418452602485fd5b61048f565b505162716da360e31b8152fd5b50903461040257602036600319011261040257909182916001600160a01b036104f1612022565b1682526020522081519061050482612185565b80549182815260606003600184015493846020850152600281015487850152015491015282519182526020820152f35b5090346104025760203660031901126104025760a092906001600160a01b0361055b612022565b16825260205281812082519261057084612185565b6060825494858152600184015460208201526003600285015494858584015201549182910152815194855260208501528301528060608301526080820152f35b83823461032f578160031936011261032f57517f00000000000000000000000000000000000000000000000000000000000000006001600160a01b03168152602090f35b83823461032f578160031936011261032f5760025490516001600160a01b039091168152602090f35b83823461032f578160031936011261032f57517f00000000000000000000000000000000000000000000000000000000000000006001600160a01b03168152602090f35b83823461032f578160031936011261032f57517f00000000000000000000000000000000000000000000000000000000000000006001600160a01b03168152602090f35b50346104025780600319360112610402576020610706926106c4612022565b6106cc612c19565b8554845163a9059cbb60e01b81526001600160a01b0391821693810193845260243560208501529586938492899290918491604090910190565b0393165af1908115610751575061071b575080f35b6020813d602011610749575b81610734602093836121a1565b8101031261032f5761074590612259565b5080f35b3d9150610727565b513d84823e3d90fd5b83823461032f57602036600319011261032f5760209160ff9082906001600160a01b03610785612022565b1681526005855220541690519015158152f35b509034610402576020366003190112610402576107b3612022565b6002549092906001600160a01b031633036107d557836107d28461288d565b80f35b516301c9d96560e31b8152fd5b833461080c57602036600319011261080c576107d26107ff612022565b610807612c19565b61288d565b80fd5b50346104025761081e366120a8565b939461082b9391936128b6565b6001600160a01b038681169081158015610a5c575b610a4c57818a5260209860058a5260ff848c2054161580610a39575b610a2b5786158015610a23575b610a165784821691828410908115610a0f578a915b15610a07578087925b168d5260038c52858d2091166000528a528360002062ffffff87166000528a5260ff6003856000200154166109f95783516323b872dd60e01b80825233828401908152306020820152604081018a90528d949392908d90829081906060010381888a5af180156109ef57918b93918e95936109ac575b5087519081523391810191825230602083015260408201939093529193849283919082906060015b03925af180156109a25761095a575b509060056102c39860ff938b5252882054166000146109535784612c93565b8094612c93565b8881819493943d831161099b575b61097281836121a1565b81010312610997576102c39860ff9361098c600593612259565b509293509850610934565b8980fd5b503d610968565b83513d8c823e3d90fd5b8094508591953d83116109e8575b6109c481836121a1565b810103126109e457610925948d946109dc8d95612259565b5090956108fd565b8480fd5b503d6109ba565b87513d87823e3d90fd5b835163329e1cc760e01b8152fd5b808b92610887565b869161087e565b835162716da360e31b8152fd5b508715610869565b8351631934ad6160e01b8152fd5b508185168b5260ff848c2054161561085c565b82516389be0fdb60e01b81528990fd5b5080841615610840565b83823461032f578160031936011261032f57905490516001600160a01b039091168152602090f35b83823461032f578160031936011261032f57517f00000000000000000000000000000000000000000000000000000000000000006001600160a01b03168152602090f35b50823461080c57606036600319011261080c57610aed612022565b610af5612038565b9083610aff612060565b9360018060a01b038093168152600360205220911660005260205262ffffff826000209116600052602052610b78816000209182549260018101549460028201549060ff6003840154169201549251958695869192608093969594919660a0840197845260208401526040830152151560608201520152565b0390f35b833461080c578060031936011261080c57610b95612c19565b600080546001600160a01b0319811682556001600160a01b03167f8be0079c531659141344cd1fd0a4f28419497f9722a3daafe3b4186f6b6457e08280a380f35b503461040257606036600319011261040257610bf0612022565b906020610bfb612038565b92610c04612060565b946001600160a01b03948086168387161092610c6891908415610ce85780945b15610ce05750965b8551630b4c774160e11b81526001600160a01b0394851693810193845297909316602083015262ffffff90921660408201528591829160600190565b0381857f0000000000000000000000000000000000000000000000000000000000000000165afa928315610cd65760209493610ca7575b505191168152f35b610cc8919350843d8611610ccf575b610cc081836121a1565b8101906122ee565b9138610c9f565b503d610cb6565b81513d86823e3d90fd5b905096610c2c565b8194610c24565b83823461032f578160031936011261032f576020905167016345785d8a00008152f35b50903461040257602036600319011261040257610d2d612022565b610d35612c19565b6001600160a01b03169182156107d55750506bffffffffffffffffffffffff60a01b600254161760025580f35b83823461032f578160031936011261032f57517f00000000000000000000000000000000000000000000000000000000000000006001600160a01b03168152602090f35b83823461032f578160031936011261032f57602090516101f48152f35b50823461080c57606036600319011261080c57610dde612022565b610de6612038565b83610def612060565b936001600160a01b038381168582161094909384918615610eb35780965b15610eab5750945b168152600360205220911660005260205262ffffff826000209116600052602052610b78608082600020835194610e4b86612169565b815494858752600183015496876020820152600284015492838383015260ff6003860154161515948560608401520154948591015251958695869192608093969594919660a0840197845260208401526040830152151560608201520152565b905094610e15565b8196610e0d565b5090346104025760603660031901126104025767ffffffffffffffff906024358281116109e457610eee90369083016120f1565b6044929192359384116102f957610f0b610f1494369084016120f1565b9390923561252d565b815192839260208080860192818752855180945286019401925b828110610f3d57505050500390f35b835185528695509381019392810192600101610f2e565b50823461080c57608036600319011261080c57610f6f612022565b610f7761204e565b60443560643592610f866128b6565b60018060a01b03808216938487526020916005835260ff8989205416156114095784156113fa5761138887116113ea5787968984868d610fff8a887f0000000000000000000000000000000000000000000000000000000000000000968988169f5051968795869563f7729d4360e01b875286016121c3565b0381867f0000000000000000000000000000000000000000000000000000000000000000165afa8a91816113bb575b50611043578a5163507864b360e11b81528c90fd5b918a9493918c93612710918203908282116113a8579061106291612226565b049088865186816024816370a0823160e01b95868252308b8301525afa908d821561139d57908b9261136c575b50106112ef57508a856110d78b8b8a519485809481936323b872dd60e01b8352308d3390850160409194939294606082019560018060a01b0380921683521660208201520152565b03925af180156112b1576112bb575b507f000000000000000000000000000000000000000000000000000000000000000016918a856111418b8b8a5194858094819363095ea7b360e01b83528b8d840160209093929193604081019460018060a01b031681520152565b03925af180156112b157611279575b5061012c420190814211611266579289869594936111bd9362ffffff8f99968f8c519561117c8761214c565b865288860152168a84015233606084015260808301528a60a083015260c08201528660e0820152875196878094819363414bf38960e01b8352888301612273565b03925af192831561125c578993611224575b506111fa7fd36cc53ba71bc76a3db3364981f5296dd4ca5eba0e8c89874f2170515bd20d2495612959565b8689528152600283892001611210838254612266565b905582519485528401523392a46001805580f35b9492508185813d8311611255575b61123c81836121a1565b8101031261125057935191936111fa6111cf565b600080fd5b503d611232565b84513d8b823e3d90fd5b634e487b7160e01b8c526011855260248cfd5b8581813d83116112aa575b61128e81836121a1565b810103126112a65761129f90612259565b508b611150565b8b80fd5b503d611284565b87513d8e823e3d90fd5b8581813d83116112e8575b6112d081836121a1565b810103126112a6576112e190612259565b508b6110e6565b503d6112c6565b84898d8989808f9660248451809981938252308a8301525afa9283156113615792611330575b5051631555006160e11b815292830152602482015260449150fd5b90915084813d831161135a575b61134781836121a1565b8101031261125057604493519085611315565b503d61133d565b8251903d90823e3d90fd5b809250888092503d8311611396575b61138581836121a1565b81010312611250578990518e61108f565b503d61137b565b8951903d90823e3d90fd5b634e487b7160e01b8d526011865260248dfd5b9091508581813d83116113e3575b6113d381836121a1565b810103126112505751908d61102e565b503d6113c9565b88516312000fe360e11b81528a90fd5b885162716da360e31b81528a90fd5b8851631934ad6160e01b81528a90fd5b5090346104025760203660031901126104025760809282916001600160a01b03611441612022565b16825260205220908154916001810154916003600283015492015492815194855260208501528301526060820152f35b50828161147d36612072565b9092916114886128b6565b60018060a01b0393848216948587526020936005855260ff8689205416156117e15767016345785d8a000034106117d2578961138882116117c457955163f7729d4360e01b81527f00000000000000000000000000000000000000000000000000000000000000008381169787918391829161150c9134918a918c919086016121c3565b0381867f0000000000000000000000000000000000000000000000000000000000000000165afa899181611795575b5061155057895163507864b360e11b81528b90fd5b918993918b9361271091820390828211611782579061156e91612226565b0490873b15610997578451630d0e30db60e41b81528a9081818781348e5af1801561177857611764575b50507f00000000000000000000000000000000000000000000000000000000000000001690845163095ea7b360e01b815287818c81806115f034898c840160209093929193604081019460018060a01b031681520152565b03918d5af1801561175a57611722575b5061012c420180421161170f5791611668949391889362ffffff8851946116268661214c565b8c86528d87870152168885015233606085015260808401523460a084015260c08301528a60e08301528551808096819463414bf38960e01b8352878301612273565b039134905af19182156117055788926116d2575b506116a77fd36cc53ba71bc76a3db3364981f5296dd4ca5eba0e8c89874f2170515bd20d2494612959565b86885284526002828820016116bd348254612266565b90558151933485528401523392a46001805580f35b9391508484813d83116116fe575b6116ea81836121a1565b8101031261125057925190926116a761167c565b503d6116e0565b83513d8a823e3d90fd5b634e487b7160e01b8b526011855260248bfd5b8781813d8311611753575b61173781836121a1565b8101031261174f5761174890612259565b508a611600565b8a80fd5b503d61172d565b86513d8d823e3d90fd5b61176d90612122565b61099757898b611598565b87513d84823e3d90fd5b634e487b7160e01b8c526011865260248cfd5b9091508681813d83116117bd575b6117ad81836121a1565b810103126112505751908c61153b565b503d6117a3565b86516312000fe360e11b8152fd5b855162716da360e31b81528a90fd5b8551631934ad6160e01b81528a90fd5b83823461032f57608036600319011261032f5760209061182c611812612022565b61181a612038565b611822612060565b906064359261230d565b9051908152f35b50908261183f366120a8565b9491969093929561184e6128b6565b6001600160a01b038781169785821697918989109181908315611d1e5788935b15611d1657925b1690818752808660209860038a522093169283600052875262ffffff866000209c169b8c600052875260ff60038760002001541615611d065788158015611cfe575b611cef5785516323b872dd60e01b80825233828801908152306020820152604081018c90528f9392908a9082908f9082908890829060600103925af18015611ce5578e89868d948b94611c9f575b508c519586523391860191825230602083015260408201939093528492839182906060015b03925af18015611c95578c8c9695949389938c93611c51575b508a5163095ea7b360e01b8082527f0000000000000000000000000000000000000000000000000000000000000000929092166001600160a01b0381169582019586526020860199909952909390929183918290879082906040015b03925af18015611c4757888f91948c9489948b97611c05575b506119e38d51978896879586948552840160209093929193604081019460018060a01b031681520152565b03925af18015611bf957611bc1575b508c5260038652848c20906000528552836000208a600052855283600020549161012c420190814211611bae5785519360c0850185811067ffffffffffffffff821117611b9957928e9260c4959260609897958a5285528985019b8c52888501908152878501848152608086019185835260a087019384528a519d8e998a9863219f5d1760e01b8a5251908901525160248801525160448701525160648601525160848501525160a48401525af1928315611b8f57889489938a95611b13575b505093611b0991611ae37f66f68636a37c16d9b851b4467d85bfdc07b98135fc5f50b62510198bd458946896612959565b51938493849160409194936001600160801b039160608501968552602085015216910152565b0390a46001805580f35b9350945092506060843d606011611b87575b81611b32606093836121a1565b81010312611b83578381611ae3611b0993611b6d7f66f68636a37c16d9b851b4467d85bfdc07b98135fc5f50b62510198bd4589468986122da565b9584015193015194929495929650819350611ab2565b8780fd5b3d9150611b25565b81513d8a823e3d90fd5b604187634e487b7160e01b6000525260246000fd5b634e487b7160e01b8d526011855260248dfd5b8781813d8311611bf2575b611bd681836121a1565b81010312611bee57611be790612259565b50386119f2565b8d80fd5b503d611bcc565b8e8851903d90823e3d90fd5b959350955092505082813d8311611c40575b611c2181836121a1565b8101031261080c578d8887928995611c398e96612259565b50386119b8565b503d611c17565b89513d85823e3d90fd5b935096505081813d8311611c8e575b611c6a81836121a1565b8101031261032f57818961199f8e8e98611c848c96612259565b5091509192611943565b503d611c60565b88513d85823e3d90fd5b94935050505081813d8311611cde575b611cb981836121a1565b81010312611cda57868e898661192a95611cd38f96612259565b5095611905565b8380fd5b503d611caf565b89513d86823e3d90fd5b855162716da360e31b81528590fd5b5083156118b7565b855163329e1cc760e01b81528590fd5b508792611875565b809361186e565b50823461080c57611d3536612072565b611d3d6128b6565b60018060a01b0392838116928386526020906005825260ff888820541615611e41578315611e325786958883858c611dae89877f0000000000000000000000000000000000000000000000000000000000000000968888169e5051968795869563f7729d4360e01b875286016121c3565b0381857f0000000000000000000000000000000000000000000000000000000000000000165afa899181611e03575b50611df257895163507864b360e11b81528b90fd5b918a916127106110628c96956121f9565b9091508481813d8311611e2b575b611e1b81836121a1565b810103126112505751908c611ddd565b503d611e11565b875162716da360e31b81528990fd5b8751631934ad6160e01b81528990fd5b50828160031936011261080c57611e66612022565b611e6e61204e565b611e766128b6565b60018060a01b0390818316928385526020916005835260ff8787205416156120125767016345785d8a00003410612003577f00000000000000000000000000000000000000000000000000000000000000009381848483881697611eee8d8d51958694859463f7729d4360e01b8652349386016121c3565b0381857f0000000000000000000000000000000000000000000000000000000000000000165afa889181611fd4575b50611f3257885163507864b360e11b81528a90fd5b918991612710611f428b956121f9565b0490873b15610997578451630d0e30db60e41b81528a818681348d5af1801561175a57611fc1575b507f00000000000000000000000000000000000000000000000000000000000000001690845163095ea7b360e01b815287818c81806115f034898c840160209093929193604081019460018060a01b031681520152565b611fcd909a919a612122565b988a611f6a565b9091508581813d8311611ffc575b611fec81836121a1565b810103126103215751908b611f1d565b503d611fe2565b865162716da360e31b81528890fd5b8651631934ad6160e01b81528890fd5b600435906001600160a01b038216820361125057565b602435906001600160a01b038216820361125057565b6024359062ffffff8216820361125057565b6044359062ffffff8216820361125057565b6060906003190112611250576004356001600160a01b0381168103611250579060243562ffffff81168103611250579060443590565b60a0906003190112611250576001600160a01b0390600435828116810361125057916024359081168103611250579060443562ffffff8116810361125057906064359060843590565b9181601f840112156112505782359167ffffffffffffffff8311611250576020808501948460051b01011161125057565b67ffffffffffffffff811161213657604052565b634e487b7160e01b600052604160045260246000fd5b610100810190811067ffffffffffffffff82111761213657604052565b60a0810190811067ffffffffffffffff82111761213657604052565b6080810190811067ffffffffffffffff82111761213657604052565b90601f8019910116810190811067ffffffffffffffff82111761213657604052565b6001600160a01b0391821681529116602082015262ffffff91909116604082015260608101919091526000608082015260a00190565b9061251c9182810292818404149015171561221057565b634e487b7160e01b600052601160045260246000fd5b8181029291811591840414171561221057565b8115612243570490565b634e487b7160e01b600052601260045260246000fd5b5190811515820361125057565b9190820180921161221057565b91909160e06101008201938160018060a01b039182815116855282602082015116602086015262ffffff60408201511660408601528260608201511660608601526080810151608086015260a081015160a086015260c081015160c0860152015116910152565b51906001600160801b038216820361125057565b9081602091031261125057516001600160a01b03811681036112505790565b90916001600160a01b03808316801580156124ad575b61249b57851561248a57848216119384156124835783945b1561247c5780945b604051630b4c774160e11b81526001600160a01b0391821660048201529516602486015262ffffff8316604486015260209485816064817f000000000000000000000000000000000000000000000000000000000000000087165afa8015612470578391600091612453575b5016156124485784936123d86040519788958694859463f7729d4360e01b8652600486016121c3565b03917f0000000000000000000000000000000000000000000000000000000000000000165afa918291600093612418575b50506124155750600090565b90565b9080929350813d8311612441575b61243081836121a1565b810103126112505751903880612409565b503d612426565b505050505050600090565b61246a9150873d8911610ccf57610cc081836121a1565b386123af565b6040513d6000823e3d90fd5b8394612343565b809461233b565b60405162716da360e31b8152600490fd5b6040516389be0fdb60e01b8152600490fd5b5081851615612323565b91908110156124c75760051b0190565b634e487b7160e01b600052603260045260246000fd5b356001600160a01b03811681036112505790565b67ffffffffffffffff81116121365760051b60200190565b80518210156124c75760209160051b010190565b3562ffffff811681036112505790565b9391926002841061287b578360001981011161221057828403600019016128695760005b8481106127da5750612562846124f1565b9461257060405196876121a1565b84865261257c856124f1565b6020870190601f19013682378651156124c75752600091905b846000198101116122105760001985018310156127d2576125bf6125ba8487856124b7565b6124dd565b600184018411612210576125da6125ba6001860188866124b7565b6001600160a01b038181169083161080156127cb5782905b156127c3576020825b61260e612609898b896124b7565b61251d565b604051630b4c774160e11b81526001600160a01b039485166004820152918416602483015262ffffff16604482015291829060649082907f0000000000000000000000000000000000000000000000000000000000000000165afa908115612470576000916127a4575b506001600160a01b031615612778576020906126986126098789876124b7565b926126c26126a6888c612509565b5160405163f7729d4360e01b81529586948594600486016121c3565b03817f00000000000000000000000000000000000000000000000000000000000000006001600160a01b03165afa60009181612744575b506127295750505060019150015b81811061271357505090565b80600061272260019386612509565b5201612707565b92600191929361273b83830189612509565b52019190612595565b90916020823d602011612770575b8161275f602093836121a1565b8101031261080c57505190386126f9565b3d9150612752565b5050505060019150015b81811061278e57505090565b80600061279d60019386612509565b5201612782565b6127bd915060203d602011610ccf57610cc081836121a1565b38612678565b6020836125fb565b81906125f2565b505050505090565b6001600160a01b03806127f16125ba8489886124b7565b16600052600560205260409060ff82600020541615908161282b575b5061281b5750600101612551565b51631934ad6160e01b8152600490fd5b905061283b6125ba8489886124b7565b90807f000000000000000000000000000000000000000000000000000000000000000016911614153861280d565b6040516397cc7f9560e01b8152600490fd5b604051631225bcdd60e01b8152600490fd5b6001600160a01b0316801561249b5760005260056020526040600020600160ff19825416179055565b6002600154146128c7576002600155565b604051633ee5aeb560e01b8152600490fd5b519061ffff8216820361125057565b908160e09103126112505780516001600160a01b0381168103611250579160208201518060020b81036112505791612922604082016128d9565b9161292f606083016128d9565b9161293c608082016128d9565b9160a082015160ff811681036112505760c0612415919301612259565b6001600160a01b0381811691907f00000000000000000000000000000000000000000000000000000000000000008082168410908115612c1257835b8215612c0a5750905b60409280845193630b4c774160e11b8552816004971687860152166024840152610bb860448401526020928381606481857f0000000000000000000000000000000000000000000000000000000000000000165afa908115612bd957908291600091612bed575b50168015612be45760e08691865192838092633850c7bd851b82525afa908115612bd957600091612ba4575b5060009215612b6d57612a4692501680612226565b670de0b6b3a764000090818102918183041490151715612b585760c01c905b82516318160ddd60e01b81529381858281895afa948515612b4d57600095612b1d575b506003670de0b6b3a7640000612abf7fb556fac599c3c70efb9ab1fa725ecace6c81cc48d1455f886607def065f3e0c09786612226565b04876000528284526002866000200154865193612adb85612185565b86855285850190428252888601928352606086019384528a600052865287600020945185555160018501555160028401555191015582519182524290820152a2565b94508185813d8311612b46575b612b3481836121a1565b81010312611250579351936003612a88565b503d612b2a565b84513d6000823e3d90fd5b601184634e487b7160e01b6000525260246000fd5b612b78911680612226565b908115612b9157506503782dace9d960d21b0490612a65565b634e487b7160e01b815260128552602490fd5b612bc6915060e03d60e011612bd2575b612bbe81836121a1565b8101906128e8565b50505050505038612a31565b503d612bb4565b85513d6000823e3d90fd5b50505050505050565b612c049150853d8711610ccf57610cc081836121a1565b38612a05565b90509061299e565b8093612995565b6000546001600160a01b03163303612c2d57565b60405163118cdaa760e01b8152336004820152602490fd5b60020b60011b908160020b91820361221057565b9060020b9060020b02908160020b91820361221057565b60020b9060020b90811561224357627fffff198114600019831416612210570590565b9395946001600160a01b0382811690861610949360009286156133de57855b87156133d65750955b156133d157965b604051630b4c774160e11b81526001600160a01b038681166004830152878116602483015262ffffff861660448301529098907f00000000000000000000000000000000000000000000000000000000000000001660208a606481845afa998a156124705760009a6133b0575b506001600160a01b038a16156132a7575b5060405163095ea7b360e01b81527f00000000000000000000000000000000000000000000000000000000000000006001600160a01b031660048201526024810182905260208180604481010381886001600160a01b038c165af180156132635761326e575b5060405163095ea7b360e01b81527f00000000000000000000000000000000000000000000000000000000000000006001600160a01b031660048201526024810183905260208180604481010381886001600160a01b038d165af180156132635761321e575b50604051633850c7bd60e01b815297989697959660e090879060049082906001600160a01b03165afa9586156132135784966131eb575b50612e4d856133e5565b612e5681612c45565b9660020b9660020b8703627fffff801991818113838212176131d75783612e8081612e8593612c70565b612c59565b98612e8f84612c45565b60020b01918212908213176131c35790612e8081612eac93612c70565b61012c420142116131af57604051968761016081011067ffffffffffffffff6101608a01111761213657610160880160405260018060a01b038916885260018060a01b038a16602089015262ffffff8716604089015260020b606088015260020b608087015260a086015260c08501528160e0850152816101008501523061012085015261012c420161014085015261014060405194634418b22b60e11b865260018060a01b03815116600487015260018060a01b03602082015116602487015262ffffff6040820151166044870152606081015160020b6064870152608081015160020b608487015260a081015160a487015260c081015160c487015260e081015160e487015261010081015161010487015260018060a01b03610120820151166101248701520151610144850152608084610164818560018060a01b037f0000000000000000000000000000000000000000000000000000000000000000165af19081156131a457828380968194613150575b5062278d00420180421161313c576131379362ffffff969360048b7fa12f7d42aa572c92b5e0ba50a30cacd389bb68257862ca2b55065b7030a860649a98956130fe958f6040519561307287612169565b865260208601906001600160801b038b168252604087019283526040606088019460018652608089019642885260018060a01b031681526003602052209060018060a01b031660005260205260406000208d8d16600052602052604060002095518655516001860155516002850155600384019051151560ff8019835416911617905551910155612959565b6040805197885260208801919091526001600160801b03909116908601529116946001600160a01b039081169416929081906060820190565b0390a4565b634e487b7160e01b82526011600452602482fd5b945092505093506080823d60801161319c575b81613170608093836121a1565b8101031261080c57815193613187602084016122da565b60606040850151940151959093959238613021565b3d9150613163565b6040513d84823e3d90fd5b634e487b7160e01b85526011600452602485fd5b634e487b7160e01b86526011600452602486fd5b634e487b7160e01b88526011600452602488fd5b61320591965060e03d60e011612bd257612bbe81836121a1565b505050505090509438612e43565b6040513d86823e3d90fd5b6020813d60201161325b575b81613237602093836121a1565b810103126109e45760049697989961325060e092612259565b509998979650612e0c565b3d915061322a565b6040513d87823e3d90fd5b6020813d60201161329f575b81613287602093836121a1565b810103126109e45761329890612259565b5038612da6565b3d915061327a565b60405163a167129560e01b81526001600160a01b0388811660048301528916602482015262ffffff8716604482015299506020908a9060649082906000905af19889156124705760009961338f575b5088600160601b606084901b841585820483141715612210578361331991612239565b8060601b918183041490151715612210576001600160a01b039061333c90613428565b6001600160a01b039092169116813b156112505760009160248392604051948593849263f637731d60e01b845260048401525af180156124705715612d4057613386919450612122565b60009238612d40565b6133a991995060203d602011610ccf57610cc081836121a1565b97386132f6565b6133ca919a5060203d602011610ccf57610cc081836121a1565b9838612d2f565b612cc2565b905095612cbb565b8095612cb2565b62ffffff1660648114613422576101f4811461341c57610bb88114613416576127101461341157603c90565b60c890565b50603c90565b50600a90565b50600190565b801561346d5760018082018083116122105760011c90825b83831061344d5750505090565b909192506134648361345f8184612239565b612266565b821c9190613440565b5060009056fea2646970667358221220e92b861a707a00f565fad1b3d863c5240eebb8586be0f1f77be80be1c99f34b864736f6c63430008180033",
  "linkReferences": {},
  "deployedLinkReferences": {}
}