{
  "_format": "hh-sol-artifact-1",
  "contractName": "PumpFunDEXManager",
  "sourceName": "contracts/PumpFunDEXManager.sol",
  "abi": [
    {
      "inputs": [
        {
          "internalType": "address",
          "name": "_swapRouter",
          "type": "address"
        },
        {
          "internalType": "address",
          "name": "_positionManager",
          "type": "address"
        },
        {
          "internalType": "address",
          "name": "_uniswapV3Factory",
          "type": "address"
        },
        {
          "internalType": "address",
          "name": "_quoterV2",
          "type": "address"
        },
        {
          "internalType": "address",
          "name": "_weth",
          "type": "address"
        }
      ],
      "stateMutability": "nonpayable",
      "type": "constructor"
    },
    {
      "inputs": [
        {
          "internalType": "address",
          "name": "owner",
          "type": "address"
        }
      ],
      "name": "OwnableInvalidOwner",
      "type": "error"
    },
    {
      "inputs": [
        {
          "internalType": "address",
          "name": "account",
          "type": "address"
        }
      ],
      "name": "OwnableUnauthorizedAccount",
      "type": "error"
    },
    {
      "inputs": [],
      "name": "PumpFunDEXManager__DeadlineExpired",
      "type": "error"
    },
    {
      "inputs": [
        {
          "internalType": "uint256",
          "name": "available",
          "type": "uint256"
        },
        {
          "internalType": "uint256",
          "name": "requested",
          "type": "uint256"
        }
      ],
      "name": "PumpFunDEXManager__InsufficientBalance",
      "type": "error"
    },
    {
      "inputs": [],
      "name": "PumpFunDEXManager__InsufficientLiquidity",
      "type": "error"
    },
    {
      "inputs": [],
      "name": "PumpFunDEXManager__InvalidAmount",
      "type": "error"
    },
    {
      "inputs": [],
      "name": "PumpFunDEXManager__InvalidFactoryAddress",
      "type": "error"
    },
    {
      "inputs": [],
      "name": "PumpFunDEXManager__InvalidFeeTier",
      "type": "error"
    },
    {
      "inputs": [],
      "name": "PumpFunDEXManager__InvalidPathLength",
      "type": "error"
    },
    {
      "inputs": [],
      "name": "PumpFunDEXManager__InvalidTokenAddress",
      "type": "error"
    },
    {
      "inputs": [],
      "name": "PumpFunDEXManager__LiquidityLocked",
      "type": "error"
    },
    {
      "inputs": [],
      "name": "PumpFunDEXManager__PairAlreadyExists",
      "type": "error"
    },
    {
      "inputs": [],
      "name": "PumpFunDEXManager__PathFeesLengthMismatch",
      "type": "error"
    },
    {
      "inputs": [],
      "name": "PumpFunDEXManager__PoolDoesNotExist",
      "type": "error"
    },
    {
      "inputs": [
        {
          "internalType": "string",
          "name": "reason",
          "type": "string"
        }
      ],
      "name": "PumpFunDEXManager__QuoterFailed",
      "type": "error"
    },
    {
      "inputs": [],
      "name": "PumpFunDEXManager__SlippageExceeded",
      "type": "error"
    },
    {
      "inputs": [],
      "name": "PumpFunDEXManager__TransferFailed",
      "type": "error"
    },
    {
      "inputs": [],
      "name": "PumpFunDEXManager__UnauthorizedToken",
      "type": "error"
    },
    {
      "inputs": [],
      "name": "ReentrancyGuardReentrantCall",
      "type": "error"
    },
    {
      "anonymous": false,
      "inputs": [
        {
          "indexed": true,
          "internalType": "address",
          "name": "token0",
          "type": "address"
        },
        {
          "indexed": true,
          "internalType": "address",
          "name": "token1",
          "type": "address"
        },
        {
          "indexed": true,
          "internalType": "uint24",
          "name": "fee",
          "type": "uint24"
        },
        {
          "indexed": false,
          "internalType": "uint256",
          "name": "amount0",
          "type": "uint256"
        },
        {
          "indexed": false,
          "internalType": "uint256",
          "name": "amount1",
          "type": "uint256"
        },
        {
          "indexed": false,
          "internalType": "uint256",
          "name": "liquidity",
          "type": "uint256"
        }
      ],
      "name": "LiquidityAdded",
      "type": "event"
    },
    {
      "anonymous": false,
      "inputs": [
        {
          "indexed": true,
          "internalType": "address",
          "name": "token0",
          "type": "address"
        },
        {
          "indexed": true,
          "internalType": "address",
          "name": "token1",
          "type": "address"
        },
        {
          "indexed": true,
          "internalType": "uint24",
          "name": "fee",
          "type": "uint24"
        },
        {
          "indexed": false,
          "internalType": "uint256",
          "name": "amount0",
          "type": "uint256"
        },
        {
          "indexed": false,
          "internalType": "uint256",
          "name": "amount1",
          "type": "uint256"
        },
        {
          "indexed": false,
          "internalType": "uint256",
          "name": "liquidity",
          "type": "uint256"
        }
      ],
      "name": "LiquidityPoolCreated",
      "type": "event"
    },
    {
      "anonymous": false,
      "inputs": [
        {
          "indexed": true,
          "internalType": "address",
          "name": "token0",
          "type": "address"
        },
        {
          "indexed": true,
          "internalType": "address",
          "name": "token1",
          "type": "address"
        },
        {
          "indexed": true,
          "internalType": "uint24",
          "name": "fee",
          "type": "uint24"
        },
        {
          "indexed": false,
          "internalType": "uint256",
          "name": "amount0",
          "type": "uint256"
        },
        {
          "indexed": false,
          "internalType": "uint256",
          "name": "amount1",
          "type": "uint256"
        }
      ],
      "name": "LiquidityRemoved",
      "type": "event"
    },
    {
      "anonymous": false,
      "inputs": [
        {
          "indexed": true,
          "internalType": "address",
          "name": "previousOwner",
          "type": "address"
        },
        {
          "indexed": true,
          "internalType": "address",
          "name": "newOwner",
          "type": "address"
        }
      ],
      "name": "OwnershipTransferred",
      "type": "event"
    },
    {
      "anonymous": false,
      "inputs": [
        {
          "indexed": true,
          "internalType": "address",
          "name": "token",
          "type": "address"
        },
        {
          "indexed": false,
          "internalType": "uint256",
          "name": "price",
          "type": "uint256"
        },
        {
          "indexed": false,
          "internalType": "uint256",
          "name": "timestamp",
          "type": "uint256"
        }
      ],
      "name": "PriceUpdated",
      "type": "event"
    },
    {
      "anonymous": false,
      "inputs": [
        {
          "indexed": true,
          "internalType": "address",
          "name": "user",
          "type": "address"
        },
        {
          "indexed": true,
          "internalType": "address",
          "name": "tokenIn",
          "type": "address"
        },
        {
          "indexed": true,
          "internalType": "address",
          "name": "tokenOut",
          "type": "address"
        },
        {
          "indexed": false,
          "internalType": "uint256",
          "name": "amountIn",
          "type": "uint256"
        },
        {
          "indexed": false,
          "internalType": "uint256",
          "name": "amountOut",
          "type": "uint256"
        }
      ],
      "name": "TokenSwapped",
      "type": "event"
    },
    {
      "stateMutability": "payable",
      "type": "fallback"
    },
    {
      "inputs": [],
      "name": "PRICE_UPDATE_INTERVAL",
      "outputs": [
        {
          "internalType": "uint256",
          "name": "",
          "type": "uint256"
        }
      ],
      "stateMutability": "view",
      "type": "function"
    },
    {
      "inputs": [],
      "name": "SLIPPAGE_TOLERANCE",
      "outputs": [
        {
          "internalType": "uint256",
          "name": "",
          "type": "uint256"
        }
      ],
      "stateMutability": "view",
      "type": "function"
    },
    {
      "inputs": [],
      "name": "WETH",
      "outputs": [
        {
          "internalType": "address",
          "name": "",
          "type": "address"
        }
      ],
      "stateMutability": "view",
      "type": "function"
    },
    {
      "inputs": [
        {
          "internalType": "address",
          "name": "token0",
          "type": "address"
        },
        {
          "internalType": "address",
          "name": "token1",
          "type": "address"
        },
        {
          "internalType": "uint24",
          "name": "fee",
          "type": "uint24"
        },
        {
          "internalType": "uint256",
          "name": "tokenAmount0",
          "type": "uint256"
        },
        {
          "internalType": "uint256",
          "name": "tokenAmount1",
          "type": "uint256"
        }
      ],
      "name": "addLiquidity",
      "outputs": [],
      "stateMutability": "payable",
      "type": "function"
    },
    {
      "inputs": [
        {
          "internalType": "address",
          "name": "token",
          "type": "address"
        }
      ],
      "name": "authorizeToken",
      "outputs": [],
      "stateMutability": "nonpayable",
      "type": "function"
    },
    {
      "inputs": [
        {
          "internalType": "address",
          "name": "token",
          "type": "address"
        }
      ],
      "name": "authorizeTokenFromFactory",
      "outputs": [],
      "stateMutability": "nonpayable",
      "type": "function"
    },
    {
      "inputs": [
        {
          "internalType": "address",
          "name": "",
          "type": "address"
        }
      ],
      "name": "authorizedTokens",
      "outputs": [
        {
          "internalType": "bool",
          "name": "",
          "type": "bool"
        }
      ],
      "stateMutability": "view",
      "type": "function"
    },
    {
      "inputs": [
        {
          "internalType": "address",
          "name": "tokenA",
          "type": "address"
        },
        {
          "internalType": "address",
          "name": "tokenB",
          "type": "address"
        },
        {
          "internalType": "uint24",
          "name": "fee",
          "type": "uint24"
        },
        {
          "internalType": "uint256",
          "name": "amountA",
          "type": "uint256"
        },
        {
          "internalType": "uint256",
          "name": "amountB",
          "type": "uint256"
        }
      ],
      "name": "createLiquidityPool",
      "outputs": [],
      "stateMutability": "nonpayable",
      "type": "function"
    },
    {
      "inputs": [
        {
          "internalType": "address",
          "name": "token",
          "type": "address"
        },
        {
          "internalType": "uint24",
          "name": "fee",
          "type": "uint24"
        },
        {
          "internalType": "uint256",
          "name": "tokenAmount",
          "type": "uint256"
        }
      ],
      "name": "createLiquidityPoolWithETH",
      "outputs": [],
      "stateMutability": "payable",
      "type": "function"
    },
    {
      "inputs": [],
      "name": "factory",
      "outputs": [
        {
          "internalType": "address",
          "name": "",
          "type": "address"
        }
      ],
      "stateMutability": "view",
      "type": "function"
    },
    {
      "inputs": [
        {
          "internalType": "uint256",
          "name": "amountIn",
          "type": "uint256"
        },
        {
          "internalType": "address[]",
          "name": "path",
          "type": "address[]"
        },
        {
          "internalType": "uint24[]",
          "name": "fees",
          "type": "uint24[]"
        }
      ],
      "name": "getAmountsOutMultiHop",
      "outputs": [
        {
          "internalType": "uint256[]",
          "name": "amounts",
          "type": "uint256[]"
        }
      ],
      "stateMutability": "nonpayable",
      "type": "function"
    },
    {
      "inputs": [
        {
          "internalType": "address",
          "name": "tokenIn",
          "type": "address"
        },
        {
          "internalType": "address",
          "name": "tokenOut",
          "type": "address"
        },
        {
          "internalType": "uint24",
          "name": "fee",
          "type": "uint24"
        },
        {
          "internalType": "uint256",
          "name": "amountIn",
          "type": "uint256"
        }
      ],
      "name": "getAmountsOutSingleHop",
      "outputs": [
        {
          "internalType": "uint256",
          "name": "amountOut",
          "type": "uint256"
        }
      ],
      "stateMutability": "nonpayable",
      "type": "function"
    },
    {
      "inputs": [
        {
          "internalType": "address",
          "name": "token0",
          "type": "address"
        },
        {
          "internalType": "address",
          "name": "token1",
          "type": "address"
        },
        {
          "internalType": "uint24",
          "name": "fee",
          "type": "uint24"
        }
      ],
      "name": "getPoolAddress",
      "outputs": [
        {
          "internalType": "address",
          "name": "",
          "type": "address"
        }
      ],
      "stateMutability": "view",
      "type": "function"
    },
    {
      "inputs": [
        {
          "internalType": "address",
          "name": "token0",
          "type": "address"
        },
        {
          "internalType": "address",
          "name": "token1",
          "type": "address"
        },
        {
          "internalType": "uint24",
          "name": "fee",
          "type": "uint24"
        }
      ],
      "name": "getPoolInfo",
      "outputs": [
        {
          "internalType": "uint256",
          "name": "tokenId",
          "type": "uint256"
        },
        {
          "internalType": "uint256",
          "name": "liquidity",
          "type": "uint256"
        },
        {
          "internalType": "uint256",
          "name": "lockExpiry",
          "type": "uint256"
        },
        {
          "internalType": "bool",
          "name": "isActive",
          "type": "bool"
        },
        {
          "internalType": "uint256",
          "name": "createdAt",
          "type": "uint256"
        }
      ],
      "stateMutability": "view",
      "type": "function"
    },
    {
      "inputs": [
        {
          "internalType": "address",
          "name": "token",
          "type": "address"
        }
      ],
      "name": "getTokenPrice",
      "outputs": [
        {
          "internalType": "uint256",
          "name": "price",
          "type": "uint256"
        },
        {
          "internalType": "uint256",
          "name": "lastUpdated",
          "type": "uint256"
        }
      ],
      "stateMutability": "view",
      "type": "function"
    },
    {
      "inputs": [
        {
          "internalType": "address",
          "name": "token",
          "type": "address"
        }
      ],
      "name": "getTokenStats",
      "outputs": [
        {
          "internalType": "uint256",
          "name": "price",
          "type": "uint256"
        },
        {
          "internalType": "uint256",
          "name": "marketCap",
          "type": "uint256"
        },
        {
          "internalType": "uint256",
          "name": "volume24h",
          "type": "uint256"
        },
        {
          "internalType": "uint256",
          "name": "liquidity",
          "type": "uint256"
        },
        {
          "internalType": "bool",
          "name": "isActive",
          "type": "bool"
        }
      ],
      "stateMutability": "view",
      "type": "function"
    },
    {
      "inputs": [],
      "name": "owner",
      "outputs": [
        {
          "internalType": "address",
          "name": "",
          "type": "address"
        }
      ],
      "stateMutability": "view",
      "type": "function"
    },
    {
      "inputs": [],
      "name": "positionManager",
      "outputs": [
        {
          "internalType": "contract INonfungiblePositionManager",
          "name": "",
          "type": "address"
        }
      ],
      "stateMutability": "view",
      "type": "function"
    },
    {
      "inputs": [],
      "name": "quoterV2",
      "outputs": [
        {
          "internalType": "contract IQuoterV2",
          "name": "",
          "type": "address"
        }
      ],
      "stateMutability": "view",
      "type": "function"
    },
    {
      "inputs": [],
      "name": "renounceOwnership",
      "outputs": [],
      "stateMutability": "nonpayable",
      "type": "function"
    },
    {
      "inputs": [
        {
          "internalType": "address",
          "name": "_factory",
          "type": "address"
        }
      ],
      "name": "setFactory",
      "outputs": [],
      "stateMutability": "nonpayable",
      "type": "function"
    },
    {
      "inputs": [
        {
          "internalType": "address",
          "name": "tokenOut",
          "type": "address"
        },
        {
          "internalType": "uint24",
          "name": "fee",
          "type": "uint24"
        }
      ],
      "name": "swapExactETHForTokens",
      "outputs": [],
      "stateMutability": "payable",
      "type": "function"
    },
    {
      "inputs": [
        {
          "internalType": "address",
          "name": "tokenOut",
          "type": "address"
        },
        {
          "internalType": "uint24",
          "name": "fee",
          "type": "uint24"
        },
        {
          "internalType": "uint256",
          "name": "slippageTolerance",
          "type": "uint256"
        }
      ],
      "name": "swapExactETHForTokensWithSlippage",
      "outputs": [],
      "stateMutability": "payable",
      "type": "function"
    },
    {
      "inputs": [
        {
          "internalType": "address",
          "name": "tokenIn",
          "type": "address"
        },
        {
          "internalType": "uint24",
          "name": "fee",
          "type": "uint24"
        },
        {
          "internalType": "uint256",
          "name": "amountIn",
          "type": "uint256"
        }
      ],
      "name": "swapExactTokensForETH",
      "outputs": [],
      "stateMutability": "nonpayable",
      "type": "function"
    },
    {
      "inputs": [
        {
          "internalType": "address",
          "name": "tokenIn",
          "type": "address"
        },
        {
          "internalType": "uint24",
          "name": "fee",
          "type": "uint24"
        },
        {
          "internalType": "uint256",
          "name": "amountIn",
          "type": "uint256"
        },
        {
          "internalType": "uint256",
          "name": "slippageTolerance",
          "type": "uint256"
        }
      ],
      "name": "swapExactTokensForETHWithSlippage",
      "outputs": [],
      "stateMutability": "nonpayable",
      "type": "function"
    },
    {
      "inputs": [],
      "name": "swapRouter",
      "outputs": [
        {
          "internalType": "contract ISwapRouter",
          "name": "",
          "type": "address"
        }
      ],
      "stateMutability": "view",
      "type": "function"
    },
    {
      "inputs": [
        {
          "internalType": "address",
          "name": "tokenIn",
          "type": "address"
        },
        {
          "internalType": "address",
          "name": "tokenOut",
          "type": "address"
        },
        {
          "internalType": "uint24",
          "name": "fee",
          "type": "uint24"
        },
        {
          "internalType": "uint256",
          "name": "amountIn",
          "type": "uint256"
        },
        {
          "internalType": "uint160",
          "name": "sqrtPriceLimitX96",
          "type": "uint160"
        }
      ],
      "name": "testQuoteExactInputSingle",
      "outputs": [
        {
          "internalType": "uint256",
          "name": "amountOut",
          "type": "uint256"
        }
      ],
      "stateMutability": "nonpayable",
      "type": "function"
    },
    {
      "inputs": [
        {
          "internalType": "address",
          "name": "",
          "type": "address"
        },
        {
          "internalType": "address",
          "name": "",
          "type": "address"
        },
        {
          "internalType": "uint24",
          "name": "",
          "type": "uint24"
        }
      ],
      "name": "tokenPools",
      "outputs": [
        {
          "internalType": "uint256",
          "name": "tokenId",
          "type": "uint256"
        },
        {
          "internalType": "uint256",
          "name": "liquidity",
          "type": "uint256"
        },
        {
          "internalType": "uint256",
          "name": "lockExpiry",
          "type": "uint256"
        },
        {
          "internalType": "bool",
          "name": "isActive",
          "type": "bool"
        },
        {
          "internalType": "uint256",
          "name": "createdAt",
          "type": "uint256"
        }
      ],
      "stateMutability": "view",
      "type": "function"
    },
    {
      "inputs": [
        {
          "internalType": "address",
          "name": "",
          "type": "address"
        }
      ],
      "name": "tokenPrices",
      "outputs": [
        {
          "internalType": "uint256",
          "name": "price",
          "type": "uint256"
        },
        {
          "internalType": "uint256",
          "name": "lastUpdated",
          "type": "uint256"
        },
        {
          "internalType": "uint256",
          "name": "volume24h",
          "type": "uint256"
        },
        {
          "internalType": "uint256",
          "name": "marketCap",
          "type": "uint256"
        }
      ],
      "stateMutability": "view",
      "type": "function"
    },
    {
      "inputs": [
        {
          "internalType": "address",
          "name": "newOwner",
          "type": "address"
        }
      ],
      "name": "transferOwnership",
      "outputs": [],
      "stateMutability": "nonpayable",
      "type": "function"
    },
    {
      "inputs": [],
      "name": "uniswapV3Factory",
      "outputs": [
        {
          "internalType": "contract IUniswapV3Factory",
          "name": "",
          "type": "address"
        }
      ],
      "stateMutability": "view",
      "type": "function"
    },
    {
      "inputs": [],
      "name": "withdrawETH",
      "outputs": [],
      "stateMutability": "nonpayable",
      "type": "function"
    },
    {
      "inputs": [
        {
          "internalType": "address",
          "name": "token",
          "type": "address"
        },
        {
          "internalType": "uint256",
          "name": "amount",
          "type": "uint256"
        }
      ],
      "name": "withdrawToken",
      "outputs": [],
      "stateMutability": "nonpayable",
      "type": "function"
    },
    {
      "stateMutability": "payable",
      "type": "receive"
    }
  ],
  "bytecode": "0x61012034620002c257601f6200421738819003918201601f19168301916001600160401b03831184841017620002c75780849260a094604052833981010312620002c2576200004e81620002dd565b6200005c60208301620002dd565b916200006b60408201620002dd565b6200008760806200007f60608501620002dd565b9301620002dd565b933315620002a95760008054336001600160a01b03198216811783556040516001600160a01b0397909388939192918416907f8be0079c531659141344cd1fd0a4f28419497f9722a3daafe3b4186f6b6457e09080a3600180551690811580156200029e575b801562000293575b801562000288575b80156200027d575b6200026e5750608052831660a052821660c0521660e052610100908152604051613f249182620002f383396080518281816105e1015281816111c601528181611a69015281816122c901526126af015260a0518281816109f401528181611de1015281816137fb015281816138610152613a98015260c051828181610b9d01528181610c8401528181610fc60152818161187c01528181612ade01528181612e40015281816131660152818161348a015261378b015260e05182818161042c0152818161111501528181611900015281816122070152818161262401528181612b6901528181612f0401526131ed0152518181816101cd0152818161062601528181610f4e01528181610f83015281816110b401528181611265015281816112dd015281816113280152818161138e015281816116de0152818161181c01528181612195015281816125b201528181613066015281816132dc0152818161330a01526134210152f35b6389be0fdb60e01b8152600490fd5b508587161562000105565b5085851615620000fd565b5085841615620000f5565b5085831615620000ed565b604051631e4fbdf760e01b815260006004820152602490fd5b600080fd5b634e487b7160e01b600052604160045260246000fd5b51906001600160a01b0382168203620002c25756fe60806040526004361015610018575b361561001657005b005b6000803560e01c80630277694a1461256757806309842ab41461214f5780630ad2338214611cda5780630b99512b14611ca157806317085dfb146117b6578063204120bc1461175a5780632a21b75e14610ec257806330a52c3714610e1a57806344a9892d14610dc05780634a277c6214610cd05780634c20378614610cb35780635b54918214610c6e5780635bb4780814610c22578063696d628314610b2b578063715018a614610ad15780637754167814610a23578063791b98bc146109de5780638da5cb5b146109b7578063917f3e5f146107a557806398e9cb121461077b5780639b5eb511146107315780639bc7c586146106f25780639e281a9814610655578063ad5c464814610610578063c31c9c07146105cb578063c45a0155146105a2578063ca88d5c51461051f578063d02641a0146104b3578063e086e5ec1461045b578063e20dccb214610416578063ee937e82146103f9578063f2fde38b146103665763f7f291851461018f575061000e565b61019836612773565b6101a3929192613378565b60018060a01b03908183169384865260206005815260ff60408820541615610354578215610343577f0000000000000000000000000000000000000000000000000000000000000000938085169081881090811561033c5787915b15610334578087925b168a526003845260408a2091166000528252604060002062ffffff8416600052825260ff60036040600020015416610322578088913b1561031e578160049160405192838092630d0e30db60e41b825234905af18015610313576102fb575b50506040516323b872dd60e01b815233600482015230602482015260448101849052958190879060649082908b905af180156102f0576102b6575b506102af945034928461374c565b6001805580f35b85813d83116102e9575b6102ca818361288c565b810103126102e5576102de6102af9561299f565b50386102a1565b8580fd5b503d6102c0565b6040513d89823e3d90fd5b6103049061283f565b61030f578638610266565b8680fd5b6040513d84823e3d90fd5b5080fd5b60405163329e1cc760e01b8152600490fd5b808892610207565b86916101fe565b60405162716da360e31b8152600490fd5b604051631934ad6160e01b8152600490fd5b50346103f65760203660031901126103f657610380612723565b6103886136d2565b6001600160a01b039081169081156103dd57600054826bffffffffffffffffffffffff60a01b821617600055167f8be0079c531659141344cd1fd0a4f28419497f9722a3daafe3b4186f6b6457e0600080a380f35b604051631e4fbdf760e01b815260048101849052602490fd5b80fd5b50346103f657806003193601126103f657602060405161012c8152f35b50346103f657806003193601126103f6576040517f00000000000000000000000000000000000000000000000000000000000000006001600160a01b03168152602090f35b50346103f657806003193601126103f6576104746136d2565b47801561034357815482918291829182916001600160a01b03165af1610498612c83565b50156104a15780f35b6040516301946bed60e31b8152600490fd5b50346103f65760203660031901126103f65760409081906001600160a01b036104da612723565b1681526004602052208151906104ef82612870565b80549182815260606003600184015493846020850152600281015487850152015491015282519182526020820152f35b50346103f65760203660031901126103f65760a0906001600160a01b03610544612723565b168152600460205260408120906040519161055e83612870565b606081549384815260018301546020820152600360028401549384604084015201549182910152604051938452602084015260408301528060608301526080820152f35b50346103f657806003193601126103f6576002546040516001600160a01b039091168152602090f35b50346103f657806003193601126103f6576040517f00000000000000000000000000000000000000000000000000000000000000006001600160a01b03168152602090f35b50346103f657806003193601126103f6576040517f00000000000000000000000000000000000000000000000000000000000000006001600160a01b03168152602090f35b50346103f65760403660031901126103f65761066f612723565b6106776136d2565b815460405163a9059cbb60e01b81526001600160a01b039182166004820152602480359082015291602091839160449183918791165af18015610313576106bc575080f35b6020813d6020116106ea575b816106d56020938361288c565b8101031261031e576106e69061299f565b5080f35b3d91506106c8565b50346103f65760203660031901126103f65760209060ff906040906001600160a01b0361071d612723565b168152600584522054166040519015158152f35b50346103f65760203660031901126103f65761074b612723565b6002546001600160a01b03163303610769576107669061334f565b80f35b6040516301c9d96560e31b8152600490fd5b50346103f65760203660031901126103f657610766610798612723565b6107a06136d2565b61334f565b50346103f6576107b4366127a9565b916107c0949394613378565b6001600160a01b038481169590861580156109ad575b61099b578688526020906005825260ff60408a2054161580610987575b610354578415801561097f575b61034357828116908189109081156109785788915b15610970578085925b168b526003845260408b2091166000528252604060002062ffffff8516600052825260ff60036040600020015416610322576040516323b872dd60e01b8082523360048301523060248301526044820187905283826064818e8e5af191821561096557849261092c575b506040519081523360048201523060248201526044810188905291829060649082908d905af18015610921576108e0575b506005906102af9789525260ff6040882054166000146108d9578461374c565b809461374c565b908082813d831161091a575b6108f6818361288c565b81010312610916576102af9761090d60059361299f565b509750906108b9565b8880fd5b503d6108ec565b6040513d8b823e3d90fd5b9182813d831161095e575b610941818361288c565b8101031261095a57610953849261299f565b5038610888565b8a80fd5b503d610937565b6040513d8d823e3d90fd5b80899261081e565b8491610815565b508515610800565b50808316895260ff60408a205416156107f3565b6040516389be0fdb60e01b8152600490fd5b50808216156107d6565b50346103f657806003193601126103f657546040516001600160a01b039091168152602090f35b50346103f657806003193601126103f6576040517f00000000000000000000000000000000000000000000000000000000000000006001600160a01b03168152602090f35b50346103f65760603660031901126103f657610a3d612723565b610a45612739565b906040610a50612761565b9360018060a01b038093168152600360205220911660005260205262ffffff6040600020911660005260205260406000208054610acd600183015492600281015490600460ff60038301541691015491604051958695869192608093969594919660a0840197845260208401526040830152151560608201520152565b0390f35b50346103f657806003193601126103f657610aea6136d2565b600080546001600160a01b0319811682556001600160a01b03167f8be0079c531659141344cd1fd0a4f28419497f9722a3daafe3b4186f6b6457e08280a380f35b50346103f65760603660031901126103f657610b45612723565b610b4d612739565b6020610b57612761565b926001600160a01b039280841684831610918215610c1b5780925b15610c135750905b610b986040519586938493630b4c774160e11b855260048501612a53565b0381847f0000000000000000000000000000000000000000000000000000000000000000165afa918215610c085760209392610bd9575b5060405191168152f35b610bfa919250833d8511610c01575b610bf2818361288c565b810190612a34565b9038610bcf565b503d610be8565b6040513d85823e3d90fd5b905090610b7a565b8192610b72565b50346103f65760203660031901126103f657610c3c612723565b610c446136d2565b6001600160a01b03168015610769576bffffffffffffffffffffffff60a01b600254161760025580f35b50346103f657806003193601126103f6576040517f00000000000000000000000000000000000000000000000000000000000000006001600160a01b03168152602090f35b50346103f657806003193601126103f65760206040516101f48152f35b50346103f65760603660031901126103f657610cea612723565b610cf2612739565b6040610cfc612761565b936001600160a01b038381168582161094909384918615610db95780965b15610db15750945b168152600360205220911660005260205262ffffff60406000209116600052602052604060002060405190610d5682612823565b80548083526001820154602080850182905260028401546040808701829052600386015460ff16151560608089018290526004909701546080988901819052825196875293860194909452840152928201529182015260a090f35b905094610d22565b8196610d1a565b50346103f65760a03660031901126103f657610dda612723565b610de2612739565b610dea612761565b608435939091906001600160a01b03851685036103f6576020610e12866064358686896130b4565b604051908152f35b50346103f65760603660031901126103f65767ffffffffffffffff602435818111610ebe57610e4d9036906004016127f2565b90604435928311610eba57610e69610e749336906004016127f2565b929091600435612d39565b906040519182916020808401906020855283518092526020604086019401925b828110610ea357505050500390f35b835185528695509381019392810192600101610e94565b8380fd5b8280fd5b50346103f65760808060031936011261031e57610edd612723565b90610ee661274f565b60643590610ef2613378565b6001600160a01b03841685526005602052604085205460ff1615610354576044351561034357611388821161174857606462ffffff8216141580611737575b80611726575b80611715575b611703578060206001600160a01b037f000000000000000000000000000000000000000000000000000000000000000081169087161080156116dc5786905b156116d5577f0000000000000000000000000000000000000000000000000000000000000000905b610fc26040519485938493630b4c774160e11b855260048501612a53565b03817f00000000000000000000000000000000000000000000000000000000000000006001600160a01b03165afa9081156116ca5786916116ab575b506001600160a01b031615611699576040516370a0823160e01b81523360048201526024939060208186816001600160a01b038a165afa9081156102f0578791611667575b5060443581106116475750604051636eb1769f60e11b80825233600483015230602483015293906020816044816001600160a01b038b165afa90811561163c57889161160a575b5060443581106115ea5750611110826040516110a581612823565b6001600160a01b0389811682527f000000000000000000000000000000000000000000000000000000000000000016602082015260443560408083019190915262ffffff871660608301528282018b905251636352813560e11b8152928391829190600483016128f9565b03818b7f00000000000000000000000000000000000000000000000000000000000000006001600160a01b03165af18891816115b8575b506115b3575060443560011b60443581046002036115a0575b6127109182039182116115a057906111779161296c565b506040516323b872dd60e01b815233600482015230602482015260448035908201526020816064818a6001600160a01b038b165af180156102f057611567575b506040519283523060048401527f00000000000000000000000000000000000000000000000000000000000000006001600160a01b03166024840181905292602081806044810103816001600160a01b038a165afa9081156102f0578791611535575b506044358110611441575b5061038442019081421161142e578694929385946020936112c89362ffffff6040519361125185612853565b60018060a01b038c16855260018060a01b037f0000000000000000000000000000000000000000000000000000000000000000168886015216604084015230606084015282015260443560a08201528560c08201528560e082015260405196878094819363414bf38960e01b8352600483016129b9565b03925af19283156103135782936113f2575b507f00000000000000000000000000000000000000000000000000000000000000006001600160a01b03163b1561031e57604051632e1a7d4d60e01b815260048101849052908290829081837f00000000000000000000000000000000000000000000000000000000000000006001600160a01b03165af18015610313576113de575b5080808084335af161136d612c83565b50156104a15760408051604435815260208101929092526001600160a01b037f0000000000000000000000000000000000000000000000000000000000000000811693169133917fd36cc53ba71bc76a3db3364981f5296dd4ca5eba0e8c89874f2170515bd20d2491a46001805580f35b6113e79061283f565b610ebe57823861135d565b915091506020813d602011611426575b8161140f6020938361288c565b810103126114215783905191386112da565b600080fd5b3d9150611402565b634e487b7160e01b875260116004528487fd5b6114be575b60405163095ea7b360e01b81526001600160a01b03848116600483015260448035602484015260209183919082908b908b165af180156102f05715611225576020813d6020116114b6575b8161149e6020938361288c565b8101031261030f576114af9061299f565b5038611225565b3d9150611491565b60405163095ea7b360e01b8152600481018490528481018790526020816044818a6001600160a01b038b165af180156102f0576114fc575b50611446565b6020813d60201161152d575b816115156020938361288c565b8101031261030f576115269061299f565b50386114f6565b3d9150611508565b90506020813d60201161155f575b816115506020938361288c565b8101031261142157513861121a565b3d9150611543565b6020813d602011611598575b816115806020938361288c565b8101031261030f576115919061299f565b50386111b7565b3d9150611573565b634e487b7160e01b885260116004528588fd5b611160565b6115d9919250843d86116115e3575b6115d1818361288c565b8101906128c2565b5050509038611147565b503d6115c7565b604051631555006160e11b81526004810191909152604480358288015290fd5b90506020813d602011611634575b816116256020938361288c565b8101031261142157513861108a565b3d9150611618565b6040513d8a823e3d90fd5b604051631555006160e11b81526004810191909152604480358287015290fd5b90506020813d602011611691575b816116826020938361288c565b81010312611421575138611043565b3d9150611675565b60405163899c886160e01b8152600490fd5b6116c4915060203d602011610c0157610bf2818361288c565b38610ffe565b6040513d88823e3d90fd5b8690610fa4565b7f000000000000000000000000000000000000000000000000000000000000000090610f7c565b6040516342a83cdd60e01b8152600490fd5b5061271062ffffff82161415610f3d565b50610bb862ffffff82161415610f37565b506101f462ffffff82161415610f31565b6040516312000fe360e11b8152600490fd5b50346103f65760203660031901126103f6576080906040906001600160a01b03611782612723565b1681526004602052208054906001810154906003600282015491015491604051938452602084015260408301526060820152f35b506117c036612773565b906117cc939293613378565b60018060a01b0393848116928385526020956005875260ff604087205416156103545761138882116117485762ffffff841691606483141580611c95575b80611c89575b80611c7d575b611703577f00000000000000000000000000000000000000000000000000000000000000009488838716968888109081600014611c765780915b15611c70575086905b6118776040519485938493630b4c774160e11b855260048501612a53565b0381867f0000000000000000000000000000000000000000000000000000000000000000165afa90811561163c579083918991611c53575b501615611699576118fa60806040516118c781612823565b878152888b820152346040820152856060820152898282015260405180938192636352813560e11b8352600483016128f9565b03818b877f0000000000000000000000000000000000000000000000000000000000000000165af1889181611c2f575b50611a095788888060033d116119f9575b6308c379a01461198c575b604051639f9516d160e01b815260048101839052601960248201527f556e6b6e6f776e206572726f7220696e2051756f7465725632000000000000006044820152606490fd5b611994612c14565b90816119a05750611946565b604051928391639f9516d160e01b8352816004840152835191826024850152815b8381106119e257505060448094508284010152601f80199101168101030190fd5b8086018201518782016044015286945081016119c1565b50600481803e805160e01c61193b565b9794959697612710918203918211611c1b5790611a259161296c565b50843b1561030f57604051630d0e30db60e41b815287908181600481348b5af1801561031357611c07575b505060405163095ea7b360e01b81526001600160a01b037f0000000000000000000000000000000000000000000000000000000000000000929092169182166004820152346024820152848180604481015b03818b8a5af1801561163c57611bcf575b5061012c4201804211611bbb57918491611b1a949360405192611ad584612853565b8884528985850152604084015233606084015260808301523460a08301528860c08301528860e0830152604051808096819463414bf38960e01b8352600483016129b9565b039134905af19182156116ca578692611b8a575b50611b3890613412565b8385526004825260026040862001611b513482546129ac565b9055604051913483528201527fd36cc53ba71bc76a3db3364981f5296dd4ca5eba0e8c89874f2170515bd20d2460403392a46001805580f35b9091508281813d8311611bb4575b611ba2818361288c565b81010312611421575190611b38611b2e565b503d611b98565b634e487b7160e01b88526011600452602488fd5b8481813d8311611c00575b611be4818361288c565b81010312611bfc57611bf59061299f565b5038611ab3565b8780fd5b503d611bda565b611c109061283f565b61030f578638611a50565b634e487b7160e01b89526011600452602489fd5b611c4991925060803d6080116115e3576115d1818361288c565b505050903861192a565b611c6a91508a3d8c11610c0157610bf2818361288c565b386118af565b90611859565b8791611850565b50612710831415611816565b50610bb8831415611810565b506101f483141561180a565b50346103f65760803660031901126103f6576020610e12611cc0612723565b611cc8612739565b611cd0612761565b9060643592612a79565b50611ce4366127a9565b909193611cef613378565b6001600160a01b03848116948282169486861091839083156121485785935b1561214057925b1691828a52602093600385528060408c2092169182600052855262ffffff60406000209a16998a600052855260ff60036040600020015416156103225782158015612138575b610343576040516323b872dd60e01b808252336004830152306024830152604482018590528c8783606481848f5af180156120b85788928b928e926120f9575b604051918252336004830152306024830152604482019390935293508391829081606481015b03925af1801561206e576120c5575b5060405163095ea7b360e01b8082527f0000000000000000000000000000000000000000000000000000000000000000929092166001600160a01b03811660048301526024820185905294918c8783604481848f5af180156120b85788928b928e92612079575b6040519182526001600160a01b038a166004830152602482019390935293508391829081604481015b03925af1801561206e57612036575b508a526003845260408a20906000528352604060002088600052835260406000205461012c420192834211612022576040519060c082019082821067ffffffffffffffff83111761200c5760609560c4948e93604052845287840195865260408401998a52868401838152608085019084825260a086019283526040519b8c98899763219f5d1760e01b89525160048901525160248801525160448701525160648601525160848501525160a48401525af19182156102f057879388928994611f95575b50507f66f68636a37c16d9b851b4467d85bfdc07b98135fc5f50b62510198bd458946893611f63611f8b92613412565b604051938493849160409194936001600160801b039160608501968552602085015216910152565b0390a46001805580f35b9250935091506060833d606011612004575b81611fb46060938361288c565b8101031261030f57611f8b83611f636040611fef7f66f68636a37c16d9b851b4467d85bfdc07b98135fc5f50b62510198bd458946897612a20565b94830151920151939193949250819550611f33565b3d9150611fa7565b634e487b7160e01b600052604160045260246000fd5b634e487b7160e01b8b52601160045260248bfd5b8581813d8311612067575b61204b818361288c565b810103126120635761205c9061299f565b5038611e6f565b8b80fd5b503d612041565b6040513d8e823e3d90fd5b925092905083813d83116120b1575b612092818361288c565b810103126103f6578b88928b926120ab611e609661299f565b50611e37565b503d612088565b50604051903d90823e3d90fd5b8581813d83116120f2575b6120da818361288c565b81010312612063576120eb9061299f565b5038611dd0565b503d6120d0565b925092905083813d8311612131575b612112818361288c565b810103126103f6578b88928b9261212b611dc19661299f565b50611d9b565b503d612108565b508615611d5b565b508492611d15565b8093611d0e565b50346103f65761215e36612773565b612169929192613378565b60018060a01b0392838316928386526020916005835260ff6040882054161561035457831561034357857f00000000000000000000000000000000000000000000000000000000000000001695612201608062ffffff604051946121cc86612823565b8986528a8887015288604087015216938460608201528a8282015260405180938192636352813560e11b8352600483016128f9565b03818c867f0000000000000000000000000000000000000000000000000000000000000000165af1899181612543575b506122485760405163507864b360e11b8152600490fd5b6122519061293f565b506040516370a0823160e01b8082523360048301529085816024818b5afa80156125385787918b91612507575b501061248857506040516323b872dd60e01b81523360048201523060248201526044810186905284816064818c8b5af1801561092157612454575b5060405163095ea7b360e01b81527f0000000000000000000000000000000000000000000000000000000000000000919091166001600160a01b038116600483015260248201869052919084816044818c8b5af1801561092157612420575b5061012c4201804211611c1b57849392899592612382926040519161233c83612853565b8a83528b86840152604083015233606083015260808201528760a08201528660c08201528660e082015260405196878094819363414bf38960e01b8352600483016129b9565b03925af19283156102f05787936123ef575b5061239e90613412565b83865260048152600260408720016123b78382546129ac565b90556040519283528201527fd36cc53ba71bc76a3db3364981f5296dd4ca5eba0e8c89874f2170515bd20d2460403392a46001805580f35b9092508181813d8311612419575b612407818361288c565b8101031261142157519161239e612394565b503d6123fd565b8481813d831161244d575b612435818361288c565b81010312610916576124469061299f565b5038612318565b503d61242b565b8481813d8311612481575b612469818361288c565b810103126109165761247a9061299f565b50386122b9565b503d61245f565b60405190815233600482015288868680846024818d5afa9283156124fb57926124ca575b6044838360405191631555006160e11b835260048301526024820152fd5b90915082813d83116124f4575b6124e1818361288c565b81010312611421576044915190836124ac565b503d6124d7565b604051903d90823e3d90fd5b809250878092503d8311612531575b612520818361288c565b81010312611421578690513861227e565b503d612516565b6040513d8c823e3d90fd5b61255d91925060803d6080116115e3576115d1818361288c565b5050509038612231565b5060403660031901126103f65761257c612723565b61258461274f565b61258c613378565b60018060a01b0390818316928385526020916005835260ff6040872054161561035457837f0000000000000000000000000000000000000000000000000000000000000000169361261e608062ffffff604051946125e986612823565b88865289888701523460408701521693846060820152898282015260405180938192636352813560e11b8352600483016128f9565b03818b867f0000000000000000000000000000000000000000000000000000000000000000165af18891816126ff575b506126655760405163507864b360e11b8152600490fd5b61266e9061293f565b50843b1561030f57604051630d0e30db60e41b81528781600481348a5af1801561163c576126ec575b5060405163095ea7b360e01b81526001600160a01b037f000000000000000000000000000000000000000000000000000000000000000092909216918216600482015234602482015284818060448101611aa2565b6126f89097919761283f565b9538612697565b61271991925060803d6080116115e3576115d1818361288c565b505050903861264e565b600435906001600160a01b038216820361142157565b602435906001600160a01b038216820361142157565b6024359062ffffff8216820361142157565b6044359062ffffff8216820361142157565b6060906003190112611421576004356001600160a01b0381168103611421579060243562ffffff81168103611421579060443590565b60a0906003190112611421576001600160a01b0390600435828116810361142157916024359081168103611421579060443562ffffff8116810361142157906064359060843590565b9181601f840112156114215782359167ffffffffffffffff8311611421576020808501948460051b01011161142157565b60a0810190811067ffffffffffffffff82111761200c57604052565b67ffffffffffffffff811161200c57604052565b610100810190811067ffffffffffffffff82111761200c57604052565b6080810190811067ffffffffffffffff82111761200c57604052565b90601f8019910116810190811067ffffffffffffffff82111761200c57604052565b51906001600160a01b038216820361142157565b9190826080910312611421578151916128dd602082016128ae565b91604082015163ffffffff811681036114215760609092015190565b919091608060a08201938160018060a01b03918281511685528260208201511660208601526040810151604086015262ffffff6060820151166060860152015116910152565b9061251c9182810292818404149015171561295657565b634e487b7160e01b600052601160045260246000fd5b8181029291811591840414171561295657565b8115612989570490565b634e487b7160e01b600052601260045260246000fd5b5190811515820361142157565b9190820180921161295657565b91909160e06101008201938160018060a01b039182815116855282602082015116602086015262ffffff60408201511660408601528260608201511660608601526080810151608086015260a081015160a086015260c081015160c0860152015116910152565b51906001600160801b038216820361142157565b9081602091031261142157516001600160a01b03811681036114215790565b6001600160a01b0391821681529116602082015262ffffff909116604082015260600190565b9092906001600160a01b03908181169081158015612c0a575b61099b5783156103435760208591848816978885109182600014612c035780925b15612bfb5750905b612ad96040519485938493630b4c774160e11b855260048501612a53565b0381867f0000000000000000000000000000000000000000000000000000000000000000165afa8015612bef578391600091612bd0575b501615612bc65762ffffff608094612b659460009760405194612b3286612823565b8552602085015260408401521660608201528484820152604051948580948193636352813560e11b8352600483016128f9565b03927f0000000000000000000000000000000000000000000000000000000000000000165af160009181612ba2575b50612b9f5750600090565b90565b612bbc91925060803d6080116115e3576115d1818361288c565b5050509038612b94565b5050505050600090565b612be9915060203d602011610c0157610bf2818361288c565b38612b10565b6040513d6000823e3d90fd5b905090612abb565b8192612ab3565b5082861615612a92565b600060443d10612b9f57604051600319913d83016004833e815167ffffffffffffffff918282113d602484011117612c7257818401948551938411612c7a573d85010160208487010111612c725750612b9f9291016020019061288c565b949350505050565b50949350505050565b3d15612cbe573d9067ffffffffffffffff821161200c5760405191612cb2601f8201601f19166020018461288c565b82523d6000602084013e565b606090565b9190811015612cd35760051b0190565b634e487b7160e01b600052603260045260246000fd5b356001600160a01b03811681036114215790565b67ffffffffffffffff811161200c5760051b60200190565b8051821015612cd35760209160051b010190565b3562ffffff811681036114215790565b93909192600284106130a2578360001981011161295657818403600019016130905760005b8481106130015750612d6f84612cfd565b94612d7d604051968761288c565b848652612d8985612cfd565b6020870190601f1901368237865115612cd3575260009291905b84600019810111612956576000198501841015612ff957612dcd612dc8858786612cc3565b612ce9565b93600181019485821161295657612de8612dc8878988612cc3565b906001600160a01b03808316908216108015612ff25781905b15612fea576020835b612e1d612e18878a8a612cc3565b612d29565b92612e3c6040519485938493630b4c774160e11b855260048501612a53565b03817f00000000000000000000000000000000000000000000000000000000000000006001600160a01b03165afa908115612bef57600091612fcb575b506001600160a01b031615612fa25762ffffff612efe92612e9e612e18868989612cc3565b90612ea9868d612d15565b519060405194612eb886612823565b60018060a01b0316855260018060a01b0316602085015260408401521660608201526080816000828094015260405180948192636352813560e11b8352600483016128f9565b038160007f00000000000000000000000000000000000000000000000000000000000000006001600160a01b03165af1918291600093612f80575b5050612f675750505050505b818110612f5157505090565b806000612f6060019386612d15565b5201612f45565b612f7660019394959689612d15565b5201929190612da3565b612f97929350803d106115e3576115d1818361288c565b505050903880612f39565b5050505050505b818110612fb557505090565b806000612fc460019386612d15565b5201612fa9565b612fe4915060203d602011610c0157610bf2818361288c565b38612e79565b602082612e0a565b8290612e01565b505050505090565b6001600160a01b0380613018612dc8848989612cc3565b16600052600560205260409060ff826000205416159081613052575b506130425750600101612d5e565b51631934ad6160e01b8152600490fd5b9050613062612dc8848989612cc3565b90807f0000000000000000000000000000000000000000000000000000000000000000169116141538613034565b6040516397cc7f9560e01b8152600490fd5b604051631225bcdd60e01b8152600490fd5b90936001600160a01b039384831693929084158015613345575b61099b57801561034357600096858852600560205260409460ff868a2054161580613332575b80613306575b806132d8575b6132c75762ffffff8116936064851415806132bb575b806132af575b806132a3575b6132925760209089841693848a10918260001461328b5780925b156132835750905b61316189519485938493630b4c774160e11b855260048501612a53565b03818b7f0000000000000000000000000000000000000000000000000000000000000000165afa908115613279579088918a9161325a575b501615613249579580936080969386938a996131e99851966131ba88612823565b87526020870152848601526060850152168583015251948580948193636352813560e11b8352600483016128f9565b03927f0000000000000000000000000000000000000000000000000000000000000000165af1829181613225575b50613220575090565b905090565b61323f91925060803d6080116115e3576115d1818361288c565b5050509038613217565b845163899c886160e01b8152600490fd5b613273915060203d602011610c0157610bf2818361288c565b38613199565b86513d8b823e3d90fd5b905090613144565b819261313c565b86516342a83cdd60e01b8152600490fd5b50612710851415613122565b50610bb885141561311c565b506101f4851415613116565b8551631934ad6160e01b8152600490fd5b50877f0000000000000000000000000000000000000000000000000000000000000000168883161415613100565b50877f0000000000000000000000000000000000000000000000000000000000000000168714156130fa565b50878216895260ff868a205416156130f4565b50858716156130ce565b6001600160a01b0316801561099b5760005260056020526040600020600160ff19825416179055565b600260015414613389576002600155565b604051633ee5aeb560e01b8152600490fd5b519061ffff8216820361142157565b908160e0910312611421576133be816128ae565b9160208201518060020b810361142157916133db6040820161339b565b916133e86060830161339b565b916133f56080820161339b565b9160a082015160ff811681036114215760c0612b9f91930161299f565b6001600160a01b0381811691907f000000000000000000000000000000000000000000000000000000000000000080821684109081156136cb57835b82156136c35750905b60409280845193630b4c774160e11b8552816004971687860152166024840152610bb860448401526020928381606481857f0000000000000000000000000000000000000000000000000000000000000000165afa908115613692579082916000916136a6575b5016801561369d5760e08691865192838092633850c7bd851b82525afa9081156136925760009161365d575b5060009215613626576134ff9250168061296c565b670de0b6b3a7640000908181029181830414901517156136115760c01c905b82516318160ddd60e01b81529381858281895afa948515613606576000956135d6575b506003670de0b6b3a76400006135787fb556fac599c3c70efb9ab1fa725ecace6c81cc48d1455f886607def065f3e0c0978661296c565b0487600052828452600286600020015486519361359485612870565b86855285850190428252888601928352606086019384528a600052865287600020945185555160018501555160028401555191015582519182524290820152a2565b94508185813d83116135ff575b6135ed818361288c565b81010312611421579351936003613541565b503d6135e3565b84513d6000823e3d90fd5b601184634e487b7160e01b6000525260246000fd5b61363191168061296c565b90811561364a57506503782dace9d960d21b049061351e565b634e487b7160e01b815260128552602490fd5b61367f915060e03d60e01161368b575b613677818361288c565b8101906133aa565b505050505050386134ea565b503d61366d565b85513d6000823e3d90fd5b50505050505050565b6136bd9150853d8711610c0157610bf2818361288c565b386134be565b905090613457565b809361344e565b6000546001600160a01b031633036136e657565b60405163118cdaa760e01b8152336004820152602490fd5b60020b60011b908160020b91820361295657565b9060020b9060020b02908160020b91820361295657565b60020b9060020b90811561298957627fffff198114600019831416612956570590565b9395946001600160a01b038281169086161094936000928615613e5957855b8715613e515750955b15613e4c57965b604051630b4c774160e11b8152977f00000000000000000000000000000000000000000000000000000000000000006001600160a01b031660208a806137c6898c8c60048501612a53565b0381845afa998a15612bef5760009a613e2b575b506001600160a01b038a1615613d37575b5060405163095ea7b360e01b81527f00000000000000000000000000000000000000000000000000000000000000006001600160a01b031660048201526024810182905260208180604481010381886001600160a01b038c165af18015613cf357613cfe575b5060405163095ea7b360e01b81527f00000000000000000000000000000000000000000000000000000000000000006001600160a01b031660048201526024810183905260208180604481010381886001600160a01b038d165af18015613cf357613caa575b50604051633850c7bd60e01b815297989697959660e090879060049082906001600160a01b03165afa958615613c9f578496613c77575b506138f885613e60565b613901816136fe565b9660020b9660020b8703627fffff80199181811383821217611bbb578361392b8161393093613729565b613712565b9861393a846136fe565b60020b0191821290821317613c63579061392b8161395793613729565b61012c42014211613c4f57604051968761016081011067ffffffffffffffff6101608a01111761200c57610160880160405260018060a01b038916885260018060a01b038a16602089015262ffffff8716604089015260020b606088015260020b608087015260a086015260c08501528160e0850152816101008501523061012085015261012c420161014085015261014060405194634418b22b60e11b865260018060a01b03815116600487015260018060a01b03602082015116602487015262ffffff6040820151166044870152606081015160020b6064870152608081015160020b608487015260a081015160a487015260c081015160c487015260e081015160e487015261010081015161010487015260018060a01b03610120820151166101248701520151610144850152608084610164818560018060a01b037f0000000000000000000000000000000000000000000000000000000000000000165af190811561031357828380968194613bfb575b5062278d004201804211613be757613be29362ffffff969360048b7fa12f7d42aa572c92b5e0ba50a30cacd389bb68257862ca2b55065b7030a860649a9895613ba9958f60405195613b1d87612823565b865260208601906001600160801b038b168252604087019283526040606088019460018652608089019642885260018060a01b031681526003602052209060018060a01b031660005260205260406000208d8d16600052602052604060002095518655516001860155516002850155600384019051151560ff8019835416911617905551910155613412565b6040805197885260208801919091526001600160801b03909116908601529116946001600160a01b039081169416929081906060820190565b0390a4565b634e487b7160e01b82526011600452602482fd5b945092505093506080823d608011613c47575b81613c1b6080938361288c565b810103126103f657815193613c3260208401612a20565b60606040850151940151959093959238613acc565b3d9150613c0e565b634e487b7160e01b85526011600452602485fd5b634e487b7160e01b86526011600452602486fd5b613c9191965060e03d60e01161368b57613677818361288c565b5050505050905094386138ee565b6040513d86823e3d90fd5b6020813d602011613ceb575b81613cc36020938361288c565b81010312613ce757600496979899613cdc60e09261299f565b5099989796506138b7565b8480fd5b3d9150613cb6565b6040513d87823e3d90fd5b6020813d602011613d2f575b81613d176020938361288c565b81010312613ce757613d289061299f565b5038613851565b3d9150613d0a565b60405163a167129560e01b815299506020908a9081600081613d5e8b8e8e60048501612a53565b03925af1988915612bef57600099613e0a575b5088600160601b606084901b8415858204831417156129565783613d949161297f565b8060601b918183041490151715612956576001600160a01b0390613db790613ea3565b6001600160a01b039092169116813b156114215760009160248392604051948593849263f637731d60e01b845260048401525af18015612bef57156137eb57613e0191945061283f565b600092386137eb565b613e2491995060203d602011610c0157610bf2818361288c565b9738613d71565b613e45919a5060203d602011610c0157610bf2818361288c565b98386137da565b61377b565b905095613774565b809561376b565b62ffffff1660648114613e9d576101f48114613e9757610bb88114613e915761271014613e8c57603c90565b60c890565b50603c90565b50600a90565b50600190565b8015613ee85760018082018083116129565760011c90825b838310613ec85750505090565b90919250613edf83613eda818461297f565b6129ac565b821c9190613ebb565b5060009056fea26469706673582212202fd5e77dc31938ed0e4eaf193a8861d3aafed1f7367568cc2fea2a9cdc24c62264736f6c63430008180033",
  "linkReferences": {},
  "deployedLinkReferences": {}
}