{
  "_format": "hh-sol-artifact-1",
  "contractName": "PumpFunDEXManager",
  "sourceName": "contracts/PumpFunDEXManager.sol",
  "abi": [
    {
      "inputs": [
        {
          "internalType": "address",
          "name": "_swapRouter",
          "type": "address"
        },
        {
          "internalType": "address",
          "name": "_positionManager",
          "type": "address"
        },
        {
          "internalType": "address",
          "name": "_uniswapV3Factory",
          "type": "address"
        },
        {
          "internalType": "address",
          "name": "_quoter",
          "type": "address"
        },
        {
          "internalType": "address",
          "name": "_weth",
          "type": "address"
        }
      ],
      "stateMutability": "nonpayable",
      "type": "constructor"
    },
    {
      "inputs": [
        {
          "internalType": "address",
          "name": "owner",
          "type": "address"
        }
      ],
      "name": "OwnableInvalidOwner",
      "type": "error"
    },
    {
      "inputs": [
        {
          "internalType": "address",
          "name": "account",
          "type": "address"
        }
      ],
      "name": "OwnableUnauthorizedAccount",
      "type": "error"
    },
    {
      "inputs": [],
      "name": "PumpFunDEXManager__DeadlineExpired",
      "type": "error"
    },
    {
      "inputs": [],
      "name": "PumpFunDEXManager__InsufficientLiquidity",
      "type": "error"
    },
    {
      "inputs": [],
      "name": "PumpFunDEXManager__InvalidAmount",
      "type": "error"
    },
    {
      "inputs": [],
      "name": "PumpFunDEXManager__InvalidTokenAddress",
      "type": "error"
    },
    {
      "inputs": [],
      "name": "PumpFunDEXManager__LiquidityLocked",
      "type": "error"
    },
    {
      "inputs": [],
      "name": "PumpFunDEXManager__PairAlreadyExists",
      "type": "error"
    },
    {
      "inputs": [],
      "name": "PumpFunDEXManager__SlippageExceeded",
      "type": "error"
    },
    {
      "inputs": [],
      "name": "PumpFunDEXManager__UnauthorizedToken",
      "type": "error"
    },
    {
      "inputs": [],
      "name": "ReentrancyGuardReentrantCall",
      "type": "error"
    },
    {
      "anonymous": false,
      "inputs": [
        {
          "indexed": true,
          "internalType": "address",
          "name": "token0",
          "type": "address"
        },
        {
          "indexed": true,
          "internalType": "address",
          "name": "token1",
          "type": "address"
        },
        {
          "indexed": true,
          "internalType": "uint24",
          "name": "fee",
          "type": "uint24"
        },
        {
          "indexed": false,
          "internalType": "uint256",
          "name": "amount0",
          "type": "uint256"
        },
        {
          "indexed": false,
          "internalType": "uint256",
          "name": "amount1",
          "type": "uint256"
        },
        {
          "indexed": false,
          "internalType": "uint256",
          "name": "liquidity",
          "type": "uint256"
        }
      ],
      "name": "LiquidityAdded",
      "type": "event"
    },
    {
      "anonymous": false,
      "inputs": [
        {
          "indexed": true,
          "internalType": "address",
          "name": "token0",
          "type": "address"
        },
        {
          "indexed": true,
          "internalType": "address",
          "name": "token1",
          "type": "address"
        },
        {
          "indexed": true,
          "internalType": "uint24",
          "name": "fee",
          "type": "uint24"
        },
        {
          "indexed": false,
          "internalType": "uint256",
          "name": "amount0",
          "type": "uint256"
        },
        {
          "indexed": false,
          "internalType": "uint256",
          "name": "amount1",
          "type": "uint256"
        },
        {
          "indexed": false,
          "internalType": "uint256",
          "name": "liquidity",
          "type": "uint256"
        }
      ],
      "name": "LiquidityPoolCreated",
      "type": "event"
    },
    {
      "anonymous": false,
      "inputs": [
        {
          "indexed": true,
          "internalType": "address",
          "name": "token0",
          "type": "address"
        },
        {
          "indexed": true,
          "internalType": "address",
          "name": "token1",
          "type": "address"
        },
        {
          "indexed": true,
          "internalType": "uint24",
          "name": "fee",
          "type": "uint24"
        },
        {
          "indexed": false,
          "internalType": "uint256",
          "name": "amount0",
          "type": "uint256"
        },
        {
          "indexed": false,
          "internalType": "uint256",
          "name": "amount1",
          "type": "uint256"
        }
      ],
      "name": "LiquidityRemoved",
      "type": "event"
    },
    {
      "anonymous": false,
      "inputs": [
        {
          "indexed": true,
          "internalType": "address",
          "name": "previousOwner",
          "type": "address"
        },
        {
          "indexed": true,
          "internalType": "address",
          "name": "newOwner",
          "type": "address"
        }
      ],
      "name": "OwnershipTransferred",
      "type": "event"
    },
    {
      "anonymous": false,
      "inputs": [
        {
          "indexed": true,
          "internalType": "address",
          "name": "token",
          "type": "address"
        },
        {
          "indexed": false,
          "internalType": "uint256",
          "name": "price",
          "type": "uint256"
        },
        {
          "indexed": false,
          "internalType": "uint256",
          "name": "timestamp",
          "type": "uint256"
        }
      ],
      "name": "PriceUpdated",
      "type": "event"
    },
    {
      "anonymous": false,
      "inputs": [
        {
          "indexed": true,
          "internalType": "address",
          "name": "user",
          "type": "address"
        },
        {
          "indexed": true,
          "internalType": "address",
          "name": "tokenIn",
          "type": "address"
        },
        {
          "indexed": true,
          "internalType": "address",
          "name": "tokenOut",
          "type": "address"
        },
        {
          "indexed": false,
          "internalType": "uint256",
          "name": "amountIn",
          "type": "uint256"
        },
        {
          "indexed": false,
          "internalType": "uint256",
          "name": "amountOut",
          "type": "uint256"
        }
      ],
      "name": "TokenSwapped",
      "type": "event"
    },
    {
      "stateMutability": "payable",
      "type": "fallback"
    },
    {
      "inputs": [],
      "name": "MIN_LIQUIDITY_ETH",
      "outputs": [
        {
          "internalType": "uint256",
          "name": "",
          "type": "uint256"
        }
      ],
      "stateMutability": "view",
      "type": "function"
    },
    {
      "inputs": [],
      "name": "PRICE_UPDATE_INTERVAL",
      "outputs": [
        {
          "internalType": "uint256",
          "name": "",
          "type": "uint256"
        }
      ],
      "stateMutability": "view",
      "type": "function"
    },
    {
      "inputs": [],
      "name": "SLIPPAGE_TOLERANCE",
      "outputs": [
        {
          "internalType": "uint256",
          "name": "",
          "type": "uint256"
        }
      ],
      "stateMutability": "view",
      "type": "function"
    },
    {
      "inputs": [],
      "name": "WETH",
      "outputs": [
        {
          "internalType": "address",
          "name": "",
          "type": "address"
        }
      ],
      "stateMutability": "view",
      "type": "function"
    },
    {
      "inputs": [
        {
          "internalType": "address",
          "name": "token0",
          "type": "address"
        },
        {
          "internalType": "address",
          "name": "token1",
          "type": "address"
        },
        {
          "internalType": "uint24",
          "name": "fee",
          "type": "uint24"
        },
        {
          "internalType": "uint256",
          "name": "tokenAmount0",
          "type": "uint256"
        },
        {
          "internalType": "uint256",
          "name": "tokenAmount1",
          "type": "uint256"
        }
      ],
      "name": "addLiquidity",
      "outputs": [],
      "stateMutability": "payable",
      "type": "function"
    },
    {
      "inputs": [
        {
          "internalType": "address",
          "name": "token",
          "type": "address"
        }
      ],
      "name": "authorizeToken",
      "outputs": [],
      "stateMutability": "nonpayable",
      "type": "function"
    },
    {
      "inputs": [
        {
          "internalType": "address",
          "name": "token",
          "type": "address"
        }
      ],
      "name": "authorizeTokenFromFactory",
      "outputs": [],
      "stateMutability": "nonpayable",
      "type": "function"
    },
    {
      "inputs": [
        {
          "internalType": "address",
          "name": "",
          "type": "address"
        }
      ],
      "name": "authorizedTokens",
      "outputs": [
        {
          "internalType": "bool",
          "name": "",
          "type": "bool"
        }
      ],
      "stateMutability": "view",
      "type": "function"
    },
    {
      "inputs": [
        {
          "internalType": "address",
          "name": "tokenA",
          "type": "address"
        },
        {
          "internalType": "address",
          "name": "tokenB",
          "type": "address"
        },
        {
          "internalType": "uint24",
          "name": "fee",
          "type": "uint24"
        },
        {
          "internalType": "uint256",
          "name": "amountA",
          "type": "uint256"
        },
        {
          "internalType": "uint256",
          "name": "amountB",
          "type": "uint256"
        }
      ],
      "name": "createLiquidityPool",
      "outputs": [],
      "stateMutability": "nonpayable",
      "type": "function"
    },
    {
      "inputs": [
        {
          "internalType": "address",
          "name": "token",
          "type": "address"
        },
        {
          "internalType": "uint24",
          "name": "fee",
          "type": "uint24"
        },
        {
          "internalType": "uint256",
          "name": "tokenAmount",
          "type": "uint256"
        }
      ],
      "name": "createLiquidityPoolWithETH",
      "outputs": [],
      "stateMutability": "payable",
      "type": "function"
    },
    {
      "inputs": [],
      "name": "factory",
      "outputs": [
        {
          "internalType": "address",
          "name": "",
          "type": "address"
        }
      ],
      "stateMutability": "view",
      "type": "function"
    },
    {
      "inputs": [
        {
          "internalType": "uint256",
          "name": "amountIn",
          "type": "uint256"
        },
        {
          "internalType": "address[]",
          "name": "path",
          "type": "address[]"
        },
        {
          "internalType": "uint24[]",
          "name": "fees",
          "type": "uint24[]"
        }
      ],
      "name": "getAmountsOutMultiHop",
      "outputs": [
        {
          "internalType": "uint256[]",
          "name": "amounts",
          "type": "uint256[]"
        }
      ],
      "stateMutability": "view",
      "type": "function"
    },
    {
      "inputs": [
        {
          "internalType": "address",
          "name": "tokenIn",
          "type": "address"
        },
        {
          "internalType": "address",
          "name": "tokenOut",
          "type": "address"
        },
        {
          "internalType": "uint24",
          "name": "fee",
          "type": "uint24"
        },
        {
          "internalType": "uint256",
          "name": "amountIn",
          "type": "uint256"
        }
      ],
      "name": "getAmountsOutSingleHop",
      "outputs": [
        {
          "internalType": "uint256",
          "name": "amountOut",
          "type": "uint256"
        }
      ],
      "stateMutability": "view",
      "type": "function"
    },
    {
      "inputs": [
        {
          "internalType": "address",
          "name": "token0",
          "type": "address"
        },
        {
          "internalType": "address",
          "name": "token1",
          "type": "address"
        },
        {
          "internalType": "uint24",
          "name": "fee",
          "type": "uint24"
        }
      ],
      "name": "getPoolAddress",
      "outputs": [
        {
          "internalType": "address",
          "name": "",
          "type": "address"
        }
      ],
      "stateMutability": "view",
      "type": "function"
    },
    {
      "inputs": [
        {
          "internalType": "address",
          "name": "token0",
          "type": "address"
        },
        {
          "internalType": "address",
          "name": "token1",
          "type": "address"
        },
        {
          "internalType": "uint24",
          "name": "fee",
          "type": "uint24"
        }
      ],
      "name": "getPoolInfo",
      "outputs": [
        {
          "internalType": "uint256",
          "name": "tokenId",
          "type": "uint256"
        },
        {
          "internalType": "uint256",
          "name": "liquidity",
          "type": "uint256"
        },
        {
          "internalType": "uint256",
          "name": "lockExpiry",
          "type": "uint256"
        },
        {
          "internalType": "bool",
          "name": "isActive",
          "type": "bool"
        },
        {
          "internalType": "uint256",
          "name": "createdAt",
          "type": "uint256"
        }
      ],
      "stateMutability": "view",
      "type": "function"
    },
    {
      "inputs": [
        {
          "internalType": "address",
          "name": "token",
          "type": "address"
        }
      ],
      "name": "getTokenPrice",
      "outputs": [
        {
          "internalType": "uint256",
          "name": "price",
          "type": "uint256"
        },
        {
          "internalType": "uint256",
          "name": "lastUpdated",
          "type": "uint256"
        }
      ],
      "stateMutability": "view",
      "type": "function"
    },
    {
      "inputs": [
        {
          "internalType": "address",
          "name": "token",
          "type": "address"
        }
      ],
      "name": "getTokenStats",
      "outputs": [
        {
          "internalType": "uint256",
          "name": "price",
          "type": "uint256"
        },
        {
          "internalType": "uint256",
          "name": "marketCap",
          "type": "uint256"
        },
        {
          "internalType": "uint256",
          "name": "volume24h",
          "type": "uint256"
        },
        {
          "internalType": "uint256",
          "name": "liquidity",
          "type": "uint256"
        },
        {
          "internalType": "bool",
          "name": "isActive",
          "type": "bool"
        }
      ],
      "stateMutability": "view",
      "type": "function"
    },
    {
      "inputs": [],
      "name": "owner",
      "outputs": [
        {
          "internalType": "address",
          "name": "",
          "type": "address"
        }
      ],
      "stateMutability": "view",
      "type": "function"
    },
    {
      "inputs": [],
      "name": "positionManager",
      "outputs": [
        {
          "internalType": "contract INonfungiblePositionManager",
          "name": "",
          "type": "address"
        }
      ],
      "stateMutability": "view",
      "type": "function"
    },
    {
      "inputs": [],
      "name": "quoter",
      "outputs": [
        {
          "internalType": "contract IQuoter",
          "name": "",
          "type": "address"
        }
      ],
      "stateMutability": "view",
      "type": "function"
    },
    {
      "inputs": [],
      "name": "renounceOwnership",
      "outputs": [],
      "stateMutability": "nonpayable",
      "type": "function"
    },
    {
      "inputs": [
        {
          "internalType": "address",
          "name": "_factory",
          "type": "address"
        }
      ],
      "name": "setFactory",
      "outputs": [],
      "stateMutability": "nonpayable",
      "type": "function"
    },
    {
      "inputs": [
        {
          "internalType": "address",
          "name": "tokenOut",
          "type": "address"
        },
        {
          "internalType": "uint24",
          "name": "fee",
          "type": "uint24"
        }
      ],
      "name": "swapExactETHForTokens",
      "outputs": [],
      "stateMutability": "payable",
      "type": "function"
    },
    {
      "inputs": [
        {
          "internalType": "address",
          "name": "tokenOut",
          "type": "address"
        },
        {
          "internalType": "uint24",
          "name": "fee",
          "type": "uint24"
        },
        {
          "internalType": "uint256",
          "name": "slippageTolerance",
          "type": "uint256"
        }
      ],
      "name": "swapExactETHForTokensWithSlippage",
      "outputs": [],
      "stateMutability": "payable",
      "type": "function"
    },
    {
      "inputs": [
        {
          "internalType": "address",
          "name": "tokenIn",
          "type": "address"
        },
        {
          "internalType": "uint24",
          "name": "fee",
          "type": "uint24"
        },
        {
          "internalType": "uint256",
          "name": "amountIn",
          "type": "uint256"
        }
      ],
      "name": "swapExactTokensForETH",
      "outputs": [],
      "stateMutability": "nonpayable",
      "type": "function"
    },
    {
      "inputs": [
        {
          "internalType": "address",
          "name": "tokenIn",
          "type": "address"
        },
        {
          "internalType": "uint24",
          "name": "fee",
          "type": "uint24"
        },
        {
          "internalType": "uint256",
          "name": "amountIn",
          "type": "uint256"
        },
        {
          "internalType": "uint256",
          "name": "slippageTolerance",
          "type": "uint256"
        }
      ],
      "name": "swapExactTokensForETHWithSlippage",
      "outputs": [],
      "stateMutability": "nonpayable",
      "type": "function"
    },
    {
      "inputs": [],
      "name": "swapRouter",
      "outputs": [
        {
          "internalType": "contract ISwapRouter",
          "name": "",
          "type": "address"
        }
      ],
      "stateMutability": "view",
      "type": "function"
    },
    {
      "inputs": [
        {
          "internalType": "address",
          "name": "",
          "type": "address"
        },
        {
          "internalType": "address",
          "name": "",
          "type": "address"
        },
        {
          "internalType": "uint24",
          "name": "",
          "type": "uint24"
        }
      ],
      "name": "tokenPools",
      "outputs": [
        {
          "internalType": "uint256",
          "name": "tokenId",
          "type": "uint256"
        },
        {
          "internalType": "uint256",
          "name": "liquidity",
          "type": "uint256"
        },
        {
          "internalType": "uint256",
          "name": "lockExpiry",
          "type": "uint256"
        },
        {
          "internalType": "bool",
          "name": "isActive",
          "type": "bool"
        },
        {
          "internalType": "uint256",
          "name": "createdAt",
          "type": "uint256"
        }
      ],
      "stateMutability": "view",
      "type": "function"
    },
    {
      "inputs": [
        {
          "internalType": "address",
          "name": "",
          "type": "address"
        }
      ],
      "name": "tokenPrices",
      "outputs": [
        {
          "internalType": "uint256",
          "name": "price",
          "type": "uint256"
        },
        {
          "internalType": "uint256",
          "name": "lastUpdated",
          "type": "uint256"
        },
        {
          "internalType": "uint256",
          "name": "volume24h",
          "type": "uint256"
        },
        {
          "internalType": "uint256",
          "name": "marketCap",
          "type": "uint256"
        }
      ],
      "stateMutability": "view",
      "type": "function"
    },
    {
      "inputs": [
        {
          "internalType": "address",
          "name": "newOwner",
          "type": "address"
        }
      ],
      "name": "transferOwnership",
      "outputs": [],
      "stateMutability": "nonpayable",
      "type": "function"
    },
    {
      "inputs": [],
      "name": "uniswapV3Factory",
      "outputs": [
        {
          "internalType": "contract IUniswapV3Factory",
          "name": "",
          "type": "address"
        }
      ],
      "stateMutability": "view",
      "type": "function"
    },
    {
      "inputs": [],
      "name": "withdrawETH",
      "outputs": [],
      "stateMutability": "nonpayable",
      "type": "function"
    },
    {
      "inputs": [
        {
          "internalType": "address",
          "name": "token",
          "type": "address"
        },
        {
          "internalType": "uint256",
          "name": "amount",
          "type": "uint256"
        }
      ],
      "name": "withdrawToken",
      "outputs": [],
      "stateMutability": "nonpayable",
      "type": "function"
    },
    {
      "stateMutability": "payable",
      "type": "receive"
    }
  ],
  "bytecode": "0x610120346200024457601f6200330038819003918201601f19168301916001600160401b03831184841017620002495780849260a09460405283398101031262000244576200004e816200025f565b6200005c602083016200025f565b916200006b604082016200025f565b6200008760806200007f606085016200025f565b93016200025f565b9333156200022b5760008054336001600160a01b03198216811783556040516001600160a01b0397909388939192918416907f8be0079c531659141344cd1fd0a4f28419497f9722a3daafe3b4186f6b6457e09080a36001805516908115801562000220575b801562000215575b80156200020a575b8015620001ff575b620001f05750608052831660a052821660c0521660e05261010090815260405161308b9182620002758339608051828181610644015281816110fa015261150d015260a051828181610ae7015281816117b8015281816128c40152818161292a0152612b61015260c051828181610c8101528181610dbd01528181612109015281816123f5015261286b015260e0518281816105d9015281816110490152818161143f01528181611c1001528181611d220152818161216901526124920152518181816101da015281816106870152818161100b015281816113f901528181611bd20152611cde0152f35b6389be0fdb60e01b8152600490fd5b508587161562000105565b5085851615620000fd565b5085841615620000f5565b5085831615620000ed565b604051631e4fbdf760e01b815260006004820152602490fd5b600080fd5b634e487b7160e01b600052604160045260246000fd5b51906001600160a01b0382168203620002445756fe6040608081526004908136101561001d575b5050361561001b57005b005b600090813560e01c80630277694a14611c9057806309842ab414611b805780630ad23382146116995780630b99512b1461165857806317085dfb146113b2578063204120bc1461135a5780632a21b75e14610f9757806330a52c3714610efd5780634a277c6214610e085780634c20378614610dec5780635b54918214610da95780635bb4780814610d165780635d23011014610cf4578063696d628314610c16578063715018a614610bbc5780637754167814610b16578063791b98bc14610ad35780638da5cb5b14610aac578063917f3e5f1461085757806398e9cb121461082a5780639b5eb511146107aa5780639bc7c5861461076d5780639e281a98146106b6578063ad5c464814610673578063c31c9c0714610630578063c45a015514610608578063c6bbd5a7146105c5578063ca88d5c514610549578063d02641a0146104df578063e086e5ec14610412578063ee937e82146103f2578063f2fde38b146103675763f7f29185146101955750610011565b61019e36611e14565b906101aa939293612650565b60018060a01b0392838516908187526020916005835260ff828920541615610357573415610348578415610348577f000000000000000000000000000000000000000000000000000000000000000095808716908183109081156103415789915b15610339578089925b168b5260038652848b2091168a52845282892062ffffff86168a52845260ff6003848b2001541661032957803b1561032557888a91845192838092630d0e30db60e41b825234905af1801561031b57610302575b5081516323b872dd60e01b815233998101998a523060208b015260408a0186905297988391899182908c9082906060015b03925af19081156102f957506102bf575b506102b89450349284612807565b6001805580f35b85813d83116102f2575b6102d38183611f43565b810103126102ee576102e76102b89561206f565b50386102aa565b8580fd5b503d6102c9565b513d89823e3d90fd5b8391610299996103128893611f2f565b99509150610268565b83513d8b823e3d90fd5b8880fd5b825163329e1cc760e01b81528a90fd5b808a92610214565b889161020b565b815162716da360e31b81528990fd5b8151631934ad6160e01b81528990fd5b5082346103ee5760203660031901126103ee57610382611dbf565b9061038b61277e565b6001600160a01b039182169283156103d857505082546001600160a01b0319811683178455167f8be0079c531659141344cd1fd0a4f28419497f9722a3daafe3b4186f6b6457e08380a380f35b51631e4fbdf760e01b8152908101849052602490fd5b8280fd5b503461040e578160031936011261040e576020905161012c8152f35b5080fd5b508290346103ee57826003193601126103ee5761042d61277e565b824780610438575080f35b8154829182918291906001600160a01b03165af13d156104da573d67ffffffffffffffff81116104c757825190610479601f8201601f191660200183611f43565b81528460203d92013e5b1561048c578280f35b906020606492519162461bcd60e51b83528201526015602482015274115512081dda5d1a191c985dd85b0819985a5b1959605a1b6044820152fd5b634e487b7160e01b855260418452602485fd5b610483565b5082346103ee5760203660031901126103ee57909182916001600160a01b03610506611dbf565b1682526020522081519061051982611f13565b80549182815260606003600184015493846020850152600281015487850152015491015282519182526020820152f35b5082346103ee5760203660031901126103ee5760a092906001600160a01b03610570611dbf565b16825260205281812082519261058584611f13565b6060825494858152600184015460208201526003600285015494858584015201549182910152815194855260208501528301528060608301526080820152f35b503461040e578160031936011261040e57517f00000000000000000000000000000000000000000000000000000000000000006001600160a01b03168152602090f35b503461040e578160031936011261040e5760025490516001600160a01b039091168152602090f35b503461040e578160031936011261040e57517f00000000000000000000000000000000000000000000000000000000000000006001600160a01b03168152602090f35b503461040e578160031936011261040e57517f00000000000000000000000000000000000000000000000000000000000000006001600160a01b03168152602090f35b508290346103ee57806003193601126103ee576020610719926106d7611dbf565b6106df61277e565b8554845163a9059cbb60e01b81526001600160a01b0391821693810193845260243560208501529586938492899290918491604090910190565b0393165af1908115610764575061072e575080f35b6020813d60201161075c575b8161074760209383611f43565b8101031261040e576107589061206f565b5080f35b3d915061073a565b513d84823e3d90fd5b503461040e57602036600319011261040e5760209160ff9082906001600160a01b03610797611dbf565b1681526005855220541690519015158152f35b5082346103ee5760203660031901126103ee576107c5611dbf565b6002549092906001600160a01b031633036107e757836107e484612615565b80f35b906020606492519162461bcd60e51b8352820152601960248201527f43616c6c6572206973206e6f742074686520666163746f7279000000000000006044820152fd5b8234610854576020366003190112610854576107e4610847611dbf565b61084f61277e565b612615565b80fd5b508290346103ee5761086836611e4a565b9394610875939193612650565b6001600160a01b038681169081158015610aa2575b610a9257818a5260209860058a5260ff848c2054161580610a7f575b610a715786158015610a69575b610a5c5784821691828410908115610a55578a915b15610a4d578087925b168d5260038c52858d2091168c528a52838b2062ffffff87168c528a5260ff6003858d20015416610a3f5783516323b872dd60e01b80825233828401908152306020820152604081018a90528d949392908d90829081906060010381888a5af18015610a3557918b93918e95936109f2575b5087519081523391810191825230602083015260408201939093529193849283919082906060015b03925af180156109e8576109a0575b509060056102b89860ff938b5252882054166000146109995784612807565b8094612807565b8881819493943d83116109e1575b6109b88183611f43565b810103126109dd576102b89860ff936109d260059361206f565b50929350985061097a565b8980fd5b503d6109ae565b83513d8c823e3d90fd5b8094508591953d8311610a2e575b610a0a8183611f43565b81010312610a2a5761096b948d94610a228d9561206f565b509095610943565b8480fd5b503d610a00565b87513d87823e3d90fd5b835163329e1cc760e01b8152fd5b808b926108d1565b86916108c8565b835162716da360e31b8152fd5b5087156108b3565b8351631934ad6160e01b8152fd5b508185168b5260ff848c205416156108a6565b82516389be0fdb60e01b81528990fd5b508084161561088a565b503461040e578160031936011261040e57905490516001600160a01b039091168152602090f35b503461040e578160031936011261040e57517f00000000000000000000000000000000000000000000000000000000000000006001600160a01b03168152602090f35b5090346108545760603660031901126108545781610bb891610b36611dbf565b610b3e611dda565b610b46611e02565b9160018060a01b03809116845260036020528484209116835260205262ffffff83832091168252602052209182549260018101549460028201549060ff6003840154169201549251958695869192608093969594919660a0840197845260208401526040830152151560608201520152565b0390f35b8234610854578060031936011261085457610bd561277e565b80546001600160a01b03198116825581906001600160a01b03167f8be0079c531659141344cd1fd0a4f28419497f9722a3daafe3b4186f6b6457e08280a380f35b5082346103ee5760603660031901126103ee57610c31611dbf565b916020610c3c611dda565b93610c45611e02565b8351630b4c774160e11b81526001600160a01b03928316958101958652958216602086015262ffffff16604085015292849081906060010381857f0000000000000000000000000000000000000000000000000000000000000000165afa928315610cea5760209493610cbb575b505191168152f35b610cdc919350843d8611610ce3575b610cd48183611f43565b810190612090565b9184610cb3565b503d610cca565b81513d86823e3d90fd5b503461040e578160031936011261040e576020905167016345785d8a00008152f35b5082346103ee5760203660031901126103ee57610d31611dbf565b610d3961277e565b6001600160a01b0316918215610d665750506bffffffffffffffffffffffff60a01b600254161760025580f35b906020606492519162461bcd60e51b8352820152601760248201527f496e76616c696420666163746f727920616464726573730000000000000000006044820152fd5b503461040e578160031936011261040e57517f00000000000000000000000000000000000000000000000000000000000000006001600160a01b03168152602090f35b503461040e578160031936011261040e57602090516101f48152f35b50903461085457606036600319011261085457608082610bb892610e2a611dbf565b610e32611dda565b90610e3b611e02565b916001600160a01b038082168382161092909182918415610ef65780945b15610eee5750925b16845260036020528484209116835260205262ffffff8383209116825260205220835194610e8e86611ef7565b815494858752600183015496876020820152600284015492838383015260ff6003860154161515948560608401520154948591015251958695869192608093969594919660a0840197845260208401526040830152151560608201520152565b905092610e61565b8194610e59565b5082346103ee5760603660031901126103ee5767ffffffffffffffff90602435828111610a2a57610f319036908301611e93565b6044929192359384116102ee57610f4e610f579436908401611e93565b93909235612305565b815192839260208080860192818752855180945286019401925b828110610f8057505050500390f35b835185528695509381019392810192600101610f71565b50903461085457608036600319011261085457610fb2611dbf565b610fba611df0565b9060443560643591610fca612650565b6001600160a01b038181168087526005602090815288882054919590929160ff161561134a57841561133b57611388811161132b5786908984868d6110448a7f000000000000000000000000000000000000000000000000000000000000000097889651968795869563f7729d4360e01b87528601611f65565b0381877f0000000000000000000000000000000000000000000000000000000000000000165afa8a91816112f8575b50611088578a5163507864b360e11b81528c90fd5b918a9493918c9361271091820390828211611265578c949392916110ab91611fc8565b87516323b872dd60e01b815233878201908152306020820152604081018c90529290910493918790829081900360600181888f5af180156112ee576112ba575b50865163095ea7b360e01b81527f000000000000000000000000000000000000000000000000000000000000000082166001600160a01b038116878301908152602081018c90529095889183918e91839190829060400103925af180156112b057611278575b5061012c4201918242116112655786959491936111c19362ffffff8f99968e948c519561117d87611ec4565b8652169e8f88860152168a84015233606084015260808301528a60a083015260c08201528660e0820152875196878094819363414bf38960e01b8352888301612008565b03925af192831561125b578993611228575b506111fe7fd36cc53ba71bc76a3db3364981f5296dd4ca5eba0e8c89874f2170515bd20d2495612673565b8689528152600283892001611214838254611ffb565b905582519485528401523392a46001805580f35b9492508185813d8311611254575b6112408183611f43565b8101031261032557935191936111fe6111d3565b503d611236565b84513d8b823e3d90fd5b634e487b7160e01b8d526011865260248dfd5b8681813d83116112a9575b61128d8183611f43565b810103126112a55761129e9061206f565b508c611151565b8c80fd5b503d611283565b88513d8f823e3d90fd5b8681813d83116112e7575b6112cf8183611f43565b81010312610a2a576112e09061206f565b508c6110eb565b503d6112c5565b88513d87823e3d90fd5b9091508581813d8311611324575b6113108183611f43565b8101031261132057519038611073565b8a80fd5b503d611306565b88516312000fe360e11b81528a90fd5b885162716da360e31b81528a90fd5b8851631934ad6160e01b81528a90fd5b5082346103ee5760203660031901126103ee5760809282916001600160a01b03611382611dbf565b16825260205220908154916001810154916003600283015492015492815194855260208501528301526060820152f35b50906113bd36611e14565b916113c6612650565b60018060a01b0390818116938486526020926005845260ff888820541615611648573415611639576113888211611629577f00000000000000000000000000000000000000000000000000000000000000009161143a858b8b518093819263f7729d4360e01b83528b8a8a34938601611f65565b0381867f0000000000000000000000000000000000000000000000000000000000000000165afa8991816115fa575b5061147e57895163507864b360e11b81528b90fd5b918993918b93612710918203908282116115e7579061149c91611fc8565b0461012c42018042116115d45791611507949391889362ffffff838951956114c387611ec4565b169b8c86528d87870152168885015233606085015260808401523460a084015260c08301528a60e08301528551808096819463414bf38960e01b8352878301612008565b039134907f0000000000000000000000000000000000000000000000000000000000000000165af19182156115ca578892611593575b506115687fd36cc53ba71bc76a3db3364981f5296dd4ca5eba0e8c89874f2170515bd20d2494612673565b868852845260028288200161157e348254611ffb565b90558151933485528401523392a46001805580f35b9391508484813d83116115c3575b6115ab8183611f43565b810103126115bf579251909261156861153d565b8780fd5b503d6115a1565b83513d8a823e3d90fd5b634e487b7160e01b8b526011855260248bfd5b634e487b7160e01b8c526011865260248cfd5b9091508681813d8311611622575b6116128183611f43565b810103126109dd57519038611469565b503d611608565b87516312000fe360e11b81528990fd5b875162716da360e31b81528990fd5b8751631934ad6160e01b81528990fd5b503461040e57608036600319011261040e57602090611692611678611dbf565b611680611dda565b611688611e02565b90606435926120af565b9051908152f35b509181926116a636611e4a565b9490939291956116b4612650565b6001600160a01b0383811697858216978989109590928b929181908815611b795789985b15611b7157975b1691828452602097600389528288862091168095528852868d209062ffffff16809d528752858d206003015460ff1615611b615788158015611b59575b611b4a5785516323b872dd60e01b80825233828801908152306020820152604081018c90528f9392908a9082908f9082908890829060600103925af18015611b40578e89868d948b94611afa575b508c519586523391860191825230602083015260408201939093528492839182906060015b03925af18015611af0578c8c9695949389938c93611aac575b508a5163095ea7b360e01b8082527f0000000000000000000000000000000000000000000000000000000000000000929092166001600160a01b0381169582019586526020860199909952909390929183918290879082906040015b03925af18015611aa257888f91948c9489948b97611a60575b506118488d51978896879586948552840160209093929193604081019460018060a01b031681520152565b03925af18015611a5457611a1c575b508c5260038652848c20908c528552838b208a8c528552838b20549161012c420190814211611a095785519360c0850185811067ffffffffffffffff8211176119f657928e9260c4959260609897958a5285528985019b8c52888501908152878501848152608086019185835260a087019384528a519d8e998a9863219f5d1760e01b8a5251908901525160248801525160448701525160648601525160848501525160a48401525af19283156119ec57889489938a95611974575b50509361196a916119447f66f68636a37c16d9b851b4467d85bfdc07b98135fc5f50b62510198bd458946896612673565b51938493849160409194936001600160801b039160608501968552602085015216910152565b0390a46001805580f35b9350945092506060843d6060116119e4575b8161199360609383611f43565b810103126115bf57838161194461196a936119ce7f66f68636a37c16d9b851b4467d85bfdc07b98135fc5f50b62510198bd45894689861207c565b9584015193015194929495929650819350611913565b3d9150611986565b81513d8a823e3d90fd5b634e487b7160e01b8f526041875260248ffd5b634e487b7160e01b8d526011855260248dfd5b8781813d8311611a4d575b611a318183611f43565b81010312611a4957611a429061206f565b5038611857565b8d80fd5b503d611a27565b8e8851903d90823e3d90fd5b959350955092505082813d8311611a9b575b611a7c8183611f43565b81010312610854578d8887928995611a948e9661206f565b503861181d565b503d611a72565b89513d85823e3d90fd5b935096505081813d8311611ae9575b611ac58183611f43565b8101031261040e5781896118048e8e98611adf8c9661206f565b50915091926117a8565b503d611abb565b88513d85823e3d90fd5b94935050505081813d8311611b39575b611b148183611f43565b81010312611b3557868e898661178f95611b2e8f9661206f565b509561176a565b8380fd5b503d611b0a565b89513d86823e3d90fd5b855162716da360e31b81528590fd5b50831561171c565b855163329e1cc760e01b81528590fd5b5088976116df565b80986116d8565b50903461085457611b9036611e14565b611b9b929192612650565b6001600160a01b038281168086526005602090815287872054919492909160ff161561164857831561163957858883858c611c0b897f000000000000000000000000000000000000000000000000000000000000000096879651968795869563f7729d4360e01b87528601611f65565b0381867f0000000000000000000000000000000000000000000000000000000000000000165afa899181611c61575b50611c4f57895163507864b360e11b81528b90fd5b8993928b926127106110ab8c94611f9b565b9091508481813d8311611c89575b611c798183611f43565b810103126109dd57519038611c3a565b503d611c6f565b50908160031936011261085457611ca5611dbf565b611cad611df0565b611cb5612650565b60018060a01b03808316928385526020916005835260ff878720541615611daf573415611da0577f000000000000000000000000000000000000000000000000000000000000000090875163f7729d4360e01b8152848180611d1d8d8a898934938601611f65565b0381857f0000000000000000000000000000000000000000000000000000000000000000165afa889181611d71575b50611d6157885163507864b360e11b81528a90fd5b91899161271061149c8b95611f9b565b9091508581813d8311611d99575b611d898183611f43565b8101031261032557519038611d4c565b503d611d7f565b865162716da360e31b81528890fd5b8651631934ad6160e01b81528890fd5b600435906001600160a01b0382168203611dd557565b600080fd5b602435906001600160a01b0382168203611dd557565b6024359062ffffff82168203611dd557565b6044359062ffffff82168203611dd557565b6060906003190112611dd5576004356001600160a01b0381168103611dd5579060243562ffffff81168103611dd5579060443590565b60a0906003190112611dd5576001600160a01b03906004358281168103611dd557916024359081168103611dd5579060443562ffffff81168103611dd557906064359060843590565b9181601f84011215611dd55782359167ffffffffffffffff8311611dd5576020808501948460051b010111611dd557565b610100810190811067ffffffffffffffff821117611ee157604052565b634e487b7160e01b600052604160045260246000fd5b60a0810190811067ffffffffffffffff821117611ee157604052565b6080810190811067ffffffffffffffff821117611ee157604052565b67ffffffffffffffff8111611ee157604052565b90601f8019910116810190811067ffffffffffffffff821117611ee157604052565b6001600160a01b0391821681529116602082015262ffffff91909116604082015260608101919091526000608082015260a00190565b9061251c91828102928184041490151715611fb257565b634e487b7160e01b600052601160045260246000fd5b81810292918115918404141715611fb257565b8115611fe5570490565b634e487b7160e01b600052601260045260246000fd5b91908201809211611fb257565b91909160e06101008201938160018060a01b039182815116855282602082015116602086015262ffffff60408201511660408601528260608201511660608601526080810151608086015260a081015160a086015260c081015160c0860152015116910152565b51908115158203611dd557565b51906001600160801b0382168203611dd557565b90816020910312611dd557516001600160a01b0381168103611dd55790565b90916001600160a01b03808316151580612284575b1561223f57841561220957604051630b4c774160e11b81526001600160a01b0384811660048301528516602482015262ffffff831660448201526020949085816064817f000000000000000000000000000000000000000000000000000000000000000087165afa80156121fd5783916000916121e0575b5016156121d55784936121656040519788958694859463f7729d4360e01b865260048601611f65565b03917f0000000000000000000000000000000000000000000000000000000000000000165afa9182916000936121a5575b50506121a25750600090565b90565b9080929350813d83116121ce575b6121bd8183611f43565b81010312611dd55751903880612196565b503d6121b3565b505050505050600090565b6121f79150873d8911610ce357610cd48183611f43565b3861213c565b6040513d6000823e3d90fd5b60405162461bcd60e51b815260206004820152600e60248201526d125b9d985b1a5908185b5bdd5b9d60921b6044820152606490fd5b60405162461bcd60e51b815260206004820152601760248201527f496e76616c696420746f6b656e206164647265737365730000000000000000006044820152606490fd5b5080841615156120c4565b67ffffffffffffffff8111611ee15760051b60200190565b80518210156122bb5760209160051b010190565b634e487b7160e01b600052603260045260246000fd5b91908110156122bb5760051b0190565b356001600160a01b0381168103611dd55790565b3562ffffff81168103611dd55790565b939192600284106125da5783600019810111611fb257828403600019016125955761232f8461228f565b9461233d6040519687611f43565b8486526123498561228f565b6020870190601f19013682378651156122bb5752600091905b84600019810111611fb257600019850183101561258d5761238c6123878487856122d1565b6122e1565b600184018411611fb25760206123a96123876001870189876122d1565b6123bc6123b78789876122d1565b6122f5565b604051630b4c774160e11b81526001600160a01b039485166004820152918416602483015262ffffff16604482015291829060649082907f0000000000000000000000000000000000000000000000000000000000000000165afa9081156121fd5760009161256e575b506001600160a01b031615612544576124436123878487856122d1565b60206124566123876001870189876122d1565b6124646123b78789876122d1565b9261248e612472888c6122a7565b5160405163f7729d4360e01b8152958694859460048601611f65565b03817f00000000000000000000000000000000000000000000000000000000000000006001600160a01b03165afa60009181612510575b506124f55750505060019150015b8181106124df57505090565b8060006124ee600193866122a7565b52016124d3565b926001919293612507838301896122a7565b52019190612362565b90916020823d60201161253c575b8161252b60209383611f43565b8101031261085457505190386124c5565b3d915061251e565b505060019150015b81811061255857505090565b806000612567600193866122a7565b520161254c565b612587915060203d602011610ce357610cd48183611f43565b38612426565b505050505090565b60405162461bcd60e51b815260206004820152601d60248201527f5061746820616e642066656573206c656e677468206d69736d617463680000006044820152606490fd5b60405162461bcd60e51b8152602060048201526013602482015272092dcecc2d8d2c840e0c2e8d040d8cadccee8d606b1b6044820152606490fd5b6001600160a01b0316801561263e5760005260056020526040600020600160ff19825416179055565b6040516389be0fdb60e01b8152600490fd5b600260015414612661576002600155565b604051633ee5aeb560e01b8152600490fd5b604080516318160ddd60e01b81526001600160a01b0392909216919060208083600481875afa92831561277357600093612744575b50683635c9adc5dea00000908382029382850403611fb2577fb556fac599c3c70efb9ab1fa725ecace6c81cc48d1455f886607def065f3e0c0938560005260048252600360028560002001549185519261270184611f13565b85845284840142815287850191825260608501928352896000526004865287600020945185555160018501555160028401555191015582519182524290820152a2565b9080935081813d831161276c575b61275c8183611f43565b81010312611dd5575191386126a8565b503d612752565b82513d6000823e3d90fd5b6000546001600160a01b0316330361279257565b60405163118cdaa760e01b8152336004820152602490fd5b519061ffff82168203611dd557565b60020b60011b908160020b918203611fb257565b9060020b9060020b02908160020b918203611fb257565b60020b9060020b908115611fe557627fffff198114600019831416611fb2570590565b9395946001600160a01b038281169086161094936000928615612fc057855b8715612fb85750955b15612fb357965b604051630b4c774160e11b81526001600160a01b038681166004830152878116602483015262ffffff861660448301529098907f00000000000000000000000000000000000000000000000000000000000000001660208a606481845afa998a156121fd5760009a612f92575b506001600160a01b038a1615612e89575b5060405163095ea7b360e01b81527f00000000000000000000000000000000000000000000000000000000000000006001600160a01b031660048201526024810182905260208180604481010381886001600160a01b038c165af18015612e4557612e50575b5060405163095ea7b360e01b81527f00000000000000000000000000000000000000000000000000000000000000006001600160a01b031660048201526024810183905260208180604481010381886001600160a01b038d165af18015612e4557612e00575b50604051633850c7bd60e01b815297989697959660e090879060049082906001600160a01b03165afa958615612df5578496612d5f575b506129c185612fc7565b6129ca816127b9565b9660020b9660020b8703627fffff80199181811383821217612d4b57836129f4816129f9936127e4565b6127cd565b98612a03846127b9565b60020b0191821290821317612d3757906129f481612a20936127e4565b61012c42014211612d2357604051968761016081011067ffffffffffffffff6101608a011117611ee157610160880160405260018060a01b038916885260018060a01b038a16602089015262ffffff8716604089015260020b606088015260020b608087015260a086015260c08501528160e0850152816101008501523061012085015261012c420161014085015261014060405194634418b22b60e11b865260018060a01b03815116600487015260018060a01b03602082015116602487015262ffffff6040820151166044870152606081015160020b6064870152608081015160020b608487015260a081015160a487015260c081015160c487015260e081015160e487015261010081015161010487015260018060a01b03610120820151166101248701520151610144850152608084610164818560018060a01b037f0000000000000000000000000000000000000000000000000000000000000000165af1908115612d1857828380968194612cc4575b5062278d004201804211612cb057612cab9362ffffff969360048b7fa12f7d42aa572c92b5e0ba50a30cacd389bb68257862ca2b55065b7030a860649a9895612c72958f60405195612be687611ef7565b865260208601906001600160801b038b168252604087019283526040606088019460018652608089019642885260018060a01b031681526003602052209060018060a01b031660005260205260406000208d8d16600052602052604060002095518655516001860155516002850155600384019051151560ff8019835416911617905551910155612673565b6040805197885260208801919091526001600160801b03909116908601529116946001600160a01b039081169416929081906060820190565b0390a4565b634e487b7160e01b82526011600452602482fd5b945092505093506080823d608011612d10575b81612ce460809383611f43565b8101031261085457815193612cfb6020840161207c565b60606040850151940151959093959238612b95565b3d9150612cd7565b6040513d84823e3d90fd5b634e487b7160e01b85526011600452602485fd5b634e487b7160e01b86526011600452602486fd5b634e487b7160e01b88526011600452602488fd5b90955060e0813d60e011612ded575b81612d7b60e09383611f43565b81010312611b355780516001600160a01b03811603611b35576020810151908160020b8203610a2a57612db0604082016127aa565b50612dbd606082016127aa565b50612dca608082016127aa565b5060a081015160ff811603610a2a5760c0612de5910161206f565b5094386129b7565b3d9150612d6e565b6040513d86823e3d90fd5b6020813d602011612e3d575b81612e1960209383611f43565b81010312610a2a57600496979899612e3260e09261206f565b509998979650612980565b3d9150612e0c565b6040513d87823e3d90fd5b6020813d602011612e81575b81612e6960209383611f43565b81010312610a2a57612e7a9061206f565b503861291a565b3d9150612e5c565b60405163a167129560e01b81526001600160a01b0388811660048301528916602482015262ffffff8716604482015299506020908a9060649082906000905af19889156121fd57600099612f71575b5088600160601b606084901b841585820483141715611fb25783612efb91611fdb565b8060601b918183041490151715611fb2576001600160a01b0390612f1e9061300a565b6001600160a01b039092169116813b15611dd55760009160248392604051948593849263f637731d60e01b845260048401525af180156121fd57156128b457612f68919450611f2f565b600092386128b4565b612f8b91995060203d602011610ce357610cd48183611f43565b9738612ed8565b612fac919a5060203d602011610ce357610cd48183611f43565b98386128a3565b612836565b90509561282f565b8095612826565b62ffffff1660648114613004576101f48114612ffe57610bb88114612ff85761271014612ff357603c90565b60c890565b50603c90565b50600a90565b50600190565b801561304f576001808201808311611fb25760011c90825b83831061302f5750505090565b90919250613046836130418184611fdb565b611ffb565b821c9190613022565b5060009056fea26469706673582212200eb0eb7c6bfb099d09010a0ea52bac3dfea656b8f4686e5f777901a97f07f6cd64736f6c63430008180033",
  "linkReferences": {},
  "deployedLinkReferences": {}
}