{
  "_format": "hh-sol-artifact-1",
  "contractName": "PumpFunDEXManager",
  "sourceName": "contracts/PumpFunDEXManager.sol",
  "abi": [
    {
      "inputs": [
        {
          "internalType": "address",
          "name": "_swapRouter",
          "type": "address"
        },
        {
          "internalType": "address",
          "name": "_positionManager",
          "type": "address"
        },
        {
          "internalType": "address",
          "name": "_uniswapV3Factory",
          "type": "address"
        },
        {
          "internalType": "address",
          "name": "_quoterV2",
          "type": "address"
        },
        {
          "internalType": "address",
          "name": "_weth",
          "type": "address"
        }
      ],
      "stateMutability": "nonpayable",
      "type": "constructor"
    },
    {
      "inputs": [
        {
          "internalType": "address",
          "name": "owner",
          "type": "address"
        }
      ],
      "name": "OwnableInvalidOwner",
      "type": "error"
    },
    {
      "inputs": [
        {
          "internalType": "address",
          "name": "account",
          "type": "address"
        }
      ],
      "name": "OwnableUnauthorizedAccount",
      "type": "error"
    },
    {
      "inputs": [],
      "name": "PumpFunDEXManager__DeadlineExpired",
      "type": "error"
    },
    {
      "inputs": [
        {
          "internalType": "uint256",
          "name": "available",
          "type": "uint256"
        },
        {
          "internalType": "uint256",
          "name": "requested",
          "type": "uint256"
        }
      ],
      "name": "PumpFunDEXManager__InsufficientBalance",
      "type": "error"
    },
    {
      "inputs": [],
      "name": "PumpFunDEXManager__InsufficientLiquidity",
      "type": "error"
    },
    {
      "inputs": [],
      "name": "PumpFunDEXManager__InvalidAmount",
      "type": "error"
    },
    {
      "inputs": [],
      "name": "PumpFunDEXManager__InvalidFactoryAddress",
      "type": "error"
    },
    {
      "inputs": [],
      "name": "PumpFunDEXManager__InvalidFeeTier",
      "type": "error"
    },
    {
      "inputs": [],
      "name": "PumpFunDEXManager__InvalidPathLength",
      "type": "error"
    },
    {
      "inputs": [],
      "name": "PumpFunDEXManager__InvalidTokenAddress",
      "type": "error"
    },
    {
      "inputs": [],
      "name": "PumpFunDEXManager__LiquidityLocked",
      "type": "error"
    },
    {
      "inputs": [],
      "name": "PumpFunDEXManager__PairAlreadyExists",
      "type": "error"
    },
    {
      "inputs": [],
      "name": "PumpFunDEXManager__PathFeesLengthMismatch",
      "type": "error"
    },
    {
      "inputs": [],
      "name": "PumpFunDEXManager__PoolDoesNotExist",
      "type": "error"
    },
    {
      "inputs": [
        {
          "internalType": "string",
          "name": "reason",
          "type": "string"
        }
      ],
      "name": "PumpFunDEXManager__QuoterFailed",
      "type": "error"
    },
    {
      "inputs": [],
      "name": "PumpFunDEXManager__SlippageExceeded",
      "type": "error"
    },
    {
      "inputs": [],
      "name": "PumpFunDEXManager__TransferFailed",
      "type": "error"
    },
    {
      "inputs": [],
      "name": "PumpFunDEXManager__UnauthorizedToken",
      "type": "error"
    },
    {
      "inputs": [],
      "name": "ReentrancyGuardReentrantCall",
      "type": "error"
    },
    {
      "anonymous": false,
      "inputs": [
        {
          "indexed": true,
          "internalType": "address",
          "name": "token0",
          "type": "address"
        },
        {
          "indexed": true,
          "internalType": "address",
          "name": "token1",
          "type": "address"
        },
        {
          "indexed": true,
          "internalType": "uint24",
          "name": "fee",
          "type": "uint24"
        },
        {
          "indexed": false,
          "internalType": "uint256",
          "name": "amount0",
          "type": "uint256"
        },
        {
          "indexed": false,
          "internalType": "uint256",
          "name": "amount1",
          "type": "uint256"
        },
        {
          "indexed": false,
          "internalType": "uint256",
          "name": "liquidity",
          "type": "uint256"
        }
      ],
      "name": "LiquidityAdded",
      "type": "event"
    },
    {
      "anonymous": false,
      "inputs": [
        {
          "indexed": true,
          "internalType": "address",
          "name": "token0",
          "type": "address"
        },
        {
          "indexed": true,
          "internalType": "address",
          "name": "token1",
          "type": "address"
        },
        {
          "indexed": true,
          "internalType": "uint24",
          "name": "fee",
          "type": "uint24"
        },
        {
          "indexed": false,
          "internalType": "uint256",
          "name": "amount0",
          "type": "uint256"
        },
        {
          "indexed": false,
          "internalType": "uint256",
          "name": "amount1",
          "type": "uint256"
        },
        {
          "indexed": false,
          "internalType": "uint256",
          "name": "liquidity",
          "type": "uint256"
        }
      ],
      "name": "LiquidityPoolCreated",
      "type": "event"
    },
    {
      "anonymous": false,
      "inputs": [
        {
          "indexed": true,
          "internalType": "address",
          "name": "token0",
          "type": "address"
        },
        {
          "indexed": true,
          "internalType": "address",
          "name": "token1",
          "type": "address"
        },
        {
          "indexed": true,
          "internalType": "uint24",
          "name": "fee",
          "type": "uint24"
        },
        {
          "indexed": false,
          "internalType": "uint256",
          "name": "amount0",
          "type": "uint256"
        },
        {
          "indexed": false,
          "internalType": "uint256",
          "name": "amount1",
          "type": "uint256"
        }
      ],
      "name": "LiquidityRemoved",
      "type": "event"
    },
    {
      "anonymous": false,
      "inputs": [
        {
          "indexed": true,
          "internalType": "address",
          "name": "previousOwner",
          "type": "address"
        },
        {
          "indexed": true,
          "internalType": "address",
          "name": "newOwner",
          "type": "address"
        }
      ],
      "name": "OwnershipTransferred",
      "type": "event"
    },
    {
      "anonymous": false,
      "inputs": [
        {
          "indexed": true,
          "internalType": "address",
          "name": "token",
          "type": "address"
        },
        {
          "indexed": false,
          "internalType": "uint256",
          "name": "price",
          "type": "uint256"
        },
        {
          "indexed": false,
          "internalType": "uint256",
          "name": "timestamp",
          "type": "uint256"
        }
      ],
      "name": "PriceUpdated",
      "type": "event"
    },
    {
      "anonymous": false,
      "inputs": [
        {
          "indexed": true,
          "internalType": "address",
          "name": "user",
          "type": "address"
        },
        {
          "indexed": true,
          "internalType": "address",
          "name": "tokenIn",
          "type": "address"
        },
        {
          "indexed": true,
          "internalType": "address",
          "name": "tokenOut",
          "type": "address"
        },
        {
          "indexed": false,
          "internalType": "uint256",
          "name": "amountIn",
          "type": "uint256"
        },
        {
          "indexed": false,
          "internalType": "uint256",
          "name": "amountOut",
          "type": "uint256"
        }
      ],
      "name": "TokenSwapped",
      "type": "event"
    },
    {
      "stateMutability": "payable",
      "type": "fallback"
    },
    {
      "inputs": [],
      "name": "PRICE_UPDATE_INTERVAL",
      "outputs": [
        {
          "internalType": "uint256",
          "name": "",
          "type": "uint256"
        }
      ],
      "stateMutability": "view",
      "type": "function"
    },
    {
      "inputs": [],
      "name": "SLIPPAGE_TOLERANCE",
      "outputs": [
        {
          "internalType": "uint256",
          "name": "",
          "type": "uint256"
        }
      ],
      "stateMutability": "view",
      "type": "function"
    },
    {
      "inputs": [],
      "name": "WETH",
      "outputs": [
        {
          "internalType": "address",
          "name": "",
          "type": "address"
        }
      ],
      "stateMutability": "view",
      "type": "function"
    },
    {
      "inputs": [
        {
          "internalType": "address",
          "name": "token0",
          "type": "address"
        },
        {
          "internalType": "address",
          "name": "token1",
          "type": "address"
        },
        {
          "internalType": "uint24",
          "name": "fee",
          "type": "uint24"
        },
        {
          "internalType": "uint256",
          "name": "tokenAmount0",
          "type": "uint256"
        },
        {
          "internalType": "uint256",
          "name": "tokenAmount1",
          "type": "uint256"
        }
      ],
      "name": "addLiquidity",
      "outputs": [],
      "stateMutability": "payable",
      "type": "function"
    },
    {
      "inputs": [
        {
          "internalType": "address",
          "name": "token",
          "type": "address"
        }
      ],
      "name": "authorizeToken",
      "outputs": [],
      "stateMutability": "nonpayable",
      "type": "function"
    },
    {
      "inputs": [
        {
          "internalType": "address",
          "name": "token",
          "type": "address"
        }
      ],
      "name": "authorizeTokenFromFactory",
      "outputs": [],
      "stateMutability": "nonpayable",
      "type": "function"
    },
    {
      "inputs": [
        {
          "internalType": "address",
          "name": "",
          "type": "address"
        }
      ],
      "name": "authorizedTokens",
      "outputs": [
        {
          "internalType": "bool",
          "name": "",
          "type": "bool"
        }
      ],
      "stateMutability": "view",
      "type": "function"
    },
    {
      "inputs": [
        {
          "internalType": "address",
          "name": "tokenA",
          "type": "address"
        },
        {
          "internalType": "address",
          "name": "tokenB",
          "type": "address"
        },
        {
          "internalType": "uint24",
          "name": "fee",
          "type": "uint24"
        },
        {
          "internalType": "uint256",
          "name": "amountA",
          "type": "uint256"
        },
        {
          "internalType": "uint256",
          "name": "amountB",
          "type": "uint256"
        }
      ],
      "name": "createLiquidityPool",
      "outputs": [],
      "stateMutability": "nonpayable",
      "type": "function"
    },
    {
      "inputs": [
        {
          "internalType": "address",
          "name": "token",
          "type": "address"
        },
        {
          "internalType": "uint24",
          "name": "fee",
          "type": "uint24"
        },
        {
          "internalType": "uint256",
          "name": "tokenAmount",
          "type": "uint256"
        }
      ],
      "name": "createLiquidityPoolWithETH",
      "outputs": [],
      "stateMutability": "payable",
      "type": "function"
    },
    {
      "inputs": [],
      "name": "factory",
      "outputs": [
        {
          "internalType": "address",
          "name": "",
          "type": "address"
        }
      ],
      "stateMutability": "view",
      "type": "function"
    },
    {
      "inputs": [
        {
          "internalType": "uint256",
          "name": "amountIn",
          "type": "uint256"
        },
        {
          "internalType": "address[]",
          "name": "path",
          "type": "address[]"
        },
        {
          "internalType": "uint24[]",
          "name": "fees",
          "type": "uint24[]"
        }
      ],
      "name": "getAmountsOutMultiHop",
      "outputs": [
        {
          "internalType": "uint256[]",
          "name": "amounts",
          "type": "uint256[]"
        }
      ],
      "stateMutability": "nonpayable",
      "type": "function"
    },
    {
      "inputs": [
        {
          "internalType": "address",
          "name": "tokenIn",
          "type": "address"
        },
        {
          "internalType": "address",
          "name": "tokenOut",
          "type": "address"
        },
        {
          "internalType": "uint24",
          "name": "fee",
          "type": "uint24"
        },
        {
          "internalType": "uint256",
          "name": "amountIn",
          "type": "uint256"
        }
      ],
      "name": "getAmountsOutSingleHop",
      "outputs": [
        {
          "internalType": "uint256",
          "name": "amountOut",
          "type": "uint256"
        }
      ],
      "stateMutability": "nonpayable",
      "type": "function"
    },
    {
      "inputs": [
        {
          "internalType": "address",
          "name": "token0",
          "type": "address"
        },
        {
          "internalType": "address",
          "name": "token1",
          "type": "address"
        },
        {
          "internalType": "uint24",
          "name": "fee",
          "type": "uint24"
        }
      ],
      "name": "getPoolAddress",
      "outputs": [
        {
          "internalType": "address",
          "name": "",
          "type": "address"
        }
      ],
      "stateMutability": "view",
      "type": "function"
    },
    {
      "inputs": [
        {
          "internalType": "address",
          "name": "token0",
          "type": "address"
        },
        {
          "internalType": "address",
          "name": "token1",
          "type": "address"
        },
        {
          "internalType": "uint24",
          "name": "fee",
          "type": "uint24"
        }
      ],
      "name": "getPoolInfo",
      "outputs": [
        {
          "internalType": "uint256",
          "name": "tokenId",
          "type": "uint256"
        },
        {
          "internalType": "uint256",
          "name": "liquidity",
          "type": "uint256"
        },
        {
          "internalType": "uint256",
          "name": "lockExpiry",
          "type": "uint256"
        },
        {
          "internalType": "bool",
          "name": "isActive",
          "type": "bool"
        },
        {
          "internalType": "uint256",
          "name": "createdAt",
          "type": "uint256"
        }
      ],
      "stateMutability": "view",
      "type": "function"
    },
    {
      "inputs": [
        {
          "internalType": "address",
          "name": "token",
          "type": "address"
        }
      ],
      "name": "getTokenPrice",
      "outputs": [
        {
          "internalType": "uint256",
          "name": "price",
          "type": "uint256"
        },
        {
          "internalType": "uint256",
          "name": "lastUpdated",
          "type": "uint256"
        }
      ],
      "stateMutability": "view",
      "type": "function"
    },
    {
      "inputs": [
        {
          "internalType": "address",
          "name": "token",
          "type": "address"
        }
      ],
      "name": "getTokenStats",
      "outputs": [
        {
          "internalType": "uint256",
          "name": "price",
          "type": "uint256"
        },
        {
          "internalType": "uint256",
          "name": "marketCap",
          "type": "uint256"
        },
        {
          "internalType": "uint256",
          "name": "volume24h",
          "type": "uint256"
        },
        {
          "internalType": "uint256",
          "name": "liquidity",
          "type": "uint256"
        },
        {
          "internalType": "bool",
          "name": "isActive",
          "type": "bool"
        }
      ],
      "stateMutability": "view",
      "type": "function"
    },
    {
      "inputs": [],
      "name": "owner",
      "outputs": [
        {
          "internalType": "address",
          "name": "",
          "type": "address"
        }
      ],
      "stateMutability": "view",
      "type": "function"
    },
    {
      "inputs": [],
      "name": "positionManager",
      "outputs": [
        {
          "internalType": "contract INonfungiblePositionManager",
          "name": "",
          "type": "address"
        }
      ],
      "stateMutability": "view",
      "type": "function"
    },
    {
      "inputs": [],
      "name": "quoterV2",
      "outputs": [
        {
          "internalType": "contract IQuoterV2",
          "name": "",
          "type": "address"
        }
      ],
      "stateMutability": "view",
      "type": "function"
    },
    {
      "inputs": [],
      "name": "renounceOwnership",
      "outputs": [],
      "stateMutability": "nonpayable",
      "type": "function"
    },
    {
      "inputs": [
        {
          "internalType": "address",
          "name": "_factory",
          "type": "address"
        }
      ],
      "name": "setFactory",
      "outputs": [],
      "stateMutability": "nonpayable",
      "type": "function"
    },
    {
      "inputs": [
        {
          "internalType": "address",
          "name": "tokenOut",
          "type": "address"
        },
        {
          "internalType": "uint24",
          "name": "fee",
          "type": "uint24"
        }
      ],
      "name": "swapExactETHForTokens",
      "outputs": [],
      "stateMutability": "payable",
      "type": "function"
    },
    {
      "inputs": [
        {
          "internalType": "address",
          "name": "tokenOut",
          "type": "address"
        },
        {
          "internalType": "uint24",
          "name": "fee",
          "type": "uint24"
        },
        {
          "internalType": "uint256",
          "name": "slippageTolerance",
          "type": "uint256"
        }
      ],
      "name": "swapExactETHForTokensWithSlippage",
      "outputs": [],
      "stateMutability": "payable",
      "type": "function"
    },
    {
      "inputs": [
        {
          "internalType": "address",
          "name": "tokenIn",
          "type": "address"
        },
        {
          "internalType": "uint24",
          "name": "fee",
          "type": "uint24"
        },
        {
          "internalType": "uint256",
          "name": "amountIn",
          "type": "uint256"
        }
      ],
      "name": "swapExactTokensForETH",
      "outputs": [],
      "stateMutability": "nonpayable",
      "type": "function"
    },
    {
      "inputs": [
        {
          "internalType": "address",
          "name": "tokenIn",
          "type": "address"
        },
        {
          "internalType": "uint24",
          "name": "fee",
          "type": "uint24"
        },
        {
          "internalType": "uint256",
          "name": "amountIn",
          "type": "uint256"
        },
        {
          "internalType": "uint256",
          "name": "slippageTolerance",
          "type": "uint256"
        }
      ],
      "name": "swapExactTokensForETHWithSlippage",
      "outputs": [],
      "stateMutability": "nonpayable",
      "type": "function"
    },
    {
      "inputs": [],
      "name": "swapRouter",
      "outputs": [
        {
          "internalType": "contract ISwapRouter",
          "name": "",
          "type": "address"
        }
      ],
      "stateMutability": "view",
      "type": "function"
    },
    {
      "inputs": [
        {
          "internalType": "address",
          "name": "tokenIn",
          "type": "address"
        },
        {
          "internalType": "address",
          "name": "tokenOut",
          "type": "address"
        },
        {
          "internalType": "uint24",
          "name": "fee",
          "type": "uint24"
        },
        {
          "internalType": "uint256",
          "name": "amountIn",
          "type": "uint256"
        },
        {
          "internalType": "uint160",
          "name": "sqrtPriceLimitX96",
          "type": "uint160"
        }
      ],
      "name": "testQuoteExactInputSingle",
      "outputs": [
        {
          "internalType": "uint256",
          "name": "amountOut",
          "type": "uint256"
        }
      ],
      "stateMutability": "nonpayable",
      "type": "function"
    },
    {
      "inputs": [
        {
          "internalType": "address",
          "name": "",
          "type": "address"
        },
        {
          "internalType": "address",
          "name": "",
          "type": "address"
        },
        {
          "internalType": "uint24",
          "name": "",
          "type": "uint24"
        }
      ],
      "name": "tokenPools",
      "outputs": [
        {
          "internalType": "uint256",
          "name": "tokenId",
          "type": "uint256"
        },
        {
          "internalType": "uint256",
          "name": "liquidity",
          "type": "uint256"
        },
        {
          "internalType": "uint256",
          "name": "lockExpiry",
          "type": "uint256"
        },
        {
          "internalType": "bool",
          "name": "isActive",
          "type": "bool"
        },
        {
          "internalType": "uint256",
          "name": "createdAt",
          "type": "uint256"
        }
      ],
      "stateMutability": "view",
      "type": "function"
    },
    {
      "inputs": [
        {
          "internalType": "address",
          "name": "",
          "type": "address"
        }
      ],
      "name": "tokenPrices",
      "outputs": [
        {
          "internalType": "uint256",
          "name": "price",
          "type": "uint256"
        },
        {
          "internalType": "uint256",
          "name": "lastUpdated",
          "type": "uint256"
        },
        {
          "internalType": "uint256",
          "name": "volume24h",
          "type": "uint256"
        },
        {
          "internalType": "uint256",
          "name": "marketCap",
          "type": "uint256"
        }
      ],
      "stateMutability": "view",
      "type": "function"
    },
    {
      "inputs": [
        {
          "internalType": "address",
          "name": "newOwner",
          "type": "address"
        }
      ],
      "name": "transferOwnership",
      "outputs": [],
      "stateMutability": "nonpayable",
      "type": "function"
    },
    {
      "inputs": [],
      "name": "uniswapV3Factory",
      "outputs": [
        {
          "internalType": "contract IUniswapV3Factory",
          "name": "",
          "type": "address"
        }
      ],
      "stateMutability": "view",
      "type": "function"
    },
    {
      "inputs": [],
      "name": "withdrawETH",
      "outputs": [],
      "stateMutability": "nonpayable",
      "type": "function"
    },
    {
      "inputs": [
        {
          "internalType": "address",
          "name": "token",
          "type": "address"
        },
        {
          "internalType": "uint256",
          "name": "amount",
          "type": "uint256"
        }
      ],
      "name": "withdrawToken",
      "outputs": [],
      "stateMutability": "nonpayable",
      "type": "function"
    },
    {
      "stateMutability": "payable",
      "type": "receive"
    }
  ],
  "bytecode": "0x610120346200028a57601f62003fa338819003918201601f19168301916001600160401b038311848410176200028f5780849260a0946040528339810103126200028a576200004e81620002a5565b6200005c60208301620002a5565b916200006b60408201620002a5565b6200008760806200007f60608501620002a5565b9301620002a5565b933315620002715760008054336001600160a01b03198216811783556040516001600160a01b0397909388939192918416907f8be0079c531659141344cd1fd0a4f28419497f9722a3daafe3b4186f6b6457e09080a36001805516908115801562000266575b80156200025b575b801562000250575b801562000245575b620002365750608052831660a052821660c0521660e052610100908152604051613ce89182620002bb8339608051828181610626015281816111340152818161176f015281816120e30152612434015260a051828181610a9701528181611b82015281816135a40152818161360a0152613841015260c051828181610c3d01528181610d2401528181611592015281816128a401528181612be901528181612f0f015281816132330152613534015260e05182818161042c015281816110380152818161161401528181612005015281816123b90152818161292f01528181612cad0152612f960152518181816101d60152818161066a01528181610fcd0152818161153a01528181611fa00152818161234a01528181612e0f01528181613085015281816130b301526131ca0152f35b6389be0fdb60e01b8152600490fd5b508587161562000105565b5085851615620000fd565b5085841615620000f5565b5085831615620000ed565b604051631e4fbdf760e01b815260006004820152602490fd5b600080fd5b634e487b7160e01b600052604160045260246000fd5b51906001600160a01b03821682036200028a5756fe60406080815260048036101561001c575b5050361561001a57005b005b60009160e08335811c9081630277694a146122fe57816309842ab414611f505781630ad2338214611a615781630b99512b14611a2657816317085dfb146114cb578163204120bc146114725781632a21b75e14610f5d5750806330a52c3714610ec357806344a9892d14610e675780634a277c6214610d705780634c20378614610d535780635b54918214610d0f5780635bb4780814610cbf578063696d628314610bca578063715018a614610b705780637754167814610ac6578063791b98bc14610a825780638da5cb5b14610a5a578063917f3e5f1461080357806398e9cb12146107d65780639b5eb5111461078c5780639bc7c5861461074e5780639e281a9814610699578063ad5c464814610655578063c31c9c0714610611578063c45a0155146105e8578063ca88d5c51461056c578063d02641a014610502578063e086e5ec1461045b578063e20dccb214610417578063ee937e82146103fa578063f2fde38b146103655763f7f29185146101975750610010565b6101a036612523565b906101ac939293613121565b60018060a01b0392838516908188526020916005835260ff828a20541615610355578415610346577f0000000000000000000000000000000000000000000000000000000000000000958087169081831090811561033f5789915b15610337578089925b168c5260038652848c20911660005284528260002062ffffff8616600052845260ff60038460002001541661032757808a913b1561032357818a91855192838092630d0e30db60e41b825234905af1801561031957610301575b5082516323b872dd60e01b815233998101998a523060208b015260408a018790529884928a92918390036060019183915af19081156102f857506102be575b506102b794503492846134f5565b6001805580f35b85813d83116102f1575b6102d28183612652565b810103126102ed576102e66102b795612765565b50386102a9565b8580fd5b503d6102c8565b513d89823e3d90fd5b61030a90612605565b61031557883861026a565b8880fd5b84513d84823e3d90fd5b5080fd5b825163329e1cc760e01b81528990fd5b808a92610210565b8891610207565b815162716da360e31b81528890fd5b8151631934ad6160e01b81528890fd5b5090346103f65760203660031901126103f6576103806124d3565b9061038961347b565b6001600160a01b039182169283156103e0575050600054826bffffffffffffffffffffffff60a01b821617600055167f8be0079c531659141344cd1fd0a4f28419497f9722a3daafe3b4186f6b6457e0600080a380f35b51631e4fbdf760e01b8152908101849052602490fd5b8280fd5b8382346103235781600319360112610323576020905161012c8152f35b838234610323578160031936011261032357517f00000000000000000000000000000000000000000000000000000000000000006001600160a01b03168152602090f35b50346103f657826003193601126103f65761047461347b565b4780156104f557835484918291829182916001600160a01b03165af13d156104f0573d67ffffffffffffffff81116104dd578251906104bd601f8201601f191660200183612652565b81528460203d92013e5b156104d0578280f35b516301946bed60e31b8152fd5b634e487b7160e01b855260418452602485fd5b6104c7565b505162716da360e31b8152fd5b5090346103f65760203660031901126103f657909182916001600160a01b036105296124d3565b1682526020522081519061053c82612636565b80549182815260606003600184015493846020850152600281015487850152015491015282519182526020820152f35b5090346103f65760203660031901126103f65760a092906001600160a01b036105936124d3565b1682526020528181208251926105a884612636565b6060825494858152600184015460208201526003600285015494858584015201549182910152815194855260208501528301528060608301526080820152f35b83823461032357816003193601126103235760025490516001600160a01b039091168152602090f35b838234610323578160031936011261032357517f00000000000000000000000000000000000000000000000000000000000000006001600160a01b03168152602090f35b838234610323578160031936011261032357517f00000000000000000000000000000000000000000000000000000000000000006001600160a01b03168152602090f35b50346103f657806003193601126103f65760206106fa926106b86124d3565b6106c061347b565b8554845163a9059cbb60e01b81526001600160a01b0391821693810193845260243560208501529586938492899290918491604090910190565b0393165af1908115610745575061070f575080f35b6020813d60201161073d575b8161072860209383612652565b810103126103235761073990612765565b5080f35b3d915061071b565b513d84823e3d90fd5b8382346103235760203660031901126103235760209160ff9082906001600160a01b036107796124d3565b1681526005855220541690519015158152f35b5090346103f65760203660031901126103f6576107a76124d3565b6002549092906001600160a01b031633036107c957836107c6846130f8565b80f35b516301c9d96560e31b8152fd5b8334610800576020366003190112610800576107c66107f36124d3565b6107fb61347b565b6130f8565b80fd5b50346103f65761081236612559565b939461081f939193613121565b6001600160a01b038681169081158015610a50575b610a4057818a5260209860058a5260ff848c2054161580610a2d575b610a1f5786158015610a17575b610a0a5784821691828410908115610a03578a915b156109fb578087925b168d5260038c52858d2091166000528a528360002062ffffff87166000528a5260ff6003856000200154166109ed5783516323b872dd60e01b80825233828401908152306020820152604081018a90528d949392908d90829081906060010381888a5af180156109e357918b93918e95936109a0575b5087519081523391810191825230602083015260408201939093529193849283919082906060015b03925af180156109965761094e575b509060056102b79860ff938b52528820541660001461094757846134f5565b80946134f5565b8881819493943d831161098f575b6109668183612652565b8101031261098b576102b79860ff93610980600593612765565b509293509850610928565b8980fd5b503d61095c565b83513d8c823e3d90fd5b8094508591953d83116109dc575b6109b88183612652565b810103126109d857610919948d946109d08d95612765565b5090956108f1565b8480fd5b503d6109ae565b87513d87823e3d90fd5b835163329e1cc760e01b8152fd5b808b9261087b565b8691610872565b835162716da360e31b8152fd5b50871561085d565b8351631934ad6160e01b8152fd5b508185168b5260ff848c20541615610850565b82516389be0fdb60e01b81528990fd5b5080841615610834565b838234610323578160031936011261032357905490516001600160a01b039091168152602090f35b838234610323578160031936011261032357517f00000000000000000000000000000000000000000000000000000000000000006001600160a01b03168152602090f35b50823461080057606036600319011261080057610ae16124d3565b610ae96124e9565b9083610af3612511565b9360018060a01b038093168152600360205220911660005260205262ffffff826000209116600052602052610b6c816000209182549260018101549460028201549060ff6003840154169201549251958695869192608093969594919660a0840197845260208401526040830152151560608201520152565b0390f35b8334610800578060031936011261080057610b8961347b565b600080546001600160a01b0319811682556001600160a01b03167f8be0079c531659141344cd1fd0a4f28419497f9722a3daafe3b4186f6b6457e08280a380f35b50346103f65760603660031901126103f657610be46124d3565b906020610bef6124e9565b92610bf8612511565b946001600160a01b03948086168387161092610c3891908415610cb85780945b15610cb05750965b8551630b4c774160e11b815297889485948501612819565b0381857f0000000000000000000000000000000000000000000000000000000000000000165afa928315610ca65760209493610c77575b505191168152f35b610c98919350843d8611610c9f575b610c908183612652565b8101906127fa565b9138610c6f565b503d610c86565b81513d86823e3d90fd5b905096610c20565b8194610c18565b5090346103f65760203660031901126103f657610cda6124d3565b610ce261347b565b6001600160a01b03169182156107c95750506bffffffffffffffffffffffff60a01b600254161760025580f35b838234610323578160031936011261032357517f00000000000000000000000000000000000000000000000000000000000000006001600160a01b03168152602090f35b838234610323578160031936011261032357602090516101f48152f35b50823461080057606036600319011261080057610d8b6124d3565b610d936124e9565b83610d9c612511565b936001600160a01b038381168582161094909384918615610e605780965b15610e585750945b168152600360205220911660005260205262ffffff826000209116600052602052610b6c608082600020835194610df8866125d3565b815494858752600183015496876020820152600284015492838383015260ff6003860154161515948560608401520154948591015251958695869192608093969594919660a0840197845260208401526040830152151560608201520152565b905094610dc2565b8196610dba565b8382346103235760a036600319011261032357610e826124d3565b610e8a6124e9565b610e92612511565b608435949091906001600160a01b038616860361080057509160209491610ebc9360643592612e5d565b9051908152f35b5090346103f65760603660031901126103f65767ffffffffffffffff906024358281116109d857610ef790369083016125a2565b6044929192359384116102ed57610f14610f1d94369084016125a2565b93909235612ae2565b815192839260208080860192818752855180945286019401925b828110610f4657505050500390f35b835185528695509381019392810192600101610f37565b84915034610323576080806003193601126103f657610f7a6124d3565b91610f836124ff565b926044359160643590610f94613121565b60018060a01b038881851696878a526020946005865260ff838c20541615611462578715611453578c611388821161144557828a918d877f0000000000000000000000000000000000000000000000000000000000000000169d8e885195610ffb876125d3565b86528b8601528c8886015262ffffff16968760608601528184860152518080958194636352813560e11b8352820190611033916126bf565b0391897f0000000000000000000000000000000000000000000000000000000000000000165af18c9181611413575b50611077578c5163507864b360e11b81528e90fd5b918c969593918e959361271091820390828211611400579061109891612732565b04928a8d895189816024816370a0823160e01b968782528d30908301525afa9182156113f557908d926113c4575b5010611346575087516323b872dd60e01b815233818801908152306020820152604081018c90528e929190899082908f9082908790829060600103925af1801561133c578a8998979695948f92948f948d966112ee575b50915163095ea7b360e01b81526001600160a01b037f00000000000000000000000000000000000000000000000000000000000000009093169283169a81019a8b5260208b01949094529098929392849291839182906040015b03925af180156112e2576112aa575b5061012c4201918242116112975787969592946111ee948f99968f948f95948c958e51976111b389612619565b88528a8801528d8701523360608701528501528c60a085015260c0840152820152875196878094819363414bf38960e01b835288830161277f565b03925af192831561128d578993611255575b5061122b7fd36cc53ba71bc76a3db3364981f5296dd4ca5eba0e8c89874f2170515bd20d24956131bb565b8689528152600283892001611241838254612772565b905582519485528401523392a46001805580f35b9492508185813d8311611286575b61126d8183612652565b81010312611281579351919361122b611200565b600080fd5b503d611263565b84513d8b823e3d90fd5b634e487b7160e01b8e526011875260248efd5b8781813d83116112db575b6112bf8183612652565b810103126112d7576112d090612765565b508d611186565b8d80fd5b503d6112b5565b8e8a51903d90823e3d90fd5b945094925098505081813d8311611335575b61130a8183612652565b81010312611331578b8d8b8a99611177956113258e96612765565b5090919293949561111d565b8680fd5b503d611300565b8a513d85823e3d90fd5b868b8f8b8f948c809160248451809981938252308a8301525afa9283156113b95792611388575b5051631555006160e11b815292830152602482015260449150fd5b90915084813d83116113b2575b61139f8183612652565b810103126112815760449351908561136d565b503d611395565b8251903d90823e3d90fd5b8092508a8092503d83116113ee575b6113dd8183612652565b81010312611281578b9051386110c6565b503d6113d3565b8b51903d90823e3d90fd5b634e487b7160e01b8f526011885260248ffd5b611434919250843d861161143e575b61142c8183612652565b810190612688565b505050908f611062565b503d611422565b83516312000fe360e11b8152fd5b825162716da360e31b81528d90fd5b8251631934ad6160e01b81528d90fd5b505090346103f65760203660031901126103f65760809282916001600160a01b0361149b6124d3565b16825260205220908154916001810154916003600283015492015492815194855260208501528301526060820152f35b919390506114d836612523565b906114e4949294613121565b60018060a01b0394858116928386526020966005885260ff8a8820541615611a16576113888211611a065762ffffff8416916064831415806119fa575b806119ee575b806119e2575b6119d2578a89898c61158d7f000000000000000000000000000000000000000000000000000000000000000099878b169a8c8c10806000146119cb5781955b50156119c5575089955b51630b4c774160e11b815295869485948501612819565b0381867f0000000000000000000000000000000000000000000000000000000000000000165afa9081156119bb579083918a9161199e575b50161561198e5761160e60808a8c8e8a8151936115e1856125d3565b8b855284015234818401528760608401528c84840152519384928392636352813560e11b845283016126bf565b03818c877f0000000000000000000000000000000000000000000000000000000000000000165af189918161196a575b5061171f5750505050505050819060033d1161170f575b506308c379a0146116a3575b506064925191639f9516d160e01b8352820152601960248201527f556e6b6e6f776e206572726f7220696e2051756f7465725632000000000000006044820152fd5b6116ab6129fd565b90816116b75750611661565b8284918651948593639f9516d160e01b8552840152835191826024850152815b8381106116f857505060448094508284010152601f80199101168101030190fd5b8086018201518782016044015286945081016116d7565b90508382803e8151901c38611655565b968a928c94928b97989961271091820390828211611957579061174191612732565b0490883b15611949578551630d0e30db60e41b81528b9081818881348f5af1801561194d57611935575b50507f0000000000000000000000000000000000000000000000000000000000000000169288888c88519283809263095ea7b360e01b8252816117c78c8c3491840160209093929193604081019460018060a01b031681520152565b03925af1801561192b576118f3575b5061012c4201908142116118e05788938a936118399796938e938e8b51976117fd89612619565b8852888801528a87015233606087015260808601523460a086015260c08501528301528551808096819463414bf38960e01b835287830161277f565b039134905af19182156118d65788926118a3575b506118787fd36cc53ba71bc76a3db3364981f5296dd4ca5eba0e8c89874f2170515bd20d24946131bb565b868852845260028288200161188e348254612772565b90558151933485528401523392a46001805580f35b9391508484813d83116118cf575b6118bb8183612652565b81010312611281579251909261187861184d565b503d6118b1565b83513d8a823e3d90fd5b634e487b7160e01b8c526011865260248cfd5b8881813d8311611924575b6119088183612652565b810103126119205761191990612765565b508b6117d6565b8b80fd5b503d6118fe565b87513d8e823e3d90fd5b61193e90612605565b611949578a8c61176b565b8a80fd5b88513d84823e3d90fd5b634e487b7160e01b8d526011875260248dfd5b61198491925060803d60801161143e5761142c8183612652565b505050903861163e565b8a5163899c886160e01b81528a90fd5b6119b591508b3d8d11610c9f57610c908183612652565b386115c5565b8c513d8b823e3d90fd5b95611576565b8b9561156c565b8a516342a83cdd60e01b81528a90fd5b5061271083141561152d565b50610bb8831415611527565b506101f4831415611521565b89516312000fe360e11b81528990fd5b8951631934ad6160e01b81528990fd5b84833461032357608036600319011261032357602090610ebc611a476124d3565b611a4f6124e9565b611a57612511565b906064359261283f565b50509082611a6e36612559565b94919690939295611a7d613121565b6001600160a01b038781169785821697918989109181908315611f495788935b15611f4157925b1690818752808660209860038a522093169283600052875262ffffff866000209c169b8c600052875260ff60038760002001541615611f315788158015611f29575b611f1a5785516323b872dd60e01b80825233828801908152306020820152604081018c90528f9392908a9082908f9082908890829060600103925af18015611f10578e89868d948b94611eca575b508c519586523391860191825230602083015260408201939093528492839182906060015b03925af18015611ec0578c8c9695949389938c93611e7c575b508a5163095ea7b360e01b8082527f0000000000000000000000000000000000000000000000000000000000000000929092166001600160a01b0381169582019586526020860199909952909390929183918290879082906040015b03925af18015611e7257888f91948c9489948b97611e30575b50611c128d51978896879586948552840160209093929193604081019460018060a01b031681520152565b03925af18015611e2457611df0575b508c5260038652848c20906000528552836000208a600052855283600020549161012c420190814211611ddd5785519360c0850185811067ffffffffffffffff821117611dc857928e9260c4959260609897958a5285528985019b8c52888501908152878501848152608086019185835260a087019384528a519d8e998a9863219f5d1760e01b8a5251908901525160248801525160448701525160648601525160848501525160a48401525af1928315611dbe57889489938a95611d42575b505093611d3891611d127f66f68636a37c16d9b851b4467d85bfdc07b98135fc5f50b62510198bd4589468966131bb565b51938493849160409194936001600160801b039160608501968552602085015216910152565b0390a46001805580f35b9350945092506060843d606011611db6575b81611d6160609383612652565b81010312611db2578381611d12611d3893611d9c7f66f68636a37c16d9b851b4467d85bfdc07b98135fc5f50b62510198bd4589468986127e6565b9584015193015194929495929650819350611ce1565b8780fd5b3d9150611d54565b81513d8a823e3d90fd5b604187634e487b7160e01b6000525260246000fd5b634e487b7160e01b8d526011855260248dfd5b8781813d8311611e1d575b611e058183612652565b810103126112d757611e1690612765565b5038611c21565b503d611dfb565b8e8851903d90823e3d90fd5b959350955092505082813d8311611e6b575b611e4c8183612652565b81010312610800578d8887928995611e648e96612765565b5038611be7565b503d611e42565b89513d85823e3d90fd5b935096505081813d8311611eb9575b611e958183612652565b81010312610323578189611bce8e8e98611eaf8c96612765565b5091509192611b72565b503d611e8b565b88513d85823e3d90fd5b94935050505081813d8311611f09575b611ee48183612652565b81010312611f0557868e8986611b5995611efe8f96612765565b5095611b34565b8380fd5b503d611eda565b89513d86823e3d90fd5b855162716da360e31b81528590fd5b508315611ae6565b855163329e1cc760e01b81528590fd5b508792611aa4565b8093611a9d565b8491503461032357611f6136612523565b909291611f6c613121565b60018060a01b03808216938487526020916005835260ff8989205416156122ee5784156122df5788611fff608062ffffff847f0000000000000000000000000000000000000000000000000000000000000000169a89855195611fce876125d3565b8c87528d8a88015286015216928360608201528b828201528d8d519384928392636352813560e11b845283016126bf565b03818d877f0000000000000000000000000000000000000000000000000000000000000000165af18a91816122bb575b50612044578a5163507864b360e11b81528c90fd5b918a9493916127106120568e95612705565b0491898c885188816024816370a0823160e01b96878252308d8301525afa9182156122b057908c9261227f575b501061223f575086516323b872dd60e01b815233818701908152306020820152604081018b90528d959493929190889082908e9082908a90829060600103925af18015612235578c89928d926121f6575b508a5163095ea7b360e01b81527f0000000000000000000000000000000000000000000000000000000000000000949094166001600160a01b0381168a8601908152602081019390935297849283919082906040015b03925af180156121ec576121b4575b5061012c4201908142116121a1578c87969592946111ee948299968f948f958d519661216488612619565b8752898701528c86015233606086015260808501528c60a085015260c0840152820152875196878094819363414bf38960e01b835288830161277f565b634e487b7160e01b8d526011865260248dfd5b8681813d83116121e5575b6121c98183612652565b810103126121e1576121da90612765565b508c612139565b8c80fd5b503d6121bf565b88513d8f823e3d90fd5b928092508391503d831161222e575b61220f8183612652565b810103126102ed578a8c61212a936122278b94612765565b50936120d4565b503d612205565b89513d88823e3d90fd5b8a868b8f8b8b808760248451809981938252308a8301525afa9283156113b95792611388575051631555006160e11b815292830152602482015260449150fd5b809250898092503d83116122a9575b6122988183612652565b81010312611281578a90518f612083565b503d61228e565b8a51903d90823e3d90fd5b6122d591925060803d60801161143e5761142c8183612652565b505050908d61202f565b885162716da360e31b81528a90fd5b8851631934ad6160e01b81528a90fd5b84915082600319360112610323576123146124d3565b61231c6124ff565b91612325613121565b60018060a01b0391828116938486526020926005845260ff8888205416156124c357847f000000000000000000000000000000000000000000000000000000000000000016946123b3608062ffffff8b5195612380876125d3565b8987528a89880152348d88015216948560608201528a828201528c8c519384928392636352813560e11b845283016126bf565b03818c867f0000000000000000000000000000000000000000000000000000000000000000165af189918161249f575b506123f857895163507864b360e11b81528b90fd5b918993916127106124098d95612705565b0490883b15611949578551630d0e30db60e41b81528b818781348e5af1801561192b5761248c575b507f0000000000000000000000000000000000000000000000000000000000000000169288888c88519283809263095ea7b360e01b8252816117c78c8c3491840160209093929193604081019460018060a01b031681520152565b612498909b919b612605565b998b612431565b6124b991925060803d60801161143e5761142c8183612652565b505050908c6123e3565b8751631934ad6160e01b81528990fd5b600435906001600160a01b038216820361128157565b602435906001600160a01b038216820361128157565b6024359062ffffff8216820361128157565b6044359062ffffff8216820361128157565b6060906003190112611281576004356001600160a01b0381168103611281579060243562ffffff81168103611281579060443590565b60a0906003190112611281576001600160a01b0390600435828116810361128157916024359081168103611281579060443562ffffff8116810361128157906064359060843590565b9181601f840112156112815782359167ffffffffffffffff8311611281576020808501948460051b01011161128157565b60a0810190811067ffffffffffffffff8211176125ef57604052565b634e487b7160e01b600052604160045260246000fd5b67ffffffffffffffff81116125ef57604052565b610100810190811067ffffffffffffffff8211176125ef57604052565b6080810190811067ffffffffffffffff8211176125ef57604052565b90601f8019910116810190811067ffffffffffffffff8211176125ef57604052565b51906001600160a01b038216820361128157565b9190826080910312611281578151916126a360208201612674565b91604082015163ffffffff811681036112815760609092015190565b919091608060a08201938160018060a01b03918281511685528260208201511660208601526040810151604086015262ffffff6060820151166060860152015116910152565b9061251c9182810292818404149015171561271c57565b634e487b7160e01b600052601160045260246000fd5b8181029291811591840414171561271c57565b811561274f570490565b634e487b7160e01b600052601260045260246000fd5b5190811515820361128157565b9190820180921161271c57565b91909160e06101008201938160018060a01b039182815116855282602082015116602086015262ffffff60408201511660408601528260608201511660608601526080810151608086015260a081015160a086015260c081015160c0860152015116910152565b51906001600160801b038216820361128157565b9081602091031261128157516001600160a01b03811681036112815790565b6001600160a01b0391821681529116602082015262ffffff909116604082015260600190565b9092906001600160a01b039081811690811580156129f3575b6129e15783156129d057602085918488169788851091826000146129c95780925b156129c15750905b61289f6040519485938493630b4c774160e11b855260048501612819565b0381867f0000000000000000000000000000000000000000000000000000000000000000165afa80156129b5578391600091612996575b50161561298c5762ffffff60809461292b94600097604051946128f8866125d3565b8552602085015260408401521660608201528484820152604051948580948193636352813560e11b8352600483016126bf565b03927f0000000000000000000000000000000000000000000000000000000000000000165af160009181612968575b506129655750600090565b90565b61298291925060803d60801161143e5761142c8183612652565b505050903861295a565b5050505050600090565b6129af915060203d602011610c9f57610c908183612652565b386128d6565b6040513d6000823e3d90fd5b905090612881565b8192612879565b60405162716da360e31b8152600490fd5b6040516389be0fdb60e01b8152600490fd5b5082861615612858565b600060443d1061296557604051600319913d83016004833e815167ffffffffffffffff918282113d602484011117612a5b57818401948551938411612a63573d85010160208487010111612a5b575061296592910160200190612652565b949350505050565b50949350505050565b9190811015612a7c5760051b0190565b634e487b7160e01b600052603260045260246000fd5b356001600160a01b03811681036112815790565b67ffffffffffffffff81116125ef5760051b60200190565b8051821015612a7c5760209160051b010190565b3562ffffff811681036112815790565b9390919260028410612e4b578360001981011161271c5781840360001901612e395760005b848110612daa5750612b1884612aa6565b94612b266040519687612652565b848652612b3285612aa6565b6020870190601f1901368237865115612a7c575260009291905b8460001981011161271c576000198501841015612da257612b76612b71858786612a6c565b612a92565b93600181019485821161271c57612b91612b71878988612a6c565b906001600160a01b03808316908216108015612d9b5781905b15612d93576020835b612bc6612bc1878a8a612a6c565b612ad2565b92612be56040519485938493630b4c774160e11b855260048501612819565b03817f00000000000000000000000000000000000000000000000000000000000000006001600160a01b03165afa9081156129b557600091612d74575b506001600160a01b031615612d4b5762ffffff612ca792612c47612bc1868989612a6c565b90612c52868d612abe565b519060405194612c61866125d3565b60018060a01b0316855260018060a01b0316602085015260408401521660608201526080816000828094015260405180948192636352813560e11b8352600483016126bf565b038160007f00000000000000000000000000000000000000000000000000000000000000006001600160a01b03165af1918291600093612d29575b5050612d105750505050505b818110612cfa57505090565b806000612d0960019386612abe565b5201612cee565b612d1f60019394959689612abe565b5201929190612b4c565b612d40929350803d1061143e5761142c8183612652565b505050903880612ce2565b5050505050505b818110612d5e57505090565b806000612d6d60019386612abe565b5201612d52565b612d8d915060203d602011610c9f57610c908183612652565b38612c22565b602082612bb3565b8290612baa565b505050505090565b6001600160a01b0380612dc1612b71848989612a6c565b16600052600560205260409060ff826000205416159081612dfb575b50612deb5750600101612b07565b51631934ad6160e01b8152600490fd5b9050612e0b612b71848989612a6c565b90807f0000000000000000000000000000000000000000000000000000000000000000169116141538612ddd565b6040516397cc7f9560e01b8152600490fd5b604051631225bcdd60e01b8152600490fd5b90936001600160a01b0393848316939290841580156130ee575b6129e15780156129d057600096858852600560205260409460ff868a20541615806130db575b806130af575b80613081575b6130705762ffffff811693606485141580613064575b80613058575b8061304c575b61303b5760209089841693848a1091826000146130345780925b1561302c5750905b612f0a89519485938493630b4c774160e11b855260048501612819565b03818b7f0000000000000000000000000000000000000000000000000000000000000000165afa908115613022579088918a91613003575b501615612ff2579580936080969386938a99612f92985196612f63886125d3565b87526020870152848601526060850152168583015251948580948193636352813560e11b8352600483016126bf565b03927f0000000000000000000000000000000000000000000000000000000000000000165af1829181612fce575b50612fc9575090565b905090565b612fe891925060803d60801161143e5761142c8183612652565b5050509038612fc0565b845163899c886160e01b8152600490fd5b61301c915060203d602011610c9f57610c908183612652565b38612f42565b86513d8b823e3d90fd5b905090612eed565b8192612ee5565b86516342a83cdd60e01b8152600490fd5b50612710851415612ecb565b50610bb8851415612ec5565b506101f4851415612ebf565b8551631934ad6160e01b8152600490fd5b50877f0000000000000000000000000000000000000000000000000000000000000000168883161415612ea9565b50877f000000000000000000000000000000000000000000000000000000000000000016871415612ea3565b50878216895260ff868a20541615612e9d565b5085871615612e77565b6001600160a01b031680156129e15760005260056020526040600020600160ff19825416179055565b600260015414613132576002600155565b604051633ee5aeb560e01b8152600490fd5b519061ffff8216820361128157565b908160e09103126112815761316781612674565b9160208201518060020b8103611281579161318460408201613144565b9161319160608301613144565b9161319e60808201613144565b9160a082015160ff811681036112815760c0612965919301612765565b6001600160a01b0381811691907f0000000000000000000000000000000000000000000000000000000000000000808216841090811561347457835b821561346c5750905b60409280845193630b4c774160e11b8552816004971687860152166024840152610bb860448401526020928381606481857f0000000000000000000000000000000000000000000000000000000000000000165afa90811561343b5790829160009161344f575b501680156134465760e08691865192838092633850c7bd851b82525afa90811561343b57600091613406575b50600092156133cf576132a892501680612732565b670de0b6b3a7640000908181029181830414901517156133ba5760c01c905b82516318160ddd60e01b81529381858281895afa9485156133af5760009561337f575b506003670de0b6b3a76400006133217fb556fac599c3c70efb9ab1fa725ecace6c81cc48d1455f886607def065f3e0c09786612732565b0487600052828452600286600020015486519361333d85612636565b86855285850190428252888601928352606086019384528a600052865287600020945185555160018501555160028401555191015582519182524290820152a2565b94508185813d83116133a8575b6133968183612652565b810103126112815793519360036132ea565b503d61338c565b84513d6000823e3d90fd5b601184634e487b7160e01b6000525260246000fd5b6133da911680612732565b9081156133f357506503782dace9d960d21b04906132c7565b634e487b7160e01b815260128552602490fd5b613428915060e03d60e011613434575b6134208183612652565b810190613153565b50505050505038613293565b503d613416565b85513d6000823e3d90fd5b50505050505050565b6134669150853d8711610c9f57610c908183612652565b38613267565b905090613200565b80936131f7565b6000546001600160a01b0316330361348f57565b60405163118cdaa760e01b8152336004820152602490fd5b60020b60011b908160020b91820361271c57565b9060020b9060020b02908160020b91820361271c57565b60020b9060020b90811561274f57627fffff19811460001983141661271c570590565b9395946001600160a01b038281169086161094936000928615613c1d57855b8715613c155750955b15613c1057965b604051630b4c774160e11b8152977f00000000000000000000000000000000000000000000000000000000000000006001600160a01b031660208a8061356f898c8c60048501612819565b0381845afa998a156129b55760009a613bef575b506001600160a01b038a1615613afb575b5060405163095ea7b360e01b81527f00000000000000000000000000000000000000000000000000000000000000006001600160a01b031660048201526024810182905260208180604481010381886001600160a01b038c165af18015613ab757613ac2575b5060405163095ea7b360e01b81527f00000000000000000000000000000000000000000000000000000000000000006001600160a01b031660048201526024810183905260208180604481010381886001600160a01b038d165af18015613ab757613a72575b50604051633850c7bd60e01b815297989697959660e090879060049082906001600160a01b03165afa958615613a67578496613a3f575b506136a185613c24565b6136aa816134a7565b9660020b9660020b8703627fffff80199181811383821217613a2b57836136d4816136d9936134d2565b6134bb565b986136e3846134a7565b60020b0191821290821317613a1757906136d481613700936134d2565b61012c42014211613a0357604051968761016081011067ffffffffffffffff6101608a0111176125ef57610160880160405260018060a01b038916885260018060a01b038a16602089015262ffffff8716604089015260020b606088015260020b608087015260a086015260c08501528160e0850152816101008501523061012085015261012c420161014085015261014060405194634418b22b60e11b865260018060a01b03815116600487015260018060a01b03602082015116602487015262ffffff6040820151166044870152606081015160020b6064870152608081015160020b608487015260a081015160a487015260c081015160c487015260e081015160e487015261010081015161010487015260018060a01b03610120820151166101248701520151610144850152608084610164818560018060a01b037f0000000000000000000000000000000000000000000000000000000000000000165af19081156139f8578283809681946139a4575b5062278d0042018042116139905761398b9362ffffff969360048b7fa12f7d42aa572c92b5e0ba50a30cacd389bb68257862ca2b55065b7030a860649a9895613952958f604051956138c6876125d3565b865260208601906001600160801b038b168252604087019283526040606088019460018652608089019642885260018060a01b031681526003602052209060018060a01b031660005260205260406000208d8d16600052602052604060002095518655516001860155516002850155600384019051151560ff80198354169116179055519101556131bb565b6040805197885260208801919091526001600160801b03909116908601529116946001600160a01b039081169416929081906060820190565b0390a4565b634e487b7160e01b82526011600452602482fd5b945092505093506080823d6080116139f0575b816139c460809383612652565b81010312610800578151936139db602084016127e6565b60606040850151940151959093959238613875565b3d91506139b7565b6040513d84823e3d90fd5b634e487b7160e01b85526011600452602485fd5b634e487b7160e01b86526011600452602486fd5b634e487b7160e01b88526011600452602488fd5b613a5991965060e03d60e011613434576134208183612652565b505050505090509438613697565b6040513d86823e3d90fd5b6020813d602011613aaf575b81613a8b60209383612652565b810103126109d857600496979899613aa460e092612765565b509998979650613660565b3d9150613a7e565b6040513d87823e3d90fd5b6020813d602011613af3575b81613adb60209383612652565b810103126109d857613aec90612765565b50386135fa565b3d9150613ace565b60405163a167129560e01b815299506020908a9081600081613b228b8e8e60048501612819565b03925af19889156129b557600099613bce575b5088600160601b606084901b84158582048314171561271c5783613b5891612745565b8060601b91818304149015171561271c576001600160a01b0390613b7b90613c67565b6001600160a01b039092169116813b156112815760009160248392604051948593849263f637731d60e01b845260048401525af180156129b5571561359457613bc5919450612605565b60009238613594565b613be891995060203d602011610c9f57610c908183612652565b9738613b35565b613c09919a5060203d602011610c9f57610c908183612652565b9838613583565b613524565b90509561351d565b8095613514565b62ffffff1660648114613c61576101f48114613c5b57610bb88114613c555761271014613c5057603c90565b60c890565b50603c90565b50600a90565b50600190565b8015613cac57600180820180831161271c5760011c90825b838310613c8c5750505090565b90919250613ca383613c9e8184612745565b612772565b821c9190613c7f565b5060009056fea264697066735822122058d2f900092408987b30035c153fa2b793c55e912072be759149fd687e1e071c64736f6c63430008180033",
  "linkReferences": {},
  "deployedLinkReferences": {}
}