{
  "_format": "hh-sol-artifact-1",
  "contractName": "PumpFunGovernance",
  "sourceName": "contracts/PumpFunGovernance.sol",
  "abi": [
    {
      "inputs": [],
      "stateMutability": "nonpayable",
      "type": "constructor"
    },
    {
      "inputs": [
        {
          "internalType": "address",
          "name": "owner",
          "type": "address"
        }
      ],
      "name": "OwnableInvalidOwner",
      "type": "error"
    },
    {
      "inputs": [
        {
          "internalType": "address",
          "name": "account",
          "type": "address"
        }
      ],
      "name": "OwnableUnauthorizedAccount",
      "type": "error"
    },
    {
      "inputs": [],
      "name": "PumpFunGovernance__AlreadyVoted",
      "type": "error"
    },
    {
      "inputs": [],
      "name": "PumpFunGovernance__EmptyDescription",
      "type": "error"
    },
    {
      "inputs": [],
      "name": "PumpFunGovernance__ExecutionFailed",
      "type": "error"
    },
    {
      "inputs": [],
      "name": "PumpFunGovernance__InsufficientTokenBalance",
      "type": "error"
    },
    {
      "inputs": [],
      "name": "PumpFunGovernance__InvalidProposalType",
      "type": "error"
    },
    {
      "inputs": [],
      "name": "PumpFunGovernance__InvalidRecipients",
      "type": "error"
    },
    {
      "inputs": [],
      "name": "PumpFunGovernance__ProposalAlreadyExecuted",
      "type": "error"
    },
    {
      "inputs": [],
      "name": "PumpFunGovernance__ProposalNotActive",
      "type": "error"
    },
    {
      "inputs": [],
      "name": "PumpFunGovernance__ProposalNotFound",
      "type": "error"
    },
    {
      "inputs": [],
      "name": "PumpFunGovernance__ProposalNotPassed",
      "type": "error"
    },
    {
      "inputs": [],
      "name": "ReentrancyGuardReentrantCall",
      "type": "error"
    },
    {
      "anonymous": false,
      "inputs": [
        {
          "indexed": true,
          "internalType": "address",
          "name": "previousOwner",
          "type": "address"
        },
        {
          "indexed": true,
          "internalType": "address",
          "name": "newOwner",
          "type": "address"
        }
      ],
      "name": "OwnershipTransferred",
      "type": "event"
    },
    {
      "anonymous": false,
      "inputs": [
        {
          "indexed": true,
          "internalType": "uint256",
          "name": "proposalId",
          "type": "uint256"
        },
        {
          "indexed": true,
          "internalType": "address",
          "name": "creator",
          "type": "address"
        },
        {
          "indexed": true,
          "internalType": "address",
          "name": "token",
          "type": "address"
        },
        {
          "indexed": false,
          "internalType": "string",
          "name": "description",
          "type": "string"
        },
        {
          "indexed": false,
          "internalType": "uint256",
          "name": "proposalType",
          "type": "uint256"
        },
        {
          "indexed": false,
          "internalType": "uint256",
          "name": "endTime",
          "type": "uint256"
        }
      ],
      "name": "ProposalCreated",
      "type": "event"
    },
    {
      "anonymous": false,
      "inputs": [
        {
          "indexed": true,
          "internalType": "uint256",
          "name": "proposalId",
          "type": "uint256"
        },
        {
          "indexed": true,
          "internalType": "address",
          "name": "executor",
          "type": "address"
        }
      ],
      "name": "ProposalExecuted",
      "type": "event"
    },
    {
      "anonymous": false,
      "inputs": [
        {
          "indexed": true,
          "internalType": "uint256",
          "name": "proposalId",
          "type": "uint256"
        },
        {
          "indexed": true,
          "internalType": "address",
          "name": "voter",
          "type": "address"
        },
        {
          "indexed": false,
          "internalType": "bool",
          "name": "support",
          "type": "bool"
        },
        {
          "indexed": false,
          "internalType": "uint256",
          "name": "votingPower",
          "type": "uint256"
        }
      ],
      "name": "VoteCast",
      "type": "event"
    },
    {
      "inputs": [],
      "name": "MIN_VOTING_POWER",
      "outputs": [
        {
          "internalType": "uint256",
          "name": "",
          "type": "uint256"
        }
      ],
      "stateMutability": "view",
      "type": "function"
    },
    {
      "inputs": [],
      "name": "VOTING_PERIOD",
      "outputs": [
        {
          "internalType": "uint256",
          "name": "",
          "type": "uint256"
        }
      ],
      "stateMutability": "view",
      "type": "function"
    },
    {
      "inputs": [
        {
          "internalType": "uint256",
          "name": "proposalId",
          "type": "uint256"
        }
      ],
      "name": "canExecuteProposal",
      "outputs": [
        {
          "internalType": "bool",
          "name": "",
          "type": "bool"
        }
      ],
      "stateMutability": "view",
      "type": "function"
    },
    {
      "inputs": [
        {
          "internalType": "address",
          "name": "token",
          "type": "address"
        },
        {
          "internalType": "string",
          "name": "description",
          "type": "string"
        },
        {
          "internalType": "uint256",
          "name": "proposalType",
          "type": "uint256"
        },
        {
          "internalType": "uint256",
          "name": "proposedValue",
          "type": "uint256"
        },
        {
          "internalType": "address[]",
          "name": "recipients",
          "type": "address[]"
        },
        {
          "internalType": "uint256[]",
          "name": "amounts",
          "type": "uint256[]"
        }
      ],
      "name": "createProposal",
      "outputs": [],
      "stateMutability": "nonpayable",
      "type": "function"
    },
    {
      "inputs": [
        {
          "internalType": "uint256",
          "name": "proposalId",
          "type": "uint256"
        }
      ],
      "name": "deactivateProposal",
      "outputs": [],
      "stateMutability": "nonpayable",
      "type": "function"
    },
    {
      "inputs": [
        {
          "internalType": "uint256",
          "name": "proposalId",
          "type": "uint256"
        }
      ],
      "name": "executeProposal",
      "outputs": [],
      "stateMutability": "nonpayable",
      "type": "function"
    },
    {
      "inputs": [],
      "name": "getActiveProposalsCount",
      "outputs": [
        {
          "internalType": "uint256",
          "name": "",
          "type": "uint256"
        }
      ],
      "stateMutability": "view",
      "type": "function"
    },
    {
      "inputs": [
        {
          "internalType": "uint256",
          "name": "proposalId",
          "type": "uint256"
        }
      ],
      "name": "getProposal",
      "outputs": [
        {
          "internalType": "address",
          "name": "creator",
          "type": "address"
        },
        {
          "internalType": "address",
          "name": "token",
          "type": "address"
        },
        {
          "internalType": "string",
          "name": "description",
          "type": "string"
        },
        {
          "internalType": "uint256",
          "name": "votesFor",
          "type": "uint256"
        },
        {
          "internalType": "uint256",
          "name": "votesAgainst",
          "type": "uint256"
        },
        {
          "internalType": "uint256",
          "name": "endTime",
          "type": "uint256"
        },
        {
          "internalType": "bool",
          "name": "executed",
          "type": "bool"
        },
        {
          "internalType": "bool",
          "name": "active",
          "type": "bool"
        },
        {
          "internalType": "uint256",
          "name": "proposalType",
          "type": "uint256"
        },
        {
          "internalType": "uint256",
          "name": "proposedValue",
          "type": "uint256"
        },
        {
          "internalType": "address[]",
          "name": "recipients",
          "type": "address[]"
        },
        {
          "internalType": "uint256[]",
          "name": "amounts",
          "type": "uint256[]"
        }
      ],
      "stateMutability": "view",
      "type": "function"
    },
    {
      "inputs": [
        {
          "internalType": "uint256",
          "name": "proposalId",
          "type": "uint256"
        }
      ],
      "name": "getProposalStatus",
      "outputs": [
        {
          "internalType": "string",
          "name": "",
          "type": "string"
        }
      ],
      "stateMutability": "view",
      "type": "function"
    },
    {
      "inputs": [
        {
          "internalType": "address",
          "name": "voter",
          "type": "address"
        },
        {
          "internalType": "address",
          "name": "token",
          "type": "address"
        }
      ],
      "name": "getVotingPower",
      "outputs": [
        {
          "internalType": "uint256",
          "name": "",
          "type": "uint256"
        }
      ],
      "stateMutability": "view",
      "type": "function"
    },
    {
      "inputs": [
        {
          "internalType": "uint256",
          "name": "",
          "type": "uint256"
        },
        {
          "internalType": "address",
          "name": "",
          "type": "address"
        }
      ],
      "name": "hasVotedOnProposal",
      "outputs": [
        {
          "internalType": "bool",
          "name": "",
          "type": "bool"
        }
      ],
      "stateMutability": "view",
      "type": "function"
    },
    {
      "inputs": [],
      "name": "owner",
      "outputs": [
        {
          "internalType": "address",
          "name": "",
          "type": "address"
        }
      ],
      "stateMutability": "view",
      "type": "function"
    },
    {
      "inputs": [],
      "name": "proposalCount",
      "outputs": [
        {
          "internalType": "uint256",
          "name": "",
          "type": "uint256"
        }
      ],
      "stateMutability": "view",
      "type": "function"
    },
    {
      "inputs": [
        {
          "internalType": "uint256",
          "name": "",
          "type": "uint256"
        }
      ],
      "name": "proposals",
      "outputs": [
        {
          "internalType": "address",
          "name": "creator",
          "type": "address"
        },
        {
          "internalType": "address",
          "name": "token",
          "type": "address"
        },
        {
          "internalType": "string",
          "name": "description",
          "type": "string"
        },
        {
          "internalType": "uint256",
          "name": "votesFor",
          "type": "uint256"
        },
        {
          "internalType": "uint256",
          "name": "votesAgainst",
          "type": "uint256"
        },
        {
          "internalType": "uint256",
          "name": "endTime",
          "type": "uint256"
        },
        {
          "internalType": "bool",
          "name": "executed",
          "type": "bool"
        },
        {
          "internalType": "bool",
          "name": "active",
          "type": "bool"
        },
        {
          "internalType": "uint256",
          "name": "proposalType",
          "type": "uint256"
        },
        {
          "internalType": "uint256",
          "name": "proposedValue",
          "type": "uint256"
        }
      ],
      "stateMutability": "view",
      "type": "function"
    },
    {
      "inputs": [],
      "name": "renounceOwnership",
      "outputs": [],
      "stateMutability": "nonpayable",
      "type": "function"
    },
    {
      "inputs": [
        {
          "internalType": "address",
          "name": "newOwner",
          "type": "address"
        }
      ],
      "name": "transferOwnership",
      "outputs": [],
      "stateMutability": "nonpayable",
      "type": "function"
    },
    {
      "inputs": [
        {
          "internalType": "uint256",
          "name": "newMinPower",
          "type": "uint256"
        }
      ],
      "name": "updateMinVotingPower",
      "outputs": [],
      "stateMutability": "nonpayable",
      "type": "function"
    },
    {
      "inputs": [
        {
          "internalType": "uint256",
          "name": "proposalId",
          "type": "uint256"
        },
        {
          "internalType": "bool",
          "name": "support",
          "type": "bool"
        }
      ],
      "name": "vote",
      "outputs": [],
      "stateMutability": "nonpayable",
      "type": "function"
    },
    {
      "inputs": [
        {
          "internalType": "uint256",
          "name": "",
          "type": "uint256"
        },
        {
          "internalType": "address",
          "name": "",
          "type": "address"
        }
      ],
      "name": "voterPower",
      "outputs": [
        {
          "internalType": "uint256",
          "name": "",
          "type": "uint256"
        }
      ],
      "stateMutability": "view",
      "type": "function"
    }
  ],
  "bytecode": "0x6080806040523461007e5733156100685760008054336001600160a01b03198216811783556040519290916001600160a01b0316907f8be0079c531659141344cd1fd0a4f28419497f9722a3daafe3b4186f6b6457e09080a36001805561194990816100848239f35b631e4fbdf760e01b815260006004820152602490fd5b600080fdfe6080604052600436101561001257600080fd5b60003560e01c8063013cf08b146112825780630d61b51914610efc57806319f3dad114610e77578063401853b714610e40578063600303d814610df35780636bff47e614610da3578063715018a614610d4a5780637c63fc241461071f578063805a8142146106fb578063824ea8ed146106d35780638da5cb5b146106aa57806390bd89021461068f578063a241f0fd14610647578063a60b1145146105b1578063b1610d7e14610593578063c7f758a814610391578063c9d27afe1461019e578063da35c664146101805763f2fde38b146100ed57600080fd5b3461017b57602036600319011261017b576101066114d0565b61010e6118e7565b6001600160a01b0390811690811561016257600054826bffffffffffffffffffffffff60a01b821617600055167f8be0079c531659141344cd1fd0a4f28419497f9722a3daafe3b4186f6b6457e0600080a3005b604051631e4fbdf760e01b815260006004820152602490fd5b600080fd5b3461017b57600036600319011261017b576020600254604051908152f35b3461017b57604036600319011261017b57600435602435908115159182810361017b576101c961189a565b81158015610386575b6103745781600052602060038152604060002060ff600682015460081c16156103625760058101544211610362578360005260048252604060002033600052825260ff604060002054166103505760018101546040516370a0823160e01b815233600482015293908390859060249082906001600160a01b03165afa93841561034457600094610315575b50831561030357846000526004835260406000203360005283526040600020600160ff1982541617905584600052600583526040600020336000528352836040600020556000146102ee576003016102b68382546115b8565b90555b6040519384528301527fcbdf6214089cba887ecbf35a0b6a734589959c9763342c756bb2a80ca2bc9f6e60403393a360018055005b6004016102fc8382546115b8565b90556102b9565b604051630dfaae8160e11b8152600490fd5b9093508281813d831161033d575b61032d81836113b3565b8101031261017b5751928661025d565b503d610323565b6040513d6000823e3d90fd5b6040516366cda2df60e01b8152600490fd5b6040516309a2e90160e01b8152600490fd5b604051632231401f60e01b8152600490fd5b5060025482116101d2565b3461017b57602036600319011261017b5760043580158015610588575b61037457600052600360205260406000206040610464600a8251936103d28561137a565b80546001600160a01b03908116865260018201541660208601526103f8600282016113d5565b848601526003810154606086015260048101546080860152600581015460a086015260ff6006820154818116151560c088015260081c16151560e086015260078101546101008601526008810154610120860152610458600982016114fe565b61014086015201611558565b8061016084015260018060a01b038351169260018060a01b03602082015116908381015190606081015191608082015160a083015160c084015115159060e08501511515926104dd61010087015195610140610120890151980151998c519d8e9d8e6101809384938252602082015201528c019061147a565b9660608b015260808a015260a089015260c088015260e08701526101008601526101208501528381036101408501526020808351928381520192019060005b818110610566575050508281036101608401526020808351928381520192019060005b81811061054d575050500390f35b825184528594506020938401939092019160010161053f565b82516001600160a01b031684528695506020938401939092019160010161051c565b5060025481116103ae565b3461017b57600036600319011261017b57602060405162093a808152f35b3461017b57604036600319011261017b576105ca6114d0565b60206001600160a01b036024816105df6114ba565b169360405194859384926370a0823160e01b84521660048301525afa801561034457600090610614575b602090604051908152f35b506020813d60201161063f575b8161062e602093836113b3565b8101031261017b5760209051610609565b3d9150610621565b3461017b57604036600319011261017b576106606114ba565b600435600052600560205260406000209060018060a01b03166000526020526020604060002054604051908152f35b3461017b57602036600319011261017b576106a86118e7565b005b3461017b57600036600319011261017b576000546040516001600160a01b039091168152602090f35b3461017b57602036600319011261017b5760206106f160043561179d565b6040519015158152f35b3461017b57600036600319011261017b576020604051683635c9adc5dea000008152f35b3461017b5760c036600319011261017b576107386114d0565b6024359067ffffffffffffffff821161017b573660238301121561017b57816004013567ffffffffffffffff8111610b795760405192610782601f8301601f1916602001856113b3565b818452366024838301011161017b5781600092602460209301838701378401015260843567ffffffffffffffff811161017b573660238201121561017b5780600401356107ce816114e6565b916107dc60405193846113b3565b8183526024602084019260051b8201019036821161017b57602401915b818310610d2a5750505060a4359067ffffffffffffffff821161017b573660238301121561017b57816004013591610830836114e6565b9261083e60405194856113b3565b8084526024602085019160051b8301019136831161017b57602401905b828210610d1a5750505061086d61189a565b835115610d0857604435158015610cfc575b610cea576040516370a0823160e01b81523360048201526020816024816001600160a01b0388165afa801561034457600090610caf575b683635c9adc5dea0000091501061030357600460443514610c7f575b6108dd6002546115a9565b918260025562093a8042014211610c6957604051916108fb8361137a565b33835260018060a01b0385166020840152856040840152600060608401526000608084015262093a80420160a0840152600060c0840152600160e0840152604435610100840152606435610120840152610140830152610160820152816000526003602052604060002060018060a01b038251166bffffffffffffffffffffffff60a01b9081835416178255600182019060018060a01b0360208501511690825416179055604082015180519067ffffffffffffffff8211610b795781906109c66002850154611340565b601f8111610c29575b50602090601f8311600114610bb757600092610bac575b50508160011b916000199060031b1c19161760028201555b606082015160038201556080820151600482015560a082015160058201556006810160c08301511515815460ff61ff0060e0870151151560081b1692169061ffff1916171790556101008201516007820155610120820151600882015561014082015180519067ffffffffffffffff8211610b7957600160401b8211610b795760098301805483825560209291610a9691859161177a565b0160098301600052602060002060005b838110610b8f5750505050600a61016091019101519081519167ffffffffffffffff8311610b7957600160401b8311610b7957602090610aeb8484548186558561177a565b0190600052602060002060005b838110610b6557505050507f8a5ed66a83326884c08a1335fab35b7837b82dc7d3434dfc7e4236ed7a6920ce610b396040519460608652606086019061147a565b60443560208601524262093a800160408601526001600160a01b0390931693339381900390a460018055005b600190602084519401938184015501610af8565b634e487b7160e01b600052604160045260246000fd5b82516001600160a01b031681830155602090920191600101610aa6565b0151905087806109e6565b9250600284016000526020600020906000935b601f1984168510610c0e576001945083601f19811610610bf5575b505050811b0160028201556109fe565b015160001960f88460031b161c19169055878080610be5565b81810151835560209485019460019093019290910190610bca565b610c5990600286016000526020600020601f850160051c81019160208610610c5f575b601f0160051c0190611763565b886109cf565b9091508190610c4c565b634e487b7160e01b600052601160045260246000fd5b80518015908115610ca3575b50156108d2576040516313c2bd1b60e11b8152600490fd5b90508251141585610c8b565b506020813d602011610ce2575b81610cc9602093836113b3565b8101031261017b57683635c9adc5dea0000090516108b6565b3d9150610cbc565b60405163ee412df560e01b8152600490fd5b5060046044351161087f565b6040516356bc138f60e11b8152600490fd5b813581526020918201910161085b565b82356001600160a01b038116810361017b578152602092830192016107f9565b3461017b57600036600319011261017b57610d636118e7565b600080546001600160a01b0319811682556001600160a01b03167f8be0079c531659141344cd1fd0a4f28419497f9722a3daafe3b4186f6b6457e08280a3005b3461017b57602036600319011261017b57600435610dbf6118e7565b80158015610de8575b610374576000908152600360205260409020600601805461ff0019169055005b506002548111610dc8565b3461017b57604036600319011261017b57610e0c6114ba565b600435600052600460205260406000209060018060a01b0316600052602052602060ff604060002054166040519015158152f35b3461017b57602036600319011261017b57610e73610e5f6004356115c5565b60405191829160208352602083019061147a565b0390f35b3461017b57600036600319011261017b5760006001600254905b81811115610ea457602083604051908152f35b806000526003602052604060002060ff600682015460081c169081610eed575b50610ed8575b610ed3906115a9565b610e91565b91610ee5610ed3916115a9565b929050610eca565b60059150015442111584610ec4565b3461017b5760208060031936011261017b57600435610f1961189a565b80158015611277575b6103745780600052600382526040600020600681019283549160ff8316611265576005810154421115610362576003810154600482015410156112535760019485809461ffff191617905560078101548381146000146110305750908060049260018060a01b039485910154166d39b2ba26b0bc2a3930b739b332b960911b82604051610fae81611397565b600e81520152604051638da5cb5b60e01b815293849182905afa610ffc575b5050505b33907f9c85b616f29fca57a17eafe71cf9ff82ffef41766e2cf01ea7f8f7878dd3ec24600080a38055005b81813d8311611029575b61101081836113b3565b8101031261017b57519081160361017b57828080610fcd565b503d611006565b600281036110c45750908060049260018060a01b039485910154166c7365744d6178486f6c64696e6760981b8260405161106981611397565b600d81520152604051638da5cb5b60e01b815293849182905afa611090575b505050610fd1565b81813d83116110bd575b6110a481836113b3565b8101031261017b57519081160361017b57828080611088565b503d61109a565b6003810361112a5750908060049260018060a01b0394859101541673746f67676c655472616e736665724c696d69747360601b8260405161110481611397565b601481520152604051638da5cb5b60e01b815293849182905afa61109057505050610fd1565b60041461113957505050610fd1565b8281015481546001600160a01b039182169291908116611167600a611160600986016114fe565b9401611558565b916000875b61117b575b5050505050611088565b845181101561124e5780826111918a93886118bd565b511615158061123b575b6111a7575b018761116c565b9050816111b482876118bd565b51166111c082866118bd565b51604051916323b872dd60e01b835285600484015260248301526044820152878160648160008b5af19081611201575b50908891156000036111a0576111a0565b909198508781813d8311611234575b61121a81836113b3565b8101031261017b57518015150361017b579689978b6111f0565b503d611210565b5061124681866118bd565b51151561119b565b611171565b60405163144d3c8b60e01b8152600490fd5b60405163b96ef37b60e01b8152600490fd5b506002548111610f22565b3461017b57602036600319011261017b576004356000908152600360205260409020805460018201546001600160a01b03918216929116906112c6600282016113d5565b60038201549160ff6004820154600583015460068401549161130b60086007870154960154966040519a8b9a610140918c5260208c01528060408c01528a019061147a565b966060890152608088015260a0870152818116151560c087015260081c16151560e08501526101008401526101208301520390f35b90600182811c92168015611370575b602083101461135a57565b634e487b7160e01b600052602260045260246000fd5b91607f169161134f565b610180810190811067ffffffffffffffff821117610b7957604052565b6040810190811067ffffffffffffffff821117610b7957604052565b90601f8019910116810190811067ffffffffffffffff821117610b7957604052565b906040519182600082546113e881611340565b908184526020946001916001811690816000146114585750600114611419575b505050611417925003836113b3565b565b600090815285812095935091905b8183106114405750506114179350820101388080611408565b85548884018501529485019487945091830191611427565b9250505061141794925060ff191682840152151560051b820101388080611408565b919082519283825260005b8481106114a6575050826000602080949584010152601f8019910116010190565b602081830181015184830182015201611485565b602435906001600160a01b038216820361017b57565b600435906001600160a01b038216820361017b57565b67ffffffffffffffff8111610b795760051b60200190565b90604051918281549182825260209260208301916000526020600020936000905b82821061153557505050611417925003836113b3565b85546001600160a01b03168452600195860195889550938101939091019061151f565b90604051918281549182825260209260208301916000526020600020936000905b82821061158f57505050611417925003836113b3565b855484526001958601958895509381019390910190611579565b6000198114610c695760010190565b91908201809211610c6957565b80158015611758575b611732576000526020600381526040806000208151906115ed8261137a565b80546001600160a01b03908116835260018201541684830152611612600282016113d5565b83830152600381015491606081019283526004820154916080820192835260058101549160a08101928352610160611686600a60068501549460ff60c08601968181161515885260081c16151560e086015260078101546101008601526008810154610120860152610458600982016114fe565b9101525161170d57514211156116f5576116a382518251906115b8565b151591826116e8575b50506116d2576511985a5b195960d21b9051916116c883611397565b6006835282015290565b6514185cdcd95960d21b9051916116c883611397565b51905110905038806116ac565b50506541637469766560d01b9051916116c883611397565b50505067115e1958dd5d195960c21b90519161172883611397565b6008835282015290565b5060405161173f81611397565b6009815268139bdd08119bdd5b9960ba1b602082015290565b5060025481116115ce565b81811061176e575050565b60008155600101611763565b9181811061178757505050565b6114179260005260206000209182019101611763565b8015801561188f575b6118895760005260036020526040600020604051906117c48261137a565b80546001600160a01b03908116835260018201541660208301526117ea600282016113d5565b60408301526003810154606083019081526004820154916080840192835260058101549360a0810194855261016061185e600a60068501549460ff60c08601968181161515885260081c16151560e086015260078101546101008601526008810154610120860152610458600982016114fe565b9101525115928361187e575b508261187557505090565b51905110919050565b51421192503861186a565b50600090565b5060025481116117a6565b6002600154146118ab576002600155565b604051633ee5aeb560e01b8152600490fd5b80518210156118d15760209160051b010190565b634e487b7160e01b600052603260045260246000fd5b6000546001600160a01b031633036118fb57565b60405163118cdaa760e01b8152336004820152602490fdfea264697066735822122068b3097288001002c026ad04207d6aa7d504a5754cc70030cfa2f01bcd877fd564736f6c63430008180033",
  "linkReferences": {},
  "deployedLinkReferences": {}
}