{
  "_format": "hh-sol-artifact-1",
  "contractName": "PumpFunGovernanceAirdrop",
  "sourceName": "contracts/PumpFunGovernanceAirdrop.sol",
  "abi": [
    {
      "inputs": [
        {
          "internalType": "address",
          "name": "_governanceContract",
          "type": "address"
        }
      ],
      "stateMutability": "nonpayable",
      "type": "constructor"
    },
    {
      "inputs": [
        {
          "internalType": "address",
          "name": "owner",
          "type": "address"
        }
      ],
      "name": "OwnableInvalidOwner",
      "type": "error"
    },
    {
      "inputs": [
        {
          "internalType": "address",
          "name": "account",
          "type": "address"
        }
      ],
      "name": "OwnableUnauthorizedAccount",
      "type": "error"
    },
    {
      "inputs": [],
      "name": "PumpFunGovernanceAirdrop__AirdropNotActive",
      "type": "error"
    },
    {
      "inputs": [],
      "name": "PumpFunGovernanceAirdrop__AlreadyClaimed",
      "type": "error"
    },
    {
      "inputs": [],
      "name": "PumpFunGovernanceAirdrop__InsufficientBalance",
      "type": "error"
    },
    {
      "inputs": [],
      "name": "PumpFunGovernanceAirdrop__InvalidAmount",
      "type": "error"
    },
    {
      "inputs": [],
      "name": "PumpFunGovernanceAirdrop__InvalidMerkleRoot",
      "type": "error"
    },
    {
      "inputs": [],
      "name": "PumpFunGovernanceAirdrop__InvalidProof",
      "type": "error"
    },
    {
      "inputs": [],
      "name": "PumpFunGovernanceAirdrop__TransferFailed",
      "type": "error"
    },
    {
      "inputs": [],
      "name": "ReentrancyGuardReentrantCall",
      "type": "error"
    },
    {
      "anonymous": false,
      "inputs": [
        {
          "indexed": true,
          "internalType": "address",
          "name": "recipient",
          "type": "address"
        },
        {
          "indexed": true,
          "internalType": "address",
          "name": "token",
          "type": "address"
        },
        {
          "indexed": false,
          "internalType": "uint256",
          "name": "amount",
          "type": "uint256"
        },
        {
          "indexed": false,
          "internalType": "uint256",
          "name": "timestamp",
          "type": "uint256"
        }
      ],
      "name": "AirdropClaimed",
      "type": "event"
    },
    {
      "anonymous": false,
      "inputs": [
        {
          "indexed": true,
          "internalType": "address",
          "name": "token",
          "type": "address"
        },
        {
          "indexed": false,
          "internalType": "bytes32",
          "name": "merkleRoot",
          "type": "bytes32"
        },
        {
          "indexed": false,
          "internalType": "uint256",
          "name": "totalAmount",
          "type": "uint256"
        },
        {
          "indexed": false,
          "internalType": "uint256",
          "name": "startTime",
          "type": "uint256"
        },
        {
          "indexed": false,
          "internalType": "uint256",
          "name": "endTime",
          "type": "uint256"
        }
      ],
      "name": "AirdropConfigured",
      "type": "event"
    },
    {
      "anonymous": false,
      "inputs": [
        {
          "indexed": true,
          "internalType": "address",
          "name": "token",
          "type": "address"
        },
        {
          "indexed": true,
          "internalType": "address",
          "name": "to",
          "type": "address"
        },
        {
          "indexed": false,
          "internalType": "uint256",
          "name": "amount",
          "type": "uint256"
        }
      ],
      "name": "EmergencyWithdraw",
      "type": "event"
    },
    {
      "anonymous": false,
      "inputs": [
        {
          "indexed": true,
          "internalType": "bytes32",
          "name": "oldRoot",
          "type": "bytes32"
        },
        {
          "indexed": true,
          "internalType": "bytes32",
          "name": "newRoot",
          "type": "bytes32"
        },
        {
          "indexed": true,
          "internalType": "address",
          "name": "token",
          "type": "address"
        }
      ],
      "name": "MerkleRootUpdated",
      "type": "event"
    },
    {
      "anonymous": false,
      "inputs": [
        {
          "indexed": true,
          "internalType": "address",
          "name": "previousOwner",
          "type": "address"
        },
        {
          "indexed": true,
          "internalType": "address",
          "name": "newOwner",
          "type": "address"
        }
      ],
      "name": "OwnershipTransferred",
      "type": "event"
    },
    {
      "stateMutability": "payable",
      "type": "fallback"
    },
    {
      "inputs": [
        {
          "internalType": "address",
          "name": "",
          "type": "address"
        }
      ],
      "name": "airdrops",
      "outputs": [
        {
          "internalType": "bytes32",
          "name": "merkleRoot",
          "type": "bytes32"
        },
        {
          "internalType": "uint256",
          "name": "totalAmount",
          "type": "uint256"
        },
        {
          "internalType": "uint256",
          "name": "claimedAmount",
          "type": "uint256"
        },
        {
          "internalType": "uint256",
          "name": "startTime",
          "type": "uint256"
        },
        {
          "internalType": "uint256",
          "name": "endTime",
          "type": "uint256"
        },
        {
          "internalType": "bool",
          "name": "active",
          "type": "bool"
        }
      ],
      "stateMutability": "view",
      "type": "function"
    },
    {
      "inputs": [
        {
          "internalType": "address",
          "name": "token",
          "type": "address"
        },
        {
          "internalType": "address[]",
          "name": "recipients",
          "type": "address[]"
        },
        {
          "internalType": "uint256[]",
          "name": "amounts",
          "type": "uint256[]"
        },
        {
          "internalType": "bytes32[][]",
          "name": "merkleProofs",
          "type": "bytes32[][]"
        }
      ],
      "name": "batchClaimAirdrop",
      "outputs": [],
      "stateMutability": "nonpayable",
      "type": "function"
    },
    {
      "inputs": [
        {
          "internalType": "address",
          "name": "token",
          "type": "address"
        },
        {
          "internalType": "address",
          "name": "user",
          "type": "address"
        }
      ],
      "name": "canClaim",
      "outputs": [
        {
          "internalType": "bool",
          "name": "",
          "type": "bool"
        }
      ],
      "stateMutability": "view",
      "type": "function"
    },
    {
      "inputs": [
        {
          "internalType": "address",
          "name": "token",
          "type": "address"
        },
        {
          "internalType": "uint256",
          "name": "amount",
          "type": "uint256"
        },
        {
          "internalType": "bytes32[]",
          "name": "merkleProof",
          "type": "bytes32[]"
        }
      ],
      "name": "claimAirdrop",
      "outputs": [],
      "stateMutability": "nonpayable",
      "type": "function"
    },
    {
      "inputs": [
        {
          "internalType": "address",
          "name": "",
          "type": "address"
        },
        {
          "internalType": "address",
          "name": "",
          "type": "address"
        }
      ],
      "name": "claimedAmounts",
      "outputs": [
        {
          "internalType": "uint256",
          "name": "",
          "type": "uint256"
        }
      ],
      "stateMutability": "view",
      "type": "function"
    },
    {
      "inputs": [
        {
          "internalType": "address",
          "name": "token",
          "type": "address"
        },
        {
          "internalType": "bytes32",
          "name": "merkleRoot",
          "type": "bytes32"
        },
        {
          "internalType": "uint256",
          "name": "totalAmount",
          "type": "uint256"
        },
        {
          "internalType": "uint256",
          "name": "duration",
          "type": "uint256"
        }
      ],
      "name": "configureAirdrop",
      "outputs": [],
      "stateMutability": "nonpayable",
      "type": "function"
    },
    {
      "inputs": [
        {
          "internalType": "address",
          "name": "token",
          "type": "address"
        }
      ],
      "name": "deactivateAirdrop",
      "outputs": [],
      "stateMutability": "nonpayable",
      "type": "function"
    },
    {
      "inputs": [
        {
          "internalType": "address",
          "name": "token",
          "type": "address"
        },
        {
          "internalType": "address",
          "name": "to",
          "type": "address"
        },
        {
          "internalType": "uint256",
          "name": "amount",
          "type": "uint256"
        }
      ],
      "name": "emergencyWithdraw",
      "outputs": [],
      "stateMutability": "nonpayable",
      "type": "function"
    },
    {
      "inputs": [
        {
          "internalType": "address",
          "name": "token",
          "type": "address"
        },
        {
          "internalType": "uint256",
          "name": "additionalTime",
          "type": "uint256"
        }
      ],
      "name": "extendAirdrop",
      "outputs": [],
      "stateMutability": "nonpayable",
      "type": "function"
    },
    {
      "inputs": [
        {
          "internalType": "address",
          "name": "token",
          "type": "address"
        }
      ],
      "name": "getAirdropInfo",
      "outputs": [
        {
          "internalType": "bytes32",
          "name": "merkleRoot",
          "type": "bytes32"
        },
        {
          "internalType": "uint256",
          "name": "totalAmount",
          "type": "uint256"
        },
        {
          "internalType": "uint256",
          "name": "claimedAmount",
          "type": "uint256"
        },
        {
          "internalType": "uint256",
          "name": "startTime",
          "type": "uint256"
        },
        {
          "internalType": "uint256",
          "name": "endTime",
          "type": "uint256"
        },
        {
          "internalType": "bool",
          "name": "active",
          "type": "bool"
        },
        {
          "internalType": "uint256",
          "name": "remainingAmount",
          "type": "uint256"
        }
      ],
      "stateMutability": "view",
      "type": "function"
    },
    {
      "inputs": [
        {
          "internalType": "address",
          "name": "token",
          "type": "address"
        },
        {
          "internalType": "address",
          "name": "user",
          "type": "address"
        }
      ],
      "name": "getClaimedAmount",
      "outputs": [
        {
          "internalType": "uint256",
          "name": "",
          "type": "uint256"
        }
      ],
      "stateMutability": "view",
      "type": "function"
    },
    {
      "inputs": [],
      "name": "getContractStats",
      "outputs": [
        {
          "internalType": "uint256",
          "name": "_totalAirdropsConfigured",
          "type": "uint256"
        },
        {
          "internalType": "uint256",
          "name": "_totalTokensDistributed",
          "type": "uint256"
        }
      ],
      "stateMutability": "view",
      "type": "function"
    },
    {
      "inputs": [
        {
          "internalType": "address",
          "name": "token",
          "type": "address"
        }
      ],
      "name": "getTotalRemainingTokens",
      "outputs": [
        {
          "internalType": "uint256",
          "name": "",
          "type": "uint256"
        }
      ],
      "stateMutability": "view",
      "type": "function"
    },
    {
      "inputs": [],
      "name": "governanceContract",
      "outputs": [
        {
          "internalType": "address",
          "name": "",
          "type": "address"
        }
      ],
      "stateMutability": "view",
      "type": "function"
    },
    {
      "inputs": [
        {
          "internalType": "address",
          "name": "",
          "type": "address"
        },
        {
          "internalType": "address",
          "name": "",
          "type": "address"
        }
      ],
      "name": "hasClaimed",
      "outputs": [
        {
          "internalType": "bool",
          "name": "",
          "type": "bool"
        }
      ],
      "stateMutability": "view",
      "type": "function"
    },
    {
      "inputs": [
        {
          "internalType": "address",
          "name": "token",
          "type": "address"
        }
      ],
      "name": "isAirdropActive",
      "outputs": [
        {
          "internalType": "bool",
          "name": "",
          "type": "bool"
        }
      ],
      "stateMutability": "view",
      "type": "function"
    },
    {
      "inputs": [],
      "name": "owner",
      "outputs": [
        {
          "internalType": "address",
          "name": "",
          "type": "address"
        }
      ],
      "stateMutability": "view",
      "type": "function"
    },
    {
      "inputs": [
        {
          "internalType": "address",
          "name": "token",
          "type": "address"
        }
      ],
      "name": "reactivateAirdrop",
      "outputs": [],
      "stateMutability": "nonpayable",
      "type": "function"
    },
    {
      "inputs": [],
      "name": "renounceOwnership",
      "outputs": [],
      "stateMutability": "nonpayable",
      "type": "function"
    },
    {
      "inputs": [],
      "name": "totalAirdropsConfigured",
      "outputs": [
        {
          "internalType": "uint256",
          "name": "",
          "type": "uint256"
        }
      ],
      "stateMutability": "view",
      "type": "function"
    },
    {
      "inputs": [],
      "name": "totalTokensDistributed",
      "outputs": [
        {
          "internalType": "uint256",
          "name": "",
          "type": "uint256"
        }
      ],
      "stateMutability": "view",
      "type": "function"
    },
    {
      "inputs": [
        {
          "internalType": "address",
          "name": "newOwner",
          "type": "address"
        }
      ],
      "name": "transferOwnership",
      "outputs": [],
      "stateMutability": "nonpayable",
      "type": "function"
    },
    {
      "inputs": [
        {
          "internalType": "address",
          "name": "newGovernanceContract",
          "type": "address"
        }
      ],
      "name": "updateGovernanceContract",
      "outputs": [],
      "stateMutability": "nonpayable",
      "type": "function"
    },
    {
      "inputs": [
        {
          "internalType": "address",
          "name": "token",
          "type": "address"
        },
        {
          "internalType": "bytes32",
          "name": "newMerkleRoot",
          "type": "bytes32"
        }
      ],
      "name": "updateMerkleRoot",
      "outputs": [],
      "stateMutability": "nonpayable",
      "type": "function"
    },
    {
      "inputs": [
        {
          "internalType": "address",
          "name": "token",
          "type": "address"
        },
        {
          "internalType": "address",
          "name": "user",
          "type": "address"
        },
        {
          "internalType": "uint256",
          "name": "amount",
          "type": "uint256"
        },
        {
          "internalType": "bytes32[]",
          "name": "proof",
          "type": "bytes32[]"
        }
      ],
      "name": "verifyProof",
      "outputs": [
        {
          "internalType": "bool",
          "name": "",
          "type": "bool"
        }
      ],
      "stateMutability": "view",
      "type": "function"
    },
    {
      "stateMutability": "payable",
      "type": "receive"
    }
  ],
  "bytecode": "0x6080346100ca57601f6114ba38819003918201601f19168301916001600160401b038311848410176100cf578084926020946040528339810103126100ca57516001600160a01b0390818116908190036100ca5733156100b15760005460018060a01b0319903382821617600055604051933391167f8be0079c531659141344cd1fd0a4f28419497f9722a3daafe3b4186f6b6457e0600080a36001805560025416176002556113d490816100e68239f35b604051631e4fbdf760e01b815260006004820152602490fd5b600080fd5b634e487b7160e01b600052604160045260246000fdfe60806040526004361015610018575b361561001657005b005b60003560e01c806305443a9e14610e465780633ba0c9f114610dc25780636b58222e14610d0d5780636faf60a014610cca578063715018a614610c715780637f2bfaaf14610bc757806389266f6014610b715780638c86f0a714610afb5780638da5cb5b14610ad25780638ed044e814610ab4578063a0e848c71461087b578063a30066f314610715578063a617e6531461078f578063b172b22214610766578063c253b5da14610715578063c2b9b139146106d0578063d8f163ab146106b2578063dc43b08b14610608578063dfe6b5d6146105e3578063e63ea40814610490578063e786818e14610422578063ea499b1d14610255578063ef37e7ca1461020b578063f2fde38b1461017d5763fa8fc6790361000e5734610178576020366003190112610178576101496111be565b610151611372565b6001600160a01b03166000908152600360205260409020600501805460ff19166001179055005b600080fd5b34610178576020366003190112610178576101966111be565b61019e611372565b6001600160a01b039081169081156101f257600054826bffffffffffffffffffffffff60a01b821617600055167f8be0079c531659141344cd1fd0a4f28419497f9722a3daafe3b4186f6b6457e0600080a3005b604051631e4fbdf760e01b815260006004820152602490fd5b34610178576040366003190112610178576102246111be565b61022c611372565b60018060a01b03166000526003602052600460406000200161025160243582546112d6565b9055005b346101785760803660031901126101785761026e6111be565b6024356044359161027d611372565b81156104105782156103fe576040516370a0823160e01b81523060048201526001600160a01b03919091169260209290918381602481885afa80156103f25783916000916103c1575b50106103af576102d8606435426112d6565b6040516102e48161122b565b828152600585820191858352604081016000815260608201428152608083019186835260a0840195600187528b60005260038b52604060002094518555516001850155516002840155516003830155516004820155019051151560ff80198354169116179055600654926000198414610399577f218c1985adbc80285f13e0714b5b9858ae78df0c64bf66412c79c136c22e6993946001608095016006556040519384528301524260408301526060820152a2005b634e487b7160e01b600052601160045260246000fd5b604051637904eeff60e01b8152600490fd5b809250858092503d83116103eb575b6103da818361125d565b8101031261017857829051866102c6565b503d6103d0565b6040513d6000823e3d90fd5b604051635943dd8160e11b8152600490fd5b60405163995a36f360e01b8152600490fd5b346101785760403660031901126101785761043b6111be565b60243590610447611372565b81156104105760018060a01b031690816000526003602052604060002081815491557fecb0922badb6f82ac577b65408cb2bed9735bbb58509f1aa9fb775bac567259a600080a4005b34610178576060366003190112610178576104a96111be565b6104b16111d4565b90604435916104be611372565b82156103fe576040516370a0823160e01b81523060048201526001600160a01b03928316926020918281602481885afa80156103f25786916000916105b2575b50106103af5760405163a9059cbb60e01b81526001600160a01b03841660048201526024810186905282816044816000895af19081156103f257600091610585575b5015610573577ff24ef89f38eadc1bde50701ad6e4d6d11a2dc24f7cf834a486991f3883328504926040519586521693a3005b6040516318639cb760e11b8152600490fd5b6105a59150833d85116105ab575b61059d818361125d565b8101906112e3565b86610540565b503d610593565b809250848092503d83116105dc575b6105cb818361125d565b8101031261017857859051876104fe565b503d6105c1565b3461017857600036600319011261017857604060065460075482519182526020820152f35b34610178576020366003190112610178576001600160a01b036106296111be565b166000526003602052602060a060406000206040516106478161122b565b815481526001820154848201526002820154604082015260038201549081606082015260ff600560048501549485608085015201541615159384910152826106a7575b508161069c575b506040519015158152f35b905042111582610691565b42101591508361068a565b34610178576000366003190112610178576020600754604051908152f35b34610178576020366003190112610178576106e96111be565b6106f1611372565b6001600160a01b03166000908152600360205260409020600501805460ff19169055005b346101785760403660031901126101785761072e6111be565b6107366111d4565b9060018060a01b038091166000526005602052604060002091166000526020526020604060002054604051908152f35b34610178576000366003190112610178576002546040516001600160a01b039091168152602090f35b3461017857604036600319011261017857602060a06107ac6111be565b6107b46111d4565b600180841b03809216908160005260038552604060002092604051926107d98461122b565b84548452600185015487850152600285015460408501526003850154936060810194855260ff6005600488015497608084019889520154161515968791015285610850575b50505082610844575b508161083857506040519015158152f35b90505142111582610691565b51421015915083610827565b90919294506000526004855260406000209116600052835260ff60406000205416159184808061081e565b34610178576060366003190112610178576108946111be565b60243560443567ffffffffffffffff8111610178576108b79036906004016111ea565b90926108c16112fb565b60018060a01b031692836000526020916003835260406000209160ff60058401541615610a9557600383015442108015610aa7575b610a95578560005260048452604060002033600052845260ff60406000205416610a83576040513360601b6001600160601b0319168582019081526014810187905261096c9391610967919061095981603484015b03601f19810183528261125d565b51902092855492369161127f565b61131e565b15610a7157600281019060016109838584546112d6565b910154106103af57836000526004825260406000203360005282526040600020600160ff1982541617905583600052600582526040600020336000528252826040600020556109d38382546112d6565b90556109e1826007546112d6565b60075560405163a9059cbb60e01b81523360048201526024810183905281816044816000885af19081156103f257600091610a54575b50156105735760405191825242908201527fd399c6e7fad358fc300beda3f056717c94a04c7233ce92683de6500ba509022e60403392a360018055005b610a6b9150823d84116105ab5761059d818361125d565b84610a17565b6040516340324b7b60e11b8152600490fd5b6040516389e930cd60e01b8152600490fd5b60405163084361ef60e41b8152600490fd5b50600483015442116108f6565b34610178576000366003190112610178576020600654604051908152f35b34610178576000366003190112610178576000546040516001600160a01b039091168152602090f35b34610178576020366003190112610178576001600160a01b03610b1c6111be565b16600052600360205260c06040600020805490600181015490600281015460038201549060ff6005600485015494015416936040519586526020860152604085015260608401526080830152151560a0820152f35b3461017857604036600319011261017857610b8a6111be565b610b926111d4565b9060018060a01b03809116600052600460205260406000209116600052602052602060ff604060002054166040519015158152f35b3461017857608036600319011261017857610be06111be565b610be86111d4565b906064359067ffffffffffffffff821161017857602092610967610c13610c679436906004016111ea565b60405160609490941b6001600160601b03191687850190815260443560148201529093610c43816034840161094b565b5190206001600160a01b03909416600090815260038752604090205492369161127f565b6040519015158152f35b3461017857600036600319011261017857610c8a611372565b600080546001600160a01b0319811682556001600160a01b03167f8be0079c531659141344cd1fd0a4f28419497f9722a3daafe3b4186f6b6457e08280a3005b3461017857602036600319011261017857610ce36111be565b610ceb611372565b600280546001600160a01b0319166001600160a01b0392909216919091179055005b34610178576020366003190112610178576001600160a01b03610d2e6111be565b1660005260036020526040600020604051610d488161122b565b81549081815260a060018401549384602084015260028101549283604082015260038201549081606082015260ff600560048501549485608085015201541615159384910152838603938685116103995760e096604051968752602087015260408601526060850152608084015260a083015260c0820152f35b3461017857602080600319360112610178576024816001600160a01b03610de76111be565b16604051928380926370a0823160e01b82523060048301525afa9081156103f257600091610e19575b50604051908152f35b90508181813d8311610e3f575b610e30818361125d565b81010312610178575182610e10565b503d610e26565b3461017857608036600319011261017857610e5f6111be565b60243567ffffffffffffffff811161017857610e7f9036906004016111ea565b909160443567ffffffffffffffff811161017857610ea19036906004016111ea565b939060643567ffffffffffffffff811161017857610ec39036906004016111ea565b90610ecc6112fb565b8686148015906111b4575b6103fe5760018060a01b038516600052600360205260406000209660ff60058901541615610a95576003880154421080156111a7575b610a95579594939291906000966000965b808810610f4b57610f428960028c01610f388282546112d6565b90556007546112d6565b60075560018055005b9091929394959697610f5e89838961121b565b35986001600160a01b038a168a0361017857610f7b81858961121b565b359186821015611191578160051b860135601e198736030181121561017857860167ffffffffffffffff81351161017857803560051b36036020820113610178578c9060018060a01b038c16600052600460205260406000208d60018060a01b031660005260205260ff604060002054166111845760405160608e901b6001600160601b031916602082019081526034820187905261103b9392916109679190611028816054810161094b565b519020925491369060208135910161127f565b1561117957826110ab9160018060a01b038c16600052600460205260406000208d60018060a01b03166000526020526040600020600160ff1982541617905560018060a01b038c16600052600560205260406000208d60018060a01b0316600052602052816040600020556112d6565b60405163a9059cbb60e01b81526001600160a01b038c16600482015260248101849052909a90926020848c816000816044810103926001600160a01b03165af180156103f25760019460009161115a575b50611112575b50505b0196959493929190610f1e565b6040519081524260208201527fd399c6e7fad358fc300beda3f056717c94a04c7233ce92683de6500ba509022e6040858060a01b038d1693868060a01b031692a38b80611102565b611173915060203d6020116105ab5761059d818361125d565b8e6110fc565b995060019150611105565b5050995060019150611105565b634e487b7160e01b600052603260045260246000fd5b5060048801544211610f0d565b5081861415610ed7565b600435906001600160a01b038216820361017857565b602435906001600160a01b038216820361017857565b9181601f840112156101785782359167ffffffffffffffff8311610178576020808501948460051b01011161017857565b91908110156111915760051b0190565b60c0810190811067ffffffffffffffff82111761124757604052565b634e487b7160e01b600052604160045260246000fd5b90601f8019910116810190811067ffffffffffffffff82111761124757604052565b90929167ffffffffffffffff8411611247578360051b60209260206040516112a98285018261125d565b809781520191810192831161017857905b8282106112c75750505050565b813581529083019083016112ba565b9190820180921161039957565b90816020910312610178575180151581036101785790565b60026001541461130c576002600155565b604051633ee5aeb560e01b8152600490fd5b9091906000915b815183101561136b576020808460051b8401015191600083821060001461135b575060005252600160406000205b920191611325565b9060409260019483525220611353565b9150501490565b6000546001600160a01b0316330361138657565b60405163118cdaa760e01b8152336004820152602490fdfea26469706673582212208450e464f7ee1d4586320e7b11c97db3758565392d0108ff25ee502b4e5381ce64736f6c63430008180033",
  "linkReferences": {},
  "deployedLinkReferences": {}
}