{
  "_format": "hh-sol-artifact-1",
  "contractName": "PumpFunGovernanceAirdrop",
  "sourceName": "contracts/PumpFunGovernanceAirdrop.sol",
  "abi": [
    {
      "inputs": [
        {
          "internalType": "address",
          "name": "_governanceContract",
          "type": "address"
        }
      ],
      "stateMutability": "nonpayable",
      "type": "constructor"
    },
    {
      "inputs": [
        {
          "internalType": "address",
          "name": "recipient",
          "type": "address"
        }
      ],
      "name": "AlreadyClaimed",
      "type": "error"
    },
    {
      "inputs": [
        {
          "internalType": "uint256",
          "name": "recipientsLength",
          "type": "uint256"
        },
        {
          "internalType": "uint256",
          "name": "amountsLength",
          "type": "uint256"
        }
      ],
      "name": "ArraysLengthMismatch",
      "type": "error"
    },
    {
      "inputs": [
        {
          "internalType": "uint256",
          "name": "available",
          "type": "uint256"
        },
        {
          "internalType": "uint256",
          "name": "requested",
          "type": "uint256"
        }
      ],
      "name": "InsufficientBalance",
      "type": "error"
    },
    {
      "inputs": [
        {
          "internalType": "address",
          "name": "owner",
          "type": "address"
        }
      ],
      "name": "OwnableInvalidOwner",
      "type": "error"
    },
    {
      "inputs": [
        {
          "internalType": "address",
          "name": "account",
          "type": "address"
        }
      ],
      "name": "OwnableUnauthorizedAccount",
      "type": "error"
    },
    {
      "inputs": [],
      "name": "ZeroAmount",
      "type": "error"
    },
    {
      "anonymous": false,
      "inputs": [
        {
          "indexed": true,
          "internalType": "address",
          "name": "token",
          "type": "address"
        },
        {
          "indexed": true,
          "internalType": "address",
          "name": "recipient",
          "type": "address"
        },
        {
          "indexed": false,
          "internalType": "uint256",
          "name": "amount",
          "type": "uint256"
        }
      ],
      "name": "AirdropClaimed",
      "type": "event"
    },
    {
      "anonymous": false,
      "inputs": [
        {
          "indexed": true,
          "internalType": "address",
          "name": "previousOwner",
          "type": "address"
        },
        {
          "indexed": true,
          "internalType": "address",
          "name": "newOwner",
          "type": "address"
        }
      ],
      "name": "OwnershipTransferred",
      "type": "event"
    },
    {
      "inputs": [
        {
          "internalType": "address",
          "name": "",
          "type": "address"
        },
        {
          "internalType": "address",
          "name": "",
          "type": "address"
        }
      ],
      "name": "claimed",
      "outputs": [
        {
          "internalType": "bool",
          "name": "",
          "type": "bool"
        }
      ],
      "stateMutability": "view",
      "type": "function"
    },
    {
      "inputs": [
        {
          "internalType": "address",
          "name": "token",
          "type": "address"
        },
        {
          "internalType": "address[]",
          "name": "recipients",
          "type": "address[]"
        },
        {
          "internalType": "uint256[]",
          "name": "amounts",
          "type": "uint256[]"
        }
      ],
      "name": "executeAirdrop",
      "outputs": [],
      "stateMutability": "nonpayable",
      "type": "function"
    },
    {
      "inputs": [],
      "name": "owner",
      "outputs": [
        {
          "internalType": "address",
          "name": "",
          "type": "address"
        }
      ],
      "stateMutability": "view",
      "type": "function"
    },
    {
      "inputs": [],
      "name": "renounceOwnership",
      "outputs": [],
      "stateMutability": "nonpayable",
      "type": "function"
    },
    {
      "inputs": [
        {
          "internalType": "address",
          "name": "newOwner",
          "type": "address"
        }
      ],
      "name": "transferOwnership",
      "outputs": [],
      "stateMutability": "nonpayable",
      "type": "function"
    }
  ],
  "bytecode": "0x6080346100b857601f61073438819003918201601f19168301916001600160401b038311848410176100bd578084926020946040528339810103126100b857516001600160a01b03808216918290036100b857811561009f576000548260018060a01b0319821617600055167f8be0079c531659141344cd1fd0a4f28419497f9722a3daafe3b4186f6b6457e0600080a360405161066090816100d48239f35b604051631e4fbdf760e01b815260006004820152602490fd5b600080fd5b634e487b7160e01b600052604160045260246000fdfe60806040818152600436101561001457600080fd5b600091823560e01c9081630c9cbf0e146104eb5750806356d6f44514610165578063715018a6146101085780638da5cb5b146100e15763f2fde38b1461005957600080fd5b346100dd5760203660031901126100dd57610072610540565b61007a6105fe565b6001600160a01b039081169182156100c6575082546001600160a01b0319811683178455167f8be0079c531659141344cd1fd0a4f28419497f9722a3daafe3b4186f6b6457e08380a380f35b51631e4fbdf760e01b815260048101849052602490fd5b5080fd5b50346100dd57816003193601126100dd57905490516001600160a01b039091168152602090f35b82346101625780600319360112610162576101216105fe565b80546001600160a01b03198116825581906001600160a01b03167f8be0079c531659141344cd1fd0a4f28419497f9722a3daafe3b4186f6b6457e08280a380f35b80fd5b50346100dd5760603660031901126100dd5761017f610540565b9067ffffffffffffffff906024358281116104e7576101a290369060040161055b565b9390926044359081116104e3576101bd90369060040161055b565b91906101c76105fe565b8286036104c6576001600160a01b039182169283156104b5578796885b828110610460575085516370a0823160e01b808252306004830152602099918a816024818b5afa908c8215610455578c939285929061041f575b501061039957505050885b898282106102345780f35b8681526001808b52908890208661025461024f85878e61058c565b6105ea565b168c528a5260ff888c20541661037257898660446102a561024f8f95888f8f928f938b948b52818a52808b208961028f61024f88888861058c565b168c528a528a209060ff1982541617905561058c565b6102b086898b61058c565b35948c51958694859363a9059cbb60e01b855216600484015260248301528b5af180156103685761032d575b50806102ee61024f600193858c61058c565b877fb0a0840c7bb9b6ecca130f40e5b8f2158da27eb5c5c9432c8f424a520c8b55d18c8961031d868a8c61058c565b35948d519586521693a301610229565b8981813d8311610361575b61034281836105b2565b8101031261035d57518015150361035957386102dc565b8980fd5b8a80fd5b503d610338565b88513d8d823e3d90fd5b6024888761038461024f86888f61058c565b9151632058b6db60e01b815291166004820152fd5b918888838e95602484518094819382523060048301525afa9384156104155785946103dd575b505060449350519163cf47918160e01b835260048301526024820152fd5b9080929450813d831161040e575b6103f581836105b2565b8101031261040a5760449350519184806103bf565b8380fd5b503d6103eb565b82513d87823e3d90fd5b938092508491503d831161044e575b61043881836105b2565b8101031261044a57828b92513861021e565b8b80fd5b503d61042e565b8a51903d90823e3d90fd5b9761046c89848661058c565b35156104a45761047d89848661058c565b35810180911161049057976001016101e4565b634e487b7160e01b8a52601160045260248afd5b8651631f2a200560e01b8152600490fd5b8451631f2a200560e01b8152600490fd5b6044868486519163098b37e560e31b835260048301526024820152fd5b8580fd5b8480fd5b9190503461053c578060031936011261053c57610506610540565b6001600160a01b0360243581811692908390036104e3571684526001602090815282852091855290815292205460ff1615158152f35b8280fd5b600435906001600160a01b038216820361055657565b600080fd5b9181601f840112156105565782359167ffffffffffffffff8311610556576020808501948460051b01011161055657565b919081101561059c5760051b0190565b634e487b7160e01b600052603260045260246000fd5b90601f8019910116810190811067ffffffffffffffff8211176105d457604052565b634e487b7160e01b600052604160045260246000fd5b356001600160a01b03811681036105565790565b6000546001600160a01b0316330361061257565b60405163118cdaa760e01b8152336004820152602490fdfea26469706673582212207510a7abebf789c945bb52f5ebff8199d3fc25c7d81a6253bf4aebd898011e0264736f6c63430008180033",
  "linkReferences": {},
  "deployedLinkReferences": {}
}