{
  "_format": "hh-sol-artifact-1",
  "contractName": "PumpFunDEXManager",
  "sourceName": "contracts/PumpFunDEXManager.sol",
  "abi": [
    {
      "inputs": [
        {
          "internalType": "address",
          "name": "_swapRouter",
          "type": "address"
        },
        {
          "internalType": "address",
          "name": "_positionManager",
          "type": "address"
        },
        {
          "internalType": "address",
          "name": "_uniswapV3Factory",
          "type": "address"
        },
        {
          "internalType": "address",
          "name": "_weth",
          "type": "address"
        }
      ],
      "stateMutability": "nonpayable",
      "type": "constructor"
    },
    {
      "inputs": [
        {
          "internalType": "address",
          "name": "owner",
          "type": "address"
        }
      ],
      "name": "OwnableInvalidOwner",
      "type": "error"
    },
    {
      "inputs": [
        {
          "internalType": "address",
          "name": "account",
          "type": "address"
        }
      ],
      "name": "OwnableUnauthorizedAccount",
      "type": "error"
    },
    {
      "inputs": [],
      "name": "PumpFunDEXManager__DeadlineExpired",
      "type": "error"
    },
    {
      "inputs": [],
      "name": "PumpFunDEXManager__InsufficientLiquidity",
      "type": "error"
    },
    {
      "inputs": [],
      "name": "PumpFunDEXManager__InvalidAmount",
      "type": "error"
    },
    {
      "inputs": [],
      "name": "PumpFunDEXManager__InvalidTokenAddress",
      "type": "error"
    },
    {
      "inputs": [],
      "name": "PumpFunDEXManager__LiquidityLocked",
      "type": "error"
    },
    {
      "inputs": [],
      "name": "PumpFunDEXManager__PairAlreadyExists",
      "type": "error"
    },
    {
      "inputs": [],
      "name": "PumpFunDEXManager__SlippageExceeded",
      "type": "error"
    },
    {
      "inputs": [],
      "name": "PumpFunDEXManager__UnauthorizedToken",
      "type": "error"
    },
    {
      "inputs": [],
      "name": "ReentrancyGuardReentrantCall",
      "type": "error"
    },
    {
      "anonymous": false,
      "inputs": [
        {
          "indexed": true,
          "internalType": "address",
          "name": "token0",
          "type": "address"
        },
        {
          "indexed": true,
          "internalType": "address",
          "name": "token1",
          "type": "address"
        },
        {
          "indexed": true,
          "internalType": "uint24",
          "name": "fee",
          "type": "uint24"
        },
        {
          "indexed": false,
          "internalType": "uint256",
          "name": "amount0",
          "type": "uint256"
        },
        {
          "indexed": false,
          "internalType": "uint256",
          "name": "amount1",
          "type": "uint256"
        },
        {
          "indexed": false,
          "internalType": "uint256",
          "name": "liquidity",
          "type": "uint256"
        }
      ],
      "name": "LiquidityAdded",
      "type": "event"
    },
    {
      "anonymous": false,
      "inputs": [
        {
          "indexed": true,
          "internalType": "address",
          "name": "token0",
          "type": "address"
        },
        {
          "indexed": true,
          "internalType": "address",
          "name": "token1",
          "type": "address"
        },
        {
          "indexed": true,
          "internalType": "uint24",
          "name": "fee",
          "type": "uint24"
        },
        {
          "indexed": false,
          "internalType": "uint256",
          "name": "amount0",
          "type": "uint256"
        },
        {
          "indexed": false,
          "internalType": "uint256",
          "name": "amount1",
          "type": "uint256"
        },
        {
          "indexed": false,
          "internalType": "uint256",
          "name": "liquidity",
          "type": "uint256"
        }
      ],
      "name": "LiquidityPoolCreated",
      "type": "event"
    },
    {
      "anonymous": false,
      "inputs": [
        {
          "indexed": true,
          "internalType": "address",
          "name": "token0",
          "type": "address"
        },
        {
          "indexed": true,
          "internalType": "address",
          "name": "token1",
          "type": "address"
        },
        {
          "indexed": true,
          "internalType": "uint24",
          "name": "fee",
          "type": "uint24"
        },
        {
          "indexed": false,
          "internalType": "uint256",
          "name": "amount0",
          "type": "uint256"
        },
        {
          "indexed": false,
          "internalType": "uint256",
          "name": "amount1",
          "type": "uint256"
        }
      ],
      "name": "LiquidityRemoved",
      "type": "event"
    },
    {
      "anonymous": false,
      "inputs": [
        {
          "indexed": true,
          "internalType": "address",
          "name": "previousOwner",
          "type": "address"
        },
        {
          "indexed": true,
          "internalType": "address",
          "name": "newOwner",
          "type": "address"
        }
      ],
      "name": "OwnershipTransferred",
      "type": "event"
    },
    {
      "anonymous": false,
      "inputs": [
        {
          "indexed": true,
          "internalType": "address",
          "name": "token",
          "type": "address"
        },
        {
          "indexed": false,
          "internalType": "uint256",
          "name": "price",
          "type": "uint256"
        },
        {
          "indexed": false,
          "internalType": "uint256",
          "name": "timestamp",
          "type": "uint256"
        }
      ],
      "name": "PriceUpdated",
      "type": "event"
    },
    {
      "anonymous": false,
      "inputs": [
        {
          "indexed": true,
          "internalType": "address",
          "name": "user",
          "type": "address"
        },
        {
          "indexed": true,
          "internalType": "address",
          "name": "tokenIn",
          "type": "address"
        },
        {
          "indexed": true,
          "internalType": "address",
          "name": "tokenOut",
          "type": "address"
        },
        {
          "indexed": false,
          "internalType": "uint256",
          "name": "amountIn",
          "type": "uint256"
        },
        {
          "indexed": false,
          "internalType": "uint256",
          "name": "amountOut",
          "type": "uint256"
        }
      ],
      "name": "TokenSwapped",
      "type": "event"
    },
    {
      "stateMutability": "payable",
      "type": "fallback"
    },
    {
      "inputs": [],
      "name": "MIN_LIQUIDITY_ETH",
      "outputs": [
        {
          "internalType": "uint256",
          "name": "",
          "type": "uint256"
        }
      ],
      "stateMutability": "view",
      "type": "function"
    },
    {
      "inputs": [],
      "name": "PRICE_UPDATE_INTERVAL",
      "outputs": [
        {
          "internalType": "uint256",
          "name": "",
          "type": "uint256"
        }
      ],
      "stateMutability": "view",
      "type": "function"
    },
    {
      "inputs": [],
      "name": "SLIPPAGE_TOLERANCE",
      "outputs": [
        {
          "internalType": "uint256",
          "name": "",
          "type": "uint256"
        }
      ],
      "stateMutability": "view",
      "type": "function"
    },
    {
      "inputs": [],
      "name": "WETH",
      "outputs": [
        {
          "internalType": "address",
          "name": "",
          "type": "address"
        }
      ],
      "stateMutability": "view",
      "type": "function"
    },
    {
      "inputs": [
        {
          "internalType": "address",
          "name": "token0",
          "type": "address"
        },
        {
          "internalType": "address",
          "name": "token1",
          "type": "address"
        },
        {
          "internalType": "uint24",
          "name": "fee",
          "type": "uint24"
        },
        {
          "internalType": "uint256",
          "name": "tokenAmount0",
          "type": "uint256"
        },
        {
          "internalType": "uint256",
          "name": "tokenAmount1",
          "type": "uint256"
        }
      ],
      "name": "addLiquidity",
      "outputs": [],
      "stateMutability": "payable",
      "type": "function"
    },
    {
      "inputs": [
        {
          "internalType": "address",
          "name": "token",
          "type": "address"
        }
      ],
      "name": "authorizeToken",
      "outputs": [],
      "stateMutability": "nonpayable",
      "type": "function"
    },
    {
      "inputs": [
        {
          "internalType": "address",
          "name": "token",
          "type": "address"
        }
      ],
      "name": "authorizeTokenFromFactory",
      "outputs": [],
      "stateMutability": "nonpayable",
      "type": "function"
    },
    {
      "inputs": [
        {
          "internalType": "address",
          "name": "",
          "type": "address"
        }
      ],
      "name": "authorizedTokens",
      "outputs": [
        {
          "internalType": "bool",
          "name": "",
          "type": "bool"
        }
      ],
      "stateMutability": "view",
      "type": "function"
    },
    {
      "inputs": [
        {
          "internalType": "address",
          "name": "tokenA",
          "type": "address"
        },
        {
          "internalType": "address",
          "name": "tokenB",
          "type": "address"
        },
        {
          "internalType": "uint24",
          "name": "fee",
          "type": "uint24"
        },
        {
          "internalType": "uint256",
          "name": "amountA",
          "type": "uint256"
        },
        {
          "internalType": "uint256",
          "name": "amountB",
          "type": "uint256"
        }
      ],
      "name": "createLiquidityPool",
      "outputs": [],
      "stateMutability": "nonpayable",
      "type": "function"
    },
    {
      "inputs": [
        {
          "internalType": "address",
          "name": "token",
          "type": "address"
        },
        {
          "internalType": "uint24",
          "name": "fee",
          "type": "uint24"
        },
        {
          "internalType": "uint256",
          "name": "tokenAmount",
          "type": "uint256"
        }
      ],
      "name": "createLiquidityPoolWithETH",
      "outputs": [],
      "stateMutability": "payable",
      "type": "function"
    },
    {
      "inputs": [],
      "name": "factory",
      "outputs": [
        {
          "internalType": "address",
          "name": "",
          "type": "address"
        }
      ],
      "stateMutability": "view",
      "type": "function"
    },
    {
      "inputs": [
        {
          "internalType": "address",
          "name": "token0",
          "type": "address"
        },
        {
          "internalType": "address",
          "name": "token1",
          "type": "address"
        },
        {
          "internalType": "uint24",
          "name": "fee",
          "type": "uint24"
        }
      ],
      "name": "getPoolAddress",
      "outputs": [
        {
          "internalType": "address",
          "name": "",
          "type": "address"
        }
      ],
      "stateMutability": "view",
      "type": "function"
    },
    {
      "inputs": [
        {
          "internalType": "address",
          "name": "token0",
          "type": "address"
        },
        {
          "internalType": "address",
          "name": "token1",
          "type": "address"
        },
        {
          "internalType": "uint24",
          "name": "fee",
          "type": "uint24"
        }
      ],
      "name": "getPoolInfo",
      "outputs": [
        {
          "internalType": "uint256",
          "name": "tokenId",
          "type": "uint256"
        },
        {
          "internalType": "uint256",
          "name": "liquidity",
          "type": "uint256"
        },
        {
          "internalType": "uint256",
          "name": "lockExpiry",
          "type": "uint256"
        },
        {
          "internalType": "bool",
          "name": "isActive",
          "type": "bool"
        },
        {
          "internalType": "uint256",
          "name": "createdAt",
          "type": "uint256"
        }
      ],
      "stateMutability": "view",
      "type": "function"
    },
    {
      "inputs": [
        {
          "internalType": "address",
          "name": "token",
          "type": "address"
        }
      ],
      "name": "getTokenPrice",
      "outputs": [
        {
          "internalType": "uint256",
          "name": "price",
          "type": "uint256"
        },
        {
          "internalType": "uint256",
          "name": "lastUpdated",
          "type": "uint256"
        }
      ],
      "stateMutability": "view",
      "type": "function"
    },
    {
      "inputs": [
        {
          "internalType": "address",
          "name": "token",
          "type": "address"
        }
      ],
      "name": "getTokenStats",
      "outputs": [
        {
          "internalType": "uint256",
          "name": "price",
          "type": "uint256"
        },
        {
          "internalType": "uint256",
          "name": "marketCap",
          "type": "uint256"
        },
        {
          "internalType": "uint256",
          "name": "volume24h",
          "type": "uint256"
        },
        {
          "internalType": "uint256",
          "name": "liquidity",
          "type": "uint256"
        },
        {
          "internalType": "bool",
          "name": "isActive",
          "type": "bool"
        }
      ],
      "stateMutability": "view",
      "type": "function"
    },
    {
      "inputs": [],
      "name": "owner",
      "outputs": [
        {
          "internalType": "address",
          "name": "",
          "type": "address"
        }
      ],
      "stateMutability": "view",
      "type": "function"
    },
    {
      "inputs": [],
      "name": "positionManager",
      "outputs": [
        {
          "internalType": "contract INonfungiblePositionManager",
          "name": "",
          "type": "address"
        }
      ],
      "stateMutability": "view",
      "type": "function"
    },
    {
      "inputs": [],
      "name": "renounceOwnership",
      "outputs": [],
      "stateMutability": "nonpayable",
      "type": "function"
    },
    {
      "inputs": [
        {
          "internalType": "address",
          "name": "_factory",
          "type": "address"
        }
      ],
      "name": "setFactory",
      "outputs": [],
      "stateMutability": "nonpayable",
      "type": "function"
    },
    {
      "inputs": [
        {
          "internalType": "address",
          "name": "tokenOut",
          "type": "address"
        },
        {
          "internalType": "uint24",
          "name": "fee",
          "type": "uint24"
        },
        {
          "internalType": "uint256",
          "name": "amountOutMinimum",
          "type": "uint256"
        }
      ],
      "name": "swapExactETHForTokens",
      "outputs": [],
      "stateMutability": "payable",
      "type": "function"
    },
    {
      "inputs": [
        {
          "internalType": "address",
          "name": "tokenIn",
          "type": "address"
        },
        {
          "internalType": "uint24",
          "name": "fee",
          "type": "uint24"
        },
        {
          "internalType": "uint256",
          "name": "amountIn",
          "type": "uint256"
        },
        {
          "internalType": "uint256",
          "name": "amountOutMinimum",
          "type": "uint256"
        }
      ],
      "name": "swapExactTokensForETH",
      "outputs": [],
      "stateMutability": "nonpayable",
      "type": "function"
    },
    {
      "inputs": [],
      "name": "swapRouter",
      "outputs": [
        {
          "internalType": "contract ISwapRouter",
          "name": "",
          "type": "address"
        }
      ],
      "stateMutability": "view",
      "type": "function"
    },
    {
      "inputs": [
        {
          "internalType": "address",
          "name": "",
          "type": "address"
        },
        {
          "internalType": "address",
          "name": "",
          "type": "address"
        },
        {
          "internalType": "uint24",
          "name": "",
          "type": "uint24"
        }
      ],
      "name": "tokenPools",
      "outputs": [
        {
          "internalType": "uint256",
          "name": "tokenId",
          "type": "uint256"
        },
        {
          "internalType": "uint256",
          "name": "liquidity",
          "type": "uint256"
        },
        {
          "internalType": "uint256",
          "name": "lockExpiry",
          "type": "uint256"
        },
        {
          "internalType": "bool",
          "name": "isActive",
          "type": "bool"
        },
        {
          "internalType": "uint256",
          "name": "createdAt",
          "type": "uint256"
        }
      ],
      "stateMutability": "view",
      "type": "function"
    },
    {
      "inputs": [
        {
          "internalType": "address",
          "name": "",
          "type": "address"
        }
      ],
      "name": "tokenPrices",
      "outputs": [
        {
          "internalType": "uint256",
          "name": "price",
          "type": "uint256"
        },
        {
          "internalType": "uint256",
          "name": "lastUpdated",
          "type": "uint256"
        },
        {
          "internalType": "uint256",
          "name": "volume24h",
          "type": "uint256"
        },
        {
          "internalType": "uint256",
          "name": "marketCap",
          "type": "uint256"
        }
      ],
      "stateMutability": "view",
      "type": "function"
    },
    {
      "inputs": [
        {
          "internalType": "address",
          "name": "newOwner",
          "type": "address"
        }
      ],
      "name": "transferOwnership",
      "outputs": [],
      "stateMutability": "nonpayable",
      "type": "function"
    },
    {
      "inputs": [],
      "name": "uniswapV3Factory",
      "outputs": [
        {
          "internalType": "contract IUniswapV3Factory",
          "name": "",
          "type": "address"
        }
      ],
      "stateMutability": "view",
      "type": "function"
    },
    {
      "inputs": [],
      "name": "withdrawETH",
      "outputs": [],
      "stateMutability": "nonpayable",
      "type": "function"
    },
    {
      "inputs": [
        {
          "internalType": "address",
          "name": "token",
          "type": "address"
        },
        {
          "internalType": "uint256",
          "name": "amount",
          "type": "uint256"
        }
      ],
      "name": "withdrawToken",
      "outputs": [],
      "stateMutability": "nonpayable",
      "type": "function"
    },
    {
      "stateMutability": "payable",
      "type": "receive"
    }
  ],
  "bytecode": "0x61010034620001ce57601f6200273938819003918201601f19168301916001600160401b03831184841017620001d357808492608094604052833981010312620001ce576200004e81620001e9565b6200005c60208301620001e9565b916200007960606200007160408401620001e9565b9201620001e9565b923315620001b55760008054336001600160a01b03198216811783556040516001600160a01b0396909387939192918416907f8be0079c531659141344cd1fd0a4f28419497f9722a3daafe3b4186f6b6457e09080a360018055169081158015620001aa575b80156200019f575b801562000194575b620001855750608052821660a0521660c05260e05260405161253a9081620001ff82396080518181816105ca01528181610bf3015261102a015260a051818181610a6d015281816114a301528181611d5d01528181611dc30152611ffa015260c051818181610ee6015281816111ec0152611d04015260e0518181816101a30152818161060d01528181610c6a0152610fc10152f35b6389be0fdb60e01b8152600490fd5b5084861615620000ef565b5084841615620000e7565b5084831615620000df565b604051631e4fbdf760e01b815260006004820152602490fd5b600080fd5b634e487b7160e01b600052604160045260246000fd5b51906001600160a01b0382168203620001ce5756fe6040608081526004908136101561001d575b5050361561001b57005b005b600090813560e01c80630ad2338214611384578063204120bc1461132c5780634a277c62146112375780634c2037861461121b5780635b549182146111d85780635bb47808146111455780635d230110146111235780635e6c572b14610f59578063696d628314610e7b578063715018a614610e2157806371750d9614610b425780637754167814610a9c578063791b98bc14610a595780638da5cb5b14610a32578063917f3e5f146107dd57806398e9cb12146107b05780639b5eb511146107305780639bc7c586146106f35780639e281a981461063c578063ad5c4648146105f9578063c31c9c07146105b6578063c45a01551461058e578063ca88d5c514610512578063d02641a0146104a8578063e086e5ec146103db578063ee937e82146103bb578063f2fde38b146103305763f7f291851461015e5750610011565b610167366118f7565b90610173939293611ad3565b60018060a01b0392838516908187526020916005835260ff828920541615610320573415610311578415610311577f0000000000000000000000000000000000000000000000000000000000000000958087169081831090811561030a5789915b15610302578089925b168b5260038652848b2091168a52845282892062ffffff86168a52845260ff6003848b200154166102f257803b156102ee57888a91845192838092630d0e30db60e41b825234905af180156102e4576102cb575b5081516323b872dd60e01b815233998101998a523060208b015260408a0186905297988391899182908c9082906060015b03925af19081156102c25750610288575b506102819450349284611ca0565b6001805580f35b85813d83116102bb575b61029c81836119ac565b810103126102b7576102b0610281956119ce565b5038610273565b8580fd5b503d610292565b513d89823e3d90fd5b8391610262996102db8893611998565b99509150610231565b83513d8b823e3d90fd5b8880fd5b825163329e1cc760e01b81528a90fd5b808a926101dd565b88916101d4565b815162716da360e31b81528990fd5b8151631934ad6160e01b81528990fd5b5082346103b75760203660031901126103b75761034b61186b565b90610354611c01565b6001600160a01b039182169283156103a157505082546001600160a01b0319811683178455167f8be0079c531659141344cd1fd0a4f28419497f9722a3daafe3b4186f6b6457e08380a380f35b51631e4fbdf760e01b8152908101849052602490fd5b8280fd5b50346103d757816003193601126103d7576020905161012c8152f35b5080fd5b508290346103b757826003193601126103b7576103f6611c01565b824780610401575080f35b8154829182918291906001600160a01b03165af13d156104a3573d67ffffffffffffffff811161049057825190610442601f8201601f1916602001836119ac565b81528460203d92013e5b15610455578280f35b906020606492519162461bcd60e51b83528201526015602482015274115512081dda5d1a191c985dd85b0819985a5b1959605a1b6044820152fd5b634e487b7160e01b855260418452602485fd5b61044c565b5082346103b75760203660031901126103b757909182916001600160a01b036104cf61186b565b168252602052208151906104e28261197c565b80549182815260606003600184015493846020850152600281015487850152015491015282519182526020820152f35b5082346103b75760203660031901126103b75760a092906001600160a01b0361053961186b565b16825260205281812082519261054e8461197c565b6060825494858152600184015460208201526003600285015494858584015201549182910152815194855260208501528301528060608301526080820152f35b50346103d757816003193601126103d75760025490516001600160a01b039091168152602090f35b50346103d757816003193601126103d757517f00000000000000000000000000000000000000000000000000000000000000006001600160a01b03168152602090f35b50346103d757816003193601126103d757517f00000000000000000000000000000000000000000000000000000000000000006001600160a01b03168152602090f35b508290346103b757806003193601126103b757602061069f9261065d61186b565b610665611c01565b8554845163a9059cbb60e01b81526001600160a01b0391821693810193845260243560208501529586938492899290918491604090910190565b0393165af19081156106ea57506106b4575080f35b6020813d6020116106e2575b816106cd602093836119ac565b810103126103d7576106de906119ce565b5080f35b3d91506106c0565b513d84823e3d90fd5b50346103d75760203660031901126103d75760209160ff9082906001600160a01b0361071d61186b565b1681526005855220541690519015158152f35b5082346103b75760203660031901126103b75761074b61186b565b6002549092906001600160a01b0316330361076d578361076a84611a98565b80f35b906020606492519162461bcd60e51b8352820152601960248201527f43616c6c6572206973206e6f742074686520666163746f7279000000000000006044820152fd5b82346107da5760203660031901126107da5761076a6107cd61186b565b6107d5611c01565b611a98565b80fd5b508290346103b7576107ee366118ae565b93946107fb939193611ad3565b6001600160a01b038681169081158015610a28575b610a1857818a5260209860058a5260ff848c2054161580610a05575b6109f757861580156109ef575b6109e257848216918284109081156109db578a915b156109d3578087925b168d5260038c52858d2091168c528a52838b2062ffffff87168c528a5260ff6003858d200154166109c55783516323b872dd60e01b80825233828401908152306020820152604081018a90528d949392908d90829081906060010381888a5af180156109bb57918b93918e9593610978575b5087519081523391810191825230602083015260408201939093529193849283919082906060015b03925af1801561096e57610926575b509060056102819860ff938b52528820541660001461091f5784611ca0565b8094611ca0565b8881819493943d8311610967575b61093e81836119ac565b81010312610963576102819860ff936109586005936119ce565b509293509850610900565b8980fd5b503d610934565b83513d8c823e3d90fd5b8094508591953d83116109b4575b61099081836119ac565b810103126109b0576108f1948d946109a88d956119ce565b5090956108c9565b8480fd5b503d610986565b87513d87823e3d90fd5b835163329e1cc760e01b8152fd5b808b92610857565b869161084e565b835162716da360e31b8152fd5b508715610839565b8351631934ad6160e01b8152fd5b508185168b5260ff848c2054161561082c565b82516389be0fdb60e01b81528990fd5b5080841615610810565b50346103d757816003193601126103d757905490516001600160a01b039091168152602090f35b50346103d757816003193601126103d757517f00000000000000000000000000000000000000000000000000000000000000006001600160a01b03168152602090f35b5090346107da5760603660031901126107da5781610b3e91610abc61186b565b610ac4611886565b610acc61189c565b9160018060a01b03809116845260036020528484209116835260205262ffffff83832091168252602052209182549260018101549460028201549060ff6003840154169201549251958695869192608093969594919660a0840197845260208401526040830152151560608201520152565b0390f35b5082346103b75760803660031901126103b757610b5d61186b565b916024359262ffffff84168094036109b05760443591610b7b611ad3565b60018060a01b03808316948588526020916005835260ff848a20541615610e12578515610e045783516323b872dd60e01b8152338382019081523060208201526040810188905284908290819060600103818d8c5af18015610dfa57610dc6575b50835163095ea7b360e01b81526001600160a01b037f00000000000000000000000000000000000000000000000000000000000000008316908116848301908152602081018990529092919085908290819003604001818e8d5af18015610dbc57610d84575b5061012c4201804211610d71578493928b9592610ccd92885191610c658361195f565b8c83527f0000000000000000000000000000000000000000000000000000000000000000169c8d868401528983015233606083015260808201528960a082015260643560c08201528660e0820152875196878094819363414bf38960e01b8352888301611a12565b03925af1928315610d67578993610d34575b50610d0a7fd36cc53ba71bc76a3db3364981f5296dd4ca5eba0e8c89874f2170515bd20d2495611af6565b8689528152600283892001610d208382546119db565b905582519485528401523392a46001805580f35b9492508185813d8311610d60575b610d4c81836119ac565b810103126102ee5793519193610d0a610cdf565b503d610d42565b84513d8b823e3d90fd5b634e487b7160e01b8b526011845260248bfd5b8481813d8311610db5575b610d9981836119ac565b81010312610db157610daa906119ce565b508a610c42565b8a80fd5b503d610d8f565b86513d8d823e3d90fd5b8381813d8311610df3575b610ddb81836119ac565b8101031261096357610dec906119ce565b5089610bdc565b503d610dd1565b85513d8c823e3d90fd5b50825162716da360e31b8152fd5b508251631934ad6160e01b8152fd5b82346107da57806003193601126107da57610e3a611c01565b80546001600160a01b03198116825581906001600160a01b03167f8be0079c531659141344cd1fd0a4f28419497f9722a3daafe3b4186f6b6457e08280a380f35b5082346103b75760603660031901126103b757610e9661186b565b916020610ea1611886565b93610eaa61189c565b8351630b4c774160e11b81526001600160a01b03928316958101958652958216602086015262ffffff16604085015292849081906060010381857f0000000000000000000000000000000000000000000000000000000000000000165afa928315610f4f5760209493610f20575b505191168152f35b610f41919350843d8611610f48575b610f3981836119ac565b810190611a79565b9184610f18565b503d610f2f565b81513d86823e3d90fd5b508290610f65366118f7565b93919092610f71611ad3565b60018060a01b0392838316958688526020946005865260ff848a205416156111135734156111045761012c4201918242116110f1579186916110249493865192610fba8461195f565b62ffffff837f0000000000000000000000000000000000000000000000000000000000000000169b8c86528d87870152168885015233606085015260808401523460a084015260c08301528a60e08301528551808096819463414bf38960e01b8352878301611a12565b039134907f0000000000000000000000000000000000000000000000000000000000000000165af19182156110e75788926110b0575b506110857fd36cc53ba71bc76a3db3364981f5296dd4ca5eba0e8c89874f2170515bd20d2494611af6565b868852845260028288200161109b3482546119db565b90558151933485528401523392a46001805580f35b9391508484813d83116110e0575b6110c881836119ac565b810103126110dc579251909261108561105a565b8780fd5b503d6110be565b83513d8a823e3d90fd5b634e487b7160e01b8a526011845260248afd5b835162716da360e31b81528390fd5b8351631934ad6160e01b81528390fd5b50346103d757816003193601126103d7576020905167016345785d8a00008152f35b5082346103b75760203660031901126103b75761116061186b565b611168611c01565b6001600160a01b03169182156111955750506bffffffffffffffffffffffff60a01b600254161760025580f35b906020606492519162461bcd60e51b8352820152601760248201527f496e76616c696420666163746f727920616464726573730000000000000000006044820152fd5b50346103d757816003193601126103d757517f00000000000000000000000000000000000000000000000000000000000000006001600160a01b03168152602090f35b50346103d757816003193601126103d757602090516101f48152f35b5090346107da5760603660031901126107da57608082610b3e9261125961186b565b611261611886565b9061126a61189c565b916001600160a01b0380821683821610929091829184156113255780945b1561131d5750925b16845260036020528484209116835260205262ffffff83832091168252602052208351946112bd8661192d565b815494858752600183015496876020820152600284015492838383015260ff6003860154161515948560608401520154948591015251958695869192608093969594919660a0840197845260208401526040830152151560608201520152565b905092611290565b8194611288565b5082346103b75760203660031901126103b75760809282916001600160a01b0361135461186b565b16825260205220908154916001810154916003600283015492015492815194855260208501528301526060820152f35b50918192611391366118ae565b94909392919561139f611ad3565b6001600160a01b0383811697858216978989109590928b9291819088156118645789985b1561185c57975b1691828452602097600389528288862091168095528852868d209062ffffff16809d528752858d206003015460ff161561184c5788158015611844575b6118355785516323b872dd60e01b80825233828801908152306020820152604081018c90528f9392908a9082908f9082908890829060600103925af1801561182b578e89868d948b946117e5575b508c519586523391860191825230602083015260408201939093528492839182906060015b03925af180156117db578c8c9695949389938c93611797575b508a5163095ea7b360e01b8082527f0000000000000000000000000000000000000000000000000000000000000000929092166001600160a01b0381169582019586526020860199909952909390929183918290879082906040015b03925af1801561178d57888f91948c9489948b9761174b575b506115338d51978896879586948552840160209093929193604081019460018060a01b031681520152565b03925af1801561173f57611707575b508c5260038652848c20908c528552838b208a8c528552838b20549161012c4201908142116116f45785519360c0850185811067ffffffffffffffff8211176116e157928e9260c4959260609897958a5285528985019b8c52888501908152878501848152608086019185835260a087019384528a519d8e998a9863219f5d1760e01b8a5251908901525160248801525160448701525160648601525160848501525160a48401525af19283156116d757889489938a9561165f575b5050936116559161162f7f66f68636a37c16d9b851b4467d85bfdc07b98135fc5f50b62510198bd458946896611af6565b51938493849160409194936001600160801b039160608501968552602085015216910152565b0390a46001805580f35b9350945092506060843d6060116116cf575b8161167e606093836119ac565b810103126110dc57838161162f611655936116b97f66f68636a37c16d9b851b4467d85bfdc07b98135fc5f50b62510198bd4589468986119fe565b95840151930151949294959296508193506115fe565b3d9150611671565b81513d8a823e3d90fd5b634e487b7160e01b8f526041875260248ffd5b634e487b7160e01b8d526011855260248dfd5b8781813d8311611738575b61171c81836119ac565b810103126117345761172d906119ce565b5038611542565b8d80fd5b503d611712565b8e8851903d90823e3d90fd5b959350955092505082813d8311611786575b61176781836119ac565b810103126107da578d888792899561177f8e966119ce565b5038611508565b503d61175d565b89513d85823e3d90fd5b935096505081813d83116117d4575b6117b081836119ac565b810103126103d75781896114ef8e8e986117ca8c966119ce565b5091509192611493565b503d6117a6565b88513d85823e3d90fd5b94935050505081813d8311611824575b6117ff81836119ac565b8101031261182057868e898661147a956118198f966119ce565b5095611455565b8380fd5b503d6117f5565b89513d86823e3d90fd5b855162716da360e31b81528590fd5b508315611407565b855163329e1cc760e01b81528590fd5b5088976113ca565b80986113c3565b600435906001600160a01b038216820361188157565b600080fd5b602435906001600160a01b038216820361188157565b6044359062ffffff8216820361188157565b60a0906003190112611881576001600160a01b0390600435828116810361188157916024359081168103611881579060443562ffffff8116810361188157906064359060843590565b6060906003190112611881576004356001600160a01b0381168103611881579060243562ffffff81168103611881579060443590565b60a0810190811067ffffffffffffffff82111761194957604052565b634e487b7160e01b600052604160045260246000fd5b610100810190811067ffffffffffffffff82111761194957604052565b6080810190811067ffffffffffffffff82111761194957604052565b67ffffffffffffffff811161194957604052565b90601f8019910116810190811067ffffffffffffffff82111761194957604052565b5190811515820361188157565b919082018092116119e857565b634e487b7160e01b600052601160045260246000fd5b51906001600160801b038216820361188157565b91909160e06101008201938160018060a01b039182815116855282602082015116602086015262ffffff60408201511660408601528260608201511660608601526080810151608086015260a081015160a086015260c081015160c0860152015116910152565b9081602091031261188157516001600160a01b03811681036118815790565b6001600160a01b03168015611ac15760005260056020526040600020600160ff19825416179055565b6040516389be0fdb60e01b8152600490fd5b600260015414611ae4576002600155565b604051633ee5aeb560e01b8152600490fd5b604080516318160ddd60e01b81526001600160a01b0392909216919060208083600481875afa928315611bf657600093611bc7575b50683635c9adc5dea000009083820293828504036119e8577fb556fac599c3c70efb9ab1fa725ecace6c81cc48d1455f886607def065f3e0c09385600052600482526003600285600020015491855192611b848461197c565b85845284840142815287850191825260608501928352896000526004865287600020945185555160018501555160028401555191015582519182524290820152a2565b9080935081813d8311611bef575b611bdf81836119ac565b8101031261188157519138611b2b565b503d611bd5565b82513d6000823e3d90fd5b6000546001600160a01b03163303611c1557565b60405163118cdaa760e01b8152336004820152602490fd5b519061ffff8216820361188157565b60020b60011b908160020b9182036119e857565b9060020b9060020b02908160020b9182036119e857565b60020b9060020b908115611c8a57627fffff1981146000198314166119e8570590565b634e487b7160e01b600052601260045260246000fd5b9395946001600160a01b03828116908616109493600092861561246557855b871561245d5750955b1561245857965b604051630b4c774160e11b81526001600160a01b038681166004830152878116602483015262ffffff861660448301529098907f00000000000000000000000000000000000000000000000000000000000000001660208a606481845afa998a1561240a5760009a612437575b506001600160a01b038a1615612322575b5060405163095ea7b360e01b81527f00000000000000000000000000000000000000000000000000000000000000006001600160a01b031660048201526024810182905260208180604481010381886001600160a01b038c165af180156122de576122e9575b5060405163095ea7b360e01b81527f00000000000000000000000000000000000000000000000000000000000000006001600160a01b031660048201526024810183905260208180604481010381886001600160a01b038d165af180156122de57612299575b50604051633850c7bd60e01b815297989697959660e090879060049082906001600160a01b03165afa95861561228e5784966121f8575b50611e5a85612476565b611e6381611c3c565b9660020b9660020b8703627fffff801991818113838212176121e45783611e8d81611e9293611c67565b611c50565b98611e9c84611c3c565b60020b01918212908213176121d05790611e8d81611eb993611c67565b61012c420142116121bc57604051968761016081011067ffffffffffffffff6101608a01111761194957610160880160405260018060a01b038916885260018060a01b038a16602089015262ffffff8716604089015260020b606088015260020b608087015260a086015260c08501528160e0850152816101008501523061012085015261012c420161014085015261014060405194634418b22b60e11b865260018060a01b03815116600487015260018060a01b03602082015116602487015262ffffff6040820151166044870152606081015160020b6064870152608081015160020b608487015260a081015160a487015260c081015160c487015260e081015160e487015261010081015161010487015260018060a01b03610120820151166101248701520151610144850152608084610164818560018060a01b037f0000000000000000000000000000000000000000000000000000000000000000165af19081156121b15782838096819461215d575b5062278d004201804211612149576121449362ffffff969360048b7fa12f7d42aa572c92b5e0ba50a30cacd389bb68257862ca2b55065b7030a860649a989561210b958f6040519561207f8761192d565b865260208601906001600160801b038b168252604087019283526040606088019460018652608089019642885260018060a01b031681526003602052209060018060a01b031660005260205260406000208d8d16600052602052604060002095518655516001860155516002850155600384019051151560ff8019835416911617905551910155611af6565b6040805197885260208801919091526001600160801b03909116908601529116946001600160a01b039081169416929081906060820190565b0390a4565b634e487b7160e01b82526011600452602482fd5b945092505093506080823d6080116121a9575b8161217d608093836119ac565b810103126107da57815193612194602084016119fe565b6060604085015194015195909395923861202e565b3d9150612170565b6040513d84823e3d90fd5b634e487b7160e01b85526011600452602485fd5b634e487b7160e01b86526011600452602486fd5b634e487b7160e01b88526011600452602488fd5b90955060e0813d60e011612286575b8161221460e093836119ac565b810103126118205780516001600160a01b03811603611820576020810151908160020b82036109b05761224960408201611c2d565b5061225660608201611c2d565b5061226360808201611c2d565b5060a081015160ff8116036109b05760c061227e91016119ce565b509438611e50565b3d9150612207565b6040513d86823e3d90fd5b6020813d6020116122d6575b816122b2602093836119ac565b810103126109b0576004969798996122cb60e0926119ce565b509998979650611e19565b3d91506122a5565b6040513d87823e3d90fd5b6020813d60201161231a575b81612302602093836119ac565b810103126109b057612313906119ce565b5038611db3565b3d91506122f5565b60405163a167129560e01b81526001600160a01b0388811660048301528916602482015262ffffff8716604482015299506020908a9060649082906000905af198891561240a57600099612416575b5088600160601b606084901b8415858204831417156119e857836123949161246c565b8060601b9181830414901517156119e8576001600160a01b03906123b7906124b9565b6001600160a01b039092169116813b156118815760009160248392604051948593849263f637731d60e01b845260048401525af1801561240a5715611d4d57612401919450611998565b60009238611d4d565b6040513d6000823e3d90fd5b61243091995060203d602011610f4857610f3981836119ac565b9738612371565b612451919a5060203d602011610f4857610f3981836119ac565b9838611d3c565b611ccf565b905095611cc8565b8095611cbf565b8115611c8a570490565b62ffffff16606481146124b3576101f481146124ad57610bb881146124a757612710146124a257603c90565b60c890565b50603c90565b50600a90565b50600190565b80156124fe5760018082018083116119e85760011c90825b8383106124de5750505090565b909192506124f5836124f0818461246c565b6119db565b821c91906124d1565b5060009056fea26469706673582212202073412e29de58f66df73e764ea8548f894ed5739eaa64faf9c20de945517f5264736f6c63430008180033",
  "linkReferences": {},
  "deployedLinkReferences": {}
}