{
  "_format": "hh-sol-artifact-1",
  "contractName": "PumpFunToken",
  "sourceName": "contracts/PumpFunToken.sol",
  "abi": [
    {
      "inputs": [
        {
          "internalType": "string",
          "name": "name",
          "type": "string"
        },
        {
          "internalType": "string",
          "name": "symbol",
          "type": "string"
        },
        {
          "internalType": "uint256",
          "name": "_initialSupply",
          "type": "uint256"
        },
        {
          "internalType": "address",
          "name": "_creator",
          "type": "address"
        },
        {
          "internalType": "address",
          "name": "_factory",
          "type": "address"
        }
      ],
      "stateMutability": "nonpayable",
      "type": "constructor"
    },
    {
      "inputs": [
        {
          "internalType": "address",
          "name": "spender",
          "type": "address"
        },
        {
          "internalType": "uint256",
          "name": "allowance",
          "type": "uint256"
        },
        {
          "internalType": "uint256",
          "name": "needed",
          "type": "uint256"
        }
      ],
      "name": "ERC20InsufficientAllowance",
      "type": "error"
    },
    {
      "inputs": [
        {
          "internalType": "address",
          "name": "sender",
          "type": "address"
        },
        {
          "internalType": "uint256",
          "name": "balance",
          "type": "uint256"
        },
        {
          "internalType": "uint256",
          "name": "needed",
          "type": "uint256"
        }
      ],
      "name": "ERC20InsufficientBalance",
      "type": "error"
    },
    {
      "inputs": [
        {
          "internalType": "address",
          "name": "approver",
          "type": "address"
        }
      ],
      "name": "ERC20InvalidApprover",
      "type": "error"
    },
    {
      "inputs": [
        {
          "internalType": "address",
          "name": "receiver",
          "type": "address"
        }
      ],
      "name": "ERC20InvalidReceiver",
      "type": "error"
    },
    {
      "inputs": [
        {
          "internalType": "address",
          "name": "sender",
          "type": "address"
        }
      ],
      "name": "ERC20InvalidSender",
      "type": "error"
    },
    {
      "inputs": [
        {
          "internalType": "address",
          "name": "spender",
          "type": "address"
        }
      ],
      "name": "ERC20InvalidSpender",
      "type": "error"
    },
    {
      "inputs": [],
      "name": "EnforcedPause",
      "type": "error"
    },
    {
      "inputs": [],
      "name": "ExpectedPause",
      "type": "error"
    },
    {
      "inputs": [
        {
          "internalType": "address",
          "name": "owner",
          "type": "address"
        }
      ],
      "name": "OwnableInvalidOwner",
      "type": "error"
    },
    {
      "inputs": [
        {
          "internalType": "address",
          "name": "account",
          "type": "address"
        }
      ],
      "name": "OwnableUnauthorizedAccount",
      "type": "error"
    },
    {
      "inputs": [],
      "name": "PumpFunToken__BurningPaused",
      "type": "error"
    },
    {
      "inputs": [
        {
          "internalType": "uint256",
          "name": "amount",
          "type": "uint256"
        },
        {
          "internalType": "uint256",
          "name": "maxHolding",
          "type": "uint256"
        }
      ],
      "name": "PumpFunToken__ExceedsMaxHolding",
      "type": "error"
    },
    {
      "inputs": [
        {
          "internalType": "uint256",
          "name": "amount",
          "type": "uint256"
        },
        {
          "internalType": "uint256",
          "name": "maxAmount",
          "type": "uint256"
        }
      ],
      "name": "PumpFunToken__ExceedsMaxTransferAmount",
      "type": "error"
    },
    {
      "inputs": [
        {
          "internalType": "uint256",
          "name": "available",
          "type": "uint256"
        },
        {
          "internalType": "uint256",
          "name": "requested",
          "type": "uint256"
        }
      ],
      "name": "PumpFunToken__InsufficientBalance",
      "type": "error"
    },
    {
      "inputs": [],
      "name": "PumpFunToken__InvalidAirdropArrays",
      "type": "error"
    },
    {
      "inputs": [],
      "name": "PumpFunToken__InvalidAirdropContract",
      "type": "error"
    },
    {
      "inputs": [
        {
          "internalType": "uint256",
          "name": "duration",
          "type": "uint256"
        }
      ],
      "name": "PumpFunToken__InvalidLockDuration",
      "type": "error"
    },
    {
      "inputs": [
        {
          "internalType": "uint256",
          "name": "amount",
          "type": "uint256"
        }
      ],
      "name": "PumpFunToken__InvalidMintAmount",
      "type": "error"
    },
    {
      "inputs": [],
      "name": "PumpFunToken__InvalidName",
      "type": "error"
    },
    {
      "inputs": [],
      "name": "PumpFunToken__InvalidSymbol",
      "type": "error"
    },
    {
      "inputs": [
        {
          "internalType": "uint256",
          "name": "unlockTime",
          "type": "uint256"
        }
      ],
      "name": "PumpFunToken__LockNotExpired",
      "type": "error"
    },
    {
      "inputs": [],
      "name": "PumpFunToken__MintingPaused",
      "type": "error"
    },
    {
      "inputs": [
        {
          "internalType": "address",
          "name": "holder",
          "type": "address"
        }
      ],
      "name": "PumpFunToken__NoLockedTokens",
      "type": "error"
    },
    {
      "inputs": [],
      "name": "PumpFunToken__OnlyFactory",
      "type": "error"
    },
    {
      "inputs": [],
      "name": "PumpFunToken__OnlyGovernance",
      "type": "error"
    },
    {
      "inputs": [
        {
          "internalType": "address",
          "name": "holder",
          "type": "address"
        }
      ],
      "name": "PumpFunToken__TokensAlreadyLocked",
      "type": "error"
    },
    {
      "inputs": [
        {
          "internalType": "address",
          "name": "holder",
          "type": "address"
        },
        {
          "internalType": "uint256",
          "name": "amount",
          "type": "uint256"
        },
        {
          "internalType": "uint256",
          "name": "unlockTime",
          "type": "uint256"
        }
      ],
      "name": "PumpFunToken__TransferLocked",
      "type": "error"
    },
    {
      "inputs": [],
      "name": "PumpFunToken__ZeroAddress",
      "type": "error"
    },
    {
      "inputs": [],
      "name": "PumpFunToken__ZeroAmount",
      "type": "error"
    },
    {
      "inputs": [],
      "name": "ReentrancyGuardReentrantCall",
      "type": "error"
    },
    {
      "anonymous": false,
      "inputs": [
        {
          "indexed": true,
          "internalType": "address",
          "name": "airdropContract",
          "type": "address"
        },
        {
          "indexed": false,
          "internalType": "uint256",
          "name": "totalAmount",
          "type": "uint256"
        }
      ],
      "name": "AirdropTriggered",
      "type": "event"
    },
    {
      "anonymous": false,
      "inputs": [
        {
          "indexed": true,
          "internalType": "address",
          "name": "owner",
          "type": "address"
        },
        {
          "indexed": true,
          "internalType": "address",
          "name": "spender",
          "type": "address"
        },
        {
          "indexed": false,
          "internalType": "uint256",
          "name": "value",
          "type": "uint256"
        }
      ],
      "name": "Approval",
      "type": "event"
    },
    {
      "anonymous": false,
      "inputs": [
        {
          "indexed": true,
          "internalType": "address",
          "name": "spender",
          "type": "address"
        },
        {
          "indexed": false,
          "internalType": "uint256",
          "name": "amount",
          "type": "uint256"
        }
      ],
      "name": "ContractApprovedSpender",
      "type": "event"
    },
    {
      "anonymous": false,
      "inputs": [
        {
          "indexed": true,
          "internalType": "address",
          "name": "token",
          "type": "address"
        },
        {
          "indexed": true,
          "internalType": "address",
          "name": "oldGovernance",
          "type": "address"
        },
        {
          "indexed": true,
          "internalType": "address",
          "name": "newGovernance",
          "type": "address"
        }
      ],
      "name": "GovernanceContractUpdated",
      "type": "event"
    },
    {
      "anonymous": false,
      "inputs": [
        {
          "indexed": true,
          "internalType": "address",
          "name": "lpToken",
          "type": "address"
        },
        {
          "indexed": false,
          "internalType": "uint256",
          "name": "amount",
          "type": "uint256"
        },
        {
          "indexed": false,
          "internalType": "uint256",
          "name": "unlockTime",
          "type": "uint256"
        }
      ],
      "name": "LiquidityLocked",
      "type": "event"
    },
    {
      "anonymous": false,
      "inputs": [
        {
          "indexed": false,
          "internalType": "uint256",
          "name": "oldAmount",
          "type": "uint256"
        },
        {
          "indexed": false,
          "internalType": "uint256",
          "name": "newAmount",
          "type": "uint256"
        }
      ],
      "name": "MaxHoldingUpdated",
      "type": "event"
    },
    {
      "anonymous": false,
      "inputs": [
        {
          "indexed": false,
          "internalType": "uint256",
          "name": "oldAmount",
          "type": "uint256"
        },
        {
          "indexed": false,
          "internalType": "uint256",
          "name": "newAmount",
          "type": "uint256"
        }
      ],
      "name": "MaxTransferAmountUpdated",
      "type": "event"
    },
    {
      "anonymous": false,
      "inputs": [
        {
          "indexed": true,
          "internalType": "address",
          "name": "previousOwner",
          "type": "address"
        },
        {
          "indexed": true,
          "internalType": "address",
          "name": "newOwner",
          "type": "address"
        }
      ],
      "name": "OwnershipTransferred",
      "type": "event"
    },
    {
      "anonymous": false,
      "inputs": [
        {
          "indexed": false,
          "internalType": "address",
          "name": "account",
          "type": "address"
        }
      ],
      "name": "Paused",
      "type": "event"
    },
    {
      "anonymous": false,
      "inputs": [
        {
          "indexed": false,
          "internalType": "uint256",
          "name": "amount",
          "type": "uint256"
        },
        {
          "indexed": false,
          "internalType": "uint256",
          "name": "price",
          "type": "uint256"
        }
      ],
      "name": "StabilityBurn",
      "type": "event"
    },
    {
      "anonymous": false,
      "inputs": [
        {
          "indexed": false,
          "internalType": "uint256",
          "name": "amount",
          "type": "uint256"
        },
        {
          "indexed": false,
          "internalType": "uint256",
          "name": "price",
          "type": "uint256"
        }
      ],
      "name": "StabilityMint",
      "type": "event"
    },
    {
      "anonymous": false,
      "inputs": [
        {
          "indexed": true,
          "internalType": "address",
          "name": "holder",
          "type": "address"
        },
        {
          "indexed": false,
          "internalType": "uint256",
          "name": "amount",
          "type": "uint256"
        },
        {
          "indexed": false,
          "internalType": "uint256",
          "name": "unlockTime",
          "type": "uint256"
        }
      ],
      "name": "TokensLocked",
      "type": "event"
    },
    {
      "anonymous": false,
      "inputs": [
        {
          "indexed": true,
          "internalType": "address",
          "name": "holder",
          "type": "address"
        },
        {
          "indexed": false,
          "internalType": "uint256",
          "name": "amount",
          "type": "uint256"
        }
      ],
      "name": "TokensUnlocked",
      "type": "event"
    },
    {
      "anonymous": false,
      "inputs": [
        {
          "indexed": true,
          "internalType": "address",
          "name": "from",
          "type": "address"
        },
        {
          "indexed": true,
          "internalType": "address",
          "name": "to",
          "type": "address"
        },
        {
          "indexed": false,
          "internalType": "uint256",
          "name": "value",
          "type": "uint256"
        }
      ],
      "name": "Transfer",
      "type": "event"
    },
    {
      "anonymous": false,
      "inputs": [
        {
          "indexed": false,
          "internalType": "address",
          "name": "account",
          "type": "address"
        }
      ],
      "name": "Unpaused",
      "type": "event"
    },
    {
      "inputs": [],
      "name": "MAX_LOCK_DURATION",
      "outputs": [
        {
          "internalType": "uint256",
          "name": "",
          "type": "uint256"
        }
      ],
      "stateMutability": "view",
      "type": "function"
    },
    {
      "inputs": [],
      "name": "MAX_SUPPLY",
      "outputs": [
        {
          "internalType": "uint256",
          "name": "",
          "type": "uint256"
        }
      ],
      "stateMutability": "view",
      "type": "function"
    },
    {
      "inputs": [],
      "name": "MIN_LOCK_DURATION",
      "outputs": [
        {
          "internalType": "uint256",
          "name": "",
          "type": "uint256"
        }
      ],
      "stateMutability": "view",
      "type": "function"
    },
    {
      "inputs": [],
      "name": "TRANSFER_COOLDOWN",
      "outputs": [
        {
          "internalType": "uint256",
          "name": "",
          "type": "uint256"
        }
      ],
      "stateMutability": "view",
      "type": "function"
    },
    {
      "inputs": [],
      "name": "airdropContract",
      "outputs": [
        {
          "internalType": "address",
          "name": "",
          "type": "address"
        }
      ],
      "stateMutability": "view",
      "type": "function"
    },
    {
      "inputs": [
        {
          "internalType": "address",
          "name": "owner",
          "type": "address"
        },
        {
          "internalType": "address",
          "name": "spender",
          "type": "address"
        }
      ],
      "name": "allowance",
      "outputs": [
        {
          "internalType": "uint256",
          "name": "",
          "type": "uint256"
        }
      ],
      "stateMutability": "view",
      "type": "function"
    },
    {
      "inputs": [
        {
          "internalType": "address",
          "name": "spender",
          "type": "address"
        },
        {
          "internalType": "uint256",
          "name": "value",
          "type": "uint256"
        }
      ],
      "name": "approve",
      "outputs": [
        {
          "internalType": "bool",
          "name": "",
          "type": "bool"
        }
      ],
      "stateMutability": "nonpayable",
      "type": "function"
    },
    {
      "inputs": [
        {
          "internalType": "address",
          "name": "spender",
          "type": "address"
        },
        {
          "internalType": "uint256",
          "name": "amount",
          "type": "uint256"
        }
      ],
      "name": "approveContractSpender",
      "outputs": [],
      "stateMutability": "nonpayable",
      "type": "function"
    },
    {
      "inputs": [
        {
          "internalType": "address",
          "name": "account",
          "type": "address"
        }
      ],
      "name": "balanceOf",
      "outputs": [
        {
          "internalType": "uint256",
          "name": "",
          "type": "uint256"
        }
      ],
      "stateMutability": "view",
      "type": "function"
    },
    {
      "inputs": [
        {
          "internalType": "uint256",
          "name": "value",
          "type": "uint256"
        }
      ],
      "name": "burn",
      "outputs": [],
      "stateMutability": "nonpayable",
      "type": "function"
    },
    {
      "inputs": [
        {
          "internalType": "address",
          "name": "account",
          "type": "address"
        },
        {
          "internalType": "uint256",
          "name": "value",
          "type": "uint256"
        }
      ],
      "name": "burnFrom",
      "outputs": [],
      "stateMutability": "nonpayable",
      "type": "function"
    },
    {
      "inputs": [],
      "name": "burningEnabled",
      "outputs": [
        {
          "internalType": "bool",
          "name": "",
          "type": "bool"
        }
      ],
      "stateMutability": "view",
      "type": "function"
    },
    {
      "inputs": [],
      "name": "decimals",
      "outputs": [
        {
          "internalType": "uint8",
          "name": "",
          "type": "uint8"
        }
      ],
      "stateMutability": "view",
      "type": "function"
    },
    {
      "inputs": [],
      "name": "emergencyPause",
      "outputs": [],
      "stateMutability": "nonpayable",
      "type": "function"
    },
    {
      "inputs": [
        {
          "internalType": "address",
          "name": "lpToken",
          "type": "address"
        }
      ],
      "name": "emergencyUnlockLiquidity",
      "outputs": [],
      "stateMutability": "nonpayable",
      "type": "function"
    },
    {
      "inputs": [],
      "name": "emergencyUnpause",
      "outputs": [],
      "stateMutability": "nonpayable",
      "type": "function"
    },
    {
      "inputs": [],
      "name": "factory",
      "outputs": [
        {
          "internalType": "address",
          "name": "",
          "type": "address"
        }
      ],
      "stateMutability": "view",
      "type": "function"
    },
    {
      "inputs": [
        {
          "internalType": "address",
          "name": "holder",
          "type": "address"
        }
      ],
      "name": "getAvailableBalance",
      "outputs": [
        {
          "internalType": "uint256",
          "name": "",
          "type": "uint256"
        }
      ],
      "stateMutability": "view",
      "type": "function"
    },
    {
      "inputs": [
        {
          "internalType": "address",
          "name": "holder",
          "type": "address"
        }
      ],
      "name": "getLockedTokens",
      "outputs": [
        {
          "internalType": "uint256",
          "name": "amount",
          "type": "uint256"
        },
        {
          "internalType": "uint256",
          "name": "unlockTime",
          "type": "uint256"
        },
        {
          "internalType": "bool",
          "name": "isLocked",
          "type": "bool"
        }
      ],
      "stateMutability": "view",
      "type": "function"
    },
    {
      "inputs": [],
      "name": "governanceContract",
      "outputs": [
        {
          "internalType": "address",
          "name": "",
          "type": "address"
        }
      ],
      "stateMutability": "view",
      "type": "function"
    },
    {
      "inputs": [
        {
          "internalType": "address",
          "name": "",
          "type": "address"
        }
      ],
      "name": "isWhitelisted",
      "outputs": [
        {
          "internalType": "bool",
          "name": "",
          "type": "bool"
        }
      ],
      "stateMutability": "view",
      "type": "function"
    },
    {
      "inputs": [
        {
          "internalType": "address",
          "name": "",
          "type": "address"
        }
      ],
      "name": "lastTransferTime",
      "outputs": [
        {
          "internalType": "uint256",
          "name": "",
          "type": "uint256"
        }
      ],
      "stateMutability": "view",
      "type": "function"
    },
    {
      "inputs": [
        {
          "internalType": "address",
          "name": "",
          "type": "address"
        }
      ],
      "name": "liquidityLocks",
      "outputs": [
        {
          "internalType": "uint256",
          "name": "amount",
          "type": "uint256"
        },
        {
          "internalType": "uint256",
          "name": "unlockTime",
          "type": "uint256"
        },
        {
          "internalType": "bool",
          "name": "isLocked",
          "type": "bool"
        }
      ],
      "stateMutability": "view",
      "type": "function"
    },
    {
      "inputs": [
        {
          "internalType": "address",
          "name": "lpToken",
          "type": "address"
        },
        {
          "internalType": "uint256",
          "name": "amount",
          "type": "uint256"
        },
        {
          "internalType": "uint256",
          "name": "duration",
          "type": "uint256"
        }
      ],
      "name": "lockLiquidity",
      "outputs": [],
      "stateMutability": "nonpayable",
      "type": "function"
    },
    {
      "inputs": [
        {
          "internalType": "uint256",
          "name": "amount",
          "type": "uint256"
        },
        {
          "internalType": "uint256",
          "name": "duration",
          "type": "uint256"
        }
      ],
      "name": "lockTokens",
      "outputs": [],
      "stateMutability": "nonpayable",
      "type": "function"
    },
    {
      "inputs": [
        {
          "internalType": "address",
          "name": "",
          "type": "address"
        }
      ],
      "name": "lockedTokens",
      "outputs": [
        {
          "internalType": "uint256",
          "name": "amount",
          "type": "uint256"
        },
        {
          "internalType": "uint256",
          "name": "unlockTime",
          "type": "uint256"
        },
        {
          "internalType": "bool",
          "name": "isLocked",
          "type": "bool"
        }
      ],
      "stateMutability": "view",
      "type": "function"
    },
    {
      "inputs": [],
      "name": "maxHolding",
      "outputs": [
        {
          "internalType": "uint256",
          "name": "",
          "type": "uint256"
        }
      ],
      "stateMutability": "view",
      "type": "function"
    },
    {
      "inputs": [],
      "name": "maxTransferAmount",
      "outputs": [
        {
          "internalType": "uint256",
          "name": "",
          "type": "uint256"
        }
      ],
      "stateMutability": "view",
      "type": "function"
    },
    {
      "inputs": [],
      "name": "mintingEnabled",
      "outputs": [
        {
          "internalType": "bool",
          "name": "",
          "type": "bool"
        }
      ],
      "stateMutability": "view",
      "type": "function"
    },
    {
      "inputs": [],
      "name": "name",
      "outputs": [
        {
          "internalType": "string",
          "name": "",
          "type": "string"
        }
      ],
      "stateMutability": "view",
      "type": "function"
    },
    {
      "inputs": [],
      "name": "owner",
      "outputs": [
        {
          "internalType": "address",
          "name": "",
          "type": "address"
        }
      ],
      "stateMutability": "view",
      "type": "function"
    },
    {
      "inputs": [],
      "name": "paused",
      "outputs": [
        {
          "internalType": "bool",
          "name": "",
          "type": "bool"
        }
      ],
      "stateMutability": "view",
      "type": "function"
    },
    {
      "inputs": [],
      "name": "renounceOwnership",
      "outputs": [],
      "stateMutability": "nonpayable",
      "type": "function"
    },
    {
      "inputs": [
        {
          "internalType": "bool",
          "name": "enabled",
          "type": "bool"
        }
      ],
      "name": "setBurningEnabled",
      "outputs": [],
      "stateMutability": "nonpayable",
      "type": "function"
    },
    {
      "inputs": [
        {
          "internalType": "address",
          "name": "_governanceContract",
          "type": "address"
        }
      ],
      "name": "setGovernanceContract",
      "outputs": [],
      "stateMutability": "nonpayable",
      "type": "function"
    },
    {
      "inputs": [
        {
          "internalType": "uint256",
          "name": "newAmount",
          "type": "uint256"
        }
      ],
      "name": "setMaxHolding",
      "outputs": [],
      "stateMutability": "nonpayable",
      "type": "function"
    },
    {
      "inputs": [
        {
          "internalType": "uint256",
          "name": "newAmount",
          "type": "uint256"
        }
      ],
      "name": "setMaxTransferAmount",
      "outputs": [],
      "stateMutability": "nonpayable",
      "type": "function"
    },
    {
      "inputs": [
        {
          "internalType": "bool",
          "name": "enabled",
          "type": "bool"
        }
      ],
      "name": "setMintingEnabled",
      "outputs": [],
      "stateMutability": "nonpayable",
      "type": "function"
    },
    {
      "inputs": [
        {
          "internalType": "bool",
          "name": "enabled",
          "type": "bool"
        }
      ],
      "name": "setTransferLimitsEnabled",
      "outputs": [],
      "stateMutability": "nonpayable",
      "type": "function"
    },
    {
      "inputs": [
        {
          "internalType": "address",
          "name": "account",
          "type": "address"
        },
        {
          "internalType": "bool",
          "name": "whitelisted",
          "type": "bool"
        }
      ],
      "name": "setWhitelisted",
      "outputs": [],
      "stateMutability": "nonpayable",
      "type": "function"
    },
    {
      "inputs": [
        {
          "internalType": "uint256",
          "name": "amount",
          "type": "uint256"
        },
        {
          "internalType": "uint256",
          "name": "currentPrice",
          "type": "uint256"
        }
      ],
      "name": "stabilityBurn",
      "outputs": [],
      "stateMutability": "nonpayable",
      "type": "function"
    },
    {
      "inputs": [
        {
          "internalType": "uint256",
          "name": "amount",
          "type": "uint256"
        },
        {
          "internalType": "uint256",
          "name": "currentPrice",
          "type": "uint256"
        }
      ],
      "name": "stabilityMint",
      "outputs": [],
      "stateMutability": "nonpayable",
      "type": "function"
    },
    {
      "inputs": [],
      "name": "stabilityThreshold",
      "outputs": [
        {
          "internalType": "uint256",
          "name": "",
          "type": "uint256"
        }
      ],
      "stateMutability": "view",
      "type": "function"
    },
    {
      "inputs": [],
      "name": "symbol",
      "outputs": [
        {
          "internalType": "string",
          "name": "",
          "type": "string"
        }
      ],
      "stateMutability": "view",
      "type": "function"
    },
    {
      "inputs": [],
      "name": "targetPrice",
      "outputs": [
        {
          "internalType": "uint256",
          "name": "",
          "type": "uint256"
        }
      ],
      "stateMutability": "view",
      "type": "function"
    },
    {
      "inputs": [],
      "name": "totalSupply",
      "outputs": [
        {
          "internalType": "uint256",
          "name": "",
          "type": "uint256"
        }
      ],
      "stateMutability": "view",
      "type": "function"
    },
    {
      "inputs": [
        {
          "internalType": "address",
          "name": "to",
          "type": "address"
        },
        {
          "internalType": "uint256",
          "name": "value",
          "type": "uint256"
        }
      ],
      "name": "transfer",
      "outputs": [
        {
          "internalType": "bool",
          "name": "",
          "type": "bool"
        }
      ],
      "stateMutability": "nonpayable",
      "type": "function"
    },
    {
      "inputs": [
        {
          "internalType": "address[]",
          "name": "recipients",
          "type": "address[]"
        },
        {
          "internalType": "uint256[]",
          "name": "amounts",
          "type": "uint256[]"
        }
      ],
      "name": "transferAirdrop",
      "outputs": [],
      "stateMutability": "nonpayable",
      "type": "function"
    },
    {
      "inputs": [
        {
          "internalType": "address",
          "name": "from",
          "type": "address"
        },
        {
          "internalType": "address",
          "name": "to",
          "type": "address"
        },
        {
          "internalType": "uint256",
          "name": "value",
          "type": "uint256"
        }
      ],
      "name": "transferFrom",
      "outputs": [
        {
          "internalType": "bool",
          "name": "",
          "type": "bool"
        }
      ],
      "stateMutability": "nonpayable",
      "type": "function"
    },
    {
      "inputs": [],
      "name": "transferLimitsEnabled",
      "outputs": [
        {
          "internalType": "bool",
          "name": "",
          "type": "bool"
        }
      ],
      "stateMutability": "view",
      "type": "function"
    },
    {
      "inputs": [
        {
          "internalType": "address",
          "name": "newOwner",
          "type": "address"
        }
      ],
      "name": "transferOwnership",
      "outputs": [],
      "stateMutability": "nonpayable",
      "type": "function"
    },
    {
      "inputs": [],
      "name": "unlockTokens",
      "outputs": [],
      "stateMutability": "nonpayable",
      "type": "function"
    }
  ],
  "bytecode": "0x60e0604090808252346200049c57620026918038038091620000228285620006eb565b8339810160a0828203126200049c5781516001600160401b0391908281116200049c5781620000539185016200070f565b9060209081850151908482116200049c57620000719186016200070f565b9185850151936200009360806200008b6060890162000785565b970162000785565b95825195828711620005f7576003928354936001988986811c96168015620006e0575b88871014620006ca57601f958681116200067f575b50808887821160011462000619576000916200060d575b5060001982841b1c1916908a1b1781555b8751918211620005f75760049485548a81811c91168015620005ec575b89821014620005d757908181859493116200057f575b5088908311600114620005155760009262000509575b50828a1b92600019911b1c19161783555b6001600160a01b03958287168015620004f25760058054610100600160a81b03198116600887811b610100600160a81b0316919091179092558c5192911c89167f8be0079c531659141344cd1fd0a4f28419497f9722a3daafe3b4186f6b6457e0600080a38860065569d3c21bcecceda1000000600c55670de0b6b3a76400009586600d556201010162ffffff19600e541617600e555115620004e457505115620004d4578015620004c457858816978815620004b45760c0528851632bdce51b60e11b8152858185818c5afa8015620004a957879160009162000464575b508060a052161562000454578381029381850403620003fe5783608052678ac7230489e80000810291841592858104600a148417156200043f5760649004906801158e460913d0000083028681046014148517156200042a57620002c391620002b56064620002bc930494620002ae86620002a8838d6200079a565b6200079a565b92620007cc565b83620007be565b30620007cc565b301562000413577fdd2d3059bb2eb6817a58ed0be797603d03885108b3eb1003b4c37b9487e94592868a92306000528a82528c600020846000528252808d60002055838d518281527f8c5be1e5ebec7d5bd14f71427d1e84f3dd0314c0f7b2291e5b200ac8c7c3b925843092a38c51908152a28380048714821715620003fe57674563918244f400009060648504600a55029283046005141715620003e9575090606460099204600b553060005252836000209260ff1993838582541617905560005283600020828482541617905560a05116600052826000209182541617905551611e2d90816200086482396080518181816104ab015261124b015260a05181818161086601526112d2015260c05181818161066c0152818161077e01526114f00152f35b601190634e487b7160e01b6000525260246000fd5b601183634e487b7160e01b6000525260246000fd5b895163e602df0560e01b8152600081860152602490fd5b601186634e487b7160e01b6000525260246000fd5b601185634e487b7160e01b6000525260246000fd5b8851633973282f60e21b81528390fd5b809250878092503d8311620004a1575b620004808183620006eb565b810103126200049c5762000495879162000785565b386200022c565b600080fd5b503d62000474565b8a513d6000823e3d90fd5b8951630eeabd1560e11b81528490fd5b8851635cda02af60e11b81528390fd5b8851630d1db87b60e21b81528390fd5b63b15d1fe560e01b81528490fd5b8a51631e4fbdf760e01b8152600081870152602490fd5b8901519150386200013c565b908a9350601f1983169187600052896000209260005b8b8d838310620005695750505084116200054e575b505050811b0183556200014d565b8a01519060f884600019921b161c1916905538808062000540565b84015186558e979095019492830192016200052b565b9091925086600052886000208280860160051c8201928b8710620005cd575b918d9187969594930160051c01915b828110620005bd57505062000126565b600081558695508d9101620005ad565b925081926200059e565b602287634e487b7160e01b6000525260246000fd5b90607f169062000110565b634e487b7160e01b600052604160045260246000fd5b905087015138620000e2565b8b9250601f19821690846000528a6000209160005b8c8c8383106200066957505050831162000650575b5050811b018155620000f3565b89015160001983861b60f8161c19169055388062000643565b84015185558f969094019392830192016200062e565b82600052886000208780840160051c8201928b8510620006c0575b0160051c01908b905b828110620006b3575050620000cb565b60008155018b90620006a3565b925081926200069a565b634e487b7160e01b600052602260045260246000fd5b95607f1695620000b6565b601f909101601f19168101906001600160401b03821190821017620005f757604052565b919080601f840112156200049c5782516001600160401b038111620005f757602090604051926200074a83601f19601f8501160185620006eb565b8184528282870101116200049c5760005b8181106200077157508260009394955001015290565b85810183015184820184015282016200075b565b51906001600160a01b03821682036200049c57565b91908203918211620007a857565b634e487b7160e01b600052601160045260246000fd5b91908201809211620007a857565b6001600160a01b03169081156200084a5760ff6005541662000838577fddf252ad1be2c89b69c2b068fc378daa952ba7f163c4a11628f55a4df523b3ef6020826200081c600094600254620007be565b60025584845283825260408420818154019055604051908152a3565b60405163d93c066560e01b8152600490fd5b60405163ec442f0560e01b815260006004820152602490fdfe6080604081815260048036101561001557600080fd5b600092833560e01c90816306fdde03146115e357508063095ea7b3146115b95780630d2d8a31146115815780631129753f146114ca57806318160ddd146114ab57806323b872dd1461146e5780632a26d820146113ec578063313ce567146113d057806332a3a2d61461126e57806332cb6b0c14611233578063333e6f06146112145780633af32abf146111d657806342966c68146111b85780634a4e3bd51461114f5780634d754715146111285780634ea3871a146110ec5780634f1bfc9e146110cd57806351858e27146110725780635c975abb1461104e5780635eb7413a14610ff45780636b2d95d414610f785780636c24a76f14610f4b5780636cf5bb6314610ef157806370a0823114610eba578063715018a614610e5957806378b4330f14610e3b57806379cc679014610e0b5780637a4a341214610dee57806381eaae4814610db057806389158d8e14610c7f5780638bf5540914610c2b5780638da5cb5b14610bfe5780639281aa0b14610ba157806395d89b4114610a9b57806396ae946f146109605780639bc7c8c01461090c5780639fd6db12146108e5578063a9059cbb146108b4578063a9e7572314610895578063ab2be72614610851578063acaefb2014610819578063acec8ca9146107fa578063ad32be6a146107d6578063b172b222146107ad578063c45a015514610769578063ce144e0a1461063c578063dc38679c1461061d578063dd62ed3e146105d4578063deefce681461046e578063ee5967f5146103ab578063f2fde38b1461030f5763f968f4931461025f57600080fd5b3461030b578260031936011261030b5733835260076020528183209060ff600283015416156102f45760018201548042106102de575050549033835260076020528260028282208281558260018201550155519081527fe7b379c6c1fa169e9079c25e9143b127637eef8ec8c9d5c06ddb4ab3e119588860203392a280f35b835163f1a0f7df60e01b81529182015260249150fd5b60249083519063cd9a17e760e01b82523390820152fd5b8280fd5b503461030b57602036600319011261030b5761032961171e565b610331611aa0565b6001600160a01b0381811693909290841561039557505060058054610100600160a81b03198116600893841b610100600160a81b031617909155901c167f8be0079c531659141344cd1fd0a4f28419497f9722a3daafe3b4186f6b6457e08380a380f35b51631e4fbdf760e01b8152908101859052602490fd5b50903461030b576103bb3661178f565b926103c4611aa0565b60ff600e5460101c1615610460578115610452573085528460205282852054828110610437575050600d5483106103f9578380f35b7f5f22dc3acaec5eff838f7bd63e00f420f4441b015ab564298c79b9f1cda38b2f926104258230611acf565b82519182526020820152a13880808380f35b916044928451926318118ad560e01b84528301526024820152fd5b8251635cda02af60e11b8152fd5b82516303919d0f60e41b8152fd5b509190346105d05761047f3661178f565b610487611aa0565b60ff600e5460081c16156105c05781156105a957600254946104a9838761181f565b7f00000000000000000000000000000000000000000000000000000000000000001061059257600d54821180610587575b6104e2578480f35b3015610570575061051d827f2bf03ee653234e47dfb7f1bfefeac974247a204c1a68d5a2179e120ad1200a039596610518611c09565b61181f565b600255308552846020528285208281540190558251828152857fddf252ad1be2c89b69c2b068fc378daa952ba7f163c4a11628f55a4df523b3ef60203093a382519182526020820152a180388080808480f35b835163ec442f0560e01b8152908101859052602490fd5b50600c5486106104da565b8351631610c3af60e21b8152908101839052602490fd5b8251631610c3af60e21b8152808601839052602490fd5b825163164ef4b160e01b81528590fd5b5080fd5b5050346105d057806003193601126105d057806020926105f261171e565b6105fa611739565b6001600160a01b0391821683526001865283832091168252845220549051908152f35b5050346105d057816003193601126105d057602090600d549051908152f35b508290346105d05760603660031901126105d05761065861171e565b6044359390602435906001600160a01b03907f000000000000000000000000000000000000000000000000000000000000000082163303610759571692831561074b5781156104525762015180861061073457506106d97fe3afae9ec63e6f2e914c17bab8493b603680a72d9e6dfacf25ac6a4806555d419394954261181f565b61072683516106e7816117a5565b8381526002602082018481528683019060018252898b52600f602052878b209351845551600184015551151591019060ff801983541691151516179055565b82519182526020820152a280f35b8251632f16b52f60e11b8152908101869052602490fd5b8251630eeabd1560e11b8152fd5b50505051631ea0109360e21b8152fd5b5050346105d057816003193601126105d057517f00000000000000000000000000000000000000000000000000000000000000006001600160a01b03168152602090f35b5050346105d057816003193601126105d05760105490516001600160a01b039091168152602090f35b5050346105d057816003193601126105d05760209060ff600e541690519015158152f35b5050346105d057816003193601126105d057602090600c549051908152f35b833461084e57602036600319011261084e57610833611780565b61083b611aa0565b60ff8019600e54169115151617600e5580f35b80fd5b5050346105d057816003193601126105d057517f00000000000000000000000000000000000000000000000000000000000000006001600160a01b03168152602090f35b5050346105d057816003193601126105d057602090600a549051908152f35b5050346105d057806003193601126105d0576020906108de6108d461171e565b60243590336119ac565b5160018152f35b5050346105d057816003193601126105d05760209060ff600e5460081c1690519015158152f35b50903461030b57602036600319011261030b577f8a042c1cf423d7de2c3c2d014ebb0ec2bb4922c21ec17aae380eb45e4730eb20913561094a611aa0565b600b549080600b5582519182526020820152a180f35b509190346105d0576020908160031936011261030b5761097e61171e565b93610987611aa0565b6001600160a01b03948516808552600f8452828520600281015491929160ff1615610a8557600181015462278d008101809111610a725780421115610a5c5750859660055460081c1690549084519263a9059cbb60e01b84528301526024820152838160448188865af18015610a5257610a16575b50600292600f918552528220828155826001820155015580f35b8381813d8311610a4b575b610a2b81836117d7565b81010312610a47575180151503610a4257386109fc565b505050fd5b8480fd5b503d610a21565b83513d87823e3d90fd5b8260249186519163f1a0f7df60e01b8352820152fd5b634e487b7160e01b875260118352602487fd5b50915163cd9a17e760e01b815291820152602490fd5b509190346105d057816003193601126105d05780519180938054916001908360011c9260018516948515610b97575b6020958686108114610b8457858952908115610b605750600114610b08575b610b048787610afa828c03836117d7565b51918291826116d5565b0390f35b81529295507f8a35acfbc15ff81a39ae7d344fd709f28e8600b4aa8c65c6b64bfe7fe36bd19b5b828410610b4d5750505082610b0494610afa92820101943880610ae9565b8054868501880152928601928101610b2f565b60ff19168887015250505050151560051b8301019250610afa82610b043880610ae9565b634e487b7160e01b845260228352602484fd5b93607f1693610aca565b5050346105d057806003193601126105d057610bbb61171e565b90602435908115158203610bfa57610bf792610bd5611aa0565b60018060a01b03168452600960205283209060ff801983541691151516179055565b80f35b8380fd5b5050346105d057816003193601126105d057600554905160089190911c6001600160a01b03168152602090f35b50903461030b57602036600319011261030b577f1e7d225cb161c2f834852cd521d7ee05358af80025a0e937483c51e42bfc13de9135610c69611aa0565b600a549080600a5582519182526020820152a180f35b50903461030b57610c8f3661178f565b90928315610452576201518082108015610da3575b610d8e57338552600760205260ff6002848720015416610d77573385528460205282852054848110610d5b57505090610cfe7fd741e738a23fd18a03a26522320d9fc6cac1fed483e215ea9150fbc2fc43385d924261181f565b610d4b8251610d0c816117a5565b8581526002602082018481528583019060018252338a526007602052868a209351845551600184015551151591019060ff801983541691151516179055565b815193845260208401523392a280f35b83516318118ad560e01b81529182015260248101849052604490fd5b60249083519063c7f5a23d60e01b82523390820152fd5b9151632f16b52f60e11b815291820152602490fd5b506301e133808211610ca4565b833461084e57602036600319011261084e57610dca611780565b610dd2611aa0565b62ff0000600e5491151560101b169062ff0000191617600e5580f35b5050346105d057816003193601126105d05760209051610e108152f35b5050346105d05736600319011261084e57610bf7610e2761171e565b60243590610e368233836118d9565b611acf565b5050346105d057816003193601126105d05760209051620151808152f35b833461084e578060031936011261084e57610e72611aa0565b60058054610100600160a81b03198116909155819060081c6001600160a01b03167f8be0079c531659141344cd1fd0a4f28419497f9722a3daafe3b4186f6b6457e08280a380f35b5050346105d05760203660031901126105d05760209181906001600160a01b03610ee261171e565b16815280845220549051908152f35b5050346105d05760203660031901126105d0579081906001600160a01b03610f1761171e565b168152600f60209081529190208054600182015460029092015493519081529182015260ff90911615156040820152606090f35b5050346105d05760203660031901126105d057602090610f71610f6c61171e565b611842565b9051908152f35b5050346105d05760203660031901126105d0579081906001600160a01b03610f9e61171e565b16815260076020522090610b04815191610fb7836117a5565b83548084526001850154602080860182905260029096015460ff161515948301859052915190815293840152604083019190915281906060820190565b5050346105d05760203660031901126105d0579081906001600160a01b0361101a61171e565b168152600760209081529190208054600182015460029092015493519081529182015260ff90911615156040820152606090f35b5050346105d057816003193601126105d05760209060ff6005541690519015158152f35b5050346105d057816003193601126105d05760207f62e78cea01bee320cd4e420270b5ea74000d11b0c9f74754ebdbfc544b05a258916110b0611aa0565b6110b8611c09565b600160ff19600554161760055551338152a180f35b5050346105d057816003193601126105d057602090516301e133808152f35b833461084e57602036600319011261084e57611106611780565b61110e611aa0565b61ff00600e5491151560081b169061ff00191617600e5580f35b5050346105d057816003193601126105d05760209060ff600e5460101c1690519015158152f35b503461030b578260031936011261030b57611168611aa0565b6005549060ff8216156111aa575060ff1916600555513381527f5db9ee0a495bf2e6ff9c91a7834c1ba4fdd244a5e8aa4e537bd38aeae4b073aa90602090a180f35b8251638dfc202b60e01b8152fd5b8382346105d05760203660031901126105d057610bf7903533611acf565b5050346105d05760203660031901126105d05760209160ff9082906001600160a01b0361120161171e565b1681526009855220541690519015158152f35b5050346105d057816003193601126105d057602090600b549051908152f35b5050346105d057816003193601126105d057602090517f00000000000000000000000000000000000000000000000000000000000000008152f35b503461030b578160031936011261030b5767ffffffffffffffff918135838111610a475761129f903690840161174f565b9360243591508111610a47576112b8903690840161174f565b60105490936001600160a01b03929091831633036113c1577f00000000000000000000000000000000000000000000000000000000000000009283169586156113b15785036113a25793869487915b80831061135d575050503086528560205282862054848110610d5b57505091602091611355827f522f10c8a64bc02509ed8c28103680a05a0122a5003d70d77cea65e6778a13fc95306119ac565b51908152a280f35b90919561136b8783856117f9565b3515611392576113896001916113828985876117f9565b359061181f565b96019190611307565b8551635cda02af60e11b81528490fd5b5082516313b16fe960e21b8152fd5b8451633973282f60e21b81528390fd5b5082516308d3369b60e11b8152fd5b5050346105d057816003193601126105d0576020905160128152f35b50903461030b578060031936011261030b5761140661171e565b9060243591611413611aa0565b6001600160a01b03811693841561074b578315610452573086528560205282862054848110610d5b57505091602091611355827fdd2d3059bb2eb6817a58ed0be797603d03885108b3eb1003b4c37b9487e945929530611b76565b5050346105d05760603660031901126105d0576020906108de61148f61171e565b611497611739565b604435916114a68333836118d9565b6119ac565b5050346105d057816003193601126105d0576020906002549051908152f35b503461030b57602036600319011261030b576114e461171e565b6001600160a01b0391907f000000000000000000000000000000000000000000000000000000000000000083163303611572578216928315611565575050601054826bffffffffffffffffffffffff60a01b82161760105516307f9bf8fd3334d7fc12698393a63f1d84a28a16d44d0068a2290429540e713323b78480a480f35b51630eeabd1560e11b8152fd5b508251631ea0109360e21b8152fd5b5050346105d05760203660031901126105d05760209181906001600160a01b036115a961171e565b1681526008845220549051908152f35b5050346105d057806003193601126105d0576020906108de6115d961171e565b6024359033611b76565b9291905034610bfa5783600319360112610bfa57600354600181811c91869082811680156116cb575b60209586861082146116b85750848852908115611696575060011461163d575b610b048686610afa828b03836117d7565b929550600383527fc2575a0e9e593c00f959f8c92f12db2869c3395a3b0502d05e2516446f71f85b5b8284106116835750505082610b0494610afa92820101943861162c565b8054868501880152928601928101611666565b60ff191687860152505050151560051b8301019250610afa82610b043861162c565b634e487b7160e01b845260229052602483fd5b93607f169361160c565b6020808252825181830181905290939260005b82811061170a57505060409293506000838284010152601f8019910116010190565b8181018601518482016040015285016116e8565b600435906001600160a01b038216820361173457565b600080fd5b602435906001600160a01b038216820361173457565b9181601f840112156117345782359167ffffffffffffffff8311611734576020808501948460051b01011161173457565b60043590811515820361173457565b6040906003190112611734576004359060243590565b6060810190811067ffffffffffffffff8211176117c157604052565b634e487b7160e01b600052604160045260246000fd5b90601f8019910116810190811067ffffffffffffffff8211176117c157604052565b91908110156118095760051b0190565b634e487b7160e01b600052603260045260246000fd5b9190820180921161182c57565b634e487b7160e01b600052601160045260246000fd5b60009060018060a01b03168152806020526040812054906007602052604081206040805191611870836117a5565b80549283815260ff600260018401549384602085015201541615159283910152816118cf575b506118a057505090565b808311156118c95782039182116118b5575090565b634e487b7160e01b81526011600452602490fd5b50905090565b9050421038611896565b9160018060a01b038093169160009383855260016020526040938486209183169182875260205284862054926000198410611918575b50505050505050565b84841061197c5750801561196457811561194c5785526001602052838520908552602052039120553880808080808061190f565b8451634a1406b160e11b815260048101879052602490fd5b845163e602df0560e01b815260048101879052602490fd5b8551637dc7a0d960e11b81526001600160a01b039190911660048201526024810184905260448101859052606490fd5b90916001600160a01b0380831692908315611a87578416938415611a6e57826119d59183611c27565b6119dd611c09565b60009083825281602052604082205490838210611a3c575091604082827fddf252ad1be2c89b69c2b068fc378daa952ba7f163c4a11628f55a4df523b3ef958760209652828652038282205586815220818154019055604051908152a3565b60405163391434e360e21b81526001600160a01b03919091166004820152602481019190915260448101839052606490fd5b60405163ec442f0560e01b815260006004820152602490fd5b604051634b637e8f60e11b815260006004820152602490fd5b60055460081c6001600160a01b03163303611ab757565b60405163118cdaa760e01b8152336004820152602490fd5b906001600160a01b038216908115611a8757611ae9611c09565b60009282845283602052604084205490828210611b445750817fddf252ad1be2c89b69c2b068fc378daa952ba7f163c4a11628f55a4df523b3ef926020928587528684520360408620558060025403600255604051908152a3565b60405163391434e360e21b81526001600160a01b03919091166004820152602481019190915260448101829052606490fd5b6001600160a01b03908116918215611bf05716918215611bd75760207f8c5be1e5ebec7d5bd14f71427d1e84f3dd0314c0f7b2291e5b200ac8c7c3b925918360005260018252604060002085600052825280604060002055604051908152a3565b604051634a1406b160e11b815260006004820152602490fd5b60405163e602df0560e01b815260006004820152602490fd5b60ff60055416611c1557565b60405163d93c066560e01b8152600490fd5b9160018060a01b0390818416906000948286526020936007855260409586882060ff60028201541680611dec575b80611ddf575b611dac57508488526009865260ff87892054168015611d9a575b611d905760ff600e5416611c95575b505050509060089184525242912055565b600a54808511611d73575016808752868552611cb4838789205461181f565b90600b54809211611d435750508286526008845284862054610e1090818101809111611d2f574210611ce65780611c84565b858760088787835252818120549283018093116118b5575051630c4e7ac560e01b81526001600160a01b0392909216600483015260248201929092526044810191909152606490fd5b634e487b7160e01b88526011600452602488fd5b604491611d5a85898b808b8397825252205461181f565b915191630fdfee7f60e21b835260048301526024820152fd5b846044918951916355fdb3df60e11b835260048301526024820152fd5b5050505050505050565b50818116885260ff8789205416611c75565b600101548751630c4e7ac560e01b81526001600160a01b0385166004820152602481018690526044810191909152606490fd5b5060018101544210611c5b565b508481541015611c5556fea264697066735822122063de7556b951f1ee702ec9dffbd1163cd32db075027945e90d82019374e6326864736f6c63430008180033",
  "linkReferences": {},
  "deployedLinkReferences": {}
}