{
  "_format": "hh-sol-artifact-1",
  "contractName": "PumpFunToken",
  "sourceName": "contracts/PumpFunToken.sol",
  "abi": [
    {
      "inputs": [
        {
          "internalType": "string",
          "name": "name",
          "type": "string"
        },
        {
          "internalType": "string",
          "name": "symbol",
          "type": "string"
        },
        {
          "internalType": "uint256",
          "name": "_initialSupply",
          "type": "uint256"
        },
        {
          "internalType": "address",
          "name": "_creator",
          "type": "address"
        },
        {
          "internalType": "address",
          "name": "_factory",
          "type": "address"
        }
      ],
      "stateMutability": "nonpayable",
      "type": "constructor"
    },
    {
      "inputs": [
        {
          "internalType": "address",
          "name": "spender",
          "type": "address"
        },
        {
          "internalType": "uint256",
          "name": "allowance",
          "type": "uint256"
        },
        {
          "internalType": "uint256",
          "name": "needed",
          "type": "uint256"
        }
      ],
      "name": "ERC20InsufficientAllowance",
      "type": "error"
    },
    {
      "inputs": [
        {
          "internalType": "address",
          "name": "sender",
          "type": "address"
        },
        {
          "internalType": "uint256",
          "name": "balance",
          "type": "uint256"
        },
        {
          "internalType": "uint256",
          "name": "needed",
          "type": "uint256"
        }
      ],
      "name": "ERC20InsufficientBalance",
      "type": "error"
    },
    {
      "inputs": [
        {
          "internalType": "address",
          "name": "approver",
          "type": "address"
        }
      ],
      "name": "ERC20InvalidApprover",
      "type": "error"
    },
    {
      "inputs": [
        {
          "internalType": "address",
          "name": "receiver",
          "type": "address"
        }
      ],
      "name": "ERC20InvalidReceiver",
      "type": "error"
    },
    {
      "inputs": [
        {
          "internalType": "address",
          "name": "sender",
          "type": "address"
        }
      ],
      "name": "ERC20InvalidSender",
      "type": "error"
    },
    {
      "inputs": [
        {
          "internalType": "address",
          "name": "spender",
          "type": "address"
        }
      ],
      "name": "ERC20InvalidSpender",
      "type": "error"
    },
    {
      "inputs": [],
      "name": "EnforcedPause",
      "type": "error"
    },
    {
      "inputs": [],
      "name": "ExpectedPause",
      "type": "error"
    },
    {
      "inputs": [
        {
          "internalType": "address",
          "name": "owner",
          "type": "address"
        }
      ],
      "name": "OwnableInvalidOwner",
      "type": "error"
    },
    {
      "inputs": [
        {
          "internalType": "address",
          "name": "account",
          "type": "address"
        }
      ],
      "name": "OwnableUnauthorizedAccount",
      "type": "error"
    },
    {
      "inputs": [],
      "name": "PumpFunToken__BurningPaused",
      "type": "error"
    },
    {
      "inputs": [
        {
          "internalType": "uint256",
          "name": "amount",
          "type": "uint256"
        },
        {
          "internalType": "uint256",
          "name": "maxHolding",
          "type": "uint256"
        }
      ],
      "name": "PumpFunToken__ExceedsMaxHolding",
      "type": "error"
    },
    {
      "inputs": [
        {
          "internalType": "uint256",
          "name": "amount",
          "type": "uint256"
        },
        {
          "internalType": "uint256",
          "name": "maxAmount",
          "type": "uint256"
        }
      ],
      "name": "PumpFunToken__ExceedsMaxTransferAmount",
      "type": "error"
    },
    {
      "inputs": [
        {
          "internalType": "uint256",
          "name": "available",
          "type": "uint256"
        },
        {
          "internalType": "uint256",
          "name": "requested",
          "type": "uint256"
        }
      ],
      "name": "PumpFunToken__InsufficientBalance",
      "type": "error"
    },
    {
      "inputs": [],
      "name": "PumpFunToken__InvalidAirdropArrays",
      "type": "error"
    },
    {
      "inputs": [],
      "name": "PumpFunToken__InvalidAirdropContract",
      "type": "error"
    },
    {
      "inputs": [
        {
          "internalType": "uint256",
          "name": "duration",
          "type": "uint256"
        }
      ],
      "name": "PumpFunToken__InvalidLockDuration",
      "type": "error"
    },
    {
      "inputs": [
        {
          "internalType": "uint256",
          "name": "amount",
          "type": "uint256"
        }
      ],
      "name": "PumpFunToken__InvalidMintAmount",
      "type": "error"
    },
    {
      "inputs": [],
      "name": "PumpFunToken__InvalidName",
      "type": "error"
    },
    {
      "inputs": [],
      "name": "PumpFunToken__InvalidSymbol",
      "type": "error"
    },
    {
      "inputs": [
        {
          "internalType": "uint256",
          "name": "unlockTime",
          "type": "uint256"
        }
      ],
      "name": "PumpFunToken__LockNotExpired",
      "type": "error"
    },
    {
      "inputs": [],
      "name": "PumpFunToken__MintingPaused",
      "type": "error"
    },
    {
      "inputs": [
        {
          "internalType": "address",
          "name": "holder",
          "type": "address"
        }
      ],
      "name": "PumpFunToken__NoLockedTokens",
      "type": "error"
    },
    {
      "inputs": [],
      "name": "PumpFunToken__OnlyFactory",
      "type": "error"
    },
    {
      "inputs": [],
      "name": "PumpFunToken__OnlyGovernance",
      "type": "error"
    },
    {
      "inputs": [
        {
          "internalType": "address",
          "name": "holder",
          "type": "address"
        }
      ],
      "name": "PumpFunToken__TokensAlreadyLocked",
      "type": "error"
    },
    {
      "inputs": [
        {
          "internalType": "address",
          "name": "holder",
          "type": "address"
        },
        {
          "internalType": "uint256",
          "name": "amount",
          "type": "uint256"
        },
        {
          "internalType": "uint256",
          "name": "unlockTime",
          "type": "uint256"
        }
      ],
      "name": "PumpFunToken__TransferLocked",
      "type": "error"
    },
    {
      "inputs": [],
      "name": "PumpFunToken__ZeroAddress",
      "type": "error"
    },
    {
      "inputs": [],
      "name": "PumpFunToken__ZeroAmount",
      "type": "error"
    },
    {
      "inputs": [],
      "name": "ReentrancyGuardReentrantCall",
      "type": "error"
    },
    {
      "anonymous": false,
      "inputs": [
        {
          "indexed": true,
          "internalType": "address",
          "name": "airdropContract",
          "type": "address"
        },
        {
          "indexed": false,
          "internalType": "uint256",
          "name": "totalAmount",
          "type": "uint256"
        }
      ],
      "name": "AirdropTriggered",
      "type": "event"
    },
    {
      "anonymous": false,
      "inputs": [
        {
          "indexed": true,
          "internalType": "address",
          "name": "owner",
          "type": "address"
        },
        {
          "indexed": true,
          "internalType": "address",
          "name": "spender",
          "type": "address"
        },
        {
          "indexed": false,
          "internalType": "uint256",
          "name": "value",
          "type": "uint256"
        }
      ],
      "name": "Approval",
      "type": "event"
    },
    {
      "anonymous": false,
      "inputs": [
        {
          "indexed": true,
          "internalType": "address",
          "name": "spender",
          "type": "address"
        },
        {
          "indexed": false,
          "internalType": "uint256",
          "name": "amount",
          "type": "uint256"
        }
      ],
      "name": "ContractApprovedSpender",
      "type": "event"
    },
    {
      "anonymous": false,
      "inputs": [
        {
          "indexed": true,
          "internalType": "address",
          "name": "token",
          "type": "address"
        },
        {
          "indexed": true,
          "internalType": "address",
          "name": "oldGovernance",
          "type": "address"
        },
        {
          "indexed": true,
          "internalType": "address",
          "name": "newGovernance",
          "type": "address"
        }
      ],
      "name": "GovernanceContractUpdated",
      "type": "event"
    },
    {
      "anonymous": false,
      "inputs": [
        {
          "indexed": true,
          "internalType": "address",
          "name": "lpToken",
          "type": "address"
        },
        {
          "indexed": false,
          "internalType": "uint256",
          "name": "amount",
          "type": "uint256"
        },
        {
          "indexed": false,
          "internalType": "uint256",
          "name": "unlockTime",
          "type": "uint256"
        }
      ],
      "name": "LiquidityLocked",
      "type": "event"
    },
    {
      "anonymous": false,
      "inputs": [
        {
          "indexed": false,
          "internalType": "uint256",
          "name": "oldAmount",
          "type": "uint256"
        },
        {
          "indexed": false,
          "internalType": "uint256",
          "name": "newAmount",
          "type": "uint256"
        }
      ],
      "name": "MaxHoldingUpdated",
      "type": "event"
    },
    {
      "anonymous": false,
      "inputs": [
        {
          "indexed": false,
          "internalType": "uint256",
          "name": "oldAmount",
          "type": "uint256"
        },
        {
          "indexed": false,
          "internalType": "uint256",
          "name": "newAmount",
          "type": "uint256"
        }
      ],
      "name": "MaxTransferAmountUpdated",
      "type": "event"
    },
    {
      "anonymous": false,
      "inputs": [
        {
          "indexed": true,
          "internalType": "address",
          "name": "previousOwner",
          "type": "address"
        },
        {
          "indexed": true,
          "internalType": "address",
          "name": "newOwner",
          "type": "address"
        }
      ],
      "name": "OwnershipTransferred",
      "type": "event"
    },
    {
      "anonymous": false,
      "inputs": [
        {
          "indexed": false,
          "internalType": "address",
          "name": "account",
          "type": "address"
        }
      ],
      "name": "Paused",
      "type": "event"
    },
    {
      "anonymous": false,
      "inputs": [
        {
          "indexed": false,
          "internalType": "uint256",
          "name": "amount",
          "type": "uint256"
        },
        {
          "indexed": false,
          "internalType": "uint256",
          "name": "price",
          "type": "uint256"
        }
      ],
      "name": "StabilityBurn",
      "type": "event"
    },
    {
      "anonymous": false,
      "inputs": [
        {
          "indexed": false,
          "internalType": "uint256",
          "name": "amount",
          "type": "uint256"
        },
        {
          "indexed": false,
          "internalType": "uint256",
          "name": "price",
          "type": "uint256"
        }
      ],
      "name": "StabilityMint",
      "type": "event"
    },
    {
      "anonymous": false,
      "inputs": [
        {
          "indexed": true,
          "internalType": "address",
          "name": "holder",
          "type": "address"
        },
        {
          "indexed": false,
          "internalType": "uint256",
          "name": "amount",
          "type": "uint256"
        },
        {
          "indexed": false,
          "internalType": "uint256",
          "name": "unlockTime",
          "type": "uint256"
        }
      ],
      "name": "TokensLocked",
      "type": "event"
    },
    {
      "anonymous": false,
      "inputs": [
        {
          "indexed": true,
          "internalType": "address",
          "name": "holder",
          "type": "address"
        },
        {
          "indexed": false,
          "internalType": "uint256",
          "name": "amount",
          "type": "uint256"
        }
      ],
      "name": "TokensUnlocked",
      "type": "event"
    },
    {
      "anonymous": false,
      "inputs": [
        {
          "indexed": true,
          "internalType": "address",
          "name": "from",
          "type": "address"
        },
        {
          "indexed": true,
          "internalType": "address",
          "name": "to",
          "type": "address"
        },
        {
          "indexed": false,
          "internalType": "uint256",
          "name": "value",
          "type": "uint256"
        }
      ],
      "name": "Transfer",
      "type": "event"
    },
    {
      "anonymous": false,
      "inputs": [
        {
          "indexed": false,
          "internalType": "address",
          "name": "account",
          "type": "address"
        }
      ],
      "name": "Unpaused",
      "type": "event"
    },
    {
      "inputs": [],
      "name": "MAX_LOCK_DURATION",
      "outputs": [
        {
          "internalType": "uint256",
          "name": "",
          "type": "uint256"
        }
      ],
      "stateMutability": "view",
      "type": "function"
    },
    {
      "inputs": [],
      "name": "MAX_SUPPLY",
      "outputs": [
        {
          "internalType": "uint256",
          "name": "",
          "type": "uint256"
        }
      ],
      "stateMutability": "view",
      "type": "function"
    },
    {
      "inputs": [],
      "name": "MIN_LOCK_DURATION",
      "outputs": [
        {
          "internalType": "uint256",
          "name": "",
          "type": "uint256"
        }
      ],
      "stateMutability": "view",
      "type": "function"
    },
    {
      "inputs": [],
      "name": "TRANSFER_COOLDOWN",
      "outputs": [
        {
          "internalType": "uint256",
          "name": "",
          "type": "uint256"
        }
      ],
      "stateMutability": "view",
      "type": "function"
    },
    {
      "inputs": [],
      "name": "airdropContract",
      "outputs": [
        {
          "internalType": "address",
          "name": "",
          "type": "address"
        }
      ],
      "stateMutability": "view",
      "type": "function"
    },
    {
      "inputs": [
        {
          "internalType": "address",
          "name": "owner",
          "type": "address"
        },
        {
          "internalType": "address",
          "name": "spender",
          "type": "address"
        }
      ],
      "name": "allowance",
      "outputs": [
        {
          "internalType": "uint256",
          "name": "",
          "type": "uint256"
        }
      ],
      "stateMutability": "view",
      "type": "function"
    },
    {
      "inputs": [
        {
          "internalType": "address",
          "name": "spender",
          "type": "address"
        },
        {
          "internalType": "uint256",
          "name": "value",
          "type": "uint256"
        }
      ],
      "name": "approve",
      "outputs": [
        {
          "internalType": "bool",
          "name": "",
          "type": "bool"
        }
      ],
      "stateMutability": "nonpayable",
      "type": "function"
    },
    {
      "inputs": [
        {
          "internalType": "address",
          "name": "spender",
          "type": "address"
        },
        {
          "internalType": "uint256",
          "name": "amount",
          "type": "uint256"
        }
      ],
      "name": "approveContractSpender",
      "outputs": [],
      "stateMutability": "nonpayable",
      "type": "function"
    },
    {
      "inputs": [
        {
          "internalType": "address",
          "name": "account",
          "type": "address"
        }
      ],
      "name": "balanceOf",
      "outputs": [
        {
          "internalType": "uint256",
          "name": "",
          "type": "uint256"
        }
      ],
      "stateMutability": "view",
      "type": "function"
    },
    {
      "inputs": [
        {
          "internalType": "uint256",
          "name": "value",
          "type": "uint256"
        }
      ],
      "name": "burn",
      "outputs": [],
      "stateMutability": "nonpayable",
      "type": "function"
    },
    {
      "inputs": [
        {
          "internalType": "address",
          "name": "account",
          "type": "address"
        },
        {
          "internalType": "uint256",
          "name": "value",
          "type": "uint256"
        }
      ],
      "name": "burnFrom",
      "outputs": [],
      "stateMutability": "nonpayable",
      "type": "function"
    },
    {
      "inputs": [],
      "name": "burningEnabled",
      "outputs": [
        {
          "internalType": "bool",
          "name": "",
          "type": "bool"
        }
      ],
      "stateMutability": "view",
      "type": "function"
    },
    {
      "inputs": [],
      "name": "decimals",
      "outputs": [
        {
          "internalType": "uint8",
          "name": "",
          "type": "uint8"
        }
      ],
      "stateMutability": "view",
      "type": "function"
    },
    {
      "inputs": [
        {
          "internalType": "uint256",
          "name": "amount",
          "type": "uint256"
        }
      ],
      "name": "deductDexPoolBalance",
      "outputs": [],
      "stateMutability": "nonpayable",
      "type": "function"
    },
    {
      "inputs": [
        {
          "internalType": "uint256",
          "name": "amount",
          "type": "uint256"
        }
      ],
      "name": "deductLiquidityPoolBalance",
      "outputs": [],
      "stateMutability": "nonpayable",
      "type": "function"
    },
    {
      "inputs": [],
      "name": "dexPoolBalance",
      "outputs": [
        {
          "internalType": "uint256",
          "name": "",
          "type": "uint256"
        }
      ],
      "stateMutability": "view",
      "type": "function"
    },
    {
      "inputs": [],
      "name": "emergencyPause",
      "outputs": [],
      "stateMutability": "nonpayable",
      "type": "function"
    },
    {
      "inputs": [
        {
          "internalType": "address",
          "name": "lpToken",
          "type": "address"
        }
      ],
      "name": "emergencyUnlockLiquidity",
      "outputs": [],
      "stateMutability": "nonpayable",
      "type": "function"
    },
    {
      "inputs": [],
      "name": "emergencyUnpause",
      "outputs": [],
      "stateMutability": "nonpayable",
      "type": "function"
    },
    {
      "inputs": [],
      "name": "factory",
      "outputs": [
        {
          "internalType": "address",
          "name": "",
          "type": "address"
        }
      ],
      "stateMutability": "view",
      "type": "function"
    },
    {
      "inputs": [
        {
          "internalType": "address",
          "name": "holder",
          "type": "address"
        }
      ],
      "name": "getAvailableBalance",
      "outputs": [
        {
          "internalType": "uint256",
          "name": "",
          "type": "uint256"
        }
      ],
      "stateMutability": "view",
      "type": "function"
    },
    {
      "inputs": [
        {
          "internalType": "address",
          "name": "holder",
          "type": "address"
        }
      ],
      "name": "getLockedTokens",
      "outputs": [
        {
          "internalType": "uint256",
          "name": "amount",
          "type": "uint256"
        },
        {
          "internalType": "uint256",
          "name": "unlockTime",
          "type": "uint256"
        },
        {
          "internalType": "bool",
          "name": "isLocked",
          "type": "bool"
        }
      ],
      "stateMutability": "view",
      "type": "function"
    },
    {
      "inputs": [],
      "name": "getPoolBalances",
      "outputs": [
        {
          "internalType": "uint256",
          "name": "liquidityBalance",
          "type": "uint256"
        },
        {
          "internalType": "uint256",
          "name": "dexBalance",
          "type": "uint256"
        }
      ],
      "stateMutability": "view",
      "type": "function"
    },
    {
      "inputs": [],
      "name": "governanceContract",
      "outputs": [
        {
          "internalType": "address",
          "name": "",
          "type": "address"
        }
      ],
      "stateMutability": "view",
      "type": "function"
    },
    {
      "inputs": [
        {
          "internalType": "address",
          "name": "",
          "type": "address"
        }
      ],
      "name": "isWhitelisted",
      "outputs": [
        {
          "internalType": "bool",
          "name": "",
          "type": "bool"
        }
      ],
      "stateMutability": "view",
      "type": "function"
    },
    {
      "inputs": [
        {
          "internalType": "address",
          "name": "",
          "type": "address"
        }
      ],
      "name": "lastTransferTime",
      "outputs": [
        {
          "internalType": "uint256",
          "name": "",
          "type": "uint256"
        }
      ],
      "stateMutability": "view",
      "type": "function"
    },
    {
      "inputs": [
        {
          "internalType": "address",
          "name": "",
          "type": "address"
        }
      ],
      "name": "liquidityLocks",
      "outputs": [
        {
          "internalType": "uint256",
          "name": "amount",
          "type": "uint256"
        },
        {
          "internalType": "uint256",
          "name": "unlockTime",
          "type": "uint256"
        },
        {
          "internalType": "bool",
          "name": "isLocked",
          "type": "bool"
        }
      ],
      "stateMutability": "view",
      "type": "function"
    },
    {
      "inputs": [],
      "name": "liquidityPoolBalance",
      "outputs": [
        {
          "internalType": "uint256",
          "name": "",
          "type": "uint256"
        }
      ],
      "stateMutability": "view",
      "type": "function"
    },
    {
      "inputs": [
        {
          "internalType": "address",
          "name": "lpToken",
          "type": "address"
        },
        {
          "internalType": "uint256",
          "name": "amount",
          "type": "uint256"
        },
        {
          "internalType": "uint256",
          "name": "duration",
          "type": "uint256"
        }
      ],
      "name": "lockLiquidity",
      "outputs": [],
      "stateMutability": "nonpayable",
      "type": "function"
    },
    {
      "inputs": [
        {
          "internalType": "uint256",
          "name": "amount",
          "type": "uint256"
        },
        {
          "internalType": "uint256",
          "name": "duration",
          "type": "uint256"
        }
      ],
      "name": "lockTokens",
      "outputs": [],
      "stateMutability": "nonpayable",
      "type": "function"
    },
    {
      "inputs": [
        {
          "internalType": "address",
          "name": "",
          "type": "address"
        }
      ],
      "name": "lockedTokens",
      "outputs": [
        {
          "internalType": "uint256",
          "name": "amount",
          "type": "uint256"
        },
        {
          "internalType": "uint256",
          "name": "unlockTime",
          "type": "uint256"
        },
        {
          "internalType": "bool",
          "name": "isLocked",
          "type": "bool"
        }
      ],
      "stateMutability": "view",
      "type": "function"
    },
    {
      "inputs": [],
      "name": "maxHolding",
      "outputs": [
        {
          "internalType": "uint256",
          "name": "",
          "type": "uint256"
        }
      ],
      "stateMutability": "view",
      "type": "function"
    },
    {
      "inputs": [],
      "name": "maxTransferAmount",
      "outputs": [
        {
          "internalType": "uint256",
          "name": "",
          "type": "uint256"
        }
      ],
      "stateMutability": "view",
      "type": "function"
    },
    {
      "inputs": [],
      "name": "mintingEnabled",
      "outputs": [
        {
          "internalType": "bool",
          "name": "",
          "type": "bool"
        }
      ],
      "stateMutability": "view",
      "type": "function"
    },
    {
      "inputs": [],
      "name": "name",
      "outputs": [
        {
          "internalType": "string",
          "name": "",
          "type": "string"
        }
      ],
      "stateMutability": "view",
      "type": "function"
    },
    {
      "inputs": [],
      "name": "owner",
      "outputs": [
        {
          "internalType": "address",
          "name": "",
          "type": "address"
        }
      ],
      "stateMutability": "view",
      "type": "function"
    },
    {
      "inputs": [],
      "name": "paused",
      "outputs": [
        {
          "internalType": "bool",
          "name": "",
          "type": "bool"
        }
      ],
      "stateMutability": "view",
      "type": "function"
    },
    {
      "inputs": [],
      "name": "renounceOwnership",
      "outputs": [],
      "stateMutability": "nonpayable",
      "type": "function"
    },
    {
      "inputs": [
        {
          "internalType": "bool",
          "name": "enabled",
          "type": "bool"
        }
      ],
      "name": "setBurningEnabled",
      "outputs": [],
      "stateMutability": "nonpayable",
      "type": "function"
    },
    {
      "inputs": [
        {
          "internalType": "address",
          "name": "_governanceContract",
          "type": "address"
        }
      ],
      "name": "setGovernanceContract",
      "outputs": [],
      "stateMutability": "nonpayable",
      "type": "function"
    },
    {
      "inputs": [
        {
          "internalType": "uint256",
          "name": "newAmount",
          "type": "uint256"
        }
      ],
      "name": "setMaxHolding",
      "outputs": [],
      "stateMutability": "nonpayable",
      "type": "function"
    },
    {
      "inputs": [
        {
          "internalType": "uint256",
          "name": "newAmount",
          "type": "uint256"
        }
      ],
      "name": "setMaxTransferAmount",
      "outputs": [],
      "stateMutability": "nonpayable",
      "type": "function"
    },
    {
      "inputs": [
        {
          "internalType": "bool",
          "name": "enabled",
          "type": "bool"
        }
      ],
      "name": "setMintingEnabled",
      "outputs": [],
      "stateMutability": "nonpayable",
      "type": "function"
    },
    {
      "inputs": [
        {
          "internalType": "bool",
          "name": "enabled",
          "type": "bool"
        }
      ],
      "name": "setTransferLimitsEnabled",
      "outputs": [],
      "stateMutability": "nonpayable",
      "type": "function"
    },
    {
      "inputs": [
        {
          "internalType": "address",
          "name": "account",
          "type": "address"
        },
        {
          "internalType": "bool",
          "name": "whitelisted",
          "type": "bool"
        }
      ],
      "name": "setWhitelisted",
      "outputs": [],
      "stateMutability": "nonpayable",
      "type": "function"
    },
    {
      "inputs": [
        {
          "internalType": "uint256",
          "name": "amount",
          "type": "uint256"
        },
        {
          "internalType": "uint256",
          "name": "currentPrice",
          "type": "uint256"
        }
      ],
      "name": "stabilityBurn",
      "outputs": [],
      "stateMutability": "nonpayable",
      "type": "function"
    },
    {
      "inputs": [
        {
          "internalType": "uint256",
          "name": "amount",
          "type": "uint256"
        },
        {
          "internalType": "uint256",
          "name": "currentPrice",
          "type": "uint256"
        }
      ],
      "name": "stabilityMint",
      "outputs": [],
      "stateMutability": "nonpayable",
      "type": "function"
    },
    {
      "inputs": [],
      "name": "stabilityThreshold",
      "outputs": [
        {
          "internalType": "uint256",
          "name": "",
          "type": "uint256"
        }
      ],
      "stateMutability": "view",
      "type": "function"
    },
    {
      "inputs": [],
      "name": "symbol",
      "outputs": [
        {
          "internalType": "string",
          "name": "",
          "type": "string"
        }
      ],
      "stateMutability": "view",
      "type": "function"
    },
    {
      "inputs": [],
      "name": "targetPrice",
      "outputs": [
        {
          "internalType": "uint256",
          "name": "",
          "type": "uint256"
        }
      ],
      "stateMutability": "view",
      "type": "function"
    },
    {
      "inputs": [],
      "name": "totalSupply",
      "outputs": [
        {
          "internalType": "uint256",
          "name": "",
          "type": "uint256"
        }
      ],
      "stateMutability": "view",
      "type": "function"
    },
    {
      "inputs": [
        {
          "internalType": "address",
          "name": "to",
          "type": "address"
        },
        {
          "internalType": "uint256",
          "name": "value",
          "type": "uint256"
        }
      ],
      "name": "transfer",
      "outputs": [
        {
          "internalType": "bool",
          "name": "",
          "type": "bool"
        }
      ],
      "stateMutability": "nonpayable",
      "type": "function"
    },
    {
      "inputs": [
        {
          "internalType": "address[]",
          "name": "recipients",
          "type": "address[]"
        },
        {
          "internalType": "uint256[]",
          "name": "amounts",
          "type": "uint256[]"
        }
      ],
      "name": "transferAirdrop",
      "outputs": [],
      "stateMutability": "nonpayable",
      "type": "function"
    },
    {
      "inputs": [
        {
          "internalType": "address",
          "name": "from",
          "type": "address"
        },
        {
          "internalType": "address",
          "name": "to",
          "type": "address"
        },
        {
          "internalType": "uint256",
          "name": "value",
          "type": "uint256"
        }
      ],
      "name": "transferFrom",
      "outputs": [
        {
          "internalType": "bool",
          "name": "",
          "type": "bool"
        }
      ],
      "stateMutability": "nonpayable",
      "type": "function"
    },
    {
      "inputs": [],
      "name": "transferLimitsEnabled",
      "outputs": [
        {
          "internalType": "bool",
          "name": "",
          "type": "bool"
        }
      ],
      "stateMutability": "view",
      "type": "function"
    },
    {
      "inputs": [
        {
          "internalType": "address",
          "name": "newOwner",
          "type": "address"
        }
      ],
      "name": "transferOwnership",
      "outputs": [],
      "stateMutability": "nonpayable",
      "type": "function"
    },
    {
      "inputs": [],
      "name": "unlockTokens",
      "outputs": [],
      "stateMutability": "nonpayable",
      "type": "function"
    }
  ],
  "bytecode": "0x60e060409080825234620005005762002885803803809162000022828562000748565b8339810160a082820312620005005781516001600160401b0390818111620005005782620000529185016200076c565b9060209283850151908282116200050057620000709186016200076c565b85850151936200009160806200008960608901620007e2565b9701620007e2565b9380519380851162000655576003908154916001968784811c941680156200073d575b868510146200072757601f93848111620006dc575b50808685821160011462000677576000916200066b575b5060001982841b1c191690881b1781555b8551918211620006555760049283548881811c911680156200064a575b87821014620006355790818185949311620005dd575b5086908311600114620005745760009262000568575b5082881b92600019911b1c19161781555b6001600160a01b03938885168015620005515760058054610100600160a81b0319811660088d811b610100600160a81b0316919091179092558c5192911c87167f8be0079c531659141344cd1fd0a4f28419497f9722a3daafe3b4186f6b6457e0600080a38660065569d3c21bcecceda1000000600e55670de0b6b3a76400009384600f556201010162ffffff19601054161760105551156200054357505115620005355786156200052757838616958615620005185760c0528851632bdce51b60e11b8152838183818a5afa80156200050d578591600091620004c8575b508060a0521615620004ba5781870291878304036200044f5781608052678ac7230489e800008702821590838104600a14821715620004645760649004976801158e460913d000008102848104601414831715620004a557606490049868022b1c8c1227a0000082028581046028148417156200049057606490049a8b8b620002b48489620007f7565b90620002c091620007f7565b90620002cc91620007f7565b91620002d89162000829565b620002e48b8b6200081b565b90620002f0916200081b565b620002fc903062000829565b620003088a8a6200081b565b301562000479577fdd2d3059bb2eb6817a58ed0be797603d03885108b3eb1003b4c37b9487e94592868d620003828e8e8e80978f3060005287528560002082600052875280866000205585519081527f8c5be1e5ebec7d5bd14f71427d1e84f3dd0314c0f7b2291e5b200ac8c7c3b925873092a36200081b565b9051908152a283800487148217156200046457674563918244f400009060648504600c550292830460051417156200044f575090606460099204600d553060005252856000209260ff1993838582541617905560005285600020828482541617905560a051166000528460002091825416179055600a55600b5551611fc49081620008c182396080518181816104e201526113d4015260a051818181610948015261145b015260c05181818161068c0152818161072f015281816108410152818161109201526116790152f35b601190634e487b7160e01b6000525260246000fd5b601183634e487b7160e01b6000525260246000fd5b8b5163e602df0560e01b8152600081860152602490fd5b601185634e487b7160e01b6000525260246000fd5b601184634e487b7160e01b6000525260246000fd5b8851633973282f60e21b8152fd5b809250858092503d831162000505575b620004e4818362000748565b810103126200050057620004f98591620007e2565b386200022a565b600080fd5b503d620004d8565b8a513d6000823e3d90fd5b508851630eeabd1560e11b8152fd5b8851635cda02af60e11b8152fd5b8851630d1db87b60e21b8152fd5b63b15d1fe560e01b81529050fd5b8a51631e4fbdf760e01b8152600081850152602490fd5b8701519150386200013a565b90889350601f1983169185600052876000209260005b89828210620005c65750508411620005ab575b505050811b0181556200014b565b8801519060f884600019921b161c191690553880806200059d565b838c015186558c979095019492830192016200058a565b9091925084600052866000208280860160051c8201928987106200062b575b918b9187969594930160051c01915b8281106200061b57505062000124565b600081558695508b91016200060b565b92508192620005fc565b602285634e487b7160e01b6000525260246000fd5b90607f16906200010e565b634e487b7160e01b600052604160045260246000fd5b905085015138620000e0565b899250601f1982169084600052886000209160005b8a828210620006c55750508311620006ac575b5050811b018155620000f1565b87015160001983861b60f8161c1916905538806200069f565b838b015185558d969094019392830192016200068c565b82600052866000208580840160051c8201928985106200071d575b0160051c019089905b82811062000710575050620000c9565b6000815501899062000700565b92508192620006f7565b634e487b7160e01b600052602260045260246000fd5b93607f1693620000b4565b601f909101601f19168101906001600160401b038211908210176200065557604052565b919080601f84011215620005005782516001600160401b038111620006555760209060405192620007a783601f19601f850116018562000748565b818452828287010111620005005760005b818110620007ce57508260009394955001015290565b8581018301518482018401528201620007b8565b51906001600160a01b03821682036200050057565b919082039182116200080557565b634e487b7160e01b600052601160045260246000fd5b919082018092116200080557565b6001600160a01b0316908115620008a75760ff6005541662000895577fddf252ad1be2c89b69c2b068fc378daa952ba7f163c4a11628f55a4df523b3ef602082620008796000946002546200081b565b60025584845283825260408420818154019055604051908152a3565b60405163d93c066560e01b8152600490fd5b60405163ec442f0560e01b815260006004820152602490fdfe6080604081815260048036101561001557600080fd5b600092833560e01c90816306fdde031461176c57508063095ea7b3146117425780630d2d8a311461170a5780631129753f1461165357806318160ddd1461163457806323b872dd146115f75780632a26d82014611575578063313ce5671461155957806332a3a2d6146113f757806332cb6b0c146113bc578063333e6f061461139d5780633af32abf1461135f57806342966c68146113415780634a4e3bd5146112d85780634d754715146112b15780634ea3871a146112755780634f1bfc9e1461125657806351858e27146111fb57806352375bb1146111d65780635c975abb146111b25780635eb7413a146111585780636b2d95d4146110dc5780636bfaa9c9146110795780636c24a76f1461104c5780636c3c7fe81461102d5780636cf5bb6314610fd357806370a0823114610f9c578063715018a614610f3b57806378b4330f14610f1d57806379cc679014610eed5780637a4a341214610ed057806381eaae4814610e9257806389158d8e14610d615780638bf5540914610d0d5780638da5cb5b14610ce05780639281aa0b14610c8357806395d89b4114610b7d57806396ae946f14610a425780639bc7c8c0146109ee5780639fd6db12146109c7578063a9059cbb14610996578063a9e7572314610977578063ab2be72614610933578063acaefb20146108fb578063acec8ca9146108dc578063ad32be6a146108b8578063b172b2221461088f578063b3bf8d3014610870578063c45a01551461082c578063ce144e0a146106ff578063d2446e8a14610673578063dc38679c14610654578063dd62ed3e1461060b578063deefce68146104a5578063ee5967f5146103e2578063f2fde38b146103465763f968f4931461029657600080fd5b3461034257826003193601126103425733835260076020528183209060ff6002830154161561032b576001820154804210610315575050549033835260076020528260028282208281558260018201550155519081527fe7b379c6c1fa169e9079c25e9143b127637eef8ec8c9d5c06ddb4ab3e119588860203392a280f35b835163f1a0f7df60e01b81529182015260249150fd5b60249083519063cd9a17e760e01b82523390820152fd5b8280fd5b5034610342576020366003190112610342576103606118a7565b610368611c23565b6001600160a01b038181169390929084156103cc57505060058054610100600160a81b03198116600893841b610100600160a81b031617909155901c167f8be0079c531659141344cd1fd0a4f28419497f9722a3daafe3b4186f6b6457e08380a380f35b51631e4fbdf760e01b8152908101859052602490fd5b509034610342576103f236611918565b926103fb611c23565b60ff60105460101c161561049757811561048957308552846020528285205482811061046e575050600f548310610430578380f35b7f5f22dc3acaec5eff838f7bd63e00f420f4441b015ab564298c79b9f1cda38b2f9261045c8230611c52565b82519182526020820152a13880808380f35b916044928451926318118ad560e01b84528301526024820152fd5b8251635cda02af60e11b8152fd5b82516303919d0f60e41b8152fd5b50919034610607576104b636611918565b6104be611c23565b60ff60105460081c16156105f75781156105e057600254946104e083876119a8565b7f0000000000000000000000000000000000000000000000000000000000000000106105c957600f548211806105be575b610519578480f35b30156105a75750610554827f2bf03ee653234e47dfb7f1bfefeac974247a204c1a68d5a2179e120ad1200a03959661054f611d8c565b6119a8565b600255308552846020528285208281540190558251828152857fddf252ad1be2c89b69c2b068fc378daa952ba7f163c4a11628f55a4df523b3ef60203093a382519182526020820152a180388080808480f35b835163ec442f0560e01b8152908101859052602490fd5b50600e548610610511565b8351631610c3af60e21b8152908101839052602490fd5b8251631610c3af60e21b8152808601839052602490fd5b825163164ef4b160e01b81528590fd5b5080fd5b505034610607578060031936011261060757806020926106296118a7565b6106316118c2565b6001600160a01b0391821683526001865283832091168252845220549051908152f35b505034610607578160031936011261060757602090600f549051908152f35b50919034610607576020366003190112610607578235907f00000000000000000000000000000000000000000000000000000000000000006001600160a01b031633036106f057600a54908183116106d65750906106d0916119cb565b600a5580f35b516318118ad560e01b815293840152602483015250604490fd5b51631ea0109360e21b81528390fd5b508290346106075760603660031901126106075761071b6118a7565b6044359390602435906001600160a01b03907f00000000000000000000000000000000000000000000000000000000000000008216330361081c571692831561080e578115610489576201518086106107f7575061079c7fe3afae9ec63e6f2e914c17bab8493b603680a72d9e6dfacf25ac6a4806555d41939495426119a8565b6107e983516107aa8161192e565b8381526002602082018481528683019060018252898b526011602052878b209351845551600184015551151591019060ff801983541691151516179055565b82519182526020820152a280f35b8251632f16b52f60e11b8152908101869052602490fd5b8251630eeabd1560e11b8152fd5b50505051631ea0109360e21b8152fd5b505034610607578160031936011261060757517f00000000000000000000000000000000000000000000000000000000000000006001600160a01b03168152602090f35b505034610607578160031936011261060757602090600b549051908152f35b50503461060757816003193601126106075760125490516001600160a01b039091168152602090f35b50503461060757816003193601126106075760209060ff6010541690519015158152f35b505034610607578160031936011261060757602090600e549051908152f35b833461093057602036600319011261093057610915611909565b61091d611c23565b60ff801960105416911515161760105580f35b80fd5b505034610607578160031936011261060757517f00000000000000000000000000000000000000000000000000000000000000006001600160a01b03168152602090f35b505034610607578160031936011261060757602090600c549051908152f35b5050346106075780600319360112610607576020906109c06109b66118a7565b6024359033611b2f565b5160018152f35b50503461060757816003193601126106075760209060ff60105460081c1690519015158152f35b509034610342576020366003190112610342577f8a042c1cf423d7de2c3c2d014ebb0ec2bb4922c21ec17aae380eb45e4730eb209135610a2c611c23565b600d549080600d5582519182526020820152a180f35b50919034610607576020908160031936011261034257610a606118a7565b93610a69611c23565b6001600160a01b0394851680855260118452828520600281015491929160ff1615610b6757600181015462278d008101809111610b545780421115610b3e5750859660055460081c1690549084519263a9059cbb60e01b84528301526024820152838160448188865af18015610b3457610af8575b506002926011918552528220828155826001820155015580f35b8381813d8311610b2d575b610b0d8183611960565b81010312610b29575180151503610b245738610ade565b505050fd5b8480fd5b503d610b03565b83513d87823e3d90fd5b8260249186519163f1a0f7df60e01b8352820152fd5b634e487b7160e01b875260118352602487fd5b50915163cd9a17e760e01b815291820152602490fd5b5091903461060757816003193601126106075780519180938054916001908360011c9260018516948515610c79575b6020958686108114610c6657858952908115610c425750600114610bea575b610be68787610bdc828c0383611960565b519182918261185e565b0390f35b81529295507f8a35acfbc15ff81a39ae7d344fd709f28e8600b4aa8c65c6b64bfe7fe36bd19b5b828410610c2f5750505082610be694610bdc92820101943880610bcb565b8054868501880152928601928101610c11565b60ff19168887015250505050151560051b8301019250610bdc82610be63880610bcb565b634e487b7160e01b845260228352602484fd5b93607f1693610bac565b505034610607578060031936011261060757610c9d6118a7565b90602435908115158203610cdc57610cd992610cb7611c23565b60018060a01b03168452600960205283209060ff801983541691151516179055565b80f35b8380fd5b505034610607578160031936011261060757600554905160089190911c6001600160a01b03168152602090f35b509034610342576020366003190112610342577f1e7d225cb161c2f834852cd521d7ee05358af80025a0e937483c51e42bfc13de9135610d4b611c23565b600c549080600c5582519182526020820152a180f35b50903461034257610d7136611918565b90928315610489576201518082108015610e85575b610e7057338552600760205260ff6002848720015416610e59573385528460205282852054848110610e3d57505090610de07fd741e738a23fd18a03a26522320d9fc6cac1fed483e215ea9150fbc2fc43385d92426119a8565b610e2d8251610dee8161192e565b8581526002602082018481528583019060018252338a526007602052868a209351845551600184015551151591019060ff801983541691151516179055565b815193845260208401523392a280f35b83516318118ad560e01b81529182015260248101849052604490fd5b60249083519063c7f5a23d60e01b82523390820152fd5b9151632f16b52f60e11b815291820152602490fd5b506301e133808211610d86565b833461093057602036600319011261093057610eac611909565b610eb4611c23565b62ff000060105491151560101b169062ff000019161760105580f35b50503461060757816003193601126106075760209051610e108152f35b5050346106075736600319011261093057610cd9610f096118a7565b60243590610f18823383611a5c565b611c52565b50503461060757816003193601126106075760209051620151808152f35b8334610930578060031936011261093057610f54611c23565b60058054610100600160a81b03198116909155819060081c6001600160a01b03167f8be0079c531659141344cd1fd0a4f28419497f9722a3daafe3b4186f6b6457e08280a380f35b5050346106075760203660031901126106075760209181906001600160a01b03610fc46118a7565b16815280845220549051908152f35b505034610607576020366003190112610607579081906001600160a01b03610ff96118a7565b168152601160209081529190208054600182015460029092015493519081529182015260ff90911615156040820152606090f35b505034610607578160031936011261060757602090600a549051908152f35b5050346106075760203660031901126106075760209061107261106d6118a7565b6119d8565b9051908152f35b50919034610607576020366003190112610607578235907f00000000000000000000000000000000000000000000000000000000000000006001600160a01b031633036106f057600b54908183116106d65750906110d6916119cb565b600b5580f35b505034610607576020366003190112610607579081906001600160a01b036111026118a7565b16815260076020522090610be681519161111b8361192e565b83548084526001850154602080860182905260029096015460ff161515948301859052915190815293840152604083019190915281906060820190565b505034610607576020366003190112610607579081906001600160a01b0361117e6118a7565b168152600760209081529190208054600182015460029092015493519081529182015260ff90911615156040820152606090f35b50503461060757816003193601126106075760209060ff6005541690519015158152f35b82843461093057806003193601126109305750600a54600b5482519182526020820152f35b50503461060757816003193601126106075760207f62e78cea01bee320cd4e420270b5ea74000d11b0c9f74754ebdbfc544b05a25891611239611c23565b611241611d8c565b600160ff19600554161760055551338152a180f35b505034610607578160031936011261060757602090516301e133808152f35b83346109305760203660031901126109305761128f611909565b611297611c23565b61ff0060105491151560081b169061ff0019161760105580f35b50503461060757816003193601126106075760209060ff60105460101c1690519015158152f35b50346103425782600319360112610342576112f1611c23565b6005549060ff821615611333575060ff1916600555513381527f5db9ee0a495bf2e6ff9c91a7834c1ba4fdd244a5e8aa4e537bd38aeae4b073aa90602090a180f35b8251638dfc202b60e01b8152fd5b83823461060757602036600319011261060757610cd9903533611c52565b5050346106075760203660031901126106075760209160ff9082906001600160a01b0361138a6118a7565b1681526009855220541690519015158152f35b505034610607578160031936011261060757602090600d549051908152f35b505034610607578160031936011261060757602090517f00000000000000000000000000000000000000000000000000000000000000008152f35b503461034257816003193601126103425767ffffffffffffffff918135838111610b295761142890369084016118d8565b9360243591508111610b295761144190369084016118d8565b60125490936001600160a01b039290918316330361154a577f000000000000000000000000000000000000000000000000000000000000000092831695861561153a57850361152b5793869487915b8083106114e6575050503086528560205282862054848110610e3d575050916020916114de827f522f10c8a64bc02509ed8c28103680a05a0122a5003d70d77cea65e6778a13fc9530611b2f565b51908152a280f35b9091956114f4878385611982565b351561151b5761151260019161150b898587611982565b35906119a8565b96019190611490565b8551635cda02af60e11b81528490fd5b5082516313b16fe960e21b8152fd5b8451633973282f60e21b81528390fd5b5082516308d3369b60e11b8152fd5b5050346106075781600319360112610607576020905160128152f35b50903461034257806003193601126103425761158f6118a7565b906024359161159c611c23565b6001600160a01b03811693841561080e578315610489573086528560205282862054848110610e3d575050916020916114de827fdd2d3059bb2eb6817a58ed0be797603d03885108b3eb1003b4c37b9487e945929530611cf9565b505034610607576060366003190112610607576020906109c06116186118a7565b6116206118c2565b6044359161162f833383611a5c565b611b2f565b5050346106075781600319360112610607576020906002549051908152f35b50346103425760203660031901126103425761166d6118a7565b6001600160a01b0391907f0000000000000000000000000000000000000000000000000000000000000000831633036116fb5782169283156116ee575050601254826bffffffffffffffffffffffff60a01b82161760125516307f9bf8fd3334d7fc12698393a63f1d84a28a16d44d0068a2290429540e713323b78480a480f35b51630eeabd1560e11b8152fd5b508251631ea0109360e21b8152fd5b5050346106075760203660031901126106075760209181906001600160a01b036117326118a7565b1681526008845220549051908152f35b5050346106075780600319360112610607576020906109c06117626118a7565b6024359033611cf9565b9291905034610cdc5783600319360112610cdc57600354600181811c9186908281168015611854575b6020958686108214611841575084885290811561181f57506001146117c6575b610be68686610bdc828b0383611960565b929550600383527fc2575a0e9e593c00f959f8c92f12db2869c3395a3b0502d05e2516446f71f85b5b82841061180c5750505082610be694610bdc9282010194386117b5565b80548685018801529286019281016117ef565b60ff191687860152505050151560051b8301019250610bdc82610be6386117b5565b634e487b7160e01b845260229052602483fd5b93607f1693611795565b6020808252825181830181905290939260005b82811061189357505060409293506000838284010152601f8019910116010190565b818101860151848201604001528501611871565b600435906001600160a01b03821682036118bd57565b600080fd5b602435906001600160a01b03821682036118bd57565b9181601f840112156118bd5782359167ffffffffffffffff83116118bd576020808501948460051b0101116118bd57565b6004359081151582036118bd57565b60409060031901126118bd576004359060243590565b6060810190811067ffffffffffffffff82111761194a57604052565b634e487b7160e01b600052604160045260246000fd5b90601f8019910116810190811067ffffffffffffffff82111761194a57604052565b91908110156119925760051b0190565b634e487b7160e01b600052603260045260246000fd5b919082018092116119b557565b634e487b7160e01b600052601160045260246000fd5b919082039182116119b557565b60009060018060a01b03168152806020526040812054906007602052604081206040805191611a068361192e565b80549283815260ff60026001840154938460208501520154161515928391015281611a52575b50611a3657505090565b909181811115611a4d57611a4a92506119cb565b90565b505090565b9050421038611a2c565b9160018060a01b038093169160009383855260016020526040938486209183169182875260205284862054926000198410611a9b575b50505050505050565b848410611aff57508015611ae7578115611acf57855260016020528385209085526020520391205538808080808080611a92565b8451634a1406b160e11b815260048101879052602490fd5b845163e602df0560e01b815260048101879052602490fd5b8551637dc7a0d960e11b81526001600160a01b039190911660048201526024810184905260448101859052606490fd5b90916001600160a01b0380831692908315611c0a578416938415611bf15782611b589183611daa565b611b60611d8c565b60009083825281602052604082205490838210611bbf575091604082827fddf252ad1be2c89b69c2b068fc378daa952ba7f163c4a11628f55a4df523b3ef958760209652828652038282205586815220818154019055604051908152a3565b60405163391434e360e21b81526001600160a01b03919091166004820152602481019190915260448101839052606490fd5b60405163ec442f0560e01b815260006004820152602490fd5b604051634b637e8f60e11b815260006004820152602490fd5b60055460081c6001600160a01b03163303611c3a57565b60405163118cdaa760e01b8152336004820152602490fd5b906001600160a01b038216908115611c0a57611c6c611d8c565b60009282845283602052604084205490828210611cc75750817fddf252ad1be2c89b69c2b068fc378daa952ba7f163c4a11628f55a4df523b3ef926020928587528684520360408620558060025403600255604051908152a3565b60405163391434e360e21b81526001600160a01b03919091166004820152602481019190915260448101829052606490fd5b6001600160a01b03908116918215611d735716918215611d5a5760207f8c5be1e5ebec7d5bd14f71427d1e84f3dd0314c0f7b2291e5b200ac8c7c3b925918360005260018252604060002085600052825280604060002055604051908152a3565b604051634a1406b160e11b815260006004820152602490fd5b60405163e602df0560e01b815260006004820152602490fd5b60ff60055416611d9857565b60405163d93c066560e01b8152600490fd5b9160018060a01b0390818416906000948286526020936007855260409586882060ff60028201541680611f83575b80611f76575b611f4357508488526009865260ff87892054168015611f31575b611f275760ff60105416611e18575b505050509060089184525242912055565b600c54808511611f0a575016808752868552611e3783878920546119a8565b90600d54809211611eda5750508286526008845284862054610e1090818101809111611ec6574210611e695780611e07565b85876008878783525281812054928301809311611eb2575051630c4e7ac560e01b81526001600160a01b0392909216600483015260248201929092526044810191909152606490fd5b634e487b7160e01b81526011600452602490fd5b634e487b7160e01b88526011600452602488fd5b604491611ef185898b808b839782525220546119a8565b915191630fdfee7f60e21b835260048301526024820152fd5b846044918951916355fdb3df60e11b835260048301526024820152fd5b5050505050505050565b50818116885260ff8789205416611df8565b600101548751630c4e7ac560e01b81526001600160a01b0385166004820152602481018690526044810191909152606490fd5b5060018101544210611dde565b508481541015611dd856fea26469706673582212203ae124fceb3469e32a8bb4742e151478704a47cd36465e6455851a53af29e8b764736f6c63430008180033",
  "linkReferences": {},
  "deployedLinkReferences": {}
}