{
  "_format": "hh-sol-artifact-1",
  "contractName": "PumpFunDEXManager",
  "sourceName": "contracts/PumpFunDEXManager.sol",
  "abi": [
    {
      "inputs": [
        {
          "internalType": "address",
          "name": "_swapRouter",
          "type": "address"
        },
        {
          "internalType": "address",
          "name": "_positionManager",
          "type": "address"
        },
        {
          "internalType": "address",
          "name": "_weth",
          "type": "address"
        }
      ],
      "stateMutability": "nonpayable",
      "type": "constructor"
    },
    {
      "inputs": [],
      "name": "DeadlineExpired",
      "type": "error"
    },
    {
      "inputs": [],
      "name": "InsufficientLiquidity",
      "type": "error"
    },
    {
      "inputs": [],
      "name": "InvalidAmount",
      "type": "error"
    },
    {
      "inputs": [],
      "name": "InvalidTokenAddress",
      "type": "error"
    },
    {
      "inputs": [],
      "name": "LiquidityLocked",
      "type": "error"
    },
    {
      "inputs": [
        {
          "internalType": "address",
          "name": "owner",
          "type": "address"
        }
      ],
      "name": "OwnableInvalidOwner",
      "type": "error"
    },
    {
      "inputs": [
        {
          "internalType": "address",
          "name": "account",
          "type": "address"
        }
      ],
      "name": "OwnableUnauthorizedAccount",
      "type": "error"
    },
    {
      "inputs": [],
      "name": "PairAlreadyExists",
      "type": "error"
    },
    {
      "inputs": [],
      "name": "ReentrancyGuardReentrantCall",
      "type": "error"
    },
    {
      "inputs": [],
      "name": "SlippageExceeded",
      "type": "error"
    },
    {
      "inputs": [],
      "name": "UnauthorizedToken",
      "type": "error"
    },
    {
      "anonymous": false,
      "inputs": [
        {
          "indexed": true,
          "internalType": "address",
          "name": "token0",
          "type": "address"
        },
        {
          "indexed": true,
          "internalType": "address",
          "name": "token1",
          "type": "address"
        },
        {
          "indexed": true,
          "internalType": "uint24",
          "name": "fee",
          "type": "uint24"
        },
        {
          "indexed": false,
          "internalType": "uint256",
          "name": "amount0",
          "type": "uint256"
        },
        {
          "indexed": false,
          "internalType": "uint256",
          "name": "amount1",
          "type": "uint256"
        },
        {
          "indexed": false,
          "internalType": "uint256",
          "name": "liquidity",
          "type": "uint256"
        }
      ],
      "name": "LiquidityAdded",
      "type": "event"
    },
    {
      "anonymous": false,
      "inputs": [
        {
          "indexed": true,
          "internalType": "address",
          "name": "token0",
          "type": "address"
        },
        {
          "indexed": true,
          "internalType": "address",
          "name": "token1",
          "type": "address"
        },
        {
          "indexed": true,
          "internalType": "uint24",
          "name": "fee",
          "type": "uint24"
        },
        {
          "indexed": false,
          "internalType": "uint256",
          "name": "amount0",
          "type": "uint256"
        },
        {
          "indexed": false,
          "internalType": "uint256",
          "name": "amount1",
          "type": "uint256"
        },
        {
          "indexed": false,
          "internalType": "uint256",
          "name": "liquidity",
          "type": "uint256"
        }
      ],
      "name": "LiquidityPoolCreated",
      "type": "event"
    },
    {
      "anonymous": false,
      "inputs": [
        {
          "indexed": true,
          "internalType": "address",
          "name": "token0",
          "type": "address"
        },
        {
          "indexed": true,
          "internalType": "address",
          "name": "token1",
          "type": "address"
        },
        {
          "indexed": true,
          "internalType": "uint24",
          "name": "fee",
          "type": "uint24"
        },
        {
          "indexed": false,
          "internalType": "uint256",
          "name": "amount0",
          "type": "uint256"
        },
        {
          "indexed": false,
          "internalType": "uint256",
          "name": "amount1",
          "type": "uint256"
        }
      ],
      "name": "LiquidityRemoved",
      "type": "event"
    },
    {
      "anonymous": false,
      "inputs": [
        {
          "indexed": true,
          "internalType": "address",
          "name": "previousOwner",
          "type": "address"
        },
        {
          "indexed": true,
          "internalType": "address",
          "name": "newOwner",
          "type": "address"
        }
      ],
      "name": "OwnershipTransferred",
      "type": "event"
    },
    {
      "anonymous": false,
      "inputs": [
        {
          "indexed": true,
          "internalType": "address",
          "name": "token",
          "type": "address"
        },
        {
          "indexed": false,
          "internalType": "uint256",
          "name": "price",
          "type": "uint256"
        },
        {
          "indexed": false,
          "internalType": "uint256",
          "name": "timestamp",
          "type": "uint256"
        }
      ],
      "name": "PriceUpdated",
      "type": "event"
    },
    {
      "anonymous": false,
      "inputs": [
        {
          "indexed": true,
          "internalType": "address",
          "name": "user",
          "type": "address"
        },
        {
          "indexed": true,
          "internalType": "address",
          "name": "tokenIn",
          "type": "address"
        },
        {
          "indexed": true,
          "internalType": "address",
          "name": "tokenOut",
          "type": "address"
        },
        {
          "indexed": false,
          "internalType": "uint256",
          "name": "amountIn",
          "type": "uint256"
        },
        {
          "indexed": false,
          "internalType": "uint256",
          "name": "amountOut",
          "type": "uint256"
        }
      ],
      "name": "TokenSwapped",
      "type": "event"
    },
    {
      "stateMutability": "payable",
      "type": "fallback"
    },
    {
      "inputs": [],
      "name": "MIN_LIQUIDITY_ETH",
      "outputs": [
        {
          "internalType": "uint256",
          "name": "",
          "type": "uint256"
        }
      ],
      "stateMutability": "view",
      "type": "function"
    },
    {
      "inputs": [],
      "name": "PRICE_UPDATE_INTERVAL",
      "outputs": [
        {
          "internalType": "uint256",
          "name": "",
          "type": "uint256"
        }
      ],
      "stateMutability": "view",
      "type": "function"
    },
    {
      "inputs": [],
      "name": "SLIPPAGE_TOLERANCE",
      "outputs": [
        {
          "internalType": "uint256",
          "name": "",
          "type": "uint256"
        }
      ],
      "stateMutability": "view",
      "type": "function"
    },
    {
      "inputs": [],
      "name": "WETH",
      "outputs": [
        {
          "internalType": "address",
          "name": "",
          "type": "address"
        }
      ],
      "stateMutability": "view",
      "type": "function"
    },
    {
      "inputs": [
        {
          "internalType": "address",
          "name": "token0",
          "type": "address"
        },
        {
          "internalType": "address",
          "name": "token1",
          "type": "address"
        },
        {
          "internalType": "uint24",
          "name": "fee",
          "type": "uint24"
        },
        {
          "internalType": "uint256",
          "name": "tokenAmount0",
          "type": "uint256"
        },
        {
          "internalType": "uint256",
          "name": "tokenAmount1",
          "type": "uint256"
        }
      ],
      "name": "addLiquidity",
      "outputs": [],
      "stateMutability": "payable",
      "type": "function"
    },
    {
      "inputs": [
        {
          "internalType": "address",
          "name": "token",
          "type": "address"
        }
      ],
      "name": "authorizeToken",
      "outputs": [],
      "stateMutability": "nonpayable",
      "type": "function"
    },
    {
      "inputs": [
        {
          "internalType": "address",
          "name": "",
          "type": "address"
        }
      ],
      "name": "authorizedTokens",
      "outputs": [
        {
          "internalType": "bool",
          "name": "",
          "type": "bool"
        }
      ],
      "stateMutability": "view",
      "type": "function"
    },
    {
      "inputs": [
        {
          "internalType": "address",
          "name": "token0",
          "type": "address"
        },
        {
          "internalType": "address",
          "name": "token1",
          "type": "address"
        },
        {
          "internalType": "uint24",
          "name": "fee",
          "type": "uint24"
        },
        {
          "internalType": "uint256",
          "name": "amount0Desired",
          "type": "uint256"
        },
        {
          "internalType": "uint256",
          "name": "amount1Desired",
          "type": "uint256"
        }
      ],
      "name": "createLiquidityPool",
      "outputs": [],
      "stateMutability": "payable",
      "type": "function"
    },
    {
      "inputs": [
        {
          "internalType": "address",
          "name": "token",
          "type": "address"
        }
      ],
      "name": "getTokenPrice",
      "outputs": [
        {
          "internalType": "uint256",
          "name": "price",
          "type": "uint256"
        },
        {
          "internalType": "uint256",
          "name": "lastUpdated",
          "type": "uint256"
        }
      ],
      "stateMutability": "view",
      "type": "function"
    },
    {
      "inputs": [
        {
          "internalType": "address",
          "name": "token",
          "type": "address"
        }
      ],
      "name": "getTokenStats",
      "outputs": [
        {
          "internalType": "uint256",
          "name": "price",
          "type": "uint256"
        },
        {
          "internalType": "uint256",
          "name": "marketCap",
          "type": "uint256"
        },
        {
          "internalType": "uint256",
          "name": "volume24h",
          "type": "uint256"
        },
        {
          "internalType": "uint256",
          "name": "liquidity",
          "type": "uint256"
        },
        {
          "internalType": "bool",
          "name": "isActive",
          "type": "bool"
        }
      ],
      "stateMutability": "view",
      "type": "function"
    },
    {
      "inputs": [],
      "name": "owner",
      "outputs": [
        {
          "internalType": "address",
          "name": "",
          "type": "address"
        }
      ],
      "stateMutability": "view",
      "type": "function"
    },
    {
      "inputs": [],
      "name": "positionManager",
      "outputs": [
        {
          "internalType": "contract INonfungiblePositionManager",
          "name": "",
          "type": "address"
        }
      ],
      "stateMutability": "view",
      "type": "function"
    },
    {
      "inputs": [],
      "name": "renounceOwnership",
      "outputs": [],
      "stateMutability": "nonpayable",
      "type": "function"
    },
    {
      "inputs": [
        {
          "internalType": "address",
          "name": "tokenOut",
          "type": "address"
        },
        {
          "internalType": "uint24",
          "name": "fee",
          "type": "uint24"
        },
        {
          "internalType": "uint256",
          "name": "amountOutMinimum",
          "type": "uint256"
        }
      ],
      "name": "swapExactETHForTokens",
      "outputs": [],
      "stateMutability": "payable",
      "type": "function"
    },
    {
      "inputs": [
        {
          "internalType": "address",
          "name": "tokenIn",
          "type": "address"
        },
        {
          "internalType": "uint24",
          "name": "fee",
          "type": "uint24"
        },
        {
          "internalType": "uint256",
          "name": "amountIn",
          "type": "uint256"
        },
        {
          "internalType": "uint256",
          "name": "amountOutMinimum",
          "type": "uint256"
        }
      ],
      "name": "swapExactTokensForETH",
      "outputs": [],
      "stateMutability": "nonpayable",
      "type": "function"
    },
    {
      "inputs": [],
      "name": "swapRouter",
      "outputs": [
        {
          "internalType": "contract ISwapRouter",
          "name": "",
          "type": "address"
        }
      ],
      "stateMutability": "view",
      "type": "function"
    },
    {
      "inputs": [
        {
          "internalType": "address",
          "name": "",
          "type": "address"
        }
      ],
      "name": "tokenPools",
      "outputs": [
        {
          "internalType": "uint256",
          "name": "tokenId",
          "type": "uint256"
        },
        {
          "internalType": "uint256",
          "name": "liquidity",
          "type": "uint256"
        },
        {
          "internalType": "uint256",
          "name": "lockExpiry",
          "type": "uint256"
        },
        {
          "internalType": "bool",
          "name": "isActive",
          "type": "bool"
        },
        {
          "internalType": "uint256",
          "name": "createdAt",
          "type": "uint256"
        }
      ],
      "stateMutability": "view",
      "type": "function"
    },
    {
      "inputs": [
        {
          "internalType": "address",
          "name": "",
          "type": "address"
        }
      ],
      "name": "tokenPrices",
      "outputs": [
        {
          "internalType": "uint256",
          "name": "price",
          "type": "uint256"
        },
        {
          "internalType": "uint256",
          "name": "lastUpdated",
          "type": "uint256"
        },
        {
          "internalType": "uint256",
          "name": "volume24h",
          "type": "uint256"
        },
        {
          "internalType": "uint256",
          "name": "marketCap",
          "type": "uint256"
        }
      ],
      "stateMutability": "view",
      "type": "function"
    },
    {
      "inputs": [
        {
          "internalType": "address",
          "name": "newOwner",
          "type": "address"
        }
      ],
      "name": "transferOwnership",
      "outputs": [],
      "stateMutability": "nonpayable",
      "type": "function"
    },
    {
      "inputs": [],
      "name": "withdrawETH",
      "outputs": [],
      "stateMutability": "nonpayable",
      "type": "function"
    },
    {
      "inputs": [
        {
          "internalType": "address",
          "name": "token",
          "type": "address"
        },
        {
          "internalType": "uint256",
          "name": "amount",
          "type": "uint256"
        }
      ],
      "name": "withdrawToken",
      "outputs": [],
      "stateMutability": "nonpayable",
      "type": "function"
    },
    {
      "stateMutability": "payable",
      "type": "receive"
    }
  ],
  "bytecode": "0x60e06040523480156200001157600080fd5b5060405162001e7038038062001e70833981016040819052620000349162000146565b33806200005b57604051631e4fbdf760e01b81526000600482015260240160405180910390fd5b6200006681620000d9565b50600180556001600160a01b03831615806200008957506001600160a01b038216155b806200009c57506001600160a01b038116155b15620000bb57604051630f58058360e11b815260040160405180910390fd5b6001600160a01b0392831660805290821660a0521660c05262000190565b600080546001600160a01b038381166001600160a01b0319831681178455604051919092169283917f8be0079c531659141344cd1fd0a4f28419497f9722a3daafe3b4186f6b6457e09190a35050565b80516001600160a01b03811681146200014157600080fd5b919050565b6000806000606084860312156200015c57600080fd5b620001678462000129565b9250620001776020850162000129565b9150620001876040850162000129565b90509250925092565b60805160a05160c051611c556200021b6000396000818161033e01528181610a5901528181610bc701528181610dc40152610f1e01526000818161024101528181610727015281816107bb015281816108e70152818161117101528181611205015261131601526000818161037201528181610ae201528181610d280152610e3e0152611c556000f3fe6080604052600436106101225760003560e01c806398e9cb12116100a5578063c3d2c3c11161006c578063c3d2c3c114610394578063ca88d5c51461040e578063d02641a0146104f1578063e086e5ec14610570578063ee937e8214610585578063f2fde38b1461059b57005b806398e9cb12146102ac5780639bc7c586146102cc5780639e281a981461030c578063ad5c46481461032c578063c31c9c071461036057005b8063715018a6116100e9578063715018a6146101fa57806371750d961461020f578063791b98bc1461022f5780638da5cb5b1461027b578063917f3e5f1461029957005b80630ad233821461012b578063204120bc1461013e5780634c203786146101a75780635d230110146101cb5780635e6c572b146101e757005b3661012957005b005b6101296101393660046118a6565b6105bb565b34801561014a57600080fd5b506101826101593660046118fb565b600360208190526000918252604090912080546001820154600283015492909301549092919084565b6040805194855260208501939093529183015260608201526080015b60405180910390f35b3480156101b357600080fd5b506101bd6101f481565b60405190815260200161019e565b3480156101d757600080fd5b506101bd67016345785d8a000081565b6101296101f536600461191d565b6109e7565b34801561020657600080fd5b50610129610c27565b34801561021b57600080fd5b5061012961022a366004611959565b610c3b565b34801561023b57600080fd5b506102637f000000000000000000000000000000000000000000000000000000000000000081565b6040516001600160a01b03909116815260200161019e565b34801561028757600080fd5b506000546001600160a01b0316610263565b6101296102a73660046118a6565b610f82565b3480156102b857600080fd5b506101296102c73660046118fb565b6114b0565b3480156102d857600080fd5b506102fc6102e73660046118fb565b60046020526000908152604090205460ff1681565b604051901515815260200161019e565b34801561031857600080fd5b5061012961032736600461199b565b611503565b34801561033857600080fd5b506102637f000000000000000000000000000000000000000000000000000000000000000081565b34801561036c57600080fd5b506102637f000000000000000000000000000000000000000000000000000000000000000081565b3480156103a057600080fd5b506103e46103af3660046118fb565b600260208190526000918252604090912080546001820154928201546003830154600490930154919392909160ff9091169085565b6040805195865260208601949094529284019190915215156060830152608082015260a00161019e565b34801561041a57600080fd5b506104c76104293660046118fb565b6001600160a01b0316600081815260036020818152604080842081516080808201845282548252600180840154838701526002808501548487019081529488015460608086019182529a8a5281885298869020865160a081018852815481529281015497830188905290810154958201959095529584015460ff16151597860188905260049093015494909201939093525192519151929491939091565b6040805195865260208601949094529284019190915260608301521515608082015260a00161019e565b3480156104fd57600080fd5b5061055b61050c3660046118fb565b6001600160a01b03166000908152600360208181526040928390208351608081018552815480825260018301549382018490526002830154958201959095529201546060909201919091529091565b6040805192835260208301919091520161019e565b34801561057c57600080fd5b5061012961159d565b34801561059157600080fd5b506101bd61012c81565b3480156105a757600080fd5b506101296105b63660046118fb565b61164c565b6105c3611687565b6001600160a01b03851660009081526002602052604090206003015460ff166105ff5760405163c9bb25eb60e01b815260040160405180910390fd5b81158061060a575080155b156106285760405163162908e360e11b815260040160405180910390fd5b6040516323b872dd60e01b81526001600160a01b038616906323b872dd90610658903390309087906004016119c5565b6020604051808303816000875af1158015610677573d6000803e3d6000fd5b505050506040513d601f19601f8201168201806040525081019061069b91906119e9565b506040516323b872dd60e01b81526001600160a01b038516906323b872dd906106cc903390309086906004016119c5565b6020604051808303816000875af11580156106eb573d6000803e3d6000fd5b505050506040513d601f19601f8201168201806040525081019061070f91906119e9565b5060405163095ea7b360e01b81526001600160a01b037f0000000000000000000000000000000000000000000000000000000000000000811660048301526024820184905286169063095ea7b3906044016020604051808303816000875af115801561077f573d6000803e3d6000fd5b505050506040513d601f19601f820116820180604052508101906107a391906119e9565b5060405163095ea7b360e01b81526001600160a01b037f0000000000000000000000000000000000000000000000000000000000000000811660048301526024820183905285169063095ea7b3906044016020604051808303816000875af1158015610813573d6000803e3d6000fd5b505050506040513d601f19601f8201168201806040525081019061083791906119e9565b506001600160a01b0385166000908152600260209081526040808320815160c081018352815481529283018690529082018490526060820183905260808201839052919060a0810161088b4261012c611a21565b90526040805163219f5d1760e01b81528251600482015260208301516024820152908201516044820152606082015160648201526080820151608482015260a082015160a4820152909150600090819081906001600160a01b037f0000000000000000000000000000000000000000000000000000000000000000169063219f5d179060c4016060604051808303816000875af1158015610930573d6000803e3d6000fd5b505050506040513d601f19601f820116820180604052508101906109549190611a51565b9250925092506109638a6116b1565b8762ffffff16896001600160a01b03168b6001600160a01b03167f66f68636a37c16d9b851b4467d85bfdc07b98135fc5f50b62510198bd45894688585886040516109ca9392919092835260208301919091526001600160801b0316604082015260600190565b60405180910390a450505050506109e060018055565b5050505050565b6109ef611687565b6001600160a01b03831660009081526004602052604090205460ff16610a2857604051637e5f934960e01b815260040160405180910390fd5b34600003610a495760405163162908e360e11b815260040160405180910390fd5b60006040518061010001604052807f00000000000000000000000000000000000000000000000000000000000000006001600160a01b03168152602001856001600160a01b031681526020018462ffffff168152602001336001600160a01b031681526020014261012c610abd9190611a21565b815260200134815260200183815260200160006001600160a01b0316815250905060007f00000000000000000000000000000000000000000000000000000000000000006001600160a01b031663414bf38934846040518363ffffffff1660e01b8152600401610b2d9190611a86565b60206040518083038185885af1158015610b4b573d6000803e3d6000fd5b50505050506040513d601f19601f82011682018060405250810190610b709190611aef565b9050610b7b856116b1565b6001600160a01b03851660009081526003602052604081206002018054349290610ba6908490611a21565b909155505060408051348152602081018390526001600160a01b03808816927f00000000000000000000000000000000000000000000000000000000000000009091169133917fd36cc53ba71bc76a3db3364981f5296dd4ca5eba0e8c89874f2170515bd20d24910160405180910390a45050610c2260018055565b505050565b610c2f6117fa565b610c396000611827565b565b610c43611687565b6001600160a01b03841660009081526004602052604090205460ff16610c7c57604051637e5f934960e01b815260040160405180910390fd5b81600003610c9d5760405163162908e360e11b815260040160405180910390fd5b6040516323b872dd60e01b81526001600160a01b038516906323b872dd90610ccd903390309087906004016119c5565b6020604051808303816000875af1158015610cec573d6000803e3d6000fd5b505050506040513d601f19601f82011682018060405250810190610d1091906119e9565b5060405163095ea7b360e01b81526001600160a01b037f0000000000000000000000000000000000000000000000000000000000000000811660048301526024820184905285169063095ea7b3906044016020604051808303816000875af1158015610d80573d6000803e3d6000fd5b505050506040513d601f19601f82011682018060405250810190610da491906119e9565b506000604051806101000160405280866001600160a01b031681526020017f00000000000000000000000000000000000000000000000000000000000000006001600160a01b031681526020018562ffffff168152602001336001600160a01b031681526020014261012c610e199190611a21565b815260200184815260200183815260200160006001600160a01b0316815250905060007f00000000000000000000000000000000000000000000000000000000000000006001600160a01b031663414bf389836040518263ffffffff1660e01b8152600401610e889190611a86565b6020604051808303816000875af1158015610ea7573d6000803e3d6000fd5b505050506040513d601f19601f82011682018060405250810190610ecb9190611aef565b9050610ed6866116b1565b6001600160a01b03861660009081526003602052604081206002018054839290610f01908490611a21565b909155505060408051858152602081018390526001600160a01b037f00000000000000000000000000000000000000000000000000000000000000008116929089169133917fd36cc53ba71bc76a3db3364981f5296dd4ca5eba0e8c89874f2170515bd20d24910160405180910390a45050610f7c60018055565b50505050565b610f8a611687565b6127108362ffffff1610610fd35760405162461bcd60e51b815260206004820152600b60248201526a496e76616c69642066656560a81b60448201526064015b60405180910390fd5b6001600160a01b03851660009081526004602052604090205460ff1661100c57604051637e5f934960e01b815260040160405180910390fd5b811580611017575080155b156110355760405163162908e360e11b815260040160405180910390fd5b6001600160a01b03851660009081526002602052604090206003015460ff16156110725760405163c9bb25eb60e01b815260040160405180910390fd5b6040516323b872dd60e01b81526001600160a01b038616906323b872dd906110a2903390309087906004016119c5565b6020604051808303816000875af11580156110c1573d6000803e3d6000fd5b505050506040513d601f19601f820116820180604052508101906110e591906119e9565b506040516323b872dd60e01b81526001600160a01b038516906323b872dd90611116903390309086906004016119c5565b6020604051808303816000875af1158015611135573d6000803e3d6000fd5b505050506040513d601f19601f8201168201806040525081019061115991906119e9565b5060405163095ea7b360e01b81526001600160a01b037f0000000000000000000000000000000000000000000000000000000000000000811660048301526024820184905286169063095ea7b3906044016020604051808303816000875af11580156111c9573d6000803e3d6000fd5b505050506040513d601f19601f820116820180604052508101906111ed91906119e9565b5060405163095ea7b360e01b81526001600160a01b037f0000000000000000000000000000000000000000000000000000000000000000811660048301526024820183905285169063095ea7b3906044016020604051808303816000875af115801561125d573d6000803e3d6000fd5b505050506040513d601f19601f8201168201806040525081019061128191906119e9565b506000604051806101600160405280876001600160a01b03168152602001866001600160a01b031681526020018562ffffff168152602001620d89e71960020b8152602001620d89e860020b81526020018481526020018381526020016000815260200160008152602001306001600160a01b031681526020014261012c6113099190611a21565b81525090506000806000807f00000000000000000000000000000000000000000000000000000000000000006001600160a01b03166388316456866040518263ffffffff1660e01b81526004016113609190611b08565b6080604051808303816000875af115801561137f573d6000803e3d6000fd5b505050506040513d601f19601f820116820180604052508101906113a39190611bcc565b93509350935093506040518060a00160405280858152602001846001600160801b031681526020014262278d006113da9190611a21565b815260016020808301829052426040938401526001600160a01b038e1660009081526002808352908490208551815591850151928201929092559183015190820155606082015160038201805460ff19169115159190911790556080909101516004909101556114498a6116b1565b8762ffffff16896001600160a01b03168b6001600160a01b03167fa12f7d42aa572c92b5e0ba50a30cacd389bb68257862ca2b55065b7030a860648585886040516109ca9392919092835260208301919091526001600160801b0316604082015260600190565b6114b86117fa565b6001600160a01b0381166114df57604051630f58058360e11b815260040160405180910390fd5b6001600160a01b03166000908152600460205260409020805460ff19166001179055565b61150b6117fa565b816001600160a01b031663a9059cbb61152c6000546001600160a01b031690565b6040516001600160e01b031960e084901b1681526001600160a01b039091166004820152602481018490526044016020604051808303816000875af1158015611579573d6000803e3d6000fd5b505050506040513d601f19601f82011682018060405250810190610c2291906119e9565b6115a56117fa565b47801561164957600080546040516001600160a01b039091169083908381818185875af1925050503d80600081146115f9576040519150601f19603f3d011682016040523d82523d6000602084013e6115fe565b606091505b50509050806116475760405162461bcd60e51b8152602060048201526015602482015274115512081dda5d1a191c985dd85b0819985a5b1959605a1b6044820152606401610fca565b505b50565b6116546117fa565b6001600160a01b03811661167e57604051631e4fbdf760e01b815260006004820152602401610fca565b61164981611827565b6002600154036116aa57604051633ee5aeb560e01b815260040160405180910390fd5b6002600155565b6001600160a01b03811660009081526002602052604090206003015460ff166116d75750565b6000683635c9adc5dea0000090506000826001600160a01b03166318160ddd6040518163ffffffff1660e01b8152600401602060405180830381865afa158015611725573d6000803e3d6000fd5b505050506040513d601f19601f820116820180604052508101906117499190611aef565b6117539083611c08565b604080516080810182528481524260208083018281526001600160a01b03891660008181526003808552878220600281018054898b0190815260608a018c815294869052968390529751815593516001850155935190955593519101559151929350917fb556fac599c3c70efb9ab1fa725ecace6c81cc48d1455f886607def065f3e0c0916117ed91869190918252602082015260400190565b60405180910390a2505050565b6000546001600160a01b03163314610c395760405163118cdaa760e01b8152336004820152602401610fca565b600080546001600160a01b038381166001600160a01b0319831681178455604051919092169283917f8be0079c531659141344cd1fd0a4f28419497f9722a3daafe3b4186f6b6457e09190a35050565b80356001600160a01b038116811461188e57600080fd5b919050565b803562ffffff8116811461188e57600080fd5b600080600080600060a086880312156118be57600080fd5b6118c786611877565b94506118d560208701611877565b93506118e360408701611893565b94979396509394606081013594506080013592915050565b60006020828403121561190d57600080fd5b61191682611877565b9392505050565b60008060006060848603121561193257600080fd5b61193b84611877565b925061194960208501611893565b9150604084013590509250925092565b6000806000806080858703121561196f57600080fd5b61197885611877565b935061198660208601611893565b93969395505050506040820135916060013590565b600080604083850312156119ae57600080fd5b6119b783611877565b946020939093013593505050565b6001600160a01b039384168152919092166020820152604081019190915260600190565b6000602082840312156119fb57600080fd5b8151801515811461191657600080fd5b634e487b7160e01b600052601160045260246000fd5b80820180821115611a3457611a34611a0b565b92915050565b80516001600160801b038116811461188e57600080fd5b600080600060608486031215611a6657600080fd5b611a6f84611a3a565b925060208401519150604084015190509250925092565b81516001600160a01b03908116825260208084015182169083015260408084015162ffffff16908301526060808401518216908301526080808401519083015260a0838101519083015260c0808401519083015260e09283015116918101919091526101000190565b600060208284031215611b0157600080fd5b5051919050565b81516001600160a01b0316815261016081016020830151611b3460208401826001600160a01b03169052565b506040830151611b4b604084018262ffffff169052565b506060830151611b60606084018260020b9052565b506080830151611b75608084018260020b9052565b5060a083015160a083015260c083015160c083015260e083015160e083015261010080840151818401525061012080840151611bbb828501826001600160a01b03169052565b505061014092830151919092015290565b60008060008060808587031215611be257600080fd5b84519350611bf260208601611a3a565b6040860151606090960151949790965092505050565b8082028115828204841417611a3457611a34611a0b56fea2646970667358221220754e753fb9e24b3c46601de88679ee78791c52fbc5347ebe2d6b4e6a2a61ff5164736f6c63430008180033",
  "linkReferences": {},
  "deployedLinkReferences": {}
}