{
  "_format": "hh-sol-artifact-1",
  "contractName": "PumpFunDEXManager",
  "sourceName": "contracts/PumpFunDEXManager.sol",
  "abi": [
    {
      "inputs": [
        {
          "internalType": "address",
          "name": "_swapRouter",
          "type": "address"
        },
        {
          "internalType": "address",
          "name": "_positionManager",
          "type": "address"
        },
        {
          "internalType": "address",
          "name": "_uniswapV3Factory",
          "type": "address"
        },
        {
          "internalType": "address",
          "name": "_weth",
          "type": "address"
        }
      ],
      "stateMutability": "nonpayable",
      "type": "constructor"
    },
    {
      "inputs": [],
      "name": "DeadlineExpired",
      "type": "error"
    },
    {
      "inputs": [],
      "name": "InsufficientLiquidity",
      "type": "error"
    },
    {
      "inputs": [],
      "name": "InvalidAmount",
      "type": "error"
    },
    {
      "inputs": [],
      "name": "InvalidTokenAddress",
      "type": "error"
    },
    {
      "inputs": [],
      "name": "LiquidityLocked",
      "type": "error"
    },
    {
      "inputs": [
        {
          "internalType": "address",
          "name": "owner",
          "type": "address"
        }
      ],
      "name": "OwnableInvalidOwner",
      "type": "error"
    },
    {
      "inputs": [
        {
          "internalType": "address",
          "name": "account",
          "type": "address"
        }
      ],
      "name": "OwnableUnauthorizedAccount",
      "type": "error"
    },
    {
      "inputs": [],
      "name": "PairAlreadyExists",
      "type": "error"
    },
    {
      "inputs": [],
      "name": "ReentrancyGuardReentrantCall",
      "type": "error"
    },
    {
      "inputs": [],
      "name": "SlippageExceeded",
      "type": "error"
    },
    {
      "inputs": [],
      "name": "UnauthorizedToken",
      "type": "error"
    },
    {
      "anonymous": false,
      "inputs": [
        {
          "indexed": true,
          "internalType": "address",
          "name": "token0",
          "type": "address"
        },
        {
          "indexed": true,
          "internalType": "address",
          "name": "token1",
          "type": "address"
        },
        {
          "indexed": true,
          "internalType": "uint24",
          "name": "fee",
          "type": "uint24"
        },
        {
          "indexed": false,
          "internalType": "uint256",
          "name": "amount0",
          "type": "uint256"
        },
        {
          "indexed": false,
          "internalType": "uint256",
          "name": "amount1",
          "type": "uint256"
        },
        {
          "indexed": false,
          "internalType": "uint256",
          "name": "liquidity",
          "type": "uint256"
        }
      ],
      "name": "LiquidityAdded",
      "type": "event"
    },
    {
      "anonymous": false,
      "inputs": [
        {
          "indexed": true,
          "internalType": "address",
          "name": "token0",
          "type": "address"
        },
        {
          "indexed": true,
          "internalType": "address",
          "name": "token1",
          "type": "address"
        },
        {
          "indexed": true,
          "internalType": "uint24",
          "name": "fee",
          "type": "uint24"
        },
        {
          "indexed": false,
          "internalType": "uint256",
          "name": "amount0",
          "type": "uint256"
        },
        {
          "indexed": false,
          "internalType": "uint256",
          "name": "amount1",
          "type": "uint256"
        },
        {
          "indexed": false,
          "internalType": "uint256",
          "name": "liquidity",
          "type": "uint256"
        }
      ],
      "name": "LiquidityPoolCreated",
      "type": "event"
    },
    {
      "anonymous": false,
      "inputs": [
        {
          "indexed": true,
          "internalType": "address",
          "name": "token0",
          "type": "address"
        },
        {
          "indexed": true,
          "internalType": "address",
          "name": "token1",
          "type": "address"
        },
        {
          "indexed": true,
          "internalType": "uint24",
          "name": "fee",
          "type": "uint24"
        },
        {
          "indexed": false,
          "internalType": "uint256",
          "name": "amount0",
          "type": "uint256"
        },
        {
          "indexed": false,
          "internalType": "uint256",
          "name": "amount1",
          "type": "uint256"
        }
      ],
      "name": "LiquidityRemoved",
      "type": "event"
    },
    {
      "anonymous": false,
      "inputs": [
        {
          "indexed": true,
          "internalType": "address",
          "name": "previousOwner",
          "type": "address"
        },
        {
          "indexed": true,
          "internalType": "address",
          "name": "newOwner",
          "type": "address"
        }
      ],
      "name": "OwnershipTransferred",
      "type": "event"
    },
    {
      "anonymous": false,
      "inputs": [
        {
          "indexed": true,
          "internalType": "address",
          "name": "token",
          "type": "address"
        },
        {
          "indexed": false,
          "internalType": "uint256",
          "name": "price",
          "type": "uint256"
        },
        {
          "indexed": false,
          "internalType": "uint256",
          "name": "timestamp",
          "type": "uint256"
        }
      ],
      "name": "PriceUpdated",
      "type": "event"
    },
    {
      "anonymous": false,
      "inputs": [
        {
          "indexed": true,
          "internalType": "address",
          "name": "user",
          "type": "address"
        },
        {
          "indexed": true,
          "internalType": "address",
          "name": "tokenIn",
          "type": "address"
        },
        {
          "indexed": true,
          "internalType": "address",
          "name": "tokenOut",
          "type": "address"
        },
        {
          "indexed": false,
          "internalType": "uint256",
          "name": "amountIn",
          "type": "uint256"
        },
        {
          "indexed": false,
          "internalType": "uint256",
          "name": "amountOut",
          "type": "uint256"
        }
      ],
      "name": "TokenSwapped",
      "type": "event"
    },
    {
      "stateMutability": "payable",
      "type": "fallback"
    },
    {
      "inputs": [],
      "name": "MIN_LIQUIDITY_ETH",
      "outputs": [
        {
          "internalType": "uint256",
          "name": "",
          "type": "uint256"
        }
      ],
      "stateMutability": "view",
      "type": "function"
    },
    {
      "inputs": [],
      "name": "PRICE_UPDATE_INTERVAL",
      "outputs": [
        {
          "internalType": "uint256",
          "name": "",
          "type": "uint256"
        }
      ],
      "stateMutability": "view",
      "type": "function"
    },
    {
      "inputs": [],
      "name": "SLIPPAGE_TOLERANCE",
      "outputs": [
        {
          "internalType": "uint256",
          "name": "",
          "type": "uint256"
        }
      ],
      "stateMutability": "view",
      "type": "function"
    },
    {
      "inputs": [],
      "name": "WETH",
      "outputs": [
        {
          "internalType": "address",
          "name": "",
          "type": "address"
        }
      ],
      "stateMutability": "view",
      "type": "function"
    },
    {
      "inputs": [
        {
          "internalType": "address",
          "name": "token0",
          "type": "address"
        },
        {
          "internalType": "address",
          "name": "token1",
          "type": "address"
        },
        {
          "internalType": "uint24",
          "name": "fee",
          "type": "uint24"
        },
        {
          "internalType": "uint256",
          "name": "tokenAmount0",
          "type": "uint256"
        },
        {
          "internalType": "uint256",
          "name": "tokenAmount1",
          "type": "uint256"
        }
      ],
      "name": "addLiquidity",
      "outputs": [],
      "stateMutability": "payable",
      "type": "function"
    },
    {
      "inputs": [
        {
          "internalType": "address",
          "name": "token",
          "type": "address"
        }
      ],
      "name": "authorizeToken",
      "outputs": [],
      "stateMutability": "nonpayable",
      "type": "function"
    },
    {
      "inputs": [
        {
          "internalType": "address",
          "name": "",
          "type": "address"
        }
      ],
      "name": "authorizedTokens",
      "outputs": [
        {
          "internalType": "bool",
          "name": "",
          "type": "bool"
        }
      ],
      "stateMutability": "view",
      "type": "function"
    },
    {
      "inputs": [
        {
          "internalType": "address",
          "name": "token0",
          "type": "address"
        },
        {
          "internalType": "address",
          "name": "token1",
          "type": "address"
        },
        {
          "internalType": "uint24",
          "name": "fee",
          "type": "uint24"
        },
        {
          "internalType": "uint256",
          "name": "amount0Desired",
          "type": "uint256"
        },
        {
          "internalType": "uint256",
          "name": "amount1Desired",
          "type": "uint256"
        }
      ],
      "name": "createLiquidityPool",
      "outputs": [],
      "stateMutability": "payable",
      "type": "function"
    },
    {
      "inputs": [
        {
          "internalType": "address",
          "name": "token0",
          "type": "address"
        },
        {
          "internalType": "address",
          "name": "token1",
          "type": "address"
        },
        {
          "internalType": "uint24",
          "name": "fee",
          "type": "uint24"
        }
      ],
      "name": "getPoolAddress",
      "outputs": [
        {
          "internalType": "address",
          "name": "",
          "type": "address"
        }
      ],
      "stateMutability": "view",
      "type": "function"
    },
    {
      "inputs": [
        {
          "internalType": "address",
          "name": "token",
          "type": "address"
        }
      ],
      "name": "getTokenPrice",
      "outputs": [
        {
          "internalType": "uint256",
          "name": "price",
          "type": "uint256"
        },
        {
          "internalType": "uint256",
          "name": "lastUpdated",
          "type": "uint256"
        }
      ],
      "stateMutability": "view",
      "type": "function"
    },
    {
      "inputs": [
        {
          "internalType": "address",
          "name": "token",
          "type": "address"
        }
      ],
      "name": "getTokenStats",
      "outputs": [
        {
          "internalType": "uint256",
          "name": "price",
          "type": "uint256"
        },
        {
          "internalType": "uint256",
          "name": "marketCap",
          "type": "uint256"
        },
        {
          "internalType": "uint256",
          "name": "volume24h",
          "type": "uint256"
        },
        {
          "internalType": "uint256",
          "name": "liquidity",
          "type": "uint256"
        },
        {
          "internalType": "bool",
          "name": "isActive",
          "type": "bool"
        }
      ],
      "stateMutability": "view",
      "type": "function"
    },
    {
      "inputs": [],
      "name": "owner",
      "outputs": [
        {
          "internalType": "address",
          "name": "",
          "type": "address"
        }
      ],
      "stateMutability": "view",
      "type": "function"
    },
    {
      "inputs": [],
      "name": "positionManager",
      "outputs": [
        {
          "internalType": "contract INonfungiblePositionManager",
          "name": "",
          "type": "address"
        }
      ],
      "stateMutability": "view",
      "type": "function"
    },
    {
      "inputs": [],
      "name": "renounceOwnership",
      "outputs": [],
      "stateMutability": "nonpayable",
      "type": "function"
    },
    {
      "inputs": [
        {
          "internalType": "address",
          "name": "tokenOut",
          "type": "address"
        },
        {
          "internalType": "uint24",
          "name": "fee",
          "type": "uint24"
        },
        {
          "internalType": "uint256",
          "name": "amountOutMinimum",
          "type": "uint256"
        }
      ],
      "name": "swapExactETHForTokens",
      "outputs": [],
      "stateMutability": "payable",
      "type": "function"
    },
    {
      "inputs": [
        {
          "internalType": "address",
          "name": "tokenIn",
          "type": "address"
        },
        {
          "internalType": "uint24",
          "name": "fee",
          "type": "uint24"
        },
        {
          "internalType": "uint256",
          "name": "amountIn",
          "type": "uint256"
        },
        {
          "internalType": "uint256",
          "name": "amountOutMinimum",
          "type": "uint256"
        }
      ],
      "name": "swapExactTokensForETH",
      "outputs": [],
      "stateMutability": "nonpayable",
      "type": "function"
    },
    {
      "inputs": [],
      "name": "swapRouter",
      "outputs": [
        {
          "internalType": "contract ISwapRouter",
          "name": "",
          "type": "address"
        }
      ],
      "stateMutability": "view",
      "type": "function"
    },
    {
      "inputs": [
        {
          "internalType": "address",
          "name": "",
          "type": "address"
        }
      ],
      "name": "tokenPools",
      "outputs": [
        {
          "internalType": "uint256",
          "name": "tokenId",
          "type": "uint256"
        },
        {
          "internalType": "uint256",
          "name": "liquidity",
          "type": "uint256"
        },
        {
          "internalType": "uint256",
          "name": "lockExpiry",
          "type": "uint256"
        },
        {
          "internalType": "bool",
          "name": "isActive",
          "type": "bool"
        },
        {
          "internalType": "uint256",
          "name": "createdAt",
          "type": "uint256"
        }
      ],
      "stateMutability": "view",
      "type": "function"
    },
    {
      "inputs": [
        {
          "internalType": "address",
          "name": "",
          "type": "address"
        }
      ],
      "name": "tokenPrices",
      "outputs": [
        {
          "internalType": "uint256",
          "name": "price",
          "type": "uint256"
        },
        {
          "internalType": "uint256",
          "name": "lastUpdated",
          "type": "uint256"
        },
        {
          "internalType": "uint256",
          "name": "volume24h",
          "type": "uint256"
        },
        {
          "internalType": "uint256",
          "name": "marketCap",
          "type": "uint256"
        }
      ],
      "stateMutability": "view",
      "type": "function"
    },
    {
      "inputs": [
        {
          "internalType": "address",
          "name": "newOwner",
          "type": "address"
        }
      ],
      "name": "transferOwnership",
      "outputs": [],
      "stateMutability": "nonpayable",
      "type": "function"
    },
    {
      "inputs": [],
      "name": "uniswapV3Factory",
      "outputs": [
        {
          "internalType": "contract IUniswapV3Factory",
          "name": "",
          "type": "address"
        }
      ],
      "stateMutability": "view",
      "type": "function"
    },
    {
      "inputs": [],
      "name": "withdrawETH",
      "outputs": [],
      "stateMutability": "nonpayable",
      "type": "function"
    },
    {
      "inputs": [
        {
          "internalType": "address",
          "name": "token",
          "type": "address"
        },
        {
          "internalType": "uint256",
          "name": "amount",
          "type": "uint256"
        }
      ],
      "name": "withdrawToken",
      "outputs": [],
      "stateMutability": "nonpayable",
      "type": "function"
    },
    {
      "stateMutability": "payable",
      "type": "receive"
    }
  ],
  "bytecode": "0x61010034620001c757601f6200200c38819003918201601f19168301916001600160401b03831184841017620001cc57808492608094604052833981010312620001c7576200004e81620001e2565b6200005c60208301620001e2565b916200007960606200007160408401620001e2565b9201620001e2565b923315620001ae5760008054336001600160a01b03198216811783556040516001600160a01b0396909387939192918416907f8be0079c531659141344cd1fd0a4f28419497f9722a3daafe3b4186f6b6457e09080a360018055169081158015620001a3575b801562000198575b80156200018d575b6200017e5750608052821660a0521660c05260e052604051611e149081620001f8823960805181818161045e01528181611056015261145f015260a051818181610784015281816107e401528181610a1601528181610f8d01526116e3015260c0518181816106ad015281816113100152611578015260e0518181816104a3015281816110d001526113f00152f35b630f58058360e11b8152600490fd5b5084861615620000ef565b5084841615620000e7565b5084831615620000df565b604051631e4fbdf760e01b815260006004820152602490fd5b600080fd5b634e487b7160e01b600052604160045260246000fd5b51906001600160a01b0382168203620001c75756fe60806040526004361015610018575b361561001657005b005b6000803560e01c80630ad2338214611620578063204120bc146115c45780634c203786146115a75780635b549182146115625780635d2301101461153f5780635e6c572b1461137b578063696d628314611297578063715018a61461123d57806371750d9614610fbc578063791b98bc14610f775780638da5cb5b14610f50578063917f3e5f1461061557806398e9cb12146105b95780639bc7c5861461057a5780639e281a98146104d2578063ad5c46481461048d578063c31c9c0714610448578063c3d2c3c1146103dd578063ca88d5c514610309578063d02641a01461029d578063e086e5ec146101d0578063ee937e82146101b35763f2fde38b14610121575061000e565b346101b05760203660031901126101b05761013a611a00565b610142611d6f565b6001600160a01b0390811690811561019757600054826bffffffffffffffffffffffff60a01b821617600055167f8be0079c531659141344cd1fd0a4f28419497f9722a3daafe3b4186f6b6457e0600080a380f35b604051631e4fbdf760e01b815260048101849052602490fd5b80fd5b50346101b057806003193601126101b057602060405161012c8152f35b50346101b057806003193601126101b0576101e9611d6f565b8047806101f35750f35b8154829182918291906001600160a01b03165af13d15610298573d67ffffffffffffffff81116102845760405190610235601f8201601f191660200183611acb565b81528260203d92013e5b156102475780f35b60405162461bcd60e51b8152602060048201526015602482015274115512081dda5d1a191c985dd85b0819985a5b1959605a1b6044820152606490fd5b634e487b7160e01b83526041600452602483fd5b61023f565b50346101b05760203660031901126101b05760409081906001600160a01b036102c4611a00565b1681526003602052208151906102d982611aaf565b80549182815260606003600184015493846020850152600281015487850152015491015282519182526020820152f35b50346101b0576020806003193601126103d95760a091906001600160a01b03610330611a00565b1691828152600382526040812091604080519261034c84611aaf565b8454845260018501548385015260036002860154958386019687520154956060850196875281526002835220926040519261038684611a93565b845484526001850154938484820152600286015460408201526080600460ff6003890154161515978860608501520154910152519451905191604051958652850152604084015260608301526080820152f35b5080fd5b50346101b05760203660031901126101b05760a0906040906001600160a01b03610405611a00565b1681526002602052208054906001810154906002810154600460ff6003840154169201549260405194855260208501526040840152151560608301526080820152f35b50346101b057806003193601126101b0576040517f00000000000000000000000000000000000000000000000000000000000000006001600160a01b03168152602090f35b50346101b057806003193601126101b0576040517f00000000000000000000000000000000000000000000000000000000000000006001600160a01b03168152602090f35b50346101b05760403660031901126101b0576104ec611a00565b6104f4611d6f565b815460405163a9059cbb60e01b81526001600160a01b039182166004820152602480359082015291602091839160449183918791165af1801561056f57610539575080f35b6020813d602011610567575b8161055260209383611acb565b810103126103d95761056390611aed565b5080f35b3d9150610545565b6040513d84823e3d90fd5b50346101b05760203660031901126101b05760209060ff906040906001600160a01b036105a5611a00565b168152600484522054166040519015158152f35b50346101b05760203660031901126101b0576105d3611a00565b6105db611d6f565b6001600160a01b03168015610603578152600460205260408120805460ff1916600117905580f35b604051630f58058360e11b8152600490fd5b5061061f36611a2d565b61062d949394929192611c2a565b6001600160a01b03841686526004602052604086205460ff1615610f3e5782158015610f36575b610f24576001600160a01b03841686526002602052604086206003015460ff16610f1257604051630b4c774160e11b81526001600160a01b038581166004830152868116602483015262ffffff841660448301529093907f000000000000000000000000000000000000000000000000000000000000000016602085606481845afa948515610ce2578895610ef1575b506001600160a01b03851615610da7575b506040516323b872dd60e01b8152336004820152306024820152604481018290526020816064818b6001600160a01b038b165af18015610ce257610d6e575b506040516323b872dd60e01b8152336004820152306024820152604481018390526020816064818b6001600160a01b038c165af18015610ce257610d35575b5060405163095ea7b360e01b8082527f00000000000000000000000000000000000000000000000000000000000000006001600160a01b031660048301526024820183905290602081806044810103818c6001600160a01b038c165af18015610d2a57610ced575b506040519081527f00000000000000000000000000000000000000000000000000000000000000006001600160a01b0316600482015260248101839052602081806044810103818b6001600160a01b038c165af18015610ce257610ca3575b50604051633850c7bd60e01b81529360e090859060049082906001600160a01b03165afa938415610c98578794610bfa575b5061087683611d9b565b61087f81611bc6565b9460020b9460020b8503627fffff80199181811383821217610be657836108a9816108ae93611bf1565b611bda565b966108b884611bc6565b60020b0191821290821317610b4757906108a9816108d593611bf1565b61012c42014211610bd257604051948561016081011067ffffffffffffffff61016088011117610bbc57610160860160405260018060a01b038716865260018060a01b038816602087015262ffffff8516604087015260020b606086015260020b608085015260a084015260c08301528460e0830152846101008301523061012083015261012c420161014083015261014060405192634418b22b60e11b845260018060a01b03815116600485015260018060a01b03602082015116602485015262ffffff6040820151166044850152606081015160020b6064850152608081015160020b608485015260a081015160a485015260c081015160c485015260e081015160e485015261010081015161010485015260018060a01b03610120820151166101248501520151610144830152608082610164818860018060a01b037f0000000000000000000000000000000000000000000000000000000000000000165af18015610bb1578590869187948892610b5b575b5062278d004201804211610b4757927fa12f7d42aa572c92b5e0ba50a30cacd389bb68257862ca2b55065b7030a860649492610b3d926004898c62ffffff9860405194610a9786611a93565b8552602085016001600160801b0388168152604086019182526040606087019360018552608088019542875260018060a01b0316815260026020522095518655516001860155516002850155600384019051151560ff8019835416911617905551910155610b0488611c4d565b6040805197885260208801919091526001600160801b03909116908601529116946001600160a01b039081169416929081906060820190565b0390a46001805580f35b634e487b7160e01b89526011600452602489fd5b94505050506080823d608011610ba9575b81610b7960809383611acb565b81010312610ba557815191610b9060208201611b1d565b60606040830151920151939091939038610a4b565b8480fd5b3d9150610b6c565b6040513d87823e3d90fd5b634e487b7160e01b600052604160045260246000fd5b634e487b7160e01b88526011600452602488fd5b634e487b7160e01b8b52601160045260248bfd5b90935060e0813d60e011610c90575b81610c1660e09383611acb565b81010312610c8c5780516001600160a01b03811603610c8c576020810151908160020b8203610c8857610c4b60408201611bb7565b50610c5860608201611bb7565b50610c6560808201611bb7565b5060a081015160ff811603610c885760c0610c809101611aed565b50923861086c565b8780fd5b8680fd5b3d9150610c09565b6040513d89823e3d90fd5b6020813d602011610cda575b81610cbc60209383611acb565b81010312610c8857600494610cd260e092611aed565b50945061083a565b3d9150610caf565b6040513d8a823e3d90fd5b6020813d602011610d22575b81610d0660209383611acb565b81010312610d1e57610d1790611aed565b50386107db565b8880fd5b3d9150610cf9565b6040513d8b823e3d90fd5b6020813d602011610d66575b81610d4e60209383611acb565b81010312610c8857610d5f90611aed565b5038610773565b3d9150610d41565b6020813d602011610d9f575b81610d8760209383611acb565b81010312610c8857610d9890611aed565b5038610734565b3d9150610d7a565b60405163a167129560e01b81526001600160a01b0387811660048301528816602482015262ffffff851660448201529450602090859060649082908b905af1938415610c98578794610ec0575b5086600160c01b85600160bf1b5b828110610e8457506001600160a01b0381163b15610e805760405163f637731d60e01b81526001600160a01b0392831660048201529291839160249183918591165af18015610ce257156106f55767ffffffffffffffff8198929811610e6c5760405295386106f5565b634e487b7160e01b82526041600452602482fd5b8280fd5b92509050818015610eac57610ea090600160c01b819004611afa565b60011c90899291610e02565b634e487b7160e01b8a52601260045260248afd5b610ee391945060203d602011610eea575b610edb8183611acb565b810190611b98565b9238610df4565b503d610ed1565b610f0b91955060203d602011610eea57610edb8183611acb565b93386106e4565b60405163c9bb25eb60e01b8152600490fd5b60405163162908e360e11b8152600490fd5b508015610654565b604051637e5f934960e01b8152600490fd5b50346101b057806003193601126101b057546040516001600160a01b039091168152602090f35b50346101b057806003193601126101b0576040517f00000000000000000000000000000000000000000000000000000000000000006001600160a01b03168152602090f35b50346101b05760803660031901126101b057610fd6611a00565b610fde611a1b565b90604435610fea611c2a565b60018060a01b03808316928386526020916004835260ff60408820541615610f3e578315610f24576040516323b872dd60e01b81523360048201523060248201526044810185905283816064818b8a5af18015610ce257611209575b5060405163095ea7b360e01b81527f000000000000000000000000000000000000000000000000000000000000000082166001600160a01b038116600483015260248201869052919084816044818c8b5af18015610d2a576111d5575b5061012c4201804211610b47578493928995926111379262ffffff604051926110cb84611a76565b8b84527f0000000000000000000000000000000000000000000000000000000000000000169b8c8785015216604083015233606083015260808201528760a082015260643560c08201528660e082015260405196878094819363414bf38960e01b835260048301611b31565b03925af1928315610c985787936111a4575b5061115390611c4d565b838652600381526002604087200161116c838254611afa565b90556040519283528201527fd36cc53ba71bc76a3db3364981f5296dd4ca5eba0e8c89874f2170515bd20d2460403392a46001805580f35b9092508181813d83116111ce575b6111bc8183611acb565b81010312610c8c575191611153611149565b503d6111b2565b8481813d8311611202575b6111ea8183611acb565b81010312610d1e576111fb90611aed565b50386110a3565b503d6111e0565b8381813d8311611236575b61121e8183611acb565b81010312610c885761122f90611aed565b5038611046565b503d611214565b50346101b057806003193601126101b057611256611d6f565b80546001600160a01b03198116825581906001600160a01b03167f8be0079c531659141344cd1fd0a4f28419497f9722a3daafe3b4186f6b6457e08280a380f35b50346101b05760603660031901126101b0576112b1611a00565b602435906001600160a01b03908183168303611377576044359262ffffff84168403610ba557604051630b4c774160e11b81526001600160a01b0392831660048201529116602482015262ffffff9290921660448301526020826064817f000000000000000000000000000000000000000000000000000000000000000085165afa91821561136c576020939261134d575b5060405191168152f35b611365919250833d8511610eea57610edb8183611acb565b9038611343565b6040513d85823e3d90fd5b8380fd5b5060603660031901126101b057611390611a00565b611398611a1b565b6113a0611c2a565b60018060a01b03808316928385526020916004835260ff60408720541615610f3e573415610f245761012c42019081421161152b5761145992918491604051916113e983611a76565b62ffffff827f000000000000000000000000000000000000000000000000000000000000000016988985528a8686015216604084015233606084015260808301523460a083015260443560c08301528860e0830152604051808096819463414bf38960e01b835260048301611b31565b039134907f0000000000000000000000000000000000000000000000000000000000000000165af19182156115205786926114eb575b5061149990611c4d565b83855260038252600260408620016114b2348254611afa565b9055604051913483528201527fd36cc53ba71bc76a3db3364981f5296dd4ca5eba0e8c89874f2170515bd20d2460403392a46001805580f35b9091508281813d8311611519575b6115038183611acb565b8101031261151557519061149961148f565b8580fd5b503d6114f9565b6040513d88823e3d90fd5b634e487b7160e01b87526011600452602487fd5b50346101b057806003193601126101b057602060405167016345785d8a00008152f35b50346101b057806003193601126101b0576040517f00000000000000000000000000000000000000000000000000000000000000006001600160a01b03168152602090f35b50346101b057806003193601126101b05760206040516101f48152f35b50346101b05760203660031901126101b0576080906040906001600160a01b036115ec611a00565b1681526003602052208054906001810154906003600282015491015491604051938452602084015260408301526060820152f35b5061162a36611a2d565b93611636929192611c2a565b60018060a01b0390818116938488526020926002845260ff600360408b2001541615610f1257811580156119f8575b610f24576040516323b872dd60e01b808252336004830152306024830152604482018490529785826064818e8c5af19182156119825783926119c1575b506040519889523360048a01523060248a0152604489018a9052169684816064818d8c5af1801561193f5761198d575b5060405163095ea7b360e01b8082527f0000000000000000000000000000000000000000000000000000000000000000929092166001600160a01b038116600483015260248201849052919085816044818e8c5af180156119825761194a575b506040519081526001600160a01b03821660048201526024810189905284816044818d8c5af1801561193f57611907575b508589526002845260408920549061012c4201804211610be6576040519260c0840184811067ffffffffffffffff8211176118f3579260609594928d9260c4956040528452888401958652604084019c8d52868401838152608085019084825260a086019283526040519e8f98899763219f5d1760e01b89525160048901525160248801525160448701525160648601525160848501525160a48401525af1908115610c9857879288978993611874575b505062ffffff927f66f68636a37c16d9b851b4467d85bfdc07b98135fc5f50b62510198bd4589468949261184a610b3d93611c4d565b6040519485941698849160409194936001600160801b039160608501968552602085015216910152565b935096509290506060823d6060116118eb575b8161189460609383611acb565b81010312610c8c57610b3d827f66f68636a37c16d9b851b4467d85bfdc07b98135fc5f50b62510198bd45894689461184a60406118d462ffffff97611b1d565b9a8401519301519992999496505091819450611814565b3d9150611887565b634e487b7160e01b8d52604160045260248dfd5b8481813d8311611938575b61191c8183611acb565b810103126119345761192d90611aed565b5038611763565b8980fd5b503d611912565b6040513d8c823e3d90fd5b8581813d831161197b575b61195f8183611acb565b810103126119775761197090611aed565b5038611732565b8a80fd5b503d611955565b6040513d8d823e3d90fd5b8481813d83116119ba575b6119a28183611acb565b81010312611934576119b390611aed565b50386116d2565b503d611998565b91508582813d83116119f1575b6119d88183611acb565b81010312611977576119ea8392611aed565b50386116a2565b503d6119ce565b508715611665565b600435906001600160a01b0382168203611a1657565b600080fd5b6024359062ffffff82168203611a1657565b60a0906003190112611a16576001600160a01b03906004358281168103611a1657916024359081168103611a16579060443562ffffff81168103611a1657906064359060843590565b610100810190811067ffffffffffffffff821117610bbc57604052565b60a0810190811067ffffffffffffffff821117610bbc57604052565b6080810190811067ffffffffffffffff821117610bbc57604052565b90601f8019910116810190811067ffffffffffffffff821117610bbc57604052565b51908115158203611a1657565b91908201809211611b0757565b634e487b7160e01b600052601160045260246000fd5b51906001600160801b0382168203611a1657565b91909160e06101008201938160018060a01b039182815116855282602082015116602086015262ffffff60408201511660408601528260608201511660608601526080810151608086015260a081015160a086015260c081015160c0860152015116910152565b90816020910312611a1657516001600160a01b0381168103611a165790565b519061ffff82168203611a1657565b60020b60011b908160020b918203611b0757565b9060020b9060020b02908160020b918203611b0757565b60020b9060020b908115611c1457627fffff198114600019831416611b07570590565b634e487b7160e01b600052601260045260246000fd5b600260015414611c3b576002600155565b604051633ee5aeb560e01b8152600490fd5b60018060a01b03169060009180835260206002815260409060ff600383872001541615611d685781516318160ddd60e01b8152908082600481875afa918215611d5e578692611d2f575b50683635c9adc5dea0000091808302908382040361152b579560038596977fb556fac599c3c70efb9ab1fa725ecace6c81cc48d1455f886607def065f3e0c096835281845260028684200154865193611cef85611aaf565b8685528786860191428352818701938452606087019485528b815285885220945185555160018501555160028401555191015582519182524290820152a2565b9080925081813d8311611d57575b611d478183611acb565b8101031261151557519038611c97565b503d611d3d565b83513d88823e3d90fd5b5050509050565b6000546001600160a01b03163303611d8357565b60405163118cdaa760e01b8152336004820152602490fd5b62ffffff1660648114611dd8576101f48114611dd257610bb88114611dcc5761271014611dc757603c90565b60c890565b50603c90565b50600a90565b5060019056fea26469706673582212208b13fe4d1fff75efe7d6d5e4841a3c69e723ed492eb25363aa6c7fe3e89be90164736f6c63430008180033",
  "linkReferences": {},
  "deployedLinkReferences": {}
}