{
  "_format": "hh-sol-artifact-1",
  "contractName": "PumpFunDEXManager",
  "sourceName": "contracts/PumpFunDEXManager.sol",
  "abi": [
    {
      "inputs": [
        {
          "internalType": "address",
          "name": "_swapRouter",
          "type": "address"
        },
        {
          "internalType": "address",
          "name": "_positionManager",
          "type": "address"
        },
        {
          "internalType": "address",
          "name": "_uniswapV3Factory",
          "type": "address"
        },
        {
          "internalType": "address",
          "name": "_weth",
          "type": "address"
        }
      ],
      "stateMutability": "nonpayable",
      "type": "constructor"
    },
    {
      "inputs": [],
      "name": "DeadlineExpired",
      "type": "error"
    },
    {
      "inputs": [],
      "name": "InsufficientLiquidity",
      "type": "error"
    },
    {
      "inputs": [],
      "name": "InvalidAmount",
      "type": "error"
    },
    {
      "inputs": [],
      "name": "InvalidTokenAddress",
      "type": "error"
    },
    {
      "inputs": [],
      "name": "LiquidityLocked",
      "type": "error"
    },
    {
      "inputs": [
        {
          "internalType": "address",
          "name": "owner",
          "type": "address"
        }
      ],
      "name": "OwnableInvalidOwner",
      "type": "error"
    },
    {
      "inputs": [
        {
          "internalType": "address",
          "name": "account",
          "type": "address"
        }
      ],
      "name": "OwnableUnauthorizedAccount",
      "type": "error"
    },
    {
      "inputs": [],
      "name": "PairAlreadyExists",
      "type": "error"
    },
    {
      "inputs": [],
      "name": "ReentrancyGuardReentrantCall",
      "type": "error"
    },
    {
      "inputs": [],
      "name": "SlippageExceeded",
      "type": "error"
    },
    {
      "inputs": [],
      "name": "UnauthorizedToken",
      "type": "error"
    },
    {
      "anonymous": false,
      "inputs": [
        {
          "indexed": true,
          "internalType": "address",
          "name": "token0",
          "type": "address"
        },
        {
          "indexed": true,
          "internalType": "address",
          "name": "token1",
          "type": "address"
        },
        {
          "indexed": true,
          "internalType": "uint24",
          "name": "fee",
          "type": "uint24"
        },
        {
          "indexed": false,
          "internalType": "uint256",
          "name": "amount0",
          "type": "uint256"
        },
        {
          "indexed": false,
          "internalType": "uint256",
          "name": "amount1",
          "type": "uint256"
        },
        {
          "indexed": false,
          "internalType": "uint256",
          "name": "liquidity",
          "type": "uint256"
        }
      ],
      "name": "LiquidityAdded",
      "type": "event"
    },
    {
      "anonymous": false,
      "inputs": [
        {
          "indexed": true,
          "internalType": "address",
          "name": "token0",
          "type": "address"
        },
        {
          "indexed": true,
          "internalType": "address",
          "name": "token1",
          "type": "address"
        },
        {
          "indexed": true,
          "internalType": "uint24",
          "name": "fee",
          "type": "uint24"
        },
        {
          "indexed": false,
          "internalType": "uint256",
          "name": "amount0",
          "type": "uint256"
        },
        {
          "indexed": false,
          "internalType": "uint256",
          "name": "amount1",
          "type": "uint256"
        },
        {
          "indexed": false,
          "internalType": "uint256",
          "name": "liquidity",
          "type": "uint256"
        }
      ],
      "name": "LiquidityPoolCreated",
      "type": "event"
    },
    {
      "anonymous": false,
      "inputs": [
        {
          "indexed": true,
          "internalType": "address",
          "name": "token0",
          "type": "address"
        },
        {
          "indexed": true,
          "internalType": "address",
          "name": "token1",
          "type": "address"
        },
        {
          "indexed": true,
          "internalType": "uint24",
          "name": "fee",
          "type": "uint24"
        },
        {
          "indexed": false,
          "internalType": "uint256",
          "name": "amount0",
          "type": "uint256"
        },
        {
          "indexed": false,
          "internalType": "uint256",
          "name": "amount1",
          "type": "uint256"
        }
      ],
      "name": "LiquidityRemoved",
      "type": "event"
    },
    {
      "anonymous": false,
      "inputs": [
        {
          "indexed": true,
          "internalType": "address",
          "name": "previousOwner",
          "type": "address"
        },
        {
          "indexed": true,
          "internalType": "address",
          "name": "newOwner",
          "type": "address"
        }
      ],
      "name": "OwnershipTransferred",
      "type": "event"
    },
    {
      "anonymous": false,
      "inputs": [
        {
          "indexed": true,
          "internalType": "address",
          "name": "token",
          "type": "address"
        },
        {
          "indexed": false,
          "internalType": "uint256",
          "name": "price",
          "type": "uint256"
        },
        {
          "indexed": false,
          "internalType": "uint256",
          "name": "timestamp",
          "type": "uint256"
        }
      ],
      "name": "PriceUpdated",
      "type": "event"
    },
    {
      "anonymous": false,
      "inputs": [
        {
          "indexed": true,
          "internalType": "address",
          "name": "user",
          "type": "address"
        },
        {
          "indexed": true,
          "internalType": "address",
          "name": "tokenIn",
          "type": "address"
        },
        {
          "indexed": true,
          "internalType": "address",
          "name": "tokenOut",
          "type": "address"
        },
        {
          "indexed": false,
          "internalType": "uint256",
          "name": "amountIn",
          "type": "uint256"
        },
        {
          "indexed": false,
          "internalType": "uint256",
          "name": "amountOut",
          "type": "uint256"
        }
      ],
      "name": "TokenSwapped",
      "type": "event"
    },
    {
      "stateMutability": "payable",
      "type": "fallback"
    },
    {
      "inputs": [],
      "name": "MIN_LIQUIDITY_ETH",
      "outputs": [
        {
          "internalType": "uint256",
          "name": "",
          "type": "uint256"
        }
      ],
      "stateMutability": "view",
      "type": "function"
    },
    {
      "inputs": [],
      "name": "PRICE_UPDATE_INTERVAL",
      "outputs": [
        {
          "internalType": "uint256",
          "name": "",
          "type": "uint256"
        }
      ],
      "stateMutability": "view",
      "type": "function"
    },
    {
      "inputs": [],
      "name": "SLIPPAGE_TOLERANCE",
      "outputs": [
        {
          "internalType": "uint256",
          "name": "",
          "type": "uint256"
        }
      ],
      "stateMutability": "view",
      "type": "function"
    },
    {
      "inputs": [],
      "name": "WETH",
      "outputs": [
        {
          "internalType": "address",
          "name": "",
          "type": "address"
        }
      ],
      "stateMutability": "view",
      "type": "function"
    },
    {
      "inputs": [
        {
          "internalType": "address",
          "name": "token0",
          "type": "address"
        },
        {
          "internalType": "address",
          "name": "token1",
          "type": "address"
        },
        {
          "internalType": "uint24",
          "name": "fee",
          "type": "uint24"
        },
        {
          "internalType": "uint256",
          "name": "tokenAmount0",
          "type": "uint256"
        },
        {
          "internalType": "uint256",
          "name": "tokenAmount1",
          "type": "uint256"
        }
      ],
      "name": "addLiquidity",
      "outputs": [],
      "stateMutability": "payable",
      "type": "function"
    },
    {
      "inputs": [
        {
          "internalType": "address",
          "name": "token",
          "type": "address"
        }
      ],
      "name": "authorizeToken",
      "outputs": [],
      "stateMutability": "nonpayable",
      "type": "function"
    },
    {
      "inputs": [
        {
          "internalType": "address",
          "name": "token",
          "type": "address"
        }
      ],
      "name": "authorizeTokenFromFactory",
      "outputs": [],
      "stateMutability": "nonpayable",
      "type": "function"
    },
    {
      "inputs": [
        {
          "internalType": "address",
          "name": "",
          "type": "address"
        }
      ],
      "name": "authorizedTokens",
      "outputs": [
        {
          "internalType": "bool",
          "name": "",
          "type": "bool"
        }
      ],
      "stateMutability": "view",
      "type": "function"
    },
    {
      "inputs": [
        {
          "internalType": "address",
          "name": "token0",
          "type": "address"
        },
        {
          "internalType": "address",
          "name": "token1",
          "type": "address"
        },
        {
          "internalType": "uint24",
          "name": "fee",
          "type": "uint24"
        },
        {
          "internalType": "uint256",
          "name": "amount0Desired",
          "type": "uint256"
        },
        {
          "internalType": "uint256",
          "name": "amount1Desired",
          "type": "uint256"
        }
      ],
      "name": "createLiquidityPool",
      "outputs": [],
      "stateMutability": "nonpayable",
      "type": "function"
    },
    {
      "inputs": [
        {
          "internalType": "address",
          "name": "token",
          "type": "address"
        },
        {
          "internalType": "uint24",
          "name": "fee",
          "type": "uint24"
        },
        {
          "internalType": "uint256",
          "name": "tokenAmount",
          "type": "uint256"
        }
      ],
      "name": "createLiquidityPoolWithETH",
      "outputs": [],
      "stateMutability": "payable",
      "type": "function"
    },
    {
      "inputs": [],
      "name": "factory",
      "outputs": [
        {
          "internalType": "address",
          "name": "",
          "type": "address"
        }
      ],
      "stateMutability": "view",
      "type": "function"
    },
    {
      "inputs": [
        {
          "internalType": "address",
          "name": "token0",
          "type": "address"
        },
        {
          "internalType": "address",
          "name": "token1",
          "type": "address"
        },
        {
          "internalType": "uint24",
          "name": "fee",
          "type": "uint24"
        }
      ],
      "name": "getPoolAddress",
      "outputs": [
        {
          "internalType": "address",
          "name": "",
          "type": "address"
        }
      ],
      "stateMutability": "view",
      "type": "function"
    },
    {
      "inputs": [
        {
          "internalType": "address",
          "name": "token",
          "type": "address"
        }
      ],
      "name": "getTokenPrice",
      "outputs": [
        {
          "internalType": "uint256",
          "name": "price",
          "type": "uint256"
        },
        {
          "internalType": "uint256",
          "name": "lastUpdated",
          "type": "uint256"
        }
      ],
      "stateMutability": "view",
      "type": "function"
    },
    {
      "inputs": [
        {
          "internalType": "address",
          "name": "token",
          "type": "address"
        }
      ],
      "name": "getTokenStats",
      "outputs": [
        {
          "internalType": "uint256",
          "name": "price",
          "type": "uint256"
        },
        {
          "internalType": "uint256",
          "name": "marketCap",
          "type": "uint256"
        },
        {
          "internalType": "uint256",
          "name": "volume24h",
          "type": "uint256"
        },
        {
          "internalType": "uint256",
          "name": "liquidity",
          "type": "uint256"
        },
        {
          "internalType": "bool",
          "name": "isActive",
          "type": "bool"
        }
      ],
      "stateMutability": "view",
      "type": "function"
    },
    {
      "inputs": [],
      "name": "owner",
      "outputs": [
        {
          "internalType": "address",
          "name": "",
          "type": "address"
        }
      ],
      "stateMutability": "view",
      "type": "function"
    },
    {
      "inputs": [],
      "name": "positionManager",
      "outputs": [
        {
          "internalType": "contract INonfungiblePositionManager",
          "name": "",
          "type": "address"
        }
      ],
      "stateMutability": "view",
      "type": "function"
    },
    {
      "inputs": [],
      "name": "renounceOwnership",
      "outputs": [],
      "stateMutability": "nonpayable",
      "type": "function"
    },
    {
      "inputs": [
        {
          "internalType": "address",
          "name": "_factory",
          "type": "address"
        }
      ],
      "name": "setFactory",
      "outputs": [],
      "stateMutability": "nonpayable",
      "type": "function"
    },
    {
      "inputs": [
        {
          "internalType": "address",
          "name": "tokenOut",
          "type": "address"
        },
        {
          "internalType": "uint24",
          "name": "fee",
          "type": "uint24"
        },
        {
          "internalType": "uint256",
          "name": "amountOutMinimum",
          "type": "uint256"
        }
      ],
      "name": "swapExactETHForTokens",
      "outputs": [],
      "stateMutability": "payable",
      "type": "function"
    },
    {
      "inputs": [
        {
          "internalType": "address",
          "name": "tokenIn",
          "type": "address"
        },
        {
          "internalType": "uint24",
          "name": "fee",
          "type": "uint24"
        },
        {
          "internalType": "uint256",
          "name": "amountIn",
          "type": "uint256"
        },
        {
          "internalType": "uint256",
          "name": "amountOutMinimum",
          "type": "uint256"
        }
      ],
      "name": "swapExactTokensForETH",
      "outputs": [],
      "stateMutability": "nonpayable",
      "type": "function"
    },
    {
      "inputs": [],
      "name": "swapRouter",
      "outputs": [
        {
          "internalType": "contract ISwapRouter",
          "name": "",
          "type": "address"
        }
      ],
      "stateMutability": "view",
      "type": "function"
    },
    {
      "inputs": [
        {
          "internalType": "address",
          "name": "",
          "type": "address"
        }
      ],
      "name": "tokenPools",
      "outputs": [
        {
          "internalType": "uint256",
          "name": "tokenId",
          "type": "uint256"
        },
        {
          "internalType": "uint256",
          "name": "liquidity",
          "type": "uint256"
        },
        {
          "internalType": "uint256",
          "name": "lockExpiry",
          "type": "uint256"
        },
        {
          "internalType": "bool",
          "name": "isActive",
          "type": "bool"
        },
        {
          "internalType": "uint256",
          "name": "createdAt",
          "type": "uint256"
        }
      ],
      "stateMutability": "view",
      "type": "function"
    },
    {
      "inputs": [
        {
          "internalType": "address",
          "name": "",
          "type": "address"
        }
      ],
      "name": "tokenPrices",
      "outputs": [
        {
          "internalType": "uint256",
          "name": "price",
          "type": "uint256"
        },
        {
          "internalType": "uint256",
          "name": "lastUpdated",
          "type": "uint256"
        },
        {
          "internalType": "uint256",
          "name": "volume24h",
          "type": "uint256"
        },
        {
          "internalType": "uint256",
          "name": "marketCap",
          "type": "uint256"
        }
      ],
      "stateMutability": "view",
      "type": "function"
    },
    {
      "inputs": [
        {
          "internalType": "address",
          "name": "newOwner",
          "type": "address"
        }
      ],
      "name": "transferOwnership",
      "outputs": [],
      "stateMutability": "nonpayable",
      "type": "function"
    },
    {
      "inputs": [],
      "name": "uniswapV3Factory",
      "outputs": [
        {
          "internalType": "contract IUniswapV3Factory",
          "name": "",
          "type": "address"
        }
      ],
      "stateMutability": "view",
      "type": "function"
    },
    {
      "inputs": [],
      "name": "withdrawETH",
      "outputs": [],
      "stateMutability": "nonpayable",
      "type": "function"
    },
    {
      "inputs": [
        {
          "internalType": "address",
          "name": "token",
          "type": "address"
        },
        {
          "internalType": "uint256",
          "name": "amount",
          "type": "uint256"
        }
      ],
      "name": "withdrawToken",
      "outputs": [],
      "stateMutability": "nonpayable",
      "type": "function"
    },
    {
      "stateMutability": "payable",
      "type": "receive"
    }
  ],
  "bytecode": "0x61010034620001d557601f6200256e38819003918201601f19168301916001600160401b03831184841017620001da57808492608094604052833981010312620001d5576200004e81620001f0565b6200005c60208301620001f0565b916200007960606200007160408401620001f0565b9201620001f0565b923315620001bc5760008054336001600160a01b03198216811783556040516001600160a01b0396909387939192918416907f8be0079c531659141344cd1fd0a4f28419497f9722a3daafe3b4186f6b6457e09080a360018055169081158015620001b1575b8015620001a6575b80156200019b575b6200018c5750608052821660a0521660c05260e052604051612368908162000206823960805181818161066f01528181610bab015261100e015260a051818181610acb0152818161135601528181611bd901528181611c3f0152611e8b015260c051818181610ec2015281816111cd01528181611b7e01526121be015260e0518181816101af015281816106b201528181610c220152610fa50152f35b630f58058360e11b8152600490fd5b5084861615620000ef565b5084841615620000e7565b5084831615620000df565b604051631e4fbdf760e01b815260006004820152602490fd5b600080fd5b634e487b7160e01b600052604160045260246000fd5b51906001600160a01b0382168203620001d55756fe6040608081526004908136101561001d575b5050361561001b57005b005b600090813560e01c80630ad2338214611270578063204120bc146112185780634c203786146111fc5780635b549182146111b95780635bb47808146111265780635d230110146111045780635e6c572b14610f3d578063696d628314610e3c578063715018a614610de257806371750d9614610afa578063791b98bc14610ab75780638da5cb5b14610a90578063917f3e5f1461087f57806398e9cb12146108555780639b5eb511146107d55780639bc7c586146107985780639e281a98146106e1578063ad5c46481461069e578063c31c9c071461065b578063c3d2c3c1146105f3578063c45a0155146105cb578063ca88d5c514610503578063d02641a014610499578063e086e5ec146103cc578063ee937e82146103ac578063f2fde38b146103215763f7f29185146101535750610011565b61015c36611761565b9061016893929361193d565b6001600160a01b03848116808752600560209081528588205492959260ff1615610311578415610301573415610301578188526003815260ff6003848a200154166102f1577f000000000000000000000000000000000000000000000000000000000000000095861692833b156102ed578051630d0e30db60e41b815289818c8134895af180156102e3576102cc575b5080516323b872dd60e01b8152339a81019a8b523060208c015260408b01879052989982908a9081906060015b03818d875af19081156102c35750610289575b506102679650109182156102835784935b831561027b57905b83156102745780935b1561026e57503493611b3a565b6001805580f35b93611b3a565b349361025a565b508490610251565b83610249565b87813d83116102bc575b61029d8183611816565b810103126102b8576102b161026797611838565b5038610238565b8780fd5b503d610293565b513d8b823e3d90fd5b866102259a6102db8593611802565b9a50506101f8565b82513d8c823e3d90fd5b8880fd5b825163c9bb25eb60e01b81528990fd5b825163162908e360e11b81528990fd5b8251637e5f934960e01b81528990fd5b5082346103a85760203660031901126103a85761033c6116fd565b90610345611a9b565b6001600160a01b0391821692831561039257505082546001600160a01b0319811683178455167f8be0079c531659141344cd1fd0a4f28419497f9722a3daafe3b4186f6b6457e08380a380f35b51631e4fbdf760e01b8152908101849052602490fd5b8280fd5b50346103c857816003193601126103c8576020905161012c8152f35b5080fd5b508290346103a857826003193601126103a8576103e7611a9b565b8247806103f2575080f35b8154829182918291906001600160a01b03165af13d15610494573d67ffffffffffffffff811161048157825190610433601f8201601f191660200183611816565b81528460203d92013e5b15610446578280f35b906020606492519162461bcd60e51b83528201526015602482015274115512081dda5d1a191c985dd85b0819985a5b1959605a1b6044820152fd5b634e487b7160e01b855260418452602485fd5b61043d565b5082346103a85760203660031901126103a857909182916001600160a01b036104c06116fd565b168252602052208151906104d3826117ca565b80549182815260606003600184015493846020850152600281015487850152015491015282519182526020820152f35b5090346105c857602092836003193601126103c85760a0936001600160a01b0361052b6116fd565b169384845282825280842081805195610543876117ca565b825487526001830154858801526003600284015493838901948552015497606088019889528152600385522094825161057b816117e6565b865481526080600188015496878784015260028901548684015260ff60038a0154161515988960608501520154910152519551905192825196875286015284015260608301526080820152f35b80fd5b50346103c857816003193601126103c85760025490516001600160a01b039091168152602090f35b508290346103a85760203660031901126103a85760a09281906001600160a01b0361061c6116fd565b16815260036020522080549260018201549260028301549160ff6003850154169301549381519586526020860152840152151560608301526080820152f35b50346103c857816003193601126103c857517f00000000000000000000000000000000000000000000000000000000000000006001600160a01b03168152602090f35b50346103c857816003193601126103c857517f00000000000000000000000000000000000000000000000000000000000000006001600160a01b03168152602090f35b508290346103a857806003193601126103a8576020610744926107026116fd565b61070a611a9b565b8554845163a9059cbb60e01b81526001600160a01b0391821693810193845260243560208501529586938492899290918491604090910190565b0393165af190811561078f5750610759575080f35b6020813d602011610787575b8161077260209383611816565b810103126103c85761078390611838565b5080f35b3d9150610765565b513d84823e3d90fd5b50346103c85760203660031901126103c85760209160ff9082906001600160a01b036107c26116fd565b1681526005855220541690519015158152f35b5082346103a85760203660031901126103a8576107f06116fd565b6002549092906001600160a01b03163303610812578361080f84611902565b80f35b906020606492519162461bcd60e51b8352820152601960248201527f43616c6c6572206973206e6f742074686520666163746f7279000000000000006044820152fd5b82346105c85760203660031901126105c85761080f6108726116fd565b61087a611a9b565b611902565b508290346103a85761089036611718565b939461089d93919361193d565b6001600160a01b038681169081158015610a86575b610a7657818a526020906005825260ff848c20541615610a6657841692838b526005825260ff818c20541615610a575786158015610a4f575b610a4057828b526003825260ff6003828d20015416610a315780516323b872dd60e01b80825233828d01908152306020820152604081018a90528d92908590829081906060010381868a5af18015610a27576109e6575b508251908152339b81019b8c523060208d015260408c018a90529a83918c91829081906060015b0391885af19081156109dd57506109a7575b506102679750109485156109a05780955b1561099957505b84611b3a565b9050610993565b819561098c565b88813d83116109d6575b6109bb8183611816565b810103126102ed576109cf61026798611838565b508961097b565b503d6109b1565b513d8c823e3d90fd5b90918482813d8311610a20575b6109fd8183611816565b810103126105c8576109699c8593610a158d94611838565b5092509c5091610942565b503d6109f3565b84513d85823e3d90fd5b5163c9bb25eb60e01b81528990fd5b5163162908e360e11b81528990fd5b5087156108eb565b51637e5f934960e01b81528990fd5b8351637e5f934960e01b81528a90fd5b8251630f58058360e11b81528990fd5b50808416156108b2565b50346103c857816003193601126103c857905490516001600160a01b039091168152602090f35b50346103c857816003193601126103c857517f00000000000000000000000000000000000000000000000000000000000000006001600160a01b03168152602090f35b5082346103a85760803660031901126103a857610b156116fd565b916024359262ffffff8416809403610dde5760443591610b3361193d565b60018060a01b03808316948588526020916005835260ff848a20541615610dcf578515610dc05783516323b872dd60e01b8152338382019081523060208201526040810188905284908290819060600103818d8c5af18015610db657610d7e575b50835163095ea7b360e01b81526001600160a01b037f00000000000000000000000000000000000000000000000000000000000000008316908116848301908152602081018990529092919085908290819003604001818e8d5af18015610d7457610d3c575b5061012c4201804211610d29578493928b9592610c8592885191610c1d83611797565b8c83527f0000000000000000000000000000000000000000000000000000000000000000169c8d868401528983015233606083015260808201528960a082015260643560c08201528660e0820152875196878094819363414bf38960e01b835288830161187c565b03925af1928315610d1f578993610cec575b50610cc27fd36cc53ba71bc76a3db3364981f5296dd4ca5eba0e8c89874f2170515bd20d2495611960565b8689528152600283892001610cd8838254611845565b905582519485528401523392a46001805580f35b9492508185813d8311610d18575b610d048183611816565b810103126102ed5793519193610cc2610c97565b503d610cfa565b84513d8b823e3d90fd5b634e487b7160e01b8b526011845260248bfd5b8481813d8311610d6d575b610d518183611816565b81010312610d6957610d6290611838565b508a610bfa565b8a80fd5b503d610d47565b86513d8d823e3d90fd5b8381813d8311610daf575b610d938183611816565b81010312610dab57610da490611838565b5089610b94565b8980fd5b503d610d89565b85513d8c823e3d90fd5b50825163162908e360e11b8152fd5b508251637e5f934960e01b8152fd5b8480fd5b82346105c857806003193601126105c857610dfb611a9b565b80546001600160a01b03198116825581906001600160a01b03167f8be0079c531659141344cd1fd0a4f28419497f9722a3daafe3b4186f6b6457e08280a380f35b508290346103a85760603660031901126103a857610e586116fd565b602435926001600160a01b0392918385168503610f39576044359162ffffff83168303610f35578351630b4c774160e11b81526001600160a01b039283169181019182529190951660208681019190915262ffffff909216604086015293849081906060010381857f0000000000000000000000000000000000000000000000000000000000000000165afa928315610f2b5760209493610efc575b505191168152f35b610f1d919350843d8611610f24575b610f158183611816565b8101906118e3565b9184610ef4565b503d610f0b565b81513d86823e3d90fd5b8680fd5b8580fd5b508290610f4936611761565b93919092610f5561193d565b60018060a01b0392838316958688526020946005865260ff848a205416156110f45734156110e45761012c4201918242116110d1579186916110089493865192610f9e84611797565b62ffffff837f0000000000000000000000000000000000000000000000000000000000000000169b8c86528d87870152168885015233606085015260808401523460a084015260c08301528a60e08301528551808096819463414bf38960e01b835287830161187c565b039134907f0000000000000000000000000000000000000000000000000000000000000000165af19182156110c7578892611094575b506110697fd36cc53ba71bc76a3db3364981f5296dd4ca5eba0e8c89874f2170515bd20d2494611960565b868852845260028288200161107f348254611845565b90558151933485528401523392a46001805580f35b9391508484813d83116110c0575b6110ac8183611816565b810103126102b8579251909261106961103e565b503d6110a2565b83513d8a823e3d90fd5b634e487b7160e01b8a526011845260248afd5b835163162908e360e11b81528390fd5b8351637e5f934960e01b81528390fd5b50346103c857816003193601126103c8576020905167016345785d8a00008152f35b5082346103a85760203660031901126103a8576111416116fd565b611149611a9b565b6001600160a01b03169182156111765750506bffffffffffffffffffffffff60a01b600254161760025580f35b906020606492519162461bcd60e51b8352820152601760248201527f496e76616c696420666163746f727920616464726573730000000000000000006044820152fd5b50346103c857816003193601126103c857517f00000000000000000000000000000000000000000000000000000000000000006001600160a01b03168152602090f35b50346103c857816003193601126103c857602090516101f48152f35b5082346103a85760203660031901126103a85760809282916001600160a01b036112406116fd565b16825260205220908154916001810154916003600283015492015492815194855260208501528301526060820152f35b509161127b36611718565b939091929661128861193d565b60018060a01b0392838316958689526020946003865260ff6003858c20015416156116ed57821580156116e5575b6116d557899a8989888d889e9d9e5192838092816113028c6323b872dd60e01b998a845230903390850160409194939294606082019560018060a01b0380921683521660208201520152565b03925af180156116cb57918d8587938c95611689575b508951928352339183019182523060208301526040820193909352919093169b83918d91839182906060015b03925af180156115ff57611655575b507f000000000000000000000000000000000000000000000000000000000000000016908a8a855188818c8186816113ae8c8c63095ea7b360e01b9a8b8552840160209093929193604081019460018060a01b031681520152565b03925af1801561164b578d85948b948f93948995611609575b506113f28b51978896879586948552840160209093929193604081019460018060a01b031681520152565b03925af180156115ff576115c7575b50878b5260038652838b20549261012c4201918242116115b45785519460c0860186811067ffffffffffffffff8211176115a05787528552878501918252858501908152606085018d8152608086018e815260a08701948552875163219f5d1760e01b815296519d87019d909d529151602486015251604485015251606484015298516084830152975160a48201529688908890815a9360c492606095f191821561159657889389988a94611516575b5050927f66f68636a37c16d9b851b4467d85bfdc07b98135fc5f50b62510198bd4589468949261150c926114e862ffffff96611960565b5198895260208901526001600160801b031660408801529116949081906060820190565b0390a46001805580f35b959350975092506060843d60601161158e575b8161153660609383611816565b810103126102b8578362ffffff93826114e861150c946115767f66f68636a37c16d9b851b4467d85bfdc07b98135fc5f50b62510198bd458946899611868565b9b8501519401519a939a9597505092819295506114b1565b3d9150611529565b81513d8a823e3d90fd5b50634e487b7160e01b8e5260418d5260248efd5b634e487b7160e01b8d5260118c5260248dfd5b8681813d83116115f8575b6115dc8183611816565b810103126115f4576115ed90611838565b5038611401565b8b80fd5b503d6115d2565b85513d8e823e3d90fd5b959350955092505082813d8311611644575b6116258183611816565b810103126105c8578b8d8692869561163d8d96611838565b50386113c7565b503d61161b565b87513d85823e3d90fd5b8681813d8311611682575b61166a8183611816565b810103126115f45761167b90611838565b5038611353565b503d611660565b93505050929181813d83116116c4575b6116a38183611816565b810103126115f457611344928d858b946116bd8995611838565b5095611318565b503d611699565b87513d8e823e3d90fd5b835163162908e360e11b81528990fd5b5081156112b6565b835163c9bb25eb60e01b81528990fd5b600435906001600160a01b038216820361171357565b600080fd5b60a0906003190112611713576001600160a01b0390600435828116810361171357916024359081168103611713579060443562ffffff8116810361171357906064359060843590565b6060906003190112611713576004356001600160a01b0381168103611713579060243562ffffff81168103611713579060443590565b610100810190811067ffffffffffffffff8211176117b457604052565b634e487b7160e01b600052604160045260246000fd5b6080810190811067ffffffffffffffff8211176117b457604052565b60a0810190811067ffffffffffffffff8211176117b457604052565b67ffffffffffffffff81116117b457604052565b90601f8019910116810190811067ffffffffffffffff8211176117b457604052565b5190811515820361171357565b9190820180921161185257565b634e487b7160e01b600052601160045260246000fd5b51906001600160801b038216820361171357565b91909160e06101008201938160018060a01b039182815116855282602082015116602086015262ffffff60408201511660408601528260608201511660608601526080810151608086015260a081015160a086015260c081015160c0860152015116910152565b9081602091031261171357516001600160a01b03811681036117135790565b6001600160a01b0316801561192b5760005260056020526040600020600160ff19825416179055565b604051630f58058360e11b8152600490fd5b60026001541461194e576002600155565b604051633ee5aeb560e01b8152600490fd5b6001600160a01b03166000818152600360208181526040808420909201549294939260ff1615611a945781516318160ddd60e01b8152908082600481875afa918215611a8a578692611a5b575b50683635c9adc5dea00000918083029083820403611a47579560038596977fb556fac599c3c70efb9ab1fa725ecace6c81cc48d1455f886607def065f3e0c09683526004845260028684200154865193611a06856117ca565b8685528786860191428352818701938452606087019485528b81526004885220945185555160018501555160028401555191015582519182524290820152a2565b634e487b7160e01b87526011600452602487fd5b9080925081813d8311611a83575b611a738183611816565b81010312610f39575190386119ad565b503d611a69565b83513d88823e3d90fd5b5050509050565b6000546001600160a01b03163303611aaf57565b60405163118cdaa760e01b8152336004820152602490fd5b519061ffff8216820361171357565b60020b60011b908160020b91820361185257565b9060020b9060020b02908160020b91820361185257565b60020b9060020b908115611b2457627fffff198114600019831416611852570590565b634e487b7160e01b600052601260045260246000fd5b604051630b4c774160e11b81526001600160a01b0380831660048301528316602482015262ffffff84166044820152939695919490939190602083806064810103817f00000000000000000000000000000000000000000000000000000000000000006001600160a01b03165afa9788156122e35760009384996122c2575b506001600160a01b03891615612180575b60405163095ea7b360e01b81527f00000000000000000000000000000000000000000000000000000000000000006001600160a01b031660048201526024810182905260208180604481010381886001600160a01b038c165af1801561213c57612147575b5060405163095ea7b360e01b81527f00000000000000000000000000000000000000000000000000000000000000006001600160a01b031660048201526024810183905260208180604481010381886001600160a01b038d165af1801561213c576120f7575b50604051633850c7bd60e01b815297989697959660e090879060049082906001600160a01b03165afa9586156120ec578496612052575b50611cd6856122ef565b611cdf81611ad6565b627fffff19600282810b908a900b03908112627fffff9091131761203e5781611d1381611d189360020b8b60020b03611b01565b611aea565b96611d2282611ad6565b60020b9060020b01627fffff198112627fffff82131761203e5790611d1381611d4a93611b01565b61012c4201421161202a57604051968761016081011067ffffffffffffffff6101608a0111176117b457610160880160405260018060a01b038916885260018060a01b038a16602089015262ffffff8716604089015260020b606088015260020b608087015260a086015260c08501528160e0850152816101008501523061012085015261012c420161014085015261014060405194634418b22b60e11b865260018060a01b03815116600487015260018060a01b03602082015116602487015262ffffff6040820151166044870152606081015160020b6064870152608081015160020b608487015260a081015160a487015260c081015160c487015260e081015160e487015261010081015161010487015260018060a01b03610120820151166101248701520151610144850152608084610164818560018060a01b037f0000000000000000000000000000000000000000000000000000000000000000165af190811561201f57828380968194611fcb575b5062278d004201804211611fb757611fb29362ffffff969360047fa12f7d42aa572c92b5e0ba50a30cacd389bb68257862ca2b55065b7030a86064999794611f799460405193611f0e856117e6565b845260208401906001600160801b0389168252604085019081526060850191600183526040608087019442865260018060a01b038916815260036020522095518655516001860155516002850155600384019051151560ff8019835416911617905551910155611960565b6040805197885260208801919091526001600160801b03909116908601529116946001600160a01b039081169416929081906060820190565b0390a4565b634e487b7160e01b82526011600452602482fd5b945092505093506080823d608011612017575b81611feb60809383611816565b810103126105c85781519361200260208401611868565b60606040850151940151959093959238611ebf565b3d9150611fde565b6040513d84823e3d90fd5b634e487b7160e01b85526011600452602485fd5b634e487b7160e01b86526011600452602486fd5b90955060e0813d60e0116120e4575b8161206e60e09383611816565b810103126120e05780516001600160a01b038116036120e0576020810151908160020b8203610dde576120a360408201611ac7565b506120b060608201611ac7565b506120bd60808201611ac7565b5060a081015160ff811603610dde5760c06120d89101611838565b509438611ccc565b8380fd5b3d9150612061565b6040513d86823e3d90fd5b6020813d602011612134575b8161211060209383611816565b81010312610dde5760049697989961212960e092611838565b509998979650611c95565b3d9150612103565b6040513d87823e3d90fd5b6020813d602011612178575b8161216060209383611816565b81010312610dde5761217190611838565b5038611c2f565b3d9150612153565b60405163a167129560e01b81526001600160a01b0380881660048301528816602482015262ffffff86166044820152985060208980606481010381877f00000000000000000000000000000000000000000000000000000000000000006001600160a01b03165af19889156120ec5784996122a1575b5088601960c21b601960c11b5b81811061226b57506001600160a01b0382163b15610f395760405163f637731d60e01b81526001600160a01b039182166004820152918691839160249183918591165af1801561213c57612258575b50611bca565b61226490949194611802565b9238612252565b905080801561228d5761228590601960c21b819004611845565b60011c612203565b634e487b7160e01b87526012600452602487fd5b6122bb91995060203d602011610f2457610f158183611816565b97386121f6565b6122dc91995060203d602011610f2457610f158183611816565b9738611bb9565b6040513d6000823e3d90fd5b62ffffff166064811461232c576101f4811461232657610bb88114612320576127101461231b57603c90565b60c890565b50603c90565b50600a90565b5060019056fea2646970667358221220e91b10d228ab69c69c8f499b27d2936a574a0e2540632300e18050010c0a5db764736f6c63430008180033",
  "linkReferences": {},
  "deployedLinkReferences": {}
}