{
  "_format": "hh-sol-artifact-1",
  "contractName": "PumpFunDEXManager",
  "sourceName": "contracts/PumpFunDEXManager.sol",
  "abi": [
    {
      "inputs": [
        {
          "internalType": "address",
          "name": "_swapRouter",
          "type": "address"
        },
        {
          "internalType": "address",
          "name": "_positionManager",
          "type": "address"
        },
        {
          "internalType": "address",
          "name": "_uniswapV3Factory",
          "type": "address"
        },
        {
          "internalType": "address",
          "name": "_weth",
          "type": "address"
        }
      ],
      "stateMutability": "nonpayable",
      "type": "constructor"
    },
    {
      "inputs": [],
      "name": "DeadlineExpired",
      "type": "error"
    },
    {
      "inputs": [],
      "name": "InsufficientLiquidity",
      "type": "error"
    },
    {
      "inputs": [],
      "name": "InvalidAmount",
      "type": "error"
    },
    {
      "inputs": [],
      "name": "InvalidTokenAddress",
      "type": "error"
    },
    {
      "inputs": [],
      "name": "LiquidityLocked",
      "type": "error"
    },
    {
      "inputs": [
        {
          "internalType": "address",
          "name": "owner",
          "type": "address"
        }
      ],
      "name": "OwnableInvalidOwner",
      "type": "error"
    },
    {
      "inputs": [
        {
          "internalType": "address",
          "name": "account",
          "type": "address"
        }
      ],
      "name": "OwnableUnauthorizedAccount",
      "type": "error"
    },
    {
      "inputs": [],
      "name": "PairAlreadyExists",
      "type": "error"
    },
    {
      "inputs": [],
      "name": "ReentrancyGuardReentrantCall",
      "type": "error"
    },
    {
      "inputs": [],
      "name": "SlippageExceeded",
      "type": "error"
    },
    {
      "inputs": [],
      "name": "UnauthorizedToken",
      "type": "error"
    },
    {
      "anonymous": false,
      "inputs": [
        {
          "indexed": true,
          "internalType": "address",
          "name": "token0",
          "type": "address"
        },
        {
          "indexed": true,
          "internalType": "address",
          "name": "token1",
          "type": "address"
        },
        {
          "indexed": true,
          "internalType": "uint24",
          "name": "fee",
          "type": "uint24"
        },
        {
          "indexed": false,
          "internalType": "uint256",
          "name": "amount0",
          "type": "uint256"
        },
        {
          "indexed": false,
          "internalType": "uint256",
          "name": "amount1",
          "type": "uint256"
        },
        {
          "indexed": false,
          "internalType": "uint256",
          "name": "liquidity",
          "type": "uint256"
        }
      ],
      "name": "LiquidityAdded",
      "type": "event"
    },
    {
      "anonymous": false,
      "inputs": [
        {
          "indexed": true,
          "internalType": "address",
          "name": "token0",
          "type": "address"
        },
        {
          "indexed": true,
          "internalType": "address",
          "name": "token1",
          "type": "address"
        },
        {
          "indexed": true,
          "internalType": "uint24",
          "name": "fee",
          "type": "uint24"
        },
        {
          "indexed": false,
          "internalType": "uint256",
          "name": "amount0",
          "type": "uint256"
        },
        {
          "indexed": false,
          "internalType": "uint256",
          "name": "amount1",
          "type": "uint256"
        },
        {
          "indexed": false,
          "internalType": "uint256",
          "name": "liquidity",
          "type": "uint256"
        }
      ],
      "name": "LiquidityPoolCreated",
      "type": "event"
    },
    {
      "anonymous": false,
      "inputs": [
        {
          "indexed": true,
          "internalType": "address",
          "name": "token0",
          "type": "address"
        },
        {
          "indexed": true,
          "internalType": "address",
          "name": "token1",
          "type": "address"
        },
        {
          "indexed": true,
          "internalType": "uint24",
          "name": "fee",
          "type": "uint24"
        },
        {
          "indexed": false,
          "internalType": "uint256",
          "name": "amount0",
          "type": "uint256"
        },
        {
          "indexed": false,
          "internalType": "uint256",
          "name": "amount1",
          "type": "uint256"
        }
      ],
      "name": "LiquidityRemoved",
      "type": "event"
    },
    {
      "anonymous": false,
      "inputs": [
        {
          "indexed": true,
          "internalType": "address",
          "name": "previousOwner",
          "type": "address"
        },
        {
          "indexed": true,
          "internalType": "address",
          "name": "newOwner",
          "type": "address"
        }
      ],
      "name": "OwnershipTransferred",
      "type": "event"
    },
    {
      "anonymous": false,
      "inputs": [
        {
          "indexed": true,
          "internalType": "address",
          "name": "token0",
          "type": "address"
        },
        {
          "indexed": true,
          "internalType": "address",
          "name": "token1",
          "type": "address"
        },
        {
          "indexed": false,
          "internalType": "uint24",
          "name": "fee",
          "type": "uint24"
        },
        {
          "indexed": false,
          "internalType": "address",
          "name": "poolAddress",
          "type": "address"
        },
        {
          "indexed": false,
          "internalType": "bool",
          "name": "poolExists",
          "type": "bool"
        }
      ],
      "name": "PoolAddressChecked",
      "type": "event"
    },
    {
      "anonymous": false,
      "inputs": [
        {
          "indexed": true,
          "internalType": "address",
          "name": "token0",
          "type": "address"
        },
        {
          "indexed": true,
          "internalType": "address",
          "name": "token1",
          "type": "address"
        },
        {
          "indexed": false,
          "internalType": "uint24",
          "name": "fee",
          "type": "uint24"
        },
        {
          "indexed": false,
          "internalType": "address",
          "name": "poolAddress",
          "type": "address"
        }
      ],
      "name": "PoolCreatedOnFactory",
      "type": "event"
    },
    {
      "anonymous": false,
      "inputs": [
        {
          "indexed": true,
          "internalType": "address",
          "name": "token0",
          "type": "address"
        },
        {
          "indexed": true,
          "internalType": "address",
          "name": "token1",
          "type": "address"
        },
        {
          "indexed": false,
          "internalType": "uint24",
          "name": "fee",
          "type": "uint24"
        },
        {
          "indexed": false,
          "internalType": "uint256",
          "name": "amount0Desired",
          "type": "uint256"
        },
        {
          "indexed": false,
          "internalType": "uint256",
          "name": "amount1Desired",
          "type": "uint256"
        }
      ],
      "name": "PoolCreationStarted",
      "type": "event"
    },
    {
      "anonymous": false,
      "inputs": [
        {
          "indexed": true,
          "internalType": "address",
          "name": "poolAddress",
          "type": "address"
        },
        {
          "indexed": false,
          "internalType": "uint160",
          "name": "sqrtPriceX96",
          "type": "uint160"
        }
      ],
      "name": "PoolInitialized",
      "type": "event"
    },
    {
      "anonymous": false,
      "inputs": [
        {
          "indexed": true,
          "internalType": "address",
          "name": "poolAddress",
          "type": "address"
        },
        {
          "indexed": false,
          "internalType": "uint160",
          "name": "sqrtPriceX96",
          "type": "uint160"
        },
        {
          "indexed": false,
          "internalType": "int24",
          "name": "tick",
          "type": "int24"
        }
      ],
      "name": "PoolStateRetrieved",
      "type": "event"
    },
    {
      "anonymous": false,
      "inputs": [
        {
          "indexed": false,
          "internalType": "uint256",
          "name": "tokenId",
          "type": "uint256"
        },
        {
          "indexed": false,
          "internalType": "uint128",
          "name": "liquidity",
          "type": "uint128"
        },
        {
          "indexed": false,
          "internalType": "uint256",
          "name": "amount0Used",
          "type": "uint256"
        },
        {
          "indexed": false,
          "internalType": "uint256",
          "name": "amount1Used",
          "type": "uint256"
        }
      ],
      "name": "PositionMinted",
      "type": "event"
    },
    {
      "anonymous": false,
      "inputs": [
        {
          "indexed": true,
          "internalType": "address",
          "name": "token",
          "type": "address"
        },
        {
          "indexed": false,
          "internalType": "uint256",
          "name": "price",
          "type": "uint256"
        },
        {
          "indexed": false,
          "internalType": "uint256",
          "name": "timestamp",
          "type": "uint256"
        }
      ],
      "name": "PriceUpdated",
      "type": "event"
    },
    {
      "anonymous": false,
      "inputs": [
        {
          "indexed": false,
          "internalType": "int24",
          "name": "tick",
          "type": "int24"
        },
        {
          "indexed": false,
          "internalType": "int24",
          "name": "tickSpacing",
          "type": "int24"
        },
        {
          "indexed": false,
          "internalType": "int24",
          "name": "tickLower",
          "type": "int24"
        },
        {
          "indexed": false,
          "internalType": "int24",
          "name": "tickUpper",
          "type": "int24"
        }
      ],
      "name": "TicksCalculated",
      "type": "event"
    },
    {
      "anonymous": false,
      "inputs": [
        {
          "indexed": true,
          "internalType": "address",
          "name": "user",
          "type": "address"
        },
        {
          "indexed": true,
          "internalType": "address",
          "name": "tokenIn",
          "type": "address"
        },
        {
          "indexed": true,
          "internalType": "address",
          "name": "tokenOut",
          "type": "address"
        },
        {
          "indexed": false,
          "internalType": "uint256",
          "name": "amountIn",
          "type": "uint256"
        },
        {
          "indexed": false,
          "internalType": "uint256",
          "name": "amountOut",
          "type": "uint256"
        }
      ],
      "name": "TokenSwapped",
      "type": "event"
    },
    {
      "anonymous": false,
      "inputs": [
        {
          "indexed": true,
          "internalType": "address",
          "name": "token0",
          "type": "address"
        },
        {
          "indexed": true,
          "internalType": "address",
          "name": "token1",
          "type": "address"
        },
        {
          "indexed": false,
          "internalType": "uint256",
          "name": "amount0",
          "type": "uint256"
        },
        {
          "indexed": false,
          "internalType": "uint256",
          "name": "amount1",
          "type": "uint256"
        },
        {
          "indexed": false,
          "internalType": "address",
          "name": "spender",
          "type": "address"
        }
      ],
      "name": "TokensApproved",
      "type": "event"
    },
    {
      "anonymous": false,
      "inputs": [
        {
          "indexed": true,
          "internalType": "address",
          "name": "token0",
          "type": "address"
        },
        {
          "indexed": true,
          "internalType": "address",
          "name": "token1",
          "type": "address"
        },
        {
          "indexed": false,
          "internalType": "uint256",
          "name": "amount0",
          "type": "uint256"
        },
        {
          "indexed": false,
          "internalType": "uint256",
          "name": "amount1",
          "type": "uint256"
        },
        {
          "indexed": false,
          "internalType": "address",
          "name": "from",
          "type": "address"
        }
      ],
      "name": "TokensTransferred",
      "type": "event"
    },
    {
      "stateMutability": "payable",
      "type": "fallback"
    },
    {
      "inputs": [],
      "name": "MIN_LIQUIDITY_ETH",
      "outputs": [
        {
          "internalType": "uint256",
          "name": "",
          "type": "uint256"
        }
      ],
      "stateMutability": "view",
      "type": "function"
    },
    {
      "inputs": [],
      "name": "PRICE_UPDATE_INTERVAL",
      "outputs": [
        {
          "internalType": "uint256",
          "name": "",
          "type": "uint256"
        }
      ],
      "stateMutability": "view",
      "type": "function"
    },
    {
      "inputs": [],
      "name": "SLIPPAGE_TOLERANCE",
      "outputs": [
        {
          "internalType": "uint256",
          "name": "",
          "type": "uint256"
        }
      ],
      "stateMutability": "view",
      "type": "function"
    },
    {
      "inputs": [],
      "name": "WETH",
      "outputs": [
        {
          "internalType": "address",
          "name": "",
          "type": "address"
        }
      ],
      "stateMutability": "view",
      "type": "function"
    },
    {
      "inputs": [
        {
          "internalType": "address",
          "name": "token0",
          "type": "address"
        },
        {
          "internalType": "address",
          "name": "token1",
          "type": "address"
        },
        {
          "internalType": "uint24",
          "name": "fee",
          "type": "uint24"
        },
        {
          "internalType": "uint256",
          "name": "tokenAmount0",
          "type": "uint256"
        },
        {
          "internalType": "uint256",
          "name": "tokenAmount1",
          "type": "uint256"
        }
      ],
      "name": "addLiquidity",
      "outputs": [],
      "stateMutability": "payable",
      "type": "function"
    },
    {
      "inputs": [
        {
          "internalType": "address",
          "name": "token",
          "type": "address"
        }
      ],
      "name": "authorizeToken",
      "outputs": [],
      "stateMutability": "nonpayable",
      "type": "function"
    },
    {
      "inputs": [
        {
          "internalType": "address",
          "name": "token",
          "type": "address"
        }
      ],
      "name": "authorizeTokenFromFactory",
      "outputs": [],
      "stateMutability": "nonpayable",
      "type": "function"
    },
    {
      "inputs": [
        {
          "internalType": "address",
          "name": "",
          "type": "address"
        }
      ],
      "name": "authorizedTokens",
      "outputs": [
        {
          "internalType": "bool",
          "name": "",
          "type": "bool"
        }
      ],
      "stateMutability": "view",
      "type": "function"
    },
    {
      "inputs": [
        {
          "internalType": "address",
          "name": "token0",
          "type": "address"
        },
        {
          "internalType": "address",
          "name": "token1",
          "type": "address"
        },
        {
          "internalType": "uint24",
          "name": "fee",
          "type": "uint24"
        },
        {
          "internalType": "uint256",
          "name": "amount0Desired",
          "type": "uint256"
        },
        {
          "internalType": "uint256",
          "name": "amount1Desired",
          "type": "uint256"
        }
      ],
      "name": "createLiquidityPool",
      "outputs": [],
      "stateMutability": "payable",
      "type": "function"
    },
    {
      "inputs": [],
      "name": "factory",
      "outputs": [
        {
          "internalType": "address",
          "name": "",
          "type": "address"
        }
      ],
      "stateMutability": "view",
      "type": "function"
    },
    {
      "inputs": [
        {
          "internalType": "address",
          "name": "token0",
          "type": "address"
        },
        {
          "internalType": "address",
          "name": "token1",
          "type": "address"
        },
        {
          "internalType": "uint24",
          "name": "fee",
          "type": "uint24"
        }
      ],
      "name": "getPoolAddress",
      "outputs": [
        {
          "internalType": "address",
          "name": "",
          "type": "address"
        }
      ],
      "stateMutability": "view",
      "type": "function"
    },
    {
      "inputs": [
        {
          "internalType": "address",
          "name": "token",
          "type": "address"
        }
      ],
      "name": "getTokenPrice",
      "outputs": [
        {
          "internalType": "uint256",
          "name": "price",
          "type": "uint256"
        },
        {
          "internalType": "uint256",
          "name": "lastUpdated",
          "type": "uint256"
        }
      ],
      "stateMutability": "view",
      "type": "function"
    },
    {
      "inputs": [
        {
          "internalType": "address",
          "name": "token",
          "type": "address"
        }
      ],
      "name": "getTokenStats",
      "outputs": [
        {
          "internalType": "uint256",
          "name": "price",
          "type": "uint256"
        },
        {
          "internalType": "uint256",
          "name": "marketCap",
          "type": "uint256"
        },
        {
          "internalType": "uint256",
          "name": "volume24h",
          "type": "uint256"
        },
        {
          "internalType": "uint256",
          "name": "liquidity",
          "type": "uint256"
        },
        {
          "internalType": "bool",
          "name": "isActive",
          "type": "bool"
        }
      ],
      "stateMutability": "view",
      "type": "function"
    },
    {
      "inputs": [],
      "name": "owner",
      "outputs": [
        {
          "internalType": "address",
          "name": "",
          "type": "address"
        }
      ],
      "stateMutability": "view",
      "type": "function"
    },
    {
      "inputs": [],
      "name": "positionManager",
      "outputs": [
        {
          "internalType": "contract INonfungiblePositionManager",
          "name": "",
          "type": "address"
        }
      ],
      "stateMutability": "view",
      "type": "function"
    },
    {
      "inputs": [],
      "name": "renounceOwnership",
      "outputs": [],
      "stateMutability": "nonpayable",
      "type": "function"
    },
    {
      "inputs": [
        {
          "internalType": "address",
          "name": "_factory",
          "type": "address"
        }
      ],
      "name": "setFactory",
      "outputs": [],
      "stateMutability": "nonpayable",
      "type": "function"
    },
    {
      "inputs": [
        {
          "internalType": "address",
          "name": "tokenOut",
          "type": "address"
        },
        {
          "internalType": "uint24",
          "name": "fee",
          "type": "uint24"
        },
        {
          "internalType": "uint256",
          "name": "amountOutMinimum",
          "type": "uint256"
        }
      ],
      "name": "swapExactETHForTokens",
      "outputs": [],
      "stateMutability": "payable",
      "type": "function"
    },
    {
      "inputs": [
        {
          "internalType": "address",
          "name": "tokenIn",
          "type": "address"
        },
        {
          "internalType": "uint24",
          "name": "fee",
          "type": "uint24"
        },
        {
          "internalType": "uint256",
          "name": "amountIn",
          "type": "uint256"
        },
        {
          "internalType": "uint256",
          "name": "amountOutMinimum",
          "type": "uint256"
        }
      ],
      "name": "swapExactTokensForETH",
      "outputs": [],
      "stateMutability": "nonpayable",
      "type": "function"
    },
    {
      "inputs": [],
      "name": "swapRouter",
      "outputs": [
        {
          "internalType": "contract ISwapRouter",
          "name": "",
          "type": "address"
        }
      ],
      "stateMutability": "view",
      "type": "function"
    },
    {
      "inputs": [
        {
          "internalType": "address",
          "name": "",
          "type": "address"
        }
      ],
      "name": "tokenPools",
      "outputs": [
        {
          "internalType": "uint256",
          "name": "tokenId",
          "type": "uint256"
        },
        {
          "internalType": "uint256",
          "name": "liquidity",
          "type": "uint256"
        },
        {
          "internalType": "uint256",
          "name": "lockExpiry",
          "type": "uint256"
        },
        {
          "internalType": "bool",
          "name": "isActive",
          "type": "bool"
        },
        {
          "internalType": "uint256",
          "name": "createdAt",
          "type": "uint256"
        }
      ],
      "stateMutability": "view",
      "type": "function"
    },
    {
      "inputs": [
        {
          "internalType": "address",
          "name": "",
          "type": "address"
        }
      ],
      "name": "tokenPrices",
      "outputs": [
        {
          "internalType": "uint256",
          "name": "price",
          "type": "uint256"
        },
        {
          "internalType": "uint256",
          "name": "lastUpdated",
          "type": "uint256"
        },
        {
          "internalType": "uint256",
          "name": "volume24h",
          "type": "uint256"
        },
        {
          "internalType": "uint256",
          "name": "marketCap",
          "type": "uint256"
        }
      ],
      "stateMutability": "view",
      "type": "function"
    },
    {
      "inputs": [
        {
          "internalType": "address",
          "name": "newOwner",
          "type": "address"
        }
      ],
      "name": "transferOwnership",
      "outputs": [],
      "stateMutability": "nonpayable",
      "type": "function"
    },
    {
      "inputs": [],
      "name": "uniswapV3Factory",
      "outputs": [
        {
          "internalType": "contract IUniswapV3Factory",
          "name": "",
          "type": "address"
        }
      ],
      "stateMutability": "view",
      "type": "function"
    },
    {
      "inputs": [],
      "name": "withdrawETH",
      "outputs": [],
      "stateMutability": "nonpayable",
      "type": "function"
    },
    {
      "inputs": [
        {
          "internalType": "address",
          "name": "token",
          "type": "address"
        },
        {
          "internalType": "uint256",
          "name": "amount",
          "type": "uint256"
        }
      ],
      "name": "withdrawToken",
      "outputs": [],
      "stateMutability": "nonpayable",
      "type": "function"
    },
    {
      "stateMutability": "payable",
      "type": "receive"
    }
  ],
  "bytecode": "0x61010034620001d557601f6200248138819003918201601f19168301916001600160401b03831184841017620001da57808492608094604052833981010312620001d5576200004e81620001f0565b6200005c60208301620001f0565b916200007960606200007160408401620001f0565b9201620001f0565b923315620001bc5760008054336001600160a01b03198216811783556040516001600160a01b0396909387939192918416907f8be0079c531659141344cd1fd0a4f28419497f9722a3daafe3b4186f6b6457e09080a360018055169081158015620001b1575b8015620001a6575b80156200019b575b6200018c5750608052821660a0521660c05260e05260405161227b90816200020682396080518181816104a8015281816113d80152611804015260a0518181816109040152818161096a015281816109d901528181610c8b0152818161130f0152611b19015260c051818181610797015281816110ac015281816116b501526119ae015260e0518181816104ed0152818161145201526117950152f35b630f58058360e11b8152600490fd5b5084861615620000ef565b5084841615620000e7565b5084831615620000df565b604051631e4fbdf760e01b815260006004820152602490fd5b600080fd5b634e487b7160e01b600052604160045260246000fd5b51906001600160a01b0382168203620001d55756fe60806040526004361015610018575b361561001657005b005b6000803560e01c80630ad2338214611a56578063204120bc146119fa5780634c203786146119dd5780635b549182146119985780635bb47808146119075780635d230110146118e45780635e6c572b14611720578063696d62831461163c578063715018a6146115e257806371750d961461133e578063791b98bc146112f95780638da5cb5b146112d2578063917f3e5f146106aa57806398e9cb12146106805780639b5eb511146106035780639bc7c586146105c45780639e281a981461051c578063ad5c4648146104d7578063c31c9c0714610492578063c3d2c3c114610427578063c45a0155146103fe578063ca88d5c51461032a578063d02641a0146102be578063e086e5ec146101f1578063ee937e82146101d45763f2fde38b14610142575061000e565b346101d15760203660031901126101d15761015b611e27565b6101636121d6565b6001600160a01b039081169081156101b857600054826bffffffffffffffffffffffff60a01b821617600055167f8be0079c531659141344cd1fd0a4f28419497f9722a3daafe3b4186f6b6457e0600080a380f35b604051631e4fbdf760e01b815260048101849052602490fd5b80fd5b50346101d157806003193601126101d157602060405161012c8152f35b50346101d157806003193601126101d15761020a6121d6565b8047806102145750f35b8154829182918291906001600160a01b03165af13d156102b9573d67ffffffffffffffff81116102a55760405190610256601f8201601f191660200183611ef2565b81528260203d92013e5b156102685780f35b60405162461bcd60e51b8152602060048201526015602482015274115512081dda5d1a191c985dd85b0819985a5b1959605a1b6044820152606490fd5b634e487b7160e01b83526041600452602483fd5b610260565b50346101d15760203660031901126101d15760409081906001600160a01b036102e5611e27565b1681526004602052208151906102fa82611ed6565b80549182815260606003600184015493846020850152600281015487850152015491015282519182526020820152f35b50346101d1576020806003193601126103fa5760a091906001600160a01b03610351611e27565b1691828152600482526040812091604080519261036d84611ed6565b845484526001850154838501526003600286015495838601968752015495606085019687528152600383522092604051926103a784611eba565b845484526001850154938484820152600286015460408201526080600460ff6003890154161515978860608501520154910152519451905191604051958652850152604084015260608301526080820152f35b5080fd5b50346101d157806003193601126101d1576002546040516001600160a01b039091168152602090f35b50346101d15760203660031901126101d15760a0906040906001600160a01b0361044f611e27565b1681526003602052208054906001810154906002810154600460ff6003840154169201549260405194855260208501526040840152151560608301526080820152f35b50346101d157806003193601126101d1576040517f00000000000000000000000000000000000000000000000000000000000000006001600160a01b03168152602090f35b50346101d157806003193601126101d1576040517f00000000000000000000000000000000000000000000000000000000000000006001600160a01b03168152602090f35b50346101d15760403660031901126101d157610536611e27565b61053e6121d6565b815460405163a9059cbb60e01b81526001600160a01b039182166004820152602480359082015291602091839160449183918791165af180156105b957610583575080f35b6020813d6020116105b1575b8161059c60209383611ef2565b810103126103fa576105ad90611f14565b5080f35b3d915061058f565b6040513d84823e3d90fd5b50346101d15760203660031901126101d15760209060ff906040906001600160a01b036105ef611e27565b168152600584522054166040519015158152f35b50346101d15760203660031901126101d15761061d611e27565b6002546001600160a01b0316330361063b5761063890612051565b80f35b60405162461bcd60e51b815260206004820152601960248201527f43616c6c6572206973206e6f742074686520666163746f7279000000000000006044820152606490fd5b50346101d15760203660031901126101d15761063861069d611e27565b6106a56121d6565b612051565b506106b436611e54565b6106c294939492919261208c565b6040805162ffffff84168152602081018590529081018290526001600160a01b0386811691908616907f992e1334c55fbe3ed106c7ba7a708a3b0606bc4c19bc769653ef20d84393d14690606090a36001600160a01b03841686526005602052604086205460ff16156112c057821580156112b8575b6112a6576001600160a01b03841686526003602081905260408720015460ff1661129457604051630b4c774160e11b81526001600160a01b0380861660048301528616602482015262ffffff83166044820152602081806064810103817f00000000000000000000000000000000000000000000000000000000000000006001600160a01b03165afa90811561126a578791611275575b506040805162ffffff851681526001600160a01b03808416602083018190521580159383019390935288811691908816907f97ec062f70e08ceaa2b518c3bbfd7b29b70be2ba16407a63998ab51ec796247e90606090a361106f575b6040516323b872dd60e01b8152336004820152306024820152604481018590526020816064818b6001600160a01b038b165af18015610f8057611036575b506040516323b872dd60e01b8152336004820152306024820152604481018390526020816064818b6001600160a01b038c165af18015610f8057610ffd575b50604080518581526020810184905233918101919091526001600160a01b0387811691908716907f869401b66ba4220de1cfea9f3b404ed962a8e7efd1ff5d4b67951791d079f50890606090a360405163095ea7b360e01b81527f00000000000000000000000000000000000000000000000000000000000000006001600160a01b0316600482015260248101859052602081806044810103818b6001600160a01b038b165af18015610f8057610fc4575b5060405163095ea7b360e01b81527f00000000000000000000000000000000000000000000000000000000000000006001600160a01b0316600482015260248101839052602081806044810103818b6001600160a01b038c165af18015610f8057610f8b575b5060408051858152602081018490526001600160a01b037f0000000000000000000000000000000000000000000000000000000000000000811692820192909252878216918716907f103f8e10b3068a9880b996bbc56603d9b28d7a2b857913356eb15e9bdd54a21b90606090a3604051633850c7bd60e01b815293906001600160a01b031660e085600481845afa8015610f805788958991610eb8575b5060407f3fe66eca864386b83f3bc8cfa05d8638123673c86d2ad94f999512d8b5da28f59181519760018060a01b0316885260020b96876020820152a2610aa483612202565b610aad81611fed565b627fffff9590627fffff199060020b820381811288821317610ea45783610ad781610adc93612018565b612001565b96610ae684611fed565b60020b830191821290821317610e90577f8e8e426d8c593477a805e7db30dadd3d2a7bc2874892f764d23a41685f63132a91610b2884610ad781608095612018565b9360405191825260020b60208201528760020b60408201528360020b6060820152a161012c42014211610e0557604051948561016081011067ffffffffffffffff61016088011117610e7a57610160860160405260018060a01b038716865260018060a01b038816602087015262ffffff8516604087015260020b606086015260020b608085015260a084015260c08301528460e0830152846101008301523061012083015261012c420161014083015261014060405192634418b22b60e11b845260018060a01b03815116600485015260018060a01b03602082015116602485015262ffffff6040820151166044850152606081015160020b6064850152608081015160020b608485015260a081015160a485015260c081015160c485015260e081015160e485015261010081015161010485015260018060a01b03610120820151166101248501520151610144830152608082610164818860018060a01b037f0000000000000000000000000000000000000000000000000000000000000000165af18015610e6f578590869187948892610e19575b507f7180ba4ffa4be9136434b7fa9b09c2c9e382d100e6850652637d0406f33110ff60806040518381526001600160801b0386166020820152876040820152846060820152a162278d0042014211610e055762ffffff927fa12f7d42aa572c92b5e0ba50a30cacd389bb68257862ca2b55065b7030a860649492610dfb9260405190610d4b82611eba565b81526004898c602084016001600160801b0387168152604085019062278d00420182526040606087019360018552608088019542875260018060a01b0316815260036020522095518655516001860155516002850155600384019051151560ff8019835416911617905551910155610dc2886120af565b6040805197885260208801919091526001600160801b03909116908601529116946001600160a01b039081169416929081906060820190565b0390a46001805580f35b634e487b7160e01b88526011600452602488fd5b94505050506080823d608011610e67575b81610e3760809383611ef2565b81010312610e6357815191610e4e60208201611f44565b60606040830151920151939091939038610cc0565b8480fd5b3d9150610e2a565b6040513d87823e3d90fd5b634e487b7160e01b600052604160045260246000fd5b634e487b7160e01b8a52601160045260248afd5b634e487b7160e01b8b52601160045260248bfd5b95505060e0853d60e011610f78575b81610ed460e09383611ef2565b81010312610f745784516001600160a01b0381168103610f70576020860151958660020b8703610f6c57610f0a60408201611fde565b50610f1760608201611fde565b50610f2460808201611fde565b5060a081015160ff811603610f6c577f3fe66eca864386b83f3bc8cfa05d8638123673c86d2ad94f999512d8b5da28f591610f6360c060409301611f14565b50969150610a5e565b8980fd5b8880fd5b8780fd5b3d9150610ec7565b6040513d8a823e3d90fd5b6020813d602011610fbc575b81610fa460209383611ef2565b81010312610f7457610fb590611f14565b50386109c0565b3d9150610f97565b6020813d602011610ff5575b81610fdd60209383611ef2565b81010312610f7457610fee90611f14565b503861095a565b3d9150610fd0565b6020813d60201161102e575b8161101660209383611ef2565b81010312610f745761102790611f14565b50386108a8565b3d9150611009565b6020813d602011611067575b8161104f60209383611ef2565b81010312610f745761106090611f14565b5038610869565b3d9150611042565b5060405163a167129560e01b81526001600160a01b0380861660048301528616602482015262ffffff83166044820152602081806064810103818a7f00000000000000000000000000000000000000000000000000000000000000006001600160a01b03165af190811561126a57879161123b575b506040805162ffffff851681526001600160a01b038084166020830152839289821692918916917f9c257abb2aa47a11277d9848c3bcc9e61bca488fd422cb6dbf9cc7e2fe79cb879190a3600160c01b90600160bf1b5b82811061120557506001600160a01b0381163b15610f705760405163f637731d60e01b81526001600160a01b0383811660048301528a9082906024908290849087165af180156111fa576111c9575b506040516001600160a01b0392831681529116907f30440fb2e4ce813a3feb1a945fc1c8190ba344a38f64cb33348155d72ab138b290602090a261082b565b67ffffffffffffffff819a929a116111e65760405297602061118a565b634e487b7160e01b82526041600452602482fd5b6040513d8c823e3d90fd5b91508180156112275761121f90600160c01b819004611f21565b60011c61113b565b634e487b7160e01b8a52601260045260248afd5b61125d915060203d602011611263575b6112558183611ef2565b810190611fbf565b386110e4565b503d61124b565b6040513d89823e3d90fd5b61128e915060203d602011611263576112558183611ef2565b386107cf565b60405163c9bb25eb60e01b8152600490fd5b60405163162908e360e11b8152600490fd5b508015610738565b604051637e5f934960e01b8152600490fd5b50346101d157806003193601126101d157546040516001600160a01b039091168152602090f35b50346101d157806003193601126101d1576040517f00000000000000000000000000000000000000000000000000000000000000006001600160a01b03168152602090f35b50346101d15760803660031901126101d157611358611e27565b611360611e42565b9060443561136c61208c565b60018060a01b03808316928386526020916005835260ff604088205416156112c05783156112a6576040516323b872dd60e01b81523360048201523060248201526044810185905283816064818b8a5af18015610f80576115ae575b5060405163095ea7b360e01b81527f000000000000000000000000000000000000000000000000000000000000000082166001600160a01b038116600483015260248201869052919084816044818c8b5af180156115a35761156f575b5061012c420180421161155b578493928995926114b99262ffffff6040519261144d84611e9d565b8b84527f0000000000000000000000000000000000000000000000000000000000000000169b8c8785015216604083015233606083015260808201528760a082015260643560c08201528660e082015260405196878094819363414bf38960e01b835260048301611f58565b03925af192831561126a578793611526575b506114d5906120af565b83865260048152600260408720016114ee838254611f21565b90556040519283528201527fd36cc53ba71bc76a3db3364981f5296dd4ca5eba0e8c89874f2170515bd20d2460403392a46001805580f35b9092508181813d8311611554575b61153e8183611ef2565b810103126115505751916114d56114cb565b8680fd5b503d611534565b634e487b7160e01b89526011600452602489fd5b8481813d831161159c575b6115848183611ef2565b81010312610f705761159590611f14565b5038611425565b503d61157a565b6040513d8b823e3d90fd5b8381813d83116115db575b6115c38183611ef2565b81010312610f74576115d490611f14565b50386113c8565b503d6115b9565b50346101d157806003193601126101d1576115fb6121d6565b80546001600160a01b03198116825581906001600160a01b03167f8be0079c531659141344cd1fd0a4f28419497f9722a3daafe3b4186f6b6457e08280a380f35b50346101d15760603660031901126101d157611656611e27565b602435906001600160a01b0390818316830361171c576044359262ffffff84168403610e6357604051630b4c774160e11b81526001600160a01b0392831660048201529116602482015262ffffff9290921660448301526020826064817f000000000000000000000000000000000000000000000000000000000000000085165afa91821561171157602093926116f2575b5060405191168152f35b61170a919250833d8511611263576112558183611ef2565b90386116e8565b6040513d85823e3d90fd5b8380fd5b5060603660031901126101d157611735611e27565b61173d611e42565b61174561208c565b60018060a01b03808316928385526020916005835260ff604087205416156112c05734156112a65761012c4201908142116118d0576117fe929184916040519161178e83611e9d565b62ffffff827f000000000000000000000000000000000000000000000000000000000000000016988985528a8686015216604084015233606084015260808301523460a083015260443560c08301528860e0830152604051808096819463414bf38960e01b835260048301611f58565b039134907f0000000000000000000000000000000000000000000000000000000000000000165af19182156118c5578692611890575b5061183e906120af565b8385526004825260026040862001611857348254611f21565b9055604051913483528201527fd36cc53ba71bc76a3db3364981f5296dd4ca5eba0e8c89874f2170515bd20d2460403392a46001805580f35b9091508281813d83116118be575b6118a88183611ef2565b810103126118ba57519061183e611834565b8580fd5b503d61189e565b6040513d88823e3d90fd5b634e487b7160e01b87526011600452602487fd5b50346101d157806003193601126101d157602060405167016345785d8a00008152f35b50346101d15760203660031901126101d157611921611e27565b6119296121d6565b6001600160a01b03168015611953576bffffffffffffffffffffffff60a01b600254161760025580f35b60405162461bcd60e51b815260206004820152601760248201527f496e76616c696420666163746f727920616464726573730000000000000000006044820152606490fd5b50346101d157806003193601126101d1576040517f00000000000000000000000000000000000000000000000000000000000000006001600160a01b03168152602090f35b50346101d157806003193601126101d15760206040516101f48152f35b50346101d15760203660031901126101d1576080906040906001600160a01b03611a22611e27565b1681526004602052208054906001810154906003600282015491015491604051938452602084015260408301526060820152f35b50611a6036611e54565b93611a6c92919261208c565b60018060a01b0390818116938488526020926003845260ff600360408b20015416156112945781158015611e1f575b6112a6576040516323b872dd60e01b808252336004830152306024830152604482018490529785826064818e8c5af1918215611da9578392611de8575b506040519889523360048a01523060248a0152604489018a9052169684816064818d8c5af180156111fa57611db4575b5060405163095ea7b360e01b8082527f0000000000000000000000000000000000000000000000000000000000000000929092166001600160a01b038116600483015260248201849052919085816044818e8c5af18015611da957611d71575b506040519081526001600160a01b03821660048201526024810189905284816044818d8c5af180156111fa57611d3d575b508589526003845260408920549061012c4201804211610ea4576040519260c0840184811067ffffffffffffffff821117611d29579260609594928d9260c4956040528452888401958652604084019c8d52868401838152608085019084825260a086019283526040519e8f98899763219f5d1760e01b89525160048901525160248801525160448701525160648601525160848501525160a48401525af190811561126a57879288978993611caa575b505062ffffff927f66f68636a37c16d9b851b4467d85bfdc07b98135fc5f50b62510198bd45894689492611c80610dfb936120af565b6040519485941698849160409194936001600160801b039160608501968552602085015216910152565b935096509290506060823d606011611d21575b81611cca60609383611ef2565b8101031261155057610dfb827f66f68636a37c16d9b851b4467d85bfdc07b98135fc5f50b62510198bd458946894611c806040611d0a62ffffff97611f44565b9a8401519301519992999496505091819450611c4a565b3d9150611cbd565b634e487b7160e01b8d52604160045260248dfd5b8481813d8311611d6a575b611d528183611ef2565b81010312610f6c57611d6390611f14565b5038611b99565b503d611d48565b8581813d8311611da2575b611d868183611ef2565b81010312611d9e57611d9790611f14565b5038611b68565b8a80fd5b503d611d7c565b6040513d8d823e3d90fd5b8481813d8311611de1575b611dc98183611ef2565b81010312610f6c57611dda90611f14565b5038611b08565b503d611dbf565b91508582813d8311611e18575b611dff8183611ef2565b81010312611d9e57611e118392611f14565b5038611ad8565b503d611df5565b508715611a9b565b600435906001600160a01b0382168203611e3d57565b600080fd5b6024359062ffffff82168203611e3d57565b60a0906003190112611e3d576001600160a01b03906004358281168103611e3d57916024359081168103611e3d579060443562ffffff81168103611e3d57906064359060843590565b610100810190811067ffffffffffffffff821117610e7a57604052565b60a0810190811067ffffffffffffffff821117610e7a57604052565b6080810190811067ffffffffffffffff821117610e7a57604052565b90601f8019910116810190811067ffffffffffffffff821117610e7a57604052565b51908115158203611e3d57565b91908201809211611f2e57565b634e487b7160e01b600052601160045260246000fd5b51906001600160801b0382168203611e3d57565b91909160e06101008201938160018060a01b039182815116855282602082015116602086015262ffffff60408201511660408601528260608201511660608601526080810151608086015260a081015160a086015260c081015160c0860152015116910152565b90816020910312611e3d57516001600160a01b0381168103611e3d5790565b519061ffff82168203611e3d57565b60020b60011b908160020b918203611f2e57565b9060020b9060020b02908160020b918203611f2e57565b60020b9060020b90811561203b57627fffff198114600019831416611f2e570590565b634e487b7160e01b600052601260045260246000fd5b6001600160a01b0316801561207a5760005260056020526040600020600160ff19825416179055565b604051630f58058360e11b8152600490fd5b60026001541461209d576002600155565b604051633ee5aeb560e01b8152600490fd5b6001600160a01b03166000818152600360208181526040808420909201549294939260ff16156121cf5781516318160ddd60e01b8152908082600481875afa9182156121c5578692612196575b50683635c9adc5dea000009180830290838204036118d0579560038596977fb556fac599c3c70efb9ab1fa725ecace6c81cc48d1455f886607def065f3e0c0968352600484526002868420015486519361215585611ed6565b8685528786860191428352818701938452606087019485528b81526004885220945185555160018501555160028401555191015582519182524290820152a2565b9080925081813d83116121be575b6121ae8183611ef2565b810103126118ba575190386120fc565b503d6121a4565b83513d88823e3d90fd5b5050509050565b6000546001600160a01b031633036121ea57565b60405163118cdaa760e01b8152336004820152602490fd5b62ffffff166064811461223f576101f4811461223957610bb88114612233576127101461222e57603c90565b60c890565b50603c90565b50600a90565b5060019056fea264697066735822122054ffc58ea8ba3391444756f37628486cb286fdae69349728c7c2f438026a0b4a64736f6c63430008180033",
  "linkReferences": {},
  "deployedLinkReferences": {}
}