{
  "_format": "hh-sol-artifact-1",
  "contractName": "PumpFunToken",
  "sourceName": "contracts/PumpFunToken.sol",
  "abi": [
    {
      "inputs": [
        {
          "internalType": "string",
          "name": "name",
          "type": "string"
        },
        {
          "internalType": "string",
          "name": "symbol",
          "type": "string"
        },
        {
          "internalType": "uint256",
          "name": "_initialSupply",
          "type": "uint256"
        },
        {
          "internalType": "address",
          "name": "_owner",
          "type": "address"
        }
      ],
      "stateMutability": "nonpayable",
      "type": "constructor"
    },
    {
      "inputs": [],
      "name": "AlreadyVoted",
      "type": "error"
    },
    {
      "inputs": [],
      "name": "BurningPaused",
      "type": "error"
    },
    {
      "inputs": [
        {
          "internalType": "address",
          "name": "spender",
          "type": "address"
        },
        {
          "internalType": "uint256",
          "name": "allowance",
          "type": "uint256"
        },
        {
          "internalType": "uint256",
          "name": "needed",
          "type": "uint256"
        }
      ],
      "name": "ERC20InsufficientAllowance",
      "type": "error"
    },
    {
      "inputs": [
        {
          "internalType": "address",
          "name": "sender",
          "type": "address"
        },
        {
          "internalType": "uint256",
          "name": "balance",
          "type": "uint256"
        },
        {
          "internalType": "uint256",
          "name": "needed",
          "type": "uint256"
        }
      ],
      "name": "ERC20InsufficientBalance",
      "type": "error"
    },
    {
      "inputs": [
        {
          "internalType": "address",
          "name": "approver",
          "type": "address"
        }
      ],
      "name": "ERC20InvalidApprover",
      "type": "error"
    },
    {
      "inputs": [
        {
          "internalType": "address",
          "name": "receiver",
          "type": "address"
        }
      ],
      "name": "ERC20InvalidReceiver",
      "type": "error"
    },
    {
      "inputs": [
        {
          "internalType": "address",
          "name": "sender",
          "type": "address"
        }
      ],
      "name": "ERC20InvalidSender",
      "type": "error"
    },
    {
      "inputs": [
        {
          "internalType": "address",
          "name": "spender",
          "type": "address"
        }
      ],
      "name": "ERC20InvalidSpender",
      "type": "error"
    },
    {
      "inputs": [],
      "name": "EnforcedPause",
      "type": "error"
    },
    {
      "inputs": [
        {
          "internalType": "uint256",
          "name": "amount",
          "type": "uint256"
        },
        {
          "internalType": "uint256",
          "name": "maxHolding",
          "type": "uint256"
        }
      ],
      "name": "ExceedsMaxHolding",
      "type": "error"
    },
    {
      "inputs": [
        {
          "internalType": "uint256",
          "name": "amount",
          "type": "uint256"
        },
        {
          "internalType": "uint256",
          "name": "maxAmount",
          "type": "uint256"
        }
      ],
      "name": "ExceedsMaxTransferAmount",
      "type": "error"
    },
    {
      "inputs": [],
      "name": "ExpectedPause",
      "type": "error"
    },
    {
      "inputs": [
        {
          "internalType": "uint256",
          "name": "available",
          "type": "uint256"
        },
        {
          "internalType": "uint256",
          "name": "requested",
          "type": "uint256"
        }
      ],
      "name": "InsufficientBalance",
      "type": "error"
    },
    {
      "inputs": [
        {
          "internalType": "uint256",
          "name": "duration",
          "type": "uint256"
        }
      ],
      "name": "InvalidLockDuration",
      "type": "error"
    },
    {
      "inputs": [
        {
          "internalType": "uint256",
          "name": "amount",
          "type": "uint256"
        }
      ],
      "name": "InvalidMintAmount",
      "type": "error"
    },
    {
      "inputs": [],
      "name": "InvalidName",
      "type": "error"
    },
    {
      "inputs": [],
      "name": "InvalidProposal",
      "type": "error"
    },
    {
      "inputs": [],
      "name": "InvalidSymbol",
      "type": "error"
    },
    {
      "inputs": [],
      "name": "InvalidVotingPower",
      "type": "error"
    },
    {
      "inputs": [
        {
          "internalType": "uint256",
          "name": "unlockTime",
          "type": "uint256"
        }
      ],
      "name": "LockNotExpired",
      "type": "error"
    },
    {
      "inputs": [],
      "name": "MintingPaused",
      "type": "error"
    },
    {
      "inputs": [
        {
          "internalType": "address",
          "name": "holder",
          "type": "address"
        }
      ],
      "name": "NoLockedTokens",
      "type": "error"
    },
    {
      "inputs": [
        {
          "internalType": "address",
          "name": "owner",
          "type": "address"
        }
      ],
      "name": "OwnableInvalidOwner",
      "type": "error"
    },
    {
      "inputs": [
        {
          "internalType": "address",
          "name": "account",
          "type": "address"
        }
      ],
      "name": "OwnableUnauthorizedAccount",
      "type": "error"
    },
    {
      "inputs": [],
      "name": "ProposalNotActive",
      "type": "error"
    },
    {
      "inputs": [],
      "name": "QuorumNotReached",
      "type": "error"
    },
    {
      "inputs": [],
      "name": "ReentrancyGuardReentrantCall",
      "type": "error"
    },
    {
      "inputs": [
        {
          "internalType": "address",
          "name": "holder",
          "type": "address"
        }
      ],
      "name": "TokensAlreadyLocked",
      "type": "error"
    },
    {
      "inputs": [
        {
          "internalType": "address",
          "name": "holder",
          "type": "address"
        },
        {
          "internalType": "uint256",
          "name": "amount",
          "type": "uint256"
        },
        {
          "internalType": "uint256",
          "name": "unlockTime",
          "type": "uint256"
        }
      ],
      "name": "TransferLocked",
      "type": "error"
    },
    {
      "inputs": [],
      "name": "ZeroAddress",
      "type": "error"
    },
    {
      "inputs": [],
      "name": "ZeroAmount",
      "type": "error"
    },
    {
      "anonymous": false,
      "inputs": [
        {
          "indexed": true,
          "internalType": "address",
          "name": "owner",
          "type": "address"
        },
        {
          "indexed": true,
          "internalType": "address",
          "name": "spender",
          "type": "address"
        },
        {
          "indexed": false,
          "internalType": "uint256",
          "name": "value",
          "type": "uint256"
        }
      ],
      "name": "Approval",
      "type": "event"
    },
    {
      "anonymous": false,
      "inputs": [
        {
          "indexed": true,
          "internalType": "address",
          "name": "lpToken",
          "type": "address"
        },
        {
          "indexed": false,
          "internalType": "uint256",
          "name": "amount",
          "type": "uint256"
        },
        {
          "indexed": false,
          "internalType": "uint256",
          "name": "unlockTime",
          "type": "uint256"
        }
      ],
      "name": "LiquidityLocked",
      "type": "event"
    },
    {
      "anonymous": false,
      "inputs": [
        {
          "indexed": false,
          "internalType": "uint256",
          "name": "oldAmount",
          "type": "uint256"
        },
        {
          "indexed": false,
          "internalType": "uint256",
          "name": "newAmount",
          "type": "uint256"
        }
      ],
      "name": "MaxHoldingUpdated",
      "type": "event"
    },
    {
      "anonymous": false,
      "inputs": [
        {
          "indexed": false,
          "internalType": "uint256",
          "name": "oldAmount",
          "type": "uint256"
        },
        {
          "indexed": false,
          "internalType": "uint256",
          "name": "newAmount",
          "type": "uint256"
        }
      ],
      "name": "MaxTransferAmountUpdated",
      "type": "event"
    },
    {
      "anonymous": false,
      "inputs": [
        {
          "indexed": true,
          "internalType": "address",
          "name": "previousOwner",
          "type": "address"
        },
        {
          "indexed": true,
          "internalType": "address",
          "name": "newOwner",
          "type": "address"
        }
      ],
      "name": "OwnershipTransferred",
      "type": "event"
    },
    {
      "anonymous": false,
      "inputs": [
        {
          "indexed": false,
          "internalType": "address",
          "name": "account",
          "type": "address"
        }
      ],
      "name": "Paused",
      "type": "event"
    },
    {
      "anonymous": false,
      "inputs": [
        {
          "indexed": true,
          "internalType": "uint256",
          "name": "proposalId",
          "type": "uint256"
        },
        {
          "indexed": true,
          "internalType": "address",
          "name": "creator",
          "type": "address"
        },
        {
          "indexed": false,
          "internalType": "string",
          "name": "description",
          "type": "string"
        }
      ],
      "name": "ProposalCreated",
      "type": "event"
    },
    {
      "anonymous": false,
      "inputs": [
        {
          "indexed": true,
          "internalType": "uint256",
          "name": "proposalId",
          "type": "uint256"
        }
      ],
      "name": "ProposalExecuted",
      "type": "event"
    },
    {
      "anonymous": false,
      "inputs": [
        {
          "indexed": false,
          "internalType": "uint256",
          "name": "amount",
          "type": "uint256"
        },
        {
          "indexed": false,
          "internalType": "uint256",
          "name": "price",
          "type": "uint256"
        }
      ],
      "name": "StabilityBurn",
      "type": "event"
    },
    {
      "anonymous": false,
      "inputs": [
        {
          "indexed": false,
          "internalType": "uint256",
          "name": "amount",
          "type": "uint256"
        },
        {
          "indexed": false,
          "internalType": "uint256",
          "name": "price",
          "type": "uint256"
        }
      ],
      "name": "StabilityMint",
      "type": "event"
    },
    {
      "anonymous": false,
      "inputs": [
        {
          "indexed": true,
          "internalType": "address",
          "name": "holder",
          "type": "address"
        },
        {
          "indexed": false,
          "internalType": "uint256",
          "name": "amount",
          "type": "uint256"
        },
        {
          "indexed": false,
          "internalType": "uint256",
          "name": "unlockTime",
          "type": "uint256"
        }
      ],
      "name": "TokensLocked",
      "type": "event"
    },
    {
      "anonymous": false,
      "inputs": [
        {
          "indexed": true,
          "internalType": "address",
          "name": "holder",
          "type": "address"
        },
        {
          "indexed": false,
          "internalType": "uint256",
          "name": "amount",
          "type": "uint256"
        }
      ],
      "name": "TokensUnlocked",
      "type": "event"
    },
    {
      "anonymous": false,
      "inputs": [
        {
          "indexed": true,
          "internalType": "address",
          "name": "from",
          "type": "address"
        },
        {
          "indexed": true,
          "internalType": "address",
          "name": "to",
          "type": "address"
        },
        {
          "indexed": false,
          "internalType": "uint256",
          "name": "value",
          "type": "uint256"
        }
      ],
      "name": "Transfer",
      "type": "event"
    },
    {
      "anonymous": false,
      "inputs": [
        {
          "indexed": false,
          "internalType": "address",
          "name": "account",
          "type": "address"
        }
      ],
      "name": "Unpaused",
      "type": "event"
    },
    {
      "anonymous": false,
      "inputs": [
        {
          "indexed": true,
          "internalType": "uint256",
          "name": "proposalId",
          "type": "uint256"
        },
        {
          "indexed": true,
          "internalType": "address",
          "name": "voter",
          "type": "address"
        },
        {
          "indexed": false,
          "internalType": "bool",
          "name": "support",
          "type": "bool"
        },
        {
          "indexed": false,
          "internalType": "uint256",
          "name": "weight",
          "type": "uint256"
        }
      ],
      "name": "VoteCast",
      "type": "event"
    },
    {
      "inputs": [],
      "name": "MAX_LOCK_DURATION",
      "outputs": [
        {
          "internalType": "uint256",
          "name": "",
          "type": "uint256"
        }
      ],
      "stateMutability": "view",
      "type": "function"
    },
    {
      "inputs": [],
      "name": "MAX_SUPPLY",
      "outputs": [
        {
          "internalType": "uint256",
          "name": "",
          "type": "uint256"
        }
      ],
      "stateMutability": "view",
      "type": "function"
    },
    {
      "inputs": [],
      "name": "MIN_LOCK_DURATION",
      "outputs": [
        {
          "internalType": "uint256",
          "name": "",
          "type": "uint256"
        }
      ],
      "stateMutability": "view",
      "type": "function"
    },
    {
      "inputs": [],
      "name": "QUORUM_PERCENTAGE",
      "outputs": [
        {
          "internalType": "uint256",
          "name": "",
          "type": "uint256"
        }
      ],
      "stateMutability": "view",
      "type": "function"
    },
    {
      "inputs": [],
      "name": "TRANSFER_COOLDOWN",
      "outputs": [
        {
          "internalType": "uint256",
          "name": "",
          "type": "uint256"
        }
      ],
      "stateMutability": "view",
      "type": "function"
    },
    {
      "inputs": [],
      "name": "VOTING_PERIOD",
      "outputs": [
        {
          "internalType": "uint256",
          "name": "",
          "type": "uint256"
        }
      ],
      "stateMutability": "view",
      "type": "function"
    },
    {
      "inputs": [
        {
          "internalType": "address",
          "name": "owner",
          "type": "address"
        },
        {
          "internalType": "address",
          "name": "spender",
          "type": "address"
        }
      ],
      "name": "allowance",
      "outputs": [
        {
          "internalType": "uint256",
          "name": "",
          "type": "uint256"
        }
      ],
      "stateMutability": "view",
      "type": "function"
    },
    {
      "inputs": [
        {
          "internalType": "address",
          "name": "spender",
          "type": "address"
        },
        {
          "internalType": "uint256",
          "name": "value",
          "type": "uint256"
        }
      ],
      "name": "approve",
      "outputs": [
        {
          "internalType": "bool",
          "name": "",
          "type": "bool"
        }
      ],
      "stateMutability": "nonpayable",
      "type": "function"
    },
    {
      "inputs": [
        {
          "internalType": "address",
          "name": "account",
          "type": "address"
        }
      ],
      "name": "balanceOf",
      "outputs": [
        {
          "internalType": "uint256",
          "name": "",
          "type": "uint256"
        }
      ],
      "stateMutability": "view",
      "type": "function"
    },
    {
      "inputs": [
        {
          "internalType": "uint256",
          "name": "value",
          "type": "uint256"
        }
      ],
      "name": "burn",
      "outputs": [],
      "stateMutability": "nonpayable",
      "type": "function"
    },
    {
      "inputs": [
        {
          "internalType": "address",
          "name": "account",
          "type": "address"
        },
        {
          "internalType": "uint256",
          "name": "value",
          "type": "uint256"
        }
      ],
      "name": "burnFrom",
      "outputs": [],
      "stateMutability": "nonpayable",
      "type": "function"
    },
    {
      "inputs": [],
      "name": "burningEnabled",
      "outputs": [
        {
          "internalType": "bool",
          "name": "",
          "type": "bool"
        }
      ],
      "stateMutability": "view",
      "type": "function"
    },
    {
      "inputs": [
        {
          "internalType": "string",
          "name": "description",
          "type": "string"
        }
      ],
      "name": "createProposal",
      "outputs": [
        {
          "internalType": "uint256",
          "name": "",
          "type": "uint256"
        }
      ],
      "stateMutability": "nonpayable",
      "type": "function"
    },
    {
      "inputs": [],
      "name": "decimals",
      "outputs": [
        {
          "internalType": "uint8",
          "name": "",
          "type": "uint8"
        }
      ],
      "stateMutability": "view",
      "type": "function"
    },
    {
      "inputs": [],
      "name": "emergencyPause",
      "outputs": [],
      "stateMutability": "nonpayable",
      "type": "function"
    },
    {
      "inputs": [
        {
          "internalType": "address",
          "name": "lpToken",
          "type": "address"
        }
      ],
      "name": "emergencyUnlockLiquidity",
      "outputs": [],
      "stateMutability": "nonpayable",
      "type": "function"
    },
    {
      "inputs": [],
      "name": "emergencyUnpause",
      "outputs": [],
      "stateMutability": "nonpayable",
      "type": "function"
    },
    {
      "inputs": [
        {
          "internalType": "uint256",
          "name": "proposalId",
          "type": "uint256"
        }
      ],
      "name": "executeProposal",
      "outputs": [],
      "stateMutability": "nonpayable",
      "type": "function"
    },
    {
      "inputs": [
        {
          "internalType": "address",
          "name": "holder",
          "type": "address"
        }
      ],
      "name": "getAvailableBalance",
      "outputs": [
        {
          "internalType": "uint256",
          "name": "",
          "type": "uint256"
        }
      ],
      "stateMutability": "view",
      "type": "function"
    },
    {
      "inputs": [
        {
          "internalType": "address",
          "name": "holder",
          "type": "address"
        }
      ],
      "name": "getLockedTokens",
      "outputs": [
        {
          "internalType": "uint256",
          "name": "amount",
          "type": "uint256"
        },
        {
          "internalType": "uint256",
          "name": "unlockTime",
          "type": "uint256"
        },
        {
          "internalType": "bool",
          "name": "isLocked",
          "type": "bool"
        }
      ],
      "stateMutability": "view",
      "type": "function"
    },
    {
      "inputs": [
        {
          "internalType": "uint256",
          "name": "proposalId",
          "type": "uint256"
        }
      ],
      "name": "getProposal",
      "outputs": [
        {
          "internalType": "address",
          "name": "creator",
          "type": "address"
        },
        {
          "internalType": "string",
          "name": "description",
          "type": "string"
        },
        {
          "internalType": "uint256",
          "name": "votesFor",
          "type": "uint256"
        },
        {
          "internalType": "uint256",
          "name": "votesAgainst",
          "type": "uint256"
        },
        {
          "internalType": "uint256",
          "name": "endTime",
          "type": "uint256"
        },
        {
          "internalType": "bool",
          "name": "executed",
          "type": "bool"
        },
        {
          "internalType": "bool",
          "name": "active",
          "type": "bool"
        }
      ],
      "stateMutability": "view",
      "type": "function"
    },
    {
      "inputs": [],
      "name": "governanceEnabled",
      "outputs": [
        {
          "internalType": "bool",
          "name": "",
          "type": "bool"
        }
      ],
      "stateMutability": "view",
      "type": "function"
    },
    {
      "inputs": [
        {
          "internalType": "uint256",
          "name": "proposalId",
          "type": "uint256"
        },
        {
          "internalType": "address",
          "name": "voter",
          "type": "address"
        }
      ],
      "name": "hasVoted",
      "outputs": [
        {
          "internalType": "bool",
          "name": "",
          "type": "bool"
        }
      ],
      "stateMutability": "view",
      "type": "function"
    },
    {
      "inputs": [
        {
          "internalType": "address",
          "name": "",
          "type": "address"
        }
      ],
      "name": "isWhitelisted",
      "outputs": [
        {
          "internalType": "bool",
          "name": "",
          "type": "bool"
        }
      ],
      "stateMutability": "view",
      "type": "function"
    },
    {
      "inputs": [
        {
          "internalType": "address",
          "name": "",
          "type": "address"
        }
      ],
      "name": "lastTransferTime",
      "outputs": [
        {
          "internalType": "uint256",
          "name": "",
          "type": "uint256"
        }
      ],
      "stateMutability": "view",
      "type": "function"
    },
    {
      "inputs": [
        {
          "internalType": "address",
          "name": "",
          "type": "address"
        }
      ],
      "name": "liquidityLocks",
      "outputs": [
        {
          "internalType": "uint256",
          "name": "amount",
          "type": "uint256"
        },
        {
          "internalType": "uint256",
          "name": "unlockTime",
          "type": "uint256"
        },
        {
          "internalType": "bool",
          "name": "isLocked",
          "type": "bool"
        }
      ],
      "stateMutability": "view",
      "type": "function"
    },
    {
      "inputs": [
        {
          "internalType": "address",
          "name": "lpToken",
          "type": "address"
        },
        {
          "internalType": "uint256",
          "name": "amount",
          "type": "uint256"
        },
        {
          "internalType": "uint256",
          "name": "duration",
          "type": "uint256"
        }
      ],
      "name": "lockLiquidity",
      "outputs": [],
      "stateMutability": "nonpayable",
      "type": "function"
    },
    {
      "inputs": [
        {
          "internalType": "uint256",
          "name": "amount",
          "type": "uint256"
        },
        {
          "internalType": "uint256",
          "name": "duration",
          "type": "uint256"
        }
      ],
      "name": "lockTokens",
      "outputs": [],
      "stateMutability": "nonpayable",
      "type": "function"
    },
    {
      "inputs": [
        {
          "internalType": "address",
          "name": "",
          "type": "address"
        }
      ],
      "name": "lockedTokens",
      "outputs": [
        {
          "internalType": "uint256",
          "name": "amount",
          "type": "uint256"
        },
        {
          "internalType": "uint256",
          "name": "unlockTime",
          "type": "uint256"
        },
        {
          "internalType": "bool",
          "name": "isLocked",
          "type": "bool"
        }
      ],
      "stateMutability": "view",
      "type": "function"
    },
    {
      "inputs": [],
      "name": "maxHolding",
      "outputs": [
        {
          "internalType": "uint256",
          "name": "",
          "type": "uint256"
        }
      ],
      "stateMutability": "view",
      "type": "function"
    },
    {
      "inputs": [],
      "name": "maxTransferAmount",
      "outputs": [
        {
          "internalType": "uint256",
          "name": "",
          "type": "uint256"
        }
      ],
      "stateMutability": "view",
      "type": "function"
    },
    {
      "inputs": [],
      "name": "mintingEnabled",
      "outputs": [
        {
          "internalType": "bool",
          "name": "",
          "type": "bool"
        }
      ],
      "stateMutability": "view",
      "type": "function"
    },
    {
      "inputs": [],
      "name": "name",
      "outputs": [
        {
          "internalType": "string",
          "name": "",
          "type": "string"
        }
      ],
      "stateMutability": "view",
      "type": "function"
    },
    {
      "inputs": [],
      "name": "owner",
      "outputs": [
        {
          "internalType": "address",
          "name": "",
          "type": "address"
        }
      ],
      "stateMutability": "view",
      "type": "function"
    },
    {
      "inputs": [],
      "name": "paused",
      "outputs": [
        {
          "internalType": "bool",
          "name": "",
          "type": "bool"
        }
      ],
      "stateMutability": "view",
      "type": "function"
    },
    {
      "inputs": [],
      "name": "proposalCount",
      "outputs": [
        {
          "internalType": "uint256",
          "name": "",
          "type": "uint256"
        }
      ],
      "stateMutability": "view",
      "type": "function"
    },
    {
      "inputs": [
        {
          "internalType": "uint256",
          "name": "",
          "type": "uint256"
        }
      ],
      "name": "proposals",
      "outputs": [
        {
          "internalType": "uint256",
          "name": "id",
          "type": "uint256"
        },
        {
          "internalType": "address",
          "name": "creator",
          "type": "address"
        },
        {
          "internalType": "string",
          "name": "description",
          "type": "string"
        },
        {
          "internalType": "uint256",
          "name": "votesFor",
          "type": "uint256"
        },
        {
          "internalType": "uint256",
          "name": "votesAgainst",
          "type": "uint256"
        },
        {
          "internalType": "uint256",
          "name": "endTime",
          "type": "uint256"
        },
        {
          "internalType": "bool",
          "name": "executed",
          "type": "bool"
        },
        {
          "internalType": "bool",
          "name": "active",
          "type": "bool"
        }
      ],
      "stateMutability": "view",
      "type": "function"
    },
    {
      "inputs": [],
      "name": "renounceOwnership",
      "outputs": [],
      "stateMutability": "nonpayable",
      "type": "function"
    },
    {
      "inputs": [
        {
          "internalType": "bool",
          "name": "enabled",
          "type": "bool"
        }
      ],
      "name": "setBurningEnabled",
      "outputs": [],
      "stateMutability": "nonpayable",
      "type": "function"
    },
    {
      "inputs": [
        {
          "internalType": "bool",
          "name": "enabled",
          "type": "bool"
        }
      ],
      "name": "setGovernanceEnabled",
      "outputs": [],
      "stateMutability": "nonpayable",
      "type": "function"
    },
    {
      "inputs": [
        {
          "internalType": "uint256",
          "name": "newAmount",
          "type": "uint256"
        }
      ],
      "name": "setMaxHolding",
      "outputs": [],
      "stateMutability": "nonpayable",
      "type": "function"
    },
    {
      "inputs": [
        {
          "internalType": "uint256",
          "name": "newAmount",
          "type": "uint256"
        }
      ],
      "name": "setMaxTransferAmount",
      "outputs": [],
      "stateMutability": "nonpayable",
      "type": "function"
    },
    {
      "inputs": [
        {
          "internalType": "bool",
          "name": "enabled",
          "type": "bool"
        }
      ],
      "name": "setMintingEnabled",
      "outputs": [],
      "stateMutability": "nonpayable",
      "type": "function"
    },
    {
      "inputs": [
        {
          "internalType": "uint256",
          "name": "newPrice",
          "type": "uint256"
        }
      ],
      "name": "setTargetPrice",
      "outputs": [],
      "stateMutability": "nonpayable",
      "type": "function"
    },
    {
      "inputs": [
        {
          "internalType": "bool",
          "name": "enabled",
          "type": "bool"
        }
      ],
      "name": "setTransferLimitsEnabled",
      "outputs": [],
      "stateMutability": "nonpayable",
      "type": "function"
    },
    {
      "inputs": [
        {
          "internalType": "address",
          "name": "account",
          "type": "address"
        },
        {
          "internalType": "bool",
          "name": "whitelisted",
          "type": "bool"
        }
      ],
      "name": "setWhitelisted",
      "outputs": [],
      "stateMutability": "nonpayable",
      "type": "function"
    },
    {
      "inputs": [
        {
          "internalType": "uint256",
          "name": "amount",
          "type": "uint256"
        },
        {
          "internalType": "uint256",
          "name": "currentPrice",
          "type": "uint256"
        }
      ],
      "name": "stabilityBurn",
      "outputs": [],
      "stateMutability": "nonpayable",
      "type": "function"
    },
    {
      "inputs": [
        {
          "internalType": "uint256",
          "name": "amount",
          "type": "uint256"
        },
        {
          "internalType": "uint256",
          "name": "currentPrice",
          "type": "uint256"
        }
      ],
      "name": "stabilityMint",
      "outputs": [],
      "stateMutability": "nonpayable",
      "type": "function"
    },
    {
      "inputs": [],
      "name": "stabilityThreshold",
      "outputs": [
        {
          "internalType": "uint256",
          "name": "",
          "type": "uint256"
        }
      ],
      "stateMutability": "view",
      "type": "function"
    },
    {
      "inputs": [],
      "name": "symbol",
      "outputs": [
        {
          "internalType": "string",
          "name": "",
          "type": "string"
        }
      ],
      "stateMutability": "view",
      "type": "function"
    },
    {
      "inputs": [],
      "name": "targetPrice",
      "outputs": [
        {
          "internalType": "uint256",
          "name": "",
          "type": "uint256"
        }
      ],
      "stateMutability": "view",
      "type": "function"
    },
    {
      "inputs": [],
      "name": "totalSupply",
      "outputs": [
        {
          "internalType": "uint256",
          "name": "",
          "type": "uint256"
        }
      ],
      "stateMutability": "view",
      "type": "function"
    },
    {
      "inputs": [
        {
          "internalType": "address",
          "name": "to",
          "type": "address"
        },
        {
          "internalType": "uint256",
          "name": "value",
          "type": "uint256"
        }
      ],
      "name": "transfer",
      "outputs": [
        {
          "internalType": "bool",
          "name": "",
          "type": "bool"
        }
      ],
      "stateMutability": "nonpayable",
      "type": "function"
    },
    {
      "inputs": [
        {
          "internalType": "address",
          "name": "from",
          "type": "address"
        },
        {
          "internalType": "address",
          "name": "to",
          "type": "address"
        },
        {
          "internalType": "uint256",
          "name": "value",
          "type": "uint256"
        }
      ],
      "name": "transferFrom",
      "outputs": [
        {
          "internalType": "bool",
          "name": "",
          "type": "bool"
        }
      ],
      "stateMutability": "nonpayable",
      "type": "function"
    },
    {
      "inputs": [],
      "name": "transferLimitsEnabled",
      "outputs": [
        {
          "internalType": "bool",
          "name": "",
          "type": "bool"
        }
      ],
      "stateMutability": "view",
      "type": "function"
    },
    {
      "inputs": [
        {
          "internalType": "address",
          "name": "newOwner",
          "type": "address"
        }
      ],
      "name": "transferOwnership",
      "outputs": [],
      "stateMutability": "nonpayable",
      "type": "function"
    },
    {
      "inputs": [],
      "name": "unlockTokens",
      "outputs": [],
      "stateMutability": "nonpayable",
      "type": "function"
    },
    {
      "inputs": [
        {
          "internalType": "uint256",
          "name": "proposalId",
          "type": "uint256"
        },
        {
          "internalType": "bool",
          "name": "support",
          "type": "bool"
        }
      ],
      "name": "vote",
      "outputs": [],
      "stateMutability": "nonpayable",
      "type": "function"
    }
  ],
  "bytecode": "0x604060a08152346200057157620029d5803803806200001e8162000576565b928339810190608081830312620005715780516001600160401b039290838111620005715781620000519184016200059c565b602091828401519085821162000571576200006e9185016200059c565b9360608685015194015160018060a01b039485821696878303620005715784519684881162000473576003948554956001998a88811c9816801562000566575b8a8910146200055057601f9788811162000505575b50808a898211600114620004955760009162000489575b5060001982841b1c1916908b1b1781555b8351918211620004735760049687548b81811c9116801562000468575b8b821014620004535790818185949311620003fb575b508a908311600114620003925760009262000386575b50828b1b92600019911b1c19161785555b88156200036f5760058054610100600160a81b03198116600887811b610100600160a81b0316919091179092558b51928b929190911c167f8be0079c531659141344cd1fd0a4f28419497f9722a3daafe3b4186f6b6457e0600080a38760065569d3c21bcecceda1000000600e55670de0b6b3a76400009586600f55630101010163ffffffff196010541617601055511562000361575051156200035157801562000341578381029381850403620003025783608052678ac7230489e80000810291841592858104600a148417156200032c57606490046801158e460913d0000083028681046014148517156200031757916200026d916200026760646200027495049162000260836200025a838d6200060e565b6200060e565b9362000640565b62000632565b3062000640565b83800486148217156200030257674563918244f400009060648504600b55029283046005141715620002ed575090606460099204600c553060005252826000209160ff199282848254161790556000528260002091825416179055516122fd9081620006d8823960805181818161050b015261178b0152f35b601190634e487b7160e01b6000525260246000fd5b601183634e487b7160e01b6000525260246000fd5b601186634e487b7160e01b6000525260246000fd5b601185634e487b7160e01b6000525260246000fd5b8751631f2a200560e01b81528390fd5b875163010466f160e21b81528390fd5b63430f13b360e01b81528490fd5b8951631e4fbdf760e01b8152600081870152602490fd5b85015191503862000134565b908b9350601f19831691896000528b6000209260005b8d828210620003e45750508411620003c9575b505050811b01855562000145565b8601519060f884600019921b161c19169055388080620003bb565b838a015186558f97909501949283019201620003a8565b90919250886000528a6000208280860160051c8201928d871062000449575b918e9187969594930160051c01915b828110620004395750506200011e565b600081558695508e910162000429565b925081926200041a565b602289634e487b7160e01b6000525260246000fd5b90607f169062000108565b634e487b7160e01b600052604160045260246000fd5b905089015138620000da565b60008481528c81208e94509190601f198416908e8e5b838310620004e4575050508311620004cb575b5050811b018155620000eb565b8b015160001983861b60f8161c191690553880620004be565b94848294959798929396015181550194019201908e949392918e8e620004ab565b826000528a6000208980840160051c8201928d851062000546575b0160051c01908c905b82811062000539575050620000c3565b60008155018c9062000529565b9250819262000520565b634e487b7160e01b600052602260045260246000fd5b97607f1697620000ae565b600080fd5b6040519190601f01601f191682016001600160401b038111838210176200047357604052565b919080601f84011215620005715782516001600160401b0381116200047357602090620005d2601f8201601f1916830162000576565b92818452828287010111620005715760005b818110620005fa57508260009394955001015290565b8581018301518482018401528201620005e4565b919082039182116200061c57565b634e487b7160e01b600052601160045260246000fd5b919082018092116200061c57565b6001600160a01b0316908115620006be5760ff60055416620006ac577fddf252ad1be2c89b69c2b068fc378daa952ba7f163c4a11628f55a4df523b3ef6020826200069060009460025462000632565b60025584845283825260408420818154019055604051908152a3565b60405163d93c066560e01b8152600490fd5b60405163ec442f0560e01b815260006004820152602490fdfe6040608081526004908136101561001557600080fd5b600091823560e01c8063013cf08b14611af257806306fdde0314611a17578063095ea7b31461196e5780630b3978fc146119475780630d2d8a311461190f5780630d61b5191461182657806318160ddd1461180757806323b872dd146117ca578063313ce567146117ae57806332cb6b0c14611773578063333e6f06146117545780633af32abf1461171657806342966c68146116f857806343859632146116af57806349c2a1a6146113f05780634a4e3bd5146113875780634d754715146113605780634ea3871a146113245780634f1bfc9e1461130557806351858e27146112aa5780635c975abb146112865780635eb7413a1461122c5780636a64eff81461120a5780636b2d95d41461118e5780636c24a76f146111615780636cf5bb631461110757806370a08231146110d0578063715018a61461106f57806378b4330f1461105157806379cc6790146110215780637a4a34121461100457806381eaae4814610fc657806389158d8e14610e955780638bf5540914610e415780638da5cb5b14610e145780639281aa0b14610dbf57806395d89b4114610cd057806396ae946f14610b645780639bc7c8c014610b105780639fd6db1214610ae9578063a9059cbb14610ab8578063a9e7572314610a99578063acaefb2014610a64578063acec8ca914610a45578063ad32be6a14610a21578063b1610d7e14610a03578063c7f758a814610970578063c9d27afe1461085c578063ce144e0a146106fa578063ce2661f1146106b7578063da35c66414610698578063dc38679c14610679578063dd62ed3e14610630578063deefce68146104ce578063ee5967f51461040b578063ee8a7c15146103eb578063f2fde38b1461034f5763f968f4931461029f57600080fd5b3461034b578260031936011261034b5733835260076020528183209060ff6002830154161561033457600182015480421061031e575050549033835260076020528260028282208281558260018201550155519081527fe7b379c6c1fa169e9079c25e9143b127637eef8ec8c9d5c06ddb4ab3e119588860203392a280f35b835163d36971e360e01b81529182015260249150fd5b6024908351906316b5a5ef60e01b82523390820152fd5b8280fd5b503461034b57602036600319011261034b57610369611d05565b6103716120aa565b6001600160a01b038181169390929084156103d557505060058054610100600160a81b03198116600893841b610100600160a81b031617909155901c167f8be0079c531659141344cd1fd0a4f28419497f9722a3daafe3b4186f6b6457e08380a380f35b51631e4fbdf760e01b8152908101859052602490fd5b50503461040757816003193601126104075760209051600a8152f35b5080fd5b50903461034b5761041b36611d54565b926104246120aa565b60ff60105460101c16156104c05781156104b2573085528460205282852054828110610497575050600f548310610459578380f35b7f5f22dc3acaec5eff838f7bd63e00f420f4441b015ab564298c79b9f1cda38b2f926104858230612003565b82519182526020820152a13880808380f35b9160449284519263cf47918160e01b84528301526024820152fd5b8251631f2a200560e01b8152fd5b825163b063598560e01b8152fd5b50919034610407576104df36611d54565b6104e76120aa565b60ff60105460081c161561062057811561060957600254946105098387611d6a565b7f0000000000000000000000000000000000000000000000000000000000000000106105f257600f548211806105e7575b610542578480f35b30156105d0575061057d827f2bf03ee653234e47dfb7f1bfefeac974247a204c1a68d5a2179e120ad1200a0395966105786120d9565b611d6a565b600255308552846020528285208281540190558251828152857fddf252ad1be2c89b69c2b068fc378daa952ba7f163c4a11628f55a4df523b3ef60203093a382519182526020820152a180388080808480f35b835163ec442f0560e01b8152908101859052602490fd5b50600e54861061053a565b835163383ecc7560e21b8152908101839052602490fd5b825163383ecc7560e21b8152808601839052602490fd5b82516375ab03ab60e11b81528590fd5b5050346104075780600319360112610407578060209261064e611d05565b610656611d20565b6001600160a01b0391821683526001865283832091168252845220549051908152f35b505034610407578160031936011261040757602090600f549051908152f35b505034610407578160031936011261040757602090600d549051908152f35b83346106f75760203660031901126106f7576106d1611d36565b6106d96120aa565b63ff00000060105491151560181b169063ff00000019161760105580f35b80fd5b503461034b57606036600319011261034b57610714611d05565b91602435604435936107246120aa565b6001600160a01b031692831561084e5781156104b257620151808510610837578251906323b872dd60e01b8252339082015230602482015281604482015260209081816064818a895af1801561082d57956107a8917fe3afae9ec63e6f2e914c17bab8493b603680a72d9e6dfacf25ac6a4806555d419697610800575b5042611d6a565b906107f484516107b781611bcc565b848152600283820185815287830190600182528a8c5260118652888c209351845551600184015551151591019060ff801983541691151516179055565b8351928352820152a280f35b61081f90843d8611610826575b6108178183611bfe565b810190611e24565b50386107a1565b503d61080d565b84513d89823e3d90fd5b82516346b60f8b60e01b8152908101859052602490fd5b825163d92e233d60e01b8152fd5b509190346104075780600319360112610407578235610879611d45565b91818452600a60205280842060ff600682015460081c16156109605760058101544210156109605760078101953386528660205260ff8387205416610952573386528560205282862054918215610943577fcbdf6214089cba887ecbf35a0b6a734589959c9763342c756bb2a80ca2bc9f6e94959697338952602052838820600160ff198254161790558660001461093057600391500161091b828254611d6a565b90555b8151941515855260208501523393a380f35b0161093c828254611d6a565b905561091e565b508251631ee7b5bd60e21b8152fd5b8251637c9a1cf960e01b8152fd5b8151637becc13f60e01b81528690fd5b5091346106f75760203660031901126106f757819083358152600a602052209060ff60018060a01b03600184015416926003810154948101546005820154906109c0600260068501549401611c20565b966109dc8651988998895260e060208a015260e0890190611cc5565b9587015260608601526080850152818116151560a085015260081c16151560c08301520390f35b5050346104075781600319360112610407576020905162093a808152f35b50503461040757816003193601126104075760209060ff6010541690519015158152f35b505034610407578160031936011261040757602090600e549051908152f35b83346106f75760203660031901126106f757610a7e611d36565b610a866120aa565b60ff801960105416911515161760105580f35b505034610407578160031936011261040757602090600b549051908152f35b505034610407578060031936011261040757602090610ae2610ad8611d05565b6024359033611f0f565b5160018152f35b50503461040757816003193601126104075760209060ff60105460081c1690519015158152f35b50903461034b57602036600319011261034b577f8a042c1cf423d7de2c3c2d014ebb0ec2bb4922c21ec17aae380eb45e4730eb209135610b4e6120aa565b600c549080600c5582519182526020820152a180f35b509190346104075760208060031936011261034b57610b81611d05565b93610b8a6120aa565b6001600160a01b0394851680855260118352838520600281015491929160ff1615610c9757600181015462278d008101809111610c8457421115610c4157859660055460081c1690549085519263a9059cbb60e01b84528301526024820152828160448188865af18015610c3757916002949391601193610c1a575b508552528220828155826001820155015580f35b610c3090833d8511610826576108178183611bfe565b5038610c06565b84513d87823e3d90fd5b845162461bcd60e51b8152808301859052601a60248201527f456d657267656e637920756e6c6f636b20746f6f206561726c790000000000006044820152606490fd5b634e487b7160e01b875260118352602487fd5b845162461bcd60e51b81528083018590526013602482015272139bc81b1a5c5d5a591a5d1e481b1bd8dad959606a1b6044820152606490fd5b50903461034b578260031936011261034b578051838194908454610cf381611b92565b9182855260209660019288600182169182600014610d95575050600114610d3a575b8588610d3689610d27848a0385611bfe565b51928284938452830190611cc5565b0390f35b815286935091907f8a35acfbc15ff81a39ae7d344fd709f28e8600b4aa8c65c6b64bfe7fe36bd19b5b828410610d7d5750505082010181610d27610d3638610d15565b8054848a018601528895508794909301928101610d63565b60ff19168882015294151560051b87019094019450859350610d279250610d369150389050610d15565b505034610407578060031936011261040757610e1190610ddd611d05565b90610de6611d45565b91610def6120aa565b60018060a01b03168452600960205283209060ff801983541691151516179055565b80f35b505034610407578160031936011261040757600554905160089190911c6001600160a01b03168152602090f35b50903461034b57602036600319011261034b577f1e7d225cb161c2f834852cd521d7ee05358af80025a0e937483c51e42bfc13de9135610e7f6120aa565b600b549080600b5582519182526020820152a180f35b50903461034b57610ea536611d54565b909283156104b2576201518082108015610fb9575b610fa457338552600760205260ff6002848720015416610f8d573385528460205282852054848110610f7157505090610f147fd741e738a23fd18a03a26522320d9fc6cac1fed483e215ea9150fbc2fc43385d9242611d6a565b610f618251610f2281611bcc565b8581526002602082018481528583019060018252338a526007602052868a209351845551600184015551151591019060ff801983541691151516179055565b815193845260208401523392a280f35b835163cf47918160e01b81529182015260248101849052604490fd5b602490835190630c943e6360e31b82523390820152fd5b91516346b60f8b60e01b815291820152602490fd5b506301e133808211610eba565b83346106f75760203660031901126106f757610fe0611d36565b610fe86120aa565b62ff000060105491151560101b169062ff000019161760105580f35b50503461040757816003193601126104075760209051610e108152f35b505034610407573660031901126106f757610e1161103d611d05565b6024359061104c823383611e3c565b612003565b50503461040757816003193601126104075760209051620151808152f35b83346106f757806003193601126106f7576110886120aa565b60058054610100600160a81b03198116909155819060081c6001600160a01b03167f8be0079c531659141344cd1fd0a4f28419497f9722a3daafe3b4186f6b6457e08280a380f35b5050346104075760203660031901126104075760209181906001600160a01b036110f8611d05565b16815280845220549051908152f35b505034610407576020366003190112610407579081906001600160a01b0361112d611d05565b168152601160209081529190208054600182015460029092015493519081529182015260ff90911615156040820152606090f35b50503461040757602036600319011261040757602090611187611182611d05565b611d8d565b9051908152f35b505034610407576020366003190112610407579081906001600160a01b036111b4611d05565b16815260076020522090610d368151916111cd83611bcc565b83548084526001850154602080860182905260029096015460ff161515948301859052915190815293840152604083019190915281906060820190565b838234610407576020366003190112610407576112256120aa565b35600f5580f35b505034610407576020366003190112610407579081906001600160a01b03611252611d05565b168152600760209081529190208054600182015460029092015493519081529182015260ff90911615156040820152606090f35b50503461040757816003193601126104075760209060ff6005541690519015158152f35b50503461040757816003193601126104075760207f62e78cea01bee320cd4e420270b5ea74000d11b0c9f74754ebdbfc544b05a258916112e86120aa565b6112f06120d9565b600160ff19600554161760055551338152a180f35b505034610407578160031936011261040757602090516301e133808152f35b83346106f75760203660031901126106f75761133e611d36565b6113466120aa565b61ff0060105491151560081b169061ff0019161760105580f35b50503461040757816003193601126104075760209060ff60105460101c1690519015158152f35b503461034b578260031936011261034b576113a06120aa565b6005549060ff8216156113e2575060ff1916600555513381527f5db9ee0a495bf2e6ff9c91a7834c1ba4fdd244a5e8aa4e537bd38aeae4b073aa90602090a180f35b8251638dfc202b60e01b8152fd5b50919034610407576020928360031936011261034b5780359067ffffffffffffffff908183116116ab57366023840112156116ab57828101359460249083871161169b57601f199686519561144c8a8a601f8501160188611bfe565b8187523684838301011161034b57818392858c9301838a01378701015260ff60105460181c161561168b573381528088528581205496600254976001988080048a148115171561166857606490041161167b57600d549760001995868a1461166857818a01600d55898452600a8b52888420968a8855828801336bffffffffffffffffffffffff60a01b82541617905560028801938951928311611656578c6114f58654611b92565b601f811161160e575b50508c8091601f85116001146115aa57505082938391879461159f575b501b9260031b1c19161790555b62093a8042019283421161158f575050509060069160058201550161010061ff0019825416179055827f7585f467599d0f008985f231af99293be388626ac16ca59505c2f8f88969cd63835186815280611586339589830190611cc5565b0390a351908152f35b634e487b7160e01b825260119052fd5b8b015193503861151b565b86885281882093929185918216908990888f5b8484106115f35750505050106115db575b505050811b019055611528565b8a01519060f88460031b161c191690553880806115ce565b8601518855909601959384019387935090810190888f6115bd565b86885281882090601f860160051c820192861061164c575b601f0160051c019085905b82811061164157508e91506114fe565b888155018590611631565b9091508190611626565b634e487b7160e01b8652604188528686fd5b5050634e487b7160e01b82525060118352fd5b8651631ee7b5bd60e21b81528490fd5b8551631ee7b5bd60e21b81528390fd5b634e487b7160e01b815260418352fd5b8480fd5b503461034b578160031936011261034b578160209360ff926116cf611d20565b90358252600a86528282206001600160a01b039091168252600701855220549151911615158152f35b83823461040757602036600319011261040757610e11903533612003565b5050346104075760203660031901126104075760209160ff9082906001600160a01b03611741611d05565b1681526009855220541690519015158152f35b505034610407578160031936011261040757602090600c549051908152f35b505034610407578160031936011261040757602090517f00000000000000000000000000000000000000000000000000000000000000008152f35b5050346104075781600319360112610407576020905160128152f35b50503461040757606036600319011261040757602090610ae26117eb611d05565b6117f3611d20565b60443591611802833383611e3c565b611f0f565b5050346104075781600319360112610407576020906002549051908152f35b50903461034b57602036600319011261034b57813591828452600a60205281842090600682019283549260ff8460081c16156118f357600581015442106119015760ff84166118f35760038101549083015461188191611d6a565b600254600a810290808204600a14901517156118e05760649004116118d357505061ffff191660011790557f712ae1383f79ac853f8d882153778e0260ef8f03b504e2866e0593e04d2b291f8280a280f35b5163aa26a69360e01b8152fd5b634e487b7160e01b885260118452602488fd5b5051631dc0650160e31b8152fd5b5051637becc13f60e01b8152fd5b5050346104075760203660031901126104075760209181906001600160a01b03611937611d05565b1681526008845220549051908152f35b50503461040757816003193601126104075760209060ff60105460181c1690519015158152f35b503461034b578160031936011261034b57611987611d05565b602435903315611a00576001600160a01b03169182156119e957508083602095338152600187528181208582528752205582519081527f8c5be1e5ebec7d5bd14f71427d1e84f3dd0314c0f7b2291e5b200ac8c7c3b925843392a35160018152f35b8351634a1406b160e11b8152908101859052602490fd5b835163e602df0560e01b8152808401869052602490fd5b8284346106f757806003193601126106f7578151918282600354611a3a81611b92565b9081845260209560019187600182169182600014611acb575050600114611a6f575b505050610d369291610d27910385611bfe565b9190869350600383527fc2575a0e9e593c00f959f8c92f12db2869c3395a3b0502d05e2516446f71f85b5b828410611ab35750505082010181610d27610d36611a5c565b8054848a018601528895508794909301928101611a9a565b60ff19168782015293151560051b86019093019350849250610d279150610d369050611a5c565b5091346106f75760203660031901126106f75782358152600a6020528190208054600182015490939160ff916001600160a01b031690611b3460028201611c20565b611b696003830154958301549160066005850154940154948851998a996101009283928c5260208c01528a0152880190611cc5565b946060870152608086015260a0850152818116151560c085015260081c16151560e08301520390f35b90600182811c92168015611bc2575b6020831014611bac57565b634e487b7160e01b600052602260045260246000fd5b91607f1691611ba1565b6060810190811067ffffffffffffffff821117611be857604052565b634e487b7160e01b600052604160045260246000fd5b90601f8019910116810190811067ffffffffffffffff821117611be857604052565b90604051918260008254611c3381611b92565b90818452602094600191600181169081600014611ca35750600114611c64575b505050611c6292500383611bfe565b565b600090815285812095935091905b818310611c8b575050611c629350820101388080611c53565b85548884018501529485019487945091830191611c72565b92505050611c6294925060ff191682840152151560051b820101388080611c53565b919082519283825260005b848110611cf1575050826000602080949584010152601f8019910116010190565b602081830181015184830182015201611cd0565b600435906001600160a01b0382168203611d1b57565b600080fd5b602435906001600160a01b0382168203611d1b57565b600435908115158203611d1b57565b602435908115158203611d1b57565b6040906003190112611d1b576004359060243590565b91908201809211611d7757565b634e487b7160e01b600052601160045260246000fd5b60009060018060a01b03168152806020526040812054906007602052604081206040805191611dbb83611bcc565b80549283815260ff60026001840154938460208501520154161515928391015281611e1a575b50611deb57505090565b80831115611e14578203918211611e00575090565b634e487b7160e01b81526011600452602490fd5b50905090565b9050421038611de1565b90816020910312611d1b57518015158103611d1b5790565b9160018060a01b038093169160009383855260016020526040938486209183169182875260205284862054926000198410611e7b575b50505050505050565b848410611edf57508015611ec7578115611eaf57855260016020528385209085526020520391205538808080808080611e72565b8451634a1406b160e11b815260048101879052602490fd5b845163e602df0560e01b815260048101879052602490fd5b8551637dc7a0d960e11b81526001600160a01b039190911660048201526024810184905260448101859052606490fd5b90916001600160a01b0380831692908315611fea578416938415611fd15782611f3891836120f7565b611f406120d9565b60009083825281602052604082205490838210611f9f575091604082827fddf252ad1be2c89b69c2b068fc378daa952ba7f163c4a11628f55a4df523b3ef958760209652828652038282205586815220818154019055604051908152a3565b60405163391434e360e21b81526001600160a01b03919091166004820152602481019190915260448101839052606490fd5b60405163ec442f0560e01b815260006004820152602490fd5b604051634b637e8f60e11b815260006004820152602490fd5b906001600160a01b038216908115611fea5761201d6120d9565b600092828452836020526040842054908282106120785750817fddf252ad1be2c89b69c2b068fc378daa952ba7f163c4a11628f55a4df523b3ef926020928587528684520360408620558060025403600255604051908152a3565b60405163391434e360e21b81526001600160a01b03919091166004820152602481019190915260448101829052606490fd5b60055460081c6001600160a01b031633036120c157565b60405163118cdaa760e01b8152336004820152602490fd5b60ff600554166120e557565b60405163d93c066560e01b8152600490fd5b9160018060a01b0390818416906000948286526020936007855260409586882060ff600282015416806122bc575b806122af575b61227c57508488526009865260ff8789205416801561226a575b6122605760ff60105416612165575b505050509060089184525242912055565b600b548085116122435750168087528685526121848387892054611d6a565b90600c548092116122135750508286526008845284862054610e10908181018091116121ff5742106121b65780612154565b85876008878783525281812054928301809311611e00575051630bb36add60e01b81526001600160a01b0392909216600483015260248201929092526044810191909152606490fd5b634e487b7160e01b88526011600452602488fd5b60449161222a85898b808b83978252522054611d6a565b915191637d22283760e01b835260048301526024820152fd5b8460449189519163cc32805360e01b835260048301526024820152fd5b5050505050505050565b50818116885260ff8789205416612145565b600101548751630bb36add60e01b81526001600160a01b0385166004820152602481018690526044810191909152606490fd5b506001810154421061212b565b50848154101561212556fea26469706673582212208272c88455024852497187845704491f93b50292ff33f71f1724fbf1975a010064736f6c63430008180033",
  "linkReferences": {},
  "deployedLinkReferences": {}
}