{
  "_format": "hh-sol-artifact-1",
  "contractName": "PumpFunGovernance",
  "sourceName": "contracts/PumpFunGovernance.sol",
  "abi": [
    {
      "inputs": [],
      "stateMutability": "nonpayable",
      "type": "constructor"
    },
    {
      "inputs": [
        {
          "internalType": "address",
          "name": "owner",
          "type": "address"
        }
      ],
      "name": "OwnableInvalidOwner",
      "type": "error"
    },
    {
      "inputs": [
        {
          "internalType": "address",
          "name": "account",
          "type": "address"
        }
      ],
      "name": "OwnableUnauthorizedAccount",
      "type": "error"
    },
    {
      "inputs": [],
      "name": "PumpFunGovernance__AlreadyVoted",
      "type": "error"
    },
    {
      "inputs": [],
      "name": "PumpFunGovernance__GovernanceDisabled",
      "type": "error"
    },
    {
      "inputs": [],
      "name": "PumpFunGovernance__InvalidAirdropArrays",
      "type": "error"
    },
    {
      "inputs": [],
      "name": "PumpFunGovernance__InvalidAirdropContract",
      "type": "error"
    },
    {
      "inputs": [],
      "name": "PumpFunGovernance__InvalidProposalType",
      "type": "error"
    },
    {
      "inputs": [],
      "name": "PumpFunGovernance__InvalidToken",
      "type": "error"
    },
    {
      "inputs": [],
      "name": "PumpFunGovernance__InvalidVotingPower",
      "type": "error"
    },
    {
      "inputs": [],
      "name": "PumpFunGovernance__NoVotingPower",
      "type": "error"
    },
    {
      "inputs": [],
      "name": "PumpFunGovernance__ProposalAlreadyExecuted",
      "type": "error"
    },
    {
      "inputs": [],
      "name": "PumpFunGovernance__ProposalNotActive",
      "type": "error"
    },
    {
      "inputs": [],
      "name": "PumpFunGovernance__QuorumNotReached",
      "type": "error"
    },
    {
      "inputs": [],
      "name": "PumpFunGovernance__VotingPeriodEnded",
      "type": "error"
    },
    {
      "inputs": [],
      "name": "PumpFunGovernance__VotingPeriodNotEnded",
      "type": "error"
    },
    {
      "inputs": [],
      "name": "ReentrancyGuardReentrantCall",
      "type": "error"
    },
    {
      "anonymous": false,
      "inputs": [
        {
          "indexed": true,
          "internalType": "address",
          "name": "oldAirdrop",
          "type": "address"
        },
        {
          "indexed": true,
          "internalType": "address",
          "name": "newAirdrop",
          "type": "address"
        }
      ],
      "name": "AirdropContractUpdated",
      "type": "event"
    },
    {
      "anonymous": false,
      "inputs": [
        {
          "indexed": false,
          "internalType": "bool",
          "name": "enabled",
          "type": "bool"
        }
      ],
      "name": "GovernanceEnabled",
      "type": "event"
    },
    {
      "anonymous": false,
      "inputs": [
        {
          "indexed": true,
          "internalType": "address",
          "name": "previousOwner",
          "type": "address"
        },
        {
          "indexed": true,
          "internalType": "address",
          "name": "newOwner",
          "type": "address"
        }
      ],
      "name": "OwnershipTransferred",
      "type": "event"
    },
    {
      "anonymous": false,
      "inputs": [
        {
          "indexed": true,
          "internalType": "uint256",
          "name": "proposalId",
          "type": "uint256"
        },
        {
          "indexed": true,
          "internalType": "address",
          "name": "creator",
          "type": "address"
        },
        {
          "indexed": false,
          "internalType": "address",
          "name": "token",
          "type": "address"
        },
        {
          "indexed": false,
          "internalType": "string",
          "name": "description",
          "type": "string"
        }
      ],
      "name": "ProposalCreated",
      "type": "event"
    },
    {
      "anonymous": false,
      "inputs": [
        {
          "indexed": true,
          "internalType": "uint256",
          "name": "proposalId",
          "type": "uint256"
        },
        {
          "indexed": true,
          "internalType": "address",
          "name": "executor",
          "type": "address"
        }
      ],
      "name": "ProposalExecuted",
      "type": "event"
    },
    {
      "anonymous": false,
      "inputs": [
        {
          "indexed": true,
          "internalType": "uint256",
          "name": "proposalId",
          "type": "uint256"
        },
        {
          "indexed": true,
          "internalType": "address",
          "name": "voter",
          "type": "address"
        },
        {
          "indexed": false,
          "internalType": "bool",
          "name": "support",
          "type": "bool"
        },
        {
          "indexed": false,
          "internalType": "uint256",
          "name": "votingPower",
          "type": "uint256"
        }
      ],
      "name": "VoteCast",
      "type": "event"
    },
    {
      "inputs": [],
      "name": "MINIMUM_VOTING_POWER",
      "outputs": [
        {
          "internalType": "uint256",
          "name": "",
          "type": "uint256"
        }
      ],
      "stateMutability": "view",
      "type": "function"
    },
    {
      "inputs": [],
      "name": "QUORUM_PERCENTAGE",
      "outputs": [
        {
          "internalType": "uint256",
          "name": "",
          "type": "uint256"
        }
      ],
      "stateMutability": "view",
      "type": "function"
    },
    {
      "inputs": [],
      "name": "VOTING_PERIOD",
      "outputs": [
        {
          "internalType": "uint256",
          "name": "",
          "type": "uint256"
        }
      ],
      "stateMutability": "view",
      "type": "function"
    },
    {
      "inputs": [],
      "name": "airdropContract",
      "outputs": [
        {
          "internalType": "address",
          "name": "",
          "type": "address"
        }
      ],
      "stateMutability": "view",
      "type": "function"
    },
    {
      "inputs": [
        {
          "internalType": "address",
          "name": "token",
          "type": "address"
        },
        {
          "internalType": "string",
          "name": "description",
          "type": "string"
        },
        {
          "internalType": "uint256",
          "name": "proposalType",
          "type": "uint256"
        },
        {
          "internalType": "uint256",
          "name": "proposedValue",
          "type": "uint256"
        },
        {
          "internalType": "address[]",
          "name": "recipients",
          "type": "address[]"
        },
        {
          "internalType": "uint256[]",
          "name": "amounts",
          "type": "uint256[]"
        }
      ],
      "name": "createProposal",
      "outputs": [
        {
          "internalType": "uint256",
          "name": "",
          "type": "uint256"
        }
      ],
      "stateMutability": "nonpayable",
      "type": "function"
    },
    {
      "inputs": [
        {
          "internalType": "uint256",
          "name": "proposalId",
          "type": "uint256"
        }
      ],
      "name": "executeProposal",
      "outputs": [],
      "stateMutability": "nonpayable",
      "type": "function"
    },
    {
      "inputs": [
        {
          "internalType": "uint256",
          "name": "proposalId",
          "type": "uint256"
        }
      ],
      "name": "getProposal",
      "outputs": [
        {
          "internalType": "address",
          "name": "creator",
          "type": "address"
        },
        {
          "internalType": "address",
          "name": "token",
          "type": "address"
        },
        {
          "internalType": "string",
          "name": "description",
          "type": "string"
        },
        {
          "internalType": "uint256",
          "name": "votesFor",
          "type": "uint256"
        },
        {
          "internalType": "uint256",
          "name": "votesAgainst",
          "type": "uint256"
        },
        {
          "internalType": "uint256",
          "name": "endTime",
          "type": "uint256"
        },
        {
          "internalType": "bool",
          "name": "executed",
          "type": "bool"
        },
        {
          "internalType": "bool",
          "name": "active",
          "type": "bool"
        },
        {
          "internalType": "uint256",
          "name": "proposalType",
          "type": "uint256"
        },
        {
          "internalType": "uint256",
          "name": "proposedValue",
          "type": "uint256"
        },
        {
          "internalType": "address[]",
          "name": "recipients",
          "type": "address[]"
        },
        {
          "internalType": "uint256[]",
          "name": "amounts",
          "type": "uint256[]"
        }
      ],
      "stateMutability": "view",
      "type": "function"
    },
    {
      "inputs": [],
      "name": "governanceEnabled",
      "outputs": [
        {
          "internalType": "bool",
          "name": "",
          "type": "bool"
        }
      ],
      "stateMutability": "view",
      "type": "function"
    },
    {
      "inputs": [
        {
          "internalType": "uint256",
          "name": "",
          "type": "uint256"
        },
        {
          "internalType": "address",
          "name": "",
          "type": "address"
        }
      ],
      "name": "hasVoted",
      "outputs": [
        {
          "internalType": "bool",
          "name": "",
          "type": "bool"
        }
      ],
      "stateMutability": "view",
      "type": "function"
    },
    {
      "inputs": [
        {
          "internalType": "uint256",
          "name": "proposalId",
          "type": "uint256"
        },
        {
          "internalType": "address",
          "name": "voter",
          "type": "address"
        }
      ],
      "name": "hasVotedOnProposal",
      "outputs": [
        {
          "internalType": "bool",
          "name": "",
          "type": "bool"
        }
      ],
      "stateMutability": "view",
      "type": "function"
    },
    {
      "inputs": [],
      "name": "owner",
      "outputs": [
        {
          "internalType": "address",
          "name": "",
          "type": "address"
        }
      ],
      "stateMutability": "view",
      "type": "function"
    },
    {
      "inputs": [],
      "name": "proposalCount",
      "outputs": [
        {
          "internalType": "uint256",
          "name": "",
          "type": "uint256"
        }
      ],
      "stateMutability": "view",
      "type": "function"
    },
    {
      "inputs": [
        {
          "internalType": "uint256",
          "name": "",
          "type": "uint256"
        }
      ],
      "name": "proposals",
      "outputs": [
        {
          "internalType": "address",
          "name": "creator",
          "type": "address"
        },
        {
          "internalType": "address",
          "name": "token",
          "type": "address"
        },
        {
          "internalType": "string",
          "name": "description",
          "type": "string"
        },
        {
          "internalType": "uint256",
          "name": "votesFor",
          "type": "uint256"
        },
        {
          "internalType": "uint256",
          "name": "votesAgainst",
          "type": "uint256"
        },
        {
          "internalType": "uint256",
          "name": "endTime",
          "type": "uint256"
        },
        {
          "internalType": "bool",
          "name": "executed",
          "type": "bool"
        },
        {
          "internalType": "bool",
          "name": "active",
          "type": "bool"
        },
        {
          "internalType": "uint256",
          "name": "proposalType",
          "type": "uint256"
        },
        {
          "internalType": "uint256",
          "name": "proposedValue",
          "type": "uint256"
        }
      ],
      "stateMutability": "view",
      "type": "function"
    },
    {
      "inputs": [],
      "name": "renounceOwnership",
      "outputs": [],
      "stateMutability": "nonpayable",
      "type": "function"
    },
    {
      "inputs": [
        {
          "internalType": "address",
          "name": "_airdropContract",
          "type": "address"
        }
      ],
      "name": "setAirdropContract",
      "outputs": [],
      "stateMutability": "nonpayable",
      "type": "function"
    },
    {
      "inputs": [
        {
          "internalType": "bool",
          "name": "enabled",
          "type": "bool"
        }
      ],
      "name": "setGovernanceEnabled",
      "outputs": [],
      "stateMutability": "nonpayable",
      "type": "function"
    },
    {
      "inputs": [
        {
          "internalType": "address",
          "name": "newOwner",
          "type": "address"
        }
      ],
      "name": "transferOwnership",
      "outputs": [],
      "stateMutability": "nonpayable",
      "type": "function"
    },
    {
      "inputs": [
        {
          "internalType": "uint256",
          "name": "proposalId",
          "type": "uint256"
        },
        {
          "internalType": "bool",
          "name": "support",
          "type": "bool"
        }
      ],
      "name": "vote",
      "outputs": [],
      "stateMutability": "nonpayable",
      "type": "function"
    }
  ],
  "bytecode": "0x6080806040523461008b5733156100755760008054336001600160a01b03198216811783556040519290916001600160a01b0316907f8be0079c531659141344cd1fd0a4f28419497f9722a3daafe3b4186f6b6457e09080a360018055600160ff1960025416176002556114e590816100918239f35b631e4fbdf760e01b815260006004820152602490fd5b600080fdfe6080604052600436101561001257600080fd5b6000803560e01c8063013cf08b146110ec5780630b3978fc146110c95780630d61b51914610d5c5780634385963214610d10578063600303d814610d105780636f01153814610c9a578063715018a614610c405780637c63fc24146105db5780638da5cb5b146105b4578063ab2be7261461058b578063b1610d7e1461056d578063c7f758a8146103f0578063c9d27afe14610234578063ce2661f1146101cb578063da35c664146101ad578063ee8a7c1514610191578063f250e5ea146101755763f2fde38b146100e357600080fd5b34610172576020366003190112610172576100fc611328565b610104611483565b6001600160a01b0390811690811561015957600054826bffffffffffffffffffffffff60a01b821617600055167f8be0079c531659141344cd1fd0a4f28419497f9722a3daafe3b4186f6b6457e0600080a380f35b604051631e4fbdf760e01b815260048101849052602490fd5b80fd5b5034610172578060031936011261017257602060405160018152f35b50346101725780600319360112610172576020604051600a8152f35b50346101725780600319360112610172576020600354604051908152f35b50346101725760203660031901126101725760043580151580910361022f5760207f48de3e8b8ff02681dc716e2346bd08412b6d15638b23df7c7e597572a0a277fe91610216611483565b60ff196002541660ff821617600255604051908152a180f35b600080fd5b503461017257604036600319011261017257600435602435908115159182810361022f57610260611460565b8184526020600481526040852060ff600682015460081c16156103de5760058101544210156103cc57838652600582526040862033600052825260ff604060002054166103ba5760018101546040516370a0823160e01b815233600482015293908390859060249082906001600160a01b03165afa9384156103af578794610380575b50831561036e5784875260058352604087203360005283526040600020600160ff1982541617905560001461035957600301610320838254611356565b90555b6040519384528301527fcbdf6214089cba887ecbf35a0b6a734589959c9763342c756bb2a80ca2bc9f6e60403393a36001805580f35b600401610367838254611356565b9055610323565b60405163198aee0160e01b8152600490fd5b9093508281813d83116103a8575b610398818361120b565b8101031261022f575192386102e3565b503d61038e565b6040513d89823e3d90fd5b6040516366cda2df60e01b8152600490fd5b604051636dff501760e11b8152600490fd5b6040516309a2e90160e01b8152600490fd5b5034610172576020366003190112610172576004803582526020819052604082208054600182015460038301549383015460058401546006850154600786015460088701546001600160a01b0395861699968616989495949390929061045860028a0161122d565b60405197908861046b8160098e01611379565b03610476908a61120b565b60405180600a819d0190610489916113c0565b03610494908c61120b565b6040519c8d9c8d61018092839282526020820152604001528c016104b7916112d2565b9560608c015260808b015260a08a015260ff8116151560c08a015260081c60ff16151560e0890152610100880152610120870152858103610140870152825190818152602001926020019184905b82821061054e5750505050838103610160850152602080845192838152019301915b818110610535575050500390f35b8251845285945060209384019390920191600101610527565b8351811685528897506020948501949093019260019190910190610505565b5034610172578060031936011261017257602060405162093a808152f35b50346101725780600319360112610172576006546040516001600160a01b039091168152602090f35b5034610172578060031936011261017257546040516001600160a01b039091168152602090f35b50346101725760c0366003190112610172576105f5611328565b9060243567ffffffffffffffff8111610c3c5736602382011215610c3c57806004013567ffffffffffffffff8111610c28576040519161063f601f8301601f19166020018461120b565b8183523660248383010111610c2057818492602460209301838601378301015260843567ffffffffffffffff8111610c245736602382011215610c245780600401359261068b8461133e565b91610699604051938461120b565b84835260208301906024829660051b82010190368211610c2057602401915b818310610c005750505060a4359067ffffffffffffffff82116101725736602383011215610172578160040135926106ef8461133e565b926106fd604051948561120b565b848452602084016024819660051b83010191368311610bfc57602401905b828210610bec5750505060ff6002541615610bda576001600160a01b03871615610bc857600460443511610bb6576040516318160ddd60e01b81526020816004816001600160a01b038c165afa908115610bab578391610b79575b506040516370a0823160e01b81523360048201526020816024816001600160a01b038d165afa908115610b6e578491610b3c575b50606481029080820460641490151715610a3a5781800460011482151715610a3a5710610b2a57600354956000198714610b1657600187810160035587845260046020526040842080546001600160a01b03199081163317825591810180549092166001600160a01b038b1617909155865190929067ffffffffffffffff8111610b025761083b60028501546111a7565b601f8111610ac4575b50806020601f8211600114610a59578691610a4e575b508160011b916000199060031b1c19161760028401555b83600384015583600484015562093a8042014211610a3a574262093a8001600584015560068301805461ffff1916610100179055604435600784018190556064356008850155600414610915575b60208888817fbf0fcd54b591a07a1943cf5eaf6fdd64e31bc7b4c469e9ba81fb00e21fd859f58d6040519060018060a01b031681526040868201528061090a339560408301906112d2565b0390a3604051908152f35b8051855103610a28576006546001600160a01b031615610a1657519067ffffffffffffffff8211610a0257600160401b8211610a02576009830180548382556109609184919061143d565b60098301845260208420845b8381106109e55750505050600a0191519267ffffffffffffffff84116109d157600160401b84116109d1576109a68484548186558561143d565b91815260208120905b8381106109bd5780806108bf565b6001906020845194019381840155016109af565b634e487b7160e01b82526041600452602482fd5b82516001600160a01b03168183015560209092019160010161096c565b634e487b7160e01b84526041600452602484fd5b604051630e2e7e9f60e01b8152600490fd5b6040516311450cd560e31b8152600490fd5b634e487b7160e01b84526011600452602484fd5b90508801513861085a565b91506002850186526020862086925b8a601f1984168510610aad57506001935082601f19811610610a94575b5050811b016002840155610871565b8a015160001960f88460031b161c191690553880610a85565b810151825560209384019360019092019101610a68565b610af29060028601875260208720601f840160051c81019160208510610af8575b601f0160051c0190611426565b38610844565b9091508190610ae5565b634e487b7160e01b85526041600452602485fd5b634e487b7160e01b83526011600452602483fd5b604051636ad3c65760e01b8152600490fd5b90506020813d602011610b66575b81610b576020938361120b565b8101031261022f5751386107aa565b3d9150610b4a565b6040513d86823e3d90fd5b90506020813d602011610ba3575b81610b946020938361120b565b8101031261022f575138610776565b3d9150610b87565b6040513d85823e3d90fd5b60405163ee412df560e01b8152600490fd5b60405163cbc2912b60e01b8152600490fd5b60405163b88a1e4b60e01b8152600490fd5b813581526020918201910161071b565b8480fd5b82356001600160a01b038116810361022f578152602092830192016106b8565b8380fd5b8280fd5b634e487b7160e01b83526041600452602483fd5b5080fd5b5034610172578060031936011261017257610c59611483565b600080546001600160a01b0319811682556001600160a01b03167f8be0079c531659141344cd1fd0a4f28419497f9722a3daafe3b4186f6b6457e08280a380f35b503461017257602036600319011261017257610cb4611328565b610cbc611483565b6001600160a01b03908116908115610a1657600654826bffffffffffffffffffffffff60a01b821617600655167f3e548786479ceaa7bb00ffee3bc1e9992158f72287ae6ddde158deb72b2890b08380a380f35b5034610172576040366003190112610172576040610d2c611312565b9160043581526005602052209060018060a01b0316600052602052602060ff604060002054166040519015158152f35b503461017257602080600319360112610c3c57600435610d7a611460565b80835260048252604083206006810190815460ff8160081c16156103de57600582015442106110b75760ff81166110a557600182810180546040516318160ddd60e01b815292976001600160a01b0393918416918181600481865afa91821561109a578b92611068575b5050610df96003870154600488015490611356565b60648102908082046064149015171561105457600a820291808304600a1490151715611054571061104257889588809561ffff19161790556007850154848114600014610ec9575050600892505416910154813b15610c24578291602483926040519485938492638bf5540960e01b845260048401525af18015610ebe57610eaa575b50505b33907f9c85b616f29fca57a17eafe71cf9ff82ffef41766e2cf01ea7f8f7878dd3ec248480a3805580f35b610eb3906111e1565b610c24578238610e7c565b6040513d84823e3d90fd5b60028103610f28575050600892505416910154813b15610c2457829160248392604051948593849263026f1f2360e61b845260048401525af18015610ebe57610f14575b5050610e7f565b610f1d906111e1565b610c24578238610f0d565b60038103610f7357505090600891541692015414813b15610c2457829160248392604051948593849263056577d960e51b845260048401525af18015610ebe57610f14575050610e7f565b91509450600491925014610f8a575b505050610e7f565b600a60098301920192803b1561103e57866040518092631951d16b60e11b8252818381610fbb8a8a600484016113fe565b03925af180156103af57611027575b50908592916006541691823b15610c2057610ffe92849283604051809681958294637d06a9f160e01b8452600484016113fe565b03925af18015610ebe57611013575b80610f82565b61101c906111e1565b610c2457823861100d565b6110359096919392966111e1565b94909138610fca565b8680fd5b60405163433b118f60e11b8152600490fd5b634e487b7160e01b8b52601160045260248bfd5b90809250813d8311611093575b61107f818361120b565b8101031261108f57513880610de4565b8980fd5b503d611075565b6040513d8d823e3d90fd5b60405163b96ef37b60e01b8152600490fd5b6040516370d307c160e11b8152600490fd5b5034610172578060031936011261017257602060ff600254166040519015158152f35b50346101725760203660031901126101725760048035825260205260409020805460018201546001600160a01b039182169291169061112d6002820161122d565b60038201549160ff6004820154600583015460068401549161117260086007870154960154966040519a8b9a610140918c5260208c01528060408c01528a01906112d2565b966060890152608088015260a0870152818116151560c087015260081c16151560e08501526101008401526101208301520390f35b90600182811c921680156111d7575b60208310146111c157565b634e487b7160e01b600052602260045260246000fd5b91607f16916111b6565b67ffffffffffffffff81116111f557604052565b634e487b7160e01b600052604160045260246000fd5b90601f8019910116810190811067ffffffffffffffff8211176111f557604052565b90604051918260008254611240816111a7565b908184526020946001916001811690816000146112b05750600114611271575b50505061126f9250038361120b565b565b600090815285812095935091905b81831061129857505061126f9350820101388080611260565b8554888401850152948501948794509183019161127f565b9250505061126f94925060ff191682840152151560051b820101388080611260565b919082519283825260005b8481106112fe575050826000602080949584010152601f8019910116010190565b6020818301810151848301820152016112dd565b602435906001600160a01b038216820361022f57565b600435906001600160a01b038216820361022f57565b67ffffffffffffffff81116111f55760051b60200190565b9190820180921161136357565b634e487b7160e01b600052601160045260246000fd5b9081548082526020809201926000526020600020916000905b8282106113a0575050505090565b83546001600160a01b031685529384019360019384019390910190611392565b9081548082526020809201926000526020600020916000905b8282106113e7575050505090565b8354855293840193600193840193909101906113d9565b909161141561142393604084526040840190611379565b9160208184039101526113c0565b90565b818110611431575050565b60008155600101611426565b9181811061144a57505050565b61126f9260005260206000209182019101611426565b600260015414611471576002600155565b604051633ee5aeb560e01b8152600490fd5b6000546001600160a01b0316330361149757565b60405163118cdaa760e01b8152336004820152602490fdfea2646970667358221220135c07f3cd735698200b0135f8fd5b51c96461027caeafbc74fffbf03c84b25f64736f6c63430008180033",
  "linkReferences": {},
  "deployedLinkReferences": {}
}